:020000040000FA
:0600000002010A021FECE0
:03002B000224614B
:0300330002244361
:03003B000224821A
:030043000223F79E
:0300530002206226
:03006B0002241D4F
:10008300021E9BE5C754F84401F5C779012200001D
:100093000080FB120086B900030200F4E4792178A2
:1000A30008B800028004F709D8FCE479297802B87B
:1000B30000028004F709D8FCE4900281785379099F
:1000C3008002F0A3D8FCD9FA900AD3AA82AB83901A
:1000D300013A787379038015E493A3AC82AD838AE4
:1000E300828B83F0A3AA82AB838C828D83D8E9D9D8
:1000F300E77582D77583A3740312011C758291750A
:100103008300740012011C75D00075813F7518813E
:10011300751902759F00020096C09FF59FE473D086
:100123009F22D083D082C09FE493C0E0740193C028
:10013300E0740293F59F22FF0000B400002800281A
:1001430000283075A000A000A000A000000800084F
:10015300E001F0001000100010001000100010006B
:1001630050005000500010001000D00700000000A5
:1001730000000F00010005003075070010000100AA
:1001830081FF00000000FFAA05C805B005FF0202B9
:100193000208025000A0000000E80302E092010000
:1001A30000BF9202CA920100002A0B02D6920100FC
:1001B30000B30202CA920100002B0B02D492010089
:1001C30000C90202CA920100002C0B02CE92010068
:1001D30000CB0202CA920100002D0B02C29208005A
:1001E30000CC0202CA920100002E0B02C49201004D
:1001F300002F0BFF0100FF2002E092010000BC92E0
:1002030002CA92010000930B02C692000000000094
:1002130002E8920300001903DA0BDA0BDA0BDA0BAC
:10022300DA0BDA0BDA0BDA0BDA0BDA0BDA0BDA0BA3
:10023300DA0BB00EC80EAA0EFFFF02020202020280
:10024300020202010D000000100102E09201000011
:10025300B99202CA92010000D60B02EA9201000091
:100263005F0702CA92010000D70B02E69201000069
:10027300CF9102CA92010000D80B02E49201000060
:10028300A69102CA92010000D90B02E2920100007A
:10029300F39002CA92010000DA0B02DE9201000021
:1002A300E19002CA92010000DB0B02DC9201000024
:1002B300CF9002CA92010000DC0B02DA9201000027
:1002C300BD9002CA92010000DD0B02F09201000012
:1002D300B49102CA92010000DE0B02D89201000021
:1002E300DF0B01E803053F100AFF0001307503022D
:1002F30001060000000000000000000000000000F4
:100303000000000000000000000000000000FFFFEC
:100313000600800CE803060953696D706C051250E2
:10032300002003020A00020106030207E208FF9C01
:10033300D21EF3E9C9313238555549440000000053
:10034300000000000000000000004E1300005413E2
:100353000A5772697465204368617200104E6F74A6
:1003630069667920436861720002E092010000B679
:100373009202CA92010000EC0C103791030000B8FE
:100383000A02C892010000ED0C02CA92010000F8B3
:100393000C104791000000CC0A02E892030000CD44
:1003A3000A02C892010000F90C120125B993031245
:1003B3000125D093031201250194031201253C94D6
:1003C300031201256694031201259094031201255B
:1003D300A79403120125BE9403120125D594031299
:1003E3000125FE940312012511950312012527957A
:1003F300031201253A950312012561950312012584
:100403000198021201250599021201253D99021254
:1004130001256099021201256B99021201258E991B
:10042300021201259D9A02120125729B02120125D7
:10043300ED9B02120125759C02120125B09C02124C
:100443000125E79C02120125759D021201254E9E8E
:1004530002120125AE9E02120125B99E0212012548
:10046300389F021201253B9F021201253E9F021273
:100473000125CD9F02120125D09F0212012500A064
:10048300021201252AA00212012518A10212012538
:10049300CAA102120125E2E1021201250AE20212B7
:1004A300012538E2021201256FE202120125CDE295
:1004B3000212012518E30212012563E3021201254A
:1004C300A3E302120125E9E30212012517E4021254
:1004D3000125D4E402120125DEE402120125EBE436
:1004E300021201251EE502120125EAE50212012589
:1004F300F6E5021201250EE60212012518E60212A4
:1005030001251AA00312012528A00312012540A0EA
:100513000312012558A003120125EDB20112012592
:1005230099B30112012514B40112012535B5011245
:10053300012571B5011201251AB60112012501B772
:100543000112012565B801120125BCB8011201256C
:100553003DB9011201252DBA011201257ABA011202
:10056300012500BB0112012532BB0112012546BD45
:100573000112012588BD01120125A6BD0112012525
:1005830029BE01120125FDBE01120125C5BF0112BD
:100593000125FCD502120125CFD60212012578D7F9
:1005A30002120125CBD7021201257BD802120125A5
:1005B30007D902120125F3D90212012522DA021208
:1005C300012535DB021201257DDB0212012552DCF8
:1005D300021201258EDC02120125AADC021201257A
:1005E30034A2031201250080031201251680031291
:1005F30001253C80031201255881031201256281E4
:10060300031201259782031201258F83031201250B
:10061300117A00120125417B00120125747B00121F
:100623000125BE7B00120125857D00120125FEA256
:100633000112012568A301120125C7A40112012596
:10064300D7A40112012504A5011201255BA50112FE
:10065300012504A6011201250BA701120125D5A727
:100663000112012535A90112012578A901120125DD
:100673001DAA011201256AAA0112012590AA0112DD
:1006830001259EAC01120125A3AC01120125A8AEE0
:1006930001120125F5AE0112012568AF01120125F2
:1006A3009BAF011201253DB001120125E6B00112F5
:1006B30001251EB10112012521B10112012569B1E4
:1006C30001120125A9B10112012500B20112012570
:1006D300E48903120125FC8903120125448A0312CC
:1006E30001255A8A03120125A18A03120125B58B1C
:1006F30003120125428C031201258D8C031201255F
:10070300F424001201250025001201253B250012C7
:100713000125802500120125402600120125C62649
:10072300001201252B27001201255727001201254E
:10073300902700120125CE2900120125B22B0012A9
:100743000125982D00120125DB2E001201252931E8
:10075300001201253B3200120125863300120125C8
:10076300963400120125B33400120125EE34001231
:100773000125103500120125733500120125343A85
:1007830000120125C93A001201251A3B0012012566
:10079300413B00120125933B00120125B13B00129E
:1007A30001250B3C00120125F43C001201256A3E91
:1007B30000120125EE3E001201259FE602120125DB
:1007C300A9E602120125ECE60212012507E702124F
:1007D300012597E702120125BFE702120125FCE775
:1007E3000212012533E8021201255CE802120125F9
:1007F300D1E802120125E6E802120125FBE8021204
:1008030001252CE90212012540E90212012565E9BF
:10081300021201259FE902120125CBE902120125EB
:1008230003EA0212012582EA02120125CBEA02122F
:100833000125F5EA0212012520EB02120125069D8E
:10084300031201250080021201252E8002120125C8
:100853007C81021201255C82021201257B82021235
:100863000125F882021201253B830212012591849E
:1008730002120125528502120125D9870212012590
:100883007A88021201257089021201256D8A0212EB
:100893000125C78B02120125528C02120125AB9B45
:1008A30003120125149C03120125689C03120125E0
:1008B3008F9C03120125C09C0312012548EB0212F1
:1008C3000125B5EB02120125FCEB0212012514ED03
:1008D3000212012510EE02120125F3EE0212012588
:1008E3007EB502120125C0B50212012592B602128D
:1008F30001256BB70212012565B80212012547B91C
:1009030002120125B0B90212012566BA02120125AD
:10091300DABA0212012546BB021201256FBB02128D
:100923000125E9BB0212012582BC02120125E7BCA5
:1009330002120125FCBC0212012542BD021201254F
:100943005BBD02120125C0BD02120125C3BD021207
:100953000125EB8603120125138703120125518715
:10096300031201250F88031201257688031201253E
:10097300928803120125BA8803120125EA8803121B
:100983000125F988031201257689031201259C8923
:1009930003120125F79201120125959401120125F5
:1009A300B09601120125EC96011201251997011247
:1009B3000125FE9701120125459801120125899809
:1009C300011201259B9801120125DB9801120125D3
:1009D30008990112012553990112012593990112D6
:1009E3000125C19901120125139A01120125A39A28
:1009F30001120125419D01120125579F0112012575
:100A0300959F0112012526A1011201256BA1011257
:100A13000125E2A1011201252CA20112012557A2F1
:100A23000112012505AC0212012584AC0212012535
:100A330046B20212012555B302120125BDB40212BA
:100A4300012554B502120125EB540012012534553A
:100A5300001201256155001201259455001201254C
:100A6300A15500120125AD5500120125BF550012F5
:100A73000125A656001201250457001201253957F6
:100A8300001201257C5800120125C95800120125C6
:100A9300ED58001201255A5900120125185A001267
:100AA3000125D15A001201253E5B00120125F05B9E
:100AB30000120125005C00120125875C001201254C
:100AC300465D00120125735D00120125EC5D0012E5
:100AD3000125495E00120125935E00120125295F5D
:100AE30000120125F45F00120125A96000120125FF
:100AF3001E61001201257F6100120125E9610012C8
:100B03000125226200120125C46200120125D4636B
:100B1300001201251464001201253164001201251D
:100B2300506400120125976400120125BC64001271
:100B33000125E96400120125636500120125A465FE
:100B430000120125C86600120125786700120125ED
:100B5300CF6700120125396800120125526800127F
:100B630001253BA2021201258EA2021201259AA29F
:100B7300021201256FA30212012596A30212012579
:100B8300D1A3021201253DA40212012579A4021268
:100B93000125B2A402120125CAA4021201251FA530
:100BA3000212012538A50212012581A50212012591
:100BB30094A502120125AEA502120125C4A50212B5
:100BC3000125F7A6021201253EA80212012540A91C
:100BD300021201253AAA02120125F8FF011201258A
:100BE30078EC01120125A8EC0112012570F0011225
:100BF3000125C7F10112012590F20112012510F41C
:100C030001120125E1F4011201251EF5011201254E
:100C130041F5011201257FF50112012588F5011225
:100C23000125D2F501120125DCF50112012586F615
:100C3300011201255FF701120125B3F70112012506
:100C430015F80112012568F80112012597F8011220
:100C53000125D4F801120125846800120125EB6BEC
:100C630000120125F16B0012012573710012012599
:100C7300EC7500120125C279001201259983031234
:100C830001250F840312012525840312012566849F
:100C930003120125A08403120125198503120125DE
:100CA300548503120125C785031201250586031206
:100CB30001250E86031201251A86031201253686A5
:100CC300031201256186031201257786031201258C
:100CD300BB86031201251FDD0212012532DD02123C
:100CE30001254CDD0212012575DD02120125B8DD57
:100CF30002120125F7DD0212012535DE021201255C
:100D03009ADE02120125AFDE02120125BADE0212BB
:100D13000125C7DE02120125DEDE02120125ECDE0B
:100D230002120125F7DE0212012503DF021201255B
:100D330016DF0212012521DF0212012544DF021210
:100D43000125EBDF02120125FBDF0212012515E06D
:100D53000212012532E0021201254EE002120125A2
:100D630073E0021201257EE00212012593E00212D4
:100D73000125A7E00212012508E1021201250EE177
:100D83000212012514E1021201251AE102120125C2
:100D930032E10212012565E1021201254FD0011251
:100DA3000125D3D00112012582D101120125E1D2FF
:100DB3000112012502D501120125EED501120125EB
:100DC30023D60112012545D601120125F4D60112BD
:100DD3000125ECD80112012515D901120125A7D946
:100DE30001120125D9D901120125E6D901120125E4
:100DF3003DDA0112012563DA01120125D0DC01126B
:100E03000125D3DD011201252BDE01120125DEC1EF
:100E130001120125E8C201120125CFC301120125E8
:100E2300D9C301120125FBC30112012507C4011215
:100E33000125A0C501120125CFC501120125EBC66D
:100E43000112012544C701120125AAC80112012577
:100E530089C901120125E5C90112012552CA0112EE
:100E630001258DCA01120125CCCA0112012585CDA8
:100E7300011201259FCD011201252BCE011201255F
:100E830039CE0112012592CE01120125A0CE011205
:100E9300012513CF0112012577CF01120125C1CFFF
:100EA30001120125D38C02120125F58C02120125B2
:100EB3001B8F021201253092021201254893021260
:100EC3000125FB9302120125DD940212012573957E
:100ED300031201259895031201250A960312012591
:100EE30082CE021201258BCE0212012594CE02126C
:100EF30001256BCF021201251CD10212012552D10B
:100F0300021201258CD102120125C2D10212012540
:100F1300FCD10212012530D2021201255CD2021249
:100F23000125A5D202120125DFD20212012528D301
:100F33000212012580D302120125B5D30212012525
:100F430010D4021201254AD4021201259BD40212A5
:100F53000125D1D4021201250BD50212012539D561
:100F6300021201255CD502120125F1A0031201250D
:100F73001DA10312012578A10312012582A10312E9
:100F8300012592A10312012506A503120125E7BD40
:100F930002120125F1BD021201252FBE0212012505
:100FA30078BE02120125B2BE021201250CBF021245
:100FB30001252DBF0212012505C2021201250EC211
:100FC300021201255BC20212012584C2021201250D
:100FD3008EC202120125FAC2021201258CC302122B
:100FE3000125D6C3021201250CC40212012598C49F
:100FF30002120125D9C40212012510C502120125CE
:1010030022C50212012541C5021201254AC5021259
:10101300012512C602120125239F03120125C8913F
:1010230003120125FE9103120125349203120125B7
:101033007F9303120125B8A203120125CEA2031246
:101043000125D8A20312012522A30312012542F888
:101053000212012557F8021201250AF9021201258D
:101063004AF90212012563F9021201259EF90212BF
:101073000125EBF9021201251DFA021201255FFA7F
:1010830002120125349A031201255D9A03120125E8
:101093008C9A03120125249B03120125669B0312DC
:1010A300012594FE01120125A2FE0112012514FF60
:1010B30001120125BFFF01120125CBFF01120125FA
:1010C300DCFF01120125B78C03120125DC8C03120E
:1010D3000125068D0312012581A303120125553F26
:1010E30000120125BA41001201255B4300120125BC
:1010F3000F4400120125A2440012012527450012C6
:1011030001254C4500120125A2480012012528495A
:10111300001201255B4A00120125954A00120125A0
:10112300CA4A001201258A4C00120125E74C00121D
:101133000125304D001201259B4D001201250C4E57
:10114300001201253E4E00120125564E00120125C4
:101153009F4F00120125AF4F00120125CA50001204
:101163000125EC5000120125225100120125D6520F
:1011730000120125635300120125A2530012012519
:10118300C65400120125387F00120125497F001241
:1011930001252AA40312012569A403120125F3A43E
:1011A300031201259CA103120125ACA10312012501
:1011B300C4A1031201252AA2031201251F9E0312B3
:1011C3000125A49E031201250A9F03120125BA9843
:1011D30003120125E398031201254E9903120125F9
:1011E3009F9903120125FA9903120125B5EF021203
:1011F3000125EEEF0212012560F00212012575F0C0
:1012030002120125A0F1021201251CF2021201258E
:10121300E2F20212012501F30212012528F3021260
:10122300012565F3021201257DF302120125CEF398
:1012330002120125EE7F001201256AFC021201252C
:10124300FAFC0212012586FD021201251FFE02127D
:101253000125B0FE02120125B9FE0212012537FF56
:10126300021201254AFF0212012560FF0212012525
:10127300C0FF02120125D3FF0212012518970312A2
:1012830001256A9703120125F497031201255B9840
:1012930003120125838F03120125AD8F031201254C
:1012A3007B900312012556910312012540C60212B9
:1012B300012507C7021201253EC70212012568C78F
:1012C30002120125C8C7021201251EC802120125F8
:1012D30083C8021201251BC9021201252ACA021260
:1012E3000125C1CB021201254ECC02120125B5CC3A
:1012F30002120125CCCC02120125E6CD02120125F2
:1013030024CE0212012579DE01120125FAE1011230
:10131300012582E301120125D9E301120125F8E336
:101323000112012576E4011201250CE601120125C3
:10133300F1E601120125FFEA01120125D5EB0112A5
:101343000125AFF901120125D3FB0112012551FC3F
:101353000112012574FD01120125C8FD01120125A9
:1013630049FE0112012503F40212012548F4021279
:10137300012565F402120125DEF4021201251AF596
:101383000212012512F60212012509F802120125A3
:10139300A9A40312012573A403120125D6FF021287
:1013A3000125D5A403E066701008A3E066700A085F
:1013B300A3E066700408A3E06622C3E7960809E782
:1013C300960809E7960809E79622C3E09608A3E082
:1013D3009608A3E09608A3E09622C008C3E096F51A
:1013E3000808A3E096420808A3E096420808A3E091
:1013F3009645087001D3D00822080808EAC0E0EB3C
:10140300C0E086F0E7A4FA180986F0E7A42AFA18E0
:101413000986F0E7A42AFA180986F0E7A42AFA193C
:1014230086F0E7A4FBE5F02AFA190886F0E7A42B77
:10143300FBE5F03AFA190886F0E7A42BFBE5F03A4E
:10144300FA18180986F0E7A4C5F02BFBE43AFA1959
:1014530008E7C5F0C6A426F6E5F03BFBE43AFA1824
:1014630086F0E7A4F6E5F00826F6E43B08F6E43A4E
:1014730008F6D0E0FBD0E0FA22E4CFC0E0E4CEC02F
:10148300E0E4CDC0E0E4CCC0E075F020C3E633F681
:1014930008E633F608E633F608E633F6181818ECD0
:1014A30033FCED33FDEE33FEEF33FFC3EC9709ED71
:1014B3009709EE9709EF97191919400FFFEC97FC5D
:1014C30009ED97FD09EE97FE191906D5F0BEECF765
:1014D30009EDF709EEF709EFF7191919D0E0FCD078
:1014E300E0FDD0E0FED0E0FF226016080808C6C386
:1014F30013C618C613C618C613C618C613C6D5E036
:10150300EA227009080808226016181818C6C3339F
:10151300C608C633C608C633C608C633C6D5E0EA0E
:1015230022E627F60809E637F60809E637F608093A
:10153300E637F622E026F608A3E036F608A3E036FF
:10154300F608A3E036F622E026F008A3E036F0081A
:10155300A3E036F008A3E036F022C3E697F60809C5
:10156300E697F60809E697F60809E697F622C3E038
:1015730096F008A3E096F008A3E096F008A3E0969F
:10158300F022E056F608A3E056F608A3E056F60864
:10159300A3E056F622E056F008A3E056F008A3E0D5
:1015A30056F008A3E056F022E0F608A3E0F608A3FD
:1015B300E0F608A3E0F622E6F008A3E6F008A3E6C7
:1015C300F008A3E6F022E0FAA3E0FBA3E0FCA3E02B
:1015D300FD22EAF0A3EBF0A3ECF0A3EDF022CAC0E6
:1015E300E0E6F0A308DAFAD0E0FA22CAC0E0E0A30A
:1015F300C582CCC582C583CDC583F0A3C582CCC5C6
:1016030082C583CDC583DAE6D0E0CA22C3E498F865
:10161300E499F91216508026C3E49AFAE49BFBE995
:1016230020E7E9121650E498F8E499F922C3E49804
:10163300F8E499F9121650E498F8E499F9C3E49A96
:10164300FAE49BFB22EB20E7CFE920E7E0B90010A7
:10165300BB0008E88AF084F8AAF022E4FBC8FA2267
:10166300EB70227B10C833C8C933C9335007C39A00
:10167300C3DBF280069A50012ADBEAC833F4C8C9F7
:1016830033F4C9FA2275F008E4C833C8C933C9333F
:10169300C99AC99B5004C92AC93BD5F0ECFBC8338E
:1016A300F4C8E4C9FA22600D08C6A2E713C618C637
:1016B30013C6D5E0F322600C08C6C313C618C613BD
:1016C300C6D5E0F422700422600D18C6C333C608E1
:1016D300C633C6D5E0F41822251810AF08F5184014
:1016E3000215198008F51840021519D2AF22C0D08F
:1016F300251810AF08F518500205198008F5185081
:10170300020519D2AFD0D0222518F58210AF08F503
:1017130018400215198008F51840021519D2AF8533
:101723001983222518F582E43519F58322E47325FC
:1017330018C582C0E0E51934FFC583C0E0E518C3CE
:10174300958224F810AF088583198582188008854F
:101753008319858218D2AFCEF0A3E520F0A37808D1
:10176300E608F0A3DEFAEFF0A3E58124FAF8E60831
:10177300F0A3E608F0A3E608F0A30808E608F0A340
:10178300E608F0A315811581D0E0FED0E0F81581BD
:1017930015811581E8C0E0EEC0E0222518C582C09E
:1017A300E0E51934FFC583C0E0E518C3958224F949
:1017B30010AF08858319858218800885831985826F
:1017C30018D2AFCEF0A3E520F0A37808E608F0A383
:1017D300DEFAEFF0A3E58124FBF8E608F0A3E608C0
:1017E300F0A30808E608F0A3E608F0A31581158125
:1017F300D0E0FED0E0F815811581E8C0E0EEC0E04E
:1018030022851983851882E0A3FEE0A3F5207808DA
:10181300E0A3F608DFFAE0A3FFE0A3C0E0E0A3C083
:10182300E0E0A3C0E0E0A3C0E0E0A3C0E010AF08A5
:101833008582188583198008858218858319D2AF1C
:10184300D083D082020122851983851882E0A3FE0A
:10185300E0A3F5207808E0A3F608DFFAE0A3FFE0B1
:10186300A3C0E0E0A3C0E0E0A3C0E0E0A3C0E010B9
:10187300AF088582188583198008858218858319A6
:10188300D2AFD083D08222C0D02518C582C0E0E574
:101893001934FFC583C0E0E518C3958224F310AF64
:1018A300088583198582188008858319858218D253
:1018B300AFC8F0A3E9F0A3EAF0A3EBF0A37908E73C
:1018C30009F0A3D8FAECF0A3EDF0A3EEF0A3EFF048
:1018D300A3D0E0F0A3D0E0F0A3D0E0F0A3E520F0A4
:1018E300A3E5F0F0A322851983851882E0C0E0A365
:1018F300E0F9A3E0FAA3E0FBA37808E0F608A3DF8E
:10190300FAE0FCA3E0FDA3E0FEA3E0FFA3E0C0E058
:10191300A3E0C0E0A3E0F5D0A3E0F520A3E0A3F5A6
:10192300F010AF088583198582188008858319858F
:101933008218D2AFD082D083D0E0F8D0E0327404E2
:101943008006740280027401C0E0F40412170BD005
:10195300E01215E1227404800474028000CCC0E01C
:10196300EDC0E0E518C39CCCAD1950011D10AF06C6
:101973008C188D1980068C188D19D2AF1215EED0E4
:10198300E0FDD0E0FC22D083D082E9C0E0E493A361
:10199300C386F0C5F095F0F908E493A386F0C5F08B
:1019A30095F0700BE493A3C3994005E9048002A367
:1019B300E475F002A42582F582E5F03583F583D042
:1019C300E0F9E493A3C0E0E493C0E022D083D082A3
:1019D300ECC0E0EDC0E0E493A3FCE493A3FDED4C85
:1019E300600D121A1BEC24FFFCED34FFFD80EFE4C5
:1019F30093A3FCE493A3FDED4C600D121A5AEC245F
:101A0300FFFCED34FFFD80EFD0E0FDD0E0FCE4937C
:101A1300A3C0E0E493C0E022C0E0C3E4939608745B
:101A230001939618400FE493667008087401936657
:101A33001870007019A3A3C3E493960874019396D6
:101A430018A3A3400DD0E0D0E0D0E0021A0BA3A36B
:101A5300A3A3A3A3D0E022C0E0C0F088F0E4936680
:101A630070080874019366187000A8F0A3A3700BA4
:101A7300D0F0D0E0D0E0D0E0021A0BA3A3D0F0D096
:021A8300E0225F
:101A880074F512179EEAFEEBFFEE2434F8EF3400EB
:101A9800F988088909EE2435121BB4F8EE243712A8
:101AA8001BB4F50AEC850AF0A4FCAAF0850AF0ED4F
:101AB800A42AFDE82CF8E43DF97A257B001216509B
:101AC800EA850882850983F074075AF87401B8001A
:101AD800028004C333D8FCFBEA131313541FF8EE37
:101AE80028F8EF3400F9E8245DF582E9121BB75BAA
:101AF8006003EA801CEE2436121BB4F5F0EA84A8D1
:101B0800F0EE28F8EF3400F9E82438F582E9121BE2
:101B1800B7F97F0402184A74F512179EEAFEEBFF24
:101B2800EE2434121BB4C0E0EE2435F582EF340005
:101B3800F583D0E0F08E828F83A3A3A3A3A3E0FA5A
:101B4800A3E0FB8E828F83A3A3A3A3A3A3A3E0FC9C
:101B5800A3E0FDECC39AF50AED9BF50BEE247FF5A7
:101B680008EF3400F509850882F583E06401702BDD
:101B7800EE2480F582EF3400F58312195C121BBD48
:101B880074021216F1E960137CDC7D04EEFAEFFBB7
:101B9800120B02850882850983E4F0AC0AAD0BEECE
:101BA800FAEFFB121A881223E3021B1AF582EF34AC
:101BB80000F583E022C082C083851882851983E0FE
:101BC800F8A3E0F9C3EA9CEB9D5010C3EC98ED999B
:101BD800401BC3EA98EB995014800EC3EA98EB991E
:101BE8004007C3EC98ED994004790180027900D050
:101BF80083D08222EAC39CFAEB9DFB2274ED121774
:101C08009E9003A2E064086005E06407702C906170
:101C1800C8E060269003D0E0F874FF68601CE8759F
:101C2800F003A4C8AAF02AF974D228FE740339FF75
:101C38008E828F83A3A3A3E070057900021DA4EE12
:101C48002468F510EF3400F511906060E08510828B
:101C5800851183F0750A45750B057508007509002F
:101C6800E5D914F50EE5D95403F50F601CEE24826E
:101C7800F50CEF3400F50D7403650F6058E50E6040
:101C880013EE2467121BB4700B793DEEFAEFFB12CA
:101C98000B2680A6900540E064016026850C8285AD
:101CA8000D83E06004780480027800850E08E5085A
:101CB800C398FA95E0FB1209A68A088B09EA450938
:101CC8007006120D7E021C42850C82850D83E07021
:101CD800048A0A8B0B78008016E5D9C0E08812E5E3
:101CE8000A2512F582E50B3400F583D0E0F008E808
:101CF800C3950E40E4850C82850D83E0602874FC52
:101D0800250EF50E780A121945AC0EA90FEEFAEF5A
:101D1800FB120BD474021216F1E9700AAA08AB0977
:101D2800121282021C917403650F6058850E0C759F
:101D38000D00780C121945AC0AAD0BAA08AB0912B4
:101D48000B9874021216F1851082851183E0F874DD
:101D580080687005750C7F8002880CE50CF50A78A0
:101D68000A121949E50FF50A780A121949A90EACA1
:101D780008AD099003D0E0FA7B0012083E74021205
:101D880016F180139003A2E06408600BAC0AAD0B57
:101D9800EEFAEFFB120C6A120D8A79017F0C021819
:101DA8004A74F312179E74FC1216DBEAFEEBFF89E5
:101DB80008A2AFE433F509C2AFEE2463F50AEF34A5
:101DC80000F50B8010AA0AAB0B120B50121282906E
:101DD80004E3E004F0850A82850B83E0F8A3E0F9C8
:101DE800E849602FE82402FAE93400FBEA2402F506
:101DF8000CEB3400F50D780C1219458A828B83E0C0
:101E0800FCA3E0F9EEFAEFFB120B4474021216F190
:101E1800E960B29004E3E060579004E4E0F89004CD
:101E2800E3E0C398500C7402650870449004E5E040
:101E3800603E8E828F83A3A3A3A3E08518828519B1
:101E480083121E887402121726E8121E889004E274
:101E5800E028F07402121726AC82AD8385188285BB
:101E68001983AA82AB83790112084A9004E3E4F04B
:101E7800E509A2E092AF74041216F17F0602184A2F
:101E8800F0A3E4F09004E3E0F822000085218785C0
:101E980022C622C0E074EF12188AA2AFE433FEC251
:101EA800AF759B00906182E0A2E05012E591A2E03C
:101EB800500C7591FE740165217003121C04E0A298
:101EC800E55051E591A2E5504B7591DF9003A2E0F2
:101ED80064076005E0640870237401652170357932
:101EE800019003D0E0FA75F003A4CAA8F028FB74A7
:101EF800D22AFA74033BFB121DA98018E0640D7006
:101F0800139003C4E004F064287002E4F07A00E05F
:101F1800F9120D90906182E0A2E64003021FC2E52B
:101F280091A2E64003021FC27591BF9003A2E0642C
:101F3800057008120CAC120CB88003120CB2752193
:101F480000120D1EE99003A3F07900120D12120A77
:101F58006C7A017B009003A1E0F9120FEE907803F0
:101F6800E064427055900544E014F0704DC2AF1221
:101F78001F7A00782AD0E0F618D0E0F6E59F5407DB
:101F880070057509FF800375097FC4C0E07829E6EC
:101F9800F50808E65509F509740B78081216B9D042
:101FA800E02508F8906270E0A2E740F8E8C33390B3
:101FB8006272F0906270E0D2E0F0906181E0A2E39A
:101FC8005009E5E9A2E3500375E9F7A3E0A2E75059
:101FD80009E591A2E7500375917FEEA2E092AF7FE9
:101FE800040218E9C0E0C0D0C082C083906183E0D9
:101FF800A2E05009E5BFA2E0500375BFFEE0A2E1F0
:102008005009E5BFA2E1500375BFFDE0A2E2500907
:10201800E5BFA2E2500375BFFBE0A2E35009E5BFAC
:10202800A2E3500375BFF7E0A2E45009E5BFA2E4BC
:10203800500375BFEFE0A2E55009E5BFA2E55003E4
:1020480075BFDFE0A2E65009E5BFA2E6500375BF01
:10205800BFD083D082D0D0D0E032C0E074F2121862
:102068008AE5A7A2E4500FE5A1A2E4500953A7EF1F
:1020780075A1EF1220B6E5A7A2E5500CE5A1A2E5EF
:10208800500653A7DF75A1DFE5A7A2E15009E5A136
:10209800A2E1500375A1FDE5A7A2E2500CE5A1A2BB
:1020A800E2500653A7FB75A1FB7F010218E974F8FB
:1020B80012179E7521019003A2E0640670077A004A
:1020C8007B00120C94A2AFE433FED2AF9003A8E0D9
:1020D800640170187A207B009003A1E0F912107255
:1020E8007A207B009003A1E0F9120FF4906182E05E
:1020F800D2E6F0900541E0602185C6228016900363
:10210800A7E064017008E5C654F84405F5C653BE57
:10211800FC121E947401652160E4EEA2E092AF7F88
:102128000102184A8E238F248582288583278518E3
:1021380082851983E0CEA3E0CF852882852783EBAB
:10214800C9EAC8EDCBECCA75F010C3E833C8E93367
:10215800C9EA33CAEB33CBC3EA9EF526EB9FF525D4
:10216800B35004AB25AA26EC33CCED33CDD5F0DA49
:10217800AE23AF242274F112179E8A088B098C0AA9
:102188008D0B90928A7808121585740F121726788D
:102198000C1215AB90928A780C1215857808790C78
:1021A8001213BD90928E50107808790C12155D7834
:1021B800081213DD4014800E780C790812155D782A
:1021C8000C1213DD50047901800279007F0802188F
:1021D8004A74ED12179E8A088B098C0A8D0B90920F
:1021E8008A78081215857413121726780C1215AB05
:1021F80090928A780C121585780C79081213BD40D4
:10220800117808790C12155DAA08AB09AC0AAD0B58
:102218008022751000751100751200751301781071
:10222800790C12155D78107908121524AA10AB11D3
:10223800AC12AD137F0C02184A90928A78081215D6
:10224800AB8A828B8378081215987F0402184A7427
:10225800F512179E8C828D8378081215AB8A828BB3
:102268008378081215711222ABC3E098F0A3E099A5
:1022780012229D401E90929E78081215AB8A828B7E
:1022880083780812154A8E828F83E02420F0A3E019
:10229800344EF080A4F08E828F83C3E09420A3E0B4
:1022A800944E22EA2404F8EB3400F9E8FEE9FF8CA6
:1022B800828D83A3A3A3A3E0F8A3E0F98E828F8382
:1022C8002274F512179EE9FE9004F7E0FAA3E0FBEA
:1022D800EEC333F8E433F9748728F582749139F53D
:1022E80083E02AF508A3E03BF50978081219459020
:1022F800929A1215C912212C74021216F18A088BAF
:10230800098C0A8D0B741078081214ECAA08AB0912
:102318007F0402184A74F112179E8A0C8B0D8C0EDA
:102328008D0F740F121726E0FAA3E0FB7411121731
:1023380026E0F508A3E0F5097808121945EA240112
:10234800F508EB3400F509E4F50AF50B780C790883
:102358001213FC90927A78081215AB780C7908124F
:1023680013FCAA0CAB0DAC0EAD0F12212C7402128B
:1023780016F18B09EA450960047A0180027A00ECBB
:102388002AFCED3400FD7413121726E0F8A3E0F9D7
:10239800E8FEE9FFECF8EDF97A717B021216508835
:1023A800088909E4F50AF50B8E828F8378081215DF
:1023B800BAECF8EDF97A717B021216508A088B098B
:1023C800740578081216C88E828F83A3A3A3A3E589
:1023D80008F0A3E509F07F0802184AC082C083E923
:1023E800906000F0D083D08222C2AF02000022C0E9
:1023F800E074F212188AA2AFE433FED2AFC2C0E58D
:10240800D1A2E4500653D1EF121276EEA2E092AFB9
:102418007F010218E9C0E074F212188AA2AFE4330F
:10242800FED2AFE589A2E150031211E6758900C218
:10243800C5EEA2E092AF7F010218E9C0E074F21283
:10244800188AA2AFE433FED2AFE58BA2E0500312A4
:1024580011E6758B00C2E880D8C0E0C0D0E8C0E0C3
:10246800E9C0E0E5A8D2AFC2C7A2E7A2E792AFD021
:10247800E0F9D0E0F8D0D0D0E032C0E0C0D0E8C079
:10248800E0E9C0E0C008C009C082C083A2AFE4335D
:10249800F9D2AF9009D5E0F8A3E0687008539AFB29
:1024A800A374018026C2E99009D5E0F508740125D6
:1024B80008F074552508F58274093400F583E0F5B1
:1024C800C19009D5E0C394804002E4F0E9A2E0920B
:1024D800AFD083D082D009D008D0E0F9D0E0F8D0CE
:1024E800D0D0E032FFFFFFFFFFFFFFFFC082C083B5
:1024F800E9900B92F002278374F7121732E99002E1
:10250800E1F07C197D037AFF7BFF1207909002E2CD
:1025180074FFF0A3F0A3E4F0A3F079051207189074
:1025280002E1E0F912063A7AAE7B071209587F01F8
:1025380002180474F41217328A088B09EB5480606D
:10254800309002E1E0F9120FD68A0A8B0BAE0AAF7F
:102558000BEE4F60138E828F83E064B07003120716
:1025680030EEFAEFFB120FC4AA08E5096480FB807D
:10257800047A007B0002275274F212173274FC129C
:1025880016DBEAFEEBFFEE4F60387402121726EEF8
:10259800F0A3EF1229B7ECF0A3ED1229B7AA82AB8A
:1025A80083120634E9F5087073741212172612356F
:1025B8006BE50A450B60658E828F8312262EEE4FDF
:1025C800700575080280557A067B0012102A8A0C5D
:1025D8008B0DA80CA90DE8497005750813803D8876
:1025E800828983E4122638A3A3EEF0A3EF123A04FB
:1025F800E50AF0A3E50BF09002E71226C09002E787
:102608006017E0FCA3E08003EAFCEBFD8C828D837D
:102618001226C070F38C828D83123490A90874043A
:102628001216F1023C06A3A3A3A3E0FEA3E0FF2237
:10263800F0A3F0888289832274F2121732890AE99A
:1026480075F017A4FEAFF09002E6E4F09002E412F1
:1026580026C0600A1210309002E4E4F0A3F0EEFA0B
:10266800EFFB12102A8A088B09EA4509602FEEFC55
:10267800EFFD7900120FAC9002E4E508F0A3E5093C
:10268800F07B0080081226AAE4F0A3F00BEBC395B8
:102698000A40F2E50A9002E6F07900800279130216
:1026A8003C06EB75F017A4F8A9F09002E4E028FACC
:1026B800A3E0398A82F58322123226EA4B2274F487
:1026C800121732750800750900740C121726123992
:1026D800D8FEE9FF800CE5082401F508E509340077
:1026E800F509C3E5089CE5099D503285080A850966
:1026F8000B7403780A1216C8EA250AF8EB350BF9A9
:1027080088828983A3A3A3A3A3A312356BEE650ACA
:102718007003EF650B70BFE8FAE9FB80047A007B71
:1027280000802774F41217327900EAA2E0501B7572
:10273800083075099278081219457C047D007A944E
:102748007B0B12071274021216F17F04021804C0E0
:1027580082C0839002E712278A601C88828983A33B
:10276800A3E06A7003A3E06B8882898370E8A3A35F
:10277800A3A312322280047A007B00D083D0820285
:102788000122123CD9E8492274EE12173274FC1265
:1027980016DBEAFEEBFF851882851983E4F0A3F0C7
:1027A800EE2402123474EE24051229A5EE2404F551
:1027B8000EEF122D8AE024FE603924FC604624FEC8
:1027C800605224FE605E24FE70030228AA24FE7074
:1027D8000302292224FE700302293124FE70030219
:1027E800294024FC700302294F24FE700302295E4D
:1027F80002299B9003007417F0A3E41229BF120367
:10280800B202299B851882851983AC82AD83120791
:102818003602296B851882851983AC82AD8312072D
:102828003C02296B850C08850D097402121726AC29
:1028380082AD838508828509831232221206588A5E
:102848000C8B0DAC0CAD0DEC4D6042E4F50CF50DA8
:10285800780C121945750C00750D03780C12194582
:10286800750C01750D03780C12194574081217269A
:1028780012195C791612321C12077874081216F1B4
:10288800E9F50C700B1232181203CA800F750C018F
:102898008508828509831229AD123490850C0802B7
:1028A800296E7402121726AC82AD83850C82850DC1
:1028B800831232221206588A108B11AC10AD11EC1B
:1028C8004D6043850C82850D83A3A312195C751096
:1028D80000751103781012194575100175110378E8
:1028E80010121945740812172612195C791612323B
:1028F8001C12077874081216F1E9F509700B1232E8
:10290800181203D0800F750901850C82850D83127A
:1029180029AD123490850908804C85188285198361
:10292800AC82AD83120742803A851882851983AC40
:1029380082AD83120748802B851882851983AC8263
:10294800AD8312074E801C851882851983AC82AD31
:1029580083120754800D851882851983AC82AD8354
:1029680012075AE9F508E50860298E828F83A3E0EB
:102978006414601F850E82850F83E090030012297E
:10298800B7123CD5900301123490E508A31229BF71
:102998001203ACEEFAEFFB1206D602337CF50CEF0D
:1029A8003400F50D22123CD985188285198322F04E
:1029B80085188285198322F07C007D03850A82852B
:1029C8000B831232262274EE12173274FC1216DBB5
:1029D8008A0A8B0B8C0E8D0FEA2405F508EB340060
:1029E800F5097C157D0079007A007B03120FACE5B0
:1029F800082402F50CE5091229A88518828519838F
:102A080085821085831178101219458508828509F9
:102A180083A3A3A3A3122ED2121945E5082405F512
:102A280010E5093400F5117810121945850C8285D6
:102A38000D8312322C12065274061216F18A108B6C
:102A480011AE10AF11E50A2402F50AE50B1234772E
:102A5800EE4F7003022B948017740212172612325D
:102A68002288828983EAF0A3EBF0900300E004F067
:102A7800900300E0C394054003022B94E4F510F59D
:102A88001178101219457510E9751102781012198C
:102A9800457510EA75110278101219457406121757
:102AA8002612195C7910EEFCEFFD12321C12077821
:102AB80074081216F1E9705E850882850983A3A35C
:102AC800A3A3A3A3A3E0F89002E9E0687048122E3C
:102AD800D21219457CEA7D02E5082408FAE5093492
:102AE80000FB120FA674021216F1E960298E828F7C
:102AF80083A3A3A3A3123222900300E0F51074026B
:102B080078101216C874012510F58274033511F572
:102B180083EAF0A3EBF074021217268582108583EE
:102B2800117810121945740212172612195C850CB7
:102B380082850D83123CEA12065E74041216F18A2D
:102B4800108B11AE10AF11900300E0F51075110055
:102B5800740278101216C874002510F87403351121
:102B6800F988828983A31226C07003022A58E824B0
:102B780003F8E93400F9EE4F6003022A618882897C
:102B88008374FFF0A3F0900300E004F0900300E0EA
:102B9800600A1232181203BE7900800B85088285FC
:102BA8000983123487790A02337C74EA1217327463
:102BB800FE1216DB8C128D13EA2405F50CEB123E7F
:102BC80054122632750800750900EA2402F510EB44
:102BD8003400F51185188285198385820A85830B4F
:102BE800780A121945850C82850D83A3A3A3A31225
:102BF8002D94121945E50C2405F50AE50D123477D4
:102C0800780A121945850C82850D83123CE8120654
:102C18005274061216F18A0A8B0BEA450B700302EE
:102C28002D45EA2404F50EEB122D8A1226328A82EB
:102C38008B83A3A3A3E0F985108285118312322226
:102C4800120640E9F5096003022D45E4F514F5156F
:102C580078141219457514E9751502781412194576
:102C68007514EA7515027814121945740612172698
:102C780012195C7913AC0AAD0B8510828511831289
:102C8800322212077874081216F1E9F50960030276
:102C98002D459002E9E0F8E5087009E02402900368
:102CA80001F08017900301E0FCE82402FAE4340004
:102CB800FBEA6C7001EB6003022D49850882AA8249
:102CC800122EC99414122EC15073850E82850F835B
:102CD800E0C0E074022A122D81D0E0F00508850ECC
:102CE80082850F83A3E0C0E085080A7402250A12D2
:102CF8002D81D0E0F005089002E9122D94121945B3
:102D08007CEA7D0285080A7402250AFA74033400F5
:102D1800FB120F9474021216F19002E9E02508F5EF
:102D28000874FF6E700374FF6F6012EE24010EEFDB
:102D38003400FFE508C394145003022BDCE5086057
:102D48001312310D8510828511831232221203C4A9
:102D580079008014E509700375090A8512828513C4
:102D680083EEF0A3EFF0A90974021216F17F0E02A8
:102D7800180485080C7402250CF58274033400F5D8
:102D880083223400F50F850E82F58322123A17222A
:102D980074EE12173274FE1216DB8C0E8D0FEA24B5
:102DA80005F50CEB1229A8750B00900300E4F0F56B
:102DB8000AEA2402F508EB3400F50980499003007B
:102DC800E0FA9002E9E0F8122EC99417122EC140D9
:102DD8000D900300E0F87416C3989002E9F0122EE3
:102DE800D21219457CEA7D0274012AFA7403340070
:102DF800FB120F9474021216F19002E9E0F89003A6
:102E080000E028F0050AE50C2416F582E50D122DE0
:102E180085E0F8E50AC3984003022EAA900300E073
:102E2800C39416507DE50AC333F8E433F9E50C285A
:102E3800FEE50D39FF851882851983AC82AD838E36
:102E4800828F831232221206588A108B11AC10AD71
:102E580011EC4D7005750B018043E4F510F5117800
:102E6800101219457510E975110278101219457577
:102E780010EA7511027810121945740612172612F5
:102E8800195C79168508828509831232221207781F
:102E980074081216F1E9F50B7003022DC51234837C
:102EA80080107C007D0385088285098312322212F6
:102EB80003D6A90B740202337EE99400C365D033AC
:102EC80022EA28F8E43400F9E822E0F51075110048
:102ED80078102274EA12173274FC1216DB8A0C8BF3
:102EE8000D8C128D13EA2405F50AEB123477750858
:102EF80000750900E50A2402F510E50B3400F51108
:102F0800740212172685820E85830F780E121945D2
:102F1800850A82850B83A3A3A3A31239C31219457B
:102F2800E50A2405F50EE50B3400F50F780E1219A5
:102F38004585108285118312347D12321C12065287
:102F480074061216F18A0E8B0FAE0EAF0FE50C2425
:102F580002F50EE50D3400F50F80408882898374F0
:102F6800FFF00508122D7A74FFF005089002E9E0D9
:102F7800F50C750D00780C1219457CEA7D02850860
:102F88000C7402250CFA74033400FB120F947402BB
:102F98001216F19002E9E02508F508EE4F60718EEF
:102FA800828F83A3A3A3E0F9850E82850F83123253
:102FB80022120640E9F509EE24041229A5E9704415
:102FC800E4F514F51578141219457514E975150208
:102FD80078141219457514EA7515027814121945F2
:102FE800740812172612195C7911EEFCEFFD850E94
:102FF80082850F8312322212077874081216F1E9BB
:10300800F5096027850C82850D83123103123490EF
:10301800E50870030230E912310D850E82850F83B1
:103028001232221203DC79000230FE850882AA825D
:10303800EA9002E97009E02404900301F08022E09C
:10304800F8900301E0F514E82404FCE43400FDECF6
:1030580065147001ED70C0122EC99412122EC15061
:10306800B6850C82850D83E0C0E074022A122D819A
:10307800D0E0F00508850C82850D83A3E0C0E0123E
:103088002D7AD0E012311F85820C85830D780C12C1
:103098001945740412172612195C8510828511834C
:1030A800123CEA12065E74041216F18A0C8B0DAEFD
:1030B8000CAF0D85080C7402250CF874033400F964
:1030C800EE4F7003022F63851882851983E088828A
:1030D800898312311FA3E0C0E0122D7AD0E0022FBD
:1030E80071E509700375090A850A82850B83123117
:1030F80003123490A9097404022D72123CD9851266
:103108008285138322900301E0F5F0E5088490039B
:1031180000F07C007D0322F005088518828519835C
:103128002274EC12173274FE1216DB8A088B098C93
:103138000E8D0FEA2405FEEB3400FF8518828519F1
:1031480083AC82AD838E828F831232221206588A14
:103158000A8B0BEE24181229A5EA450B70030231DD
:10316800F312336550328518828519831232221280
:10317800076C8A108B11EA4511606B7912AC0AADA5
:103188000B85088285098312322285108285118376
:10319800121730E9F50A7058E4F50AF50B780A12A7
:1031A80019458E828F83A3A3E0F50A780A12194580
:1031B800EE2403123474780A1219458E828F831212
:1031C800322C12077E74061216F1E9F50A70218571
:1031D8000C82850D83E0701F850882850983123271
:1031E800221203E28011750A0E8009750A01800413
:1031F800E50A6003123483850C82850D83E0600440
:1032080079008002A90A74021216F17F0C021804D0
:103218007C007D03850A82850B8312322622E0FA20
:10322800A3E0FB22E0FCA3E0FD8508828509831268
:1032380032262274EE12173274FE1216DB8A088BBD
:10324800098C0C8D0DEA2405FEEB3400FF750E0089
:10325800851882851983AC82AD838E828F83123262
:10326800221206588A0A8B0BEA450B700302335167
:103278001233655035851882851983123222120758
:103288006C8A0E8B0FEA450F605E7912AC0AAD0BA3
:10329800850882850983123222850E82850F831262
:1032A8001730E9F50E6003023354850882850983D7
:1032B80012356BAA0AFB1207608A108B11A810A995
:1032C80011E849701E7AFF7BFF1207608A108B1184
:1032D800A810A911E849606C88828983E50AF0A3DF
:1032E800E50BF0750A008007750E0E805F050A90E1
:1032F80002E6E0FAE50AC39A504AE50A75F017A40F
:10330800FAABF088828983A3A3E02AFAA3E03BFB07
:103318008A828B8312347DEC4D70D2750A17750B37
:1033280000780A121945EEFCEFFD120F9474021290
:1033380016F1EEFCEFFD8508828509831232221210
:1033480003E88014750E098003750E01123CD185BF
:103358000C82850D83123490A90E022EBCE5082438
:1033680002F508E5093400F5098A828B83A3A3A333
:10337800E0A2E52274041216F17F0A02180474EC24
:103388001217328C108D11EA2405F50CEB1229A8BE
:10339800750F00EA2402F50AEB123477850A82F5E4
:1033A800831232221207608A088B09EA45097003E2
:1033B800023469750E008071850C82850D83E06486
:1033C80001704F8E828F83A3A312195C8E828F8324
:1033D800A3A3A3A3E0F5127513007812121945EE02
:1033E8002405F512EF3400F513781212194512323C
:1033F8001C12077E74061216F1E9F50F6014850C8D
:1034080082850D83E4F0123CD185108285118312E8
:1034180034907C177D007900EEFAEFFB120FAC8E2A
:10342800828F83E4F0A3F0050E9002E6E0F8E50E43
:10343800C398501EE50E75F017A4F8A9F085088208
:10344800850983A3A3123E5E12347DEC4D6003020E
:1034580033C085088285098374FFF0A3F0E50F70F7
:103468000612321C1203EEA90F023213F50AEF34CA
:1034780000F50B22A3E0FCA3E0FD228E828F8312CD
:103488003CD9850E82850F83E8F0A3E9F022C0823B
:10349800C0839002E2E06A7003A3E06B70067AE2F0
:1034A8007B0280047A007B00022783C082C0837875
:1034B800008C828D83E06A7003A3E06B7010E8755E
:1034C800F003A4F8A9F0EC28FAED39FB8015088C74
:1034D800828D83A3A3A3E06A7003A3E06B60DF7A05
:1034E800007B0002278374F612173212072A8A8299
:1034F8008B83E582458370067A007B008007A3A34F
:10350800A3A3123222023B8274F2121732E9FE742C
:103518000E12172612356B74101217261239E38C07
:10352800828D83E064027036A3123CDFF50CA3E0C1
:10353800F9A80C74026870037429697021750C026B
:10354800750D00780C1219457808121945780A1279
:103558001945EEF91207A274061216F180027901D4
:10356800023C06E0F50AA3E0F50B2274E8121732D4
:1035780074FB1216DBE9851882851983F08A168B8D
:1035880017ECFEEDFF751000741D121726123CD5BE
:10359800741D1217261234908E828F83A3A3A3E082
:1035A800A2E4502D741D12172612322212076C8ABB
:1035B800828B83E582458370030239B4790AEEFC75
:1035C800EFFDAA16AB17121730E9F51060030239A0
:1035D800B7741F1217261239E374211217261235F1
:1035E8006B7423121726E0F50EA3E0F50F8E828F79
:1035F80083E064026003023962A3123CD585088225
:10360800850983A3858212858313EE24061229A5D2
:1036180088828983E0FAA3E0F9EA2400F514E43902
:10362800F51578141219CF0100002801285736071C
:103638000002281C37032889360029533801297EBF
:103648003802291F38032953380429FD386239E51F
:103658000E450F600302395D850C82850D83123992
:10366800D8FAE9FB8A828B83E0850A82850B83126C
:103678003A0E1219458A828B83A3E0FCA3E0023834
:10368800E7E50E450F600302395D850A82850B83E5
:103698007401F01239EB850882850983F07C007D7E
:1036A800008E828F83A3A3A3A3E02401FAA3E034AE
:1036B80000FB120658EA4B60418A828B83E02402A1
:1036C800F8850A82850B83E028F0EA2404F8EB34B5
:1036D80000F988828983E0851282851383123A2053
:1036E800123A0E1219458A828B8312347CE508241B
:1036F80003FAE5093400FB0238EC850A82850B835E
:10370800E02404F07C047D007900AA12AB13120FA8
:10371800AC0239B7E50E450F600302395D1239EB8B
:10372800FEA3E0FF850A82850B837404F0EE85080A
:1037380082850983F0EF851282851383F074031262
:103748001726AC82AD83EEFAEFFB1206588A0C8B73
:103758000DEA450D70030238008A828B83A3A312F9
:10376800262E740112172685820E85830F780E1275
:103778001945740512172612195C7CFF7DFF120685
:103788005E74041216F18B0FEA450F7033850C82B4
:10379800850D831239C3121945850C82850D83A3C3
:1037A80012195C7C027D007ACC7B9212048A740424
:1037B8001216F1E9700A740112172674FFF0A3F0CB
:1037C8008E828F83E064027039750C02750D007863
:1037D8000C1219458E828F8312347CE5082404FA72
:1037E800E5093400FB120F9474021216F1850A825F
:1037F800850B83E0240280097401121726EEF0A3DA
:10380800EFF074011217261239D4F074011217263A
:10381800A31239CC023957E50E450F600302395D12
:10382800850C82850D8312347DAA16AB1712079674
:10383800850A82850B837402F0EA850882850983EC
:10384800F0851282851383EB02395AE50E450F6025
:103858000302395D1239EBF8A3E0F9850A82850B7A
:10386800837402F0E8850882850983F0E98512826D
:1038780085138302395A850C82850D8312322212F0
:103888000F8EEAFC8C82A882C3950EE4950F405FE8
:10389800E8650E7002E50F70047C008022851882AE
:1038A800851983E0FAE50E2AFAE50F3400FBC3EA2E
:1038B80098EB94005003E08005E50ECCC39CFCEC2B
:1038C800850A82850B83F08C0A750B00780A121919
:1038D80045850C82850D83E0250EFCA3E0350FFDA0
:1038E800AA08AB09120F9474021216F10239B775BF
:1038F80010070239B7E50E450F705A850C82850D01
:1039080083123CD5850A82850B83740712263A12E6
:1039180039CC12263AA3E0851282851383F0E82475
:1039280002FAE93400FB8A828B831239CC1239FB04
:103938001239D4A3123A041239DDF0E82405F8E963
:103948003400F9888289831239DDA3123A20A3A3AF
:10395800A3A3F0805A75100B8055741D12172612F8
:10396800322212072A8A828B83E5824583603D12C0
:103978003CD5880C890DE8450D6031780E12194543
:10398800780A12194578081219457406121726E0A4
:10399800F9EEFCEFFDAA16AB17850C82850D831294
:1039A800173074061216F1E9F510800375100EA988
:1039B8001074051216F17F10021804E0F50E750F49
:1039C80000780E22E085088285098322123A2A228D
:1039D800123CD9E822123A2AA3A322E0F508A3E070
:1039E800F50922850C82850D83E0F8A3E0F583882C
:1039F80082E022A3A3F08A828B83A322F0888289A3
:103A080083A3A3A3A322F08A828B83123A1722E00E
:103A1800F50A750B00780A22F088828983A3123A86
:103A28002A22E0850882850983A3A32274EE12174F
:103A38003274FE1216DB8A0A8B0BECFAEDFB741457
:103A4800121726E0F510A3E0F5117416121726E0F8
:103A5800FE7418121726E0F50EA3E0F50F851882FC
:103A6800851983AC82AD831206588A0C8B0DEA4502
:103A78000D604985188285198312322212072A8A15
:103A8800828B83E5824583602FA3A31239E3E5087F
:103A980045096024780E1219457810121945EEF977
:103AA800AC0CAD0DAA0AAB0B8508828509831217E9
:103AB8003074041216F18006790E80027901022E04
:103AC800BC74F612173274FE1216DB740C12172629
:103AD8001239D8851882851983F07401121726E9DE
:103AE800F0E4F508F5097808121945750802780810
:103AF80012194574041217268582088583097808E7
:103B080012194512077E74061216F174021216F184
:103B1800806874F7121732EAFEEBFF89087C197D7A
:103B280003120796EA5402600BA908EEFAEFFB129B
:103B3800064C8002790102253674F612173274FF9A
:103B48006A700374FF6B70168C828D83123B87E456
:103B5800F08C828D83A3A3A3123B87A3801812073E
:103B6800668A088B09A808A909E849600D8882892E
:103B78008374FF122638A3A3E4F07F0202180474AA
:103B8800FFF0A3F08C828D83A3A32274F612173260
:103B98001207668A828B83E58245836006A3A3E0C9
:103BA800FA80027A007B0080D174F21217328A08F8
:103BB8008B09ECFEEDFF740E121726E0F50A1207CA
:103BC800668A0C8B0DA80CA90DE8497026EEFCEF4F
:103BD800FD7AFF7BFF1207668A0C8B0DA80CA90DD6
:103BE800E84970047911801688828983E508F0A372
:103BF800E509F088828983A3A3E50AF079007F06A6
:103C080002180474EE121732EAFEEBFF8C088D09D5
:103C1800890C7414121726123CD574161217261222
:103C28003222750D00E8496003023CC97402650C34
:103C38006003023CC47412121726123CDFFCA3E096
:103C4800F9EC2400F50EE439F50FEAF4F8EBF4F991
:103C5800EC58F8E50F59F9E849705CE5082406F8CE
:103C6800ED3400F9880A890B8882F583123CEA1240
:103C780007968A108B11E50E65107004E50F651123
:103C88006042780E121945850A82850B83123CEA38
:103C980012079C74021216F1E9F50D7027780E12BE
:103CA8001945850882850983A3A3123CE81207B445
:103CB80074021216F1800D750D808008750D0D8047
:103CC80003750D0BA90D0233818E828F83123CD9A7
:103CD80022E0F8A3E0F922123CD988828983E02205
:103CE800A3A3E0FCA3E0FDEEFAEFFB2274E81217B1
:103CF8003274E71216DB851882851983EAF0A3EB84
:103D0800F08C168D17890E7508007509007431122C
:103D18001726E0F512A3E0F5137433121726E0F521
:103D280014A3E0F5157435121726E0F50FE50975AB
:103D3800F003A4F8A9F0851882851983123E5EE085
:103D4800F47003A3E0F47003023E41EE2402F50C84
:103D5800EF123E54E07003023E4185160A85170BA8
:103D6800780A121945AC14AD15AA12AB1312071E26
:103D780074021216F18A0A8B0BEA450B7003023E95
:103D880041E4F510F511781012194574061217263A
:103D98008582108583117810121945740912172627
:103DA8008582108583117810121945851282851332
:103DB80083A3A3A3A312195C7914AC0AAD0B8E825A
:103DC8008F8312322212077874081216F1E970698B
:103DD800850A82850B83A3A3A3A3123CD574021280
:103DE8001726123490850C82850D83E0A2E05018C6
:103DF800A90E7402121726AC82AD838E828F8312AD
:103E08003222120670E94208850C82850D83E0A2F1
:103E1800E15026E50FF50A780A121949A90E74032C
:103E2800121726AC82AD838E828F8312322212063D
:103E38006A74011216F1E942080509E509C39402FA
:103E48005003023D35A90874190239BB3400F50D39
:103E5800850C82F58322E028FEA3E039FF8E828F4D
:103E6800832274F2121732EAFEEBFF890B740165A4
:103E78000B600E7402650B706A7901120976E9709D
:103E880062EEFAEFFB1207608A088B09EA450960BF
:103E980047750A00800B7C177D007900120FAC056E
:103EA8000A9002E6E0F8E50AC3985021E50A75F0A1
:103EB80017A4F8A9F0850882850983A3A3E028FA46
:103EC800A3E039FB8A828B8312278A70C98508820E
:103ED80085098374FFF0A3F07C197D03EEFAEFFBEC
:103EE800120790023C0674F21217328A088B09EC0A
:103EF800FEEDFF740E12172612356B900B92E0F44C
:103F0800603D7A097B00120FBEEA4B60328A828BD1
:103F18008374B1F0A3E41239FDA31239FBA3E508B9
:103F2800F0A3E509123F4AEEF0A3EF123F4AA3A31C
:103F3800E50AF0A3E50BF0900B92E0F9120FCA0224
:103F48003C06F08A828B83A3A3A3A3A32274F01256
:103F5800173274FA1216DB890BECFEEDFF750A00B6
:103F68008A088B0978081219890004108841983F3B
:103F7800B63FD03FE83F06401E40414059406D40A3
:103F880097401F4130414741624188418841AD40D7
:103F98007401650B60030241838E828F83E0F8C34E
:103FA80094034003024183E8900C7E02415F74024F
:103FB800650B60030241838E828F83124885900CC3
:103FC8007FE8F0A3E902415F7401650B60030241D9
:103FD800831241B04003024183E890076802415FC1
:103FE8007401650B60030241838E828F83E0F8C3FE
:103FF80094054003024183E890076902415F740118
:10400800650B60030241831241B04003024183E81B
:1040180090076A02415F7410650B60030241837563
:10402800081075090078081219457A6B7B07120F7A
:104038009474021216F10241A97401650B6003021F
:1040480041831241B04003024183E890077B02415B
:104058005F7401650B60030241838E828F83E09059
:104068000C8202415F7404650B60030241838E82F7
:104078008F83780C1215AB90929A780C1213DD503E
:104088000302418390077D780C1215BA0241A9E911
:1040980060030241831205F8E9700512114480603B
:1040A800900810806E7407650B60030241837508E1
:1040B8000675090078081219458E828F83A3AC8291
:1040C800AD837402121726AA82AB83120F9A740268
:1040D8001216F17C007D00851882851983AA82ABAF
:1040E800838E828F83E0F91210EAE9F508C3940AF7
:1040F80040030241A61205F8E9700CA90812114AFA
:104108007950121300806F74112508F582740834F1
:1041180000F583740180407401650B705E1241B034
:104128005059E890077C802F7401650B704D8E8282
:104138008F83E0F8C3940A5042E8900C8180187489
:1041480001650B70368E828F83E0F874F928C3946A
:104158000A5028E8900C83F080477401650B701BA7
:1041680090080FE0F88E828F83E090080FF0E870D7
:1041780030E06401702B1211388026750A188021EE
:10418800C3EA9427EB940050157402650B700F8EE8
:10419800828F83124C84120496E9F50A8003750A0B
:1041A80002A90A740602487A8E828F83E0F8C394C3
:1041B800022274F012173274CC1216DB8C0A8D0BA3
:1041C8007420121726AC82AD8375839275822A7487
:1041D800061215EE7420121726AC82AD831210EA6F
:1041E800E9F5087444121726E0FEE9C3940A40036F
:1041F80002432875F006E9A4F5097426121726ACBF
:1042080082AD837A0E74202509F91212FAE9700931
:104218007432121726E0FF80027F00900C7EE06463
:1042280002700474018001E4F50D780D121949EE4D
:10423800FDEFFCA908AA0AAB0B12116E7401121645
:10424800F17C147D007900740C121726AA82AB83C6
:10425800120FAC740C121726AC82AD837A1074243A
:104268002509F91212FAE9703C7C1079FF740C12D6
:104278001726AA82AB83121012E97029741C121730
:1042880026AC82AD837A0474252509F91212FA74D2
:104298000C121726AC82AD83EFA2E0E433F9AA0A28
:1042A800AB0B120520851882851983AC82AD837A01
:1042B8000C74702508F91212FAE970538518828572
:1042C8001983AA82AB8312111A750800E50875F0E4
:1042D80003A4F8A9F0851882851983E58228F8E5F2
:1042E80083124A8E124C7E601D88828983A3A3E0C4
:1042F800F50E750F00780E121945AA0AAB0B1207B6
:104308008474021216F10508E508C3940440BDEF51
:10431800A2E1500C900767E0F9AA0AAB0B12078AD2
:1043280074046E7027900C7EE06402701F7A00900F
:10433800077BE060010A900768E060047804800267
:104348007800E84AF9AA0AAB0B1205E07900743440
:1043580002487A74F0121732EAFEEBFF8C088D09D6
:10436800750A0AE9600C1460091460371460790250
:10437800440A12112CE9F50AC3940A400302440ABC
:10438800E5084509607C750E06750F00780E121950
:1043980045EEFCEFFDAA08AB09120F947402121641
:1043A800F1805F750B00750E06750F00780E1219F7
:1043B80045EEFCEFFDE50B75F00EA4F8A9F0748945
:1043C80028FA740739FB120FA674021216F1E96075
:1043D8000C850B0AE50AC3940A50278016050BE5DD
:1043E8000BC3940A501C80BE121132E9F50AC3941B
:1043F8000A500FE50845096009AA08AB09A90A127D
:104408001126A90A02487D74F41217328908750921
:104418001574FF6A700374FF6B70277E00AC087A0E
:10442800027B00EEF9121108E960037509000EEE2F
:10443800C3940A40E8E50860537A5C7B1112098846
:10444800804A12096A8A0A8B0BAE0AAF0BEE4F60DC
:10445800387C007D00EE2405FAEF3400FB8E828F55
:1044680083A3A3A3A3E0F91210EAE9C3940A500CAA
:10447800AC087A027B00121108750900E508600C87
:10448800EEFAEFFB12115C8003750914A909800587
:10449800740E1216F17F0402180474F2121732EC2B
:1044A800FEEDFF750815740E121726E0F50AA3E055
:1044B800F50B74FF6A700374FF6B7021750900AC0B
:1044C8000AAD0BEEFAEFFBA90912110EE9600375AC
:1044D80008000509E509C3940A503F80E212096AF9
:1044E8008A828B83E5824583602D7C007D00E5828E
:1044F8002405FAE5833400FBA3A3A3A3E0F9121073
:10450800EAE9C3940A5013AC0AAD0BEEFAEFFB12BA
:10451800110E7508008003750814A9080252C0C05E
:1045280082C083900781EAF0A3EBF0900767E0FC74
:104538007D007A267B00120496900767E0F912073F
:104548000002511B74F012173274EC1216DBEAFEEB
:10455800EBFFEE240CF50CEF3400F50DEE2405F519
:104568000EEF3400F50FEE2409F50AEF3400F50BD1
:10457800EE2403F508EF3400F5098E828F83A3A398
:10458800E024FA700302481E24FD70030247391420
:10459800700302462514601024FD700302471014AE
:1045A800700302476D0248761254BB6048E0F583F9
:1045B8008882124885880E890FE8450F6037850C78
:1045C80082850D83E0F50C780C121949EE240BF561
:1045D80082EF124A55F9850A82850B83124C840AA8
:1045E8000A0AAB09850E82850F83121730740112EF
:1045F80016F1024876850A82850B8312195C9007AA
:104608007D1215C912053274021216F1E9700302FF
:1046180048767901850A82850B830247E98E828F65
:1046280083A385820A85830BE060030246F3850E27
:1046380082850F83E0A2E040030246F390081B1234
:1046480054BE60030246F37C0E7D00790085188213
:10465800851983AA82AB83120FAC850C82850D83E2
:104668001250E6EA4B6010750C06750D00780C12B6
:104678001945EA2410801B1250E012096AEA4B70AF
:1046880003024876750C06750D00780C121945EA78
:104698002405FCEB3400FD7402121726AA82AB83B2
:1046A800120F9474021216F1850E82850F83E0A210
:1046B800E25004D2F08002C2F0A2F0E433F8740CA5
:1046C800121726E048F0EEFCEFFD85188285198365
:1046D800AA82AB83121120E970117A027B0090073D
:1046E80067E0F9120FEE79000248781254BB7003A4
:1046F80002487612488B7003024876850A82850B39
:1047080083E0FC79010248121254BB700302487618
:10471800124882890BE8450B70030248768E828F17
:1047280083A3E0FC79021250E08882850B8302485B
:10473800197C007D00EE2404FAEF3400FB85088222
:10474800850983E0F91210EAE9F8C3940A400302E4
:104758004876EE240AFCEF124C5AE8A42425F912F4
:1047680012F40248761250E090077CE06007900C43
:1047780081E0F9806F900C7EE07004790580651205
:10478800096A8A0C8B0DA80CA90DE82404F50CE91C
:104798003400F50D8E828F83A3A3A3A3A3A3A3E064
:1047A800A2E05046E8497003024876850C82850DE0
:1047B80083E0FE6035850A82850B83E05410702AF9
:1047C800740E121726AC82AD83E82405FAE934008A
:1047D800FBEEF91210EAE970117903850882850960
:1047E800831250E612052C024876AC0EAD0F850CEC
:1047F80082850D83E0F91250E01211681254BB60F3
:104808006D12488B60687C0079001250E08E828FB0
:104818008312173080581205F8E97052900810E09A
:1048280064017015121144900810E4F07C0AFDF937
:104838007A117B08120FAC802D750A00850A08745E
:10484800112508FE74083400FF8E828F83E064010E
:10485800700BA90A12114A8E828F83E4F0050AE5CB
:104868000AC3940A40D679501213001211387901FC
:1048780074141216F17F0802180412489AE0F8A37B
:10488800E0F92212489AE0F8A3E0F9E8FEE9FFEE21
:104898004F22E0F5838882A3A32274F4121732749E
:1048A800F21216DBEAFE8C0B75F006E9A42420F55B
:1048B80008851882851983AC82AD837A0EF91212A5
:1048C800FAE970577C0679FF851882851983AA82D0
:1048D800AB83121012E97043740C12172612488524
:1048E800E8F509E50B6005EE42098004EEF452098B
:1048F800850982AA82E86A7001E9601B740C1217A4
:1049080026EAF0A3E4F0851882851983AC82AD838A
:104918007A0EA9081212F4790180027900024498EB
:1049280074F212173274E61216DB890A8A088B09A8
:10493800ECFEEDFF740C121726AC82AD837A0E756F
:10494800F006E9A42420F91212FAE96003024A48A1
:104958007C0679FF740C121726AA82AB83121012F8
:10496800E96003024A487470250AF50B85188285A8
:104978001983AC82AD837A0CF91212FAE96003024A
:104988004A44851882851983AA82AB8312111AE5D5
:10499800084509702C7C0C7900851882851983AA32
:1049A80082AB83121012E96003024A447C0C7D003A
:1049B8007900851882851983AA82AB83120FAC808F
:1049C8005D851882851983AC82AD83AA08AB09126C
:1049D80011148A0C8B0DA80CA90DE8497028EE4F0C
:1049E800605E851882851983AC82AD837A007B006E
:1049F800121114EAF8EBF9EA4B604588828983E5DD
:104A080008F0A3E509F0124A4FFAEE6A7001EF6068
:104A18002BEEF04F700888828983E4F0A3F08518A4
:104A280082851983AA82AB8312111A851882851987
:104A380083AC82AD837A0CA90B1212F4790180023F
:104A48007900741A0252BDE82402F582E93400F5AF
:104A580083E02274F71217327F00EF75F003A4F891
:104A6800A9F0EC28F8ED124A8EE06A7003A3E06B17
:104A78007006E8FAE9FB800B0FEFC3940440DB7A79
:104A8800007B00024E3939F9888289832274F71233
:104A980017327E00EE75F003A4F8A9F0EA28F8EBC7
:104AA800124A8EE0F4FCA3E0F4FD88828983ECF0DE
:104AB800A3EDF0124A4FF4F00EEEC3940440D50271
:104AC8004E3974F212173274F41216DBEAFEEBFF59
:104AD8008C088D0990081B1254BE7051EE4F70035C
:104AE800024C53EC45097003024C5312112CE99007
:104AF8000C84F0C3940A4035750B007C0679FFE5F9
:104B08000B75F00EA4FAABF074832AFA74073BFB1A
:104B1800121012E96005850B0A800C050BE50BC322
:104B2800940A40D7750A0AE50A900C84F0900C8420
:104B3800E0C3940A4003024C5375F006E0A4FB90CE
:104B4800081B1254BE706FEEFCEFFD7A0E74202B1A
:104B5800F91212F47C0C7D0079FF8518828519837F
:104B6800AA82AB83120FAC851882851983AC82ADFB
:104B7800837A0C900C84E02470F91212F4750C0EF0
:104B8800750D00780C121945EEFCEFFD900C84E0D1
:104B980075F00EA4F8A9F0748328FA740739FB128B
:104BA8000F9474021216F190081BE508F0A3E509AA
:104BB800F07900024C55E0C82406124C77601A7A46
:104BC8001B74212BF91212F4124C632406F582E8A7
:104BD8003400F583E4F0A380D7124C63240A124C06
:104BE8007760107A1B74222BF91212F4124C63248A
:104BF8000A80DA124C63240C124C7760107A107415
:104C0800232BF91212F4124C63240C80C0124C6C42
:104C1800124C77602A7A1074242BF91212F4124C71
:104C28006CF582E8124A552410FCA3E0124C5A9005
:104C38000C84E0A42425F91212F4124C6C808E9096
:104C4800080FE060031211741211627901740C02EA
:104C580052BD3400FD7A0475F0062290081BE0F876
:104C6800A3E0C82290081BE0F8A3E0C8240822F5B6
:104C780082E83400F583124C84EC4D22E0FCA3E07A
:104C8800FD2274F412173274F21216DBEAFEEBFFFF
:104C9800E9C3940A5004EE4F70047902803E8518E7
:104CA80082851983AC82AD837A0E75F006E9A42457
:104CB80020F91212FAE9F5087020750A06750B003A
:104CC800780A1219457402121726AC82AD83EEFADF
:104CD800EFFB120F9474021216F1A908024498749B
:104CE800F4121732EAFEEBFF750800750A06750B19
:104CF80000780A121945EEFCEFFDE50875F00EA4E0
:104D0800F8A9F0748328FA740739FB120FA6740205
:104D18001216F1E96004A908800B0508E508C39498
:104D28000A40C8790A02449D74F712173274F012C7
:104D380016DBEAFEEBFF750800851882851983AC3F
:104D480082AD837A1075F006E508A42423F91212BF
:104D5800FAE9702C7C1079FF851882851983AA825C
:104D6800AB83121012E97018EEFCEFFD85188285EE
:104D78001983AA82AB83120502E97004A908800B83
:104D88000508E508C3940A40B0790A74101216F1B0
:104D9800024E3974F7121732750800E50875F00EDF
:104DA800A4F8A9F0748328FE740739FFEEFCEFFD20
:104DB8007A0E75F006E508A42420F91212FAE960C3
:104DC8002C7C067D0079FFEEFAEFFB120FAC7C0617
:104DD8007D0079FFEE2406FAEF3400FB120FACEEEB
:104DE800240CF582EF3400F583E4F0A3F00508E520
:104DF80008C3940A40A590080FE0600312117412CA
:104E08001162802D74F71217327E007F007C0679BC
:104E1800FFEF75F00EA4FAABF074832AFA74073B1F
:104E2800FB121012E970010E0FEFC3940A40DEEE78
:104E3800F97F0102180474F71217327E00EEF91296
:104E4800114A0EEEC3940A5003E960F180E374F34B
:104E580012173274CB1216DBE9FE900C84E06E70E8
:104E68001B7A017B00900767E0F9120FF47A027B46
:104E780000900767E0F9120FF412118075F006EE42
:104E8800A4FF74202FF5087427121726AC82AD836F
:104E98007A0EA9081212FAE96003024F907C06798B
:104EA800FF7427121726AA82AB83121012E9600337
:104EB800024F907C0E7D0079FF7427121726AA8274
:104EC800AB83120FAC7C1B7D0079FF740C12172684
:104ED800AA82AB83120FAC7C0C7D0079FF85188207
:104EE800851983AA82AB83120FAC7427121726ACDC
:104EF80082AD837A0EA9081212F4E9F508740C122F
:104F08001726AC82AD837A1B74212FF91212F4E9AB
:104F1800F509740C121726AC82AD837A1B74222F04
:104F2800F91212F4E9F50A740C121726AC82AD8353
:104F38007A1074232FF91212F4E9F50B740C121776
:104F480026AC82AD837A1074242FF91212F4E9F595
:104F58000C740C121726AC82AD837A0474252FF9D1
:104F68001212F4E9FF851882851983AC82AD837A21
:104F78000C74702EF91212F4E9F8E509450A450B8C
:104F8800450C4F4842088003750800A9087435127B
:104F980016F17F0502180474F7121732E9900767B3
:104FA800F0121138024E3974F4121732EAFEEBFF90
:104FB80054807003025047900767E0F9120FD68AB1
:104FC800088B09EA4509607078018A828B83E0249E
:104FD80050603D14600624E1604F8052A3A3A3A350
:104FE800E0704E8A828B83A3A3A3A3A3A3A3121961
:104FF8005C8A828B83A3A3A3A3A3124C848A828B8B
:1050080083A3A31250E61210F674021216F180213F
:10501800A3A3A3A3E0641E701879008A828B83A3DC
:10502800A31250E61210F08008121102E9F8E860A5
:1050380007AA08AB09120FC4EEFAEF64808065EE88
:10504800540260237C007D007A007B00121120E965
:1050580060117A017B00900767E0F9120FEEEE64A9
:1050680002803F7A028046EEA2E0503F1250BA1208
:1050780050E612117AE9602F1254BB601F12488261
:1050880088088909E8450960137C0079011250BA3B
:105098001250E6850882850983121730121180EEB6
:1050A8006401FAEFFB80087A0180027A007B000233
:1050B800449D90081BE0F8A312489AA3227F02029D
:1050C8001804C082C083900767E0F98A828B83A3A3
:1050D8001250E612078A803B850882850983E0FA28
:1050E800A3E0FB22C082C08374FF1216DB12113EBC
:1050F800E9C39402851882851983400474028002EA
:10510800740AF0AC82AD837A017905120610740135
:105118001216F1D083D08202012274F2121732746F
:10512800E81216DBEAFEEBFF890A8C088D097C1869
:105138007D007900851882851983AA82AB83120FB6
:10514800AC851882851983EEF0A3EFF0900769E02B
:10515800C0E07402121726D0E0F090076AE0C0E0C1
:105168007403121726D0E0F0900C83E0C0E07417A7
:10517800121726D0E0F07415121726E054FEF8A393
:10518800E0F9900C82E0A2E0E433FAE84AF87415FA
:105198001217261252CCA2E15004D2F08002C2F0BB
:1051A800E854FDFAA2F0E43333F8EA48F87415122B
:1051B80017261252CCA2E35004D2F08002C2F0E8C3
:1051C80054F7FAA2F0E433F50C750D007403780C6B
:1051D8001216C81252C51217261252CCA2E4500455
:1051E800D2F08002C2F0E854EFFAA2F0E433F50CF2
:1051F8007404780C1216C81252C51217261252CC13
:10520800A2E55004D2F08002C2F0E854DFFAA2F01E
:10521800E433F50C7405780C1216C81252C512172F
:10522800261252CCA2E25004D2F08002C2F0E85416
:10523800FBFAA2F0E433F50C7402780C1216C812CB
:1052480052C5121726E8F0A3E9F090076AE0601D3E
:10525800750C10780C1219457C6B7D0774061217B3
:1052680026AA82AB83120F9474021216F190077B60
:10527800E06011E50A60097415121726E04402F08F
:105288007801800278007414121726E048F090071D
:1052980068E060047804800278007414121726E02D
:1052A80048F0AC08AD09851882851983AA82AB83BA
:1052B80012052674181216F17F06021804EA450C26
:1052C800F8741522E8F0A3E9F0900C82E02274F358
:1052D80012173274E51216DBEAFEEBFF8C098D0A11
:1052E8007428121726E0F50C75F006E9A4F874087E
:1052F800650A700474228002742128F50B7C1B7DDA
:10530800007900851882851983AA82AB83120FACB5
:10531800851882851983AC82AD837A1BA90B12127A
:10532800FAE97032741A121726E024F9C3940A5065
:1053380025E50CF50B780B1219497401121726ACE8
:1053480082AD83E509A2E0E433F9EEFAEFFB12053A
:105358003874011216F1741B024F9774F712173242
:10536800120802750800E50875F00EA4F8A9F07493
:105378008328FE740739FF7C0679FFEEFAEFFB12EB
:105388001012E97009EEFAEFFB7900120808050817
:10539800E508C3940A40CF024E3974F612173274E6
:1053A800FD1216DBEAFEEBFF90081D1254BE7039A1
:1053B80075081F75090878081219457508027509D6
:1053C8000078081219457508E875099278081219C5
:1053D800457CFF7DFF7A017B001206527406121687
:1053E800F190081DEAF0A3EBF090081D1254BE706E
:1053F800030254A5E4F508F5097808121945740460
:1054080012172685820885830978081219457404BD
:10541800121726858208858309780812194590088D
:105428001F12195C790290081D1254B31207787480
:10543800081216F1E97034851882851983E0FA7428
:1054480001121726E0F9EA2400F508E439F509EA1B
:1054580045096017780812194590081D1250BDA318
:105468001254B31210F674021216F1E4F508F50995
:10547800780812194590081F12195C7CFF7DFF906F
:10548800081D1250E612065E74041216F190081DEB
:10549800EAF0A3EBF090081D1254BE700479018065
:1054A80002790074031216F10250C5124C84EEFA08
:1054B800EFFB22900781E0F8A3E0F9E84922C082D7
:1054C800C08390081B1254BE601090081B1250E64F
:1054D800120FC490081BE4F0A3F0900C84740AF037
:1054E80002511BC082C0839061907404F0A3744879
:1054F800F0A3E4F09061807440F09061BC7407F010
:105508009061877469F09061B67416F07900120A98
:10551800727902120A789024ECE493F46006E4931A
:10552800F9120A4E7905120D720258E6C082C0833C
:10553800E9540FF9906185E0696012E5C65480442A
:1055480049F5C6E59E547F644970F8E9F053C68072
:10555800E59E547F70FA0258E674F7121732E5A8F0
:10556800FE53A87E120A5AC2BA539AFEC289759B84
:1055780000C2C2120A6075A91175B905120A66D26D
:10558800BA439A0174805E42A8025E7DC082C083DD
:10559800906181E4F0A30258E375E9007591007504
:1055A800BF00020122C082C083906181E4F0A3742D
:1055B800C0F0A3E40258E5C082C08374F81216DB79
:1055C8009003A4126816700302569E9003A4E05438
:1055D8004060237908851882851983AA82AB8312D3
:1055E8000B6E851882851983AA82AB8312082690D0
:1055F80003A4E054BFF0E054806010790C7A657B16
:1056080005120B6E9003A4E0547FF0E0A2E0500F67
:105618007900120A7212082C9003A4E054FEF0E0FC
:105628005402600F7901120A7212082C9003A4E048
:1056380054FDF0E05404600F7900120A7812083221
:105648009003A4E054FBF0E05408600F7901120ABB
:10565800781208329003A4E054F7F0E05410600F79
:105668007902120A781208329003A4E054EFF0E0AD
:105678005420600F7903120A781208329003A4E0CC
:1056880054DFF0A3E05401600D120A841208389028
:1056980003A5E054FEF074081216F10258E6C08221
:1056A800C083E9600514602A804F90619A7433F0D2
:1056B800A37455F09061A0743AF090053FE064013E
:1056C8007009C2919003A67467802D9003A6746137
:1056D800802690619A743FF0A3745AF09061A07488
:1056E8007FF090053FE064017009D2919003A674A1
:1056F8007180059003A6746AF00258E6C082C083E0
:10570800E9600B14600D14601714600C802090245D
:10571800F080159024F1801090053FE06401700539
:105728009024F280039024F3E493906186F0025869
:10573800E674EE12173274F41216DB851882851996
:1057480083AC82AD8375839275828274041215EEE0
:105758009024F093F46003025863907808E0C394AF
:105768000250030258437404121726AC82AD8375A5
:10577800839275821074081215EEFC7EFF7FFF8EEF
:105788000C7D008C8285820E800F74086D606D74AC
:10579800096D6068740A6D60638D0875090074028C
:1057A80078081216C812586D1215ABA909E50AC96E
:1057B800F88810741878081214ECE5104508FAE90E
:1057C800FBE50EC333F8E433F97404121726E582B7
:1057D80028F582E58339125D6DC3E89AE99B400894
:1057E800E8C39AF8E99B8006EAC398F8EB99F9C3ED
:1057F800E89EE99F5006E8FEE9FF8D0C0DEDC39485
:1058080013408774FF6E700374FF6F6024850C0863
:10581800740278081216C812586D1215AB851882D2
:10582800851983E582250EF582E58312620CE50869
:10583800F00CECC3940450030257837508017509F2
:105848000078081219457402121726AC82AD837AC3
:105858003C7B091211C274021216F1740C1216F173
:105868007F0A02180474482508F58274783509F50A
:1058780083780822C082C083906186E0F89024F380
:10588800E4936870099024F2E493906186F0906143
:10589800AE7468F0A3746AF090624574FBF0A304D8
:1058A800F053F4FD43FE0290053F7401F09061A0AF
:1058B800E0643A7004790080027901120A72025891
:1058C800E6C082C0839004F1E06401700A9004F697
:1058D800E06004790C800279008003F0A3F0D083A3
:1058E800D082020122C082C08375E1F19004F4E005
:1058F800604D146009146051146049147050120A04
:10590800969004EAE0F97AEB7B04120CF490926A20
:105918001215C9120D2A9092AA1215C9120D0090DB
:1059280004F5E0F9120D0C7901120D66125A0924DA
:105938001612620974AEF0A3740AF07900809F12FF
:105948000A9C80BD120AA280B8120AA880B37912F4
:1059580080EB74F412173275D90D9004D5E0A2E0EB
:10596800E4331313F81259FF484401F5D9780012AB
:105978005A6C40FB7800880874D612676C7404125D
:105988005A7640F275E1959004D5E0F97AD67B0411
:10599800120CFA900BB47424F0A3740A125A7C12F5
:1059A8005AC0125AB7125BD49004F4E06401900410
:1059B800E8700B125A121215AB9092468009125ACF
:1059C800121215AB909242780812153790928A7885
:1059D80008121585125A09240E1262097808121540
:1059E800BA125A0924141262097413F09003A274AB
:1059F80002F07F040218049004EAE0C4333354C070
:105A0800229004E8E0F8A3E0C8221266A4780822ED
:105A180074F6121732125BA58AD97800125A6C40B4
:105A2800FB78008006125B1D125C5AE8C39940F5AA
:105A3800125B97125A6C40FB7800800812676874F2
:105A480005125C5AE8C39940F375E195900BB4745C
:105A580030F0A3740A125A7C125A867412F090031A
:105A6800A2025E41880874EB2508F5827404125D71
:105A7800D7940622125BBD742AF0A3740A22125A24
:105A8800C0125AB7125BD89004E8E0F8A3E0C82423
:105A98000E125AAF74FF1264E19004E8E0F8A3E034
:105AA800C82414125AAF22F582E83400F58322F094
:105AB800A37442F0A3740A22125AC422125AC822AA
:105AC800F0A374DAF0A3740B2274F6121732125B87
:105AD800121259FF4402F5D97800125A6C40FB782B
:105AE800008006125B1D125C5AE8C39940F575E107
:105AF80095900BB4125B28F0A3125B28125A897494
:105B080014F09003A27404025E439004FAE0F9745E
:105B18000729F5D922880874FB2508F58274042220
