:020000040000FA
:060000000201070220FBD3
:03002B0002255358
:03003B0002257823
:0300430002250390
:0300530002216E19
:03007B0002252B30
:10008300021F67E5C754F84401F5C7790122000050
:100093000080FB120086B900030200F1E4792178A5
:1000A30008B800028004F709D8FCE479297802B87B
:1000B30000028004F709D8FCE4900281787879097A
:1000C3008002F0A3D8FCD9FA7AF87B0A900137783A
:1000D3008579038015E493A3AD82AE838A828B83F3
:1000E300F0A3AA82AB838D828E83D8E9D9E7758288
:1000F300D17583D4740312011975829175830074C9
:100103000012011975D00075813F751881751902A8
:10011300759F00020096C09FF59FE473D09F22D085
:1001230083D082C09FE493C0E0740193C0E0740263
:1001330093F59F22FF0000B4000028002800283018
:1001430075A000A000A000A00000080008E001F0D6
:10015300001000100010001000100010005000509C
:1001630000500010001000D0070000000000000F36
:100173000001000500307507001000010081FF0039
:10018300000000FFB905D705BF05FF020202080200
:100193005000A0000000E80302CE84010000AE84FA
:1001A30002CA840100004F0B02BE84010000B302A7
:1001B30002CA84010000500B02BC84010000C90282
:1001C30002CA84010000510B02BA84010000CB0271
:1001D30002CA84010000520B02C084080000CC0252
:1001E30002CA84010000530B02DE84010000540B99
:1001F300FF0100FF2002CE84010000AB8402CA8409
:10020300010000B80B02D084000000000002D48477
:100213000300001903890B890B890B890B890B894F
:100223000B890B890B890B890B890B890B890B0BA9
:100233000E230E050E020202020202020202010D49
:10024300000000100102CE84010000B18402CA84C0
:10025300010000F90B02C484010000400702CA84B4
:10026300010000FA0B02C284010000438402CA8425
:10027300010000FB0B02B884010000278402CA843A
:10028300010000FC0B02B684010000308302CA8423
:10029300010000FD0B02B4840100000C8302CA8438
:1002A300010000FE0B02D284010000428302CA84D3
:1002B300010000FF0B02D884010000548302CA84AA
:1002C300010000000C02DA84010000358402CA84B4
:1002D300010000010C02DC84010000020C01E803B0
:1002E300053F100AFFFFFF000130750302010600FE
:1002F30000000000000000000000000000000000FB
:100303000000000000000000000000FFFF06008066
:100313000CE80302000102030405060708090A0B9F
:100323000C0D0E0F0709455F4C6F634B0512500010
:100333002003020A00020106030207E208FF9CD21F
:100343001EF3E9C9455F4C6F636B000000000000BA
:10035300000000000000000000D9120000F1120AA2
:100363005772697465204368617200104E6F746937
:10037300667920436861720002CE84010000A8847C
:1003830002CA84010000230D10F783030000DD0A75
:1003930002C884010000240D02CA840100002F0D4D
:1003A300100784000000F10A02D484030000F20A5B
:1003B30002C884010000300D1201229DC503120101
:1003C30022B4C503120122E5C50312012220C6038C
:1003D3001201224AC60312012274C6031201228BA0
:1003E300C603120122A2C603120122B9C6031201D7
:1003F30022E2C603120122F5C6031201220BC70330
:100403001201221EC70312012245C7031201221C37
:10041300CF0212012220D00212012258D00212016F
:10042300227BD00212012286D002120122A9D0021D
:10043300120122B8D1021201228DD2021201220826
:10044300D30212012290D302120122CBD302120152
:100453002202D40212012290D40212012269D5028F
:10046300120122C9D502120122D4D502120122534C
:10047300D60212012256D60212012259D6021201C5
:1004830022E8D602120122EBD6021201221BD70266
:1004930012012245D70212012233D802120122E5AA
:1004A300D802120122A99603120122D19603120146
:1004B30022FF960312012236970312012294970317
:1004C300120122DF97031201222A98031201226AE2
:1004D3009803120122B09803120122DE980312013D
:1004E300229B9903120122A59903120122B29903B7
:1004F300120122E59903120122B19A03120122BDCE
:100503009A03120122D59A03120122DF9A031201E0
:100513002237D00312012245D0031201225DD003FA
:1005230012012275D00312012201F101120122AD41
:10053300F10112012228F20112012249F3011201F1
:100543002285F3011201222EF40112012215F50175
:1005530012012279F601120122D0F6011201225171
:10056300F70112012241F8011201228EF801120152
:100573002214F90112012246F9011201225AFB0148
:100583001201229CFB01120122BAFB011201223D3E
:10059300FC0112012211FD01120122D9FD011201F8
:1005A30022C2F80212012295F9021201223EFA0236
:1005B30012012291FA0212012241FB02120122CD01
:1005C300FB02120122B9FC02120122E8FC02120111
:1005D30022FBFD0212012243FE0212012218FF0236
:1005E30012012254FF0212012270FF02120122CBD8
:1005F300D303120122C9A803120122DFA8031201A7
:100603002205A90312012221AA031201222BAA0304
:1006130012012260AB0312012258AC0312012282A1
:100623009103120122B29203120122E592031201F5
:10063300222F9303120122F694031201227BD1018C
:10064300120122E5D10112012244D30112012254E5
:10065300D30112012281D301120122D8D301120145
:100663002281D40112012288D50112012252D6011E
:10067300120122B2D701120122F5D7011201229AE7
:10068300D801120122E7D8011201220DD90112016A
:10069300221BDB0112012220DB0112012225DD01D5
:1006A30012012272DD01120122E5DD01120122187D
:1006B300DE01120122BADE0112012263DF011201FF
:1006C300229BDF011201229EDF01120122E6DF01DC
:1006D30012012226E0011201227DE001120122C64D
:1006E300BB03120122DEBB0312012226BC0312014B
:1006F300223CBC0312012283BC0312012297BD03D7
:1007030012012224BE031201226FBE03120122240E
:1007130043001201223043001201226B43001201F5
:1007230022B04300120122704400120122F6440059
:100733001201222245001201225B45001201229977
:1007430047001201227D4900120122634B0012016E
:1007530022A64C00120122F44E0012012206500080
:100763001201225151001201226152001201227E14
:100773005200120122B95200120122DB520012016F
:10078300223E5300120122FF570012012294580007
:10079300120122E558001201220C59001201225EB7
:1007A30059001201227C5900120122D6590012016C
:1007B30022D55A00120122595B00120122669B03C3
:1007C300120122709B03120122B39B03120122CE5A
:1007D3009B031201225E9C03120122869C031201D9
:1007E30022C39C03120122FA9C03120122239D03BC
:1007F300120122989D03120122AD9D03120122C210
:100803009D03120122F39D03120122079E0312018D
:10081300222C9E03120122669E03120122929E0342
:10082300120122CA9E03120122499F03120122923E
:100833009F03120122BC9F03120122E79F031201AF
:1008430022C97E0012012202B80212012230B8022C
:100853001201227EB9021201225EBA021201227D26
:10086300BA02120122FABA021201223DBB0212019C
:100873002293BC0212012254BD02120122DBBF02E9
:100883001201227CC00212012272C1021201226FE4
:10089300C202120122C9C30212012254C40212016C
:1008A300225ACA03120122C3CA0312012217CB031D
:1008B3001201223ECB031201226FCB031201220F3E
:1008C300A0031201227CA003120122C3A003120180
:1008D30022DBA103120122D7A203120122BAA3032E
:1008E30012012256D90212012298D9021201226A58
:1008F300DA0212012243DB021201223DDC02120161
:10090300221FDD0212012288DD021201223EDE02D5
:10091300120122B2DE021201221EDF02120122475D
:10092300DF02120122C1DF021201225AE002120188
:1009330022BFE002120122D4E0021201221AE102D4
:1009430012012233E10212012298E1021201229BD9
:10095300E102120122F4B5031201221CB6031201B3
:10096300225AB60312012218B7031201227FB703DA
:100973001201229BB703120122C3B703120122F310
:10098300B70312012202B8031201227FB803120136
:1009930022A5B8031201226AE10112012248E301F0
:1009A3001201227AE501120122B6E501120122E3C6
:1009B300E501120122CDE60112012218E70112011D
:1009C3002263E70112012275E701120122B5E70153
:1009D300120122EAE70112012238E801120122671B
:1009E300E8011201228AE801120122D7E80112016B
:1009F300225CE90112012276EB01120122B5ED011D
:100A0300120122F6ED0112012298EF01120122D9FF
:100A1300EF011201224CF001120122A2F001120196
:100A230022CCF001120122EDAA02120122EBAB0249
:100A330012012284B202120122A5B4021201227011
:100A4300B602120122D8B702120122C05B001201C2
:100A5300226F5C00120122B55C00120122F55D00D9
:100A63001201228B5F001201220560001201222075
:100A730060001201229B6000120122F56100120145
:100A8300225563001201225B6400120122BC65003F
:100A9300120122D5650012012233660012012221C0
:100AA3006700120122546700120122C46700120179
:100AB300223E680012012288680012012252690056
:100AC300120122276A00120122066B0012012291F1
:100AD3006B00120122FF6B00120122736C001201E2
:100AE300229E6C001201225D6D00120122C26E0073
:100AF300120122DF6E00120122FE6E00120122EFAC
:100B03006F001201221470001201223E70001201C4
:100B130022B970001201221371001201227C7200AB
:100B23001201222A73001201226B73001201226C3C
:100B33008E02120122BA8E02120122C68E02120105
:100B430022A48F02120122D58F02120122069002E3
:100B53001201228690021201220491021201223C08
:100B630091021201228E9102120122CB91021201F3
:100B730022E893021201220E9602120122F9970231
:100B8300120122E39902120122F2FF01120122F261
:100B93009901120122229A01120122FBA0011201E2
:100BA3002280A2011201227DA80112012265A9015E
:100BB300120122A2A901120122C5A901120122F6E2
:100BC300A901120122FFA90112012209AA0112019E
:100BD30022F7AA01120122EDAB01120122E38401E3
:100BE300120122E28801120122E888011201222364
:100BF30090011201223C9501120122ACAF031201B4
:100C030022A6B0031201221AB10312012258B10322
:100C1300120122CCB10312012245B2031201224E6A
:100C2300B2031201225AB2031201226FB20312015C
:100C330022ADB203120122C3B2031201227CA40328
:100C430012012289A403120122A3A403120122E2A6
:100C5300A40312012220A50312012285A503120178
:100C6300229AA503120122A5A503120122B2A5030C
:100C7300120122C9A503120122D7A503120122E200
:100C8300A503120122EEA503120122FDA503120101
:100C93002208A6031201222BA603120122D2A603C5
:100CA300120122E2A603120122FCA6031201221959
:100CB300A70312012235A7031201225AA703120127
:100CC3002265A7031201227AA7031201228EA7032A
:100CD300120122EFA703120122F5A703120122FB3F
:100CE300A70312012201A80312012219A80312016A
:100CF300224CA803120122C39C02120122479D0227
:100D0300120122F69D02120122559F021201227640
:100D1300A10212012262A20212012297A20212016F
:100D230022B9A20212012268A30212012260A502C3
:100D330012012289A5021201221BA6021201224DD1
:100D4300A6021201225AA602120122B1A602120120
:100D530022D7A60212012244A90212012247AA02A3
:100D63001201229FAA021201220080021201220A0A
:100D73008102120122F18102120122FB810212017E
:100D8300221D8202120122298202120122C283023F
:100D9300120122F183021201220D85021201226641
:100DA3008502120122CC8602120122AB87021201B4
:100DB30022078802120122748802120122AF8802DC
:100DC300120122EE8802120122A78B02120122C114
:100DD3008B021201224D8C021201225B8C02120142
:100DE30022B48C02120122C28C02120122358D021E
:100DF300120122998D02120122E38D021201229B1C
:100E03007300120122BD7300120122E37500120167
:100E130022F87800120122107A00120122C37A000C
:100E2300120122A57B0012012257C7031201227C63
:100E3300C703120122EEC70312012248F102120175
:100E43002251F1021201225AF10212012231F2025D
:100E5300120122E2F30212012218F40212012252B9
:100E6300F40212012288F402120122C2F4021201D6
:100E730022F6F40212012222F5021201226BF5027C
:100E8300120122A5F502120122EEF50212012246F9
:100E9300F6021201227BF602120122D6F602120199
:100EA3002210F70212012261F70212012297F702C0
:100EB300120122D1F702120122FFF70212012222AC
:100EC300F802120122E3D1031201220FD20312010D
:100ED300226AD20312012274D20312012284D203A2
:100EE300120122618603120122868603120122BEA9
:100EF300860312012231D303120122FC25001201C1
:100F0300220E2900120122C22A00120122672B009D
:100F13001201220A2C00120122C12C00120122F01C
:100F23002C00120122AC31001201223E32001201C8
:100F3300227A3300120122E2330012012296340096
:100F43001201224C3700120122863700120122F0CF
:100F530037001201224D3800120122AA3800120173
:100F630022073900120122F23900120122383A0015
:100F7300120122833A00120122A63A00120122E949
:100F83003B00120122FD3B00120122063D0012012B
:100F930022453D00120122713D00120122C03D0095
:100FA300120122E13D001201221F3E0012012266BE
:100FB3004000120122A74000120122454100120104
:100FC30022B74100120122F042001201223ACF035C
:100FD3001201224BCF0312012227D003120122ED6B
:100FE300B803120122B8BB0312012252D503120126
:100FF300220ED1031201221ED10312012238D10382
:10100300120122D5D103120122F3B2031201229756
:10101300B303120122D9B50312012229CE0312010F
:101023002250CE03120122B3CE0312012206CF03B4
:1010330012012231C10312012256C1031201227B84
:10104300C103120122A3C103120122D3C10312015E
:101053002269C20312012291C203120122008003FA
:10106300120122FD810312012283820312012288CD
:1010730083031201224C8403120122CA8403120146
:1010830022AD8503120122B08503120122BE85031E
:10109300120122DB85031201220486031201222D91
:1010A30086031201223B8603120122538603120197
:1010B30022B5CB03120122DECB0312012208CC039B
:1010C30012012228CC0312012286CC03120122C86A
:1010D300E902120122DDE90212012239EA021201B8
:1010E30022A4EA02120122ECEA0212012256EB02C6
:1010F3001201227FEB021201228DEB02120122EF79
:10110300EB021201222DEC0212012248EC02120121
:1011130022E3EC0212012288ED021201220BEE02FD
:1011230012012244EE02120122CFEE021201222604
:10113300EF0212012284EF0212012296EF02120142
:1011430022BCEF02120122C5EF0212012214F102A6
:10115300120122BDC30312012224C403120122CFB0
:10116300C40312012245C50312012262AC0312011A
:101173002295AC0312012293AD03120122E5AE03C3
:10118300120122EFCC03120122CDCD0312012299C9
:10119300BE03120122DEBE0312012224BF03120189
:1011A30022EDC0031201224FD4031201226AD40399
:1011B3001201227AD4031201228ED203120122D504
:1011C300C402120122B1C502120122F8C5021201A2
:1011D3002235C602120122A3C602120122FDC60253
:1011E3001201226DC7021201223DC8021201222CF4
:1011F300C902120122B0C9021201224CCB02120110
:1012030022D7CB0212012267CC0212012200CD02A7
:1012130012012217CD021201224ACE02120122A08C
:10122300CE02120122BFE102120122DFE10212010A
:101233002255E302120122A3E302120122C3E302B5
:101243001201222BE402120122ADE402120122F365
:10125300E4021201227FE50212012205AE0112010E
:1012630022ACB2011201229DB501120122C6B501C1
:10127300120122EFB501120122A1B601120122804F
:10128300B801120122D2B9011201221EBF011201BB
:101293002257BF011201229BBF01120122A7C001E5
:1012A300120122FCC8031201220BC903120122837B
:1012B300C9031201221BCA031201223ACA031201F3
:1012C3002265C101120122A3C3011201226DC401CF
:1012D30012012280C401120122ABC401120122B8FF
:1012E300C50112012248C6011201225DC601120185
:1012F3002272C6011201221FD101120122158C0391
:10130300120122658C03120122828C03120122DA5C
:101313008C031201225C8E031201224591031201F8
:101323002226D503120122E27F00E066701008A393
:10133300E066700A08A3E066700408A3E06622C3AF
:10134300E7960809E7960809E7960809E79622C38E
:10135300E09608A3E09608A3E09608A3E09622C0CF
:1013630008C3E096F50808A3E096420808A3E096B0
:10137300420808A3E09645087001D3D00822080864
:1013830008EAC0E0EBC0E086F0E7A4FA180986F0AB
:10139300E7A42AFA180986F0E7A42AFA180986F0BE
:1013A300E7A42AFA1986F0E7A4FBE5F02AFA19085C
:1013B30086F0E7A42BFBE5F03AFA190886F0E7A4D8
:1013C3002BFBE5F03AFA18180986F0E7A4C5F02BD1
:1013D300FBE43AFA1908E7C5F0C6A426F6E5F03BA4
:1013E300FBE43AFA1886F0E7A4F6E5F00826F6E4FB
:1013F3003B08F6E43A08F6D0E0FBD0E0FA226016A8
:10140300080808C6C313C618C613C618C613C618D9
:10141300C613C6D5E0EA2270090808082260161828
:101423001818C6C333C608C633C608C633C608C6AB
:1014330033C6D5E0EA22E627F60809E637F60809B7
:10144300E637F60809E637F622E026F608A3E03683
:10145300F608A3E036F608A3E036F622E026F00805
:10146300A3E036F008A3E036F008A3E036F022C389
:10147300E697F60809E697F60809E697F60809E6F7
:1014830097F622C3E096F008A3E096F008A3E0964F
:10149300F008A3E096F022E657F60809E657F608A7
:1014A30009E657F60809E657F622E056F608A3E0E0
:1014B30056F608A3E056F608A3E056F622E056F0E7
:1014C30008A3E056F008A3E056F008A3E056F02284
:1014D300E0F608A3E0F608A3E0F608A3E0F622E6A8
:1014E300F008A3E6F008A3E6F008A3E6F022E0FA8A
:1014F300A3E0FBA3E0FCA3E0FD22EAF0A3EBF0A34F
:10150300ECF0A3EDF022E0F8A3E0F9A3E0FAA3E006
:10151300FB22E8F0A3E9F0A3EAF0A3EBF022CAC0B0
:10152300E0E6F0A308DAFAD0E0FA22CAC0E0E0A3CA
:10153300C582CCC582C583CDC583F0A3C582CCC586
:1015430082C583CDC583DAE6D0E0CA22C3E498F826
:10155300E499F91215908026C3E49AFAE49BFBE917
:1015630020E7E9121590E498F8E499F922C3E49886
:10157300F8E499F9121590E498F8E499F9C3E49A18
:10158300FAE49BFB22EB20E7CFE920E7E0B9001068
:10159300BB0008E88AF084F8AAF022E4FBC8FA2228
:1015A300EB70227B10C833C8C933C9335007C39AC1
:1015B300C3DBF280069A50012ADBEAC833F4C8C9B8
:1015C30033F4C9FA2275F008E4C833C8C933C93300
:1015D300C99AC99B5004C92AC93BD5F0ECFBC8334F
:1015E300F4C8E4C9FA22600D08C6A2E713C618C6F8
:1015F30013C6D5E0F322600C08C6C313C618C6137E
:10160300C6D5E0F422700422600D18C6C333C608A1
:10161300C633C6D5E0F41822251810AF08F51840D4
:101623000C15198008F51840021519D2AF2200C015
:10163300D0251810AF08F518500C05198008F518B7
:1016430050020519D2AFD0D0222518F58210AF0869
:10165300F518400C15198008F51840021519D2AF7A
:10166300851983222518F582E43519F58322251877
:10167300F8E43519F9222518FAE43519FB2225185F
:10168300FCE43519FD22E4732518C582C0E0E51991
:1016930034FFC583C0E0E518C3958224F810AF0872
:1016A3008583198582188008858319858218D2AFAE
:1016B300CEF0A3E520F0A37808E608F0A3DEFAEF66
:1016C300F0A3E58124FAF8E608F0A3E608F0A3E620
:1016D30008F0A30808E608F0A3E608F0A3158115AF
:1016E30081D0E0FED0E0F8158115811581E8C0E0D6
:1016F300EEC0E0222518C582C0E0E51934FFC5839A
:10170300C0E0E518C3958224F910AF0885831985D5
:1017130082188008858319858218D2AFCEF0A3E59D
:1017230020F0A37808E608F0A3DEFAEFF0A3E58142
:1017330024FBF8E608F0A3E608F0A30808E608F09F
:10174300A3E608F0A315811581D0E0FED0E0F815DB
:10175300811581E8C0E0EEC0E022851983851882F7
:10176300E0A3FEE0A3F5207808E0A3F608DFFAE0A3
:10177300A3FFE0A3C0E0E0A3C0E0E0A3C0E0E0A3D8
:10178300C0E0E0A3C0E010AF08858218858319800C
:1017930008858218858319D2AFD083D08202011FB6
:1017A300851983851882E0A3FEE0A3F5207808E07D
:1017B300A3F608DFFAE0A3FFE0A3C0E0E0A3C0E0E4
:1017C300E0A3C0E0E0A3C0E010AF088582188583E2
:1017D300198008858218858319D2AFD083D08222DD
:1017E300C0D02518C582C0E0E51934FFC583C0E029
:1017F300E518C3958224F310AF08858319858218F1
:101803008008858319858218D2AFC8F0A3E9F0A3B5
:10181300EAF0A3EBF0A37908E709F0A3D8FAECF018
:10182300A3EDF0A3EEF0A3EFF0A3D0E0F0A3D0E09C
:10183300F0A3D0E0F0A3E520F0A3E5F0F0A3228528
:101843001983851882E0C0E0A3E0F9A3E0FAA3E0DE
:10185300FBA37808E0F608A3DFFAE0FCA3E0FDA30E
:10186300E0FEA3E0FFA3E0C0E0A3E0C0E0A3E0F557
:10187300D0A3E0F520A3E0A3F5F010AF088583190A
:101883008582188008858319858218D2AFD082D0CB
:1018930083D0E0F8D0E032740480067402800274CE
:1018A30001C0E0F40412164CD0E012152122740496
:1018B300800474028000CCC0E0EDC0E0E518C39C56
:1018C300CCAD1950011D10AF068C188D1980068CF4
:1018D300188D19D2AF12152ED0E0FDD0E0FC22D026
:1018E30083D082E9C0E0E493A3C386F0C5F095F00A
:1018F300F908E493A386F0C5F095F0700BE493A385
:10190300C3994005E9048002A3E475F002A425828B
:10191300F582E5F03583F583D0E0F9E493A3C0E0E5
:10192300E493C0E022D083D082ECC0E0EDC0E0E4D9
:1019330093A3FCE493A3FDED4C600D121974EC2406
:10194300FFFCED34FFFD80EFE493A3FCE493A3FDE0
:10195300ED4C600D1219B3EC24FFFCED34FFFD8058
:10196300EFD0E0FDD0E0FCE493A3C0E0E493C0E05B
:1019730022C0E0C3E49396087401939618400FE4E1
:101983009366700808740193661870007019A3A316
:10199300C3E49396087401939618A3A3400DD0E073
:1019A300D0E0D0E0021964A3A3A3A3A3A3D0E022B1
:1019B300C0E0C0F088F0E493667008087401936691
:1019C300187000A8F0A3A3700BD0F0D0E0D0E0D043
:0B19D300E0021964A3A3D0F0D0E022D2
:1019E00074F51216F7EAFEEBFFEE2434F8EF34003C
:1019F000F988088909EE2435F582EF3400F583E093
:101A0000F8EE2437F582EF3400F583E0F50AEC8533
:101A10000AF0A4FCAAF0850AF0EDA42AFDE82CF84F
:101A2000E43DF97A257B00121590EA850882850944
:101A300083F0F8740758F97401B900028004C333C5
:101A4000D9FCFAE8131313541FF8EE28F8EF34000A
:101A5000F9E8245DF582E93400F583E05A6008EE88
:101A60002434F582EF802CEE2434F582EF3400F537
:101A700083E0C0E0EE2436F582EF3400F583E0F534
:101A8000F0D0E084A8F0EE28F8EF3400F9E824382C
:101A9000F582E93400F583E0F97F040217A374F5B9
:101AA0001216F7EAFEEBFFEE2434F582EF3400F570
:101AB00083E0C0E0EE2435F582EF3400F583D0E01A
:101AC000F08E828F83A3A3A3A3A3A3A3C082C0830A
:101AD0008E828F83A3A3A3A3A3E0F8A3E0F9D0830E
:101AE000D082E0C398F508A3E099F509EE247FF5CC
:101AF00082EF3400F583E064017069EE2480F582A2
:101B0000EF3400F583E0F8A3E0F98E828F83A3A37E
:101B1000A3A3A3A3A3E0FCA3E0FD8E828F83A3A3D2
:101B2000A3A3A3E0FAA3E0FBC3EA9CEB9D5010C380
:101B3000EC98ED99402EC3EA98EB995027800EC39C
:101B4000EA98EB994007C3EC98ED9940177CDC7D4F
:101B500004EEFAEFFB120AE1EE247FF582EF340087
:101B6000F583E4F0EE2434F8EF3400F9E8FCE9FD05
:101B7000EE2435F582EF3400F583E0F8EE2437F5F6
:101B800082EF3400F583E0F50AE508850AF0A4F554
:101B900008AAF0850AF0E509A42AF509E82508F85D
:101BA000E43509F97A257B00121590EA8C828D8341
:101BB000F0F8740758F97401B900028004C333D9EE
:101BC000FCFAE8131313541FF8EE28F8EF3400F969
:101BD000E8245DF582E93400F583E05A6008EE24DC
:101BE00034F582EF802CEE2434F582EF3400F58357
:101BF000E0C0E0EE2436F582EF3400F583E0F5F046
:101C0000D0E084A8F0EE28F8EF3400F9E82438F5A5
:101C100082E93400F583E0F91224F5021A99C082B2
:101C2000C083851882851983E0F8A3E0F9C3EA9C94
:101C3000EB9D5010C3EC98ED99401BC3EA98EB99CB
:101C40005014800EC3EA98EB994007C3EC98ED99C5
:101C50004004790180027900D083D08222EAC39CBB
:101C6000FAEB9DFB2274EF1216F79003A2E06408D2
:101C70006005E06407702A9061C8E060249003D09A
:101C8000E0F4601DE0F875F003A4C8AAF02AF97426
:101C9000D228FE740339FF8E828F83A3A3A3E07042
:101CA00003021D95906060E0C0E0EE2468F582EFCD
:101CB0003400F583D0E0F0750C45750D057508000E
:101CC000750900E5D914F50AE5D95403F50E601736
:101CD0007403650E605CE50A6010EE2467F582EF20
:101CE0003400F583E07003021D7A900540E0640142
:101CF000602AEE2482F582EF3400F583E0600478F8
:101D00000480027800850A08E508C398FA95E0FB8C
:101D10001209A98A088B09EA45097005120CD980B5
:101D200074EE2482F582EF3400F583E070048A0CAF
:101D30008B0DE50A6012850C82850D83F50BE5D9C4
:101D4000F0A3150BE50B70F6EE2482F582EF34005C
:101D5000F583E0604474FC250AF50A780C12189E9D
:101D6000AC0AA90EEEFAEFFB120B837402121631C5
:101D7000E97026AA08AB09121159793D8E828F832A
:101D8000A3A3A3A3E0FA7B0012087DEEFAEFFB12F7
:101D90000AF9120B95790080747403650E605685FC
:101DA0000A10751100781012189EAC0CAD0DAA081F
:101DB000AB09120B5F7402121631EE2468F582EF44
:101DC0003400F583E064807004747F8001E0F50CDA
:101DD000780C1218A2E50EF50C780C1218A2A90ABC
:101DE000AC08AD099003D0E0FA7B00120841740200
:101DF00012163180139003A2E06408600BAC0CADA6
:101E00000DEEFAEFFB120BEF120CE579017F0A02DF
:101E100017A374F51216F774FC12161BEAFEEBFFFB
:101E20008908A2AFE433F509C2AF806AEE2463F8F3
:101E3000EF3400F97A007B00A2AFE433F50AC2AFB9
:101E400088828983E0FCA3E0FDEC4D603A888289BA
:101E500083E0FAA3E0FB8A828B83E0FCA3E0FD88A9
:101E6000828983ECF0A3EDF08A828B83E4F0A3F007
:101E700088828983E0FCA3E0FDEC4D700A888289AA
:101E800083A3A3E4F0A3F0E50AA2E092AF121159F4
:101E90009004E3E004F0EE2463F582EF3400F58370
:101EA000E0F8A3E0F9E849603DEE2463F582EF3401
:101EB00000F583E02402FAA3E03400FBEA2402F5F3
:101EC0000AEB3400F50B780A12189E8A828B83E0A5
:101ED000FCA3E0F9EEFAEFFB120B1D7402121631AF
:101EE000E97003021E2C9004E3E060639004E4E0D8
:101EF000F89004E3E0C398500C74026508705090A9
:101F000004E5E0604A8E828F83A3A3A3A3E0851833
:101F100082851983F0A3E4F09004E3E0F8740212E0
:101F20001667E8F0A3E4F09004E3E0F89004E2E040
:101F300028F07402121667AC82AD83851882851969
:101F400083AA82AB83790112084D9004E3E4F0E5A3
:101F500009A2E092AF7404121631021A990000002F
:101F60008521878522C622C0E0C0D0E8C0E0E9C054
:101F7000E0EAC0E0EBC0E0ECC0E0EDC0E0EEC0E0C5
:101F8000C008C009C00AC00BC082C083C0F0A2AFA5
:101F9000E433FEC2AF759B00906182E0A2E0501274
:101FA000E591A2E0500C7591FE7401652170031259
:101FB0001C65E0A2E55051E591A2E5504B7591DF1B
:101FC0009003A2E064076005E06408702374016573
:101FD00021703579019003D0E0FA75F003A4CAA806
:101FE000F028FB74D22AFA74033BFB121E128018ED
:101FF000E0640D70139003C4E004F064287002E400
:10200000F07A00E0F9120CEB906182E0A2E6400366
:102010000220AEE591A2E640030220AE7591BF908A
:1020200003A2E064057008120C19120C258003123B
:102030000C1F752100120C79E99003A3F0790012AE
:102040000C6D120A577A017B009003A1E0F912117E
:1020500029907803E064427055900544E014F070D4
:102060004DC2AF12206600782AD0E0F618D0E0F614
:10207000E59F540770057509FF800375097FC4C08B
:10208000E07829E6F50808E65509F509740B7808A3
:102090001215F9D0E02508F8906270E0A2E740F848
:1020A000E8C333906272F0906270E0D2E0F0906129
:1020B00081E0A2E35009E5E9A2E3500375E9F7A343
:1020C000E0A2E75009E591A2E7500375917FEEA2E7
:1020D000E092AFD0F0D083D082D00BD00AD009D01C
:1020E00008D0E0FED0E0FDD0E0FCD0E0FBD0E0FA8C
:1020F000D0E0F9D0E0F8D0D0D0E032C0E0C0D0C01D
:1021000082C083906183E0A2E05009E5BFA2E05065
:102110000375BFFEE0A2E15009E5BFA2E1500375DF
:10212000BFFDE0A2E25009E5BFA2E2500375BFFB8C
:10213000E0A2E35009E5BFA2E3500375BFF7E0A2B8
:10214000E45009E5BFA2E4500375BFEFE0A2E550FB
:1021500009E5BFA2E5500375BFDFE0A2E65009E53F
:10216000BFA2E6500375BFBFD083D0828088C0E095
:10217000C0D0E8C0E0E9C0E0EAC0E0EBC0E0ECC0FD
:10218000E0EDC0E0C0F0E5A7A2E6500FE5A1A2E6B1
:10219000500953A7BF75A1BF1221D3E5A7A2E550EF
:1021A0000CE5A1A2E5500653A7DF75A1DFE5A7A2C4
:1021B000E15009E5A1A2E1500375A1FDE5A7A2E266
:1021C000500CE5A1A2E2500653A7FB75A1FBD0F08D
:1021D0000220E474F81216F77521019003A2E0645E
:1021E000067015120BB38A828B83A3A3A3A3A3A3A8
:1021F000E0FAA3E0FB120C07A2AFE433FED2AF90EB
:1022000003A8E0640170187A207B009003A1E0F934
:102210001212497A207B009003A1E0F912112F904D
:102220006182E0D2E6F0900541E0602185C622801F
:10223000169003A7E064017008E5C654F84405F55C
:10224000C653BEFC121F607401652160E4EEA2E07B
:1022500092AF7F010217A3008E238F2485822885E9
:102260008327851882851983E0CEA3E0CF85288255
:10227000852783EBC9EAC8EDCBECCA75F010C3E83B
:1022800033C8E933C9EA33CAEB33CBC3EA9EF52638
:10229000EB9FF525B35004AB25AA26EC33CCED33E8
:1022A000CDD5F0DAAE23AF242274ED1216F78A08EA
:1022B0008B098C0A8D0B7413121667780C1214D3C9
:1022C0007808790C1213427510017511C875120047
:1022D00075130050127808790C121472781079086E
:1022E00012134250168010780C790812147278106C
:1022F000790C12134240047901800279007F0C02AC
:1023000017A374ED1216F78A088B098C0A8D0B74CB
:1023100013121667780C1214D3780C790812134232
:1023200040117808790C121472AA08AB09AC0AADF6
:102330000B8022751000751100751200751301785D
:1023400010790C12147278107908121439AA10AB93
:1023500011AC12AD1380A68A828B837508FF7509B4
:10236000FF750AFF750B0078081214C07F0402176E
:10237000A374F51216F78C828D8378081214D38A11
:10238000828B837808121486EA2404F8EB3400F96F
:102390008C828D83A3A3A3A3E0FCA3E0FD888289A4
:1023A00083C3E09CF0A3E09DF088828983C3E0941E
:1023B00020A3E0944E40268A828B837508FF75091E
:1023C000FF750AFF750BFF780812145F8A828B83F2
:1023D000A3A3A3A3E02420F0A3E0344EF0022357EC
:1023E00074F51216F7E9FE9004F7E0FAA3E0FBEEAD
:1023F000C333F8E433F974A728F582748339F5837D
:10240000E02AF508A3E03BF509780812189E7A4007
:102410007B427C0F7D0012225874021216318A080A
:102420008B098C0A8D0B74107808121401AA08AB62
:10243000097F040217A374F11216F78A0C8B0D8C16
:102440000E8D0F740F121667E0FAA3E0FB741112E1
:102450001667E0F508A3E0F509780812189EEA244B
:1024600001F508EB3400F509E4F50AF50B780C7971
:1024700008121381750871750902780C7908121316
:1024800081AA0CAB0DAC0EAD0F12225874021216BD
:10249000318B09EA450960047A0180027A00EC2A4E
:1024A000FCED3400FD7413121667E0F8A3E0F9E8C0
:1024B000FEE9FFECF8EDF97A717B021215908808BD
:1024C00089098E828F8378081214E2ECF8EDF97A8C
:1024D000717B021215908A088B0974057808121610
:1024E000088E828F83A3A3A3A3E508F0A3E509F0D8
:1024F0007F080217A3C082C083E9906000F0D083F8
:10250000D08222C0E074F21217E3A2AFE433FED20D
:10251000AFC2C0E5D1A2E4500653D1EF1210ABEE2A
:10252000F8EEA2E092AF7F01021842C0E074F2120E
:1025300017E3A2AFE433FED2AFE58AA2E350031261
:10254000102D758A00C2EBEEF8EEA2E092AF7F018B
:10255000021842C0E0C0D0E8C0E0E9C0E0A2AFE4A9
:1025600033F8D2AFC2C7E8F9E8A2E092AFD0E0F901
:10257000D0E0F8D0D0D0E032C0E0C0D0E8C0E0E990
:10258000C0E0EAC0E0C082C083A2AFE433FAD2AFB9
:102590009009B5E0F89009B6E068700B539AFB908B
:1025A00009B77401F0802CC2E99009B5E0F8740114
:1025B000289009B5F07900743528F582740939F549
:1025C00083E0F5C19009B5E0C3948040069009B559
:1025D0007400F0EAF8EAA2E092AFD083D082D0E0B3
:1025E000FAD0E0F9D0E0F8D0D0D0E032C2AF0200AB
:0225F0000022C7
:1025F400FFFFFFFFFFFFFFFF74F012168B74F8124A
:10260400161B8A0E8B0FE9FF8C0C8D0D7E00850E38
:1026140008850F0978081218E2000410DA28442605
:1026240067268626A926CC26EF26202743275A2765
:102634008A273B285E288128AF28DA28DA28B3279E
:1026440074016F7019850C82850D83E0C394035067
:102654000D850C82850D83E0900CA1F080027E181C
:1026640002290274026F7015850C82850D83E0F8CF
:10267400A3E0F9900CA2E8F0A3E9F080027E18022E
:10268400290274016F7019850C82850D83E0C3944F
:1026940002500D850C82850D83E0900749F080027D
:1026A4007E1802290274016F7019850C82850D83CE
:1026B400E0C39405500D850C82850D83E090074A94
:1026C400F080027E1802290274016F7019850C8251
:1026D400850D83E0C39402500D850C82850D83E043
:1026E40090074BF080027E1802290274106F702745
:1026F400750810750900780812189EAC0CAD0D7A97
:102704004C7B071210D574021216318A088B098586
:10271400088285098380027E1802290274016F7081
:1027240019850C82850D83E0C39402500D850C82BB
:10273400850D83E090075CF080027E180229027404
:10274400016F700D850C82850D83E0900CA5F080DF
:10275400027E1802290274046F702690848C780813
:102764001214D3850C82850D8378081213525011EC
:10277400850C82850D8312150990075E121515804C
:10278400027E18022902EF7021120607E970131263
:102794000F73E9F509795012121FE9F508120F6158
:1027A400800A9007F17401F080027E1802290274F5
:1027B400076F707E750806750900780812189E85E3
:1027C4000C82850D83A3AC82AD8374041216791236
:1027D40010DB7402121631851882851983EAF0A37E
:1027E400EBF07C007D007402121679850C82850D55
:1027F40083E0F9120F07E9F50AE50AC3940A502E9B
:10280400120607E97015A90A120F79E9F50979503A
:1028140012121FE9F508120F618019A80A790074D1
:10282400F228F582740739F5837401F080067E027C
:1028340080027E1802290274016F7019850C82854A
:102844000D83E0C39402500D850C82850D83E090C6
:10285400075DF080027E1802290274016F701985E9
:102864000C82850D83E0C3940A500D850C82850D7E
:1028740083E0900CA4F080027E1802290274016F98
:102884007025850C82850D83E0C394074019850C5F
:1028940082850D83E0C39411500D850C82850D83D0
:1028A400E0900CA6F080577E18805374016F70225C
:1028B4009007F0E0F508850C82850D83E09007F021
:1028C400F0E50870399007F0E064017031120F618F
:1028D400802C7E188028C3E50E9427E50F940050C1
:1028E4001B74026F7016850C82850D83E0FCA3E0D7
:1028F400FDAA0EAB0F1204A5E9FE80027E02EEF9DA
:1029040074081216317F0802175D74F012168B7466
:10291400D712161BE9C0E0851882851983D0E0F030
:102924007401121667EAF0A3EBF08C0E8D0F9084FD
:102934005E7403121681740612152E740312168126
:102944007401121667E0FAA3E0FB851882851983E7
:10295400E0F9120F07E9FEEEC3940A4003022A9D30
:10296400EEF9120F43E9FF900CA1E06402700474C5
:102974000180027400F50878081218A2743A12163D
:1029840067E0FDEFFCEEF9AA0EAB0F120FB5740170
:102994001216317C147D0079007415121679121008
:1029A400ED8A088B0985080A85090B7415121681AE
:1029B4007A1075F006EEA42424F9121219E9703C79
:1029C4007C1079FF741512167912114DE9702D746B
:1029D40025121667AC82AD837A0475F006EEA42442
:1029E40025F9121219E9F5087415121681EFA2E0FF
:1029F400E433F9AA0EAB0F12052FE9F87409121685
:102A0400817A0C74702EF9121219E9707974091212
:102A14001679120F37750800E508C394045067A8A7
:102A2400087900E875F003A4C8AAF075F000A42A98
:102A3400FA75F003E9A42AF97409121667E58228E5
:102A4400F50CE58339F50D850C82850D83E0F8A33B
:102A5400E0F9E849602C850C82850D83A3A3E0F599
:102A64000A750B00780A12189E850C82850D83E086
:102A7400FCA3E0FDAA0EAB0F12078D7402121631EF
:102A8400E9F805088092EFA2E1500E900748E0F9BA
:102A9400AA0EAB0F120793E9F87439121667E064B3
:102AA40004700F900CA1E064027007AA0EAB0F1221
:102AB4000FAF790074291216317F0802175D74F282
:102AC40012168B890B8A088B09ECFEEDFF750A0A36
:102AD400E50B600B14600814604114605F807DAAEC
:102AE40008AB09120F55E9F50AE50AC3940A506CBC
:102AF400EE4F6068750C06750D00780C12189EACCC
:102B040008AD09EEFAEFFB1210D574021216318AE1
:102B14000C8B0D850C82850D838041AA08AB0912AC
:102B24000F4FE9F50AE50AC3940A5030EE4F602CC2
:102B3400EEFAEFFBA90A120F49E98020AA08AB09B3
:102B4400120F5BE9F50AE50AC3940A500FEE4F60D1
:102B54000BEEFAEFFBA90A120F49E9F8A90A7F065E
:102B640002175D74F212168B8A0C8B0DE9FF7E1529
:102B740074FF650C700474FF650D702A750800E518
:102B840008C3940A5014EFFC7A027B00A908120FC0
:102B940025E960027E00050880E5EF60627A9D7B8E
:102BA4000F12098B8059AA0CAB0D12096D8A088B80
:102BB4000985080A85090BE50A450B60407C007D00
:102BC40000E50A2405FAE4350BFB850A82850B83AC
:102BD400A3A3A3A3E0F9120F07E9F508E508C3943A
:102BE4000A500EEFFC7A027B00A908120F25E97E39
:102BF40000EF600BAA0AAB0B120F9D80027E14EE4D
:102C0400F97F0602175D74F012168B74FE12161B00
:102C1400851882851983EAF0A3EBF08C0A8D0B7476
:102C240012121667E0F50EA3E0F50F7E15851882E3
:102C3400851983E064FF7004A3E064FF701D7F00C6
:102C4400EFC3940A506BAC0EAD0FAA0AAB0BEFF9AD
:102C5400120F2BE960027E000F80E585188285192A
:102C640083E0FAA3E0FB12096D8A0C8B0D850C0836
:102C7400850D09E508450960367C007D00E50824DA
:102C840005FAE43509FB850882850983A3A3A3A378
:102C9400E0F9120F07E9FFEFC3940A5014AC0EAD2C
:102CA4000FAA0AAB0BEFF9120F2BE97E0080027E0C
:102CB40014EEF974021216317F0802175D74F712CC
:102CC400168BEAFEEBFF900762EEF0A3EFF090079D
:102CD40048E0FC7D007A267B001204A5E9F5089003
:102CE4000748E0F912070F7F0102175D74F212160C
:102CF4008B74EC12161B8A0A8B0B850A82850B8354
:102D0400A3A3E024FA700302313824FD7003022FD8
:102D1400AC147003022DE014601024FD7003022F24
:102D240054147003022FF00231A0AE0AAF0B9007C7
:102D340062E0F8A3E0F9E8496066900762E0F8A36E
:102D4400E0F5838882E0F8A3E0F9E8496052EE24D4
:102D54000CF582E43FF583E0F50878081218A2EE3A
:102D6400240BF582E43FF583E0F98E828F83A3A3DD
:102D7400A3A3A3A3A3A3A3E0FCA3E0FDEE2403FA6F
:102D8400E43FFB900762E0F8A3E0F5838882E0F873
:102D9400A3E0F583888212168974011216318039F2
:102DA4008E828F83A3A3A3A3A3A3A3A3A31218B563
:102DB40090075E1214F11205417402121631E96093
:102DC4001879018E828F83A3A3A3A3A3A3A3A3A390
:102DD400E0FAA3E0FB12053BE90231A0AE0AAF0B17
:102DE4008E828F83A3E06003022F028E828F83A3DF
:102DF400A3A3A3A3E0A2E04003022F029007FCE0F8
:102E0400F8A3E0F9E8496003022F027C0E7D007903
:102E140000AA18AB191210ED8A088B09AA08AB098D
:102E2400EE240CF582E43FF583E0F8A3E0F9E849E9
:102E34006036750806750900780812189EEE240C91
:102E4400F582E43FF583E02410FCA3E03400FD7434
:102E5400021216791210D574021216318A088B09DF
:102E6400850882850983804F8E828F83A3A3A3E084
:102E7400FAA3E0FB12096D8A0C8B0D850C08850DF5
:102E840009E5084509602D750C06750D00780C12CE
:102E9400189EE5082405FCE43509FD740212167930
:102EA4001210D574021216318A0C8B0D850C828592
:102EB4000D8380030231A08E828F83A3A3A3A3A3D7
:102EC400E0A2E25004D2F08002C2F0A2F0E433F8AF
:102ED4007900740C121667E048F0A3E049F0EEFCA8
:102EE400EFFDAA18AB19120F3DE970127A027B00AC
:102EF400900748E0F9121129E979000231A29007FC
:102F040062E0F8A3E0F9E8496043900762E0F8A3BF
:102F1400E0F5838882A3A3E0F8A3E0F9E849602DF3
:102F24008E828F83A3E0FC79018E828F83A3A3A377
:102F3400E0FAA3E0FB900762E0F8A3E0F58388825F
:102F4400A3A3E0F8A3E0F58388821216890231A0D6
:102F5400AE0AAF0B900762E0F8A3E0F9E8496045D8
:102F6400900762E0F8A3E0F5838882A3A3E0F8A3C6
:102F7400E0F9E849602F850A82850B83A3E0FC7998
:102F8400028E828F83A3A3A3E0FAA3E0FB900762DF
:102F9400E0F8A3E0F5838882A3A3E0F8A3E0F58337
:102FA40088821216890231A0850A08850B097C00E3
:102FB4007D00E5082404FAE43509FB8508828509C7
:102FC40083A3A3A3E0F9120F07E9FEEEC3940A500A
:102FD40018E508240AFCE43509FD7A0475F006EEC8
:102FE400A42425F9121213E9F80231A0AE0AAF0B9A
:102FF40090075DE06019900CA4E0F98E828F83A3A2
:10300400A3A3E0FAA3E0FB12053BE9F80231A09088
:103014000CA1E0701679058E828F83A3A3A3E0FA36
:10302400A3E0FB12053BE9F80231A08E828F83A353
:10303400A3A3E0FAA3E0FB12096D8A0C8B0D850CA7
:1030440008850D098E828F83A3A3A3A3A3A3A3E062
:10305400A2E05072E5084509606985088285098304
:10306400A3A3A3A3E0605F8E828F83A3A3A3A3A3E0
:10307400A3A3A3A3E0F8A3E0F9E8C4540FF87900EC
:10308400E85401F8E95400F9E8A2E04039740E125A
:103094001681E5082405FAE43509FB8508828509CB
:1030A40083A3A3A3A3E0F9120F07E9701979038E90
:1030B400828F83A3A3A3E0FAA3E0FB12053BE9F804
:1030C4000231A00231A0EE2405FCE43FFD85088214
:1030D400850983A3A3A3A3E0F98E828F83A3A3A36B
:1030E400E0FAA3E0FB120FA9900762E0F8A3E0F96D
:1030F400E849603E900762E0F8A3E0F5838882A384
:10310400A3E0F8A3E0F9E84960287C0079008E8206
:103114008F83A3A3A3E0FAA3E0FB900762E0F8A3E4
:10312400E0F5838882A3A3E0F8A3E0F58388821204
:1031340016898068120607E970629007F1E064015D
:10314400701A120F73E9FE9007F17400F07C0A7D87
:103154000079007AF27B071210ED80367E00EEC310
:10316400940A502EEEF8790074F228F58274073927
:10317400F583E064017018EEF9120F79E9FAEEF8BC
:10318400790074F228F582740739F5837400F00E1F
:1031940080CC795012121FE9FE120F617901741468
:1031A4001216317F0602175D74F512168B74F21233
:1031B400161B8908EAFEEBFF8C09AC18AD197A0ED0
:1031C40075F006E508A42420F9121219E9705F7C51
:1031D4000679FFAA18AB1912114DE97051740C123B
:1031E4001667E0F8A3E0F9E8F50AE5096005EE42A0
:1031F4000A8004EEF4520AA80A7900740C121667C5
:10320400E0687003A3E0696021A80A7900740C12D5
:103214001667E8F0A3E9F0AC18AD197A0E75F0065C
:10322400E508A42420F9121213E979018002790037
:10323400740E1216317F0302175D74F012168B742C
:10324400E612161B89098A0E8B0FECFEEDFF740C37
:103254001216817A0E75F006E509A42420F91212DB
:1032640019E9600302336E7C0679FF740C12167937
:1032740012114DE9600302336EAC18AD197A0C7467
:10328400702509F9121219E9600302336A750800FE
:10329400AA18AB19120F37E50E450F702E7C0C7966
:1032A40000AA18AB1912114DE960030233507C0CCB
:1032B4007D007900AA18AB191210ED8A0A8B0B85D0
:1032C4000A82850B83750801023350AC18AD19AA24
:1032D4000EAB0F120F318A0C8B0D850C0A850D0B6A
:1032E400E50A450B7030EE4F601BAC18AD197A003F
:1032F4007B00120F318A0C8B0DA80CA90D880A894A
:103304000BE849700479008063850A82850B83E5A4
:103314000EF0A3E50FF0850A82850B83A3A3E0F8E2
:103324007900EE687002EF696022EEC0E0850A82DF
:10333400850B83A3A3D0E0F0EE4F700D850A828540
:103344000B837400F0A37400F0750801E50860169F
:10335400AA18AB19120F37AC18AD197A0C74702572
:1033640009F9121213E9790180027900741A12160C
:10337400317F0802175D74F712168BEAFEEBFF7AB1
:1033840000EAC39404504EEAF87900E875F003A407
:10339400C8ABF075F000A42BFB75F003E9A42BF97E
:1033A400EC28F582ED39F583E06E7003A3E06F70CD
:1033B40021EAF87900E875F003A4C8AAF075F000D2
:1033C400A42AFA75F003E9A42AF9EC28FAED39FBEA
:1033D40080070A80AC7A007B007F0102175D74F7D6
:1033E40012168B7C00ECC394044003023491ECF875
:1033F4007900E875F003A4C8ADF075F000A42DFDC4
:1034040075F003E9A42DF9EA28F582EB39F583E098
:10341400F4FEA3E0F4FFECF87900E875F003A4C827
:10342400ADF075F000A42DFD75F003E9A42DF9EAC3
:1034340028F582EB39F583EEF0A3EFF0ECF8790090
:10344400E875F003A4C8ADF075F000A42DFD75F087
:1034540003E9A42DF9EA28F582EB39F583A3A3E067
:10346400F4C0E0ECF87900E875F003A4C8ADF07599
:10347400F000A42DFD75F003E9A42DF9EA28F582E6
:10348400EB39F583A3A3D0E0F00C0233E97F01020A
:10349400175D74F012168B74F412161BEAFEEBFF20
:1034A4008C088D099007FCE0F8A3E0F9E849702C3A
:1034B400EE4F6006E508450970057901023742EED2
:1034C400FAEFFB120F55E9900CA7F0900CA7E0C39C
:1034D400940A4008120F67E9900CA7F0900CA7E03B
:1034E400C3940A40030237409007FCE0F8A3E0F9D4
:1034F400E849600302358CEEFCEFFD7A0E75F006A8
:10350400900CA7E0A42420F9121213E9F50B7C0C0B
:103514007D0079FFAA18AB191210ED8A0C8B0D856A
:103524000C0E850D0FAC18AD197A0C900CA7E02485
:1035340070F9121213E9F50A750C0E750D00780C6A
:1035440012189EEEFCEFFD900CA7E0F87900E875E8
:10355400F00EA4C8AAF075F000A42AFA75F00EE9DA
:10356400A42AF9746428FA740739FB1210D574027A
:103574001216318A0C8B0DA80CA90D9007FCE508D6
:10358400F0A3E509F002373C9007FCE0F8A3E0C89B
:103594002406F582C83400F583E0F8A3E0F9E8498D
:1035A40060439007FCE0F8A3E0C82406F582C83421
:1035B40000F583E0FCA3E0FD7A1B75F006900CA7F0
:1035C400E0A42421F9121213E9F89007FCE0F9A30E
:1035D400E0C92406F582C93400F5837400F0A374AD
:1035E40000F002373C9007FCE0F8A3E0C8240AF599
:1035F40082C83400F583E0F8A3E0F9E84960439019
:1036040007FCE0F8A3E0C8240AF582C83400F58377
:10361400E0FCA3E0FD7A1B75F006900CA7E0A4245F
:1036240022F9121213E9F89007FCE0F9A3E0C92487
:103634000AF582C93400F5837400F0A37400F00223
:10364400373C9007FCE0F8A3E0C8240CF582C834AA
:1036540000F583E0F8A3E0F9E84960439007FCE053
:10366400F8A3E0C8240CF582C83400F583E0FCA379
:10367400E0FD7A1075F006900CA7E0A42423F9125B
:103684001213E9F89007FCE0F9A3E0C9240CF582D1
:10369400C93400F5837400F0A37400F002373C9041
:1036A40007FCE0F8A3E0C82408F582C83400F583D9
:1036B400E0F8A3E0F9E849606F9007FCE0F8A3E0C4
:1036C400C82408F582C83400F583E0FCA3E0FD7A41
:1036D4001075F006900CA7E0A42424F9121213E943
:1036E400F50A9007FCE0F8A3E0C82408F582C83482
:1036F40000F583E02410FCA3E03400FD7A0475F0A7
:1037040006900CA7E0A42425F9121213E9F89007F7
:10371400FCE0F9A3E0C92408F582C93400F58374F8
:1037240000F0A37400F080109007F0E06003120F23
:10373400BB120FA379018006790080027901740C11
:103744001216317F0802175D74F712168B74F21289
:10375400161BE9FEAC18AD197A0E75F006EEA4241A
:1037640020F9121219E9700E740C121667E0F8A30E
:10377400E0F9E8F980027900740E1216317F010233
:10378400175D74F412168B74F212161B8909EAFE83
:10379400EBFFE509C3940A5004EE4F7004790280EC
:1037A40041AC18AD197A0E75F006E509A42420F988
:1037B400121219E9F508E5087026750A06750B005A
:1037C400780A12189E7402121681EEFAEFFB121098
:1037D400D574021216318A0A8B0B850A82850B83F3
:1037E400A908740E1216317F0402175D74F41216C0
:1037F4008BEAFEEBFF750800E508C3940A50437595
:103804000A06750B00780A12189EEEFCEFFDA80854
:103814007900E875F00EA4C8AAF075F000A42AFA9D
:1038240075F00EE9A42AF9746A28FA740739FB12B0
:1038340010E77402121631E96004A908800605082D
:1038440080B6790A7F0402175D74F412168BEAFEBF
:10385400EBFF750800E508C3940A5043750A067522
:103864000B00780A12189EEEFCEFFDA8087900E818
:1038740075F00EA4C8AAF075F000A42AFA75F00E2B
:10388400E9A42AF9746428FA740739FB1210E7745E
:1038940002121631E96004A9088006050880B67989
:1038A4000A7F0402175D74F712168B74F012161B4C
:1038B400EAFEEBFF750800E508C3940A5039AC181A
:1038C400AD197A1075F006E508A42423F91212192B
:1038D400E970207C1079FFAA18AB1912114DE97018
:1038E40012EEFCEFFDAA18AB19120511E97004A938
:1038F400088006050880C0790A74101216317F0109
:1039040002175D74F412168B750800E508C3940A57
:1039140040030239E1A8087900E875F00EA4C8AAAA
:10392400F075F000A42AFA75F00EE9A42AF974647B
:1039340028FC740739FD7A0E75F006E508A42420E6
:10394400F9121219E970030239DC7C067D0079FF53
:10395400AA087B00EA75F00EA4CAA8F075F000A4CA
:1039640028F875F00EEBA428FB74642AFA74073B5C
:10397400FB1210ED8A0A8B0BAE0AAF0B7C067D009E
:1039840079FFAA087B00EA75F00EA4CAA8F075F0C6
:1039940000A428F875F00EEBA428FB746A2AFA74C4
:1039A400073BFB1210ED8A0A8B0BAC0AAD0BA8087F
:1039B4007900E875F00EA4C8AAF075F000A42AFAFC
:1039C40075F00EE9A42AF9747028F582740739F5A4
:1039D400837400F0A37400F0050802390F9007F017
:1039E400E06003120FBB120FA37F0402175D74F78C
:1039F40012168B7E00EEC3940A50327C0679FFEED9
:103A0400FA7B00EA75F00EA4CAA8F075F000A428A9
:103A1400F875F00EEBA428FB74642AFA74073BFBD8
:103A240012114DE96004EEF980050E80C8790A7F11
:103A34000102175D74F712168B7E007F00EFC394AA
:103A44000A50357C0679FFC9FDC9EFF87900E8759D
:103A5400F00EA4C8AAF075F000A42AFA75F00EE9D5
:103A6400A42AF9746428FA740739FBCDF9CD12112C
:103A74004DE970010E0F80C5EEF97F0102175D74E8
:103A8400F712168B7E007F00EFC3940A500DEE7080
:103A94000AEFF9120F79E9FE0F80EDEEF97F0102CA
:103AA400175D74F012168B74C912161BE9FE900C84
:103AB400A7E06E701D7A017B00900748E0F91211AF
:103AC4002FE97A027B00900748E0F912112FE912DE
:103AD4000FC774291216817A0E75F006EEA42420FD
:103AE400F9121219E96003023BDA7C0679FF7429A2
:103AF40012167912114DE96003023BDA7C0E7D0047
:103B040079FF74291216791210ED851882851983AC
:103B1400EAF0A3EBF07C1B7D0079FF740E1216799A
:103B24001210ED8A0A8B0B850A0E850B0F7C0C7D17
:103B34000079FF74021216791210ED8A0C8B0D8530
:103B44000C0A850D0B74291216817A0E75F006EE97
:103B5400A42420F9121213E9F508740E1216817ABE
:103B64001B75F006EEA42421F9121213E94208741D
:103B74000E1216817A1B75F006EEA42422F9121295
:103B840013E94208740E1216817A1075F006EEA439
:103B94002423F9121213E94208740E1216817A10C2
:103BA40075F006EEA42424F9121213E94208740EE7
:103BB4001216817A0475F006EEA42425F912121364
:103BC400E9420874021216817A0C74702EF91212EA
:103BD40013E942088003750800A9087437121631E6
:103BE4007F0802175D74F712168BE9FEEE90074802
:103BF400F0120F617F0102175D74F212168B890AAD
:103C0400EAFEEBFFEE5400F8EF5480F9E849603522
:103C1400900748E0F91211118A0C8B0DA80CA90D1C
:103C240088088909E8496012AA08AB09120F8BE9D0
:103C34006008AA08AB091210FFE9EE6400FAEF6409
:103C440080FB023D01EE5402602D7C007D007A0071
:103C54007B00120F3DE960187A017B00900748E071
:103C6400F9121129E9EE6402FAEF6400FB023D0146
:103C74007A027B00023D01EEA2E0507D9007FCE059
:103C8400F8A3E0F5838882A3A3A3E0FAA3E0FB12E0
:103C94000FC1E9605E900762E0F8A3E0F9E84960CB
:103CA40045900762E0F8A3E0F5838882A3A3E0F8D7
:103CB400A3E0F9E849602F7C0079019007FCE0F863
:103CC400A3E0F5838882A3A3A3E0FAA3E0FB900713
:103CD40062E0F8A3E0F5838882A3A3E0F8A3E0F50B
:103CE400838882121689120FC7EE6401FAEF64000A
:103CF400FB800A7A017B0080047A007B007F060245
:103D0400175D74F712168BEAFEEBFF7508018E82BD
:103D14008F83E02450601314601924E1701CEEFAC0
:103D2400EFFB120F1FE9F5088010EEFAEFFB120FFC
:103D3400918007EEFAEFFB120F97A9087F01021793
:103D44005D74F712168BEAFEEBFF8E828F83A3A3BA
:103D5400A3A3E0641E701179008E828F83A3A3E075
:103D6400FAA3E0FB120F0DE97F0102175D74F6124E
:103D7400168B8A088B09850882850983A3A3A3A3CC
:103D8400E07034AE08AF098E828F83A3A3A3A3A3EC
:103D9400A3A31218B58E828F83A3A3A3A3A3E0FCCD
:103DA400A3E0FD8E828F83A3A3E0FAA3E0FB120FAE
:103DB400137402121631E97F0202175D74F71216AA
:103DC4008BEAFEEBFF900748E0F98E828F83A3E035
:103DD400FAA3E0FB120793E97F0102175DC082C0DA
:103DE4008374FF12161B120F6DE9C39402400B85F6
:103DF40018828519837402F08009851882851983D5
:103E0400740AF0AC18AD197A01790512061FE97429
:103E140001121631D083D08202011F74F212168B64
:103E240074E812161B8A088B09E9FE8C0A8D0B7C38
:103E3400187D007900AA18AB191210ED8A0C8B0DAD
:103E4400AC0CAD0D851882851983E508F0A3E5094E
:103E5400F090074AE0C0E07402121667D0E0F090D8
:103E6400074BE0C0E07403121667D0E0F0900CA694
:103E7400E0C0E07417121667D0E0F07415121667EC
:103E8400E054FEFAA3E054FFFB900CA5E0A2E0E4AA
:103E940033F87900EA48F8EB49F97415121667E823
:103EA400F0A3E9F0900CA5E0A2E15004D2F0800266
:103EB400C2F07415121667E054FDFAA3E054FFFB38
:103EC400A2F0E433F87900E828F8E933F9EA48F88D
:103ED400EB49F97415121667E8F0A3E9F0900CA504
:103EE400E0A2E35004D2F08002C2F0741512166707
:103EF400E054F7FAA3E054FFFBA2F0E433F50C75A9
:103F04000D007403780C121608EA450CF8EB450D05
:103F1400F97415121667E8F0A3E9F0900CA5E0A275
:103F2400E45004D2F08002C2F07415121667E05413
:103F3400EFFAA3E054FFFBA2F0E433F50C750D0097
:103F44007404780C121608EA450CF8EB450DF97464
:103F540015121667E8F0A3E9F0900CA5E0A2E5506D
:103F640004D2F08002C2F07415121667E054DFFA2E
:103F7400A3E054FFFBA2F0E433F50C750D007405C7
:103F8400780C121608EA450CF8EB450DF974151275
:103F94001667E8F0A3E9F0900CA5E0A2E25004D281
:103FA400F08002C2F07415121667E054FBFAA3E025
:103FB40054FFFBA2F0E433F50C750D007402780C89
:103FC400121608EA450CF8EB450DF974151216673C
:103FD400E8F0A3E9F090074BE0602A750C10750D2A
:103FE40000780C12189E7C4C7D077406121667AA82
:103FF40082AB831210D574021216318A0C8B0D8594
:104004000C82850D8390075CE06011EE600E7415E0
:10401400121667E04402F0A3E04400F090075CE06D
:10402400600678017900800478007900741412160F
:1040340067E048F0900749E060067804790080045E
:10404400780079007414121667E048F0AC0AAD0BDE
:10405400AA18AB19120535E974181216317F060235
:10406400175D74F712168BEAFEEBFF7508009007D4
:104074005CE0600678017900800478007900E84209
:1040840008900749E0600678047900800478007994
:1040940000E84208A908EEFAEFFB1205EFE97F01F8
:1040A40002175D74F212168B74E312161B8A0C8BC2
:1040B4000DE9FF8C0A8D09742B121667E0F508745C
:1040C400086509700A75F006EFA42422FE800875BD
:1040D400F006EFA42421FE7C1B7D007900740212FB
:1040E40016791210ED851882851983EAF0A3EBF096
:1040F40074021216817A1BEEF9121219E9703874DF
:104104001C121667E0C39407402D741C121667E056
:10411400C394115022E508F50B780B1218A274030E
:10412400121681E50AA2E0E433F9AA0CAB0D1205DC
:10413400477401121631E9741D1216317F060217F5
:104144005D74F712168B120805E97E00EEC3940A1B
:10415400505C7C0679FFC9FDC9EEF87900E875F07A
:104164000EA4C8AAF075F000A42AFA75F00EE9A40A
:104174002AF9746428FA740739FBCDF9CD12114D6C
:10418400E97028EEF87900E875F00EA4C8AAF07575
:10419400F000A42AFA75F00EE9A42AF9746428FA46
:1041A400740739FB790012080BE9F80E809E7F0131
:1041B40002175D74F612168B74FD12161BEAFEEBE1
:1041C400FF9007FEE0F8A3E0F9E8497039750800AC
:1041D400750908780812189E750802750900780890
:1041E40012189E7508D4750984780812189E7CFFED
:1041F4007DFF7A017B001206617406121631900766
:10420400FEEAF0A3EBF09007FEE0F8A3E0F9E8493A
:1042140070030242D4E4F508F509780812189E7474
:104224000412167188088909780812189E740412F9
:10423400167188088909780812189E9008001218C7
:10424400B579029007FEE0FCA3E0FDEEFAEFFB1265
:1042540007817408121631E9704A8518828519831A
:10426400E0FA7B007401121667E0F87900E4C8F9FB
:10427400EA28F508EB39F509E508450960267808C8
:1042840012189E9007FEE0F8A3E0F5838882A3A3AA
:10429400A3A3E0FCA3E0FDEEFAEFFB120F137402FC
:1042A400121631E9E4F508F509780812189E900809
:1042B400001218B57CFF7DFF9007FEE0FAA3E0FB37
:1042C40012066D74041216319007FEEAF0A3EBF0A7
:1042D4009007FEE0F8A3E0F9E84970047901800250
:1042E400790074031216317F0202175DC082C08305
:1042F4009007FCE0F8A3E0F9E84960179007FCE0B8
:10430400FAA3E0FB1210FFE9F89007FC7400F0A395
:104314007400F0900CA7740AF0D083D08202011FBD
:10432400C082C083E9900BB7F002454E74F71216B1
:104334008BE99002E1F07C197D037AFF7BFF120781
:10434400999002E274FFF0A3F0A3E4F0A3F07905DE
:104354001207279002E1E0F91206497AB17B0712AD
:10436400095B7F0102175D74F412168B8A088B09AE
:10437400EB548060309002E1E0F91211118A0A8B4B
:104384000BAE0AAF0BEE4F60138E828F83E064B0E6
:104394007003120739EEFAEFFB1210FFAA08E509C1
:1043A4006480FB80047A007B0002451D74F21216BF
:1043B4008B74FC12161BEAFEEBFFEE4F603874029E
:1043C400121667EEF0A3EF124782ECF0A3ED12474A
:1043D40082AA82AB83120643E9F508707374121241
:1043E4001667125336E50A450B60658E828F831279
:1043F400445EEE4F700575080280557A067B001204
:10440400119B8A0C8B0DA80CA90DE8497005750841
:1044140013803D88828983E4124468A3A3EEF0A349
:10442400EF1257CFE50AF0A3E50BF09002E7124430
:10443400F09002E76017E0FCA3E08003EAFCEBFDE8
:104444008C828D831244F070F38C828D8312525BC4
:10445400A90874041216310259D1A3A3A3A3E0FE40
:10446400A3E0FF22F0A3F0888289832274F212165B
:104474008B890AE975F017A4FEAFF09002E6E4F028
:104484009002E41244F0600A1211A19002E4E4F0F4
:10449400A3F0EEFAEFFB12119B8A088B09EA450997
:1044A400602FEEFCEFFD79001210ED9002E4E508B8
:1044B400F0A3E509F07B0080081244DAE4F0A3F0ED
:1044C4000BEBC3950A40F2E50A9002E6F07900800E
:1044D4000279130259D1EB75F017A4F8A9F09002F0
:1044E400E4E028FAA3E0398A82F58322124FF1EA44
:1044F4004B2274F412168B7900EAA2E0501B750863
:1045040064750984780812189E7C047D007AB97B4E
:104514000B12072174021216317F0402175DC08248
:10452400C0839002E7124555601C88828983A3A347
:10453400E06A7003A3E06B8882898370E8A3A3A375
:10454400A3124FED80047A007B00D083D082020155
:104554001F125AA4E8492274EE12168B74FC121628
:104564001BEAFEEBFF851882851983E4F0A3F0EEC5
:10457400240212523FEE2405124770EE2404F50E75
:10458400EF124B55E024FE603924FC604624FE60A3
:104594005224FE605E24FE700302467524FE7003FE
:1045A4000246ED24FE70030246FC24FE700302471B
:1045B4000B24FC700302471A24FE700302472902ED
:1045C40047669003007417F0A3E412478A1203C1EC
:1045D400024766851882851983AC82AD8312073F32
:1045E400024736851882851983AC82AD831207454C
:1045F400024736850C08850D097402121667AC82D1
:10460400AD83850882850983124FED1206678A0CF3
:104614008B0DAC0CAD0DEC4D6042E4F50CF50D7852
:104624000C12189E750C00750D03780C12189E75EB
:104634000C01750D03780C12189E7408121667127B
:1046440018B57916124FE71207817408121631E96A
:10465400F50C700B124FE31203D9800F750C018512
:10466400088285098312477812525B850C08024739
:10467400397402121667AC82AD83850C82850D8372
:10468400124FED1206678A108B11AC10AD11EC4D70
:104694006043850C82850D83A3A31218B5751000A1
:1046A400751103781012189E751001751103781096
:1046B40012189E74081216671218B57916124FE76D
:1046C4001207817408121631E9F509700B124FE3D1
:1046D4001203DF800F750901850C82850D83124753
:1046E4007812525B850908804C851882851983AC41
:1046F40082AD8312074B803A851882851983AC8278
:10470400AD83120751802B851882851983AC82AD45
:1047140083120757801C851882851983AC82AD8368
:1047240012075D800D851882851983AC82AD8312D2
:104734000763E9F508E50860298E828F83A3E064A6
:1047440014601F850E82850F83E090030012478258
:10475400125AA090030112525BE508A312478A1271
:1047640003BBEEFAEFFB1206E5025147F50CEF34FA
:1047740000F50D22125AA485188285198322F0852A
:10478400188285198322F07C007D03850A82850BBB
:1047940083124FF12274EE12168B74FC12161B8ACC
:1047A4000A8B0B8C0E8D0FEA2405F508EB3400F50B
:1047B400097C157D0079007A007B031210EDE50871
:1047C4002402F50CE509124773851882851983853F
:1047D4008210858311781012189E850882850983BA
:1047E400A3A3A3A3124C9D12189EE5082405F5105B
:1047F400E5093400F511781012189E850C82850D98
:1048040083124FF712066174061216318A108B1147
:10481400AE10AF11E50A2402F50AE50B125242EE7E
:104824004F700302495F80177402121667124FED2E
:1048340088828983EAF0A3EBF0900300E004F0900F
:104844000300E0C39405400302495FE4F510F51149
:10485400781012189E7510E9751102781012189EBE
:104864007510EA751102781012189E7406121667F4
:104874001218B57910EEFCEFFD124FE712078174A0
:1048840008121631E9705E850882850983A3A3A303
:10489400A3A3A3A3E0F89002E9E0687048124C9D3A
:1048A40012189E7CEA7D02E5082408FAE509340022
:1048B400FB1210E77402121631E960298E828F838D
:1048C400A3A3A3A3124FED900300E0F510740278A4
:1048D4001012160874012510F58274033511F5833E
:1048E400EAF0A3EBF0740212166785821085831137
:1048F400781012189E74021216671218B5850C826D
:10490400850D83125AB512066D74041216318A107D
:104914008B11AE10AF11900300E0F5107511007407
:1049240002781012160874002510F874033511F972
:1049340088828983A31244F07003024823E8240385
:10494400F8E93400F9EE4F600302482C8882898329
:1049540074FFF0A3F0900300E004F0900300E06023
:104964000A124FE31203CD7900800B850882850972
:1049740083125252790A02514774EA12168B74FE5A
:1049840012161B8C128D13EA2405F50CEB125ABF78
:10499400124462750800750900EA2402F510EB342C
:1049A40000F51185188285198385820A85830B7821
:1049B4000A12189E850C82850D83A3A3A3A3124B10
:1049C4005F12189EE50C2405F50AE50D1252427893
:1049D4000A12189E850C82850D83125AB312066141
:1049E40074061216318A0A8B0BEA450B7003024BCC
:1049F40010EA2404F50EEB124B551244628A828BA2
:104A040083A3A3A3E0F9851082851183124FED12CD
:104A1400064FE9F5096003024B10E4F514F5157827
:104A24001412189E7514E9751502781412189E75DF
:104A340014EA751502781412189E74061216671279
:104A440018B57913AC0AAD0B851082851183124F0A
:104A5400ED1207817408121631E9F5096003024B5F
:104A6400109002E9E0F8E5087009E02402900301DF
:104A7400F08017900301E0FCE82402FAE43400FB20
:104A8400EA6C7001EB6003024B14850882AA82125F
:104A94004C949414124C8C5073850E82850F83E0D1
:104AA400C0E074022A124B4CD0E0F00508850E8257
:104AB400850F83A3E0C0E085080A7402250A124B1F
:104AC4004CD0E0F005089002E9124B5F12189E7C6E
:104AD400EA7D0285080A7402250AFA74033400FB8D
:104AE4001210D574021216319002E9E02508F50877
:104AF40074FF6E700374FF6F6012EE24010EEF34C6
:104B040000FFE508C3941450030249A7E5086013A5
:104B1400124ED8851082851183124FED1203D3797A
:104B2400008014E509700375090A851282851383D0
:104B3400EEF0A3EFF0A90974021216317F0E0217EA
:104B44005D85080C7402250CF58274033400F5832A
:104B5400223400F50F850E82F583221257E2227467
:104B6400EE12168B74FE12161B8C0E8D0FEA2405A2
:104B7400F50CEB124773750B00900300E4F0F50A93
:104B8400EA2402F508EB3400F5098049900300E0BB
:104B9400FA9002E9E0F8124C949417124C8C400DF0
:104BA400900300E0F87416C3989002E9F0124C9D4B
:104BB40012189E7CEA7D0274012AFA74033400FB05
:104BC4001210D574021216319002E9E0F890030035
:104BD400E028F0050AE50C2416F582E50D124B5089
:104BE400E0F8E50AC3984003024C75900300E0C363
:104BF4009416507DE50AC333F8E433F9E50C28FE36
:104C0400E50D39FF851882851983AC82AD838E82C8
:104C14008F83124FED1206678A108B11AC10AD1101
:104C2400EC4D7005750B018043E4F510F511781017
:104C340012189E7510E9751102781012189E7510DD
:104C4400EA751102781012189E740612166712186B
:104C5400B57916850882850983124FED1207817490
:104C640008121631E9F50B7003024B9012524E8074
:104C7400107C007D03850882850983124FED1203A1
:104C8400E5A90B7402025149E99400C365D03322AB
:104C9400EA28F8E43400F9E822E0F5107511007808
:104CA400102274EA12168B74FC12161B8A0C8B0DDC
:104CB4008C128D13EA2405F50AEB12524275080092
:104CC400750900E50A2402F510E50B3400F51174AA
:104CD4000212166785820E85830F780E12189E8540
:104CE4000A82850B83A3A3A3A312578E12189EE5F1
:104CF4000A2405F50EE50B3400F50F780E12189E04
:104D0400851082851183125248124FE7120661748E
:104D1400061216318A0E8B0FAE0EAF0FE50C24026D
:104D2400F50EE50D3400F50F80408882898374FF09
:104D3400F00508124B4574FFF005089002E9E0F510
:104D44000C750D00780C12189E7CEA7D0285080C07
:104D54007402250CFA74033400FB1210D574021289
:104D640016319002E9E02508F508EE4F60718E8255
:104D74008F83A3A3A3E0F9850E82850F83124FEDE1
:104D840012064FE9F509EE2404124770E97044E471
:104D9400F514F515781412189E7514E97515027832
:104DA4001412189E7514EA751502781412189E745C
:104DB400081216671218B57911EEFCEFFD850E8204
:104DC400850F83124FED1207817408121631E9F52D
:104DD400096027850C82850D83124ECE12525BE545
:104DE400087003024EB4124ED8850E82850F8312CA
:104DF4004FED1203EB7900024EC9850882AA82EABC
:104E04009002E97009E02404900301F08022E0F8A4
:104E1400900301E0F514E82404FCE43400FDEC659F
:104E2400147001ED70C0124C949412124C8C50B654
:104E3400850C82850D83E0C0E074022A124B4CD0AD
:104E4400E0F00508850C82850D83A3E0C0E0124BD9
:104E540045D0E0124EEA85820C85830D780C121839
:104E64009E74041216671218B58510828511831278
:104E74005AB512066D74041216318A0C8B0DAE0CE1
:104E8400AF0D85080C7402250CF874033400F9EE98
:104E94004F7003024D2E851882851983E08882891C
:104EA40083124EEAA3E0C0E0124B45D0E0024D3C31
:104EB400E509700375090A850A82850B83124ECEB3
:104EC40012525BA9097404024B3D125AA485128242
:104ED40085138322900301E0F5F0E5088490030034
:104EE400F07C007D0322F005088518828519832251
:104EF40074EC12168B74FE12161B8A088B098C0E26
:104F04008D0FEA2405FEEB3400FF85188285198392
:104F1400AC82AD838E828F83124FED1206678A0AAC
:104F24008B0BEE2418124770EA450B7003024FBE38
:104F34001251305032851882851983124FED1207B1
:104F4400758A108B11EA4511606B7912AC0AAD0BAE
:104F5400850882850983124FED851082851183129D
:104F64001689E9F50A7058E4F50AF50B780A12185F
:104F74009E8E828F83A3A3E0F50A780A12189EEE10
:104F8400240312523F780A12189E8E828F83124F86
:104F9400F71207877406121631E9F50A7021850C99
:104FA40082850D83E0701F850882850983124FED89
:104FB4001203F18011750A0E8009750A018004E557
:104FC4000A600312524E850C82850D83E0600479D9
:104FD400008002A90A74021216317F0C02175D7C4C
:104FE400007D03850A82850B83124FF122E0FAA328
:104FF400E0FB22E0FCA3E0FD850882850983124FD3
:10500400F12274EE12168B74FE12161B8A088B0999
:105014008C0C8D0DEA2405FEEB3400FF750E008523
:105024001882851983AC82AD838E828F83124FEDF3
:105034001206678A0A8B0BEA450B700302511C1295
:1050440051305035851882851983124FED1207753A
:105054008A0E8B0FEA450F605E7912AC0AAD0B85A0
:105064000882850983124FED850E82850F831216FF
:1050740089E9F50E600302511F85088285098312B0
:105084005336AA0AFB1207698A108B11A810A911BA
:10509400E849701E7AFF7BFF1207698A108B11A8FA
:1050A40010A911E849606C88828983E50AF0A3E5B8
:1050B4000BF0750A008007750E0E805F050A9002DA
:1050C400E6E0FAE50AC39A504AE50A75F017A4FA2D
:1050D400ABF088828983A3A3E02AFAA3E03BFB8A8E
:1050E400828B83125248EC4D70D2750A17750B00EF
:1050F400780A12189EEEFCEFFD1210D574021216F7
:1051040031EEFCEFFD850882850983124FED120311
:10511400F78014750E098003750E01125A9C850CD4
:1051240082850D8312525BA90E024C87E508240286
:10513400F508E5093400F5098A828B83A3A3A3E06B
:10514400A2E52274041216317F0A02175D74EC1270
:10515400168B8C108D11EA2405F50CEB1247737530
:105164000F00EA2402F50AEB125242850A82F58303
:10517400124FED1207698A088B09EA450970030288
:105184005234750E008071850C82850D83E06401B4
:10519400704F8E828F83A3A31218B58E828F83A340
:1051A400A3A3A3E0F512751300781212189EEE243F
:1051B40005F512EF3400F513781212189E124FE71A
:1051C4001207877406121631E9F50F6014850C82F4
:1051D400850D83E4F0125A9C851082851183125246
:1051E4005B7C177D007900EEFAEFFB1210ED8E82E6
:1051F4008F83E4F0A3F0050E9002E6E0F8E50EC319
:1052040098501EE50E75F017A4F8A9F0850882855C
:105214000983A3A3125AC9125248EC4D60030251E8
:105224008B85088285098374FFF0A3F0E50F70066F
:10523400124FE71203FDA90F024FDEF50AEF340007
:10524400F50B22A3E0FCA3E0FD228E828F83125A89
:10525400A4850E82850F83E8F0A3E9F022C082C002
:10526400839002E2E06A7003A3E06B70067AE27B4B
:105274000280047A007B0002454EC082C08378001D
:105284008C828D83E06A7003A3E06B7010E875F084
:1052940003A4F8A9F0EC28FAED39FB8015088C82F8
:1052A4008D83A3A3A3E06A7003A3E06B60DF7A009D
:1052B4007B0002454E74F612168B1207338A828BDA
:1052C40083E582458370067A007B008007A3A3A34D
:1052D400A3124FED02594D74F212168BE9FE740EAF
:1052E40012166712533674101216671257AE8C8258
:1052F4008D83E064027036A3125AAAF50CA3E0F978
:10530400A80C74026870037429697021750C027505
:105314000D00780C12189E780812189E780A12183C
:105324009EEEF91207AB740612163180027901025F
:1053340059D1E0F50AA3E0F50B2274E812168B7438
:10534400FB12161BE9851882851983F08A168B17C0
:10535400ECFEEDFF751000741D121667125AA0744E
:105364001D12166712525B8E828F83A3A3A3E0A241
:10537400E4502D741D121667124FED1207758A82C0
:105384008B83E5824583700302577F790AEEFCEF35
:10539400FDAA16AB17121689E9F5106003025782AD
:1053A400741F1216671257AE742112166712533601
:1053B4007423121667E0F50EA3E0F50F8E828F8337
:1053C400E06402600302572DA3125AA08508828567
:1053D4000983A3858212858313EE240612477088FD
:1053E400828983E0FAA3E0F9EA2400F514E439F5AC
:1053F40015781412192801000028012822540700E6
:105404000228E7540328545400291E5601294956FA
:105414000229EA5503291E560429C8562D57E50EBC
:10542400450F6003025728850C82850D831257A30C
:10543400FAE9FB8A828B83E0850A82850B83125703
:10544400D912189E8A828B83A3E0FCA3E00256B291
:10545400E50E450F6003025728850A82850B837485
:1054640001F01257B6850882850983F07C007D001F
:105474008E828F83A3A3A3A3E02401FAA3E03400C4
:10548400FB120667EA4B60418A828B83E02402F8B0
:10549400850A82850B83E028F0EA2404F8EB3400C3
:1054A400F988828983E08512828513831257EB126F
:1054B40057D912189E8A828B83125247E508240317
:1054C400FAE5093400FB0256B7850A82850B83E0AE
:1054D4002404F07C047D007900AA12AB131210EDB1
:1054E400025782E50E450F60030257281257B6FE95
:1054F400A3E0FF850A82850B837404F0EE8508829D
:10550400850983F0EF851282851383F074031216E4
:1055140067AC82AD83EEFAEFFB1206678A0C8B0D43
:10552400EA450D70030255CB8A828B83A3A31244F0
:105534005E740112166785820E85830F780E121829
:105544009E74051216671218B57CFF7DFF12066D56
:1055540074041216318B0FEA450F7033850C828563
:105564000D8312578E12189E850C82850D83A3120B
:1055740018B57C027D007ACC7B84120499740412E1
:105584001631E9700A740112166774FFF0A3F08EE5
:10559400828F83E064027039750C02750D00780CFB
:1055A40012189E8E828F83125247E5082404FAE56E
:1055B400093400FB1210D57402121631850A828553
:1055C4000B83E0240280097401121667EEF0A3EF46
:1055D400F0740112166712579FF07401121667A334
:1055E400125797025722E50E450F6003025728858C
:1055F4000C82850D83125248AA16AB1712079F8599
:105604000A82850B837402F0EA850882850983F097
:10561400851282851383EB025725E50E450F60033F
:105624000257281257B6F8A3E0F9850A82850B833E
:105634007402F0E8850882850983F0E98512828581
:105644001383025725850C82850D83124FED1210AA
:10565400CFEAFC8C82A882C3950EE4950F405FE8E4
:10566400650E7002E50F70047C0080228518828527
:105674001983E0FAE50E2AFAE50F3400FBC3EA9831
:10568400EB94005003E08005E50ECCC39CFCEC8554
:105694000A82850B83F08C0A750B00780A12189E17
:1056A400850C82850D83E0250EFCA3E0350FFDAA51
:1056B40008AB091210D57402121631025782751004
:1056C40007025782E50E450F705A850C82850D83BB
:1056D400125AA0850A82850B83740712446A1257F2
:1056E4009712446AA3E0851282851383F0E82402AA
:1056F400FAE93400FB8A828B831257971257C61239
:10570400579FA31257CF1257A8F0E82405F8E9349D
:1057140000F9888289831257A8A31257EBA3A3A385
:10572400A3F0805A75100B8055741D121667124F22
:10573400ED1207338A828B83E5824583603D125ADA
:10574400A0880C890DE8450D6031780E12189E78FA
:105754000A12189E780812189E7406121667E0F949
:10576400EEFCEFFDAA16AB17850C82850D8312168D
:10577400897406121631E9F510800375100EA9100C
:1057840074051216317F1002175DE0F50E750F00D7
:10579400780E22E0850882850983221257F52212A9
:1057A4005AA4E8221257F5A3A322E0F508A3E0F5D2
:1057B4000922850C82850D83E0F8A3E0F5838882B5
:1057C400E022A3A3F08A828B83A322F088828983B8
:1057D400A3A3A3A322F08A828B831257E222E0F5CB
:1057E4000A750B00780A22F088828983A31257F580
:1057F40022E0850882850983A3A32274EE12168B06
:1058040074FE12161B8A0A8B0BECFAEDFB7414124D
:105814001667E0F510A3E0F5117416121667E0FEA2
:105824007418121667E0F50EA3E0F50F851882854B
:105834001983AC82AD831206678A0C8B0DEA450D81
:105844006049851882851983124FED1207338A82C5
:105854008B83E5824583602FA3A31257AEE50845E9
:10586400096024780E12189E781012189EEEF9AC76
:105874000CAD0DAA0AAB0B85088285098312168923
:1058840074041216318006790E80027901024C8765
:1058940074F612168B74FE12161B740C1216671211
:1058A40057A3851882851983F07401121667E9F0ED
:1058B400E4F508F509780812189E750802780812AC
:1058C400189E740412166785820885830978081265
:1058D400189E12078774061216317402121631804C
:1058E4006874F712168BEAFEEBFF89087C197D03B6
:1058F40012079FEA5402600BA908EEFAEFFB1206A6
:105904005B8002790102436674F612168B74FF6A97
:10591400700374FF6B70168C828D83125952E4F0FD
:105924008C828D83A3A3A3125952A3801812076FEC
:105934008A088B09A808A909E849600D8882898327
:1059440074FF124468A3A3E4F07F0202175D74FF9E
:10595400F0A3F08C828D83A3A32274F612168B120B
:10596400076F8A828B83E58245836006A3A3E0FAEE
:1059740080027A007B0080D174F212168B8A088B25
:1059840009ECFEEDFF740E121667E0F50A12076FBC
:105994008A0C8B0DA80CA90DE8497026EEFCEFFDCE
:1059A4007AFF7BFF12076F8A0C8B0DA80CA90DE8F8
:1059B4004970047911801688828983E508F0A3E58B
:1059C40009F088828983A3A3E50AF079007F06029F
:1059D400175D74EE12168BEAFEEBFF8C088D0989B5
:1059E4000C7414121667125AA07416121667124F0A
:1059F400ED750D00E8496003025A947402650C6069
:105A040003025A8F7412121667125AAAFCA3E0F901
:105A1400EC2400F50EE439F50FEAF4F8EBF4F9ECB4
:105A240058F8E50F59F9E849705CE5082406F8EDE3
:105A34003400F9880A890B8882F583125AB5120753
:105A44009F8A108B11E50E65107004E50F651160D7
:105A540042780E12189E850A82850B83125AB5125B
:105A640007A57402121631E9F50D7027780E121885
:105A74009E850882850983A3A3125AB31207B774BB
:105A840002121631800D750D808008750D0D80038E
:105A9400750D0BA90D02514C8E828F83125AA422CC
:105AA400E0F8A3E0F922125AA488828983E022A3B1
:105AB400A3E0FCA3E0FDEEFAEFFB223400F50D8534
:105AC4000C82F58322E028FEA3E039FF8E828F83C7
:105AD4002274F212168BEAFEEBFF890B7401650B3C
:105AE400600E7402650B706A7901120979E97062BB
:105AF400EEFAEFFB1207698A088B09EA4509604749
:105B0400750A00800B7C177D0079001210ED050AE0
:105B14009002E6E0F8E50AC3985021E50A75F0170B
:105B2400A4F8A9F0850882850983A3A3E028FAA331
