:020000040000FA
:060000000201070220EFDF
:03002B0002254764
:03003B0002256C2F
:030043000224F79D
:0300530002216225
:03007B0002251F3C
:10008300021F5BE5C754F84401F5C779012200005C
:100093000080FB120086B900030200F1E4792178A5
:1000A30008B800028004F709D8FCE479297802B87B
:1000B30000028004F709D8FCE4900281787879097A
:1000C3008002F0A3D8FCD9FA7AF87B0A900137783A
:1000D3008579038015E493A3AD82AE838A828B83F3
:1000E300F0A3AA82AB838D828E83D8E9D9E7758288
:1000F300807583FF740112011975829175830074F1
:100103000012011975D00075813F751881751902A8
:10011300759F00020096C09FF59FE473D09F22D085
:1001230083D082C09FE493C0E0740193C0E0740263
:1001330093F59F22FF0000B4000028002800283018
:1001430075A000A000A000A00000080008E001F0D6
:10015300001000100010001000100010005000509C
:1001630000500010001000D0070000000000000F36
:100173000001000500307507001000010081FF0039
:10018300000000FFB905D705BF05FF020202080200
:100193005000A0000000E80302CA84010000A78405
:1001A30002C6840100004F0B02B884010000B302B1
:1001B30002C684010000500B02B684010000C9028C
:1001C30002C684010000510B02C084010000CB026F
:1001D30002C684010000520B02CE84080000CC0248
:1001E30002C684010000530B02DA84010000540BA1
:1001F300FF0100FF2002CA84010000AA8402C68412
:10020300010000B80B02D484000000000002BA848D
:100213000300001903890B890B890B890B890B894F
:100223000B890B890B890B890B890B890B890B0BA9
:100233000E230E050E020202020202020202010D49
:10024300000000100102CA84010000AD8402C684CC
:10025300010000F90B02C284010000400702C684BA
:10026300010000FA0B02D884010000438402C68413
:10027300010000FB0B02BE84010000358402C6842A
:10028300010000FC0B02B484010000428302C68417
:10029300010000FD0B02B284010000308302C6841A
:1002A300010000FE0B02B0840100001E8302C6841D
:1002B300010000FF0B02CC840100000C8302C68402
:1002C300010000000C02D284010000278402C684CE
:1002D300010000010C02D684010000020C01E803B6
:1002E300053F100AFFFFFF000130750302010600FE
:1002F30000000000000000000000000000000000FB
:100303000000000000000000000000FFFF06008066
:100313000CE80302000102030405060708090A0B9F
:100323000C0D0E0F0709455F4C6F634B0512500010
:100333002003020A00020106030207E208FF9CD21F
:100343001EF3E9C9455F4C6F636B000000000000BA
:10035300000000000000000000D9120000E5120AAE
:100363005772697465204368617200104E6F746937
:10037300667920436861720002CA84010000A48484
:1003830002C684010000230D10E783030000DD0A89
:1003930002BC84010000240D02C6840100002F0D5D
:1003A30010F783000000F10A02BA84030000F20A86
:1003B30002BC84010000300D1201225FC60312014A
:1003C3002276C603120122A7C603120122E2C60344
:1003D3001201220CC70312012236C7031201224D58
:1003E300C70312012264C7031201227BC703120150
:1003F30022A4C703120122B7C703120122CDC703E8
:10040300120122E0C70312012207C803120122A12D
:10041300CF02120122A5D002120122DDD002120165
:100423002200D1021201220BD1021201222ED1028B
:100433001201223DD20212012212D3021201228D95
:10044300D30212012215D40212012250D402120146
:100453002287D40212012215D502120122EED502FF
:100463001201224ED60212012259D602120122D8BB
:10047300D602120122DBD602120122DED6021201BB
:10048300226DD70212012270D702120122A0D702D5
:10049300120122CAD702120122B8D8021201226A1B
:1004A300D9021201226B97031201229397031201BF
:1004B30022C19703120122F89703120122569803CF
:1004C300120122A19803120122EC98031201222C9B
:1004D3009903120122729903120122A099031201B6
:1004E300225D9A03120122679A03120122749A036E
:1004F300120122A79A03120122739B031201227F86
:100503009B03120122979B03120122A19B03120159
:1005130022C8D003120122D6D003120122EED00347
:1005230012012206D103120122008002120122AC21
:100533008002120122278102120122488202120143
:10054300228482021201222D8302120122148402C8
:10055300120122788502120122CF85021201225054
:1005630086021201224087021201228D87021201A4
:1005730022138802120122458802120122598A029B
:100583001201229B8A02120122B98A021201223C21
:100593008B02120122108C02120122D88C0212014A
:1005A30022008003120122D380031201227C8103E3
:1005B300120122CF81031201227F82031201220B37
:1005C3008303120122F783031201222684031201FB
:1005D30022398503120122818503120122568603E3
:1005E300120122928603120122AE86031201225CBB
:1005F300D4031201228BA903120122A1A903120120
:1006030022C7A903120122E3AA03120122EDAA03BE
:1006130012012222AC031201221AAD031201224459
:100623009203120122749303120122A7930312016E
:1006330022F19303120122B895031201228ED101F4
:10064300120122F8D10112012257D30112012267AC
:10065300D30112012294D301120122EBD30112011F
:100663002294D4011201229BD50112012265D601E5
:10067300120122C5D70112012208D801120122ADAD
:10068300D801120122FAD80112012220D901120144
:10069300222EDB0112012233DB0112012238DD019C
:1006A30012012285DD01120122F8DD011201222B44
:1006B300DE01120122CDDE0112012276DF011201D9
:1006C30022AEDF01120122B1DF01120122F9DF01A3
:1006D30012012239E00112012290E0011201228865
:1006E300BC03120122A0BC03120122E8BC031201C5
:1006F30022FEBC0312012245BD0312012259BE038F
:10070300120122E6BE0312012231BF031201221895
:1007130043001201222443001201225F430012010D
:1007230022A44300120122644400120122EA44007D
:100733001201221645001201224F45001201228D9B
:100743004700120122714900120122574B00120186
:10075300229A4C00120122E84E00120122FA4F00A5
:100763001201224551001201225552001201227238
:100773005200120122AD5200120122CF5200120187
:1007830022325300120122F357001201228858002B
:10079300120122D9580012012200590012012252DB
:1007A3005900120122705900120122CA5900120184
:1007B30022C95A001201224D5B00120122289C0318
:1007C300120122329C03120122759C031201229012
:1007D3009C03120122209D03120122489D03120152
:1007E30022859D03120122BC9D03120122E59D0374
:1007F3001201225A9E031201226F9E0312012284C8
:100803009E03120122B59E03120122C99E03120107
:1008130022EE9E03120122289F03120122549F03FA
:100823001201228C9F031201220BA00312012254F6
:10083300A0031201227EA003120122A9A003120128
:1008430022B1CD0312012287B802120122B5B802E8
:1008530012012203BA02120122E3BA021201220296
:10086300BB021201227FBB02120122C2BB02120190
:100873002218BD02120122D9BD0212012260C00258
:1008830012012201C102120122F7C102120122F454
:10089300C2021201224EC402120122D9C402120161
:1008A300221CCB0312012285CB03120122D9CB03D5
:1008B30012012200CC0312012231CC03120122D1F6
:1008C300A0031201223EA10312012285A1031201FA
:1008D300229DA20312012299A3031201227CA403E5
:1008E300120122DBD9021201221DDA02120122EFC8
:1008F300DA02120122C8DB02120122C2DC02120157
:1009030022A4DD021201220DDE02120122C3DE0245
:1009130012012237DF02120122A3DF02120122CCCD
:10092300DF0212012246E002120122DFE00212017D
:100933002244E10212012259E1021201229FE10243
:10094300120122B8E1021201221DE2021201222049
:10095300E202120122B6B603120122DEB60312012D
:10096300221CB703120122DAB70312012241B80392
:100973001201225DB80312012285B803120122B5C8
:10098300B803120122C4B80312012241B9031201B0
:100993002267B9031201227DE1011201225BE30107
:1009A3001201228DE501120122C9E501120122F68D
:1009B300E501120122E0E6011201222BE7011201F7
:1009C3002276E70112012288E701120122C8E7011A
:1009D300120122FDE7011201224BE8011201227AE2
:1009E300E8011201229DE801120122EAE801120145
:1009F300226FE90112012289EB01120122C8ED01E4
:100A030012012209EE01120122ABEF01120122ECC5
:100A1300EF011201225FF001120122B5F001120170
:100A230022DFF00112012272AB0212012270AC022A
:100A330012012209B3021201222AB502120122F580
:100A4300B6021201225DB802120122B45B00120148
:100A530022635C00120122A95C00120122E95D00FD
:100A63001201227F5F00120122F95F00120122149A
:100A730060001201228F6000120122E9610012015D
:100A8300224963001201224F6400120122B0650063
:100A9300120122C9650012012227660012012215E4
:100AA3006700120122486700120122B86700120191
:100AB300223268001201227C68001201224669007A
:100AC3001201221B6A00120122FA6A001201228516
:100AD3006B00120122F36B00120122676C001201FA
:100AE30022926C00120122516D00120122B66E0097
:100AF300120122D36E00120122F26E00120122E3D0
:100B03006F001201220870001201223270001201DC
:100B130022AD7000120122077100120122707200CF
:100B23001201221E73001201225F7300120122F1CF
:100B33008E021201223F8F021201224B8F021201F9
:100B4300222990021201225A90021201228B900252
:100B53001201220B9102120122899102120122C178
:100B630091021201221392021201225092021201E7
:100B7300226D94021201229396021201227E9802A0
:100B8300120122689A02120122F77F00120122EE5B
:100B930099011201221E9A01120122F7A0011201EA
:100BA300227CA20112012279A80112012261A9016A
:100BB3001201229EA901120122C1A901120122F2EE
:100BC300A901120122FBA90112012205AA011201A6
:100BD30022F3AA01120122E9AB01120122DF8401EF
:100BE300120122DE8801120122E488011201221F70
:100BF30090011201223895011201226EB0031201F5
:100C03002268B103120122DCB1031201221AB203DA
:100C13001201228EB20312012207B3031201221022
:100C2300B3031201221CB30312012231B3031201D5
:100C3300226FB30312012285B3031201223EA503DF
:100C43001201224BA50312012265A503120122A45E
:100C5300A503120122E2A50312012247A6031201F2
:100C6300225CA60312012267A60312012274A603C3
:100C73001201228BA60312012299A603120122A4B8
:100C8300A603120122B0A603120122BFA60312017A
:100C930022CAA603120122EDA60312012294A7037E
:100CA300120122A4A703120122BEA703120122DB11
:100CB300A703120122F7A7031201221CA8031201A2
:100CC3002227A8031201223CA80312012250A803E1
:100CD300120122B1A803120122B7A803120122BDF7
:100CE300A803120122C3A803120122DBA8031201E5
:100CF300220EA903120122489D02120122CC9D0259
:100D03001201227B9E02120122DA9F02120122FBB0
:100D1300A102120122E7A2021201221CA302120164
:100D2300223EA302120122EDA302120122E5A50233
:100D33001201220EA602120122A0A602120122D241
:100D4300A602120122DFA60212012236A702120115
:100D5300225CA702120122C9A902120122CCAA0213
:100D630012012224AB0212012214F1011201221EEC
:100D7300F20112012205F3011201220FF301120104
:100D83002231F3011201223DF301120122D6F401B3
:100D930012012205F50112012221F6011201227A24
:100DA300F601120122E0F701120122BFF80112013C
:100DB300221BF90112012288F901120122C3F90150
:100DC30012012202FA01120122BBFC01120122D5F7
:100DD300FC0112012261FD011201226FFD011201CA
:100DE30022C8FD01120122D6FD0112012249FE0192
:100DF300120122ADFE01120122F7FE011201228F20
:100E03007300120122B17300120122D7750012017F
:100E130022EC7800120122047A00120122B77A0030
:100E2300120122997B0012012219C8031201223EEA
:100E3300C803120122B0C803120122CDF10212012C
:100E430022D6F102120122DFF102120122B6F202CE
:100E530012012267F4021201229DF402120122D729
:100E6300F4021201220DF50212012247F5021201CA
:100E7300227BF502120122A7F502120122F0F502EC
:100E83001201222AF60212012273F602120122CB68
:100E9300F60212012200F7021201225BF70212018D
:100EA3002295F702120122E6F7021201221CF80230
:100EB30012012256F80212012284F802120122A71B
:100EC300F80212012274D203120122A0D2031201EA
:100ED30022FBD20312012205D30312012215D303ED
:100EE3001201222387031201224887031201228061
:100EF3008703120122C2D303120122F0250012013B
:100F030022022900120122B62A001201225B2B00C1
:100F1300120122FE2B00120122B52C00120122E441
:100F23002C00120122A031001201223232001201E0
:100F3300226E3300120122D633001201228A3400BA
:100F43001201224037001201227A3700120122E4F3
:100F530037001201224138001201229E380012018B
:100F630022FB3800120122E639001201222C3A003A
:100F7300120122773A001201229A3A00120122DD6D
:100F83003B00120122F13B00120122FA3C00120144
:100F930022393D00120122653D00120122B43D00B9
:100FA300120122D53D00120122133E001201225AE2
:100FB30040001201229B400012012239410012011C
:100FC30022AB4100120122E44200120122DBCF03D3
:100FD300120122ECCF03120122AFB9031201227ACC
:100FE300BC03120122D5FF011201229FD10312017A
:100FF30022AFD103120122C9D10312012266D20307
:10100300120122B5B30312012259B4031201229B28
:10101300B603120122CACE03120122F1CE0312013A
:101023002254CF03120122A7CF03120122F3C103DB
:1010330012012218C2031201223DC20312012265CA
:10104300C20312012295C2031201222BC303120110
:101053002253C30312012247F90212012244FB0265
:10106300120122CAFB02120122CFFC0212012293B7
:10107300FD0212012211FE02120122F4FE021201EC
:1010830022F7FE0212012205FF0212012222FF02B1
:101093001201224BFF0212012274FF02120122826B
:1010A300FF021201229AFF02120122BD7E001201E9
:1010B30022E67E00120122107F00120122307F00FF
:1010C3001201228E7F001201224DEA0212012262D6
:1010D300EA02120122BEEA0212012229EB021201E4
:1010E3002271EB02120122DBEB0212012204EC0259
:1010F30012012212EC0212012274EC02120122B23A
:10110300EC02120122CDEC0212012268ED0212015F
:10111300220DEE0212012290EE02120122C9EE020A
:1011230012012254EF02120122ABEF021201220933
:10113300F0021201221BF00212012241F0021201FD
:10114300224AF00212012299F1021201227FC40302
:10115300120122E6C40312012291C50312012207E0
:10116300C60312012224AD0312012257AD0312015B
:101173002255AE03120122A7AF0312012277CC033B
:1011830012012255CD031201225BBF03120122A0DB
:10119300BF03120122E6BF03120122AFC1031201F2
:1011A30022E0D403120122FBD4031201220BD50344
:1011B3001201221FD3031201225AC5021201223641
:1011C300C6021201227DC602120122BAC602120110
:1011D3002228C70212012282C702120122F2C70289
:1011E300120122C2C802120122B1C9021201223520
:1011F300CA02120122D1CB021201225CCC021201DB
:1012030022ECCC0212012285CD021201229CCD02D6
:10121300120122CFCE0212012225CF021201224453
:10122300E20212012264E202120122DAE302120153
:101233002228E40212012248E402120122B0E4024D
:1012430012012232E50212012278E5021201220480
:10125300E60212012201AE01120122A8B20112011B
:101263002299B501120122C2B501120122EBB50187
:101273001201229DB6011201227CB801120122CE75
:10128300B9011201221ABF0112012253BF01120137
:101293002297BF01120122A3C001120122BEC9037A
:1012A300120122CDC90312012245CA03120122DD14
:1012B300CA03120122FCCA0312012261C1011201F5
:1012C3002292C301120122CFC301120122A4C4013D
:1012D300120122B7C401120122E2C401120122EF5A
:1012E300C5011201227FC60112012232D10112016E
:1012F30022D78C03120122278D03120122448D036E
:101303001201229C8D031201221E8F031201220758
:101313009203120122A8FF02120122D4FF02E06607
:10132300701008A3E066700A08A3E066700408A3BF
:10133300E06622C3E7960809E7960809E7960809D5
:10134300E79622C3E09608A3E09608A3E09608A3D5
:10135300E09622C008C3E096F50808A3E096420889
:1013630008A3E096420808A3E09645087001D3D08D
:101373000822080808EAC0E0EBC0E086F0E7A4FA18
:10138300180986F0E7A42AFA180986F0E7A42AFACE
:10139300180986F0E7A42AFA1986F0E7A4FBE5F01A
:1013A3002AFA190886F0E7A42BFBE5F03AFA1908A4
:1013B30086F0E7A42BFBE5F03AFA18180986F0E764
:1013C300A4C5F02BFBE43AFA1908E7C5F0C6A42636
:1013D300F6E5F03BFBE43AFA1886F0E7A4F6E5F00D
:1013E3000826F6E43B08F6E43A08F6D0E0FBD0E042
:1013F300FA226016080808C6C313C618C613C6180F
:10140300C613C618C613C6D5E0EA22700908080831
:10141300226016181818C6C333C608C633C608C6D2
:1014230033C608C633C6D5E0EA22E627F60809E63E
:1014330037F60809E637F60809E637F622E026F616
:1014430008A3E036F608A3E036F608A3E036F62252
:10145300E026F008A3E036F008A3E036F008A3E0A6
:1014630036F022C3E697F60809E697F60809E697E9
:10147300F60809E697F622C3E096F008A3E096F093
:1014830008A3E096F008A3E096F022E657F60809D1
:10149300E657F60809E657F60809E657F622E05636
:1014A300F608A3E056F608A3E056F608A3E056F6BE
:1014B30022E056F008A3E056F008A3E056F008A394
:1014C300E056F022E0F608A3E0F608A3E0F608A34E
:1014D300E0F622E6F008A3E6F008A3E6F008A3E6A8
:1014E300F022E0FAA3E0FBA3E0FCA3E0FD22EAF094
:1014F300A3EBF0A3ECF0A3EDF022E0F8A3E0F9A353
:10150300E0FAA3E0FB22E8F0A3E9F0A3EAF0A3EBFF
:10151300F022CAC0E0E6F0A308DAFAD0E0FA22CA61
:10152300C0E0E0A3C582CCC582C583CDC583F0A34B
:10153300C582CCC582C583CDC583DAE6D0E0CA2295
:10154300C3E498F8E499F91215848026C3E49AFA5F
:10155300E49BFBE920E7E9121584E498F8E499F9A0
:1015630022C3E498F8E499F9121584E498F8E4990D
:10157300F9C3E49AFAE49BFB22EB20E7CFE920E7E7
:10158300E0B90010BB0008E88AF084F8AAF022E46E
:10159300FBC8FA22EB70227B10C833C8C933C933A6
:1015A3005007C39AC3DBF280069A50012ADBEAC8CC
:1015B30033F4C8C933F4C9FA2275F008E4C833C850
:1015C300C933C933C99AC99B5004C92AC93BD5F049
:1015D300ECFBC833F4C8E4C9FA22600D08C6A2E7DD
:1015E30013C618C613C6D5E0F322600C08C6C3138E
:1015F300C618C613C6D5E0F422700422600D18C6BF
:10160300C333C608C633C6D5E0F41822251810AF75
:1016130008F518400C15198008F51840021519D261
:10162300AF2200C0D0251810AF08F518500C0519CB
:101633008008F51850020519D2AFD0D0222518F52D
:101643008210AF08F518400C15198008F5184002F0
:101653001519D2AF851983222518F582E43519F5BA
:1016630083222518F8E43519F9222518FAE43519E7
:10167300FB222518FCE43519FD22E4732518C582E5
:10168300C0E0E51934FFC583C0E0E518C3958224A3
:10169300F810AF088583198582188008858319851A
:1016A3008218D2AFCEF0A3E520F0A37808E608F0C5
:1016B300A3DEFAEFF0A3E58124FAF8E608F0A3E647
:1016C30008F0A3E608F0A30808E608F0A3E608F08C
:1016D300A315811581D0E0FED0E0F81581158115A1
:1016E30081E8C0E0EEC0E0222518C582C0E0E5191C
:1016F30034FFC583C0E0E518C3958224F910AF0811
:101703008583198582188008858319858218D2AF4D
:10171300CEF0A3E520F0A37808E608F0A3DEFAEF05
:10172300F0A3E58124FBF8E608F0A3E608F0A3089C
:1017330008E608F0A3E608F0A315811581D0E0FEC2
:10174300D0E0F815811581E8C0E0EEC0E0228519EC
:1017530083851882E0A3FEE0A3F5207808E0A3F6D2
:1017630008DFFAE0A3FFE0A3C0E0E0A3C0E0E0A34A
:10177300C0E0E0A3C0E0E0A3C0E010AF088582189A
:101783008583198008858218858319D2AFD083D0C9
:101793008202011F851983851882E0A3FEE0A3F569
:1017A300207808E0A3F608DFFAE0A3FFE0A3C0E097
:1017B300E0A3C0E0E0A3C0E0E0A3C0E010AF088571
:1017C30082188583198008858218858319D2AFD042
:1017D30083D08222C0D02518C582C0E0E51934FF2A
:1017E300C583C0E0E518C3958224F310AF08858351
:1017F300198582188008858319858218D2AFC8F0AD
:10180300A3E9F0A3EAF0A3EBF0A37908E709F0A3B7
:10181300D8FAECF0A3EDF0A3EEF0A3EFF0A3D0E041
:10182300F0A3D0E0F0A3D0E0F0A3E520F0A3E5F02F
:10183300F0A322851983851882E0C0E0A3E0F9A311
:10184300E0FAA3E0FBA37808E0F608A3DFFAE0FCE4
:10185300A3E0FDA3E0FEA3E0FFA3E0C0E0A3E0C09C
:10186300E0A3E0F5D0A3E0F520A3E0A3F5F010AFEB
:10187300088583198582188008858319858218D283
:10188300AFD082D083D0E0F8D0E032740480067405
:101893000280027401C0E0F404121640D0E0121575
:1018A30015227404800474028000CCC0E0EDC0E013
:1018B300E518C39CCCAD1950011D10AF068C188DD3
:1018C3001980068C188D19D2AF121522D0E0FDD0E5
:1018D300E0FC22D083D082E9C0E0E493A3C386F086
:1018E300C5F095F0F908E493A386F0C5F095F07080
:1018F3000BE493A3C3994005E9048002A3E475F0C4
:1019030002A42582F582E5F03583F583D0E0F9E47E
:1019130093A3C0E0E493C0E022D083D082ECC0E084
:10192300EDC0E0E493A3FCE493A3FDED4C600D1242
:101933001968EC24FFFCED34FFFD80EFE493A3FC76
:10194300E493A3FDED4C600D1219A7EC24FFFCED0D
:1019530034FFFD80EFD0E0FDD0E0FCE493A3C0E0D2
:10196300E493C0E022C0E0C3E49396087401939625
:1019730018400FE4936670080874019366187000AA
:101983007019A3A3C3E49396087401939618A3A3B1
:10199300400DD0E0D0E0D0E0021958A3A3A3A3A345
:1019A300A3D0E022C0E0C0F088F0E493667008089A
:1019B30074019366187000A8F0A3A3700BD0F0D045
:0F19C300E0D0E0D0E0021958A3A3D0F0D0E0228A
:1019D40074F51216EBEAFEEBFFEE2434F8EF340054
:1019E400F988088909EE2435F582EF3400F583E09F
:1019F400F8EE2437F582EF3400F583E0F50AEC8540
:101A04000AF0A4FCAAF0850AF0EDA42AFDE82CF85B
:101A1400E43DF97A257B00121584EA85088285095C
:101A240083F0F8740758F97401B900028004C333D1
:101A3400D9FCFAE8131313541FF8EE28F8EF340016
:101A4400F9E8245DF582E93400F583E05A6008EE94
:101A54002434F582EF802CEE2434F582EF3400F543
:101A640083E0C0E0EE2436F582EF3400F583E0F540
:101A7400F0D0E084A8F0EE28F8EF3400F9E8243838
:101A8400F582E93400F583E0F97F0402179774F5D1
:101A94001216EBEAFEEBFFEE2434F582EF3400F588
:101AA40083E0C0E0EE2435F582EF3400F583D0E026
:101AB400F08E828F83A3A3A3A3A3A3A3C082C08316
:101AC4008E828F83A3A3A3A3A3E0F8A3E0F9D0831A
:101AD400D082E0C398F508A3E099F509EE247FF5D8
:101AE40082EF3400F583E064017069EE2480F582AE
:101AF400EF3400F583E0F8A3E0F98E828F83A3A38B
:101B0400A3A3A3A3A3E0FCA3E0FD8E828F83A3A3DE
:101B1400A3A3A3E0FAA3E0FBC3EA9CEB9D5010C38C
:101B2400EC98ED99402EC3EA98EB995027800EC3A8
:101B3400EA98EB994007C3EC98ED9940177CDC7D5B
:101B440004EEFAEFFB120AE1EE247FF582EF340093
:101B5400F583E4F0EE2434F8EF3400F9E8FCE9FD11
:101B6400EE2435F582EF3400F583E0F8EE2437F502
:101B740082EF3400F583E0F50AE508850AF0A4F560
:101B840008AAF0850AF0E509A42AF509E82508F869
:101B9400E43509F97A257B00121584EA8C828D8359
:101BA400F0F8740758F97401B900028004C333D9FA
:101BB400FCFAE8131313541FF8EE28F8EF3400F975
:101BC400E8245DF582E93400F583E05A6008EE24E8
:101BD40034F582EF802CEE2434F582EF3400F58363
:101BE400E0C0E0EE2436F582EF3400F583E0F5F052
:101BF400D0E084A8F0EE28F8EF3400F9E82438F5B2
:101C040082E93400F583E0F91224E9021A8DC082D6
:101C1400C083851882851983E0F8A3E0F9C3EA9CA0
:101C2400EB9D5010C3EC98ED99401BC3EA98EB99D7
:101C34005014800EC3EA98EB994007C3EC98ED99D1
:101C44004004790180027900D083D08222EAC39CC7
:101C5400FAEB9DFB2274EF1216EB9003A2E06408EA
:101C64006005E06407702A9061C8E060249003D0A6
:101C7400E0F4601DE0F875F003A4C8AAF02AF97432
:101C8400D228FE740339FF8E828F83A3A3A3E0704E
:101C940003021D89906060E0C0E0EE2468F582EFE5
:101CA4003400F583D0E0F0750C45750D057508001A
:101CB400750900E5D914F50AE5D95403F50E601742
:101CC4007403650E605CE50A6010EE2467F582EF2C
:101CD4003400F583E07003021D6E900540E064015A
:101CE400602AEE2482F582EF3400F583E060047804
:101CF4000480027800850A08E508C398FA95E0FB99
:101D04001209A98A088B09EA45097005120CD980C1
:101D140074EE2482F582EF3400F583E070048A0CBB
:101D24008B0DE50A6012850C82850D83F50BE5D9D0
:101D3400F0A3150BE50B70F6EE2482F582EF340068
:101D4400F583E0604474FC250AF50A780C121892B5
:101D5400AC0AA90EEEFAEFFB120B837402121625DD
:101D6400E97026AA08AB09121153793D8E828F833C
:101D7400A3A3A3A3E0FA7B0012087DEEFAEFFB1203
:101D84000AF9120B95790080747403650E60568508
:101D94000A107511007810121892AC0CAD0DAA0837
:101DA400AB09120B5F7402121625EE2468F582EF5C
:101DB4003400F583E064807004747F8001E0F50CE6
:101DC400780C121896E50EF50C780C121896A90AE0
:101DD400AC08AD099003D0E0FA7B0012084174020C
:101DE40012162580139003A2E06408600BAC0CADBE
:101DF4000DEEFAEFFB120BEF120CE579017F0A02EC
:101E0400179774F51216EB74FC12160FEAFEEBFF2B
:101E14008908A2AFE433F509C2AF806AEE2463F8FF
:101E2400EF3400F97A007B00A2AFE433F50AC2AFC5
:101E340088828983E0FCA3E0FDEC4D603A888289C6
:101E440083E0FAA3E0FB8A828B83E0FCA3E0FD88B5
:101E5400828983ECF0A3EDF08A828B83E4F0A3F013
:101E640088828983E0FCA3E0FDEC4D700A888289B6
:101E740083A3A3E4F0A3F0E50AA2E092AF12115306
:101E84009004E3E004F0EE2463F582EF3400F5837C
:101E9400E0F8A3E0F9E849603DEE2463F582EF340D
:101EA40000F583E02402FAA3E03400FBEA2402F5FF
:101EB4000AEB3400F50B780A1218928A828B83E0BD
:101EC400FCA3E0F9EEFAEFFB120B1D7402121625C7
:101ED400E97003021E209004E3E060639004E4E0F0
:101EE400F89004E3E0C398500C74026508705090B5
:101EF40004E5E0604A8E828F83A3A3A3A3E0851840
:101F040082851983F0A3E4F09004E3E0F8740212EC
:101F1400165BE8F0A3E4F09004E3E0F89004E2E058
:101F240028F0740212165BAC82AD83851882851981
:101F340083AA82AB83790112084D9004E3E4F0E5AF
:101F440009A2E092AF7404121625021A8D00000053
:101F54008521878522C622C0E0C0D0E8C0E0E9C060
:101F6400E0EAC0E0EBC0E0ECC0E0EDC0E0EEC0E0D1
:101F7400C008C009C00AC00BC082C083C0F0A2AFB1
:101F8400E433FEC2AF759B00906182E0A2E0501280
:101F9400E591A2E0500C7591FE7401652170031265
:101FA4001C59E0A2E55051E591A2E5504B7591DF33
:101FB4009003A2E064076005E0640870237401657F
:101FC40021703579019003D0E0FA75F003A4CAA812
:101FD400F028FB74D22AFA74033BFB121E06801805
:101FE400E0640D70139003C4E004F064287002E40C
:101FF400F07A00E0F9120CEB906182E0A2E6400373
:102004000220A2E591A2E640030220A27591BF90AE
:1020140003A2E064057008120C19120C2580031247
:102024000C1F752100120C79E99003A3F0790012BA
:102034000C6D120A577A017B009003A1E0F912118A
:1020440023907803E064427055900544E014F070E6
:102054004DC2AF12205A00782AD0E0F618D0E0F62C
:10206400E59F540770057509FF800375097FC4C097
:10207400E07829E6F50808E65509F509740B7808AF
:102084001215EDD0E02508F8906270E0A2E740F860
:10209400E8C333906272F0906270E0D2E0F0906135
:1020A40081E0A2E35009E5E9A2E3500375E9F7A34F
:1020B400E0A2E75009E591A2E7500375917FEEA2F3
:1020C400E092AFD0F0D083D082D00BD00AD009D028
:1020D40008D0E0FED0E0FDD0E0FCD0E0FBD0E0FA98
:1020E400D0E0F9D0E0F8D0D0D0E032C0E0C0D0C029
:1020F40082C083906183E0A2E05009E5BFA2E05072
:102104000375BFFEE0A2E15009E5BFA2E1500375EB
:10211400BFFDE0A2E25009E5BFA2E2500375BFFB98
:10212400E0A2E35009E5BFA2E3500375BFF7E0A2C4
:10213400E45009E5BFA2E4500375BFEFE0A2E55007
:1021440009E5BFA2E5500375BFDFE0A2E65009E54B
:10215400BFA2E6500375BFBFD083D0828088C0E0A1
:10216400C0D0E8C0E0E9C0E0EAC0E0EBC0E0ECC009
:10217400E0EDC0E0C0F0E5A7A2E6500FE5A1A2E6BD
:10218400500953A7BF75A1BF1221C7E5A7A2E55007
:102194000CE5A1A2E5500653A7DF75A1DFE5A7A2D0
:1021A400E15009E5A1A2E1500375A1FDE5A7A2E272
:1021B400500CE5A1A2E2500653A7FB75A1FBD0F099
:1021C4000220D874F81216EB7521019003A2E06482
:1021D400067015120BB38A828B83A3A3A3A3A3A3B4
:1021E400E0FAA3E0FB120C07A2AFE433FED2AF90F7
:1021F40003A8E0640170187A207B009003A1E0F941
:102204001212437A207B009003A1E0F91211299065
:102214006182E0D2E6F0900541E0602185C622802B
:10222400169003A7E064017008E5C654F84405F568
:10223400C653BEFC121F547401652160E4EEA2E093
:1022440092AF7F01021797008E238F248582288501
:102254008327851882851983E0CEA3E0CF85288261
:10226400852783EBC9EAC8EDCBECCA75F010C3E847
:1022740033C8E933C9EA33CAEB33CBC3EA9EF52644
:10228400EB9FF525B35004AB25AA26EC33CCED33F4
:10229400CDD5F0DAAE23AF242274ED1216EB8A0802
:1022A4008B098C0A8D0B741312165B780C1214C7ED
:1022B4007808790C1213367510017511C87512005F
:1022C40075130050127808790C1214667810790886
:1022D40012133650168010780C7908121466781090
:1022E400790C12133640047901800279007F0C02C4
:1022F400179774ED1216EB8A088B098C0A8D0B74F0
:102304001312165B780C1214C7780C790812133662
:1023140040117808790C121466AA08AB09AC0AAD0E
:102324000B80227510007511007512007513017869
:1023340010790C1214667810790812142DAA10ABB7
:1023440011AC12AD1380A68A828B837508FF7509C0
:10235400FF750AFF750B0078081214B47F04021786
:102364009774F51216EB8C828D8378081214C78A41
:10237400828B83780812147AEA2404F8EB3400F987
:102384008C828D83A3A3A3A3E0FCA3E0FD888289B0
:1023940083C3E09CF0A3E09DF088828983C3E0942A
:1023A40020A3E0944E40268A828B837508FF75092A
:1023B400FF750AFF750BFF78081214538A828B830A
:1023C400A3A3A3A3E02420F0A3E0344EF002234B04
:1023D40074F51216EBE9FE9004F7E0FAA3E0FBEEC5
:1023E400C333F8E433F974B728F582748339F58379
:1023F400E02AF508A3E03BF50978081218927A4020
:102404007B427C0F7D0012224C74021216258A082E
:102414008B098C0A8D0B741078081213F5AA08AB7B
:10242400097F0402179774F11216EB8A0C8B0D8C3A
:102434000E8D0F740F12165BE0FAA3E0FB741112F9
:10244400165BE0F508A3E0F5097808121892EA246F
:1024540001F508EB3400F509E4F50AF50B780C797D
:1024640008121375750871750902780C790812132E
:1024740075AA0CAB0DAC0EAD0F12224C74021216E1
:10248400258B09EA450960047A0180027A00EC2A66
:10249400FCED3400FD741312165BE0F8A3E0F9E8D8
:1024A400FEE9FFECF8EDF97A717B021215848808D5
:1024B40089098E828F8378081214D6ECF8EDF97AA4
:1024C400717B021215848A088B0974057808121529
:1024D400FC8E828F83A3A3A3A3E508F0A3E509F0F0
:1024E4007F08021797C082C083E9906000F0D08310
:1024F400D08222C0E074F21217D7A2AFE433FED226
:10250400AFC2C0E5D1A2E4500653D1EF1210A5EE3C
:10251400F8EEA2E092AF7F01021836C0E074F21226
:1025240017D7A2AFE433FED2AFE58AA2E350031279
:102534001027758A00C2EBEEF8EEA2E092AF7F019D
:10254400021836C0E0C0D0E8C0E0E9C0E0A2AFE4C1
:1025540033F8D2AFC2C7E8F9E8A2E092AFD0E0F90D
:10256400D0E0F8D0D0D0E032C0E0C0D0E8C0E0E99C
:10257400C0E0EAC0E0C082C083A2AFE433FAD2AFC5
:102584009009B5E0F89009B6E068700B539AFB9097
:1025940009B77401F0802CC2E99009B5E0F8740120
:1025A400289009B5F07900743528F582740939F555
:1025B40083E0F5C19009B5E0C3948040069009B565
:1025C4007400F0EAF8EAA2E092AFD083D082D0E0BF
:1025D400FAD0E0F9D0E0F8D0D0D0E032C2AF0200B7
:0225E4000022D3
:1025E800FFFFFFFFFFFFFFFF74F012167F74F81262
:1025F800160F8A0E8B0FE9FF8C0C8D0D7E00850E51
:1026080008850F0978081218D6000410CE28382635
:102618005B267A269D26C026E326142737274E27D1
:102628007E272F2852287528A328CE28CE28A7270A
:1026380074016F7019850C82850D83E0C394035073
:102648000D850C82850D83E0900CA1F080027E1828
:102658000228F674026F7015850C82850D83E0F8E8
:10266800A3E0F9900CA2E8F0A3E9F080027E18023A
:1026780028F674016F7019850C82850D83E0C39468
:1026880002500D850C82850D83E0900749F0800289
:102698007E180228F674016F7019850C82850D83E7
:1026A800E0C39405500D850C82850D83E090074AA0
:1026B800F080027E180228F674016F7019850C826A
:1026C800850D83E0C39402500D850C82850D83E04F
:1026D80090074BF080027E180228F674106F70275E
:1026E8007508107509007808121892AC0CAD0D7AAF
:1026F8004C7B071210CF74021216258A088B0985A5
:10270800088285098380027E180228F674016F709A
:1027180019850C82850D83E0C39402500D850C82C7
:10272800850D83E090075CF080027E180228F6741D
:10273800016F700D850C82850D83E0900CA5F080EB
:10274800027E180228F674046F7026908498780820
:102758001214C7850C82850D837808121346501110
:10276800850C82850D831214FD90075E1215098071
:10277800027E180228F6EF7021120607E97013127C
:102788000F73E9F5097950121219E9F508120F616A
:10279800800A9007F17401F080027E180228F6740E
:1027A800076F707E750806750900780812189285FB
:1027B8000C82850D83A3AC82AD83740412166D124E
:1027C80010D57402121625851882851983EAF0A39C
:1027D800EBF07C007D00740212166D850C82850D6D
:1027E80083E0F9120F07E9F50AE50AC3940A502EA7
:1027F800120607E97015A90A120F79E9F509795047
:10280800121219E9F508120F618019A80A790074E3
:10281800F228F582740739F5837401F080067E0288
:1028280080027E180228F674016F7019850C828563
:102838000D83E0C39402500D850C82850D83E090D2
:10284800075DF080027E180228F674016F70198502
:102858000C82850D83E0C3940A500D850C82850D8A
:1028680083E0900CA4F080027E180228F674016FB1
:102878007025850C82850D83E0C394074019850C6B
:1028880082850D83E0C39411500D850C82850D83DC
:10289800E0900CA6F080577E18805374016F702268
:1028A8009007F0E0F508850C82850D83E09007F02D
:1028B800F0E50870399007F0E064017031120F619B
:1028C800802C7E188028C3E50E9427E50F940050CD
:1028D8001B74026F7016850C82850D83E0FCA3E0E3
:1028E800FDAA0EAB0F1204A5E9FE80027E02EEF9E6
:1028F80074081216257F0802175174F012167F7497
:10290800D712160FE9C0E0851882851983D0E0F048
:10291800740112165BEAF0A3EBF08C0E8D0F908415
:102928006A7403121675740612152274031216754A
:10293800740112165BE0FAA3E0FB851882851983FF
:10294800E0F9120F07E9FEEEC3940A4003022A9148
:10295800EEF9120F43E9FF900CA1E06402700474D1
:102968000180027400F5087808121896743A121655
:102978005BE0FDEFFCEEF9AA0EAB0F120FB5740188
:102988001216257C147D007900741512166D12102C
:10299800E78A088B0985080A85090B7415121675CC
:1029A8007A1075F006EEA42424F9121213E9703C8B
:1029B8007C1079FF741512166D121147E9702D7489
:1029C8002512165BAC82AD837A0475F006EEA4245A
:1029D80025F9121213E9F5087415121675EFA2E01D
:1029E800E433F9AA0EAB0F12052FE9F87409121691
:1029F800757A0C74702EF9121213E9707974091231
:102A0800166D120F37750800E508C394045067A8BF
:102A1800087900E875F003A4C8AAF075F000A42AA4
:102A2800FA75F003E9A42AF9740912165BE58228FD
:102A3800F50CE58339F50D850C82850D83E0F8A347
:102A4800E0F9E849602C850C82850D83A3A3E0F5A5
:102A58000A750B00780A121892850C82850D83E09E
:102A6800FCA3E0FDAA0EAB0F12078D740212162507
:102A7800E9F805088092EFA2E1500E900748E0F9C6
:102A8800AA0EAB0F120793E9F8743912165BE064CB
:102A980004700F900CA1E064027007AA0EAB0F122D
:102AA8000FAF790074291216257F0802175174F2A6
:102AB80012167F890B8A088B09ECFEEDFF750A0A4E
:102AC800E50B600B14600814604114605F807DAAF8
:102AD80008AB09120F55E9F50AE50AC3940A506CC8
:102AE800EE4F6068750C06750D00780C121892ACE4
:102AF80008AD09EEFAEFFB1210CF74021216258A00
:102B08000C8B0D850C82850D838041AA08AB0912B8
:102B18000F4FE9F50AE50AC3940A5030EE4F602CCE
:102B2800EEFAEFFBA90A120F49E98020AA08AB09BF
:102B3800120F5BE9F50AE50AC3940A500FEE4F60DD
:102B48000BEEFAEFFBA90A120F49E9F8A90A7F066A
:102B580002175174F212167F8A0C8B0DE9FF7E154D
:102B680074FF650C700474FF650D702A750800E524
:102B780008C3940A5014EFFC7A027B00A908120FCC
:102B880025E960027E00050880E5EF60627A9D7B9A
:102B98000F12098B8059AA0CAB0D12096D8A088B8C
:102BA8000985080A85090BE50A450B60407C007D0C
:102BB80000E50A2405FAE4350BFB850A82850B83B8
:102BC800A3A3A3A3E0F9120F07E9F508E508C39446
:102BD8000A500EEFFC7A027B00A908120F25E97E45
:102BE80000EF600BAA0AAB0B120F9D80027E14EE59
:102BF800F97F0602175174F012167F74FE12160F31
:102C0800851882851983EAF0A3EBF08C0A8D0B7482
:102C18001212165BE0F50EA3E0F50F7E15851882FB
:102C2800851983E064FF7004A3E064FF701D7F00D2
:102C3800EFC3940A506BAC0EAD0FAA0AAB0BEFF9B9
:102C4800120F2BE960027E000F80E5851882851936
:102C580083E0FAA3E0FB12096D8A0C8B0D850C0842
:102C6800850D09E508450960367C007D00E50824E6
:102C780005FAE43509FB850882850983A3A3A3A384
:102C8800E0F9120F07E9FFEFC3940A5014AC0EAD38
:102C98000FAA0AAB0BEFF9120F2BE97E0080027E18
:102CA80014EEF974021216257F0802175174F712F0
:102CB800167FEAFEEBFF900762EEF0A3EFF09007B5
:102CC80048E0FC7D007A267B001204A5E9F508900F
:102CD8000748E0F912070F7F0102175174F2121624
:102CE8007F74EC12160F8A0A8B0B850A82850B8378
:102CF800A3A3E024FA700302312C24FD7003022FF1
:102D0800A0147003022DD414601024FD7003022F48
:102D180048147003022FE4023194AE0AAF0B9007F7
:102D280062E0F8A3E0F9E8496066900762E0F8A37A
:102D3800E0F5838882E0F8A3E0F9E8496052EE24E0
:102D48000CF582E43FF583E0F5087808121896EE52
:102D5800240BF582E43FF583E0F98E828F83A3A3E9
:102D6800A3A3A3A3A3A3A3E0FCA3E0FDEE2403FA7B
:102D7800E43FFB900762E0F8A3E0F5838882E0F87F
:102D8800A3E0F583888212167D7401121625803916
:102D98008E828F83A3A3A3A3A3A3A3A3A31218A97B
:102DA80090075E1214E51205417402121625E960B7
:102DB8001879018E828F83A3A3A3A3A3A3A3A3A39C
:102DC800E0FAA3E0FB12053BE9023194AE0AAF0B2F
:102DD8008E828F83A3E06003022EF68E828F83A3F8
:102DE800A3A3A3A3E0A2E04003022EF69007FCE011
:102DF800F8A3E0F9E8496003022EF67C0E7D00791D
:102E080000AA18AB191210E78A088B09AA08AB099F
:102E1800EE240CF582E43FF583E0F8A3E0F9E849F5
:102E280060367508067509007808121892EE240CA9
:102E3800F582E43FF583E02410FCA3E03400FD7440
:102E48000212166D1210CF74021216258A088B0909
:102E5800850882850983804F8E828F83A3A3A3E090
:102E6800FAA3E0FB12096D8A0C8B0D850C08850D01
:102E780009E5084509602D750C06750D00780C12DA
:102E88001892E5082405FCE43509FD740212166D54
:102E98001210CF74021216258A0C8B0D850C8285B0
:102EA8000D8380030231948E828F83A3A3A3A3A3EF
:102EB800E0A2E25004D2F08002C2F0A2F0E433F8BB
:102EC8007900740C12165BE048F0A3E049F0EEFCC0
:102ED800EFFDAA18AB19120F3DE970127A027B00B8
:102EE800900748E0F9121123E9790002319690071A
:102EF80062E0F8A3E0F9E8496043900762E0F8A3CC
:102F0800E0F5838882A3A3E0F8A3E0F9E849602DFF
:102F18008E828F83A3E0FC79018E828F83A3A3A383
:102F2800E0FAA3E0FB900762E0F8A3E0F58388826B
:102F3800A3A3E0F8A3E0F583888212167D023194FA
:102F4800AE0AAF0B900762E0F8A3E0F9E8496045E4
:102F5800900762E0F8A3E0F5838882A3A3E0F8A3D2
:102F6800E0F9E849602F850A82850B83A3E0FC79A4
:102F7800028E828F83A3A3A3E0FAA3E0FB900762EB
:102F8800E0F8A3E0F5838882A3A3E0F8A3E0F58343
:102F9800888212167D023194850A08850B097C0007
:102FA8007D00E5082404FAE43509FB8508828509D3
:102FB80083A3A3A3E0F9120F07E9FEEEC3940A5016
:102FC80018E508240AFCE43509FD7A0475F006EED4
:102FD800A42425F912120DE9F8023194AE0AAF0BB8
:102FE80090075DE06019900CA4E0F98E828F83A3AE
:102FF800A3A3E0FAA3E0FB12053BE9F802319490A1
:103008000CA1E0701679058E828F83A3A3A3E0FA42
:10301800A3E0FB12053BE9F80231948E828F83A36B
:10302800A3A3E0FAA3E0FB12096D8A0C8B0D850CB3
:1030380008850D098E828F83A3A3A3A3A3A3A3E06E
:10304800A2E05072E5084509606985088285098310
:10305800A3A3A3A3E0605F8E828F83A3A3A3A3A3EC
:10306800A3A3A3A3E0F8A3E0F9E8C4540FF87900F8
:10307800E85401F8E95400F9E8A2E04039740E1266
:103088001675E5082405FAE43509FB8508828509E3
:1030980083A3A3A3A3E0F9120F07E9701979038E9C
:1030A800828F83A3A3A3E0FAA3E0FB12053BE9F810
:1030B800023194023194EE2405FCE43FFD85088238
:1030C800850983A3A3A3A3E0F98E828F83A3A3A377
:1030D800E0FAA3E0FB120FA9900762E0F8A3E0F979
:1030E800E849603E900762E0F8A3E0F5838882A390
:1030F800A3E0F8A3E0F9E84960287C0079008E8213
:103108008F83A3A3A3E0FAA3E0FB900762E0F8A3F0
:10311800E0F5838882A3A3E0F8A3E0F58388821210
:10312800167D8068120607E970629007F1E0640175
:10313800701A120F73E9FE9007F17400F07C0A7D93
:103148000079007AF27B071210E780367E00EEC322
:10315800940A502EEEF8790074F228F58274073933
:10316800F583E064017018EEF9120F79E9FAEEF8C8
:10317800790074F228F582740739F5837400F00E2B
:1031880080CC7950121219E9FE120F61790174147A
:103198001216257F0602175174F512167F74F21263
:1031A800160F8908EAFEEBFF8C09AC18AD197A0EE8
:1031B80075F006E508A42420F9121213E9705F7C63
:1031C8000679FFAA18AB19121147E97051740C124D
:1031D800165BE0F8A3E0F9E8F50AE5096005EE42B8
:1031E8000A8004EEF4520AA80A7900740C12165BDD
:1031F800E0687003A3E0696021A80A7900740C12E2
:10320800165BE8F0A3E9F0AC18AD197A0E75F00674
:10321800E508A42420F912120DE979018002790049
:10322800740E1216257F0302175174F012167F745C
:10323800E612160F89098A0E8B0FECFEEDFF740C4F
:103248001216757A0E75F006E509A42420F91212F3
:1032580013E960030233627C0679FF740C12166D61
:10326800121147E96003023362AC18AD197A0C7485
:10327800702509F9121213E9600302335E7508001C
:10328800AA18AB19120F37E50E450F702E7C0C7972
:1032980000AA18AB19121147E960030233447C0CE9
:1032A8007D007900AA18AB191210E78A0A8B0B85E2
:1032B8000A82850B83750801023344AC18AD19AA3C
:1032C8000EAB0F120F318A0C8B0D850C0A850D0B76
:1032D800E50A450B7030EE4F601BAC18AD197A004B
:1032E8007B00120F318A0C8B0DA80CA90D880A8956
:1032F8000BE849700479008063850A82850B83E5B1
:103308000EF0A3E50FF0850A82850B83A3A3E0F8EE
:103318007900EE687002EF696022EEC0E0850A82EB
:10332800850B83A3A3D0E0F0EE4F700D850A82854C
:103338000B837400F0A37400F0750801E5086016AB
:10334800AA18AB19120F37AC18AD197A0C7470257E
:1033580009F912120DE9790180027900741A12161E
:10336800257F0802175174F712167FEAFEEBFF7AE1
:1033780000EAC39404504EEAF87900E875F003A413
:10338800C8ABF075F000A42BFB75F003E9A42BF98A
:10339800EC28F582ED39F583E06E7003A3E06F70D9
:1033A80021EAF87900E875F003A4C8AAF075F000DE
:1033B800A42AFA75F003E9A42AF9EC28FAED39FBF6
:1033C80080070A80AC7A007B007F0102175174F7EE
:1033D80012167F7C00ECC394044003023485ECF899
:1033E8007900E875F003A4C8ADF075F000A42DFDD0
:1033F80075F003E9A42DF9EA28F582EB39F583E0A5
:10340800F4FEA3E0F4FFECF87900E875F003A4C833
:10341800ADF075F000A42DFD75F003E9A42DF9EACF
:1034280028F582EB39F583EEF0A3EFF0ECF879009C
:10343800E875F003A4C8ADF075F000A42DFD75F093
:1034480003E9A42DF9EA28F582EB39F583A3A3E073
:10345800F4C0E0ECF87900E875F003A4C8ADF075A5
:10346800F000A42DFD75F003E9A42DF9EA28F582F2
:10347800EB39F583A3A3D0E0F00C0233DD7F010222
:10348800175174F012167F74F412160FEAFEEBFF50
:103498008C088D099007FCE0F8A3E0F9E849702C46
:1034A800EE4F6006E508450970057901023736EEEA
:1034B800FAEFFB120F55E9900CA7F0900CA7E0C3A8
:1034C800940A4008120F67E9900CA7F0900CA7E047
:1034D800C3940A40030237349007FCE0F8A3E0F9EC
:1034E800E8496003023580EEFCEFFD7A0E75F006C0
:1034F800900CA7E0A42420F912120DE9F50B7C0C1E
:103508007D0079FFAA18AB191210E78A0C8B0D857C
:103518000C0E850D0FAC18AD197A0C900CA7E02491
:1035280070F912120DE9F50A750C0E750D00780C7C
:10353800121892EEFCEFFD900CA7E0F87900E87500
:10354800F00EA4C8AAF075F000A42AFA75F00EE9E6
:10355800A42AF9746428FA740739FB1210CF74028C
:103568001216258A0C8B0DA80CA90D9007FCE508EE
:10357800F0A3E509F00237309007FCE0F8A3E0C8B3
:103588002406F582C83400F583E0F8A3E0F9E84999
:1035980060439007FCE0F8A3E0C82406F582C8342D
:1035A80000F583E0FCA3E0FD7A1B75F006900CA7FC
:1035B800E0A42421F912120DE9F89007FCE0F9A320
:1035C800E0C92406F582C93400F5837400F0A374B9
:1035D80000F00237309007FCE0F8A3E0C8240AF5B1
:1035E80082C83400F583E0F8A3E0F9E84960439025
:1035F80007FCE0F8A3E0C8240AF582C83400F58384
:10360800E0FCA3E0FD7A1B75F006900CA7E0A4246B
:1036180022F912120DE9F89007FCE0F9A3E0C92499
:103628000AF582C93400F5837400F0A37400F0022F
:1036380037309007FCE0F8A3E0C8240CF582C834C2
:1036480000F583E0F8A3E0F9E84960439007FCE05F
:10365800F8A3E0C8240CF582C83400F583E0FCA385
:10366800E0FD7A1075F006900CA7E0A42423F91267
:10367800120DE9F89007FCE0F9A3E0C9240CF582E3
:10368800C93400F5837400F0A37400F00237309059
:1036980007FCE0F8A3E0C82408F582C83400F583E5
:1036A800E0F8A3E0F9E849606F9007FCE0F8A3E0D0
:1036B800C82408F582C83400F583E0FCA3E0FD7A4D
:1036C8001075F006900CA7E0A42424F912120DE955
:1036D800F50A9007FCE0F8A3E0C82408F582C8348E
:1036E80000F583E02410FCA3E03400FD7A0475F0B3
:1036F80006900CA7E0A42425F912120DE9F890070A
:10370800FCE0F9A3E0C92408F582C93400F5837404
:1037180000F0A37400F080109007F0E06003120F2F
:10372800BB120FA379018006790080027901740C1D
:103738001216257F0802175174F712167F74F212B9
:10374800160FE9FEAC18AD197A0E75F006EEA42432
:1037580020F9121213E9700E740C12165BE0F8A32C
:10376800E0F9E8F980027900740E1216257F01024B
:10377800175174F412167F74F212160F8909EAFEB3
:10378800EBFFE509C3940A5004EE4F7004790280F8
:1037980041AC18AD197A0E75F006E509A42420F994
:1037A800121213E9F508E5087026750A06750B006C
:1037B800780A1218927402121675EEFAEFFB1210BC
:1037C800CF74021216258A0A8B0B850A82850B8311
:1037D800A908740E1216257F0402175174F41216E4
:1037E8007FEAFEEBFF750800E508C3940A504375AD
:1037F8000A06750B00780A121892EEFCEFFDA8086D
:103808007900E875F00EA4C8AAF075F000A42AFAA9
:1038180075F00EE9A42AF9746A28FA740739FB12BC
:1038280010E17402121625E96004A908800605084B
:1038380080B6790A7F0402175174F412167FEAFEE3
:10384800EBFF750800E508C3940A5043750A06752E
:103858000B00780A121892EEFCEFFDA8087900E830
:1038680075F00EA4C8AAF075F000A42AFA75F00E37
:10387800E9A42AF9746428FA740739FB1210E17470
:1038880002121625E96004A9088006050880B679A1
:103898000A7F0402175174F712167F74F012160F7C
:1038A800EAFEEBFF750800E508C3940A5039AC1826
:1038B800AD197A1075F006E508A42423F91212133D
:1038C800E970207C1079FFAA18AB19121147E9702A
:1038D80012EEFCEFFDAA18AB19120511E97004A944
:1038E800088006050880C0790A74101216257F0121
:1038F80002175174F412167F750800E508C3940A7C
:1039080040030239D5A8087900E875F00EA4C8AAC2
:10391800F075F000A42AFA75F00EE9A42AF9746487
:1039280028FC740739FD7A0E75F006E508A42420F2
:10393800F9121213E970030239D07C067D0079FF71
:10394800AA087B00EA75F00EA4CAA8F075F000A4D6
:1039580028F875F00EEBA428FB74642AFA74073B68
:10396800FB1210E78A0A8B0BAE0AAF0B7C067D00B0
:1039780079FFAA087B00EA75F00EA4CAA8F075F0D2
:1039880000A428F875F00EEBA428FB746A2AFA74D0
:10399800073BFB1210E78A0A8B0BAC0AAD0BA80891
:1039A8007900E875F00EA4C8AAF075F000A42AFA08
:1039B80075F00EE9A42AF9747028F582740739F5B0
:1039C800837400F0A37400F005080239039007F02F
:1039D800E06003120FBB120FA37F0402175174F7A4
:1039E80012167F7E00EEC3940A50327C0679FFEEF1
:1039F800FA7B00EA75F00EA4CAA8F075F000A428B6
:103A0800F875F00EEBA428FB74642AFA74073BFBE4
:103A1800121147E96004EEF980050E80C8790A7F23
:103A28000102175174F712167F7E007F00EFC394CE
:103A38000A50357C0679FFC9FDC9EFF87900E875A9
:103A4800F00EA4C8AAF075F000A42AFA75F00EE9E1
:103A5800A42AF9746428FA740739FBCDF9CD121138
:103A680047E970010E0F80C5EEF97F010217517406
:103A7800F712167F7E007F00EFC3940A500DEE7098
:103A88000AEFF9120F79E9FE0F80EDEEF97F0102D6
:103A9800175174F012167F74C912160FE9FE900CB4
:103AA800A7E06E701D7A017B00900748E0F91211BB
:103AB80029E97A027B00900748E0F9121129E912F6
:103AC8000FC774291216757A0E75F006EEA4242015
:103AD800F9121213E96003023BCE7C0679FF7429C0
:103AE80012166D121147E96003023BCE7C0E7D0071
:103AF80079FF742912166D1210E7851882851983CB
:103B0800EAF0A3EBF07C1B7D0079FF740E12166DB2
:103B18001210E78A0A8B0B850A0E850B0F7C0C7D29
:103B28000079FF740212166D1210E78A0C8B0D854E
:103B38000C0A850D0B74291216757A0E75F006EEAF
:103B4800A42420F912120DE9F508740E1216757ADC
:103B58001B75F006EEA42421F912120DE94208742F
:103B68000E1216757A1B75F006EEA42422F91212AD
:103B78000DE94208740E1216757A1075F006EEA457
:103B88002423F912120DE94208740E1216757A10E0
:103B980075F006EEA42424F912120DE94208740EF9
:103BA8001216757A0475F006EEA42425F912120D82
:103BB800E9420874021216757A0C74702EF9121202
:103BC8000DE942088003750800A908743712162504
:103BD8007F0802175174F712167FE9FEEE90074826
:103BE800F0120F617F0102175174F212167F890AD1
:103BF800EAFEEBFFEE5400F8EF5480F9E84960352F
:103C0800900748E0F912110B8A0C8B0DA80CA90D2E
:103C180088088909E8496012AA08AB09120F8BE9DC
:103C28006008AA08AB091210F9E9EE6400FAEF641B
:103C380080FB023CF5EE5402602D7C007D007A008A
:103C48007B00120F3DE960187A017B00900748E07D
:103C5800F9121123E9EE6402FAEF6400FB023CF565
:103C68007A027B00023CF5EEA2E0507D9007FCE072
:103C7800F8A3E0F5838882A3A3A3E0FAA3E0FB12EC
:103C88000FC1E9605E900762E0F8A3E0F9E84960D7
:103C980045900762E0F8A3E0F5838882A3A3E0F8E3
:103CA800A3E0F9E849602F7C0079019007FCE0F86F
:103CB800A3E0F5838882A3A3A3E0FAA3E0FB90071F
:103CC80062E0F8A3E0F5838882A3A3E0F8A3E0F517
:103CD80083888212167D120FC7EE6401FAEF640022
:103CE800FB800A7A017B0080047A007B007F060251
:103CF800175174F712167FEAFEEBFF7508018E82E2
:103D08008F83E02450601314601924E1701CEEFACC
:103D1800EFFB120F1FE9F5088010EEFAEFFB120F08
:103D2800918007EEFAEFFB120F97A9087F0102179F
:103D38005174F712167FEAFEEBFF8E828F83A3A3DE
:103D4800A3A3E0641E701179008E828F83A3A3E081
:103D5800FAA3E0FB120F0DE97F0102175174F61266
:103D6800167F8A088B09850882850983A3A3A3A3E4
:103D7800E07034AE08AF098E828F83A3A3A3A3A3F8
:103D8800A3A31218A98E828F83A3A3A3A3A3E0FCE5
:103D9800A3E0FD8E828F83A3A3E0FAA3E0FB120FBA
:103DA800137402121625E97F0202175174F71216CE
:103DB8007FEAFEEBFF900748E0F98E828F83A3E04D
:103DC800FAA3E0FB120793E97F01021751C082C0F2
:103DD8008374FF12160F120F6DE9C39402400B850E
:103DE80018828519837402F08009851882851983E1
:103DF800740AF0AC18AD197A01790512061FE97436
:103E080001121625D083D08202011F74F212167F88
:103E180074E812160F8A088B09E9FE8C0A8D0B7C50
:103E2800187D007900AA18AB191210E78A0C8B0DBF
:103E3800AC0CAD0D851882851983E508F0A3E5095A
:103E4800F090074AE0C0E0740212165BD0E0F090F0
:103E5800074BE0C0E0740312165BD0E0F0900CA6AC
:103E6800E0C0E0741712165BD0E0F0741512165B10
:103E7800E054FEFAA3E054FFFB900CA5E0A2E0E4B6
:103E880033F87900EA48F8EB49F9741512165BE83B
:103E9800F0A3E9F0900CA5E0A2E15004D2F0800272
:103EA800C2F0741512165BE054FDFAA3E054FFFB50
:103EB800A2F0E433F87900E828F8E933F9EA48F899
:103EC800EB49F9741512165BE8F0A3E9F0900CA51C
:103ED800E0A2E35004D2F08002C2F0741512165B1F
:103EE800E054F7FAA3E054FFFBA2F0E433F50C75B5
:103EF8000D007403780C1215FCEA450CF8EB450D1F
:103F0800F9741512165BE8F0A3E9F0900CA5E0A28D
:103F1800E45004D2F08002C2F0741512165BE0542B
:103F2800EFFAA3E054FFFBA2F0E433F50C750D00A3
:103F38007404780C1215FCEA450CF8EB450DF9747D
:103F48001512165BE8F0A3E9F0900CA5E0A2E55085
:103F580004D2F08002C2F0741512165BE054DFFA46
:103F6800A3E054FFFBA2F0E433F50C750D007405D3
:103F7800780C1215FCEA450CF8EB450DF97415128E
:103F8800165BE8F0A3E9F0900CA5E0A2E25004D299
:103F9800F08002C2F0741512165BE054FBFAA3E03D
:103FA80054FFFBA2F0E433F50C750D007402780C95
:103FB8001215FCEA450CF8EB450DF9741512165B61
:103FC800E8F0A3E9F090074BE0602A750C10750D36
:103FD80000780C1218927C4C7D07740612165BAAA6
:103FE80082AB831210CF74021216258A0C8B0D85B2
:103FF8000C82850D8390075CE06011EE600E7415ED
:1040080012165BE04402F0A3E04400F090075CE085
:10401800600678017900800478007900741412161B
:104028005BE048F0900749E0600678047900800476
:1040380078007900741412165BE048F0AC0AAD0BF6
:10404800AA18AB19120535E974181216257F06024D
:10405800175174F712167FEAFEEBFF7508009007F8
:104068005CE0600678017900800478007900E84215
:1040780008900749E06006780479008004780079A0
:1040880000E84208A908EEFAEFFB1205EFE97F0104
:1040980002175174F212167F74E312160F8A0C8BF2
:1040A8000DE9FF8C0A8D09742B12165BE0F5087474
:1040B800086509700A75F006EFA42422FE800875C9
:1040C800F006EFA42421FE7C1B7D00790074021207
:1040D800166D1210E7851882851983EAF0A3EBF0B4
:1040E80074021216757A1BEEF9121213E9703874FD
:1040F8001C12165BE0C39407402D741C12165BE07B
:10410800C394115022E508F50B780B121896740326
:10411800121675E50AA2E0E433F9AA0CAB0D1205F4
:10412800477401121625E9741D1216257F06021719
:104138005174F712167F120805E97E00EEC3940A3F
:10414800505C7C0679FFC9FDC9EEF87900E875F086
:104158000EA4C8AAF075F000A42AFA75F00EE9A416
:104168002AF9746428FA740739FBCDF9CD1211477E
:10417800E97028EEF87900E875F00EA4C8AAF07581
:10418800F000A42AFA75F00EE9A42AF9746428FA52
:10419800740739FB790012080BE9F80E809E7F013D
:1041A80002175174F612167F74FD12160FEAFEEB11
:1041B800FF9007FEE0F8A3E0F9E8497039750800B8
:1041C80075090878081218927508027509007808A8
:1041D8001218927508BA75098478081218927CFF2B
:1041E8007DFF7A017B00120661740612162590077E
:1041F800FEEAF0A3EBF09007FEE0F8A3E0F9E84947
:1042080070030242C8E4F508F50978081218927498
:10421800041216658808890978081218927404121D
:1042280016658808890978081218929008001218EB
:10423800A979029007FEE0FCA3E0FDEEFAEFFB127D
:1042480007817408121625E9704A85188285198332
:10425800E0FA7B00740112165BE0F87900E4C8F913
:10426800EA28F508EB39F509E508450960267808D4
:104278001218929007FEE0F8A3E0F5838882A3A3C2
:10428800A3A3E0FCA3E0FDEEFAEFFB120F13740208
:10429800121625E9E4F508F509780812189290082D
:1042A800001218A97CFF7DFF9007FEE0FAA3E0FB4F
:1042B80012066D74041216259007FEEAF0A3EBF0BF
:1042C8009007FEE0F8A3E0F9E8497004790180025C
:1042D800790074031216257F02021751C082C08329
:1042E8009007FCE0F8A3E0F9E84960179007FCE0C4
:1042F800FAA3E0FB1210F9E9F89007FC7400F0A3A8
:104308007400F0900CA7740AF0D083D08202011FC9
:10431800C082C083E9900BB7F002454274F71216C9
:104328007FE99002E1F07C197D037AFF7BFF120799
:10433800999002E274FFF0A3F0A3E4F0A3F07905EA
:104348001207279002E1E0F91206497AB17B0712B9
:10435800095B7F0102175174F412167F8A088B09D2
:10436800EB548060309002E1E0F912110B8A0A8B5D
:104378000BAE0AAF0BEE4F60138E828F83E064B0F2
:104388007003120739EEFAEFFB1210F9AA08E509D3
:104398006480FB80047A007B0002451174F21216D7
:1043A8007F74FC12160FEAFEEBFFEE4F60387402C2
:1043B80012165BEEF0A3EF124776ECF0A3ED12476E
:1043C80076AA82AB83120643E9F508707374121259
:1043D800165B12532AE50A450B60658E828F83129D
:1043E8004452EE4F700575080280557A067B00121C
:1043F80011958A0C8B0DA80CA90DE8497005750854
:1044080013803D88828983E412445CA3A3EEF0A361
:10441800EF1257C3E50AF0A3E50BF09002E7124448
:10442800E49002E76017E0FCA3E08003EAFCEBFD00
:104438008C828D831244E470F38C828D8312524FE8
:10444800A90874041216250259C5A3A3A3A3E0FE64
:10445800A3E0FF22F0A3F0888289832274F2121667
:104468007F890AE975F017A4FEAFF09002E6E4F040
:104478009002E41244E4600A12119B9002E4E4F012
:10448800A3F0EEFAEFFB1211958A088B09EA4509A9
:10449800602FEEFCEFFD79001210E79002E4E508CA
:1044A800F0A3E509F07B0080081244CEE4F0A3F005
:1044B8000BEBC3950A40F2E50A9002E6F07900801A
:1044C8000279130259C5EB75F017A4F8A9F0900208
:1044D800E4E028FAA3E0398A82F58322124FE5EA5C
:1044E8004B2274F412167F7900EAA2E0501B75087B
:1044F8005E75098478081218927C047D007AB97B6D
:104508000B12072174021216257F04021751C0826C
:10451800C0839002E7124549601C88828983A3A35F
:10452800E06A7003A3E06B8882898370E8A3A3A381
:10453800A3124FE180047A007B00D083D08202016D
:104548001F125A98E8492274EE12167F74FC12164C
:104558000FEAFEEBFF851882851983E4F0A3F0EEDD
:104568002402125233EE2405124764EE2404F50E99
:10457800EF124B49E024FE603924FC604624FE60BB
:104588005224FE605E24FE700302466924FE700316
:104598000246E124FE70030246F024FE7003024640
:1045A800FF24FC700302470E24FE700302471D021D
:1045B800475A9003007417F0A3E412477E1203C110
:1045C80002475A851882851983AC82AD8312073F4A
:1045D80002472A851882851983AC82AD8312074564
:1045E80002472A850C08850D09740212165BAC82F5
:1045F800AD83850882850983124FE11206678A0C0C
:104608008B0DAC0CAD0DEC4D6042E4F50CF50D785E
:104618000C121892750C00750D03780C121892750F
:104628000C01750D03780C121892740812165B129F
:1046380018A97916124FDB1207817408121625E99A
:10464800F50C700B124FD71203D9800F750C01852A
:10465800088285098312476C12524F850C0802475D
:104668002D740212165BAC82AD83850C82850D8396
:10467800124FE11206678A108B11AC10AD11EC4D88
:104688006043850C82850D83A3A31218A9751000B9
:1046980075110378101218927510017511037810AE
:1046A800121892740812165B1218A97916124FDBA9
:1046B8001207817408121625E9F509700B124FD7F5
:1046C8001203DF800F750901850C82850D8312475F
:1046D8006C12524F850908804C851882851983AC65
:1046E80082AD8312074B803A851882851983AC8284
:1046F800AD83120751802B851882851983AC82AD52
:1047080083120757801C851882851983AC82AD8374
:1047180012075D800D851882851983AC82AD8312DE
:104728000763E9F508E50860298E828F83A3E064B2
:1047380014601F850E82850F83E090030012477670
:10474800125A9490030112524FE508A312477E12A1
:1047580003BBEEFAEFFB1206E502513BF50CEF3412
:1047680000F50D22125A9885188285198322F08542
:10477800188285198322F07C007D03850A82850BC7
:1047880083124FE52274EE12167F74FC12160F8AFC
:104798000A8B0B8C0E8D0FEA2405F508EB3400F517
:1047A800097C157D0079007A007B031210E7E50883
:1047B8002402F50CE5091247678518828519838557
:1047C80082108583117810121892850882850983D2
:1047D800A3A3A3A3124C91121892E5082405F5107F
:1047E800E5093400F5117810121892850C82850DB0
:1047F80083124FEB12066174061216258A108B116C
:10480800AE10AF11E50A2402F50AE50B125236EE96
:104818004F70030249538017740212165B124FE15E
:1048280088828983EAF0A3EBF0900300E004F0901B
:104838000300E0C394054003024953E4F510F51161
:1048480078101218927510E97511027810121892E2
:104858007510EA7511027810121892740612165B18
:104868001218A97910EEFCEFFD124FDB12078174C4
:1048780008121625E9705E850882850983A3A3A31B
:10488800A3A3A3A3E0F89002E9E0687048124C9152
:104898001218927CEA7D02E5082408FAE50934003A
:1048A800FB1210E17402121625E960298E828F83AB
:1048B800A3A3A3A3124FE1900300E0F510740278BC
:1048C800101215FC74012510F58274033511F58357
:1048D800EAF0A3EBF0740212165B8582108583114F
:1048E8007810121892740212165B1218A9850C829D
:1048F800850D83125AA912066D74041216258A10A2
:104908008B11AE10AF11900300E0F5107511007413
:104918000278101215FC74002510F874033511F98B
:1049280088828983A31244E47003024817E82403A9
:10493800F8E93400F9EE4F60030248208882898341
:1049480074FFF0A3F0900300E004F0900300E0602F
:104958000A124FD71203CD7900800B85088285098A
:1049680083125246790A02513B74EA12167F74FE8A
:1049780012160F8C128D13EA2405F50CEB125AB39C
:10498800124456750800750900EA2402F510EB3444
:1049980000F51185188285198385820A85830B782D
:1049A8000A121892850C82850D83A3A3A3A3124B28
:1049B80053121892E50C2405F50AE50D12523678C3
:1049C8000A121892850C82850D83125AA712066165
:1049D80074061216258A0A8B0BEA450B7003024BE4
:1049E80004EA2404F50EEB124B491244568A828BD2
:1049F80083A3A3A3E0F9851082851183124FE112E6
:104A0800064FE9F5096003024B04E4F514F515783F
:104A1800141218927514E975150278141218927503
:104A280014EA7515027814121892740612165B129D
:104A380018A97913AC0AAD0B851082851183124F22
:104A4800E11207817408121625E9F5096003024B83
:104A5800049002E9E0F8E5087009E02402900301F7
:104A6800F08017900301E0FCE82402FAE43400FB2C
:104A7800EA6C7001EB6003024B08850882AA821277
:104A88004C889414124C805073850E82850F83E0F5
:104A9800C0E074022A124B40D0E0F00508850E826F
:104AA800850F83A3E0C0E085080A7402250A124B2B
:104AB80040D0E0F005089002E9124B531218927C9E
:104AC800EA7D0285080A7402250AFA74033400FB99
:104AD8001210CF74021216259002E9E02508F50895
:104AE80074FF6E700374FF6F6012EE24010EEF34D2
:104AF80000FFE508C39414500302499BE5086013BE
:104B0800124ECC851082851183124FE11203D3799E
:104B1800008014E509700375090A851282851383DC
:104B2800EEF0A3EFF0A90974021216257F0E021702
:104B38005185080C7402250CF58274033400F58342
:104B4800223400F50F850E82F583221257D622747F
:104B5800EE12167F74FE12160F8C0E8D0FEA2405C6
:104B6800F50CEB124767750B00900300E4F0F50AAB
:104B7800EA2402F508EB3400F5098049900300E0C7
:104B8800FA9002E9E0F8124C889417124C80400D14
:104B9800900300E0F87416C3989002E9F0124C9163
:104BA8001218927CEA7D0274012AFA74033400FB1D
:104BB8001210CF74021216259002E9E0F890030053
:104BC800E028F0050AE50C2416F582E50D124B44A1
:104BD800E0F8E50AC3984003024C69900300E0C37B
:104BE8009416507DE50AC333F8E433F9E50C28FE42
:104BF800E50D39FF851882851983AC82AD838E82D5
:104C08008F83124FE11206678A108B11AC10AD1119
:104C1800EC4D7005750B018043E4F510F511781023
:104C28001218927510E97511027810121892751001
:104C3800EA7511027810121892740612165B12188F
:104C4800A97916850882850983124FE112078174B4
:104C580008121625E9F50B7003024B8412524280A4
:104C6800107C007D03850882850983124FE11203B9
:104C7800E5A90B740202513DE99400C365D03322C3
:104C8800EA28F8E43400F9E822E0F5107511007814
:104C9800102274EA12167F74FC12160F8A0C8B0D00
:104CA8008C128D13EA2405F50AEB125236750800AA
:104CB800750900E50A2402F510E50B3400F51174B6
:104CC8000212165B85820E85830F780E1218928564
:104CD8000A82850B83A3A3A3A3125782121892E515
:104CE8000A2405F50EE50B3400F50F780E1218921C
:104CF80085108285118312523C124FDB12066174B3
:104D0800061216258A0E8B0FAE0EAF0FE50C240285
:104D1800F50EE50D3400F50F80408882898374FF15
:104D2800F00508124B3974FFF005089002E9E0F528
:104D38000C750D00780C1218927CEA7D0285080C1F
:104D48007402250CFA74033400FB1210CF7402129B
:104D580016259002E9E02508F508EE4F60718E826D
:104D68008F83A3A3A3E0F9850E82850F83124FE1F9
:104D780012064FE9F509EE2404124764E97044E489
:104D8800F514F51578141218927514E9751502784A
:104D9800141218927514EA75150278141218927480
:104DA8000812165B1218A97911EEFCEFFD850E8228
:104DB800850F83124FE11207817408121625E9F551
:104DC800096027850C82850D83124EC212524FE569
:104DD800087003024EA8124ECC850E82850F8312EE
:104DE8004FE11203EB7900024EBD850882AA82EAE0
:104DF8009002E97009E02404900301F08022E0F8B1
:104E0800900301E0F514E82404FCE43400FDEC65AB
:104E1800147001ED70C0124C889412124C8050B678
:104E2800850C82850D83E0C0E074022A124B40D0C5
:104E3800E0F00508850C82850D83A3E0C0E0124BE5
:104E480039D0E0124EDE85820C85830D780C12185D
:104E580092740412165B1218A985108285118312A8
:104E68005AA912066D74041216258A0C8B0DAE0C05
:104E7800AF0D85080C7402250CF874033400F9EEA4
:104E88004F7003024D22851882851983E088828934
:104E980083124EDEA3E0C0E0124B39D0E0024D3061
:104EA800E509700375090A850A82850B83124EC2CB
:104EB80012524FA9097404024B31125A9885128272
:104EC80085138322900301E0F5F0E5088490030040
:104ED800F07C007D0322F00508851882851983225D
:104EE80074EC12167F74FE12160F8A088B098C0E4A
:104EF8008D0FEA2405FEEB3400FF8518828519839F
:104F0800AC82AD838E828F83124FE11206678A0AC4
:104F18008B0BEE2418124764EA450B7003024FB25C
:104F28001251245032851882851983124FE11207D5
:104F3800758A108B11EA4511606B7912AC0AAD0BBA
:104F4800850882850983124FE185108285118312B5
:104F5800167DE9F50A7058E4F50AF50B780A121877
:104F6800928E828F83A3A3E0F50A780A121892EE34
:104F78002403125233780A1218928E828F83124FAA
:104F8800EB1207877406121625E9F50A7021850CBD
:104F980082850D83E0701F850882850983124FE1A1
:104FA8001203F18011750A0E8009750A018004E563
:104FB8000A6003125242850C82850D83E0600479F1
:104FC800008002A90A74021216257F0C0217517C70
:104FD800007D03850A82850B83124FE522E0FAA340
:104FE800E0FB22E0FCA3E0FD850882850983124FDF
:104FF800E52274EE12167F74FE12160F8A088B09CA
:105008008C0C8D0DEA2405FEEB3400FF750E00852F
:105018001882851983AC82AD838E828F83124FE10B
:105028001206678A0A8B0BEA450B700302511012AD
:1050380051245035851882851983124FE11207755E
:105048008A0E8B0FEA450F605E7912AC0AAD0B85AC
:105058000882850983124FE1850E82850F83121617
:105068007DE9F50E600302511385088285098312D4
:10507800532AAA0AFB1207698A108B11A810A911D2
:10508800E849701E7AFF7BFF1207698A108B11A806
:1050980010A911E849606C88828983E50AF0A3E5C4
:1050A8000BF0750A008007750E0E805F050A9002E6
:1050B800E6E0FAE50AC39A504AE50A75F017A4FA39
:1050C800ABF088828983A3A3E02AFAA3E03BFB8A9A
:1050D800828B8312523CEC4D70D2750A17750B0007
:1050E800780A121892EEFCEFFD1210CF7402121615
:1050F80025EEFCEFFD850882850983124FE1120336
:10510800F78014750E098003750E01125A90850CEC
:1051180082850D8312524FA90E024C7BE5082402AA
:10512800F508E5093400F5098A828B83A3A3A3E077
:10513800A2E52274041216257F0A02175174EC1294
:10514800167F8C108D11EA2405F50CEB1247677554
:105158000F00EA2402F50AEB125236850A82F5831B
:10516800124FE11207698A088B09EA4509700302A0
:105178005228750E008071850C82850D83E06401CC
:10518800704F8E828F83A3A31218A98E828F83A358
:10519800A3A3A3E0F5127513007812121892EE2457
:1051A80005F512EF3400F5137812121892124FDB3E
:1051B8001207877406121625E9F50F6014850C820C
:1051C800850D83E4F0125A9085108285118312525E
:1051D8004F7C177D007900EEFAEFFB1210E78E8204
:1051E8008F83E4F0A3F0050E9002E6E0F8E50EC325
:1051F80098501EE50E75F017A4F8A9F08508828569
:105208000983A3A3125ABD12523CEC4D600302510C
:105218007F85088285098374FFF0A3F0E50F700687
:10522800124FDB1203FDA90F024FD2F50AEF34002B
:10523800F50B22A3E0FCA3E0FD228E828F83125A95
:1052480098850E82850F83E8F0A3E9F022C082C01A
:10525800839002E2E06A7003A3E06B70067AE27B57
:105268000280047A007B00024542C082C083780035
:105278008C828D83E06A7003A3E06B7010E875F090
:1052880003A4F8A9F0EC28FAED39FB8015088C8204
:105298008D83A3A3A3E06A7003A3E06B60DF7A00A9
:1052A8007B0002454274F612167F1207338A828BFE
:1052B80083E582458370067A007B008007A3A3A359
:1052C800A3124FE102594174F212167FE9FE740EDF
:1052D80012165B12532A741012165B1257A28C8294
:1052E8008D83E064027036A3125A9EF50CA3E0F990
:1052F800A80C74026870037429697021750C027512
:105308000D00780C1218927808121892780A121860
:1053180092EEF91207AB7406121625800279010283
:1053280059C5E0F50AA3E0F50B2274E812167F745C
:10533800FB12160FE9851882851983F08A168B17D8
:10534800ECFEEDFF751000741D12165B125A947472
:105358001D12165B12524F8E828F83A3A3A3E0A265
:10536800E4502D741D12165B124FE11207758A82E4
:105378008B83E58245837003025773790AEEFCEF4D
:10538800FDAA16AB1712167DE9F5106003025776D1
:10539800741F12165B1257A2742112165B12532A3D
:1053A800742312165BE0F50EA3E0F50F8E828F834F
:1053B800E064026003025721A3125A94850882858B
:1053C8000983A3858212858313EE24061247648815
:1053D800828983E0FAA3E0F9EA2400F514E439F5B8
:1053E80015781412191C010000280128165407000A
:1053F8000228DB54032848540029125601293D5637
:105408000229DE55032912560429BC562157E50EF8
:10541800450F600302571C850C82850D8312579730
:10542800FAE9FB8A828B83E0850A82850B8312570F
:10543800CD1218928A828B83A3E0FCA3E00256A6C1
:10544800E50E450F600302571C850A82850B83749D
:1054580001F01257AA850882850983F07C007D0037
:105468008E828F83A3A3A3A3E02401FAA3E03400D0
:10547800FB120667EA4B60418A828B83E02402F8BC
:10548800850A82850B83E028F0EA2404F8EB3400CF
:10549800F988828983E08512828513831257DF1287
:1054A80057CD1218928A828B8312523BE508240347
:1054B800FAE5093400FB0256AB850A82850B83E0C6
:1054C8002404F07C047D007900AA12AB131210E7C3
:1054D800025776E50E450F600302571C1257AAFEC5
:1054E800A3E0FF850A82850B837404F0EE850882A9
:1054F800850983F0EF851282851383F074031216F1
:105508005BAC82AD83EEFAEFFB1206678A0C8B0D5B
:10551800EA450D70030255BF8A828B83A3A3124408
:1055280052740112165B85820E85830F780E12184D
:1055380092740512165B1218A97CFF7DFF12066D86
:1055480074041216258B0FEA450F7033850C82857B
:105558000D83125782121892850C82850D83A3122F
:1055680018A97C027D007AC87B84120499740412FD
:105578001625E9700A740112165B74FFF0A3F08E09
:10558800828F83E064027039750C02750D00780C07
:105598001218928E828F8312523BE5082404FAE592
:1055A800093400FB1210CF7402121625850A828571
:1055B8000B83E024028009740112165BEEF0A3EF5E
:1055C800F0740112165B125793F0740112165BA364
:1055D80012578B025716E50E450F600302571C85BC
:1055E8000C82850D8312523CAA16AB1712079F85B1
:1055F8000A82850B837402F0EA850882850983F0A4
:10560800851282851383EB025719E50E450F600357
:1056180002571C1257AAF8A3E0F9850A82850B8362
:105628007402F0E8850882850983F0E9851282858D
:105638001383025719850C82850D83124FE11210CE
:10564800C9EAFC8C82A882C3950EE4950F405FE8F6
:10565800650E7002E50F70047C0080228518828533
:105668001983E0FAE50E2AFAE50F3400FBC3EA983D
:10567800EB94005003E08005E50ECCC39CFCEC8560
:105688000A82850B83F08C0A750B00780A1218922F
:10569800850C82850D83E0250EFCA3E0350FFDAA5D
:1056A80008AB091210CF740212162502577675102E
:1056B80007025776E50E450F705A850C82850D83D3
:1056C800125A94850A82850B83740712445E125716
:1056D8008B12445EA3E0851282851383F0E82402CE
:1056E800FAE93400FB8A828B8312578B1257BA125D
:1056F8005793A31257C312579CF0E82405F8E934CE
:1057080000F98882898312579CA31257DFA3A3A3A9
:10571800A3F0805A75100B8055741D12165B124F3A
:10572800E11207338A828B83E5824583603D125AF2
:1057380094880C890DE8450D6031780E121892781E
:105748000A1218927808121892740612165BE0F979
:10575800EEFCEFFDAA16AB17850C82850D83121699
:105768007D7406121625E9F510800375100EA91030
:1057780074051216257F10021751E0F50E750F00FB
:10578800780E22E0850882850983221257E92212C1
:105798005A98E8221257E9A3A322E0F508A3E0F5F6
:1057A8000922850C82850D83E0F8A3E0F5838882C1
:1057B800E022A3A3F08A828B83A322F088828983C4
:1057C800A3A3A3A322F08A828B831257D622E0F5E3
:1057D8000A750B00780A22F088828983A31257E998
:1057E80022E0850882850983A3A32274EE12167F1E
:1057F80074FE12160F8A0A8B0BECFAEDFB74141266
:10580800165BE0F510A3E0F511741612165BE0FEC6
:10581800741812165BE0F50EA3E0F50F8518828563
:105828001983AC82AD831206678A0C8B0DEA450D8D
:105838006049851882851983124FE11207338A82DD
:105848008B83E5824583602FA3A31257A2E5084501
:10585800096024780E1218927810121892EEF9AC9A
:105868000CAD0DAA0AAB0B85088285098312167D3B
:1058780074041216258006790E80027901024C7B89
:1058880074F612167F74FE12160F740C12165B1241
:105898005797851882851983F0740112165BE9F011
:1058A800E4F508F5097808121892750802780812C4
:1058B8001892740412165B85820885830978081289
:1058C800189212078774061216257402121625807C
:1058D8006874F712167FEAFEEBFF89087C197D03CE
:1058E80012079FEA5402600BA908EEFAEFFB1206B2
:1058F8005B8002790102435A74F612167F74FF6ABC
:10590800700374FF6B70168C828D83125946E4F015
:105918008C828D83A3A3A3125946A3801812076F04
:105928008A088B09A808A909E849600D8882898333
:1059380074FF12445CA3A3E4F07F0202175174FFC2
:10594800F0A3F08C828D83A3A32274F612167F1223
:10595800076F8A828B83E58245836006A3A3E0FAFA
:1059680080027A007B0080D174F212167F8A088B3D
:1059780009ECFEEDFF740E12165BE0F50A12076FD4
:105988008A0C8B0DA80CA90DE8497026EEFCEFFDDA
:105998007AFF7BFF12076F8A0C8B0DA80CA90DE804
:1059A8004970047911801688828983E508F0A3E597
:1059B80009F088828983A3A3E50AF079007F0602AB
:1059C800175174EE12167FEAFEEBFF8C088D0989D9
:1059D8000C741412165B125A94741612165B124F3A
:1059E800E1750D00E8496003025A887402650C608D
:1059F80003025A83741212165B125A9EFCA3E0F932
:105A0800EC2400F50EE439F50FEAF4F8EBF4F9ECC0
:105A180058F8E50F59F9E849705CE5082406F8EDEF
:105A28003400F9880A890B8882F583125AA912076B
:105A38009F8A108B11E50E65107004E50F651160E3
:105A480042780E121892850A82850B83125AA9127F
:105A580007A57402121625E9F50D7027780E12189D
:105A680092850882850983A3A3125AA71207B774DF
:105A780002121625800D750D808008750D0D8003A6
:105A8800750D0BA90D0251408E828F83125A9822F0
:105A9800E0F8A3E0F922125A9888828983E022A3C9
:105AA800A3E0FCA3E0FDEEFAEFFB223400F50D8540
:105AB8000C82F58322E028FEA3E039FF8E828F83D3
:105AC8002274F212167FEAFEEBFF890B7401650B54
:105AD800600E7402650B706A7901120979E97062C7
:105AE800EEFAEFFB1207698A088B09EA4509604755
:105AF800750A00800B7C177D0079001210E7050AF3
:105B08009002E6E0F8E50AC3985021E50A75F01717
:105B1800A4F8A9F0850882850983A3A3E028FAA33D
:105B2800E039FB8A828B8312454970C985088285D2
