:020000040000FA
:0600000002010702217F4E
:03002B000225D7D4
:03003B000225FC9F
:030043000225870C
:030053000221F295
:03007B000225AFAC
:10008300021FEBE5C754F84401F5C77901220000CC
:100093000080FB120086B900030200F1E4792178A5
:1000A30008B800028004F709D8FCE479297802B87B
:1000B30000028004F709D8FCE49002817879790979
:1000C3008002F0A3D8FCD9FA7AF97B0A9001377839
:1000D3008479038015E493A3AD82AE838A828B83F4
:1000E300F0A3AA82AB838D828E83D8E9D9E7758288
:1000F3001B7583DA74031201197582917583007479
:100103000012011975D00075813F751881751902A8
:10011300759F00020096C09FF59FE473D09F22D085
:1001230083D082C09FE493C0E0740193C0E0740263
:1001330093F59F22FF0000B4000028002800283018
:1001430075A000A000A000A00000080008E001F0D6
:10015300001000100010001000100010005000509C
:1001630000500010001000D0070000000000000F36
:100173000001000500307507001000010081FF0039
:10018300000000FFB805D605BE05FF020202080203
:100193005000A0000000E8030239850100000C852F
:1001A300023385010000500B023F85010000B302BA
:1001B300023385010000510B022985010000C902A9
:1001C300023385010000520B022785010000CB0298
:1001D300023385010000530B021585080000CC0291
:1001E300023385010000540B021385010000550BF7
:1001F300FF0100FF200239850100000685023385D7
:10020300010000B90B0211850000000000022D85DA
:100213000300001903880B880B880B880B880B8855
:100223000B880B880B880B880B880B880B880B0AB1
:100233000E220E040E020202020202020202010D4B
:100243000000001001023985010000098502338591
:10025300010000FA0B0223850100004007023385E9
:10026300010000FB0B022185010000748402338529
:10027300010000FC0B021D8501000066840233852A
:10028300010000FD0B021B850100001E8302338564
:10029300010000FE0B021985010000308302338543
:1002A300010000FF0B021785010000428302338522
:1002B300010000000C021F850100005483023385F6
:1002C300010000010C0231850100005884023385CE
:1002D300010000020C022B85010000030C01E8035E
:1002E300053F100AFFFFFF000130750302010600FE
:1002F30000000000000000000000000000000000FB
:100303000000000000000000000000FFFF06008066
:100313000CE803000102030405060708090A0B0C95
:100323000D0E0F0709455F4C6F634B0512500020FC
:1003330003020A00020106030207E208FF9CD21E21
:10034300F3E9C9455F4C6F636B00000000000000D8
:100353000000000000000000F0120000FC120A5729
:1003630072697465204368617200104E6F74696628
:100373007920436861720002398501000003850218
:100383003385010000230D102884030000DE0A02D8
:100393002F85010000240D0233850100002F0D106D
:1003A3003884000000F20A022D85030000F30A02DC
:1003B3002F85010000300D120122E7CD0312012227
:1003C300FECD031201222FCE031201226ACE0312A5
:1003D300012294CE03120122BECE03120122D5CEF6
:1003E30003120122ECCE0312012203CF03120122D6
:1003F3002CCF031201223FCF0312012255CF031248
:10040300012268CF031201228FCF03120122CFDA18
:1004130002120122D3DB021201220BDC021201229F
:100423002EDC0212012239DC021201225CDC0212F0
:1004330001226BDD0212012240DE02120122BBDE29
:100443000212012243DF021201227EDF0212012285
:10045300B5DF0212012243E0021201221CE1021263
:1004630001227CE10212012287E10212012206E24B
:100473000212012209E2021201220CE202120122FB
:100483009BE2021201229EE202120122CEE202123A
:100493000122F8E202120122E6E30212012298E4A9
:1004A30002120122CC9D03120122F49D03120122A8
:1004B300229E03120122599E03120122B79E0312A8
:1004C3000122029F031201224D9F031201228D9FDD
:1004D30003120122D39F0312012201A0031201225E
:1004E300BEA003120122C8A003120122D5A0031249
:1004F300012208A103120122D4A103120122E0A1C7
:1005030003120122F8A10312012202A20312012203
:1005130005D60312012213D6031201222BD603128E
:10052300012243D603120122008002120122AC8071
:1005330002120122278102120122488202120122A1
:100543008482021201222D830212012214840212D8
:100553000122788502120122CF85021201225086E0
:10056300021201224087021201228D870212012208
:10057300138802120122458802120122598A0212AB
:1005830001229B8A02120122B98A021201223C8BA8
:1005930002120122108C02120122D88C02120122B3
:1005A300008003120122D380031201227C810312F3
:1005B3000122CF81031201227F82031201220B83C6
:1005C30003120122F783031201222684031201225C
:1005D30039850312012281850312012256860312F3
:1005E3000122928603120122AE86031201227C7F2E
:1005F30000120122ECAF0312012202B00312012206
:1006030028B00312012244B1031201224EB1031296
:10061300012283B2031201227BB303120122A598A4
:1006230003120122D59903120122089A031201220F
:10063300529A03120122199C03120122D8D10112EA
:10064300012242D201120122A1D301120122B1D30C
:1006530001120122DED30112012235D4011201223B
:10066300DED401120122E5D501120122AFD6011217
:1006730001220FD80112012252D801120122F7D808
:100683000112012244D9011201226AD90112012265
:1006930078DB011201227DDB0112012282DD0112CE
:1006A3000122CFDD0112012242DE0112012275DE99
:1006B3000112012217DF01120122C0DF0112012200
:1006C300F8DF01120122FBDF0112012243E00112D4
:1006D300012283E001120122DAE001120122E8BFC4
:1006E3000312012200C00312012248C00312012297
:1006F3005EC003120122A5C003120122B9C1031275
:10070300012246C20312012291C203120122A8430D
:1007130000120122B44300120122EF43001201220E
:10072300344400120122F444001201227A450012DB
:100733000122A64500120122DF45001201221D48B5
:1007430000120122014A00120122E74B001201228A
:100753002A4D00120122784F001201228A50001202
:100763000122D55100120122E55200120122025347
:10077300001201223D53001201225F530012012295
:10078300C253001201228358001201221859001289
:100793000122695900120122905900120122E259E3
:1007A30000120122005A001201225A5A0012012299
:1007B300595B00120122DD5B0012012289A20312A0
:1007C300012293A203120122D6A203120122F1A253
:1007D3000312012281A303120122A9A303120122FE
:1007E300E6A3031201221DA40312012246A403124D
:1007F3000122BBA403120122D0A403120122E5A407
:100803000312012216A5031201222AA503120122B3
:100813004FA50312012289A503120122B5A50312D4
:100823000122EDA5031201226CA603120122B5A633
:1008330003120122DFA6031201220AA703120122D7
:10084300DBD30312012287B802120122B5B80212C8
:10085300012203BA02120122E3BA0212012202BBED
:10086300021201227FBB02120122C2BB0212012229
:1008730018BD02120122D9BD0212012260C0021268
:10088300012201C102120122F7C102120122F4C2A4
:10089300021201224EC402120122D9C40212012201
:1008A30046D103120122AFD10312012203D2031254
:1008B30001222AD2031201225BD20312012232A7A0
:1008C300031201229FA703120122E6A703120122AA
:1008D300FEA803120122FAA903120122DDAA0312C0
:1008E300012209E5021201224BE5021201221DE653
:1008F30002120122F6E602120122F0E7021201229D
:10090300D2E8021201223BE902120122F1E90212AA
:10091300012265EA02120122D1EA02120122FAEA55
:100923000212012274EB021201220DEC02120122C7
:1009330072EC0212012287EC02120122CDEC0212A8
:100943000122E6EC021201224BED021201224EEDCE
:100953000212012216BA031201223EBA0312012225
:100963007CBA031201223ABB03120122A1BB031278
:100973000122BDBB03120122E5BB0312012215BCF8
:100983000312012224BC03120122A1BC031201227F
:10099300C7BC03120122C7E101120122A5E3011220
:1009A3000122D7E50112012213E60112012240E6DA
:1009B300011201222AE70112012275E70112012225
:1009C300C0E701120122D2E70112012212E801124B
:1009D300012247E80112012295E801120122C4E82D
:1009E30001120122E7E80112012234E90112012276
:1009F300B9E901120122D3EB0112012212EE011215
:100A0300012253EE01120122F5EF0112012236F009
:100A130001120122A9F001120122FFF001120122A9
:100A230029F10112012272AB0212012270AC0212EF
:100A3300012209B3021201222AB502120122F5B6DC
:100A4300021201225DB802120122445C001201224B
:100A5300F35C00120122395D00120122795E00125B
:100A630001220F6000120122896000120122A4609A
:100A7300001201221F610012012279620012012279
:100A8300D96300120122DF640012012240660012C2
:100A93000122596600120122B76600120122A567DE
:100AA30000120122D86700120122486800120122B5
:100AB300C268001201220C6900120122D6690012D9
:100AC3000122AB6A001201228A6B00120122156C0B
:100AD30000120122836C00120122F76C0012012222
:100AE300226D00120122E16D00120122466F0012F5
:100AF3000122636F00120122826F001201227370C0
:100B030000120122987000120122C2700012012209
:100B13003D7100120122977100120122007300122D
:100B23000122AE7300120122EF7300120122F18E33
:100B3300021201223F8F021201224B8F0212012265
:100B43002990021201225A90021201228B90021262
:100B530001220B9102120122899102120122C191F9
:100B63000212012213920212012250920212012256
:100B73006D94021201229396021201227E980212B0
:100B83000122689A02120122F6FF01120122509AF1
:100B930001120122809A0112012259A1011201229C
:100BA300DEA201120122DBA801120122C3A9011254
:100BB300012200AA0112012223AA0112012254AA2E
:100BC300011201225DAA0112012267AA0112012268
:100BD30055AB011201224BAC0112012241850112D6
:100BE30001224089011201224689011201228190CA
:100BF300011201229A9501120122CFB6031201229A
:100C0300C9B7031201223DB8031201227BB80312B4
:100C13000122EFB80312012268B90312012271B94C
:100C2300031201227DB90312012292B90312012298
:100C3300D0B903120122E6B9031201229FAB0312BA
:100C43000122ACAB03120122C6AB0312012205AC95
:100C53000312012243AC03120122A8AC03120122A6
:100C6300BDAC03120122C8AC03120122D5AC03129E
:100C73000122ECAC03120122FAAC0312012205ADEE
:100C83000312012211AD0312012220AD031201222E
:100C93002BAD031201224EAD03120122F5AD031257
:100CA300012205AE031201221FAE031201223CAE44
:100CB3000312012258AE031201227DAE0312012258
:100CC30088AE031201229DAE03120122B1AE0312BC
:100CD300012212AF0312012218AF031201221EAF29
:100CE3000312012224AF031201223CAF031201229B
:100CF3006FAF03120122489D02120122CC9D021202
:100D030001227B9E02120122DA9F02120122FBA121
:100D130002120122E7A2021201221CA302120122E3
:100D23003EA302120122EDA302120122E5A5021243
:100D330001220EA602120122A0A602120122D2A6AD
:100D430002120122DFA60212012236A70212012299
:100D53005CA702120122C9A902120122CCAA021223
:100D6300012224AB021201225EF10112012268F278
:100D7300011201224FF30112012259F30112012240
:100D83007BF30112012287F30112012220F50112E4
:100D930001224FF5011201226BF601120122C4F662
:100DA300011201222AF80112012209F9011201227A
:100DB30065F901120122D2F9011201220DFA011281
:100DC30001224CFA0112012205FD011201221FFD2D
:100DD30001120122ABFD01120122B9FD0112012210
:100DE30012FE0112012220FE0112012293FE0112C2
:100DF3000122F7FE0112012241FF011201225AC50D
:100E0300021201227CC502120122A2C70212012290
:100E1300B7CA02120122CFCB0212012282CC0212E4
:100E2300012264CD02120122A1CF03120122C6CFF7
:100E33000312012238D0031201227BF50212012290
:100E430084F5021201228DF50212012264F60212C8
:100E5300012215F8021201224BF80212012285F831
:100E630002120122BBF802120122F5F8021201223A
:100E730029F90212012255F9021201229EF90212E6
:100E83000122D8F90212012221FA0212012279FA6F
:100E930002120122AEFA0212012209FB02120122FE
:100EA30043FB0212012294FB02120122CAFB02122B
:100EB300012204FC0212012232FC0212012255FC1F
:100EC30002120122B1D703120122DDD7031201223C
:100ED30038D80312012242D80312012252D8031236
:100EE3000122848D03120122A98D03120122E18DB7
:100EF30003120122FFD803120122802600120122CD
:100F0300922900120122462B00120122EB2B001220
:100F130001228E2C00120122452D00120122742D74
:100F230000120122303200120122C23200120122C9
:100F3300FE33001201226634001201221A35001218
:100F43000122D037001201220A380012012274381C
:100F530000120122D138001201222E39001201227F
:100F63008B3900120122763A00120122BC3A001298
:100F73000122073B001201222A3B001201226D3C91
:100F830000120122813C001201228A3D001201223B
:100F9300C93D00120122F53D00120122443E001218
:100FA3000122653E00120122A33E00120122EA4003
:100FB300001201222B4100120122C9410012012219
:100FC3003B42001201227443001201220DDB031283
:100FD30001220FBD03120122DABF03120122D0DA6C
:100FE30003120122DCD603120122ECD603120122E2
:100FF30006D703120122A3D703120122F5FC021222
:10100300012299FD02120122DBFF02120122F4D414
:10101300031201221BD5031201227ED503120122E2
:10102300D1D50312012253C50312012278C503123D
:1010330001229DC503120122C5C503120122F5C574
:10104300031201228BC603120122B3C6031201222B
:10105300238703120122208903120122A689031286
:101063000122AB8A031201226F8B03120122ED8B43
:1010730003120122D08C03120122D38C031201220A
:10108300E18C03120122FE8C03120122278D03122D
:101093000122508D031201225E8D03120122768DEF
:1010A300031201220ECA0312012237CA03120122BC
:1010B30061CA0312012220CB0312012240CB031287
:1010C30001229ECB031201221F74001201223474E9
:1010D30000120122907400120122FB7400120122FB
:1010E300437500120122AD7500120122D67500125C
:1010F3000122B37900120122C17900120122237A5D
:1011030000120122617A001201227C7A001201226C
:10111300177B00120122BC7B001201223F7C0012CC
:101123000122787C00120122037D001201225A7DE4
:1011330000120122B87D00120122CA7D0012012291
:10114300F07D00120122F97D00120122487F001276
:10115300012207CC031201226ECC0312012219CD06
:10116300031201228FCD0312012285B30312012240
:10117300B8B303120122B6B40312012208B6031254
:101183000122A1D2031201227FD303120122BBC287
:101193000312012200C30312012246C303120122D8
:1011A3000FC50312012299D903120122B4D90312E4
:1011B3000122C4D9031201225CD80312012288D070
:1011C3000212012264D102120122ABD102120122C6
:1011D300E8D10212012256D202120122B0D2021227
:1011E300012220D302120122F0D302120122DFD402
:1011F3000212012263D502120122FFD6021201223A
:101203008AD7021201221AD802120122B3D802127B
:101213000122CAD802120122FDD90212012253DA95
:101223000212012272ED0212012292ED0212012238
:1012330008EF0212012256EF0212012276EF021288
:101243000122DEEF0212012260F002120122A6F057
:101253000212012232F10212012263AE01120122B3
:101263000AB301120122FBB50112012224B60112B5
:1012730001224DB601120122FFB601120122DEB88E
:101283000112012230BA011201227CBF0112012294
:10129300B5BF01120122F9BF0112012205C10112DA
:1012A3000122DFC703120122EEC70312012266C81F
:1012B30003120122FEC8031201221DC903120122D7
:1012C30038C90312012258C903120122C3C10112F2
:1012D3000122AAC201120122DEC4011201221BC58E
:1012E30001120122EAC501120122FDC501120122E8
:1012F30028C60112012235C701120122C5C70112F6
:1013030001227CD101120122389303120122889316
:1013130003120122A59303120122FD93031201225A
:101323007F9503120122689803120122CAFF01125A
:10133300012270DA03120122A7DA03120122EFDA83
:1013430003E066701008A3E066700A08A3E0667005
:101353000408A3E06622C3E7960809E7960809E7AD
:10136300960809E79622C3E09608A3E09608A3E04F
:101373009608A3E09622C008C3E096F50808A3E008
:1013830096420808A3E096420808A3E09645087031
:1013930001D3D00822080808EAC0E0EBC0E086F0D9
:1013A300E7A4FA180986F0E7A42AFA180986F0E7F1
:1013B300A42AFA180986F0E7A42AFA1986F0E7A402
:1013C300FBE5F02AFA190886F0E7A42BFBE5F03ACF
:1013D300FA190886F0E7A42BFBE5F03AFA18180986
:1013E30086F0E7A4C5F02BFBE43AFA1908E7C5F049
:1013F300C6A426F6E5F03BFBE43AFA1886F0E7A428
:10140300F6E5F00826F6E43B08F6E43A08F6D0E001
:10141300FBD0E0FA22E4CFC0E0E4CEC0E0E4CDC0EC
:10142300E0E4CCC0E075F020E626F608E633F608E3
:10143300E633F608E633F6181818EC33FCED33FD03
:10144300EE33FEEF33FFC3EC9709ED9709EE9709EF
:10145300EF97191919400FFFEC97FC09ED97FD0958
:10146300EE97FE191906D5F0BFECF709EDF709EE73
:10147300F709EFF7191919D0E0FCD0E0FDD0E0FE31
:10148300D0E0FF226016080808C6C313C618C613A7
:10149300C618C613C618C613C6D5E0EA22700908D3
:1014A3000808226016181818C6C333C608C633C600
:1014B30008C633C608C633C6D5E0EA22E627F608CF
:1014C30009E637F60809E637F60809E637F622E0B3
:1014D30026F608A3E036F608A3E036F608A3E036BE
:1014E300F622E026F008A3E036F008A3E036F00881
:1014F300A3E036F022C3E697F60809E697F6080953
:10150300E697F60809E697F622C3E096F008A3E00B
:1015130096F008A3E096F008A3E096F022E657F6CB
:101523000809E657F60809E657F60809E657F622CA
:10153300E056F608A3E056F608A3E056F608A3E043
:1015430056F622E056F008A3E056F008A3E056F062
:1015530008A3E056F022E0F608A3E0F608A3E0F6BD
:1015630008A3E0F622E6F008A3E6F008A3E6F008F5
:10157300A3E6F022E0FAA3E0FBA3E0FCA3E0FD2254
:10158300EAF0A3EBF0A3ECF0A3EDF022E0F8A3E084
:10159300F9A3E0FAA3E0FB22E8F0A3E9F0A3EAF061
:1015A300A3EBF022CAC0E0E6F0A308DAFAD0E0FA2F
:1015B30022CAC0E0E0A3C582CCC582C583CDC58362
:1015C300F0A3C582CCC582C583CDC583DAE6D0E05E
:1015D300CA22C3E498F8E499F91216168026C3E4E4
:1015E3009AFAE49BFBE920E7E9121616E498F8E47B
:1015F30099F922C3E498F8E499F9121616E498F8D5
:10160300E499F9C3E49AFAE49BFB22EB20E7CFE9E0
:1016130020E7E0B90010BB0008E88AF084F8AAF0DC
:1016230022E4FBC8FA22EB70227B10C833C8C9330B
:10163300C9335007C39AC3DBF280069A50012ADBF1
:10164300EAC833F4C8C933F4C9FA2275F008E4C808
:1016530033C8C933C933C99AC99B5004C92AC93B82
:10166300D5F0ECFBC833F4C8E4C9FA22600D08C610
:10167300A2E713C618C613C6D5E0F322600C08C64A
:10168300C313C618C613C6D5E0F422700422600D36
:1016930018C6C333C608C633C6D5E0F418222518C6
:1016A30010AF08F518400C15198008F518400215FD
:1016B30019D2AF2200C0D0251810AF08F518500C6E
:1016C30005198008F51850020519D2AFD0D022258C
:1016D30018F58210AF08F518400C15198008F51895
:1016E30040021519D2AF851983222518F582E435F6
:1016F30019F583222518F8E43519F9222518FAE497
:101703003519FB222518FCE43519FD22E47325184D
:10171300C582C0E0E51934FFC583C0E0E518C39571
:101723008224F810AF088583198582188008858381
:1017330019858218D2AFCEF0A3E520F0A37808E68E
:1017430008F0A3DEFAEFF0A3E58124FAF8E608F047
:10175300A3E608F0A3E608F0A30808E608F0A3E66A
:1017630008F0A315811581D0E0FED0E0F8158115AE
:10177300811581E8C0E0EEC0E0222518C582C0E0F3
:10178300E51934FFC583C0E0E518C3958224F91039
:10179300AF08858319858218800885831985821887
:1017A300D2AFCEF0A3E520F0A37808E608F0A3DEDD
:1017B300FAEFF0A3E58124FBF8E608F0A3E608F0CE
:1017C300A30808E608F0A3E608F0A315811581D065
:1017D300E0FED0E0F815811581E8C0E0EEC0E0221C
:1017E300851983851882E0A3FEE0A3F5207808E03D
:1017F300A3F608DFFAE0A3FFE0A3C0E0E0A3C0E0A4
:10180300E0A3C0E0E0A3C0E0E0A3C0E010AF088520
:1018130082188583198008858218858319D2AFD0F1
:1018230083D08202011F851983851882E0A3FEE01D
:10183300A3F5207808E0A3F608DFFAE0A3FFE0A30E
:10184300C0E0E0A3C0E0E0A3C0E0E0A3C0E010AFCD
:10185300088582188583198008858218858319D2A3
:10186300AFD083D08222C0D02518C582C0E0E5194D
:1018730034FFC583C0E0E518C3958224F310AF0895
:101883008583198582188008858319858218D2AFCC
:10189300C8F0A3E9F0A3EAF0A3EBF0A37908E70902
:1018A300F0A3D8FAECF0A3EDF0A3EEF0A3EFF0A3CE
:1018B300D0E0F0A3D0E0F0A3D0E0F0A3E520F0A3C4
:1018C300E5F0F0A322851983851882E0C0E0A3E048
:1018D300F9A3E0FAA3E0FBA37808E0F608A3DFFA94
:1018E300E0FCA3E0FDA3E0FEA3E0FFA3E0C0E0A3D0
:1018F300E0C0E0A3E0F5D0A3E0F520A3E0A3F5F07A
:1019030010AF08858319858218800885831985821D
:1019130018D2AFD082D083D0E0F8D0E03274048004
:1019230006740280027401C0E0F4041216D2D0E0FF
:101933001215A7227404800474028000CCC0E0ED69
:10194300C0E0E518C39CCCAD1950011D10AF068C47
:10195300188D1980068C188D19D2AF1215B4D0E0EA
:10196300FDD0E0FC22D083D082E9C0E0E493A3C39E
:1019730086F0C5F095F0F908E493A386F0C5F095D9
:10198300F0700BE493A3C3994005E9048002A3E438
:1019930075F002A42582F582E5F03583F583D0E066
:1019A300F9E493A3C0E0E493C0E022D083D082ECB7
:1019B300C0E0EDC0E0E493A3FCE493A3FDED4C6031
:1019C3000D1219FAEC24FFFCED34FFFD80EFE493D4
:1019D300A3FCE493A3FDED4C600D121A39EC24FF34
:1019E300FCED34FFFD80EFD0E0FDD0E0FCE493A3F9
:1019F300C0E0E493C0E022C0E0C3E493960874011E
:101A0300939618400FE49366700808740193661860
:101A130070007019A3A3C3E49396087401939618F6
:101A2300A3A3400DD0E0D0E0D0E00219EAA3A3A322
:101A3300A3A3A3D0E022C0E0C0F088F0E4936670D3
:101A4300080874019366187000A8F0A3A3700BD064
:101A5300F0D0E0D0E0D0E00219EAA3A3D0F0D0E0C8
:101A63002274F512177DEAFEEBFFEE2434F8EF340F
:101A730000F988088909EE2435F582EF3400F583EF
:101A8300E0F8EE2437F582EF3400F583E0F50AEC55
:101A9300850AF0A4FCAAF0850AF0EDA42AFDE82C3F
:101AA300F8E43DF97A257B00121616EA850882854B
:101AB3000983F0F8740758F97401B900028004C36C
:101AC30033D9FCFAE8131313541FF8EE28F8EF3454
:101AD30000F9E8245DF582E93400F583E05A6008F3
:101AE300EE2434F582EF802CEE2434F582EF3400BB
:101AF300F583E0C0E0EE2436F582EF3400F583E0B1
:101B0300F5F0D0E084A8F0EE28F8EF3400F9E824EB
:101B130038F582E93400F583E0F97F04021829746B
:101B2300F512177DEAFEEBFFEE2434F582EF340065
:101B3300F583E0C0E0EE2435F582EF3400F583D081
:101B4300E0F08E828F83A3A3A3A3A3A3A3C082C029
:101B5300838E828F83A3A3A3A3A3E0F8A3E0F9D08A
:101B630083D082E0C398F508A3E099F509EE247FBA
:101B7300F582EF3400F583E064017069EE2480F5AB
:101B830082EF3400F583E0F8A3E0F98E828F83A31C
:101B9300A3A3A3A3A3A3E0FCA3E0FD8E828F83A34F
:101BA300A3A3A3A3E0FAA3E0FBC3EA9CEB9D50101D
:101BB300C3EC98ED99402EC3EA98EB995027800E19
:101BC300C3EA98EB994007C3EC98ED9940177CDC86
:101BD3007D04EEFAEFFB120AE0EE247FF582EF3488
:101BE30000F583E4F0EE2434F8EF3400F9E8FCE97F
:101BF300FDEE2435F582EF3400F583E0F8EE24376B
:101C0300F582EF3400F583E0F50AE508850AF0A4D0
:101C1300F508AAF0850AF0E509A42AF509E82508DC
:101C2300F8E43509F97A257B00121616EA8C828DC1
:101C330083F0F8740758F97401B900028004C333C0
:101C4300D9FCFAE8131313541FF8EE28F8EF340005
:101C5300F9E8245DF582E93400F583E05A6008EE83
:101C63002434F582EF802CEE2434F582EF3400F532
:101C730083E0C0E0EE2436F582EF3400F583E0F52F
:101C8300F0D0E084A8F0EE28F8EF3400F9E8243827
:101C9300F582E93400F583E0F9122579021B1DC0B2
:101CA30082C083851882851983E0F8A3E0F9C3EA2B
:101CB3009CEB9D5010C3EC98ED99401BC3EA98EB45
:101CC300995014800EC3EA98EB994007C3EC98ED42
:101CD300994004790180027900D083D08222EAC33B
:101CE3009CFAEB9DFB2274EF12177D9003A2E06434
:101CF300086005E06407702A9061C8E060249003DF
:101D0300D0E0F4601DE0F875F003A4C8AAF02AF946
:101D130074D228FE740339FF8E828F83A3A3A3E0BA
:101D23007003021E19906060E0C0E0EE2468F58243
:101D3300EF3400F583D0E0F0750C45750D0575089B
:101D430000750900E5D914F50AE5D95403F50E60C9
:101D5300177403650E605CE50A6010EE2467F58274
:101D6300EF3400F583E07003021DFE900540E0644C
:101D730001602AEE2482F582EF3400F583E06004EB
:101D8300780480027800850A08E508C398FA95E08C
:101D9300FB1209A88A088B09EA45097005120CD8B9
:101DA3008074EE2482F582EF3400F583E070048AB8
:101DB3000C8B0DE50A6012850C82850D83F50BE50E
:101DC300D9F0A3150BE50B70F6EE2482F582EF3400
:101DD30000F583E0604474FC250AF50A780C1219B7
:101DE30024AC0AA90EEEFAEFFB120B827402121650
:101DF300B7E97026AA08AB09121158793D8E828F74
:101E030083A3A3A3A3E0FA7B0012087CEEFAEFFB03
:101E1300120AF8120B94790080747403650E6056ED
:101E2300850A107511007810121924AC0CAD0DAA97
:101E330008AB09120B5E74021216B7EE2468F58222
:101E4300EF3400F583E064807004747F8001E0F573
:101E53000C780C121928E50EF50C780C121928A928
:101E63000AAC08AD099003D0E0FA7B001208407475
:101E7300021216B780139003A2E06408600BAC0C47
:101E8300AD0DEEFAEFFB120BEE120CE479017F0AB3
:101E930002182974F512177D74FC1216A1EAFEEBE1
:101EA300FF8908A2AFE433F509C2AF806AEE246369
:101EB300F8EF3400F97A007B00A2AFE433F50AC2ED
:101EC300AF88828983E0FCA3E0FDEC4D603A888211
:101ED3008983E0FAA3E0FB8A828B83E0FCA3E0FD25
:101EE30088828983ECF0A3EDF08A828B83E4F0A3EC
:101EF300F088828983E0FCA3E0FDEC4D700A8882C0
:101F03008983A3A3E4F0A3F0E50AA2E092AF121140
:101F1300589004E3E004F0EE2463F582EF3400F517
:101F230083E0F8A3E0F9E849603DEE2463F582EF2E
:101F33003400F583E02402FAA3E03400FBEA240230
:101F4300F50AEB3400F50B780A1219248A828B8385
:101F5300E0FCA3E0F9EEFAEFFB120B1C740212167D
:101F6300B7E97003021EB09004E3E060639004E4F9
:101F7300E0F89004E3E0C398500C740265087050D5
:101F83009004E5E0604A8E828F83A3A3A3A3E08538
:101F93001882851983F0A3E4F09004E3E0F8740257
:101FA3001216EDE8F0A3E4F09004E3E0F89004E205
:101FB300E028F074021216EDAC82AD838518828599
:101FC3001983AA82AB83790112084C9004E3E4F0ED
:101FD300E509A2E092AF74041216B7021B1D0000BC
:101FE300008521878522C622C0E0C0D0E8C0E0E991
:101FF300C0E0EAC0E0EBC0E0ECC0E0EDC0E0EEC062
:10200300E0C008C009C00AC00BC082C083C0F0A2F0
:10201300AFE433FEC2AF759B00906182E0A2E05053
:1020230012E591A2E0500C7591FE740165217003D5
:10203300121CE9E0A2E55051E591A2E5504B7591E0
:10204300DF9003A2E064076005E064087023740175
:102053006521703579019003D0E0FA75F003A4CAC5
:10206300A8F028FB74D22AFA74033BFB121E968055
:1020730018E0640D70139003C4E004F06428700248
:10208300E4F07A00E0F9120CEA906182E0A2E64003
:1020930003022132E591A2E640030221327591BF8A
:1020A3009003A2E064057008120C18120C2480033C
:1020B300120C1E752100120C78E99003A3F079002D
:1020C300120C6C120A567A017B009003A1E0F912FC
:1020D3001128907803E064427055900544E014F0B1
:1020E300704DC2AF1220EA00782AD0E0F618D0E093
:1020F300F6E59F540770057509FF800375097FC4D2
:10210300C0E07829E6F50808E65509F509740B7867
:102113000812167FD0E02508F8906270E0A2E7402D
:10212300F8E8C333906272F0906270E0D2E0F0900E
:102133006181E0A2E35009E5E9A2E3500375E9F701
:10214300A3E0A2E75009E591A2E7500375917FEE62
:10215300A2E092AFD0F0D083D082D00BD00AD009C6
:10216300D008D0E0FED0E0FDD0E0FCD0E0FBD0E032
:10217300FAD0E0F9D0E0F8D0D0D0E032C0E0C0D05F
:10218300C082C083906183E0A2E05009E5BFA2E072
:10219300500375BFFEE0A2E15009E5BFA2E1500381
:1021A30075BFFDE0A2E25009E5BFA2E2500375BF8F
:1021B300FBE0A2E35009E5BFA2E3500375BFF7E0DC
:1021C300A2E45009E5BFA2E4500375BFEFE0A2E526
:1021D3005009E5BFA2E5500375BFDFE0A2E6500951
:1021E300E5BFA2E6500375BFBFD083D0828088C00D
:1021F300E0C0D0E8C0E0E9C0E0EAC0E0EBC0E0EC5A
:10220300C0E0EDC0E0C0F0E5A7A2E6500FE5A1A253
:10221300E6500953A7BF75A1BF122257E5A7A2E550
:10222300500CE5A1A2E5500653A7DF75A1DFE5A792
:10223300A2E15009E5A1A2E1500375A1FDE5A7A222
:10224300E2500CE5A1A2E2500653A7FB75A1FBD017
:10225300F002216874F812177D7521019003A2E042
:1022630064067015120BB28A828B83A3A3A3A3A364
:10227300A3E0FAA3E0FB120C06A2AFE433FED2AF55
:102283009003A8E0640170187A207B009003A1E01A
:10229300F91212487A207B009003A1E0F912112E63
:1022A300906182E0D2E6F0900541E0602185C6228C
:1022B30080169003A7E064017008E5C654F844054E
:1022C300F5C653BEFC121FE47401652160E4EEA25F
:1022D300E092AF7F01021829008E238F2485822884
:1022E300858327851882851983E0CEA3E0CF8528CF
:1022F30082852783EBC9EAC8EDCBECCA75F010C31E
:10230300E833C8E933C9EA33CAEB33CBC3EA9EF5F2
:1023130026EB9FF525B35004AB25AA26EC33CCED71
:1023230033CDD5F0DAAE23AF242274ED12177D8AB4
:10233300088B098C0A8D0B74131216ED780C121589
:10234300597808790C1213597510017511C8751253
:102353000075130050127808790C1214F87810796C
:102363000812135950168010780C79081214F87853
:1023730010790C12135940047901800279007F0C03
:1023830002182974ED12177D8A088B098C0A8D0BAC
:1023930074131216ED780C121559780C7908121370
:1023A3005940117808790C1214F8AA08AB09AC0A41
:1023B300AD0B8022751000751100751200751301A5
:1023C3007810790C1214F8781079081214BFAA1037
:1023D300AB11AC12AD1380A68A828B837508FF758F
:1023E30009FF750AFF750B0078081215467F040272
:1023F300182974F512177D8C828D8378081215596C
:102403008A828B83780812150CEA2404F8EB3400D3
:10241300F98C828D83A3A3A3A3E0FCA3E0FD8882B0
:102423008983C3E09CF0A3E09DF088828983C3E0A5
:102433009420A3E0944E40268A828B837508FF750F
:1024430009FF750AFF750BFF78081214E58A828B62
:1024530083A3A3A3A3E02420F0A3E0344EF002233C
:10246300DB74F512177DE9FE9004F7E0FAA3E0FBB5
:10247300EEC333F8E433F9748828F582748339F5AD
:1024830083E02AF508A3E03BF50978081219247ABA
:10249300407B427C0F7D001222DC74021216B78A45
:1024A300088B098C0A8D0B74107808121487AA08FC
:1024B300AB097F0402182974F112177D8A0C8B0D66
:1024C3008C0E8D0F740F1216EDE0FAA3E0FB74115E
:1024D3001216EDE0F508A3E0F5097808121924EACD
:1024E3002401F508EB3400F509E4F50AF50B780C43
:1024F3007908121398750871750902780C79081216
:102503001398AA0CAB0DAC0EAD0F1222DC740212A1
:1025130016B78B09EA450960047A0180027A00EC58
:102523002AFCED3400FD74131216EDE0F8A3E0F974
:10253300E8FEE9FFECF8EDF97A717B0212161688D2
:102543000889098E828F837808121568ECF8EDF9F3
:102553007A717B021216168A088B097405780812A1
:10256300168E8E828F83A3A3A3A3E508F0A3E509A8
:10257300F07F08021829C082C083E9906000F0D080
:1025830083D08222C0E074F2121869A2AFE433FE52
:10259300D2AFC2C0E5D1A2E4500653D1EF12109ED0
:1025A300EEF8EEA2E092AF7F010218C8C0E074F229
:1025B300121869A2AFE433FED2AFE58AA2E3500357
:1025C300121020758A00C2EBEEF8EEA2E092AF7F04
:1025D300010218C8C0E0C0D0E8C0E0E9C0E0A2AF83
:1025E300E433F8D2AFC2C7E8F9E8A2E092AFD0E093
:1025F300F9D0E0F8D0D0D0E032C0E0C0D0E8C0E0FD
:10260300E9C0E0EAC0E0C082C083A2AFE433FAD2FB
:10261300AF9009B5E0F89009B6E068700B539AFBE8
:102623009009B77401F0802CC2E99009B5E0F87401
:1026330001289009B5F07900743528F582740939B9
:10264300F583E0F5C19009B5E0C394804006900995
:10265300B57400F0EAF8EAA2E092AFD083D082D05A
:10266300E0FAD0E0F9D0E0F8D0D0D0E032C2AF0247
:0326730000002242
:10267800FFFFFFFFFFFFFFFF74F012171174F8123E
:1026880016A18A0E8B0FE9FF8C0C8D0D7E00850E2E
:1026980008850F0978081219680004105E29C826F1
:1026A800EB260A272D2750277327A427C727DE27BD
:1026B8000E28BF28E228052933295E295E293728F4
:1026C80074016F7019850C82850D83E0C3940350E3
:1026D8000D850C82850D83E0900CA2F080027E1897
:1026E80002298674026F7015850C82850D83E0F8C7
:1026F800A3E0F9900CA3E8F0A3E9F080027E1802A9
:10270800298674016F7019850C82850D83E0C39446
:1027180002500D850C82850D83E0900749F08002F8
:102728007E1802298674016F7019850C82850D83C5
:10273800E0C39405500D850C82850D83E090074A0F
:10274800F080027E1802298674016F7019850C8248
:10275800850D83E0C39402500D850C82850D83E0BE
:1027680090074BF080027E1802298674106F70273C
:102778007508107509007808121924AC0CAD0D7A8B
:102788004C7B071210CE74021216B78A088B098583
:10279800088285098380027E1802298674016F7079
:1027A80019850C82850D83E0C39402500D850C8237
:1027B800850D83E090075CF080027E1802298674FC
:1027C800016F700D850C82850D83E0900CA6F0805A
:1027D800027E1802298674046F70269084FB78089C
:1027E800121559850C82850D8378081213695011CA
:1027F800850C82850D8312158F90075E12159B80BC
:10280800027E18022986EF7021120606E97013125B
:102818000F72E9F509795012121EE9F508120F60D6
:10282800800A9007F17401F080027E1802298674EC
:10283800076F707E750806750900780812192485D7
:102848000C82850D83A3AC82AD8374041216FF122B
:1028580010D474021216B7851882851983EAF0A37A
:10286800EBF07C007D0074021216FF850C82850D4A
:1028780083E0F9120F06E9F50AE50AC3940A502E17
:10288800120606E97015A90A120F78E9F5097950B8
:1028980012121EE9F508120F608019A80A7900744F
:1028A800F228F582740739F5837401F080067E02F8
:1028B80080027E1802298674016F7019850C828542
:1028C8000D83E0C39402500D850C82850D83E09042
:1028D800075DF080027E1802298674016F701985E1
:1028E8000C82850D83E0C3940A500D850C82850DFA
:1028F80083E0900CA5F080027E1802298674016F8F
:102908007025850C82850D83E0C394074019850CDA
:1029180082850D83E0C39411500D850C82850D834B
:10292800E0900CA7F080577E18805374016F7022D6
:102938009007F0E0F508850C82850D83E09007F09C
:10294800F0E50870399007F0E064017031120F600B
:10295800802C7E188028C3E50E9427E50F9400503C
:102968001B74026F7016850C82850D83E0FCA3E052
:10297800FDAA0EAB0F1204A4E9FE80027E02EEF956
:1029880074081216B77F080217E374F0121711744F
:10299800D71216A1E9C0E0851882851983D0E0F026
:1029A80074011216EDEAF0A3EBF08C0E8D0F9084F3
:1029B800C1740312170774061215B47403121707AB
:1029C80074011216EDE0FAA3E0FB851882851983DD
:1029D800E0F9120F06E9FEEEC3940A4003022B2128
:1029E800EEF9120F42E9FF900CA2E0640270047441
:1029F8000180027400F5087808121928743A121632
:102A0800EDE0FDEFFCEEF9AA0EAB0F120FB4740166
:102A18001216B77C147D00790074151216FF121077
:102A2800E68A088B0985080A85090B7415121707A9
:102A38007A1075F006EEA42424F9121218E9703CF5
:102A48007C1079FF74151216FF12114CE9702D7461
:102A5800251216EDAC82AD837A0475F006EEA42437
:102A680025F9121218E9F5087415121707EFA2E0F4
:102A7800E433F9AA0EAB0F12052EE9F87409121700
:102A8800077A0C74702EF9121218E9707974091209
:102A980016FF120F36750800E508C394045067A89E
:102AA800087900E875F003A4C8AAF075F000A42A14
:102AB800FA75F003E9A42AF974091216EDE58228DB
:102AC800F50CE58339F50D850C82850D83E0F8A3B7
:102AD800E0F9E849602C850C82850D83A3A3E0F515
:102AE8000A750B00780A121924850C82850D83E07B
:102AF800FCA3E0FDAA0EAB0F12078C74021216B7E6
:102B0800E9F805088092EFA2E1500E900748E0F935
:102B1800AA0EAB0F120792E9F874391216EDE064A9
:102B280004700F900CA2E064027007AA0EAB0F129B
:102B38000FAE790074291216B77F080217E374F2F2
:102B4800121711890B8A088B09ECFEEDFF750A0A2A
:102B5800E50B600B14600814604114605F807DAA67
:102B680008AB09120F54E9F50AE50AC3940A506C38
:102B7800EE4F6068750C06750D00780C121924ACC0
:102B880008AD09EEFAEFFB1210CE74021216B78ADE
:102B98000C8B0D850C82850D838041AA08AB091228
:102BA8000F4EE9F50AE50AC3940A5030EE4F602C3F
:102BB800EEFAEFFBA90A120F48E98020AA08AB0930
:102BC800120F5AE9F50AE50AC3940A500FEE4F604E
:102BD8000BEEFAEFFBA90A120F48E9F8A90A7F06DB
:102BE8000217E374F21217118A0C8B0DE9FF7E1598
:102BF80074FF650C700474FF650D702A750800E594
:102C080008C3940A5014EFFC7A027B00A908120F3B
:102C180024E960027E00050880E5EF60627A9C7B0B
:102C28000F12098A8059AA0CAB0D12096C8A088BFD
:102C38000985080A85090BE50A450B60407C007D7B
:102C480000E50A2405FAE4350BFB850A82850B8327
:102C5800A3A3A3A3E0F9120F06E9F508E508C394B6
:102C68000A500EEFFC7A027B00A908120F24E97EB5
:102C780000EF600BAA0AAB0B120F9C80027E14EEC9
:102C8800F97F060217E374F012171174FE1216A1E9
:102C9800851882851983EAF0A3EBF08C0A8D0B74F2
:102CA800121216EDE0F50EA3E0F50F7E15851882D9
:102CB800851983E064FF7004A3E064FF701D7F0042
:102CC800EFC3940A506BAC0EAD0FAA0AAB0BEFF929
:102CD800120F2AE960027E000F80E58518828519A7
:102CE80083E0FAA3E0FB12096C8A0C8B0D850C08B3
:102CF800850D09E508450960367C007D00E5082456
:102D080005FAE43509FB850882850983A3A3A3A3F3
:102D1800E0F9120F06E9FFEFC3940A5014AC0EADA8
:102D28000FAA0AAB0BEFF9120F2AE97E0080027E88
:102D380014EEF974021216B77F080217E374F7123B
:102D48001711EAFEEBFF900762EEF0A3EFF0900791
:102D580048E0FC7D007A267B001204A4E9F508907F
:102D68000748E0F912070E7F010217E374F2121701
:102D78001174EC1216A18A0A8B0B850A82850B83C3
:102D8800A3A3E024FA70030231BC24FD70030230CF
:102D980030147003022E6414601024FD7003022F97
:102DA800D8147003023074023224AE0AAF0B9007B5
:102DB80062E0F8A3E0F9E8496066900762E0F8A3EA
:102DC800E0F5838882E0F8A3E0F9E8496052EE2450
:102DD8000CF582E43FF583E0F5087808121928EE2F
:102DE800240BF582E43FF583E0F98E828F83A3A359
:102DF800A3A3A3A3A3A3A3E0FCA3E0FDEE2403FAEB
:102E0800E43FFB900762E0F8A3E0F5838882E0F8EE
:102E1800A3E0F583888212170F74011216B7803960
:102E28008E828F83A3A3A3A3A3A3A3A3A312193B57
:102E380090075E12157712054074021216B7E96002
:102E48001879018E828F83A3A3A3A3A3A3A3A3A30B
:102E5800E0FAA3E0FB12053AE9023224AE0AAF0B0E
:102E68008E828F83A3E06003022F868E828F83A3D6
:102E7800A3A3A3A3E0A2E04003022F869007FCE0EF
:102E8800F8A3E0F9E8496003022F867C0E7D0079FB
:102E980000AA18AB191210E68A088B09AA08AB0910
:102EA800EE240CF582E43FF583E0F8A3E0F9E84965
:102EB80060367508067509007808121924EE240C86
:102EC800F582E43FF583E02410FCA3E03400FD74B0
:102ED800021216FF1210CE74021216B78A088B0956
:102EE800850882850983804F8E828F83A3A3A3E000
:102EF800FAA3E0FB12096C8A0C8B0D850C08850D72
:102F080009E5084509602D750C06750D00780C1249
:102F18001924E5082405FCE43509FD74021216FF9E
:102F28001210CE74021216B78A0C8B0D850C82858E
:102F38000D8380030232248E828F83A3A3A3A3A3CD
:102F4800E0A2E25004D2F08002C2F0A2F0E433F82A
:102F58007900740C1216EDE048F0A3E049F0EEFC9D
:102F6800EFFDAA18AB19120F3CE970127A027B0028
:102F7800900748E0F9121128E979000232269007F3
:102F880062E0F8A3E0F9E8496043900762E0F8A33B
:102F9800E0F5838882A3A3E0F8A3E0F9E849602D6F
:102FA8008E828F83A3E0FC79018E828F83A3A3A3F3
:102FB800E0FAA3E0FB900762E0F8A3E0F5838882DB
:102FC800A3A3E0F8A3E0F583888212170F02322446
:102FD800AE0AAF0B900762E0F8A3E0F9E849604554
:102FE800900762E0F8A3E0F5838882A3A3E0F8A342
:102FF800E0F9E849602F850A82850B83A3E0FC7914
:10300800028E828F83A3A3A3E0FAA3E0FB9007625A
:10301800E0F8A3E0F5838882A3A3E0F8A3E0F583B2
:10302800888212170F023224850A08850B097C0052
:103038007D00E5082404FAE43509FB850882850942
:1030480083A3A3A3E0F9120F06E9FEEEC3940A5086
:1030580018E508240AFCE43509FD7A0475F006EE43
:10306800A42425F9121212E9F8023224AE0AAF0B91
:1030780090075DE06019900CA5E0F98E828F83A31C
:10308800A3A3E0FAA3E0FB12053AE9F80232249080
:103098000CA2E0701679058E828F83A3A3A3E0FAB1
:1030A800A3E0FB12053AE9F80232248E828F83A34B
:1030B800A3A3E0FAA3E0FB12096C8A0C8B0D850C24
:1030C80008850D098E828F83A3A3A3A3A3A3A3E0DE
:1030D800A2E05072E5084509606985088285098380
:1030E800A3A3A3A3E0605F8E828F83A3A3A3A3A35C
:1030F800A3A3A3A3E0F8A3E0F9E8C4540FF8790068
:10310800E85401F8E95400F9E8A2E04039740E12D5
:103118001707E5082405FAE43509FB8508828509BF
:1031280083A3A3A3A3E0F9120F06E9701979038E0C
:10313800828F83A3A3A3E0FAA3E0FB12053AE9F880
:10314800023224023224EE2405FCE43FFD85088285
:10315800850983A3A3A3A3E0F98E828F83A3A3A3E6
:10316800E0FAA3E0FB120FA8900762E0F8A3E0F9E9
:10317800E849603E900762E0F8A3E0F5838882A3FF
:10318800A3E0F8A3E0F9E84960287C0079008E8282
:103198008F83A3A3A3E0FAA3E0FB900762E0F8A360
:1031A800E0F5838882A3A3E0F8A3E0F58388821280
:1031B800170F8068120606E970629007F1E0640153
:1031C800701A120F72E9FE9007F17400F07C0A7D04
:1031D8000079007AF27B071210E680367E00EEC393
:1031E800940A502EEEF8790074F228F582740739A3
:1031F800F583E064017018EEF9120F78E9FAEEF839
:10320800790074F228F582740739F5837400F00E9A
:1032180080CC795012121EE9FE120F6079017414E5
:103228001216B77F060217E374F512171174F2121B
:1032380016A18908EAFEEBFF8C09AC18AD197A0EC5
:1032480075F006E508A42420F9121218E9705F7CCD
:103258000679FFAA18AB1912114CE97051740C12B7
:1032680016EDE0F8A3E0F9E8F50AE5096005EE4295
:103278000A8004EEF4520AA80A7900740C1216EDBA
:10328800E0687003A3E0696021A80A7900740C1251
:1032980016EDE8F0A3E9F0AC18AD197A0E75F00652
:1032A800E508A42420F9121212E9790180027900B4
:1032B800740E1216B77F030217E374F01217117415
:1032C800E61216A189098A0E8B0FECFEEDFF740C2D
:1032D8001217077A0E75F006E509A42420F91212D0
:1032E80018E960030233F27C0679FF740C1216FFAA
:1032F80012114CE960030233F2AC18AD197A0C7460
:10330800702509F9121218E960030233EE750800F6
:10331800AA18AB19120F36E50E450F702E7C0C79E2
:1033280000AA18AB1912114CE960030233D47C0CC3
:103338007D007900AA18AB191210E68A0A8B0B8552
:103348000A82850B837508010233D4AC18AD19AA1B
:103358000EAB0F120F308A0C8B0D850C0A850D0BE6
:10336800E50A450B7030EE4F601BAC18AD197A00BA
:103378007B00120F308A0C8B0DA80CA90D880A89C6
:103388000BE849700479008063850A82850B83E520
:103398000EF0A3E50FF0850A82850B83A3A3E0F85E
:1033A8007900EE687002EF696022EEC0E0850A825B
:1033B800850B83A3A3D0E0F0EE4F700D850A8285BC
:1033C8000B837400F0A37400F0750801E50860161B
:1033D800AA18AB19120F36AC18AD197A0C747025EF
:1033E80009F9121212E9790180027900741A121689
:1033F800B77F080217E374F7121711EAFEEBFF7A9A
:1034080000EAC39404504EEAF87900E875F003A482
:10341800C8ABF075F000A42BFB75F003E9A42BF9F9
:10342800EC28F582ED39F583E06E7003A3E06F7048
:1034380021EAF87900E875F003A4C8AAF075F0004D
:10344800A42AFA75F003E9A42AF9EC28FAED39FB65
:1034580080070A80AC7A007B007F010217E374F7CB
:103468001217117C00ECC394044003023515ECF8E4
:103478007900E875F003A4C8ADF075F000A42DFD3F
:1034880075F003E9A42DF9EA28F582EB39F583E014
:10349800F4FEA3E0F4FFECF87900E875F003A4C8A3
:1034A800ADF075F000A42DFD75F003E9A42DF9EA3F
:1034B80028F582EB39F583EEF0A3EFF0ECF879000C
:1034C800E875F003A4C8ADF075F000A42DFD75F003
:1034D80003E9A42DF9EA28F582EB39F583A3A3E0E3
:1034E800F4C0E0ECF87900E875F003A4C8ADF07515
:1034F800F000A42DFD75F003E9A42DF9EA28F58262
:10350800EB39F583A3A3D0E0F00C02346D7F010200
:1035180017E374F012171174F41216A1EAFEEBFF08
:103528008C088D099007FCE0F8A3E0F9E849702CB5
:10353800EE4F6006E5084509700579010237C6EEC9
:10354800FAEFFB120F54E9900CA8F0900CA8E0C316
:10355800940A4008120F66E9900CA8F0900CA8E0B5
:10356800C3940A40030237C49007FCE0F8A3E0F9CB
:10357800E8496003023610EEFCEFFD7A0E75F0069E
:10358800900CA8E0A42420F9121212E9F50B7C0C87
:103598007D0079FFAA18AB191210E68A0C8B0D85ED
:1035A8000C0E850D0FAC18AD197A0C900CA8E02400
:1035B80070F9121212E9F50A750C0E750D00780CE7
:1035C800121924EEFCEFFD900CA8E0F87900E875DC
:1035D800F00EA4C8AAF075F000A42AFA75F00EE956
:1035E800A42AF9746428FA740739FB1210CE7402FD
:1035F8001216B78A0C8B0DA80CA90D9007FCE508CC
:10360800F0A3E509F00237C09007FCE0F8A3E0C892
:103618002406F582C83400F583E0F8A3E0F9E84908
:1036280060439007FCE0F8A3E0C82406F582C8349C
:1036380000F583E0FCA3E0FD7A1B75F006900CA86A
:10364800E0A42421F9121212E9F89007FCE0F9A38A
:10365800E0C92406F582C93400F5837400F0A37428
:1036680000F00237C09007FCE0F8A3E0C8240AF590
:1036780082C83400F583E0F8A3E0F9E84960439094
:1036880007FCE0F8A3E0C8240AF582C83400F583F3
:10369800E0FCA3E0FD7A1B75F006900CA8E0A424DA
:1036A80022F9121212E9F89007FCE0F9A3E0C92404
:1036B8000AF582C93400F5837400F0A37400F0029F
:1036C80037C09007FCE0F8A3E0C8240CF582C834A2
:1036D80000F583E0F8A3E0F9E84960439007FCE0CF
:1036E800F8A3E0C8240CF582C83400F583E0FCA3F5
:1036F800E0FD7A1075F006900CA8E0A42423F912D6
:103708001212E9F89007FCE0F9A3E0C9240CF5824D
:10371800C93400F5837400F0A37400F00237C09038
:1037280007FCE0F8A3E0C82408F582C83400F58354
:10373800E0F8A3E0F9E849606F9007FCE0F8A3E03F
:10374800C82408F582C83400F583E0FCA3E0FD7ABC
:103758001075F006900CA8E0A42424F9121212E9BE
:10376800F50A9007FCE0F8A3E0C82408F582C834FD
:1037780000F583E02410FCA3E03400FD7A0475F022
:1037880006900CA8E0A42425F9121212E9F8900773
:10379800FCE0F9A3E0C92408F582C93400F5837474
:1037A80000F0A37400F080109007F0E06003120F9F
:1037B800BA120FA279018006790080027901740C8F
:1037C8001216B77F080217E374F712171174F21272
:1037D80016A1E9FEAC18AD197A0E75F006EEA42410
:1037E80020F9121218E9700E740C1216EDE0F8A305
:1037F800E0F9E8F980027900740E1216B77F010229
:1038080017E374F412171174F21216A18909EAFE6B
:10381800EBFFE509C3940A5004EE4F700479028067
:1038280041AC18AD197A0E75F006E509A42420F903
:10383800121218E9F508E5087026750A06750B00D6
:10384800780A1219247402121707EEFAEFFB121005
:10385800CE74021216B78A0A8B0B850A82850B83EF
:10386800A908740E1216B77F040217E374F412172E
:1038780011EAFEEBFF750800E508C3940A5043758A
:103888000A06750B00780A121924EEFCEFFDA80849
:103898007900E875F00EA4C8AAF075F000A42AFA19
:1038A80075F00EE9A42AF9746A28FA740739FB122C
:1038B80010E074021216B7E96004A908800605082A
:1038C80080B6790A7F040217E374F4121711EAFE2E
:1038D800EBFF750800E508C3940A5043750A06759E
:1038E8000B00780A121924EEFCEFFDA8087900E80D
:1038F80075F00EA4C8AAF075F000A42AFA75F00EA7
:10390800E9A42AF9746428FA740739FB1210E074E0
:10391800021216B7E96004A9088006050880B6797E
:103928000A7F040217E374F712171174F01216A134
:10393800EAFEEBFF750800E508C3940A5039AC1895
:10394800AD197A1075F006E508A42423F9121218A7
:10395800E970207C1079FFAA18AB1912114CE97094
:1039680012EEFCEFFDAA18AB19120510E97004A9B4
:10397800088006050880C0790A74101216B77F01FE
:103988000217E374F4121711750800E508C3940AC6
:103998004003023A65A8087900E875F00EA4C8AAA1
:1039A800F075F000A42AFA75F00EE9A42AF97464F7
:1039B80028FC740739FD7A0E75F006E508A4242062
:1039C800F9121218E97003023A607C067D0079FF4B
:1039D800AA087B00EA75F00EA4CAA8F075F000A446
:1039E80028F875F00EEBA428FB74642AFA74073BD8
:1039F800FB1210E68A0A8B0BAE0AAF0B7C067D0021
:103A080079FFAA087B00EA75F00EA4CAA8F075F041
:103A180000A428F875F00EEBA428FB746A2AFA743F
:103A2800073BFB1210E68A0A8B0BAC0AAD0BA80801
:103A38007900E875F00EA4C8AAF075F000A42AFA77
:103A480075F00EE9A42AF9747028F582740739F51F
:103A5800837400F0A37400F005080239939007F00E
:103A6800E06003120FBA120FA27F040217E374F783
:103A78001217117E00EEC3940A50327C0679FFEECD
:103A8800FA7B00EA75F00EA4CAA8F075F000A42825
:103A9800F875F00EEBA428FB74642AFA74073BFB54
:103AA80012114CE96004EEF980050E80C8790A7F8E
:103AB800010217E374F71217117E007F00EFC39419
:103AC8000A50357C0679FFC9FDC9EFF87900E87519
:103AD800F00EA4C8AAF075F000A42AFA75F00EE951
:103AE800A42AF9746428FA740739FBCDF9CD1211A8
:103AF8004CE970010E0F80C5EEF97F010217E374DF
:103B0800F71217117E007F00EFC3940A500DEE7074
:103B18000AEFF9120F78E9FE0F80EDEEF97F010246
:103B280017E374F012171174C91216A1E9FE900C6C
:103B3800A8E06E701D7A017B00900748E0F9121129
:103B48002EE97A027B00900748E0F912112EE9125B
:103B58000FC674291217077A0E75F006EEA42420F2
:103B6800F9121218E96003023C5E7C0679FF742999
:103B78001216FF12114CE96003023C5E7C0E7D00B8
:103B880079FF74291216FF1210E6851882851983A9
:103B9800EAF0A3EBF07C1B7D0079FF740E1216FF90
:103BA8001210E68A0A8B0B850A0E850B0F7C0C7D9A
:103BB8000079FF74021216FF1210E68A0C8B0D852D
:103BC8000C0A850D0B74291217077A0E75F006EE8C
:103BD800A42420F9121212E9F508740E1217077AB4
:103BE8001B75F006EEA42421F9121212E94208749A
:103BF8000E1217077A1B75F006EEA42422F912128A
:103C080012E94208740E1217077A1075F006EEA42E
:103C18002423F9121212E94208740E1217077A10B7
:103C280075F006EEA42424F9121212E94208740E63
:103C38001217077A0475F006EEA42425F912121259
:103C4800E9420874021217077A0C74702EF91212DE
:103C580012E942088003750800A90874371216B7DC
:103C68007F080217E374F7121711E9FEEE90074870
:103C7800F0120F607F010217E374F2121711890A1C
:103C8800EAFEEBFFEE5400F8EF5480F9E84960359E
:103C9800900748E0F91211108A0C8B0DA80CA90D99
:103CA80088088909E8496012AA08AB09120F8AE94D
:103CB8006008AA08AB091210FEE9EE6400FAEF6486
:103CC80080FB023D85EE5402602D7C007D007A0069
:103CD8007B00120F3CE960187A017B00900748E0EE
:103CE800F9121128E9EE6402FAEF6400FB023D853F
:103CF8007A027B00023D85EEA2E0507D9007FCE051
:103D0800F8A3E0F5838882A3A3A3E0FAA3E0FB125B
:103D18000FC0E9605E900762E0F8A3E0F9E8496047
:103D280045900762E0F8A3E0F5838882A3A3E0F852
:103D3800A3E0F9E849602F7C0079019007FCE0F8DE
:103D4800A3E0F5838882A3A3A3E0FAA3E0FB90078E
:103D580062E0F8A3E0F5838882A3A3E0F8A3E0F586
:103D680083888212170F120FC6EE6401FAEF6400FF
:103D7800FB800A7A017B0080047A007B007F0602C0
:103D880017E374F7121711EAFEEBFF7508018E822C
:103D98008F83E02450601314601924E1701CEEFA3C
:103DA800EFFB120F1EE9F5088010EEFAEFFB120F79
:103DB800908007EEFAEFFB120F96A9087F01021711
:103DC800E374F7121711EAFEEBFF8E828F83A3A329
:103DD800A3A3E0641E701179008E828F83A3A3E0F1
:103DE800FAA3E0FB120F0CE97F010217E374F61245
:103DF80017118A088B09850882850983A3A3A3A3C1
:103E0800E07034AE08AF098E828F83A3A3A3A3A367
:103E1800A3A312193B8E828F83A3A3A3A3A3E0FCC1
:103E2800A3E0FD8E828F83A3A3E0FAA3E0FB120F29
:103E38001274021216B7E97F020217E374F7121719
:103E480011EAFEEBFF900748E0F98E828F83A3E02A
:103E5800FAA3E0FB120792E97F010217E3C082C0D0
:103E68008374FF1216A1120F6CE9C39402400B85EC
:103E780018828519837402F0800985188285198350
:103E8800740AF0AC18AD197A01790512061EE974A6
:103E9800011216B7D083D08202011F74F2121711D3
:103EA80074E81216A18A088B09E9FE8C0A8D0B7C2E
:103EB800187D007900AA18AB191210E68A0C8B0D30
:103EC800AC0CAD0D851882851983E508F0A3E509CA
:103ED800F090074AE0C0E074021216EDD0E0F090CE
:103EE800074BE0C0E074031216EDD0E0F0900CA789
:103EF800E0C0E074171216EDD0E0F074151216ED5C
:103F0800E054FEFAA3E054FFFB900CA6E0A2E0E424
:103F180033F87900EA48F8EB49F974151216EDE818
:103F2800F0A3E9F0900CA6E0A2E15004D2F08002E0
:103F3800C2F074151216EDE054FDFAA3E054FFFB2D
:103F4800A2F0E433F87900E828F8E933F9EA48F808
:103F5800EB49F974151216EDE8F0A3E9F0900CA6F8
:103F6800E0A2E35004D2F08002C2F074151216EDFC
:103F7800E054F7FAA3E054FFFBA2F0E433F50C7524
:103F88000D007403780C12168EEA450CF8EB450DFB
:103F9800F974151216EDE8F0A3E9F0900CA6E0A26A
:103FA800E45004D2F08002C2F074151216EDE05409
:103FB800EFFAA3E054FFFBA2F0E433F50C750D0013
:103FC8007404780C12168EEA450CF8EB450DF9745A
:103FD800151216EDE8F0A3E9F0900CA6E0A2E55062
:103FE80004D2F08002C2F074151216EDE054DFFA24
:103FF800A3E054FFFBA2F0E433F50C750D00740543
:10400800780C12168EEA450CF8EB450DF97415126A
:1040180016EDE8F0A3E9F0900CA6E0A2E25004D275
:10402800F08002C2F074151216EDE054FBFAA3E01A
:1040380054FFFBA2F0E433F50C750D007402780C04
:1040480012168EEA450CF8EB450DF974151216EDAB
:10405800E8F0A3E9F090074BE0602A750C10750DA5
:1040680000780C1219247C4C7D0774061216EDAAF0
:1040780082AB831210CE74021216B78A0C8B0D8590
:104088000C82850D8390075CE06011EE600E74155C
:104098001216EDE04402F0A3E04400F090075CE063
:1040A800600678017900800478007900741412168B
:1040B800EDE048F0900749E0600678047900800454
:1040C8007800790074141216EDE048F0AC0AAD0BD4
:1040D800AA18AB19120534E974181216B77F06022C
:1040E80017E374F7121711EAFEEBFF750800900743
:1040F8005CE0600678017900800478007900E84285
:1041080008900749E060067804790080047800790F
:1041180000E84208A908EEFAEFFB1205EEE97F0174
:104128000217E374F212171174E31216A18A0C8BAA
:104138000DE9FF8C0A8D09742B1216EDE0F5087451
:10414800086509700A75F006EFA42422FE80087538
:10415800F006EFA42421FE7C1B7D00790074021276
:1041680016FF1210E6851882851983EAF0A3EBF092
:1041780074021217077A1BEEF9121218E9703874D4
:104188001C1216EDE0C39407402D741C1216EDE0C6
:10419800C394115022E508F50B780B121928740303
:1041A800121707E50AA2E0E433F9AA0CAB0D1205D1
:1041B8004674011216B7E9741D1216B77F06021766
:1041C800E374F7121711120804E97E00EEC3940A8B
:1041D800505C7C0679FFC9FDC9EEF87900E875F0F6
:1041E8000EA4C8AAF075F000A42AFA75F00EE9A486
:1041F8002AF9746428FA740739FBCDF9CD12114CE9
:10420800E97028EEF87900E875F00EA4C8AAF075F0
:10421800F000A42AFA75F00EE9A42AF9746428FAC1
:10422800740739FB790012080AE9F80E809E7F01AD
:104238000217E374F612171174FD1216A1EAFEEBC9
:10424800FF9007FEE0F8A3E0F9E849703975080027
:104258007509087808121924750802750900780884
:1042680012192475082D75098578081219247CFF00
:104278007DFF7A017B0012066074061216B790075C
:10428800FEEAF0A3EBF09007FEE0F8A3E0F9E849B6
:104298007003024358E4F508F509780812192474E4
:1042A800041216F788088909780812192474041268
:1042B80016F7880889097808121924900800121935
:1042C8003B79029007FEE0FCA3E0FDEEFAEFFB125B
:1042D800078074081216B7E9704A85188285198311
:1042E800E0FA7B0074011216EDE0F87900E4C8F9F1
:1042F800EA28F508EB39F509E50845096026780844
:104308001219249007FEE0F8A3E0F5838882A3A39E
:10431800A3A3E0FCA3E0FDEEFAEFFB120F12740278
:104328001216B7E9E4F508F5097808121924900877
:104338000012193B7CFF7DFF9007FEE0FAA3E0FB2B
:1043480012066C74041216B79007FEEAF0A3EBF09D
:104358009007FEE0F8A3E0F9E849700479018002CB
:10436800790074031216B77F020217E3C082C08374
:104378009007FCE0F8A3E0F9E84960179007FCE033
:10438800FAA3E0FB1210FEE9F89007FC7400F0A312
:104398007400F0900CA8740AF0D083D08202011F38
:1043A800C082C083E9900BB8F00245D274F71217A7
:1043B80011E99002E1F07C197D037AFF7BFF120777
:1043C800989002E274FFF0A3F0A3E4F0A3F079055B
:1043D8001207269002E1E0F91206487AB07B07122C
:1043E800095A7F010217E374F41217118A088B091E
:1043F800EB548060309002E1E0F91211108A0A8BC8
:104408000BAE0AAF0BEE4F60138E828F83E064B061
:104418007003120738EEFAEFFB1210FEAA08E5093E
:104428006480FB80047A007B000245A174F21217B5
:104438001174FC1216A1EAFEEBFFEE4F603874020D
:104448001216EDEEF0A3EF124806ECF0A3ED1248B9
:1044580006AA82AB83120642E9F508707374121239
:1044680016ED1253BAE50A450B60658E828F8312EA
:1044780044E2EE4F700575080280557A067B0012FB
:10448800119A8A0C8B0DA80CA90DE84970057508BE
:1044980013803D88828983E41244ECA3A3EEF0A341
:1044A800EF125853E50AF0A3E50BF09002E7124526
:1044B800749002E76017E0FCA3E08003EAFCEBFDE0
:1044C8008C828D8312457470F38C828D831252DF37
:1044D800A90874041216B7025A55A3A3A3A3E0FEB1
:1044E800A3E0FF22F0A3F0888289832274F21217D6
:1044F80011890AE975F017A4FEAFF09002E6E4F01E
:104508009002E4124574600A1211A09002E4E4F0EB
:10451800A3F0EEFAEFFB12119A8A088B09EA450913
:10452800602FEEFCEFFD79001210E69002E4E5083A
:10453800F0A3E509F07B00800812455EE4F0A3F0E3
:104548000BEBC3950A40F2E50A9002E6F079008089
:10455800027913025A55EB75F017A4F8A9F09002E6
:10456800E4E028FAA3E0398A82F58322125075EA3A
:104578004B2274F41217117900EAA2E0501B750857
:10458800C775098478081219247C047D007ABA7BDF
:104598000B12072074021216B77F040217E3C082B9
:1045A800C0839002E71245D9601C88828983A3A33F
:1045B800E06A7003A3E06B8882898370E8A3A3A3F1
:1045C800A312507180047A007B00D083D08202014C
:1045D8001F125B28E8492274EE12171174FC121698
:1045E800A1EAFEEBFF851882851983E4F0A3F0EEBB
:1045F80024021252C3EE24051247F4EE2404F50EE9
:10460800EF124BD9E024FE603924FC604624FE609A
:104618005224FE605E24FE70030246F924FE7003F5
:1046280002477124FE700302478024FE700302478C
:104638008F24FC700302479E24FE70030247AD02DC
:1046480047EA9003007417F0A3E412480E1203C05F
:104658000247EA851882851983AC82AD8312073E2A
:104668000247BA851882851983AC82AD8312074444
:104678000247BA850C08850D0974021216EDAC8242
:10468800AD838508828509831250711206668A0CEB
:104698008B0DAC0CAD0DEC4D6042E4F50CF50D78CE
:1046A8000C121924750C00750D03780C1219247559
:1046B8000C01750D03780C12192474081216ED12EA
:1046C800193B791612506B12078074081216B7E955
:1046D800F50C700B1250671203D8800F750C01850A
:1046E80008828509831247FC1252DF850C080247AD
:1046F800BD74021216EDAC82AD83850C82850D83E4
:104708001250711206668A108B11AC10AD11EC4D67
:104718006043850C82850D83A3A312193B75100095
:10472800751103781012192475100175110378108A
:1047380012192474081216ED12193B791612506BCF
:1047480012078074081216B7E9F509700B12506742
:104758001203DE800F750901850C82850D831247CF
:10476800FC1252DF850908804C851882851983ACB4
:1047780082AD8312074A803A851882851983AC82F4
:10478800AD83120750802B851882851983AC82ADC2
:1047980083120756801C851882851983AC82AD83E5
:1047A80012075C800D851882851983AC82AD83124F
:1047B8000762E9F508E50860298E828F83A3E06423
:1047C80014601F850E82850F83E09003001248064F
:1047D800125B249003011252DFE508A312480E125F
:1047E80003BAEEFAEFFB1206E40251CBF50CEF34F4
:1047F80000F50D22125B2885188285198322F08521
:10480800188285198322F07C007D03850A82850B36
:10481800831250752274EE12171174FC1216A18AB5
:104828000A8B0B8C0E8D0FEA2405F508EB3400F586
:10483800097C157D0079007A007B031210E6E508F3
:104848002402F50CE5091247F78518828519838536
:1048580082108583117810121924850882850983AE
:10486800A3A3A3A3124D21121924E5082405F510CA
:10487800E5093400F5117810121924850C82850D8C
:104888008312507B12066074061216B78A108B11B9
:10489800AE10AF11E50A2402F50AE50B1252C6EE76
:1048A8004F70030249E3801774021216ED1250711B
:1048B80088828983EAF0A3EBF0900300E004F0908B
:1048C8000300E0C3940540030249E3E4F510F51141
:1048D80078101219247510E975110278101219242C
:1048E8007510EA751102781012192474061216ED63
:1048F80012193B7910EEFCEFFD12506B1207807411
:10490800081216B7E9705E850882850983A3A3A3F8
:10491800A3A3A3A3E0F89002E9E0687048124D2130
:104928001219247CEA7D02E5082408FAE509340016
:10493800FB1210E074021216B7E960298E828F8389
:10494800A3A3A3A3125071900300E0F5107402789A
:104958001012168E74012510F58274033511F58333
:10496800EAF0A3EBF074021216ED8582108583112C
:10497800781012192474021216ED12193B850C8254
:10498800850D83125B3912066C74041216B78A10EF
:104998008B11AE10AF11900300E0F5107511007483
:1049A80002781012168E74002510F874033511F968
:1049B80088828983A312457470030248A7E82403F8
:1049C800F8E93400F9EE4F60030248B08882898321
:1049D80074FFF0A3F0900300E004F0900300E0609F
:1049E8000A1250671203CC7900800B85088285096A
:1049F800831252D6790A0251CB74EA12171174FE47
:104A08001216A18C128D13EA2405F50CEB125B43E8
:104A18001244E6750800750900EA2402F510EB3423
:104A280000F51185188285198385820A85830B789C
:104A38000A121924850C82850D83A3A3A3A3124B04
:104A4800E3121924E50C2405F50AE50D1252C6787F
:104A58000A121924850C82850D83125B37120660B1
:104A680074061216B78A0A8B0BEA450B7003024BC1
:104A780094EA2404F50EEB124BD91244E68A828B91
:104A880083A3A3A3E0F985108285118312507112C4
:104A9800064EE9F5096003024B94E4F514F5157820
:104AA800141219247514E97515027814121924754D
:104AB80014EA751502781412192474061216ED12E8
:104AC800193B7913AC0AAD0B8510828511831250FE
:104AD8007112078074081216B7E9F5096003024BD2
:104AE800949002E9E0F8E5087009E02402900301D7
:104AF800F08017900301E0FCE82402FAE43400FB9C
:104B0800EA6C7001EB6003024B98850882AA821256
:104B18004D189414124D105073850E82850F83E042
:104B2800C0E074022A124BD0D0E0F00508850E824E
:104B3800850F83A3E0C0E085080A7402250A124B9A
:104B4800D0D0E0F005089002E9124BE31219247C5A
:104B5800EA7D0285080A7402250AFA74033400FB08
:104B68001210CE74021216B79002E9E02508F50873
:104B780074FF6E700374FF6F6012EE24010EEF3441
:104B880000FFE508C394145003024A2BE50860139C
:104B9800124F5C8510828511831250711203D279ED
:104BA800008014E509700375090A8512828513834C
:104BB800EEF0A3EFF0A90974021216B77F0E0217E0
:104BC800E385080C7402250CF58274033400F58320
:104BD800223400F50F850E82F5832212586622745E
:104BE800EE12171174FE1216A18C0E8D0FEA240511
:104BF800F50CEB1247F7750B00900300E4F0F50A8B
:104C0800EA2402F508EB3400F5098049900300E036
:104C1800FA9002E9E0F8124D189417124D10400D61
:104C2800900300E0F87416C3989002E9F0124D2141
:104C38001219247CEA7D0274012AFA74033400FBF9
:104C48001210CE74021216B79002E9E0F890030031
:104C5800E028F0050AE50C2416F582E50D124BD480
:104C6800E0F8E50AC3984003024CF9900300E0C35A
:104C78009416507DE50AC333F8E433F9E50C28FEB1
:104C8800E50D39FF851882851983AC82AD838E8244
:104C98008F831250711206668A108B11AC10AD11F9
:104CA800EC4D7005750B018043E4F510F511781093
:104CB8001219247510E9751102781012192475104B
:104CC800EA751102781012192474061216ED1219D9
:104CD8003B79168508828509831250711207807402
:104CE800081216B7E9F50B7003024C141252D28061
:104CF800107C007D03850882850983125071120398
:104D0800E4A90B74020251CDE99400C365D03322A3
:104D1800EA28F8E43400F9E822E0F5107511007883
:104D2800102274EA12171174FC1216A18A0C8B0D4A
:104D38008C128D13EA2405F50AEB1252C675080089
:104D4800750900E50A2402F510E50B3400F5117425
:104D5800021216ED85820E85830F780E12192485AE
:104D68000A82850B83A3A3A3A3125812121924E560
:104D78000A2405F50EE50B3400F50F780E121924F8
:104D88008510828511831252CC12506B1206607402
:104D9800061216B78A0E8B0FAE0EAF0FE50C240263
:104DA800F50EE50D3400F50F80408882898374FF85
:104DB800F00508124BC974FFF005089002E9E0F508
:104DC8000C750D00780C1219247CEA7D0285080CFC
:104DD8007402250CFA74033400FB1210CE7402120C
:104DE80016B79002E9E02508F508EE4F60718E824B
:104DF8008F83A3A3A3E0F9850E82850F83125071D8
:104E080012064EE9F509EE24041247F4E97044E469
:104E1800F514F51578141219247514E97515027826
:104E2800141219247514EA751502781412192474C9
:104E3800081216ED12193B7911EEFCEFFD850E8272
:104E4800850F8312507112078074081216B7E9F59E
:104E5800096027850C82850D83124F521252DFE5B7
:104E6800087003024F38124F5C850E82850F83123B
:104E780050711203EA7900024F4D850882AA82EA2E
:104E88009002E97009E02404900301F08022E0F820
:104E9800900301E0F514E82404FCE43400FDEC651B
:104EA800147001ED70C0124D189412124D1050B6C6
:104EB800850C82850D83E0C0E074022A124BD0D0A5
:104EC800E0F00508850C82850D83A3E0C0E0124B55
:104ED800C9D0E0124F6E85820C85830D780C1219AB
:104EE8002474041216ED12193B8510828511831261
:104EF8005B3912066C74041216B78A0C8B0DAE0C53
:104F0800AF0D85080C7402250CF874033400F9EE13
:104F18004F7003024DB2851882851983E088828913
:104F280083124F6EA3E0C0E0124BC9D0E0024DC01F
:104F3800E509700375090A850A82850B83124F52A9
:104F48001252DFA9097404024BC1125B2885128230
:104F580085138322900301E0F5F0E50884900300AF
:104F6800F07C007D0322F0050885188285198322CC
:104F780074EC12171174FE1216A18A088B098C0E94
:104F88008D0FEA2405FEEB3400FF8518828519830E
:104F9800AC82AD838E828F831250711206668A0AA4
:104FA8008B0BEE24181247F4EA450B7003025042AB
:104FB8001251B45032851882851983125071120724
:104FC800748A108B11EA4511606B7912AC0AAD0B2B
:104FD8008508828509831250718510828511831294
:104FE800170FE9F50A7058E4F50AF50B780A121953
:104FF800248E828F83A3A3E0F50A780A121924EE7F
:1050080024031252C3780A1219248E828F831250F5
:105018007B12078674061216B7E9F50A7021850C0B
:1050280082850D83E0701F8508828509831250717F
:105038001203F08011750A0E8009750A018004E5D3
:105048000A60031252D2850C82850D83E0600479D0
:10505800008002A90A74021216B77F0C0217E37CBB
:10506800007D03850A82850B8312507522E0FAA31E
:10507800E0FB22E0FCA3E0FD85088285098312504D
:10508800752274EE12171174FE1216A18A088B0984
:105098008C0C8D0DEA2405FEEB3400FF750E00859F
:1050A8001882851983AC82AD838E828F83125071EA
:1050B8001206668A0A8B0BEA450B70030251A0128E
:1050C80051B45035851882851983125071120774AE
:1050D8008A0E8B0FEA450F605E7912AC0AAD0B851C
:1050E8000882850983125071850E82850F831217F5
:1050F8000FE9F50E60030251A38508828509831222
:1051080053BAAA0AFB1207688A108B11A810A911B2
:10511800E849701E7AFF7BFF1207688A108B11A876
:1051280010A911E849606C88828983E50AF0A3E533
:105138000BF0750A008007750E0E805F050A900255
:10514800E6E0FAE50AC39A504AE50A75F017A4FAA8
:10515800ABF088828983A3A3E02AFAA3E03BFB8A09
:10516800828B831252CCEC4D70D2750A17750B00E6
:10517800780A121924EEFCEFFD1210CE74021216F2
:10518800B7EEFCEFFD850882850983125071120382
:10519800F68014750E098003750E01125B20850CCC
:1051A80082850D831252DFA90E024D0BE5082402F9
:1051B800F508E5093400F5098A828B83A3A3A3E0E7
:1051C800A2E52274041216B77F0A0217E374EC12E0
:1051D80017118C108D11EA2405F50CEB1247F775A1
:1051E8000F00EA2402F50AEB1252C6850A82F583FB
:1051F8001250711207688A088B09EA450970030280
:1052080052B8750E008071850C82850D83E06401AB
:10521800704F8E828F83A3A312193B8E828F83A334
:10522800A3A3A3E0F5127513007812121924EE2433
:1052380005F512EF3400F513781212192412506B89
:1052480012078674061216B7E9F50F6014850C82EA
:10525800850D83E4F0125B2085108285118312523C
:10526800DF7C177D007900EEFAEFFB1210E68E82E4
:105278008F83E4F0A3F0050E9002E6E0F8E50EC394
:1052880098501EE50E75F017A4F8A9F085088285D8
:105298000983A3A3125B4D1252CCEC4D600302525A
:1052A8000F85088285098374FFF0A3F0E50F700667
:1052B80012506B1203FCA90F025062F50AEF34007A
:1052C800F50B22A3E0FCA3E0FD228E828F83125B04
:1052D80028850E82850F83E8F0A3E9F022C082C0FA
:1052E800839002E2E06A7003A3E06B70067AE27BC7
:1052F8000280047A007B000245D2C082C083780015
:105308008C828D83E06A7003A3E06B7010E875F0FF
:1053180003A4F8A9F0EC28FAED39FB8015088C8273
:105328008D83A3A3A3E06A7003A3E06B60DF7A0018
:105338007B000245D274F61217111207328A828B4B
:1053480083E582458370067A007B008007A3A3A3C8
:10535800A31250710259D174F2121711E9FE740E9A
:105368001216ED1253BA74101216ED1258328C82BE
:105378008D83E064027036A3125B2EF50CA3E0F96E
:10538800A80C74026870037429697021750C027581
:105398000D00780C1219247808121924780A1219A9
:1053A80024EEF91207AA74061216B78002790102D0
:1053B8005A55E0F50AA3E0F50B2274E812171174A8
:1053C800FB1216A1E9851882851983F08A168B17B6
:1053D800ECFEEDFF751000741D1216ED125B2474BF
:1053E8001D1216ED1252DF8E828F83A3A3A3E0A2B3
:1053F800E4502D741D1216ED1250711207748A8232
:105408008B83E58245837003025803790AEEFCEF2B
:10541800FDAA16AB1712170FE9F51060030258061C
:10542800741F1216ED12583274211216ED1253BA67
:1054380074231216EDE0F50EA3E0F50F8E828F832C
:10544800E0640260030257B1A3125B2485088285D9
:105458000983A3858212858313EE24061247F488F4
:10546800828983E0FAA3E0F9EA2400F514E439F527
:105478001578141219AE010000280128A654070057
:1054880002286B550328D8540029A2560129CD5665
:1054980002296E560329A25604294C57B157E50E26
:1054A800450F60030257AC850C82850D831258277F
:1054B800FAE9FB8A828B83E0850A82850B8312587E
:1054C8005D1219248A828B83A3E0FCA3E00257367D
:1054D800E50E450F60030257AC850A82850B83747D
:1054E80001F012583A850882850983F07C007D0016
:1054F8008E828F83A3A3A3A3E02401FAA3E0340040
:10550800FB120666EA4B60418A828B83E02402F82C
:10551800850A82850B83E028F0EA2404F8EB34003E
:10552800F988828983E085128285138312586F1265
:10553800585D1219248A828B831252CBE508240302
:10554800FAE5093400FB02573B850A82850B83E0A4
:105558002404F07C047D007900AA12AB131210E633
:10556800025806E50E450F60030257AC12583AFE82
:10557800A3E0FF850A82850B837404F0EE85088218
:10558800850983F0EF851282851383F07403121660
:10559800EDAC82AD83EEFAEFFB1206668A0C8B0D3A
:1055A800EA450D700302564F8A828B83A3A31244E7
:1055B800E274011216ED85820E85830F780E12199A
:1055C8002474051216ED12193B7CFF7DFF12066C40
:1055D80074041216B78B0FEA450F7033850C828559
:1055E8000D83125812121924850C82850D83A3127B
:1055F800193B7C027D007A357B851204987404126D
:1056080016B7E9700A74011216ED74FFF0A3F08E54
:10561800828F83E064027039750C02750D00780C76
:105628001219248E828F831252CBE5082404FAE5DE
:10563800093400FB1210CE74021216B7850A82854F
:105648000B83E02402800974011216EDEEF0A3EF3B
:10565800F074011216ED125823F074011216EDA31E
:1056680012581B0257A6E50E450F60030257AC857A
:105678000C82850D831252CCAA16AB1712079E8591
:105688000A82850B837402F0EA850882850983F013
:10569800851282851383EB0257A9E50E450F600337
:1056A8000257AC12583AF8A3E0F9850A82850B83B1
:1056B8007402F0E8850882850983F0E985128285FD
:1056C80013830257A9850C82850D8312507112101D
:1056D800C8EAFC8C82A882C3950EE4950F405FE867
:1056E800650E7002E50F70047C00802285188285A3
:1056F8001983E0FAE50E2AFAE50F3400FBC3EA98AD
:10570800EB94005003E08005E50ECCC39CFCEC85CF
:105718000A82850B83F08C0A750B00780A1219240B
:10572800850C82850D83E0250EFCA3E0350FFDAACC
:1057380008AB091210CE74021216B702580675107B
:1057480007025806E50E450F705A850C82850D83B1
:10575800125B24850A82850B8374071244EE125863
:105768001B1244EEA3E0851282851383F0E824021D
:10577800FAE93400FB8A828B8312581B12584A12AA
:105788005823A312585312582CF0E82405F8E9348A
:1057980000F98882898312582CA312586FA3A3A3F7
:1057A800A3F0805A75100B8055741D1216ED125017
:1057B800711207328A828B83E5824583603D125BD2
:1057C80024880C890DE8450D6031780E121924786B
:1057D8000A121924780812192474061216EDE0F931
:1057E800EEFCEFFDAA16AB17850C82850D83121708
:1057F8000F74061216B7E9F510800375100EA9107C
:1058080074051216B77F100217E3E0F50E750F0046
:10581800780E22E08508828509832212587922129F
:105828005B28E822125879A3A322E0F508A3E0F543
:105838000922850C82850D83E0F8A3E0F583888230
:10584800E022A3A3F08A828B83A322F08882898333
:10585800A3A3A3A322F08A828B8312586622E0F5C1
:105868000A750B00780A22F088828983A312587976
:1058780022E0850882850983A3A32274EE121711FA
:1058880074FE1216A18A0A8B0BECFAEDFB74141243
:1058980016EDE0F510A3E0F51174161216EDE0FE12
:1058A80074181216EDE0F50EA3E0F50F8518828541
:1058B8001983AC82AD831206668A0C8B0DEA450DFE
:1058C80060498518828519831250711207328A82BD
:1058D8008B83E5824583602FA3A3125832E50845E0
:1058E800096024780E1219247810121924EEF9ACE4
:1058F8000CAD0DAA0AAB0B85088285098312170F18
:1059080074041216B78006790E80027901024D0BD5
:1059180074F612171174FE1216A1740C1216ED12F9
:105928005827851882851983F074011216EDE9F05D
:10593800E4F508F5097808121924750802780812A0
:10594800192474041216ED858208858309780812D3
:10595800192412078674061216B774021216B78035
:105968006874F7121711EAFEEBFF89087C197D03AA
:1059780012079EEA5402600BA908EEFAEFFB120622
:105988005A800279010243EA74F612171174FF6A09
:10599800700374FF6B70168C828D831259D6E4F0F5
:1059A8008C828D83A3A3A31259D6A3801812076EE5
:1059B8008A088B09A808A909E849600D88828983A3
:1059C80074FF1244ECA3A3E4F07F020217E374FF10
:1059D800F0A3F08C828D83A3A32274F61217111200
:1059E800076E8A828B83E58245836006A3A3E0FA6B
:1059F80080027A007B0080D174F21217118A088B1A
:105A080009ECFEEDFF740E1216EDE0F50A12076EB2
:105A18008A0C8B0DA80CA90DE8497026EEFCEFFD49
:105A28007AFF7BFF12076E8A0C8B0DA80CA90DE874
:105A38004970047911801688828983E508F0A3E506
:105A480009F088828983A3A3E50AF079007F06021A
:105A580017E374EE121711EAFEEBFF8C088D098923
:105A68000C74141216ED125B2474161216ED1250F3
:105A780071750D00E8496003025B187402650C60DB
:105A880003025B1374121216ED125B2EFCA3E0F9ED
:105A9800EC2400F50EE439F50FEAF4F8EBF4F9EC30
:105AA80058F8E50F59F9E849705CE5082406F8ED5F
:105AB8003400F9880A890B8882F583125B3912074A
:105AC8009E8A108B11E50E65107004E50F65116054
:105AD80042780E121924850A82850B83125B3912CB
:105AE80007A474021216B7E9F50D7027780E12197B
:105AF80024850882850983A3A3125B371207B6742D
:105B0800021216B7800D750D808008750D0D800383
:105B1800750D0BA90D0251D08E828F83125B28223E
:105B2800E0F8A3E0F922125B2888828983E022A3A7
