:020000040000FA
:0600000002010702218746
:03002B000225DFCC
:03003B0002260496
:0300430002258F04
:030053000221FA8D
:03007B000225B7A4
:10008300021FF3E5C754F84401F5C77901220000C4
:100093000080FB120086B900030200F1E4792178A5
:1000A30008B800028004F709D8FCE479297802B87B
:1000B30000028004F709D8FCE49002817879790979
:1000C3008002F0A3D8FCD9FA7AF97B0A9001377839
:1000D3007479038015E493A3AD82AE838A828B8304
:1000E300F0A3AA82AB838D828E83D8E9D9E7758288
:1000F300547583DF7403120119758291758300743B
:100103000012011975D00075813F751881751902A8
:10011300759F00020096C09FF59FE473D09F22D085
:1001230083D082C09FE493C0E0740193C0E0740263
:1001330093F59F22FF0000B4000028002800283018
:1001430075A000A000A000A00000080008E001F0D6
:10015300001000100010001000100010005000509C
:1001630000500010001000D0070000000000000F36
:100173000001000500307507001000010081FF0039
:10018300000000FFA805C605AE05FF020202080233
:100193005000A0000000E80302FE84010000D184A7
:1001A30002F684010000500B02EE84010000B3024A
:1001B30002F684010000510B02EA84010000C90227
:1001C30002F684010000520B02E284010000CB021C
:1001D30002F684010000530B02E084080000CC0205
:1001E30002F684010000540B02DE84010000550B6B
:1001F300FF0100FF2002FE84010000CE8402F6848A
:10020300010000B90B02D884000000000002F08452
:100213000300001903840B840B840B840B840B846D
:100223000B840B840B840B840B840B840B840B06D1
:100233000E1E0E000E020202020202020202010D53
:10024300000000100102FE84010000CB8402F6844A
:10025300010000FA0B02E684010000400702F68465
:10026300010000FB0B02FC84010000348402F684CD
:10027300010000FC0B02DA84010000188402F684FA
:10028300010000FD0B020285010000428302F68497
:10029300010000FE0B02D6840100001E8302F684D7
:1002A300010000FF0B02F284010000308302F68498
:1002B300010000000C02F8840100000C8302F684A4
:1002C300010000010C02F484010000268402F6847C
:1002D300010000020C02E484010000030C01E803A6
:1002E300053F100AFFFFFF000130750302010600FE
:1002F30000000000000000000000000000000000FB
:100303000000000000000000000000FFFF06008066
:100313000CE8030709455F4C6F634B05125000203F
:1003230003020A00020106030207E208FF9CD21E31
:10033300F3E9C9455F4C6F636B00000000000000E8
:100343000000000000000000F2120000FE120A5735
:1003530072697465204368617200104E6F74696638
:100363007920436861720002FE84010000C88402A0
:10037300F684010000130D10D883030000DE0A0287
:100383000485010000140D02F6840100001F0D1006
:10039300E883000000F20A02F084030000F30A027B
:1003A3000485010000200D1201228ED403120122C4
:1003B300A5D403120122D6D40312012211D50312AC
:1003C30001223BD50312012265D5031201227CD5FC
:1003D3000312012293D503120122AAD5031201228B
:1003E300D3D503120122E6D503120122FCD5031251
:1003F30001220FD60312012236D6031201223BE952
:10040300021201223FEA0212012277EA02120122BA
:100413009AEA02120122A5EA02120122C8EA021292
:100423000122D7EB02120122ACEC0212012227EDCA
:1004330002120122AFED02120122EAED02120122A1
:1004430021EE02120122AFEE0212012288EF021204
:100453000122E8EF02120122F3EF0212012272F0ED
:100463000212012275F00212012278F00212012217
:1004730007F1021201220AF1021201223AF10212D9
:10048300012264F10212012252F20212012204F348
:1004930002120122DFA50312012207A60312012281
:1004A30035A6031201226CA603120122CAA6031267
:1004B300012215A70312012260A703120122A0A79C
:1004C30003120122E6A70312012214A80312012238
:1004D300D1A803120122DBA803120122E8A8031208
:1004E30001221BA903120122E7A903120122F3A986
:1004F300031201220BAA0312012215AA03120122DD
:10050300BADA03120122C8DA03120122E0DA031273
:100513000122F8DA03120122008002120122AC80C8
:1005230002120122278102120122488202120122B1
:100533008482021201222D830212012214840212E8
:100543000122788502120122CF85021201225086F0
:10055300021201224087021201228D870212012218
:10056300138802120122458802120122598A0212BB
:1005730001229B8A02120122B98A021201223C8BB8
:1005830002120122108C02120122D88C02120122C3
:100593007A87031201224D8803120122F68803127F
:1005A3000122498903120122F98903120122858A52
:1005B30003120122718B03120122A08B0312012269
:1005C300B38C03120122FB8C03120122D08D031280
:1005D30001220C8E03120122288E031201224EDE09
:1005E3000312012292B303120122A8B303120122C0
:1005F300CEB303120122EAB403120122F4B40312AC
:10060300012229B60312012221B703120122B8A045
:1006130003120122E8A1031201221BA203120122E9
:1006230065A2031201222CA403120122C6D30112D4
:10063300012230D4011201228FD5011201229FD54C
:1006430001120122CCD50112012223D6011201226B
:10065300CCD601120122D3D7011201229DD8011257
:100663000122FDD90112012240DA01120122E5DA49
:100673000112012232DB0112012258DB0112012295
:1006830066DD011201226BDD0112012270DF01120E
:100693000122BDDF0112012230E00112012263E0D9
:1006A3000112012205E101120122AEE10112012230
:1006B300E6E101120122E9E10112012231E2011214
:1006C300012271E201120122C8E2011201228FC646
:1006D30003120122A7C603120122EFC6031201224D
:1006E30005C7031201224CC70312012260C803127B
:1006F3000122EDC80312012238C903120122B043BB
:1007030000120122BC4300120122F743001201220E
:100713003C4400120122FC440012012282450012D3
:100723000122E745001201221346001201224C4622
:10073300001201228A48001201226E4A001201228D
:10074300544C00120122974D00120122E54F001272
:100753000122F75000120122425200120122525389
:10076300001201226F5300120122AA530012012228
:10077300CC53001201222F5400120122F058001210
:100783000122855900120122D65900120122FD5976
:10079300001201224F5A001201226D5A0012012247
:1007A300C75A00120122B05B00120122265D00121B
:1007B3000122AA5D001201229CAA03120122A6AA09
:1007C30003120122E9AA0312012204AB031201223C
:1007D30094AB03120122BCAB03120122F9AB031247
:1007E300012230AC0312012259AC03120122CEAC18
:1007F30003120122E3AC03120122F8AC031201221B
:1008030029AD031201223DAD0312012262AD031291
:1008130001229CAD03120122C8AD0312012200AED6
:10082300031201227FAE03120122C8AE031201227A
:10083300F2AE031201221DAF03120122A3D703124A
:100843000122F3C60212012221C7021201226FC83C
:10085300021201224FC9021201226EC902120122A1
:10086300EBC9021201222ECA0212012284CB021208
:10087300012245CC02120122CCCE021201226DCFFD
:100883000212012263D00212012260D1021201225C
:10089300BAD20212012245D30212012248D6031210
:1008A3000122B1D60312012205D7031201222CD74C
:1008B300031201225DD7031201227EFB02120122E1
:1008C300EBFB0212012232FC021201224AFD021248
:1008D300012246FE0212012229FF02120122EC75B7
:1008E300001201222E76001201220077001201224B
:1008F300D97700120122D37800120122B5790012B0
:1009030001221E7A00120122D47A00120122487BAE
:1009130000120122B47B00120122DD7B00120122AE
:10092300577C00120122F07C00120122557D001237
:1009330001226A7D00120122B07D00120122C97DCD
:10094300001201222E7E00120122317E00120122AA
:10095300BDC003120122E5C00312012223C1031209
:100963000122E1C10312012248C20312012264C21F
:10097300031201228CC203120122BCC20312012200
:10098300CBC20312012248C3031201226EC3031216
:100993000122B5E30112012293E501120122C5E709
:1009A3000112012201E8011201222EE801120122A3
:1009B30018E90112012263E901120122AEE90112D1
:1009C3000122C0E90112012200EA0112012235EAE3
:1009D3000112012283EA01120122B2EA0112012269
:1009E300D5EA0112012222EB01120122A7EB011227
:1009F3000122C1ED0112012200F00112012241F096
:100A030001120122E3F10112012224F20112012257
:100A130097F201120122EDF20112012217F30112E2
:100A23000122DEB902120122DCBA0212012275C1CF
:100A33000212012296C30212012261C5021201228F
:100A4300C9C602120122115E00120122C05E001209
:100A53000122065F00120122466000120122DC61BE
:100A63000012012256620012012271620012012259
:100A7300EC6200120122466400120122A6650012F4
:100A83000122AC66001201220D68001201222668C1
:100A930000120122846800120122726900120122ED
:100AA300A56900120122156A001201228F6A001241
:100AB3000122D96A00120122A36B00120122786C71
:100AC30000120122576D00120122E26D0012012271
:100AD300506E00120122C46E00120122EF6E00124A
:100AE3000122AE6F00120122137100120122307134
:100AF300001201224F7100120122407200120122E2
:100B03006572001201228F72001201220A73001211
:100B13000122647300120122CD74001201227B753D
:100B230000120122BC75001201225D9D02120122F6
:100B3300AB9D02120122B79D02120122959E021261
:100B43000122C69E02120122F79E02120122779F02
:100B530002120122F59F021201222DA0021201228C
:100B63007FA002120122BCA002120122D9A202120A
:100B73000122FFA402120122EAA602120122D4A832
:100B830002120122FA7F00120122159A0112012298
:100B9300459A011201221EA101120122A3A20112F0
:100BA3000122A0A80112012288A901120122C5A9CC
:100BB30001120122E8A90112012219AA011201223C
:100BC30022AA011201222CAA011201221AAB01123C
:100BD300012210AC011201220685011201220589AE
:100BE300011201220B8901120122469001120122F6
:100BF3005F950112012275BA031201226FBB031222
:100C03000122E3BB0312012221BC0312012295BC82
:100C1300031201220EBD0312012217BD031201228A
:100C230023BD0312012238BD0312012276BD031234
:100C330001228CBD0312012245AF0312012252AFE0
:100C4300031201226CAF03120122ABAF0312012284
:100C5300E9AF031201224EB00312012263B0031263
:100C630001226EB0031201227BB00312012292B063
:100C730003120122A0B003120122ABB0031201221E
:100C8300B7B003120122C6B003120122D1B003127E
:100C93000122F4B0031201229BB103120122ABB172
:100CA30003120122C5B103120122E2B10312012290
:100CB300FEB10312012223B2031201222EB2031248
:100CC300012243B20312012257B203120122B8B226
:100CD30003120122BEB203120122C4B20312012283
:100CE300CAB203120122E2B20312012215B30312A4
:100CF3000122B4AB0212012238AC02120122E7AC8A
:100D03000212012246AE0212012267B00212012230
:100D130053B10212012288B102120122AAB10212B6
:100D2300012259B20212012251B4021201227AB4F1
:100D3300021201220CB5021201223EB50212012257
:100D43004BB502120122A2B502120122C8B502124A
:100D5300012235B80212012238B90212012290B9D8
:100D630002120122F18E02120122FB8F02120122D2
:100D7300E29002120122EC90021201220E91021261
:100D830001221A9102120122B39202120122E2926B
:100D930002120122FE93021201225794021201222F
:100DA300BD95021201229C9602120122F8960212AC
:100DB3000122659702120122A09702120122DF97F6
:100DC30002120122989A02120122B29A02120122FD
:100DD3003E9B021201224C9B02120122A59B02128E
:100DE3000122B39B02120122269C021201228A9C39
:100DF30002120122D49C02120122C6D30212012242
:100E0300E8D3021201220ED60212012223D90212C2
:100E130001223BDA02120122EEDA02120122D0DBB6
:100E230002120122557E001201227A7E0012012253
:100E3300EC7E0012012200800312012209800312BA
:100E43000122128003120122E980031201229A82F5
:100E530003120122D082031201220A830312012208
:100E63004083031201227A8303120122AE83031209
:100E73000122DA83031201222384031201225D84F7
:100E830003120122A68403120122FE84031201220B
:100E93003385031201228E8503120122C8850312B2
:100EA30001221986031201224F8603120122898629
:100EB30003120122B78603120122DA8603120122EA
:100EC30066DC0312012292DC03120122EDDC031221
:100ED3000122F7DC0312012207DD03120122049B26
:100EE30003120122299B03120122619B0312012297
:100EF300B4DD031201228826001201229A2900126E
:100F030001224E2B00120122F32B00120122962CF8
:100F1300001201224D2D001201227C2D001201220C
:100F2300383200120122CA320012012206340012A2
:100F330001226E3400120122223500120122D83719
:100F4300001201221238001201227C380012012201
:100F5300D9380012012236390012012293390012C6
:100F630001227E3A00120122C43A001201220F3BF1
:100F730000120122323B00120122753C00120122B1
:100F8300893C00120122923D00120122D13D001240
:100F93000122FD3D001201224C3E001201226D3E52
:100FA30000120122AB3E00120122F2400012012284
:100FB300334100120122D1410012012243420012A7
:100FC30001227C4300120122CDD903120122DED972
:100FD30003120122B6C30312012281C603120122A6
:100FE30035E00312012291DB03120122A1DB03127C
:100FF3000122BBDB0312012258DC03120122BCBD18
:101003000312012260BE03120122A2C003120122B5
:10101300BCD803120122E3D80312012246D90312DA
:10102300012299D903120122FACB031201221FCC08
:101033000312012244CC031201226CCC03120122BD
:101043009CCC0312012232CD031201225ACD03128A
:1010530001229D8E031201229A90031201222091F4
:1010630003120122259203120122E99203120122A3
:101073006793031201224A94031201224D9403122F
:1010830001225B9403120122789403120122A1949A
:1010930003120122CA9403120122D89403120122DB
:1010A300F09403120122B5D003120122DED0031201
:1010B300012208D103120122C7D103120122E7D171
:1010C3000312012245D2031201224CF30112012221
:1010D30061F301120122BDF30112012228F401126E
:1010E300012270F401120122DAF40112012203F544
:1010F30001120122E0F801120122EEF8011201228D
:1011030050F9011201228EF901120122A9F90112EB
:10111300012244FA01120122E9FA011201226CFBB5
:1011230001120122A5FB0112012230FC011201224E
:1011330087FC01120122E5FC01120122F7FC0112D6
:1011430001221DFD0112012226FD0112012275FE5D
:1011530001120122AED20312012215D3031201227E
:10116300C0D30312012236D4031201222BB7031278
:1011730001225EB7031201225CB803120122AEB949
:1011830003120122A9FE0112012287FF011201228B
:1011930062C903120122A7C903120122EDC9031276
:1011A3000122B6CB03120122D2DE03120122EDDEAD
:1011B30003120122FDDE0312012211DD03120122BB
:1011C300F4DE02120122D0DF0212012217E0021222
:1011D300012254E002120122C2E0021201221CE1A8
:1011E300021201228CE1021201225CE202120122AC
:1011F3004BE302120122CFE3021201226BE502123A
:101203000122F6E50212012286E6021201221FE7FD
:101213000212012236E70212012269E802120122B8
:10122300BFE80212012275F30212012295F30212A2
:1012330001220BF50212012259F50212012279F55E
:1012430002120122E1F50212012263F602120122C7
:10125300A9F60212012235F70212012228AE011269
:101263000122CFB201120122C0B501120122E9B558
:101273000112012212B601120122C4B60112012287
:10128300A3B801120122F5B90112012241BF0112D3
:1012930001227ABF01120122BEBF01120122CAC07C
:1012A3000112012286CE0312012295CE03120122DE
:1012B3000DCF03120122A5CF03120122C4CF0312C3
:1012C3000122DFCF03120122FFCF0312012288C1C3
:1012D300011201226FC201120122A3C401120122D1
:1012E300E0C401120122C0C501120122D3C50112BB
:1012F3000122FEC5011201220BC7011201229BC765
:10130300011201226AD301120122FE940312012267
:101313004E95031201226B950312012204960312C8
:1013230001225C9603120122DE9703120122C79A5F
:1013330003120122E0DF03120122A9DF03120122BB
:101343000CE00312012254E003E066701008A3E0EE
:1013530066700A08A3E066700408A3E06622C3E788
:10136300960809E7960809E7960809E79622C3E075
:101373009608A3E09608A3E09608A3E09622C00887
:10138300C3E096F50808A3E096420808A3E0964256
:101393000808A3E09645087001D3D008220808087E
:1013A300EAC0E0EBC0E086F0E7A4FA180986F0E7AC
:1013B300A42AFA180986F0E7A42AFA180986F0E79E
:1013C300A42AFA1986F0E7A4FBE5F02AFA1908869D
:1013D300F0E7A42BFBE5F03AFA190886F0E7A42B13
:1013E300FBE5F03AFA18180986F0E7A4C5F02BFBE1
:1013F300E43AFA1908E7C5F0C6A426F6E5F03BFB84
:10140300E43AFA1886F0E7A4F6E5F00826F6E43B9A
:1014130008F6E43A08F6D0E0FBD0E0FA22E4CFC0C5
:10142300E0E4CEC0E0E4CDC0E0E4CCC0E075F02061
:10143300E626F608E633F608E633F608E633F6184A
:101443001818EC33FCED33FDEE33FEEF33FFC3EC42
:101453009709ED9709EE9709EF97191919400FFFAF
:10146300EC97FC09ED97FD09EE97FE191906D5F0E7
:10147300BFECF709EDF709EEF709EFF7191919D0E2
:10148300E0FCD0E0FDD0E0FED0E0FF2260160808CB
:1014930008C6C313C618C613C618C613C618C61380
:1014A300C6D5E0EA22700908080822601618181841
:1014B300C6C333C608C633C608C633C608C633C652
:1014C300D5E0EA22E627F60809E637F60809E63703
:1014D300F60809E637F622E026F608A3E036F60812
:1014E300A3E036F608A3E036F622E026F008A3E0F0
:1014F30036F008A3E036F008A3E036F022C3E697FF
:10150300F60809E697F60809E697F60809E697F656
:1015130022C3E096F008A3E096F008A3E096F00853
:10152300A3E096F022E657F60809E657F60809E61F
:1015330057F60809E657F622E056F608A3E056F6F2
:1015430008A3E056F608A3E056F622E056F008A3F7
:10155300E056F008A3E056F008A3E056F022E0F6C8
:1015630008A3E0F608A3E0F608A3E0F622E6F008F5
:10157300A3E6F008A3E6F008A3E6F022E0FAA3E06E
:10158300FBA3E0FCA3E0FD22EAF0A3EBF0A3ECF065
:10159300A3EDF022E0F8A3E0F9A3E0FAA3E0FB2235
:1015A300E8F0A3E9F0A3EAF0A3EBF022CAC0E0E677
:1015B300F0A308DAFAD0E0FA22CAC0E0E0A3C582B9
:1015C300CCC582C583CDC583F0A3C582CCC582C5F6
:1015D30083CDC583DAE6D0E0CA22C3E498F8E49960
:1015E300F912161E8026C3E49AFAE49BFBE920E76E
:1015F300E912161EE498F8E499F922C3E498F8E492
:1016030099F912161EE498F8E499F9C3E49AFAE4F6
:101613009BFB22EB20E7CFE920E7E0B90010BB00FA
:1016230008E88AF084F8AAF022E4FBC8FA22EB70F7
:10163300227B10C833C8C933C9335007C39AC3DBED
:10164300F280069A50012ADBEAC833F4C8C933F49E
:10165300C9FA2275F008E4C833C8C933C933C99A33
:10166300C99B5004C92AC93BD5F0ECFBC833F4C865
:10167300E4C9FA22600D08C6A2E713C618C613C64A
:10168300D5E0F322600C08C6C313C618C613C6D52B
:10169300E0F422700422600D18C6C333C608C633B3
:1016A300C6D5E0F41822251810AF08F518400C151C
:1016B300198008F51840021519D2AF2200C0D025B1
:1016C3001810AF08F518500C05198008F5185002CA
:1016D3000519D2AFD0D0222518F58210AF08F5181E
:1016E300400C15198008F51840021519D2AF851959
:1016F30083222518F582E43519F583222518F8E4A9
:101703003519F9222518FAE43519FB222518FCE4CA
:101713003519FD22E4732518C582C0E0E51934FFAD
:10172300C583C0E0E518C3958224F810AF0885830C
:10173300198582188008858319858218D2AFCEF067
:10174300A3E520F0A37808E608F0A3DEFAEFF0A300
:10175300E58124FAF8E608F0A3E608F0A3E608F02A
:10176300A30808E608F0A3E608F0A315811581D0C5
:10177300E0FED0E0F8158115811581E8C0E0EEC0E8
:10178300E0222518C582C0E0E51934FFC583C0E017
:10179300E518C3958224F910AF088583198582184B
:1017A3008008858319858218D2AFCEF0A3E520F097
:1017B300A37808E608F0A3DEFAEFF0A3E58124FBA3
:1017C300F8E608F0A3E608F0A30808E608F0A3E6A5
:1017D30008F0A315811581D0E0FED0E0F81581153E
:1017E30081E8C0E0EEC0E022851983851882E0A37A
:1017F300FEE0A3F5207808E0A3F608DFFAE0A3FFF4
:10180300E0A3C0E0E0A3C0E0E0A3C0E0E0A3C0E049
:10181300E0A3C0E010AF088582188583198008858E
:101823008218858319D2AFD083D08202011F851914
:1018330083851882E0A3FEE0A3F5207808E0A3F6F1
:1018430008DFFAE0A3FFE0A3C0E0E0A3C0E0E0A369
:10185300C0E0E0A3C0E010AF08858218858319803B
:1018630008858218858319D2AFD083D08222C0D055
:101873002518C582C0E0E51934FFC583C0E0E5182B
:10188300C3958224F310AF088583198582188008D5
:10189300858319858218D2AFC8F0A3E9F0A3EAF0D3
:1018A300A3EBF0A37908E709F0A3D8FAECF0A3EDD2
:1018B300F0A3EEF0A3EFF0A3D0E0F0A3D0E0F0A309
:1018C300D0E0F0A3E520F0A3E5F0F0A3228519838F
:1018D300851882E0C0E0A3E0F9A3E0FAA3E0FBA34C
:1018E3007808E0F608A3DFFAE0FCA3E0FDA3E0FE3E
:1018F300A3E0FFA3E0C0E0A3E0C0E0A3E0F5D0A332
:10190300E0F520A3E0A3F5F010AF088583198582E5
:10191300188008858319858218D2AFD082D083D0EE
:10192300E0F8D0E03274048006740280027401C0CF
:10193300E0F4041216DAD0E01215AF227404800426
:1019430074028000CCC0E0EDC0E0E518C39CCCADD0
:101953001950011D10AF068C188D1980068C188D37
:1019630019D2AF1215BCD0E0FDD0E0FC22D083D059
:1019730082E9C0E0E493A3C386F0C5F095F0F908CB
:10198300E493A386F0C5F095F0700BE493A3C39999
:101993004005E9048002A3E475F002A42582F582E0
:1019A300E5F03583F583D0E0F9E493A3C0E0E49355
:1019B300C0E022D083D082ECC0E0EDC0E0E493A38A
:1019C300FCE493A3FDED4C600D121A02EC24FFFC22
:1019D300ED34FFFD80EFE493A3FCE493A3FDED4C12
:1019E300600D121A41EC24FFFCED34FFFD80EFD0B3
:1019F300E0FDD0E0FCE493A3C0E0E493C0E022C0A8
:101A0300E0C3E49396087401939618400FE4936639
:101A1300700808740193661870007019A3A3C3E4D7
:101A23009396087401939618A3A3400DD0E0D0E0D9
:101A3300D0E00219F2A3A3A3A3A3A3D0E022C0E0A2
:101A4300C0F088F0E4936670080874019366187018
:101A530000A8F0A3A3700BD0F0D0E0D0E0D0E00258
:101A630019F2A3A3D0F0D0E02274F5121785EAFE91
:101A7300EBFFEE2434F8EF3400F988088909EE24EB
:101A830035F582EF3400F583E0F8EE2437F582EF85
:101A93003400F583E0F50AEC850AF0A4FCAAF0858E
:101AA3000AF0EDA42AFDE82CF8E43DF97A257B0041
:101AB30012161EEA850882850983F0F8740758F91F
:101AC3007401B900028004C333D9FCFAE813131379
:101AD300541FF8EE28F8EF3400F9E8245DF582E9A5
:101AE3003400F583E05A6008EE2434F582EF802C4D
:101AF300EE2434F582EF3400F583E0C0E0EE2436C3
:101B0300F582EF3400F583E0F5F0D0E084A8F0EE41
:101B130028F8EF3400F9E82438F582E93400F58336
:101B2300E0F97F0402183174F5121785EAFEEBFF22
:101B3300EE2434F582EF3400F583E0C0E0EE243583
:101B4300F582EF3400F583D0E0F08E828F83A3A378
:101B5300A3A3A3A3A3C082C0838E828F83A3A3A3C3
:101B6300A3A3E0F8A3E0F9D083D082E0C398F508FB
:101B7300A3E099F509EE247FF582EF3400F583E0C5
:101B830064017069EE2480F582EF3400F583E0F898
:101B9300A3E0F98E828F83A3A3A3A3A3A3A3E0FC53
:101BA300A3E0FD8E828F83A3A3A3A3A3E0FAA3E004
:101BB300FBC3EA9CEB9D5010C3EC98ED99402EC3F8
:101BC300EA98EB995027800EC3EA98EB994007C334
:101BD300EC98ED9940177CDC7D04EEFAEFFB120ADA
:101BE300DCEE247FF582EF3400F583E4F0EE243459
:101BF300F8EF3400F9E8FCE9FDEE2435F582EF3423
:101C030000F583E0F8EE2437F582EF3400F583E046
:101C1300F50AE508850AF0A4F508AAF0850AF0E5B7
:101C230009A42AF509E82508F8E43509F97A257B9A
:101C33000012161EEA8C828D83F0F8740758F9742B
:101C430001B900028004C333D9FCFAE81313135417
:101C53001FF8EE28F8EF3400F9E8245DF582E93443
:101C630000F583E05A6008EE2434F582EF802CEE11
:101C73002434F582EF3400F583E0C0E0EE2436F53A
:101C830082EF3400F583E0F5F0D0E084A8F0EE288D
:101C9300F8EF3400F9E82438F582E93400F583E0FD
:101CA300F9122581021B25C082C0838518828519FC
:101CB30083E0F8A3E0F9C3EA9CEB9D5010C3EC98D2
:101CC300ED99401BC3EA98EB995014800EC3EA9830
:101CD300EB994007C3EC98ED9940047901800279B0
:101CE30000D083D08222EAC39CFAEB9DFB2274EFDF
:101CF3001217859003A2E064086005E06407702A68
:101D03009061C8E060249003D0E0F4601DE0F875B2
:101D1300F003A4C8AAF02AF974D228FE740339FF89
:101D23008E828F83A3A3A3E07003021E21906060C1
:101D3300E0C0E0EE2468F582EF3400F583D0E0F0F4
:101D4300750C45750D05750800750900E5D914F581
:101D53000AE5D95403F50E60177403650E605CE55C
:101D63000A6010EE2467F582EF3400F583E0700318
:101D7300021E06900540E06401602AEE2482F5828B
:101D8300EF3400F583E06004780480027800850A6C
:101D930008E508C398FA95E0FB1209A48A088B09A1
:101DA300EA45097005120CD48074EE2482F582EFA3
:101DB3003400F583E070048A0C8B0DE50A6012850C
:101DC3000C82850D83F50BE5D9F0A3150BE50B709C
:101DD300F6EE2482F582EF3400F583E0604474FC70
:101DE300250AF50A780C12192CAC0AA90EEEFAEFA3
:101DF300FB120B7E74021216BFE97026AA08AB0908
:101E030012115A793D8E828F83A3A3A3A3E0FA7B99
:101E130000120878EEFAEFFB120AF4120B90790025
:101E230080747403650E6056850A1075110078106E
:101E330012192CAC0CAD0DAA08AB09120B5A740283
:101E43001216BFEE2468F582EF3400F583E0648058
:101E53007004747F8001E0F50C780C121930E50EE4
:101E6300F50C780C121930A90AAC08AD099003D00F
:101E7300E0FA7B0012083C74021216BF8013900331
:101E8300A2E06408600BAC0CAD0DEEFAEFFB120B95
:101E9300EA120CE079017F0A02183174F5121785F2
:101EA30074FC1216A9EAFEEBFF8908A2AFE433F52E
:101EB30009C2AF806AEE2463F8EF3400F97A007B3D
:101EC30000A2AFE433F50AC2AF88828983E0FCA3A2
:101ED300E0FDEC4D603A88828983E0FAA3E0FB8A57
:101EE300828B83E0FCA3E0FD88828983ECF0A3ED81
:101EF300F08A828B83E4F0A3F088828983E0FCA3D9
:101F0300E0FDEC4D700A88828983A3A3E4F0A3F07B
:101F1300E50AA2E092AF12115A9004E3E004F0EE56
:101F23002463F582EF3400F583E0F8A3E0F9E84990
:101F3300603DEE2463F582EF3400F583E02402FA7A
:101F4300A3E03400FBEA2402F50AEB3400F50B7836
:101F53000A12192C8A828B83E0FCA3E0F9EEFAEFD4
:101F6300FB120B1874021216BFE97003021EB8901D
:101F730004E3E060639004E4E0F89004E3E0C398D2
:101F8300500C7402650870509004E5E0604A8E823C
:101F93008F83A3A3A3A3E0851882851983F0A3E409
:101FA300F09004E3E0F874021216F5E8F0A3E4F00D
:101FB3009004E3E0F89004E2E028F074021216F5CE
:101FC300AC82AD83851882851983AA82AB8379019C
:101FD3001208489004E3E4F0E509A2E092AF740428
:101FE3001216BF021B250000008521878522C62209
:101FF300C0E0C0D0E8C0E0E9C0E0EAC0E0EBC0E088
:10200300ECC0E0EDC0E0EEC0E0C008C009C00AC00B
:102013000BC082C083C0F0A2AFE433FEC2AF759B96
:1020230000906182E0A2E05012E591A2E0500C75AD
:1020330091FE740165217003121CF1E0A2E5505179
:10204300E591A2E5504B7591DF9003A2E064076030
:1020530005E06408702374016521703579019003EC
:10206300D0E0FA75F003A4CAA8F028FB74D22AFAC8
:1020730074033BFB121E9E8018E0640D70139003E3
:10208300C4E004F064287002E4F07A00E0F9120C72
:10209300E6906182E0A2E6400302213AE591A2E6DE
:1020A300400302213A7591BF9003A2E064057008D2
:1020B300120C14120C208003120C1A752100120C3E
:1020C30074E99003A3F07900120C68120A527A01A2
:1020D3007B009003A1E0F912112A907803E0644297
:1020E3007055900544E014F0704DC2AF1220F20019
:1020F300782AD0E0F618D0E0F6E59F54077005750E
:1021030009FF800375097FC4C0E07829E6F5080854
:10211300E65509F509740B7808121687D0E02508EF
:10212300F8906270E0A2E740F8E8C333906272F07F
:10213300906270E0D2E0F0906181E0A2E35009E5A3
:10214300E9A2E3500375E9F7A3E0A2E75009E5919B
:10215300A2E7500375917FEEA2E092AFD0F0D08357
:10216300D082D00BD00AD009D008D0E0FED0E0FD59
:10217300D0E0FCD0E0FBD0E0FAD0E0F9D0E0F8D03A
:10218300D0D0E032C0E0C0D0C082C083906183E091
:10219300A2E05009E5BFA2E0500375BFFEE0A2E153
:1021A3005009E5BFA2E1500375BFFDE0A2E250096B
:1021B300E5BFA2E2500375BFFBE0A2E35009E5BF10
:1021C300A2E3500375BFF7E0A2E45009E5BFA2E420
:1021D300500375BFEFE0A2E55009E5BFA2E5500348
:1021E30075BFDFE0A2E65009E5BFA2E6500375BF65
:1021F300BFD083D0828088C0E0C0D0E8C0E0E9C00F
:10220300E0EAC0E0EBC0E0ECC0E0EDC0E0C0F0E528
:10221300A7A2E6500FE5A1A2E6500953A7BF75A1F7
:10222300BF12225FE5A7A2E5500CE5A1A2E5500687
:1022330053A7DF75A1DFE5A7A2E15009E5A1A2E15C
:10224300500375A1FDE5A7A2E2500CE5A1A2E2505F
:102253000653A7FB75A1FBD0F002217074F8121787
:10226300857521019003A2E064067015120BAE8AF6
:10227300828B83A3A3A3A3A3A3E0FAA3E0FB120C83
:1022830002A2AFE433FED2AF9003A8E0640170185A
:102293007A207B009003A1E0F912124A7A207B0096
:1022A3009003A1E0F9121130906182E0D2E6F09040
:1022B3000541E0602185C62280169003A7E06401F2
:1022C3007008E5C654F84405F5C653BEFC121FEC6E
:1022D3007401652160E4EEA2E092AF7F0102183140
:1022E300008E238F2485822885832785188285196C
:1022F30083E0CEA3E0CF852882852783EBC9EAC894
:10230300EDCBECCA75F010C3E833C8E933C9EA333F
:10231300CAEB33CBC3EA9EF526EB9FF525B35004F6
:10232300AB25AA26EC33CCED33CDD5F0DAAE23AF13
:10233300242274ED1217858A088B098C0A8D0B747D
:10234300131216F5780C1215617808790C121361C3
:102353007510017511C875120075130050127808B5
:10236300790C121500781079081213615016801039
:10237300780C79081215007810790C121361400457
:102383007901800279007F0C02183174ED121785F0
:102393008A088B098C0A8D0B74131216F5780C12AC
:1023A3001561780C790812136140117808790C12C1
:1023B3001500AA08AB09AC0AAD0B80227510007595
:1023C30011007512007513017810790C121500783D
:1023D3001079081214C7AA10AB11AC12AD1380A662
:1023E3008A828B837508FF7509FF750AFF750B00D9
:1023F300780812154E7F0402183174F51217858C74
:10240300828D8378081215618A828B83780812156E
:1024130014EA2404F8EB3400F98C828D83A3A3A37C
:10242300A3E0FCA3E0FD88828983C3E09CF0A3E0E2
:102433009DF088828983C3E09420A3E0944E4026D4
:102443008A828B837508FF7509FF750AFF750BFF79
:1024530078081214ED8A828B83A3A3A3A3E024201C
:10246300F0A3E0344EF00223E374F5121785E9FE7E
:102473009004F7E0FAA3E0FBEEC333F8E433F97416
:102483008828F582748339F583E02AF508A3E03BB5
:10249300F509780812192C7A407B427C0F7D0012D3
:1024A30022E474021216BF8A088B098C0A8D0B74FE
:1024B30010780812148FAA08AB097F04021831742C
:1024C300F11217858A0C8B0D8C0E8D0F740F12165B
:1024D300F5E0FAA3E0FB74111216F5E0F508A3E0AA
:1024E300F509780812192CEA2401F508EB3400F5F4
:1024F30009E4F50AF50B780C79081213A075087135
:10250300750902780C79081213A0AA0CAB0DAC0E56
:10251300AD0F1222E474021216BF8B09EA4509605B
:10252300047A0180027A00EC2AFCED3400FD741376
:102533001216F5E0F8A3E0F9E8FEE9FFECF8EDF98F
:102543007A717B0212161E880889098E828F83781E
:1025530008121570ECF8EDF97A717B0212161E8AD7
:10256300088B09740578081216968E828F83A3A3AD
:10257300A3A3E508F0A3E509F07F08021831C082A0
:10258300C083E9906000F0D083D08222C0E074F26F
:10259300121871A2AFE433FED2AFC2C0E5D1A2E4F8
:1025A300500653D1EF1210A0EEF8EEA2E092AF7FE7
:1025B300010218D0C0E074F2121871A2AFE433FE26
:1025C300D2AFE58AA2E35003121022758A00C2EB50
:1025D300EEF8EEA2E092AF7F010218D0C0E0C0D0C7
:1025E300E8C0E0E9C0E0A2AFE433F8D2AFC2C7E885
:1025F300F9E8A2E092AFD0E0F9D0E0F8D0D0D0E093
:1026030032C0E0C0D0E8C0E0E9C0E0EAC0E0C08288
:10261300C083A2AFE433FAD2AF9009B5E0F89009D2
:10262300B6E068700B539AFB9009B77401F0802CE5
:10263300C2E99009B5E0F87401289009B5F0790072
:10264300743528F582740939F583E0F5C19009B52D
:10265300E0C3948040069009B57400F0EAF8EAA25A
:10266300E092AFD083D082D0E0FAD0E0F9D0E0F8A6
:0B267300D0D0D0E032C2AF0200002245
:10268000FFFFFFFFFFFFFFFF74F012171974F8122E
:1026900016A98A0E8B0FE9FF8C0C8D0D7E00850E1E
:1026A00008850F0978081219700004106629D026D1
:1026B000F3261227352758277B27AC27CF27E62775
:1026C0001628C728EA280D293B29662966293F28AC
:1026D00074016F7019850C82850D83E0C3940350DB
:1026E0000D850C82850D83E0900CA2F080027E188F
:1026F00002298E74026F7015850C82850D83E0F8B7
:10270000A3E0F9900CA3E8F0A3E9F080027E1802A0
:10271000298E74016F7019850C82850D83E0C39436
:1027200002500D850C82850D83E0900749F08002F0
:102730007E1802298E74016F7019850C82850D83B5
:10274000E0C39405500D850C82850D83E090074A07
:10275000F080027E1802298E74016F7019850C8238
:10276000850D83E0C39402500D850C82850D83E0B6
:1027700090074BF080027E1802298E74106F70272C
:10278000750810750900780812192CAC0CAD0D7A7B
:102790004C7B071210D074021216BF8A088B098571
:1027A000088285098380027E1802298E74016F7069
:1027B00019850C82850D83E0C39402500D850C822F
:1027C000850D83E090075CF080027E1802298E74EC
:1027D000016F700D850C82850D83E0900CA6F08052
:1027E000027E1802298E74046F70269084A07808E7
:1027F000121561850C82850D8378081213715011B2
:10280000850C82850D8312159790075E1215A380A3
:10281000027E1802298EEF70211205F6E97013125C
:102820000F6EE9F5097950121220E9F508120F5CD4
:10283000800A9007F17401F080027E1802298E74DC
:10284000076F707E750806750900780812192C85C7
:102850000C82850D83A3AC82AD837404121707121A
:1028600010D674021216BF851882851983EAF0A368
:10287000EBF07C007D007402121707850C82850D39
:1028800083E0F9120F02E9F50AE50AC3940A502E13
:102890001205F6E97015A90A120F74E9F5097950C5
:1028A000121220E9F508120F5C8019A80A79007449
:1028B000F228F582740739F5837401F080067E02F0
:1028C00080027E1802298E74016F7019850C828532
:1028D0000D83E0C39402500D850C82850D83E0903A
:1028E000075DF080027E1802298E74016F701985D1
:1028F0000C82850D83E0C3940A500D850C82850DF2
:1029000083E0900CA5F080027E1802298E74016F7E
:102910007025850C82850D83E0C394074019850CD2
:1029200082850D83E0C39411500D850C82850D8343
:10293000E0900CA7F080577E18805374016F7022CE
:102940009007F0E0F508850C82850D83E09007F094
:10295000F0E50870399007F0E064017031120F5C07
:10296000802C7E188028C3E50E9427E50F94005034
:102970001B74026F7016850C82850D83E0FCA3E04A
:10298000FDAA0EAB0F120494E9FE80027E02EEF95E
:1029900074081216BF7F080217EB74F0121719742F
:1029A000D71216A9E9C0E0851882851983D0E0F016
:1029B00074011216F5EAF0A3EBF08C0E8D0F9084E3
:1029C0007A740312170F74061215BC740312170FD2
:1029D00074011216F5E0FAA3E0FB851882851983CD
:1029E000E0F9120F02E9FEEEC3940A4003022B291C
:1029F000EEF9120F3EE9FF900CA2E064027004743D
:102A00000180027400F5087808121930743A121621
:102A1000F5E0FDEFFCEEF9AA0EAB0F120FB074015A
:102A20001216BF7C147D007900741512170712105E
:102A3000E88A088B0985080A85090B741512170F97
:102A40007A1075F006EEA42424F912121AE9703CEB
:102A50007C1079FF741512170712114EE9702D744E
:102A6000251216F5AC82AD837A0475F006EEA42427
:102A700025F912121AE9F508741512170FEFA2E0E2
:102A8000E433F9AA0EAB0F12051EE9F87409121708
:102A90000F7A0C74702EF912121AE97079740912F7
:102AA0001707120F32750800E508C394045067A891
:102AB000087900E875F003A4C8AAF075F000A42A0C
:102AC000FA75F003E9A42AF974091216F5E58228CB
:102AD000F50CE58339F50D850C82850D83E0F8A3AF
:102AE000E0F9E849602C850C82850D83A3A3E0F50D
:102AF0000A750B00780A12192C850C82850D83E06B
:102B0000FCA3E0FDAA0EAB0F12078274021216BFDF
:102B1000E9F805088092EFA2E1500E900748E0F92D
:102B2000AA0EAB0F120788E9F874391216F5E064A3
:102B300004700F900CA2E064027007AA0EAB0F1293
:102B40000FAA790074291216BF7F080217EB74F2DE
:102B5000121719890B8A088B09ECFEEDFF750A0A1A
:102B6000E50B600B14600814604114605F807DAA5F
:102B700008AB09120F50E9F50AE50AC3940A506C34
:102B8000EE4F6068750C06750D00780C12192CACB0
:102B900008AD09EEFAEFFB1210D074021216BF8ACC
:102BA0000C8B0D850C82850D838041AA08AB091220
:102BB0000F4AE9F50AE50AC3940A5030EE4F602C3B
:102BC000EEFAEFFBA90A120F44E98020AA08AB092C
:102BD000120F56E9F50AE50AC3940A500FEE4F604A
:102BE0000BEEFAEFFBA90A120F44E9F8A90A7F06D7
:102BF0000217EB74F21217198A0C8B0DE9FF7E1580
:102C000074FF650C700474FF650D702A750800E58B
:102C100008C3940A5014EFFC7A027B00A908120F33
:102C200020E960027E00050880E5EF60627A987B0B
:102C30000F1209868059AA0CAB0D1209688A088BFD
:102C40000985080A85090BE50A450B60407C007D73
:102C500000E50A2405FAE4350BFB850A82850B831F
:102C6000A3A3A3A3E0F9120F02E9F508E508C394B2
:102C70000A500EEFFC7A027B00A908120F20E97EB1
:102C800000EF600BAA0AAB0B120F9880027E14EEC5
:102C9000F97F060217EB74F012171974FE1216A9C9
:102CA000851882851983EAF0A3EBF08C0A8D0B74EA
:102CB000121216F5E0F50EA3E0F50F7E15851882C9
:102CC000851983E064FF7004A3E064FF701D7F003A
:102CD000EFC3940A506BAC0EAD0FAA0AAB0BEFF921
:102CE000120F26E960027E000F80E58518828519A3
:102CF00083E0FAA3E0FB1209688A0C8B0D850C08AF
:102D0000850D09E508450960367C007D00E508244D
:102D100005FAE43509FB850882850983A3A3A3A3EB
:102D2000E0F9120F02E9FFEFC3940A5014AC0EADA4
:102D30000FAA0AAB0BEFF9120F26E97E0080027E84
:102D400014EEF974021216BF7F080217EB74F71223
:102D50001719EAFEEBFF900762EEF0A3EFF0900781
:102D600048E0FC7D007A267B00120494E9F5089087
:102D70000748E0F91206FE7F010217EB74F2121702
:102D80001974EC1216A98A0A8B0B850A82850B83AB
:102D9000A3A3E024FA70030231C424FD70030230BF
:102DA00038147003022E6C14601024FD7003022F7F
:102DB000E014700302307C02322CAE0AAF0B900795
:102DC00062E0F8A3E0F9E8496066900762E0F8A3E2
:102DD000E0F5838882E0F8A3E0F9E8496052EE2448
:102DE0000CF582E43FF583E0F5087808121930EE1F
:102DF000240BF582E43FF583E0F98E828F83A3A351
:102E0000A3A3A3A3A3A3A3E0FCA3E0FDEE2403FAE2
:102E1000E43FFB900762E0F8A3E0F5838882E0F8E6
:102E2000A3E0F583888212171774011216BF803948
:102E30008E828F83A3A3A3A3A3A3A3A3A312194347
:102E400090075E12157F12053074021216BFE960FA
:102E50001879018E828F83A3A3A3A3A3A3A3A3A303
:102E6000E0FAA3E0FB12052AE902322CAE0AAF0B0E
:102E70008E828F83A3E06003022F8E8E828F83A3C6
:102E8000A3A3A3A3E0A2E04003022F8E9007FCE0DF
:102E9000F8A3E0F9E8496003022F8E7C0E7D0079EB
:102EA00000AA18AB191210E88A088B09AA08AB0906
:102EB000EE240CF582E43FF583E0F8A3E0F9E8495D
:102EC0006036750806750900780812192CEE240C76
:102ED000F582E43FF583E02410FCA3E03400FD74A8
:102EE000021217071210D074021216BF8A088B093B
:102EF000850882850983804F8E828F83A3A3A3E0F8
:102F0000FAA3E0FB1209688A0C8B0D850C08850D6D
:102F100009E5084509602D750C06750D00780C1241
:102F2000192CE5082405FCE43509FD740212170785
:102F30001210D074021216BF8A0C8B0D850C82857C
:102F40000D83800302322C8E828F83A3A3A3A3A3BD
:102F5000E0A2E25004D2F08002C2F0A2F0E433F822
:102F60007900740C1216F5E048F0A3E049F0EEFC8D
:102F7000EFFDAA18AB19120F38E970127A027B0024
:102F8000900748E0F912112AE9790002322E9007E1
:102F900062E0F8A3E0F9E8496043900762E0F8A333
:102FA000E0F5838882A3A3E0F8A3E0F9E849602D67
:102FB0008E828F83A3E0FC79018E828F83A3A3A3EB
:102FC000E0FAA3E0FB900762E0F8A3E0F5838882D3
:102FD000A3A3E0F8A3E0F583888212171702322C2E
:102FE000AE0AAF0B900762E0F8A3E0F9E84960454C
:102FF000900762E0F8A3E0F5838882A3A3E0F8A33A
:10300000E0F9E849602F850A82850B83A3E0FC790B
:10301000028E828F83A3A3A3E0FAA3E0FB90076252
:10302000E0F8A3E0F5838882A3A3E0F8A3E0F583AA
:10303000888212171702322C850A08850B097C003A
:103040007D00E5082404FAE43509FB85088285093A
:1030500083A3A3A3E0F9120F02E9FEEEC3940A5082
:1030600018E508240AFCE43509FD7A0475F006EE3B
:10307000A42425F9121214E9F802322CAE0AAF0B7F
:1030800090075DE06019900CA5E0F98E828F83A314
:10309000A3A3E0FAA3E0FB12052AE9F802322C9080
:1030A0000CA2E0701679058E828F83A3A3A3E0FAA9
:1030B000A3E0FB12052AE9F802322C8E828F83A34B
:1030C000A3A3E0FAA3E0FB1209688A0C8B0D850C20
:1030D00008850D098E828F83A3A3A3A3A3A3A3E0D6
:1030E000A2E05072E5084509606985088285098378
:1030F000A3A3A3A3E0605F8E828F83A3A3A3A3A354
:10310000A3A3A3A3E0F8A3E0F9E8C4540FF879005F
:10311000E85401F8E95400F9E8A2E04039740E12CD
:10312000170FE5082405FAE43509FB8508828509AF
:1031300083A3A3A3A3E0F9120F02E9701979038E08
:10314000828F83A3A3A3E0FAA3E0FB12052AE9F888
:1031500002322C02322CEE2405FCE43FFD8508826D
:10316000850983A3A3A3A3E0F98E828F83A3A3A3DE
:10317000E0FAA3E0FB120FA4900762E0F8A3E0F9E5
:10318000E849603E900762E0F8A3E0F5838882A3F7
:10319000A3E0F8A3E0F9E84960287C0079008E827A
:1031A0008F83A3A3A3E0FAA3E0FB900762E0F8A358
:1031B000E0F5838882A3A3E0F8A3E0F58388821278
:1031C000171780681205F6E970629007F1E0640154
:1031D000701A120F6EE9FE9007F17400F07C0A7D00
:1031E0000079007AF27B071210E880367E00EEC389
:1031F000940A502EEEF8790074F228F5827407399B
:10320000F583E064017018EEF9120F74E9FAEEF834
:10321000790074F228F582740739F5837400F00E92
:1032200080CC7950121220E9FE120F5C79017414DF
:103230001216BF7F060217EB74F512171974F212FB
:1032400016A98908EAFEEBFF8C09AC18AD197A0EB5
:1032500075F006E508A42420F912121AE9705F7CC3
:103260000679FFAA18AB1912114EE97051740C12AD
:1032700016F5E0F8A3E0F9E8F50AE5096005EE4285
:103280000A8004EEF4520AA80A7900740C1216F5AA
:10329000E0687003A3E0696021A80A7900740C1249
:1032A00016F5E8F0A3E9F0AC18AD197A0E75F00642
:1032B000E508A42420F9121214E9790180027900AA
:1032C000740E1216BF7F030217EB74F012171974F5
:1032D000E61216A989098A0E8B0FECFEEDFF740C1D
:1032E00012170F7A0E75F006E509A42420F91212C0
:1032F0001AE960030233FA7C0679FF740C1217078F
:1033000012114EE960030233FAAC18AD197A0C744D
:10331000702509F912121AE960030233F6750800E4
:10332000AA18AB19120F32E50E450F702E7C0C79DE
:1033300000AA18AB1912114EE960030233DC7C0CB1
:103340007D007900AA18AB191210E88A0A8B0B8548
:103350000A82850B837508010233DCAC18AD19AA0B
:103360000EAB0F120F2C8A0C8B0D850C0A850D0BE2
:10337000E50A450B7030EE4F601BAC18AD197A00B2
:103380007B00120F2C8A0C8B0DA80CA90D880A89C2
:103390000BE849700479008063850A82850B83E518
:1033A0000EF0A3E50FF0850A82850B83A3A3E0F856
:1033B0007900EE687002EF696022EEC0E0850A8253
:1033C000850B83A3A3D0E0F0EE4F700D850A8285B4
:1033D0000B837400F0A37400F0750801E508601613
:1033E000AA18AB19120F32AC18AD197A0C747025EB
:1033F00009F9121214E9790180027900741A12167F
:10340000BF7F080217EB74F7121719EAFEEBFF7A79
:1034100000EAC39404504EEAF87900E875F003A47A
:10342000C8ABF075F000A42BFB75F003E9A42BF9F1
:10343000EC28F582ED39F583E06E7003A3E06F7040
:1034400021EAF87900E875F003A4C8AAF075F00045
:10345000A42AFA75F003E9A42AF9EC28FAED39FB5D
:1034600080070A80AC7A007B007F010217EB74F7BB
:103470001217197C00ECC39404400302351DECF8CC
:103480007900E875F003A4C8ADF075F000A42DFD37
:1034900075F003E9A42DF9EA28F582EB39F583E00C
:1034A000F4FEA3E0F4FFECF87900E875F003A4C89B
:1034B000ADF075F000A42DFD75F003E9A42DF9EA37
:1034C00028F582EB39F583EEF0A3EFF0ECF8790004
:1034D000E875F003A4C8ADF075F000A42DFD75F0FB
:1034E00003E9A42DF9EA28F582EB39F583A3A3E0DB
:1034F000F4C0E0ECF87900E875F003A4C8ADF0750D
:10350000F000A42DFD75F003E9A42DF9EA28F58259
:10351000EB39F583A3A3D0E0F00C0234757F0102F0
:1035200017EB74F012171974F41216A9EAFEEBFFE8
:103530008C088D099007FCE0F8A3E0F9E849702CAD
:10354000EE4F6006E5084509700579010237CEEEB9
:10355000FAEFFB120F50E9900CA8F0900CA8E0C312
:10356000940A4008120F62E9900CA8F0900CA8E0B1
:10357000C3940A40030237CC9007FCE0F8A3E0F9BB
:10358000E8496003023618EEFCEFFD7A0E75F0068E
:10359000900CA8E0A42420F9121214E9F50B7C0C7D
:1035A0007D0079FFAA18AB191210E88A0C8B0D85E3
:1035B0000C0E850D0FAC18AD197A0C900CA8E024F8
:1035C00070F9121214E9F50A750C0E750D00780CDD
:1035D00012192CEEFCEFFD900CA8E0F87900E875CC
:1035E000F00EA4C8AAF075F000A42AFA75F00EE94E
:1035F000A42AF9746428FA740739FB1210D07402F3
:103600001216BF8A0C8B0DA80CA90D9007FCE508BB
:10361000F0A3E509F00237C89007FCE0F8A3E0C882
:103620002406F582C83400F583E0F8A3E0F9E84900
:1036300060439007FCE0F8A3E0C82406F582C83494
:1036400000F583E0FCA3E0FD7A1B75F006900CA862
:10365000E0A42421F9121214E9F89007FCE0F9A380
:10366000E0C92406F582C93400F5837400F0A37420
:1036700000F00237C89007FCE0F8A3E0C8240AF580
:1036800082C83400F583E0F8A3E0F9E8496043908C
:1036900007FCE0F8A3E0C8240AF582C83400F583EB
:1036A000E0FCA3E0FD7A1B75F006900CA8E0A424D2
:1036B00022F9121214E9F89007FCE0F9A3E0C924FA
:1036C0000AF582C93400F5837400F0A37400F00297
:1036D00037C89007FCE0F8A3E0C8240CF582C83492
:1036E00000F583E0F8A3E0F9E84960439007FCE0C7
:1036F000F8A3E0C8240CF582C83400F583E0FCA3ED
:10370000E0FD7A1075F006900CA8E0A42423F912CD
:103710001214E9F89007FCE0F9A3E0C9240CF58243
:10372000C93400F5837400F0A37400F00237C89028
:1037300007FCE0F8A3E0C82408F582C83400F5834C
:10374000E0F8A3E0F9E849606F9007FCE0F8A3E037
:10375000C82408F582C83400F583E0FCA3E0FD7AB4
:103760001075F006900CA8E0A42424F9121214E9B4
:10377000F50A9007FCE0F8A3E0C82408F582C834F5
:1037800000F583E02410FCA3E03400FD7A0475F01A
:1037900006900CA8E0A42425F9121214E9F8900769
:1037A000FCE0F9A3E0C92408F582C93400F583746C
:1037B00000F0A37400F080109007F0E06003120F97
:1037C000B6120F9E79018006790080027901740C8F
:1037D0001216BF7F080217EB74F712171974F21252
:1037E00016A9E9FEAC18AD197A0E75F006EEA42400
:1037F00020F912121AE9700E740C1216F5E0F8A3F3
:10380000E0F9E8F980027900740E1216BF7F010218
:1038100017EB74F412171974F21216A98909EAFE4B
:10382000EBFFE509C3940A5004EE4F70047902805F
:1038300041AC18AD197A0E75F006E509A42420F9FB
:1038400012121AE9F508E5087026750A06750B00CC
:10385000780A12192C740212170FEEFAEFFB1210ED
:10386000D074021216BF8A0A8B0B850A82850B83DD
:10387000A908740E1216BF7F040217EB74F4121716
:1038800019EAFEEBFF750800E508C3940A5043757A
:103890000A06750B00780A12192CEEFCEFFDA80839
:1038A0007900E875F00EA4C8AAF075F000A42AFA11
:1038B00075F00EE9A42AF9746A28FA740739FB1224
:1038C00010E274021216BFE96004A9088006050818
:1038D00080B6790A7F040217EB74F4121719EAFE16
:1038E000EBFF750800E508C3940A5043750A067596
:1038F0000B00780A12192CEEFCEFFDA8087900E8FD
:1039000075F00EA4C8AAF075F000A42AFA75F00E9E
:10391000E9A42AF9746428FA740739FB1210E274D6
:10392000021216BFE96004A9088006050880B6796E
:103930000A7F040217EB74F712171974F01216A914
:10394000EAFEEBFF750800E508C3940A5039AC188D
:10395000AD197A1075F006E508A42423F912121A9D
:10396000E970207C1079FFAA18AB1912114EE9708A
:1039700012EEFCEFFDAA18AB19120500E97004A9BC
:10398000088006050880C0790A74101216BF7F01EE
:103990000217EB74F4121719750800E508C3940AAE
:1039A0004003023A6DA8087900E875F00EA4C8AA91
:1039B000F075F000A42AFA75F00EE9A42AF97464EF
:1039C00028FC740739FD7A0E75F006E508A424205A
:1039D000F912121AE97003023A687C067D0079FF39
:1039E000AA087B00EA75F00EA4CAA8F075F000A43E
:1039F00028F875F00EEBA428FB74642AFA74073BD0
:103A0000FB1210E88A0A8B0BAE0AAF0B7C067D0016
:103A100079FFAA087B00EA75F00EA4CAA8F075F039
:103A200000A428F875F00EEBA428FB746A2AFA7437
:103A3000073BFB1210E88A0A8B0BAC0AAD0BA808F7
:103A40007900E875F00EA4C8AAF075F000A42AFA6F
:103A500075F00EE9A42AF9747028F582740739F517
:103A6000837400F0A37400F0050802399B9007F0FE
:103A7000E06003120FB6120F9E7F040217EB74F77B
:103A80001217197E00EEC3940A50327C0679FFEEBD
:103A9000FA7B00EA75F00EA4CAA8F075F000A4281D
:103AA000F875F00EEBA428FB74642AFA74073BFB4C
:103AB00012114EE96004EEF980050E80C8790A7F84
:103AC000010217EB74F71217197E007F00EFC39401
:103AD0000A50357C0679FFC9FDC9EFF87900E87511
:103AE000F00EA4C8AAF075F000A42AFA75F00EE949
:103AF000A42AF9746428FA740739FBCDF9CD1211A0
:103B00004EE970010E0F80C5EEF97F010217EB74CC
:103B1000F71217197E007F00EFC3940A500DEE7064
:103B20000AEFF9120F74E9FE0F80EDEEF97F010242
:103B300017EB74F012171974C91216A9E9FE900C4C
:103B4000A8E06E701D7A017B00900748E0F9121121
:103B500030E97A027B00900748E0F9121130E9124F
:103B60000FC2742912170F7A0E75F006EEA42420E6
:103B7000F912121AE96003023C667C0679FF742987
:103B800012170712114EE96003023C667C0E7D009D
:103B900079FF74291217071210E885188285198396
:103BA000EAF0A3EBF07C1B7D0079FF740E1217077F
:103BB0001210E88A0A8B0B850A0E850B0F7C0C7D90
:103BC0000079FF74021217071210E88A0C8B0D851A
:103BD0000C0A850D0B742912170F7A0E75F006EE7C
:103BE000A42420F9121214E9F508740E12170F7AA2
:103BF0001B75F006EEA42421F9121214E942087490
:103C00000E12170F7A1B75F006EEA42422F9121279
:103C100014E94208740E12170F7A1075F006EEA41C
:103C20002423F9121214E94208740E12170F7A10A5
:103C300075F006EEA42424F9121214E94208740E59
:103C400012170F7A0475F006EEA42425F912121447
:103C5000E94208740212170F7A0C74702EF91212CE
:103C600014E942088003750800A90874371216BFCA
:103C70007F080217EB74F7121719E9FEEE90074858
:103C8000F0120F5C7F010217EB74F2121719890A08
:103C9000EAFEEBFFEE5400F8EF5480F9E849603596
:103CA000900748E0F91211128A0C8B0DA80CA90D8F
:103CB00088088909E8496012AA08AB09120F86E949
:103CC0006008AA08AB09121100E9EE6400FAEF647B
:103CD00080FB023D8DEE5402602D7C007D007A0059
:103CE0007B00120F38E960187A017B00900748E0EA
:103CF000F912112AE9EE6402FAEF6400FB023D8D2D
:103D00007A027B00023D8DEEA2E0507D9007FCE040
:103D1000F8A3E0F5838882A3A3A3E0FAA3E0FB1253
:103D20000FBCE9605E900762E0F8A3E0F9E8496043
:103D300045900762E0F8A3E0F5838882A3A3E0F84A
:103D4000A3E0F9E849602F7C0079019007FCE0F8D6
:103D5000A3E0F5838882A3A3A3E0FAA3E0FB900786
:103D600062E0F8A3E0F5838882A3A3E0F8A3E0F57E
:103D7000838882121717120FC2EE6401FAEF6400F3
:103D8000FB800A7A017B0080047A007B007F0602B8
:103D900017EB74F7121719EAFEEBFF7508018E8214
:103DA0008F83E02450601314601924E1701CEEFA34
:103DB000EFFB120F1AE9F5088010EEFAEFFB120F75
:103DC0008C8007EEFAEFFB120F92A9087F01021711
:103DD000EB74F7121719EAFEEBFF8E828F83A3A311
:103DE000A3A3E0641E701179008E828F83A3A3E0E9
:103DF000FAA3E0FB120F08E97F010217EB74F61239
:103E000017198A088B09850882850983A3A3A3A3B0
:103E1000E07034AE08AF098E828F83A3A3A3A3A35F
:103E2000A3A31219438E828F83A3A3A3A3A3E0FCB1
:103E3000A3E0FD8E828F83A3A3E0FAA3E0FB120F21
:103E40000E74021216BFE97F020217EB74F7121705
:103E500019EAFEEBFF900748E0F98E828F83A3E01A
:103E6000FAA3E0FB120788E97F010217EBC082C0CA
:103E70008374FF1216A9120F68E9C39402400B85E0
:103E800018828519837402F0800985188285198348
:103E9000740AF0AC18AD197A01790512060EE974AE
:103EA000011216BFD083D08202011F74F2121719BB
:103EB00074E81216A98A088B09E9FE8C0A8D0B7C1E
:103EC000187D007900AA18AB191210E88A0C8B0D26
:103ED000AC0CAD0D851882851983E508F0A3E509C2
:103EE000F090074AE0C0E074021216F5D0E0F090BE
:103EF000074BE0C0E074031216F5D0E0F0900CA779
:103F0000E0C0E074171216F5D0E0F074151216F543
:103F1000E054FEFAA3E054FFFB900CA6E0A2E0E41C
:103F200033F87900EA48F8EB49F974151216F5E808
:103F3000F0A3E9F0900CA6E0A2E15004D2F08002D8
:103F4000C2F074151216F5E054FDFAA3E054FFFB1D
:103F5000A2F0E433F87900E828F8E933F9EA48F800
:103F6000EB49F974151216F5E8F0A3E9F0900CA6E8
:103F7000E0A2E35004D2F08002C2F074151216F5EC
:103F8000E054F7FAA3E054FFFBA2F0E433F50C751C
:103F90000D007403780C121696EA450CF8EB450DEB
:103FA000F974151216F5E8F0A3E9F0900CA6E0A25A
:103FB000E45004D2F08002C2F074151216F5E054F9
:103FC000EFFAA3E054FFFBA2F0E433F50C750D000B
:103FD0007404780C121696EA450CF8EB450DF9744A
:103FE000151216F5E8F0A3E9F0900CA6E0A2E55052
:103FF00004D2F08002C2F074151216F5E054DFFA14
:10400000A3E054FFFBA2F0E433F50C750D0074053A
:10401000780C121696EA450CF8EB450DF97415125A
:1040200016F5E8F0A3E9F0900CA6E0A2E25004D265
:10403000F08002C2F074151216F5E054FBFAA3E00A
:1040400054FFFBA2F0E433F50C750D007402780CFC
:10405000121696EA450CF8EB450DF974151216F593
:10406000E8F0A3E9F090074BE0602A750C10750D9D
:1040700000780C12192C7C4C7D0774061216F5AAD8
:1040800082AB831210D074021216BF8A0C8B0D857E
:104090000C82850D8390075CE06011EE600E741554
:1040A0001216F5E04402F0A3E04400F090075CE053
:1040B0006006780179008004780079007414121683
:1040C000F5E048F0900749E0600678047900800444
:1040D0007800790074141216F5E048F0AC0AAD0BC4
:1040E000AA18AB19120524E974181216BF7F06022C
:1040F00017EB74F7121719EAFEEBFF75080090072B
:104100005CE0600678017900800478007900E8427C
:1041100008900749E0600678047900800478007907
:1041200000E84208A908EEFAEFFB1205DEE97F017C
:104130000217EB74F212171974E31216A98A0C8B8A
:104140000DE9FF8C0A8D09742B1216F5E0F5087441
:10415000086509700A75F006EFA42422FE80087530
:10416000F006EFA42421FE7C1B7D0079007402126E
:1041700017071210E8851882851983EAF0A3EBF07F
:10418000740212170F7A1BEEF912121AE9703874C2
:104190001C1216F5E0C39407402D741C1216F5E0AE
:1041A000C394115022E508F50B780B1219307403F3
:1041B00012170FE50AA2E0E433F9AA0CAB0D1205C1
:1041C0003674011216BFE9741D1216BF7F0602175E
:1041D000EB74F7121719120800E97E00EEC3940A77
:1041E000505C7C0679FFC9FDC9EEF87900E875F0EE
:1041F0000EA4C8AAF075F000A42AFA75F00EE9A47E
:104200002AF9746428FA740739FBCDF9CD12114EDE
:10421000E97028EEF87900E875F00EA4C8AAF075E8
:10422000F000A42AFA75F00EE9A42AF9746428FAB9
:10423000740739FB7900120806E9F80E809E7F01A9
:104240000217EB74F612171974FD1216A9EAFEEBA9
:10425000FF9007FEE0F8A3E0F9E84970397508001F
:10426000750908780812192C750802750900780874
:1042700012192C7508F0750984780812192C7CFF26
:104280007DFF7A017B0012065074061216BF90075C
:10429000FEEAF0A3EBF09007FEE0F8A3E0F9E849AE
:1042A0007003024360E4F508F509780812192C74CC
:1042B000041216FF88088909780812192C74041250
:1042C00016FF88088909780812192C90080012191D
:1042D0004379029007FEE0FCA3E0FDEEFAEFFB124B
:1042E000077674081216BFE9704A8518828519830B
:1042F000E0FA7B0074011216F5E0F87900E4C8F9E1
:10430000EA28F508EB39F509E5084509602678083B
:1043100012192C9007FEE0F8A3E0F5838882A3A38E
:10432000A3A3E0FCA3E0FDEEFAEFFB120F0E740274
:104330001216BFE9E4F508F509780812192C90085F
:10434000001219437CFF7DFF9007FEE0FAA3E0FB1B
:1043500012065C74041216BF9007FEEAF0A3EBF09D
:104360009007FEE0F8A3E0F9E849700479018002C3
:10437000790074031216BF7F020217EBC082C0835C
:104380009007FCE0F8A3E0F9E84960179007FCE02B
:10439000FAA3E0FB121100E9F89007FC7400F0A307
:1043A0007400F0900CA8740AF0D083D08202011F30
:1043B000C082C083E9900BB8F002463F74F7121731
:1043C00019E99002E1F07C197D037AFF7BFF120767
:1043D0008E9002E274FFF0A3F0A3E4F0A3F079055D
:1043E0001207169002E1E0F91206387AAC7B071248
:1043F00009567F010217EB74F41217198A088B090A
:10440000EB548060309002E1E0F91211128A0A8BBD
:104410000BAE0AAF0BEE4F60138E828F83E064B059
:10442000700312072EEEFAEFFB121100AA08E5093D
:104430006480FB80047A007B0002460E74F212173F
:104440001974FC1216A9EAFEEBFFEE4F60387402F5
:104450001216F5EEF0A3EF124873ECF0A3ED12483C
:1044600073AA82AB83120632E9F5087073741212D4
:1044700016F5125427E50A450B60658E828F83126C
:1044800044EAEE4F700575080280557A067B0012EB
:10449000119C8A0C8B0DA80CA90DE84970057508B4
:1044A00013803D88828983E41244F4A3A3EEF0A331
:1044B000EF1258C0E50AF0A3E50BF09002E71245B1
:1044C0007C9002E76017E0FCA3E08003EAFCEBFDD0
:1044D0008C828D8312457C70F38C828D8312534CB9
:1044E000A90874041216BF025AC2A3A3A3A3E0FE34
:1044F000A3E0FF22F0A3F0888289832274F21217CE
:1045000019890AE975F017A4FEAFF09002E6E4F00D
:104510009002E412457C600A1211A29002E4E4F0D9
:10452000A3F0EEFAEFFB12119C8A088B09EA450909
:10453000602FEEFCEFFD79001210E89002E4E50830
:10454000F0A3E509F07B008008124566E4F0A3F0D3
:104550000BEBC3950A40F2E50A9002E6F079008081
:10456000027913025AC2EB75F017A4F8A9F0900271
:10457000E4E028FAA3E0398A82F583221250E2EAC5
:104580004B2274F4121719750800750900740C1287
:1045900016F5125894FEE9FF800CE5082401F50891
:1045A000E5093400F509C3E5089CE5099D5032850D
:1045B000080A85090B7403780A121696EA250AF888
:1045C000EB350BF988828983A3A3A3A3A3A3125479
:1045D00027EE650A7003EF650B70BFE8FAE9FB8010
:1045E000047A007B00802774F41217197900EAA27C
:1045F000E0501B750886750984780812192C7C0414
:104600007D007ABA7B0B12071074021216BF7F046A
:104610000217EBC082C0839002E7124646601C88F6
:10462000828983A3A3E06A7003A3E06B88828983F5
:1046300070E8A3A3A3A31250DE80047A007B00D00D
:1046400083D08202011F125B95E8492274EE121793
:104650001974FC1216A9EAFEEBFF851882851983EE
:10466000E4F0A3F0EE2402125330EE240512486168
:10467000EE2404F50EEF124C46E024FE603924FCD3
:10468000604624FE605224FE605E24FE70030247F2
:104690006624FE70030247DE24FE70030247ED2409
:1046A000FE70030247FC24FC700302480B24FE70DA
:1046B0000302481A0248579003007417F0A3E4124B
:1046C000487B1203B0024857851882851983AC8253
:1046D000AD83120734024827851882851983AC827E
:1046E000AD8312073A024827850C08850D0974022C
:1046F0001216F5AC82AD838508828509831250DEDF
:104700001206568A0C8B0DAC0CAD0DEC4D6042E4DC
:10471000F50CF50D780C12192C750C00750D03783D
:104720000C12192C750C01750D03780C12192C74D0
:10473000081216F512194379161250D8120776741A
:10474000081216BFE9F50C700B1250D41203C88082
:104750000F750C0185088285098312486912534C34
:10476000850C0802482A74021216F5AC82AD8385C6
:104770000C82850D831250DE1206568A108B11AC06
:1047800010AD11EC4D6043850C82850D83A3A312FF
:104790001943751000751103781012192C7510014A
:1047A000751103781012192C74081216F51219439A
:1047B00079161250D812077674081216BFE9F50957
:1047C000700B1250D41203CE800F750901850C8234
:1047D000850D8312486912534C850908804C851851
:1047E00082851983AC82AD83120740803A85188296
:1047F000851983AC82AD83120746802B851882858C
:104800001983AC82AD8312074C801C8518828519F0
:1048100083AC82AD83120752800D8518828519837F
:10482000AC82AD83120758E9F508E50860298E824D
:104830008F83A3E06414601F850E82850F83E09050
:104840000300124873125B9190030112534CE50868
:10485000A312487B1203AAEEFAEFFB1206D402520F
:1048600038F50CEF3400F50D22125B958518828522
:10487000198322F085188285198322F07C007D033C
:10488000850A82850B831250E22274EE1217197486
:10489000FC1216A98A0A8B0B8C0E8D0FEA2405F5E3
:1048A00008EB3400F5097C157D0079007A007B0364
:1048B0001210E8E5082402F50CE509124864851891
:1048C00082851983858210858311781012192C85B1
:1048D0000882850983A3A3A3A3124D8E12192CE588
:1048E000082405F510E5093400F511781012192C8B
:1048F000850C82850D831250E8120650740612163C
:10490000BF8A108B11AE10AF11E50A2402F50AE53B
:104910000B125333EE4F7003024A50801774021289
:1049200016F51250DE88828983EAF0A3EBF090033B
:1049300000E004F0900300E0C394054003024A50F5
:10494000E4F510F511781012192C7510E9751102A3
:10495000781012192C7510EA751102781012192CA2
:1049600074061216F51219437910EEFCEFFD125081
:10497000D812077674081216BFE9705E8508828522
:104980000983A3A3A3A3A3A3A3E0F89002E9E0688B
:104990007048124D8E12192C7CEA7D02E50824081D
:1049A000FAE5093400FB1210E274021216BFE96046
:1049B000298E828F83A3A3A3A31250DE900300E06D
:1049C000F5107402781012169674012510F5827491
:1049D000033511F583EAF0A3EBF074021216F585A6
:1049E0008210858311781012192C74021216F51298
:1049F0001943850C82850D83125BA612065C740434
:104A00001216BF8A108B11AE10AF11900300E0F5A3
:104A1000107511007402781012169674002510F8A3
:104A200074033511F988828983A312457C700302CF
:104A30004914E82403F8E93400F9EE4F6003024911
:104A40001D8882898374FFF0A3F0900300E004F0D6
:104A5000900300E0600A1250D41203BC7900800B6E
:104A6000850882850983125343790A02523874EA11
:104A700012171974FE1216A98C128D13EA2405F56B
:104A80000CEB125D101244EE750800750900EA2463
:104A900002F510EB3400F5118518828519838582A3
:104AA0000A85830B780A12192C850C82850D83A345
:104AB000A3A3A3124C5012192CE50C2405F50AE50A
:104AC0000D125333780A12192C850C82850D83122E
:104AD0005BA412065074061216BF8A0A8B0BEA45B5
:104AE0000B7003024C01EA2404F50EEB124C461243
:104AF00044EE8A828B83A3A3A3E0F98510828511FB
:104B0000831250DE12063EE9F5096003024C01E40F
:104B1000F514F515781412192C7514E97515027829
:104B20001412192C7514EA751502781412192C74C4
:104B3000061216F51219437913AC0AAD0B851082D3
:104B40008511831250DE12077674081216BFE9F53C
:104B5000096003024C019002E9E0F8E5087009E001
:104B60002402900301F08017900301E0FCE8240286
:104B7000FAE43400FBEA6C7001EB6003024C05853B
:104B80000882AA82124D859414124D7D5073850EB1
:104B900082850F83E0C0E074022A124C3DD0E0F021
:104BA0000508850E82850F83A3E0C0E085080A749E
:104BB00002250A124C3DD0E0F005089002E9124CA3
:104BC0005012192C7CEA7D0285080A7402250AFA23
:104BD00074033400FB1210D074021216BF9002E965
:104BE000E02508F50874FF6E700374FF6F6012EE25
:104BF00024010EEF3400FFE508C394145003024A69
:104C000098E5086013124FC98510828511831250F0
:104C1000DE1203C279008014E509700375090A8564
:104C20001282851383EEF0A3EFF0A9097402121625
:104C3000BF7F0E0217EB85080C7402250CF58274F9
:104C4000033400F583223400F50F850E82F58322AC
:104C50001258D32274EE12171974FE1216A98C0E74
:104C60008D0FEA2405F50CEB124864750B009003D8
:104C700000E4F0F50AEA2402F508EB3400F50980B7
:104C800049900300E0FA9002E9E0F8124D8594178C
:104C9000124D7D400D900300E0F87416C398900209
:104CA000E9F0124D8E12192C7CEA7D0274012AFA69
:104CB00074033400FB1210D074021216BF9002E984
:104CC000E0F8900300E028F0050AE50C2416F582D0
:104CD000E50D124C41E0F8E50AC3984003024D6629
:104CE000900300E0C39416507DE50AC333F8E43323
:104CF000F9E50C28FEE50D39FF851882851983AC8E
:104D000082AD838E828F831250DE1206568A108BFC
:104D100011AC10AD11EC4D7005750B018043E4F53D
:104D200010F511781012192C7510E9751102781010
:104D300012192C7510EA751102781012192C7406CC
:104D40001216F512194379168508828509831250C7
:104D5000DE12077674081216BFE9F50B7003024CD9
:104D60008112533F80107C007D0385088285098372
:104D70001250DE1203D4A90B740202523AE99400D5
:104D8000C365D03322EA28F8E43400F9E822E0F5DC
:104D90001075110078102274EA12171974FC12169B
:104DA000A98A0C8B0D8C128D13EA2405F50AEB12DF
:104DB0005333750800750900E50A2402F510E50B68
:104DC0003400F51174021216F585820E85830F7872
:104DD0000E12192C850A82850B83A3A3A3A3125854
:104DE0007F12192CE50A2405F50EE50B3400F50FAA
:104DF000780E12192C8510828511831253391250A6
:104E0000D812065074061216BF8A0E8B0FAE0EAF64
:104E10000FE50C2402F50EE50D3400F50F804088F7
:104E200082898374FFF00508124C3674FFF0050880
:104E30009002E9E0F50C750D00780C12192C7CEA53
:104E40007D0285080C7402250CFA74033400FB12F1
:104E500010D074021216BF9002E9E02508F508EEA2
:104E60004F60718E828F83A3A3A3E0F9850E8285A4
:104E70000F831250DE12063EE9F509EE24041248B3
:104E800061E97044E4F514F515781412192C7514C1
:104E9000E9751502781412192C7514EA7515027843
:104EA0001412192C74081216F51219437911EEFC1C
:104EB000EFFD850E82850F831250DE12077674088F
:104EC0001216BFE9F5096027850C82850D83124F04
:104ED000BF12534CE5087003024FA5124FC9850E4F
:104EE00082850F831250DE1203DA7900024FBA85F1
:104EF0000882AA82EA9002E97009E0240490030182
:104F0000F08022E0F8900301E0F514E82404FCE4CA
:104F10003400FDEC65147001ED70C0124D859412E3
:104F2000124D7D50B6850C82850D83E0C0E0740281
:104F30002A124C3DD0E0F00508850C82850D83A334
:104F4000E0C0E0124C36D0E0124FDB85820C858346
:104F50000D780C12192C74041216F51219438510D1
:104F600082851183125BA612065C74041216BF8A36
:104F70000C8B0DAE0CAF0D85080C7402250CF8746B
:104F8000033400F9EE4F7003024E1F851882851915
:104F900083E088828983124FDBA3E0C0E0124C36A5
:104FA000D0E0024E2DE509700375090A850A828555
:104FB0000B83124FBF12534CA9097404024C2E12DA
:104FC0005B9585128285138322900301E0F5F0E55D
:104FD0000884900300F07C007D0322F0050885180A
:104FE000828519832274EC12171974FE1216A98A8D
:104FF000088B098C0E8D0FEA2405FEEB3400FF852B
:105000001882851983AC82AD838E828F831250DE25
:105010001206568A0A8B0BEE2418124861EA450BD9
:1050200070030250AF1252215032851882851983C5
:105030001250DE12076A8A108B11EA4511606B79F3
:1050400012AC0AAD0B8508828509831250DE8510EB
:1050500082851183121717E9F50A7058E4F50AF5ED
:105060000B780A12192C8E828F83A3A3E0F50A789D
:105070000A12192CEE2403125330780A12192C8EBE
:10508000828F831250E812077C74061216BFE9F56E
:105090000A7021850C82850D83E0701F850882854A
:1050A00009831250DE1203E08011750A0E80097523
:1050B0000A018004E50A600312533F850C82850DC6
:1050C00083E0600479008002A90A74021216BF7F8F
:1050D0000C0217EB7C007D03850A82850B8312503E
:1050E000E222E0FAA3E0FB22E0FCA3E0FD850882D7
:1050F0008509831250E22274EE12171974FE1216FB
:10510000A98A088B098C0C8D0DEA2405FEEB34006E
:10511000FF750E00851882851983AC82AD838E825F
:105120008F831250DE1206568A0A8B0BEA450B70EB
:105130000302520D125221503585188285198312AF
:1051400050DE12076A8A0E8B0FEA450F605E7912F5
:10515000AC0AAD0B8508828509831250DE850E826C
:10516000850F83121717E9F50E60030252108508A8
:1051700082850983125427AA0AFB12075E8A108BC4
:1051800011A810A911E849701E7AFF7BFF12075E73
:105190008A108B11A810A911E849606C8882898354
:1051A000E50AF0A3E50BF0750A008007750E0E8086
:1051B0005F050A9002E6E0FAE50AC39A504AE50A5A
:1051C00075F017A4FAABF088828983A3A3E02AFACA
:1051D000A3E03BFB8A828B83125339EC4D70D2756E
:1051E0000A17750B00780A12192CEEFCEFFD12104D
:1051F000D074021216BFEEFCEFFD8508828509838C
:105200001250DE1203E68014750E098003750E013C
:10521000125B8D850C82850D8312534CA90E024DB5
:1052200078E5082402F508E5093400F5098A828B3F
:1052300083A3A3A3E0A2E52274041216BF7F0A028F
:1052400017EB74EC1217198C108D11EA2405F50C6C
:10525000EB124864750F00EA2402F50AEB1253338F
:10526000850A82F5831250DE12075E8A088B09EAEE
:1052700045097003025325750E008071850C8285E7
:105280000D83E06401704F8E828F83A3A3121943B4
:105290008E828F83A3A3A3A3E0F512751300781267
:1052A00012192CEE2405F512EF3400F513781212C2
:1052B000192C1250D812077C74061216BFE9F50F8C
:1052C0006014850C82850D83E4F0125B8D8510825D
:1052D00085118312534C7C177D007900EEFAEFFBA9
:1052E0001210E88E828F83E4F0A3F0050E9002E6A0
:1052F000E0F8E50EC398501EE50E75F017A4F8A966
:10530000F0850882850983A3A3125D1A125339EC34
:105310004D600302527C85088285098374FFF0A3E7
:10532000F0E50F70061250D81203ECA90F0250CF0F
:10533000F50AEF3400F50B22A3E0FCA3E0FD228E7A
:10534000828F83125B95850E82850F83E8F0A3E937
:10535000F022C082C0839002E2E06A7003A3E06B97
:1053600070067AE27B0280047A007B0002463FC02E
:1053700082C08378008C828D83E06A7003A3E06B27
:105380007010E875F003A4F8A9F0EC28FAED39FBE9
:105390008015088C828D83A3A3A3E06A7003A3E029
:1053A0006B60DF7A007B0002463F74F61217191219
:1053B00007288A828B83E582458370067A007B000A
:1053C0008007A3A3A3A31250DE025A3E74F2121761
:1053D00019E9FE740E1216F512542774101216F500
:1053E00012589F8C828D83E064027036A3125B9BFF
:1053F000F50CA3E0F9A80C740268700374296970B5
:1054000021750C02750D00780C12192C78081219F0
:105410002C780A12192CEEF91207A074061216BF86
:1054200080027901025AC2E0F50AA3E0F50B22746A
:10543000E812171974FB1216A9E9851882851983D9
:10544000F08A168B17ECFEEDFF751000741D121616
:10545000F5125B91741D1216F512534C8E828F83D8
:10546000A3A3A3E0A2E4502D741D1216F51250DE82
:1054700012076A8A828B83E5824583700302587023
:10548000790AEEFCEFFDAA16AB17121717E9F51013
:105490006003025873741F1216F512589F7421127C
:1054A00016F512542774231216F5E0F50EA3E0F555
:1054B0000F8E828F83E06402600302581EA3125B8A
:1054C00091850882850983A3858212858313EE2442
:1054D0000612486188828983E0FAA3E0F9EA240091
:1054E000F514E439F51578141219B60100002801F5
:1054F00028135507000228D8550328455500290FC1
:105500005701293A570229DB5603290F570429B9B5
:10551000571E58E50E450F6003025819850C828509
:105520000D83125894FAE9FB8A828B83E0850A8204
:10553000850B831258CA12192C8A828B83A3E0FC34
:10554000A3E00257A3E50E450F6003025819850A30
:1055500082850B837401F01258A785088285098320
:10556000F07C007D008E828F83A3A3A3A3E024019F
:10557000FAA3E03400FB120656EA4B60418A828BA4
:1055800083E02402F8850A82850B83E028F0EA2470
:1055900004F8EB3400F988828983E0851282851350
:1055A000831258DC1258CA12192C8A828B83125328
:1055B00038E5082403FAE5093400FB0257A8850AF8
:1055C00082850B83E02404F07C047D007900AA121C
:1055D000AB131210E8025873E50E450F6003025832
:1055E000191258A7FEA3E0FF850A82850B83740475
:1055F000F0EE850882850983F0EF8512828513839A
:10560000F074031216F5AC82AD83EEFAEFFB1206CE
:10561000568A0C8B0DEA450D70030256BC8A828BAC
:1056200083A3A31244EA74011216F585820E8583C2
:105630000F780E12192C74051216F51219437CFFFF
:105640007DFF12065C74041216BF8B0FEA450F70C3
:1056500033850C82850D8312587F12192C850C829C
:10566000850D83A31219437C027D007AFA7B841294
:10567000048874041216BFE9700A74011216F574D6
:10568000FFF0A3F08E828F83E064027039750C0204
:10569000750D00780C12192C8E828F83125338E509
:1056A000082404FAE5093400FB1210D07402121623
:1056B000BF850A82850B83E02402800974011216DB
:1056C000F5EEF0A3EFF074011216F5125890F07495
:1056D000011216F5A3125888025813E50E450F6003
:1056E00003025819850C82850D83125339AA16AB13
:1056F00017120794850A82850B837402F0EA8508E5
:1057000082850983F0851282851383EB025816E5A2
:105710000E450F60030258191258A7F8A3E0F98547
:105720000A82850B837402F0E8850882850983F07C
:10573000E9851282851383025816850C82850D83B4
:105740001250DE1210CAEAFC8C82A882C3950EE4C5
:10575000950F405FE8650E7002E50F70047C0080D5
:1057600022851882851983E0FAE50E2AFAE50F34BE
:1057700000FBC3EA98EB94005003E08005E50ECCF3
:10578000C39CFCEC850A82850B83F08C0A750B00A8
:10579000780A12192C850C82850D83E0250EFCA356
:1057A000E0350FFDAA08AB091210D074021216BF23
:1057B000025873751007025873E50E450F705A852D
:1057C0000C82850D83125B91850A82850B83740799
:1057D0001244F61258881244F6A3E085128285130B
:1057E00083F0E82402FAE93400FB8A828B831258A2
:1057F000881258B7125890A31258C0125899F0E85E
:105800002405F8E93400F988828983125899A31293
:1058100058DCA3A3A3A3F0805A75100B8055741D08
:105820001216F51250DE1207288A828B83E5824514
:1058300083603D125B91880C890DE8450D603178DD
:105840000E12192C780A12192C780812192C7406C9
:105850001216F5E0F9EEFCEFFDAA16AB17850C82E7
:10586000850D8312171774061216BFE9F510800311
:1058700075100EA91074051216BF7F100217EBE009
:10588000F50E750F00780E22E085088285098322C7
:105890001258E622125B95E8221258E6A3A322E0F2
:1058A000F508A3E0F50922850C82850D83E0F8A3B5
:1058B000E0F5838882E022A3A3F08A828B83A3226F
:1058C000F088828983A3A3A3A322F08A828B831208
:1058D00058D322E0F50A750B00780A22F0888289F5
:1058E00083A31258E622E0850882850983A3A322B8
:1058F00074EE12171974FE1216A98A0A8B0BECFAB1
:10590000EDFB74141216F5E0F510A3E0F511741612
:105910001216F5E0FE74181216F5E0F50EA3E0F588
:105920000F851882851983AC82AD831206568A0CC6
:105930008B0DEA450D60498518828519831250DE6A
:105940001207288A828B83E5824583602FA3A312E6
:10595000589FE50845096024780E12192C7810121A
:10596000192CEEF9AC0CAD0DAA0AAB0B850882859B
:10597000098312171774041216BF8006790E80026D
:105980007901024D7874F612171974FE1216A97473
:105990000C1216F5125894851882851983F074013B
:1059A0001216F5E9F0E4F508F509780812192C75D6
:1059B0000802780812192C74041216F585820885DD
:1059C0008309780812192C12077C74061216BF740A
:1059D000021216BF806874F7121719EAFEEBFF89EE
:1059E000087C197D03120794EA5402600BA908EEA3
:1059F000FAEFFB12064A800279010243F274F612B2
:105A0000171974FF6A700374FF6B70168C828D8394
:105A1000125A43E4F08C828D83A3A3A3125A43A3AA
:105A200080181207648A088B09A808A909E8496048
:105A30000D8882898374FF1244F4A3A3E4F07F02EB
:105A40000217EB74FFF0A3F08C828D83A3A3227462
:105A5000F61217191207648A828B83E582458360E8
:105A600006A3A3E0FA80027A007B0080D174F212D0
:105A700017198A088B09ECFEEDFF740E1216F5E07B
:105A8000F50A1207648A0C8B0DA80CA90DE8497061
:105A900026EEFCEFFD7AFF7BFF1207648A0C8B0D6C
:105AA000A80CA90DE84970047911801688828983B1
:105AB000E508F0A3E509F088828983A3A3E50AF04D
:105AC00079007F060217EB74EE121719EAFEEBFF5E
:105AD0008C088D09890C74141216F5125B917416DA
:105AE0001216F51250DE750D00E8496003025B8561
:105AF0007402650C6003025B8074121216F5125B6F
:105B00009BFCA3E0F9EC2400F50EE439F50FEAF470
:105B1000F8EBF4F9EC58F8E50F59F9E849705CE551
:105B2000082406F8ED3400F9880A890B8882F58389
