:020000040000FA
:060000000201070220F3DB
:03002B0002254B60
:03003B000225702B
:030043000224FB99
:0300530002216621
:03007B0002252338
:10008300021F5FE5C754F84401F5C7790122000058
:100093000080FB120086B900030200F1E4792178A5
:1000A30008B800028004F709D8FCE479297802B87B
:1000B30000028004F709D8FCE4900281787679097C
:1000C3008002F0A3D8FCD9FA7AF67B0A900137783C
:1000D3008579038015E493A3AD82AE838A828B83F3
:1000E300F0A3AA82AB838D828E83D8E9D9E7758288
:1000F300A07583D4740312011975829175830074FA
:100103000012011975D00075813F751881751902A8
:10011300759F00020096C09FF59FE473D09F22D085
:1001230083D082C09FE493C0E0740193C0E0740263
:1001330093F59F22FF0000B4000028002800283018
:1001430075A000A000A000A00000080008E001F0D6
:10015300001000100010001000100010005000509C
:1001630000500010001000D0070000000000000F36
:100173000001000500307507001000010081FF0039
:10018300000000FFB905D705BF05FF020202080200
:100193005000A0000000E80302CA84010000A78405
:1001A30002C6840100004D0B02B884010000B302B3
:1001B30002C6840100004E0B02B684010000C9028E
:1001C30002C6840100004F0B02C084010000CB0271
:1001D30002C684010000500B02CE84080000CC024A
:1001E30002C684010000510B02DA84010000520BA5
:1001F300FF0100FF2002CA84010000AA8402C68412
:10020300010000B60B02D484000000000002BA848F
:100213000300001903890B890B890B890B890B894F
:100223000B890B890B890B890B890B890B890B0BA9
:100233000E230E050E020202020202020202010D49
:10024300000000100102CA84010000AD8402C684CC
:10025300010000F70B02C284010000400702C684BC
:10026300010000F80B02D884010000438402C68415
:10027300010000F90B02BE84010000358402C6842C
:10028300010000FA0B02B484010000428302C68419
:10029300010000FB0B02B284010000308302C6841C
:1002A300010000FC0B02B0840100001E8302C6841F
:1002B300010000FD0B02CC840100000C8302C68404
:1002C300010000FE0B02D284010000278402C684D1
:1002D300010000FF0B02D684010000000C01E803BB
:1002E300053F100AFFFFFF000130750302010600FE
:1002F30000000000000000000000000000000000FB
:100303000000000000000000000000FFFF06008066
:100313000CE80302000102030405060708090A0B9F
:100323000C0D0E0F0709455F4C6F634B0512500010
:100333002003020A00020106030207E208FF9CD21F
:100343001EF3E9C9455F4C6F636B000000000000BA
:10035300000000000000000000D3120000EB120AAE
:100363005772697465204368617200104E6F746937
:10037300667920436861720002CA84010000A48484
:1003830002C684010000210D10E783030000DB0A8D
:1003930002BC84010000220D02C6840100002D0D61
:1003A30010F783000000EF0A02BA84030000F00A8A
:1003B30002BC840100002E0D1201229DC50312010F
:1003C30022B4C503120122E5C50312012220C6038C
:1003D3001201224AC60312012274C6031201228BA0
:1003E300C603120122A2C603120122B9C6031201D7
:1003F30022E2C603120122F5C6031201220BC70330
:100403001201221EC70312012245C7031201221C37
:10041300CF0212012220D00212012258D00212016F
:10042300227BD00212012286D002120122A9D0021D
:10043300120122B8D1021201228DD2021201220826
:10044300D30212012290D302120122CBD302120152
:100453002202D40212012290D40212012269D5028F
:10046300120122C9D502120122D4D502120122534C
:10047300D60212012256D60212012259D6021201C5
:1004830022E8D602120122EBD6021201221BD70266
:1004930012012245D70212012233D802120122E5AA
:1004A300D802120122A99603120122D19603120146
:1004B30022FF960312012236970312012294970317
:1004C300120122DF97031201222A98031201226AE2
:1004D3009803120122B09803120122DE980312013D
:1004E300229B9903120122A59903120122B29903B7
:1004F300120122E59903120122B19A03120122BDCE
:100503009A03120122D59A03120122DF9A031201E0
:100513002206D00312012214D0031201222CD0038D
:1005230012012244D003120122E9F00112012295A3
:10053300F10112012210F20112012231F301120121
:10054300226DF30112012216F401120122FDF401BE
:1005530012012261F601120122B8F60112012239B9
:10056300F70112012229F80112012276F801120182
:1005730022FCF8011201222EF90112012242FB0191
:1005830012012284FB01120122A2FB011201222586
:10059300FC01120122F9FC01120122C1FD01120129
:1005A30022C2F80212012295F9021201223EFA0236
:1005B30012012291FA0212012241FB02120122CD01
:1005C300FB02120122B9FC02120122E8FC02120111
:1005D30022FBFD0212012243FE0212012218FF0236
:1005E30012012254FF0212012270FF021201229A09
:1005F300D303120122C9A803120122DFA8031201A7
:100603002205A90312012221AA031201222BAA0304
:1006130012012260AB0312012258AC0312012282A1
:100623009103120122B29203120122E592031201F5
:10063300222F9303120122F6940312012263D101A4
:10064300120122CDD1011201222CD3011201223C2D
:10065300D30112012269D301120122C0D301120175
:100663002269D40112012270D5011201223AD60166
:100673001201229AD701120122DDD701120122822F
:10068300D801120122CFD801120122F5D80112019B
:100693002203DB0112012208DB011201220DDD011D
:1006A3001201225ADD01120122CDDD0112012200C5
:1006B300DE01120122A2DE011201224BDF0112012F
:1006C3002283DF0112012286DF01120122CEDF0124
:1006D3001201220EE00112012265E001120122C67D
:1006E300BB03120122DEBB0312012226BC0312014B
:1006F300223CBC0312012283BC0312012297BD03D7
:1007030012012224BE031201226FBE031201221C16
:100713004300120122284300120122634300120105
:1007230022A84300120122684400120122EE440071
:100733001201221A4500120122534500120122918F
:1007430047001201227549001201225B4B0012017E
:10075300229E4C00120122EC4E00120122FE4F0099
:10076300120122495100120122595200120122762C
:100773005200120122B15200120122D3520012017F
:1007830022365300120122F757001201228C58001F
:10079300120122DD580012012204590012012256CF
:1007A3005900120122745900120122CE590012017C
:1007B30022CD5A00120122515B00120122669B03D3
:1007C300120122709B03120122B39B03120122CE5A
:1007D3009B031201225E9C03120122869C031201D9
:1007E30022C39C03120122FA9C03120122239D03BC
:1007F300120122989D03120122AD9D03120122C210
:100803009D03120122F39D03120122079E0312018D
:10081300222C9E03120122669E03120122929E0342
:10082300120122CA9E03120122499F03120122923E
:100833009F03120122BC9F03120122E79F031201AF
:1008430022EFCC0312012202B80212012230B802B5
:100853001201227EB9021201225EBA021201227D26
:10086300BA02120122FABA021201223DBB0212019C
:100873002293BC0212012254BD02120122DBBF02E9
:100883001201227CC00212012272C1021201226FE4
:10089300C202120122C9C30212012254C40212016C
:1008A300225ACA03120122C3CA0312012217CB031D
:1008B3001201223ECB031201226FCB031201220F3E
:1008C300A0031201227CA003120122C3A003120180
:1008D30022DBA103120122D7A203120122BAA3032E
:1008E30012012256D90212012298D9021201226A58
:1008F300DA0212012243DB021201223DDC02120161
:10090300221FDD0212012288DD021201223EDE02D5
:10091300120122B2DE021201221EDF02120122475D
:10092300DF02120122C1DF021201225AE002120188
:1009330022BFE002120122D4E0021201221AE102D4
:1009430012012233E10212012298E1021201229BD9
:10095300E102120122F4B5031201221CB6031201B3
:10096300225AB60312012218B7031201227FB703DA
:100973001201229BB703120122C3B703120122F310
:10098300B70312012202B8031201227FB803120136
:1009930022A5B80312012252E10112012230E30120
:1009A30012012262E5011201229EE501120122CB0E
:1009B300E501120122B5E60112012200E70112014D
:1009C300224BE7011201225DE7011201229DE7019B
:1009D300120122D2E70112012220E8011201224F63
:1009E300E80112012272E801120122BFE80112019B
:1009F3002244E9011201225EEB011201229DED0165
:100A0300120122DEED0112012280EF01120122C147
:100A1300EF0112012234F0011201228AF0011201C6
:100A230022B4F001120122EDAA02120122EBAB0261
:100A330012012284B202120122A5B4021201227011
:100A4300B602120122D8B702120122B85B001201CA
:100A530022675C00120122AD5C00120122ED5D00F1
:100A6300120122835F00120122FD5F00120122188E
:100A73006000120122936000120122ED6100120155
:100A8300224D6300120122536400120122B4650057
:100A9300120122CD65001201222B660012012219D8
:100AA30067001201224C6700120122BC6700120189
:100AB300223668001201228068001201224A69006E
:100AC3001201221F6A00120122FE6A00120122890A
:100AD3006B00120122F76B001201226B6C001201F2
:100AE30022966C00120122556D00120122BA6E008B
:100AF300120122D76E00120122F66E00120122E7C4
:100B03006F001201220C70001201223670001201D4
:100B130022B170001201220B7100120122747200C3
:100B23001201222273001201226373001201226C4C
:100B33008E02120122BA8E02120122C68E02120105
:100B430022A48F02120122D58F02120122069002E3
:100B53001201228690021201220491021201223C08
:100B630091021201228E9102120122CB91021201F3
:100B730022E893021201220E9602120122F9970231
:100B8300120122E39902120122FB7F00120122EEDD
:100B930099011201221E9A01120122F7A0011201EA
:100BA300227CA20112012279A80112012261A9016A
:100BB3001201229EA901120122C1A901120122F2EE
:100BC300A901120122FBA90112012205AA011201A6
:100BD30022F3AA01120122E9AB01120122DF8401EF
:100BE300120122DE8801120122E488011201221F70
:100BF3009001120122389501120122ACAF031201B8
:100C030022A6B0031201221AB10312012258B10322
:100C1300120122CCB10312012245B2031201224E6A
:100C2300B2031201225AB2031201226FB20312015C
:100C330022ADB203120122C3B2031201227CA40328
:100C430012012289A403120122A3A403120122E2A6
:100C5300A40312012220A50312012285A503120178
:100C6300229AA503120122A5A503120122B2A5030C
:100C7300120122C9A503120122D7A503120122E200
:100C8300A503120122EEA503120122FDA503120101
:100C93002208A6031201222BA603120122D2A603C5
:100CA300120122E2A603120122FCA6031201221959
:100CB300A70312012235A7031201225AA703120127
:100CC3002265A7031201227AA7031201228EA7032A
:100CD300120122EFA703120122F5A703120122FB3F
:100CE300A70312012201A80312012219A80312016A
:100CF300224CA803120122C39C02120122479D0227
:100D0300120122F69D02120122559F021201227640
:100D1300A10212012262A20212012297A20212016F
:100D230022B9A20212012268A30212012260A502C3
:100D330012012289A5021201221BA6021201224DD1
:100D4300A6021201225AA602120122B1A602120120
:100D530022D7A60212012244A90212012247AA02A3
:100D63001201229FAA021201220080021201220A0A
:100D73008102120122F18102120122FB810212017E
:100D8300221D8202120122298202120122C283023F
:100D9300120122F183021201220D85021201226641
:100DA3008502120122CC8602120122AB87021201B4
:100DB30022078802120122748802120122AF8802DC
:100DC300120122EE8802120122A78B02120122C114
:100DD3008B021201224D8C021201225B8C02120142
:100DE30022B48C02120122C28C02120122358D021E
:100DF300120122998D02120122E38D021201229324
:100E03007300120122B57300120122DB7500120177
:100E130022F07800120122087A00120122BB7A0024
:100E23001201229D7B0012012257C7031201227C6B
:100E3300C703120122EEC70312012248F102120175
:100E43002251F1021201225AF10212012231F2025D
:100E5300120122E2F30212012218F40212012252B9
:100E6300F40212012288F402120122C2F4021201D6
:100E730022F6F40212012222F5021201226BF5027C
:100E8300120122A5F502120122EEF50212012246F9
:100E9300F6021201227BF602120122D6F602120199
:100EA3002210F70212012261F70212012297F702C0
:100EB300120122D1F702120122FFF70212012222AC
:100EC300F802120122B2D103120122DED103120170
:100ED3002239D20312012243D20312012253D20335
:100EE300120122618603120122868603120122BEA9
:100EF300860312012200D303120122F425001201FA
:100F030022062900120122BA2A001201225F2B00B5
:100F1300120122022C00120122B92C00120122E834
:100F23002C00120122A431001201223632001201D8
:100F330022723300120122DA33001201228E3400AE
:100F43001201224437001201227E3700120122E8E7
:100F53003700120122453800120122A23800120183
:100F630022FF3800120122EA3900120122303A002E
:100F73001201227B3A001201229E3A00120122E161
:100F83003B00120122F53B00120122FE3C0012013C
:100F9300223D3D00120122693D00120122B83D00AD
:100FA300120122D93D00120122173E001201225ED6
:100FB30040001201229F40001201223D4100120114
:100FC30022AF4100120122E8420012012219CF038D
:100FD3001201222ACF03120122EDB803120122B813
:100FE300BB03120122DAFF01120122DDD003120139
:100FF30022EDD00312012207D103120122A4D1034F
:10100300120122F3B20312012297B303120122D970
:10101300B50312012208CE031201222FCE031201BF
:101023002292CE03120122E5CE0312012231C10323
:1010330012012256C1031201227BC103120122A312
:10104300C103120122D3C10312012269C203120197
:101053002291C203120122008003120122FD8103A7
:101063001201228382031201228883031201224C7C
:101073008403120122CA8403120122AD85031201E3
:1010830022B08503120122BE8503120122DB8503F0
:101093001201220486031201222D86031201223B30
:1010A3008603120122538603120122C17E0012011C
:1010B30022EA7E00120122147F00120122347F00F3
:1010C300120122927F00120122C8E902120122DDDD
:1010D300E90212012239EA02120122A4EA021201F0
:1010E30022ECEA0212012256EB021201227FEB02EA
:1010F3001201228DEB02120122EFEB021201222DCB
:10110300EC0212012248EC02120122E3EC0212016A
:101113002288ED021201220BEE0212012244EE029A
:10112300120122CFEE0212012226EF0212012284C3
:10113300EF0212012296EF02120122BCEF0212010A
:1011430022C5EF0212012214F102120122BDC303D0
:1011530012012224C403120122CFC4031201224527
:10116300C50312012262AC0312012295AC031201E2
:101173002293AD03120122E5AE03120122B5CB0384
:1011830012012293CC0312012299BE03120122DE23
:10119300BE0312012224BF03120122EDC003120178
:1011A300221ED40312012239D40312012249D4038B
:1011B3001201225DD203120122D5C402120122B10F
:1011C300C502120122F8C50212012235C60212011C
:1011D30022A3C602120122FDC6021201226DC7021A
:1011E3001201223DC8021201222CC902120122B0AF
:1011F300C9021201224CCB02120122D7CB021201E7
:101203002267CC0212012200CD0212012217CD0265
:101213001201224ACE02120122A0CE02120122BFE3
:10122300E102120122DFE10212012255E30212015F
:1012330022A3E302120122C3E3021201222BE402DE
:10124300120122ADE402120122F3E4021201227F11
:10125300E50212012201AE01120122A8B20112011C
:101263002299B501120122C2B501120122EBB50187
:101273001201229DB6011201227CB801120122CE75
:10128300B9011201221ABF0112012253BF01120137
:101293002297BF01120122A3C001120122FCC8033D
:1012A3001201220BC90312012283C9031201221B5B
:1012B300CA031201223ACA0312012261C1011201B7
:1012C3002295C30112012245C40112012258C4010F
:1012D30012012283C40112012290C50112012220AE
:1012E300C60112012235C6011201224AC6011201AA
:1012F3002207D101120122158C03120122658C03EE
:10130300120122828C03120122DA8C031201225C65
:101313008E03120122459103120122F5D403120117
:101323002221D503E066701008A3E066700A08A3C3
:10133300E066700408A3E06622C3E7960809E7960F
:101343000809E7960809E79622C3E09608A3E09602
:1013530008A3E09608A3E09622C008C3E096F50828
:1013630008A3E096420808A3E096420808A3E09683
:1013730045087001D3D00822080808EAC0E0EBC092
:10138300E086F0E7A4FA180986F0E7A42AFA180918
:1013930086F0E7A42AFA180986F0E7A42AFA198640
:1013A300F0E7A4FBE5F02AFA190886F0E7A42BFB83
:1013B300E5F03AFA190886F0E7A42BFBE5F03AFAD0
:1013C30018180986F0E7A4C5F02BFBE43AFA1908CC
:1013D300E7C5F0C6A426F6E5F03BFBE43AFA188627
:1013E300F0E7A4F6E5F00826F6E43B08F6E43A084D
:1013F300F6D0E0FBD0E0FA226016080808C6C31353
:10140300C618C613C618C613C618C613C6D5E0EA4F
:10141300227009080808226016181818C6C333C6B4
:1014230008C633C608C633C608C633C6D5E0EA22A3
:10143300E627F60809E637F60809E637F60809E667
:1014430037F622E026F608A3E036F608A3E036F6E0
:1014530008A3E036F622E026F008A3E036F008A35E
:10146300E036F008A3E036F022C3E697F60809E673
:1014730097F60809E697F60809E697F622C3E09679
:10148300F008A3E096F008A3E096F008A3E096F036
:1014930022E657F60809E657F60809E657F608095B
:1014A300E657F622E056F608A3E056F608A3E05600
:1014B300F608A3E056F622E056F008A3E056F0083B
:1014C300A3E056F008A3E056F022E0F608A3E0F606
:1014D30008A3E0F608A3E0F622E6F008A3E6F00886
:1014E300A3E6F008A3E6F022E0FAA3E0FBA3E0FC06
:1014F300A3E0FD22EAF0A3EBF0A3ECF0A3EDF022CE
:10150300E0F8A3E0F9A3E0FAA3E0FB22E8F0A3E903
:10151300F0A3EAF0A3EBF022CAC0E0E6F0A308DAF6
:10152300FAD0E0FA22CAC0E0E0A3C582CCC582C5E6
:1015330083CDC583F0A3C582CCC582C583CDC583C6
:10154300DAE6D0E0CA22C3E498F8E499F912158ADE
:101553008026C3E49AFAE49BFBE920E7E912158AA3
:10156300E498F8E499F922C3E498F8E499F9121598
:101573008AE498F8E499F9C3E49AFAE49BFB22EB32
:1015830020E7CFE920E7E0B90010BB0008E88AF0C4
:1015930084F8AAF022E4FBC8FA22EB70227B10C87D
:1015A30033C8C933C9335007C39AC3DBF280069AE1
:1015B30050012ADBEAC833F4C8C933F4C9FA2275E7
:1015C300F008E4C833C8C933C933C99AC99B500466
:1015D300C92AC93BD5F0ECFBC833F4C8E4C9FA22E5
:1015E300600D08C6A2E713C618C613C6D5E0F322DA
:1015F300600C08C6C313C618C613C6D5E0F4227020
:101603000422600D18C6C333C608C633C6D5E0F43A
:101613001822251810AF08F518400C15198008F585
:101623001840021519D2AF2200C0D0251810AF08F8
:10163300F518500C05198008F51850020519D2AF9A
:10164300D0D0222518F58210AF08F518400C1519D3
:101653008008F51840021519D2AF85198322251881
:10166300F582E43519F583222518F8E43519F922B2
:101673002518FAE43519FB222518FCE43519FD2257
:10168300E4732518C582C0E0E51934FFC583C0E0C3
:10169300E518C3958224F810AF088583198582184D
:1016A3008008858319858218D2AFCEF0A3E520F098
:1016B300A37808E608F0A3DEFAEFF0A3E58124FAA5
:1016C300F8E608F0A3E608F0A3E608F0A30808E6A6
:1016D30008F0A3E608F0A315811581D0E0FED0E061
:1016E300F8158115811581E8C0E0EEC0E0222518C8
:1016F300C582C0E0E51934FFC583C0E0E518C39592
:101703008224F910AF0885831985821880088583A0
:1017130019858218D2AFCEF0A3E520F0A37808E6AE
:1017230008F0A3DEFAEFF0A3E58124FBF8E608F066
:10173300A3E608F0A30808E608F0A3E608F0A3155B
:10174300811581D0E0FED0E0F815811581E8C0E075
:10175300EEC0E022851983851882E0A3FEE0A3F59D
:10176300207808E0A3F608DFFAE0A3FFE0A3C0E0D7
:10177300E0A3C0E0E0A3C0E0E0A3C0E0E0A3C0E0DA
:1017830010AF0885821885831980088582188583A0
:1017930019D2AFD083D08202011F851983851882A5
:1017A300E0A3FEE0A3F5207808E0A3F608DFFAE063
:1017B300A3FFE0A3C0E0E0A3C0E0E0A3C0E0E0A398
:1017C300C0E010AF088582188583198008858218C8
:1017D300858319D2AFD083D08222C0D02518C58289
:1017E300C0E0E51934FFC583C0E0E518C395822442
:1017F300F310AF08858319858218800885831985BE
:101803008218D2AFC8F0A3E9F0A3EAF0A3EBF0A3E8
:101813007908E709F0A3D8FAECF0A3EDF0A3EEF012
:10182300A3EFF0A3D0E0F0A3D0E0F0A3D0E0F0A3C7
:10183300E520F0A3E5F0F0A322851983851882E063
:10184300C0E0A3E0F9A3E0FAA3E0FBA37808E0F685
:1018530008A3DFFAE0FCA3E0FDA3E0FEA3E0FFA3FF
:10186300E0C0E0A3E0C0E0A3E0F5D0A3E0F520A34F
:10187300E0A3F5F010AF08858319858218800885E9
:101883008319858218D2AFD082D083D0E0F8D0E01C
:101893003274048006740280027401C0E0F40412FE
:1018A3001646D0E012151B227404800474028000D3
:1018B300CCC0E0EDC0E0E518C39CCCAD1950011DD0
:1018C30010AF068C188D1980068C188D19D2AF12A3
:1018D3001528D0E0FDD0E0FC22D083D082E9C0E01F
:1018E300E493A3C386F0C5F095F0F908E493A386C7
:1018F300F0C5F095F0700BE493A3C3994005E90498
:101903008002A3E475F002A42582F582E5F0358315
:10191300F583D0E0F9E493A3C0E0E493C0E022D0E0
:1019230083D082ECC0E0EDC0E0E493A3FCE493A396
:10193300FDED4C600D12196EEC24FFFCED34FFFD40
:1019430080EFE493A3FCE493A3FDED4C600D121927
:10195300ADEC24FFFCED34FFFD80EFD0E0FDD0E0E3
:10196300FCE493A3C0E0E493C0E022C0E0C3E493AB
:1019730096087401939618400FE4936670080874F0
:101983000193661870007019A3A3C3E493960874B7
:1019930001939618A3A3400DD0E0D0E0D0E0021944
:1019A3005EA3A3A3A3A3A3D0E022C0E0C0F088F06A
:1019B300E4936670080874019366187000A8F0A396
:1019C300A3700BD0F0D0E0D0E0D0E002195EA3A367
:1019D300D0F0D0E02274F51216F1EAFEEBFFEE240C
:1019E30034F8EF3400F988088909EE2435F582EFDD
:1019F3003400F583E0F8EE2437F582EF3400F58305
:101A0300E0F50AEC850AF0A4FCAAF0850AF0EDA43F
:101A13002AFDE82CF8E43DF97A257B0012158AEAC1
:101A2300850882850983F0F8740758F97401B900B1
:101A3300028004C333D9FCFAE8131313541FF8EEDE
:101A430028F8EF3400F9E8245DF582E93400F583E2
:101A5300E05A6008EE2434F582EF802CEE2434F54E
:101A630082EF3400F583E0C0E0EE2436F582EF34F4
:101A730000F583E0F5F0D0E084A8F0EE28F8EF3429
:101A830000F9E82438F582E93400F583E0F97F04AE
:101A930002179D74F51216F1EAFEEBFFEE2434F5FE
:101AA30082EF3400F583E0C0E0EE2435F582EF34B5
:101AB30000F583D0E0F08E828F83A3A3A3A3A3A317
:101AC300A3C082C0838E828F83A3A3A3A3A3E0F8C2
:101AD300A3E0F9D083D082E0C398F508A3E099F599
:101AE30009EE247FF582EF3400F583E06401706929
:101AF300EE2480F582EF3400F583E0F8A3E0F98E5D
:101B0300828F83A3A3A3A3A3A3A3E0FCA3E0FD8EDF
:101B1300828F83A3A3A3A3A3E0FAA3E0FBC3EA9C5E
:101B2300EB9D5010C3EC98ED99402EC3EA98EB99C6
:101B33005027800EC3EA98EB994007C3EC98ED99C0
:101B430040177CDC7D04EEFAEFFB120AE1EE247F02
:101B5300F582EF3400F583E4F0EE2434F8EF34003B
:101B6300F9E8FCE9FDEE2435F582EF3400F583E076
:101B7300F8EE2437F582EF3400F583E0F50AE50843
:101B8300850AF0A4F508AAF0850AF0E509A42AF568
:101B930009E82508F8E43509F97A257B0012158A46
:101BA300EA8C828D83F0F8740758F97401B9000246
:101BB3008004C333D9FCFAE8131313541FF8EE2837
:101BC300F8EF3400F9E8245DF582E93400F583E0A9
:101BD3005A6008EE2434F582EF802CEE2434F5822B
:101BE300EF3400F583E0C0E0EE2436F582EF3400F5
:101BF300F583E0F5F0D0E084A8F0EE28F8EF3400A8
:101C0300F9E82438F582E93400F583E0F91224ED8C
:101C1300021A91C082C083851882851983E0F8A3D4
:101C2300E0F9C3EA9CEB9D5010C3EC98ED99401B7F
:101C3300C3EA98EB995014800EC3EA98EB994007D6
:101C4300C3EC98ED994004790180027900D083D0E8
:101C53008222EAC39CFAEB9DFB2274EF1216F190E9
:101C630003A2E064086005E06407702A9061C8E09D
:101C730060249003D0E0F4601DE0F875F003A4C87D
:101C8300AAF02AF974D228FE740339FF8E828F8357
:101C9300A3A3A3E07003021D8D906060E0C0E0EE9B
:101CA3002468F582EF3400F583D0E0F0750C4575B8
:101CB3000D05750800750900E5D914F50AE5D95431
:101CC30003F50E60177403650E605CE50A6010EEA1
:101CD3002467F582EF3400F583E07003021D7290F0
:101CE3000540E06401602AEE2482F582EF3400F5BA
:101CF30083E06004780480027800850A08E508C35D
:101D030098FA95E0FB1209A98A088B09EA4509703C
:101D130005120CD98074EE2482F582EF3400F5832A
:101D2300E070048A0C8B0DE50A6012850C82850D28
:101D330083F50BE5D9F0A3150BE50B70F6EE2482C2
:101D4300F582EF3400F583E0604474FC250AF50A5C
:101D5300780C121898AC0AA90EEEFAEFFB120B835B
:101D6300740212162BE97026AA08AB0912115379D3
:101D73003D8E828F83A3A3A3A3E0FA7B0012087D89
:101D8300EEFAEFFB120AF9120B95790080747403D3
:101D9300650E6056850A107511007810121898ACFC
:101DA3000CAD0DAA08AB09120B5F740212162BEED1
:101DB3002468F582EF3400F583E064807004747F57
:101DC3008001E0F50C780C12189CE50EF50C780CEC
:101DD30012189CA90AAC08AD099003D0E0FA7B0065
:101DE300120841740212162B80139003A2E06408B8
:101DF300600BAC0CAD0DEEFAEFFB120BEF120CE522
:101E030079017F0A02179D74F51216F174FC1216FC
:101E130015EAFEEBFF8908A2AFE433F509C2AF80F0
:101E23006AEE2463F8EF3400F97A007B00A2AFE492
:101E330033F50AC2AF88828983E0FCA3E0FDEC4D51
:101E4300603A88828983E0FAA3E0FB8A828B83E08D
:101E5300FCA3E0FD88828983ECF0A3EDF08A828BFA
:101E630083E4F0A3F088828983E0FCA3E0FDEC4DDA
:101E7300700A88828983A3A3E4F0A3F0E50AA2E0B1
:101E830092AF1211539004E3E004F0EE2463F58261
:101E9300EF3400F583E0F8A3E0F9E849603DEE2470
:101EA30063F582EF3400F583E02402FAA3E0340003
:101EB300FBEA2402F50AEB3400F50B780A121898B2
:101EC3008A828B83E0FCA3E0F9EEFAEFFB120B1D91
:101ED300740212162BE97003021E249004E3E060DF
:101EE300639004E4E0F89004E3E0C398500C7402B8
:101EF300650870509004E5E0604A8E828F83A3A347
:101F0300A3A3E0851882851983F0A3E4F09004E38A
:101F1300E0F87402121661E8F0A3E4F09004E3E041
:101F2300F89004E2E028F07402121661AC82AD83EB
:101F3300851882851983AA82AB83790112084D9093
:101F430004E3E4F0E509A2E092AF740412162B0255
:101F53001A910000008521878522C622C0E0C0D0E7
:101F6300E8C0E0E9C0E0EAC0E0EBC0E0ECC0E0EDCF
:101F7300C0E0EEC0E0C008C009C00AC00BC082C008
:101F830083C0F0A2AFE433FEC2AF759B00906182C1
:101F9300E0A2E05012E591A2E0500C7591FE7401AD
:101FA30065217003121C5DE0A2E55051E591A2E5A5
:101FB300504B7591DF9003A2E064076005E064086D
:101FC300702374016521703579019003D0E0FA75AF
:101FD300F003A4CAA8F028FB74D22AFA74033BFBCB
:101FE300121E0A8018E0640D70139003C4E004F01D
:101FF30064287002E4F07A00E0F9120CEB9061823D
:10200300E0A2E640030220A6E591A2E640030220F7
:10201300A67591BF9003A2E064057008120C191213
:102023000C258003120C1F752100120C79E9900313
:10203300A3F07900120C6D120A577A017B0090030A
:10204300A1E0F9121123907803E0644270559005E2
:1020530044E014F0704DC2AF12205E00782AD0E045
:10206300F618D0E0F6E59F540770057509FF800365
:1020730075097FC4C0E07829E6F50808E65509F537
:1020830009740B78081215F3D0E02508F8906270F4
:10209300E0A2E740F8E8C333906272F0906270E028
:1020A300D2E0F0906181E0A2E35009E5E9A2E350B8
:1020B3000375E9F7A3E0A2E75009E591A2E750030E
:1020C30075917FEEA2E092AFD0F0D083D082D00B97
:1020D300D00AD009D008D0E0FED0E0FDD0E0FCD09B
:1020E300E0FBD0E0FAD0E0F9D0E0F8D0D0D0E03295
:1020F300C0E0C0D0C082C083906183E0A2E05009F9
:10210300E5BFA2E0500375BFFEE0A2E15009E5BFC1
:10211300A2E1500375BFFDE0A2E25009E5BFA2E2D0
:10212300500375BFFBE0A2E35009E5BFA2E35003F0
:1021330075BFF7E0A2E45009E5BFA2E4500375BF01
:10214300EFE0A2E55009E5BFA2E5500375BFDFE06C
:10215300A2E65009E5BFA2E6500375BFBFD083D006
:10216300828088C0E0C0D0E8C0E0E9C0E0EAC0E017
:10217300EBC0E0ECC0E0EDC0E0C0F0E5A7A2E650A4
:102183000FE5A1A2E6500953A7BF75A1BF1221CB4A
:10219300E5A7A2E5500CE5A1A2E5500653A7DF751C
:1021A300A1DFE5A7A2E15009E5A1A2E1500375A1D2
:1021B300FDE5A7A2E2500CE5A1A2E2500653A7FB5E
:1021C30075A1FBD0F00220DC74F81216F175210121
:1021D3009003A2E064067015120BB38A828B83A36B
:1021E300A3A3A3A3A3E0FAA3E0FB120C07A2AFE40B
:1021F30033FED2AF9003A8E0640170187A207B000D
:102203009003A1E0F91212437A207B009003A1E02E
:10221300F9121129906182E0D2E6F0900541E06065
:102223002185C62280169003A7E064017008E5C6E5
:1022330054F84405F5C653BEFC121F5874016521BA
:1022430060E4EEA2E092AF7F0102179D008E238F20
:1022530024858228858327851882851983E0CEA368
:10226300E0CF852882852783EBC9EAC8EDCBECCA8A
:1022730075F010C3E833C8E933C9EA33CAEB33CB8B
:10228300C3EA9EF526EB9FF525B35004AB25AA269A
:10229300EC33CCED33CDD5F0DAAE23AF242274ED9D
:1022A3001216F18A088B098C0A8D0B7413121661AE
:1022B300780C1214CD7808790C12133C7510017543
:1022C30011C875120075130050127808790C121496
:1022D3006C7810790812133C50168010780C79082A
:1022E30012146C7810790C12133C400479018002AB
:1022F30079007F0C02179D74ED1216F18A088B0981
:102303008C0A8D0B7413121661780C1214CD780C91
:10231300790812133C40117808790C12146CAA083E
:10232300AB09AC0AAD0B8022751000751100751254
:10233300007513017810790C12146C781079081257
:102343001433AA10AB11AC12AD1380A68A828B830F
:102353007508FF7509FF750AFF750B0078081214DD
:10236300BA7F0402179D74F51216F18C828D83785F
:10237300081214CD8A828B837808121480EA24040D
:10238300F8EB3400F98C828D83A3A3A3A3E0FCA311
:10239300E0FD88828983C3E09CF0A3E09DF08882FE
:1023A3008983C3E09420A3E0944E40268A828B83E2
:1023B3007508FF7509FF750AFF750BFF780812147E
:1023C300598A828B83A3A3A3A3E02420F0A3E03440
:1023D3004EF002234F74F51216F1E9FE9004F7E074
:1023E300FAA3E0FBEEC333F8E433F974B728F582BC
:1023F300748339F583E02AF508A3E03BF5097808EF
:102403001218987A407B427C0F7D0012225074028E
:1024130012162B8A088B098C0A8D0B7410780812FC
:1024230013FBAA08AB097F0402179D74F11216F17E
:102433008A0C8B0D8C0E8D0F740F121661E0FAA3AC
:10244300E0FB7411121661E0F508A3E0F5097808C2
:10245300121898EA2401F508EB3400F509E4F50AAB
:10246300F50B780C790812137B75087175090278DE
:102473000C790812137BAA0CAB0DAC0EAD0F122214
:1024830050740212162B8B09EA450960047A018005
:10249300027A00EC2AFCED3400FD7413121661E09D
:1024A300F8A3E0F9E8FEE9FFECF8EDF97A717B02B5
:1024B30012158A880889098E828F8378081214DCA2
:1024C300ECF8EDF97A717B0212158A8A088B09748C
:1024D3000578081216028E828F83A3A3A3A3E508AF
:1024E300F0A3E509F07F0802179DC082C083E9903D
:1024F3006000F0D083D08222C0E074F21217DDA214
:10250300AFE433FED2AFC2C0E5D1A2E4500653D14B
:10251300EF1210A5EEF8EEA2E092AF7F0102183C95
:10252300C0E074F21217DDA2AFE433FED2AFE58A46
:10253300A2E35003121027758A00C2EBEEF8EEA255
:10254300E092AF7F0102183CC0E0C0D0E8C0E0E9F0
:10255300C0E0A2AFE433F8D2AFC2C7E8F9E8A2E023
:1025630092AFD0E0F9D0E0F8D0D0D0E032C0E0C0F4
:10257300D0E8C0E0E9C0E0EAC0E0C082C083A2AF17
:10258300E433FAD2AF9009B5E0F89009B6E0687089
:102593000B539AFB9009B77401F0802CC2E99009A0
:1025A300B5E0F87401289009B5F07900743528F581
:1025B30082740939F583E0F5C19009B5E0C39480CD
:1025C30040069009B57400F0EAF8EAA2E092AFD0B1
:1025D30083D082D0E0FAD0E0F9D0E0F8D0D0D0E0D8
:0725E30032C2AF020000222A
:1025EC00FFFFFFFFFFFFFFFF74F012168574F81258
:1025FC0016158A0E8B0FE9FF8C0C8D0D7E00850E47
:10260C0008850F0978081218DC000410D2283C2623
:10261C005F267E26A126C426E72618273B275227AD
:10262C008227332856287928A728D228D228AB27E6
:10263C0074016F7019850C82850D83E0C39403506F
:10264C000D850C82850D83E0900C9FF080027E1826
:10265C000228FA74026F7015850C82850D83E0F8E0
:10266C00A3E0F9900CA0E8F0A3E9F080027E180238
:10267C0028FA74016F7019850C82850D83E0C39460
:10268C0002500D850C82850D83E0900749F0800285
:10269C007E180228FA74016F7019850C82850D83DF
:1026AC00E0C39405500D850C82850D83E090074A9C
:1026BC00F080027E180228FA74016F7019850C8262
:1026CC00850D83E0C39402500D850C82850D83E04B
:1026DC0090074BF080027E180228FA74106F702756
:1026EC007508107509007808121898AC0CAD0D7AA5
:1026FC004C7B071210CF740212162B8A088B09859B
:10270C00088285098380027E180228FA74016F7092
:10271C0019850C82850D83E0C39402500D850C82C3
:10272C00850D83E090075CF080027E180228FA7415
:10273C00016F700D850C82850D83E0900CA3F080E9
:10274C00027E180228FA74046F7026908498780818
:10275C001214CD850C82850D83780812134C501100
:10276C00850C82850D8312150390075E12150F8060
:10277C00027E180228FAEF7021120607E970131274
:10278C000F73E9F5097950121219E9F508120F6166
:10279C00800A9007F17401F080027E180228FA7406
:1027AC00076F707E750806750900780812189885F1
:1027BC000C82850D83A3AC82AD8374041216731244
:1027CC0010D5740212162B851882851983EAF0A392
:1027DC00EBF07C007D007402121673850C82850D63
:1027EC0083E0F9120F07E9F50AE50AC3940A502EA3
:1027FC00120607E97015A90A120F79E9F509795043
:10280C00121219E9F508120F618019A80A790074DF
:10281C00F228F582740739F5837401F080067E0284
:10282C0080027E180228FA74016F7019850C82855B
:10283C000D83E0C39402500D850C82850D83E090CE
:10284C00075DF080027E180228FA74016F701985FA
:10285C000C82850D83E0C3940A500D850C82850D86
:10286C0083E0900CA2F080027E180228FA74016FAB
:10287C007025850C82850D83E0C394074019850C67
:10288C0082850D83E0C39411500D850C82850D83D8
:10289C00E0900CA4F080577E18805374016F702266
:1028AC009007F0E0F508850C82850D83E09007F029
:1028BC00F0E50870399007F0E064017031120F6197
:1028CC00802C7E188028C3E50E9427E50F940050C9
:1028DC001B74026F7016850C82850D83E0FCA3E0DF
:1028EC00FDAA0EAB0F1204A5E9FE80027E02EEF9E2
:1028FC00740812162B7F0802175774F01216857481
:10290C00D7121615E9C0E0851882851983D0E0F03E
:10291C007401121661EAF0A3EBF08C0E8D0F90840B
:10292C006A740312167B7406121528740312167B34
:10293C007401121661E0FAA3E0FB851882851983F5
:10294C00E0F9120F07E9FEEEC3940A4003022A9540
:10295C00EEF9120F43E9FF900C9FE06402700474CF
:10296C000180027400F508780812189C743A12164B
:10297C0061E0FDEFFCEEF9AA0EAB0F120FB574017E
:10298C0012162B7C147D007900741512167312101C
:10299C00E78A088B0985080A85090B741512167BC2
:1029AC007A1075F006EEA42424F9121213E9703C87
:1029BC007C1079FF7415121673121147E9702D747F
:1029CC0025121661AC82AD837A0475F006EEA42450
:1029DC0025F9121213E9F508741512167BEFA2E013
:1029EC00E433F9AA0EAB0F12052FE9F8740912168D
:1029FC007B7A0C74702EF9121213E9707974091227
:102A0C001673120F37750800E508C394045067A8B5
:102A1C00087900E875F003A4C8AAF075F000A42AA0
:102A2C00FA75F003E9A42AF97409121661E58228F3
:102A3C00F50CE58339F50D850C82850D83E0F8A343
:102A4C00E0F9E849602C850C82850D83A3A3E0F5A1
:102A5C000A750B00780A121898850C82850D83E094
:102A6C00FCA3E0FDAA0EAB0F12078D740212162BFD
:102A7C00E9F805088092EFA2E1500E900748E0F9C2
:102A8C00AA0EAB0F120793E9F87439121661E064C1
:102A9C0004700F900C9FE064027007AA0EAB0F122B
:102AAC000FAF7900742912162B7F0802175774F296
:102ABC00121685890B8A088B09ECFEEDFF750A0A44
:102ACC00E50B600B14600814604114605F807DAAF4
:102ADC0008AB09120F55E9F50AE50AC3940A506CC4
:102AEC00EE4F6068750C06750D00780C121898ACDA
:102AFC0008AD09EEFAEFFB1210CF740212162B8AF6
:102B0C000C8B0D850C82850D838041AA08AB0912B4
:102B1C000F4FE9F50AE50AC3940A5030EE4F602CCA
:102B2C00EEFAEFFBA90A120F49E98020AA08AB09BB
:102B3C00120F5BE9F50AE50AC3940A500FEE4F60D9
:102B4C000BEEFAEFFBA90A120F49E9F8A90A7F0666
:102B5C0002175774F21216858A0C8B0DE9FF7E153D
:102B6C0074FF650C700474FF650D702A750800E520
:102B7C0008C3940A5014EFFC7A027B00A908120FC8
:102B8C0025E960027E00050880E5EF60627A9D7B96
:102B9C000F12098B8059AA0CAB0D12096D8A088B88
:102BAC000985080A85090BE50A450B60407C007D08
:102BBC0000E50A2405FAE4350BFB850A82850B83B4
:102BCC00A3A3A3A3E0F9120F07E9F508E508C39442
:102BDC000A500EEFFC7A027B00A908120F25E97E41
:102BEC0000EF600BAA0AAB0B120F9D80027E14EE55
:102BFC00F97F0602175774F012168574FE1216151B
:102C0C00851882851983EAF0A3EBF08C0A8D0B747E
:102C1C0012121661E0F50EA3E0F50F7E15851882F1
:102C2C00851983E064FF7004A3E064FF701D7F00CE
:102C3C00EFC3940A506BAC0EAD0FAA0AAB0BEFF9B5
:102C4C00120F2BE960027E000F80E5851882851932
:102C5C0083E0FAA3E0FB12096D8A0C8B0D850C083E
:102C6C00850D09E508450960367C007D00E50824E2
:102C7C0005FAE43509FB850882850983A3A3A3A380
:102C8C00E0F9120F07E9FFEFC3940A5014AC0EAD34
:102C9C000FAA0AAB0BEFF9120F2BE97E0080027E14
:102CAC0014EEF9740212162B7F0802175774F712E0
:102CBC001685EAFEEBFF900762EEF0A3EFF09007AB
:102CCC0048E0FC7D007A267B001204A5E9F508900B
:102CDC000748E0F912070F7F0102175774F212161A
:102CEC008574EC1216158A0A8B0B850A82850B8368
:102CFC00A3A3E024FA700302313024FD7003022FE9
:102D0C00A4147003022DD814601024FD7003022F3C
:102D1C004C147003022FE8023198AE0AAF0B9007E7
:102D2C0062E0F8A3E0F9E8496066900762E0F8A376
:102D3C00E0F5838882E0F8A3E0F9E8496052EE24DC
:102D4C000CF582E43FF583E0F508780812189CEE48
:102D5C00240BF582E43FF583E0F98E828F83A3A3E5
:102D6C00A3A3A3A3A3A3A3E0FCA3E0FDEE2403FA77
:102D7C00E43FFB900762E0F8A3E0F5838882E0F87B
:102D8C00A3E0F5838882121683740112162B803906
:102D9C008E828F83A3A3A3A3A3A3A3A3A31218AF71
:102DAC0090075E1214EB120541740212162BE960A7
:102DBC001879018E828F83A3A3A3A3A3A3A3A3A398
:102DCC00E0FAA3E0FB12053BE9023198AE0AAF0B27
:102DDC008E828F83A3E06003022EFA8E828F83A3F0
:102DEC00A3A3A3A3E0A2E04003022EFA9007FCE009
:102DFC00F8A3E0F9E8496003022EFA7C0E7D007915
:102E0C0000AA18AB191210E78A088B09AA08AB099B
:102E1C00EE240CF582E43FF583E0F8A3E0F9E849F1
:102E2C0060367508067509007808121898EE240C9F
:102E3C00F582E43FF583E02410FCA3E03400FD743C
:102E4C00021216731210CF740212162B8A088B09F9
:102E5C00850882850983804F8E828F83A3A3A3E08C
:102E6C00FAA3E0FB12096D8A0C8B0D850C08850DFD
:102E7C0009E5084509602D750C06750D00780C12D6
:102E8C001898E5082405FCE43509FD740212167344
:102E9C001210CF740212162B8A0C8B0D850C8285A6
:102EAC000D8380030231988E828F83A3A3A3A3A3E7
:102EBC00E0A2E25004D2F08002C2F0A2F0E433F8B7
:102ECC007900740C121661E048F0A3E049F0EEFCB6
:102EDC00EFFDAA18AB19120F3DE970127A027B00B4
:102EEC00900748E0F9121123E9790002319A900712
:102EFC0062E0F8A3E0F9E8496043900762E0F8A3C8
:102F0C00E0F5838882A3A3E0F8A3E0F9E849602DFB
:102F1C008E828F83A3E0FC79018E828F83A3A3A37F
:102F2C00E0FAA3E0FB900762E0F8A3E0F583888267
:102F3C00A3A3E0F8A3E0F5838882121683023198EC
:102F4C00AE0AAF0B900762E0F8A3E0F9E8496045E0
:102F5C00900762E0F8A3E0F5838882A3A3E0F8A3CE
:102F6C00E0F9E849602F850A82850B83A3E0FC79A0
:102F7C00028E828F83A3A3A3E0FAA3E0FB900762E7
:102F8C00E0F8A3E0F5838882A3A3E0F8A3E0F5833F
:102F9C008882121683023198850A08850B097C00F9
:102FAC007D00E5082404FAE43509FB8508828509CF
:102FBC0083A3A3A3E0F9120F07E9FEEEC3940A5012
:102FCC0018E508240AFCE43509FD7A0475F006EED0
:102FDC00A42425F912120DE9F8023198AE0AAF0BB0
:102FEC0090075DE06019900CA2E0F98E828F83A3AC
:102FFC00A3A3E0FAA3E0FB12053BE9F80231989099
:10300C000C9FE0701679058E828F83A3A3A3E0FA40
:10301C00A3E0FB12053BE9F80231988E828F83A363
:10302C00A3A3E0FAA3E0FB12096D8A0C8B0D850CAF
:10303C0008850D098E828F83A3A3A3A3A3A3A3E06A
:10304C00A2E05072E508450960698508828509830C
:10305C00A3A3A3A3E0605F8E828F83A3A3A3A3A3E8
:10306C00A3A3A3A3E0F8A3E0F9E8C4540FF87900F4
:10307C00E85401F8E95400F9E8A2E04039740E1262
:10308C00167BE5082405FAE43509FB8508828509D9
:10309C0083A3A3A3A3E0F9120F07E9701979038E98
:1030AC00828F83A3A3A3E0FAA3E0FB12053BE9F80C
:1030BC00023198023198EE2405FCE43FFD8508822C
:1030CC00850983A3A3A3A3E0F98E828F83A3A3A373
:1030DC00E0FAA3E0FB120FA9900762E0F8A3E0F975
:1030EC00E849603E900762E0F8A3E0F5838882A38C
:1030FC00A3E0F8A3E0F9E84960287C0079008E820F
:10310C008F83A3A3A3E0FAA3E0FB900762E0F8A3EC
:10311C00E0F5838882A3A3E0F8A3E0F5838882120C
:10312C0016838068120607E970629007F1E064016B
:10313C00701A120F73E9FE9007F17400F07C0A7D8F
:10314C000079007AF27B071210E780367E00EEC31E
:10315C00940A502EEEF8790074F228F5827407392F
:10316C00F583E064017018EEF9120F79E9FAEEF8C4
:10317C00790074F228F582740739F5837400F00E27
:10318C0080CC7950121219E9FE120F617901741476
:10319C0012162B7F0602175774F512168574F2124D
:1031AC0016158908EAFEEBFF8C09AC18AD197A0EDE
:1031BC0075F006E508A42420F9121213E9705F7C5F
:1031CC000679FFAA18AB19121147E97051740C1249
:1031DC001661E0F8A3E0F9E8F50AE5096005EE42AE
:1031EC000A8004EEF4520AA80A7900740C121661D3
:1031FC00E0687003A3E0696021A80A7900740C12DE
:10320C001661E8F0A3E9F0AC18AD197A0E75F0066A
:10321C00E508A42420F912120DE979018002790045
:10322C00740E12162B7F0302175774F01216857446
:10323C00E612161589098A0E8B0FECFEEDFF740C45
:10324C0012167B7A0E75F006E509A42420F91212E9
:10325C0013E960030233667C0679FF740C12167353
:10326C00121147E96003023366AC18AD197A0C747D
:10327C00702509F9121213E9600302336275080014
:10328C00AA18AB19120F37E50E450F702E7C0C796E
:10329C0000AA18AB19121147E960030233487C0CE1
:1032AC007D007900AA18AB191210E78A0A8B0B85DE
:1032BC000A82850B83750801023348AC18AD19AA34
:1032CC000EAB0F120F318A0C8B0D850C0A850D0B72
:1032DC00E50A450B7030EE4F601BAC18AD197A0047
:1032EC007B00120F318A0C8B0DA80CA90D880A8952
:1032FC000BE849700479008063850A82850B83E5AD
:10330C000EF0A3E50FF0850A82850B83A3A3E0F8EA
:10331C007900EE687002EF696022EEC0E0850A82E7
:10332C00850B83A3A3D0E0F0EE4F700D850A828548
:10333C000B837400F0A37400F0750801E5086016A7
:10334C00AA18AB19120F37AC18AD197A0C7470257A
:10335C0009F912120DE9790180027900741A12161A
:10336C002B7F0802175774F7121685EAFEEBFF7ACB
:10337C0000EAC39404504EEAF87900E875F003A40F
:10338C00C8ABF075F000A42BFB75F003E9A42BF986
:10339C00EC28F582ED39F583E06E7003A3E06F70D5
:1033AC0021EAF87900E875F003A4C8AAF075F000DA
:1033BC00A42AFA75F003E9A42AF9EC28FAED39FBF2
:1033CC0080070A80AC7A007B007F0102175774F7E4
:1033DC001216857C00ECC394044003023489ECF88B
:1033EC007900E875F003A4C8ADF075F000A42DFDCC
:1033FC0075F003E9A42DF9EA28F582EB39F583E0A1
:10340C00F4FEA3E0F4FFECF87900E875F003A4C82F
:10341C00ADF075F000A42DFD75F003E9A42DF9EACB
:10342C0028F582EB39F583EEF0A3EFF0ECF8790098
:10343C00E875F003A4C8ADF075F000A42DFD75F08F
:10344C0003E9A42DF9EA28F582EB39F583A3A3E06F
:10345C00F4C0E0ECF87900E875F003A4C8ADF075A1
:10346C00F000A42DFD75F003E9A42DF9EA28F582EE
:10347C00EB39F583A3A3D0E0F00C0233E17F01021A
:10348C00175774F012168574F4121615EAFEEBFF3A
:10349C008C088D099007FCE0F8A3E0F9E849702C42
:1034AC00EE4F6006E50845097005790102373AEEE2
:1034BC00FAEFFB120F55E9900CA5F0900CA5E0C3A8
:1034CC00940A4008120F67E9900CA5F0900CA5E047
:1034DC00C3940A40030237389007FCE0F8A3E0F9E4
:1034EC00E8496003023584EEFCEFFD7A0E75F006B8
:1034FC00900CA5E0A42420F912120DE9F50B7C0C1C
:10350C007D0079FFAA18AB191210E78A0C8B0D8578
:10351C000C0E850D0FAC18AD197A0C900CA5E0248F
:10352C0070F912120DE9F50A750C0E750D00780C78
:10353C00121898EEFCEFFD900CA5E0F87900E875F8
:10354C00F00EA4C8AAF075F000A42AFA75F00EE9E2
:10355C00A42AF9746428FA740739FB1210CF740288
:10356C0012162B8A0C8B0DA80CA90D9007FCE508E4
:10357C00F0A3E509F00237349007FCE0F8A3E0C8AB
:10358C002406F582C83400F583E0F8A3E0F9E84995
:10359C0060439007FCE0F8A3E0C82406F582C83429
:1035AC0000F583E0FCA3E0FD7A1B75F006900CA5FA
:1035BC00E0A42421F912120DE9F89007FCE0F9A31C
:1035CC00E0C92406F582C93400F5837400F0A374B5
:1035DC0000F00237349007FCE0F8A3E0C8240AF5A9
:1035EC0082C83400F583E0F8A3E0F9E84960439021
:1035FC0007FCE0F8A3E0C8240AF582C83400F58380
:10360C00E0FCA3E0FD7A1B75F006900CA5E0A42469
:10361C0022F912120DE9F89007FCE0F9A3E0C92495
:10362C000AF582C93400F5837400F0A37400F0022B
:10363C0037349007FCE0F8A3E0C8240CF582C834BA
:10364C0000F583E0F8A3E0F9E84960439007FCE05B
:10365C00F8A3E0C8240CF582C83400F583E0FCA381
:10366C00E0FD7A1075F006900CA5E0A42423F91265
:10367C00120DE9F89007FCE0F9A3E0C9240CF582DF
:10368C00C93400F5837400F0A37400F00237349051
:10369C0007FCE0F8A3E0C82408F582C83400F583E1
:1036AC00E0F8A3E0F9E849606F9007FCE0F8A3E0CC
:1036BC00C82408F582C83400F583E0FCA3E0FD7A49
:1036CC001075F006900CA5E0A42424F912120DE953
:1036DC00F50A9007FCE0F8A3E0C82408F582C8348A
:1036EC0000F583E02410FCA3E03400FD7A0475F0AF
:1036FC0006900CA5E0A42425F912120DE9F8900708
:10370C00FCE0F9A3E0C92408F582C93400F5837400
:10371C0000F0A37400F080109007F0E06003120F2B
:10372C00BB120FA379018006790080027901740C19
:10373C0012162B7F0802175774F712168574F212A3
:10374C001615E9FEAC18AD197A0E75F006EEA42428
:10375C0020F9121213E9700E740C121661E0F8A322
:10376C00E0F9E8F980027900740E12162B7F010241
:10377C00175774F412168574F21216158909EAFE9D
:10378C00EBFFE509C3940A5004EE4F7004790280F4
:10379C0041AC18AD197A0E75F006E509A42420F990
:1037AC00121213E9F508E5087026750A06750B0068
:1037BC00780A121898740212167BEEFAEFFB1210AC
:1037CC00CF740212162B8A0A8B0B850A82850B8307
:1037DC00A908740E12162B7F0402175774F41216D4
:1037EC0085EAFEEBFF750800E508C3940A504375A3
:1037FC000A06750B00780A121898EEFCEFFDA80863
:10380C007900E875F00EA4C8AAF075F000A42AFAA5
:10381C0075F00EE9A42AF9746A28FA740739FB12B8
:10382C0010E1740212162BE96004A9088006050841
:10383C0080B6790A7F0402175774F4121685EAFED3
:10384C00EBFF750800E508C3940A5043750A06752A
:10385C000B00780A121898EEFCEFFDA8087900E826
:10386C0075F00EA4C8AAF075F000A42AFA75F00E33
:10387C00E9A42AF9746428FA740739FB1210E1746C
:10388C000212162BE96004A9088006050880B67997
:10389C000A7F0402175774F712168574F012161566
:1038AC00EAFEEBFF750800E508C3940A5039AC1822
:1038BC00AD197A1075F006E508A42423F912121339
:1038CC00E970207C1079FFAA18AB19121147E97026
:1038DC0012EEFCEFFDAA18AB19120511E97004A940
:1038EC00088006050880C0790A741012162B7F0117
:1038FC0002175774F4121685750800E508C3940A6C
:10390C0040030239D9A8087900E875F00EA4C8AABA
:10391C00F075F000A42AFA75F00EE9A42AF9746483
:10392C0028FC740739FD7A0E75F006E508A42420EE
:10393C00F9121213E970030239D47C067D0079FF69
:10394C00AA087B00EA75F00EA4CAA8F075F000A4D2
:10395C0028F875F00EEBA428FB74642AFA74073B64
:10396C00FB1210E78A0A8B0BAE0AAF0B7C067D00AC
:10397C0079FFAA087B00EA75F00EA4CAA8F075F0CE
:10398C0000A428F875F00EEBA428FB746A2AFA74CC
:10399C00073BFB1210E78A0A8B0BAC0AAD0BA8088D
:1039AC007900E875F00EA4C8AAF075F000A42AFA04
:1039BC0075F00EE9A42AF9747028F582740739F5AC
:1039CC00837400F0A37400F005080239079007F027
:1039DC00E06003120FBB120FA37F0402175774F79A
:1039EC001216857E00EEC3940A50327C0679FFEEE7
:1039FC00FA7B00EA75F00EA4CAA8F075F000A428B2
:103A0C00F875F00EEBA428FB74642AFA74073BFBE0
:103A1C00121147E96004EEF980050E80C8790A7F1F
:103A2C000102175774F71216857E007F00EFC394BE
:103A3C000A50357C0679FFC9FDC9EFF87900E875A5
:103A4C00F00EA4C8AAF075F000A42AFA75F00EE9DD
:103A5C00A42AF9746428FA740739FBCDF9CD121134
:103A6C0047E970010E0F80C5EEF97F0102175774FC
:103A7C00F71216857E007F00EFC3940A500DEE708E
:103A8C000AEFF9120F79E9FE0F80EDEEF97F0102D2
:103A9C00175774F012168574C9121615E9FE900C9E
:103AAC00A5E06E701D7A017B00900748E0F91211B9
:103ABC0029E97A027B00900748E0F9121129E912F2
:103ACC000FC7742912167B7A0E75F006EEA424200B
:103ADC00F9121213E96003023BD27C0679FF7429B8
:103AEC00121673121147E96003023BD27C0E7D0063
:103AFC0079FF74291216731210E7851882851983C1
:103B0C00EAF0A3EBF07C1B7D0079FF740E121673A8
:103B1C001210E78A0A8B0B850A0E850B0F7C0C7D25
:103B2C000079FF74021216731210E78A0C8B0D8544
:103B3C000C0A850D0B742912167B7A0E75F006EEA5
:103B4C00A42420F912120DE9F508740E12167B7AD2
:103B5C001B75F006EEA42421F912120DE94208742B
:103B6C000E12167B7A1B75F006EEA42422F91212A3
:103B7C000DE94208740E12167B7A1075F006EEA44D
:103B8C002423F912120DE94208740E12167B7A10D6
:103B9C0075F006EEA42424F912120DE94208740EF5
:103BAC0012167B7A0475F006EEA42425F912120D78
:103BBC00E94208740212167B7A0C74702EF91212F8
:103BCC000DE942088003750800A908743712162BFA
:103BDC007F0802175774F7121685E9FEEE90074816
:103BEC00F0120F617F0102175774F2121685890AC1
:103BFC00EAFEEBFFEE5400F8EF5480F9E84960352B
:103C0C00900748E0F912110B8A0C8B0DA80CA90D2A
:103C1C0088088909E8496012AA08AB09120F8BE9D8
:103C2C006008AA08AB091210F9E9EE6400FAEF6417
:103C3C0080FB023CF9EE5402602D7C007D007A0082
:103C4C007B00120F3DE960187A017B00900748E079
:103C5C00F9121123E9EE6402FAEF6400FB023CF95D
:103C6C007A027B00023CF9EEA2E0507D9007FCE06A
:103C7C00F8A3E0F5838882A3A3A3E0FAA3E0FB12E8
:103C8C000FC1E9605E900762E0F8A3E0F9E84960D3
:103C9C0045900762E0F8A3E0F5838882A3A3E0F8DF
:103CAC00A3E0F9E849602F7C0079019007FCE0F86B
:103CBC00A3E0F5838882A3A3A3E0FAA3E0FB90071B
:103CCC0062E0F8A3E0F5838882A3A3E0F8A3E0F513
:103CDC00838882121683120FC7EE6401FAEF640018
:103CEC00FB800A7A017B0080047A007B007F06024D
:103CFC00175774F7121685EAFEEBFF7508018E82D2
:103D0C008F83E02450601314601924E1701CEEFAC8
:103D1C00EFFB120F1FE9F5088010EEFAEFFB120F04
:103D2C00918007EEFAEFFB120F97A9087F0102179B
:103D3C005774F7121685EAFEEBFF8E828F83A3A3CE
:103D4C00A3A3E0641E701179008E828F83A3A3E07D
:103D5C00FAA3E0FB120F0DE97F0102175774F6125C
:103D6C0016858A088B09850882850983A3A3A3A3DA
:103D7C00E07034AE08AF098E828F83A3A3A3A3A3F4
:103D8C00A3A31218AF8E828F83A3A3A3A3A3E0FCDB
:103D9C00A3E0FD8E828F83A3A3E0FAA3E0FB120FB6
:103DAC0013740212162BE97F0202175774F71216BE
:103DBC0085EAFEEBFF900748E0F98E828F83A3E043
:103DCC00FAA3E0FB120793E97F01021757C082C0E8
:103DDC008374FF121615120F6DE9C39402400B8504
:103DEC0018828519837402F08009851882851983DD
:103DFC00740AF0AC18AD197A01790512061FE97432
:103E0C000112162BD083D08202011F74F212168578
:103E1C0074E81216158A088B09E9FE8C0A8D0B7C46
:103E2C00187D007900AA18AB191210E78A0C8B0DBB
:103E3C00AC0CAD0D851882851983E508F0A3E50956
:103E4C00F090074AE0C0E07402121661D0E0F090E6
:103E5C00074BE0C0E07403121661D0E0F0900CA4A4
:103E6C00E0C0E07417121661D0E0F0741512166100
:103E7C00E054FEFAA3E054FFFB900CA3E0A2E0E4B4
:103E8C0033F87900EA48F8EB49F97415121661E831
:103E9C00F0A3E9F0900CA3E0A2E15004D2F0800270
:103EAC00C2F07415121661E054FDFAA3E054FFFB46
:103EBC00A2F0E433F87900E828F8E933F9EA48F895
:103ECC00EB49F97415121661E8F0A3E9F0900CA314
:103EDC00E0A2E35004D2F08002C2F0741512166115
:103EEC00E054F7FAA3E054FFFBA2F0E433F50C75B1
:103EFC000D007403780C121602EA450CF8EB450D14
:103F0C00F97415121661E8F0A3E9F0900CA3E0A285
:103F1C00E45004D2F08002C2F07415121661E05421
:103F2C00EFFAA3E054FFFBA2F0E433F50C750D009F
:103F3C007404780C121602EA450CF8EB450DF97472
:103F4C0015121661E8F0A3E9F0900CA3E0A2E5507D
:103F5C0004D2F08002C2F07415121661E054DFFA3C
:103F6C00A3E054FFFBA2F0E433F50C750D007405CF
:103F7C00780C121602EA450CF8EB450DF974151283
:103F8C001661E8F0A3E9F0900CA3E0A2E25004D291
:103F9C00F08002C2F07415121661E054FBFAA3E033
:103FAC0054FFFBA2F0E433F50C750D007402780C91
:103FBC00121602EA450CF8EB450DF9741512166150
:103FCC00E8F0A3E9F090074BE0602A750C10750D32
:103FDC0000780C1218987C4C7D077406121661AA96
:103FEC0082AB831210CF740212162B8A0C8B0D85A8
:103FFC000C82850D8390075CE06011EE600E7415E9
:10400C00121661E04402F0A3E04400F090075CE07B
:10401C006006780179008004780079007414121617
:10402C0061E048F0900749E060067804790080046C
:10403C00780079007414121661E048F0AC0AAD0BEC
:10404C00AA18AB19120535E9741812162B7F060243
:10405C00175774F7121685EAFEEBFF7508009007E8
:10406C005CE0600678017900800478007900E84211
:10407C0008900749E060067804790080047800799C
:10408C0000E84208A908EEFAEFFB1205EFE97F0100
:10409C0002175774F212168574E31216158A0C8BDC
:1040AC000DE9FF8C0A8D09742B121661E0F508746A
:1040BC00086509700A75F006EFA42422FE800875C5
:1040CC00F006EFA42421FE7C1B7D00790074021203
:1040DC0016731210E7851882851983EAF0A3EBF0AA
:1040EC00740212167B7A1BEEF9121213E9703874F3
:1040FC001C121661E0C39407402D741C121661E06B
:10410C00C394115022E508F50B780B12189C74031C
:10411C0012167BE50AA2E0E433F9AA0CAB0D1205EA
:10412C0047740112162BE9741D12162B7F06021709
:10413C005774F7121685120805E97E00EEC3940A2F
:10414C00505C7C0679FFC9FDC9EEF87900E875F082
:10415C000EA4C8AAF075F000A42AFA75F00EE9A412
:10416C002AF9746428FA740739FBCDF9CD1211477A
:10417C00E97028EEF87900E875F00EA4C8AAF0757D
:10418C00F000A42AFA75F00EE9A42AF9746428FA4E
:10419C00740739FB790012080BE9F80E809E7F0139
:1041AC0002175774F612168574FD121615EAFEEBFB
:1041BC00FF9007FEE0F8A3E0F9E8497039750800B4
:1041CC00750908780812189875080275090078089E
:1041DC001218987508BA75098478081218987CFF1B
:1041EC007DFF7A017B00120661740612162B900774
:1041FC00FEEAF0A3EBF09007FEE0F8A3E0F9E84943
:10420C0070030242CCE4F508F5097808121898748A
:10421C000412166B8808890978081218987404120D
:10422C00166B8808890978081218989008001218DB
:10423C00AF79029007FEE0FCA3E0FDEEFAEFFB1273
:10424C000781740812162BE9704A85188285198328
:10425C00E0FA7B007401121661E0F87900E4C8F909
:10426C00EA28F508EB39F509E508450960267808D0
:10427C001218989007FEE0F8A3E0F5838882A3A3B8
:10428C00A3A3E0FCA3E0FDEEFAEFFB120F13740204
:10429C0012162BE9E4F508F509780812189890081D
:1042AC00001218AF7CFF7DFF9007FEE0FAA3E0FB45
:1042BC0012066D740412162B9007FEEAF0A3EBF0B5
:1042CC009007FEE0F8A3E0F9E84970047901800258
:1042DC007900740312162B7F02021757C082C08319
:1042EC009007FCE0F8A3E0F9E84960179007FCE0C0
:1042FC00FAA3E0FB1210F9E9F89007FC7400F0A3A4
:10430C007400F0900CA5740AF0D083D08202011FC7
:10431C00C082C083E9900BB5F002454674F71216C3
:10432C0085E99002E1F07C197D037AFF7BFF12078F
:10433C00999002E274FFF0A3F0A3E4F0A3F07905E6
:10434C001207279002E1E0F91206497AB17B0712B5
:10435C00095B7F0102175774F41216858A088B09C2
:10436C00EB548060309002E1E0F912110B8A0A8B59
:10437C000BAE0AAF0BEE4F60138E828F83E064B0EE
:10438C007003120739EEFAEFFB1210F9AA08E509CF
:10439C006480FB80047A007B0002451574F21216CF
:1043AC008574FC121615EAFEEBFFEE4F60387402B2
:1043BC00121661EEF0A3EF12477AECF0A3ED124760
:1043CC007AAA82AB83120643E9F508707374121251
:1043DC00166112532EE50A450B60658E828F83128F
:1043EC004456EE4F700575080280557A067B001214
:1043FC0011958A0C8B0DA80CA90DE8497005750850
:10440C0013803D88828983E4124460A3A3EEF0A359
:10441C00EF1257C7E50AF0A3E50BF09002E7124440
:10442C00E89002E76017E0FCA3E08003EAFCEBFDF8
:10443C008C828D831244E870F38C828D83125253DC
:10444C00A908740412162B0259C9A3A3A3A3E0FE56
:10445C00A3E0FF22F0A3F0888289832274F2121663
:10446C0085890AE975F017A4FEAFF09002E6E4F036
:10447C009002E41244E8600A12119B9002E4E4F00A
:10448C00A3F0EEFAEFFB1211958A088B09EA4509A5
:10449C00602FEEFCEFFD79001210E79002E4E508C6
:1044AC00F0A3E509F07B0080081244D2E4F0A3F0FD
:1044BC000BEBC3950A40F2E50A9002E6F079008016
:1044CC000279130259C9EB75F017A4F8A9F0900200
:1044DC00E4E028FAA3E0398A82F58322124FE9EA54
:1044EC004B2274F41216857900EAA2E0501B750871
:1044FC005E75098478081218987C047D007AB77B65
:10450C000B120721740212162B7F04021757C0825C
:10451C00C0839002E712454D601C88828983A3A357
:10452C00E06A7003A3E06B8882898370E8A3A3A37D
:10453C00A3124FE580047A007B00D083D082020165
:10454C001F125A9CE8492274EE12168574FC12163E
:10455C0015EAFEEBFF851882851983E4F0A3F0EED3
:10456C002402125237EE2405124768EE2404F50E8D
:10457C00EF124B4DE024FE603924FC604624FE60B3
:10458C005224FE605E24FE700302466D24FE70030E
:10459C000246E524FE70030246F424FE7003024733
:1045AC000324FC700302471224FE7003024721020D
:1045BC00475E9003007417F0A3E41247821203C104
:1045CC0002475E851882851983AC82AD8312073F42
:1045DC0002472E851882851983AC82AD831207455C
:1045EC0002472E850C08850D097402121661AC82E7
:1045FC00AD83850882850983124FE51206678A0C04
:10460C008B0DAC0CAD0DEC4D6042E4F50CF50D785A
:10461C000C121898750C00750D03780C12189875FF
:10462C000C01750D03780C1218987408121661128F
:10463C0018AF7916124FDF120781740812162BE986
:10464C00F50C700B124FDB1203D9800F750C018522
:10465C000882850983124770125253850C08024751
:10466C00317402121661AC82AD83850C82850D8388
:10467C00124FE51206678A108B11AC10AD11EC4D80
:10468C006043850C82850D83A3A31218AF751000AF
:10469C0075110378101218987510017511037810A4
:1046AC0012189874081216611218AF7916124FDF8F
:1046BC00120781740812162BE9F509700B124FDBE7
:1046CC001203DF800F750901850C82850D8312475B
:1046DC0070125253850908804C851882851983AC59
:1046EC0082AD8312074B803A851882851983AC8280
:1046FC00AD83120751802B851882851983AC82AD4E
:10470C0083120757801C851882851983AC82AD8370
:10471C0012075D800D851882851983AC82AD8312DA
:10472C000763E9F508E50860298E828F83A3E064AE
:10473C0014601F850E82850F83E090030012477A68
:10474C00125A98900301125253E508A31247821291
:10475C0003BBEEFAEFFB1206E502513FF50CEF340A
:10476C0000F50D22125A9C85188285198322F0853A
:10477C00188285198322F07C007D03850A82850BC3
:10478C0083124FE92274EE12168574FC1216158AE8
:10479C000A8B0B8C0E8D0FEA2405F508EB3400F513
:1047AC00097C157D0079007A007B031210E7E5087F
:1047BC002402F50CE50912476B851882851983854F
:1047CC0082108583117810121898850882850983C8
:1047DC00A3A3A3A3124C95121898E5082405F51071
:1047EC00E5093400F5117810121898850C82850DA6
:1047FC0083124FEF120661740612162B8A108B115E
:10480C00AE10AF11E50A2402F50AE50B12523AEE8E
:10481C004F700302495780177402121661124FE54C
:10482C0088828983EAF0A3EBF0900300E004F09017
:10483C000300E0C394054003024957E4F510F51159
:10484C0078101218987510E97511027810121898D2
:10485C007510EA7511027810121898740612166108
:10486C001218AF7910EEFCEFFD124FDF12078174B6
:10487C000812162BE9705E850882850983A3A3A311
:10488C00A3A3A3A3E0F89002E9E0687048124C954A
:10489C001218987CEA7D02E5082408FAE509340030
:1048AC00FB1210E1740212162BE960298E828F83A1
:1048BC00A3A3A3A3124FE5900300E0F510740278B4
:1048CC001012160274012510F58274033511F5834C
:1048DC00EAF0A3EBF0740212166185821085831145
:1048EC00781012189874021216611218AF850C8287
:1048FC00850D83125AAD12066D740412162B8A1094
:10490C008B11AE10AF11900300E0F510751100740F
:10491C0002781012160274002510F874033511F980
:10492C0088828983A31244E8700302481BE824039D
:10493C00F8E93400F9EE4F60030248248882898339
:10494C0074FFF0A3F0900300E004F0900300E0602B
:10495C000A124FDB1203CD7900800B850882850982
:10496C008312524A790A02513F74EA12168574FE78
:10497C001216158C128D13EA2405F50CEB125AB78E
:10498C0012445A750800750900EA2402F510EB343C
:10499C0000F51185188285198385820A85830B7829
:1049AC000A121898850C82850D83A3A3A3A3124B1E
:1049BC0057121898E50C2405F50AE50D12523A78B1
:1049CC000A121898850C82850D83125AAB12066157
:1049DC00740612162B8A0A8B0BEA450B7003024BDA
:1049EC0008EA2404F50EEB124B4D12445A8A828BC2
:1049FC0083A3A3A3E0F9851082851183124FE512DE
:104A0C00064FE9F5096003024B08E4F514F5157837
:104A1C00141218987514E9751502781412189875F3
:104A2C0014EA75150278141218987406121661128D
:104A3C0018AF7913AC0AAD0B851082851183124F18
:104A4C00E5120781740812162BE9F5096003024B75
:104A5C00089002E9E0F8E5087009E02402900301EF
:104A6C00F08017900301E0FCE82402FAE43400FB28
:104A7C00EA6C7001EB6003024B0C850882AA82126F
:104A8C004C8C9414124C845073850E82850F83E0E9
:104A9C00C0E074022A124B44D0E0F00508850E8267
:104AAC00850F83A3E0C0E085080A7402250A124B27
:104ABC0044D0E0F005089002E9124B571218987C8C
:104ACC00EA7D0285080A7402250AFA74033400FB95
:104ADC001210CF740212162B9002E9E02508F5088B
:104AEC0074FF6E700374FF6F6012EE24010EEF34CE
:104AFC0000FFE508C39414500302499FE5086013B6
:104B0C00124ED0851082851183124FE51203D37992
:104B1C00008014E509700375090A851282851383D8
:104B2C00EEF0A3EFF0A909740212162B7F0E0217F8
:104B3C005785080C7402250CF58274033400F58338
:104B4C00223400F50F850E82F583221257DA227477
:104B5C00EE12168574FE1216158C0E8D0FEA2405B6
:104B6C00F50CEB12476B750B00900300E4F0F50AA3
:104B7C00EA2402F508EB3400F5098049900300E0C3
:104B8C00FA9002E9E0F8124C8C9417124C84400D08
:104B9C00900300E0F87416C3989002E9F0124C955B
:104BAC001218987CEA7D0274012AFA74033400FB13
:104BBC001210CF740212162B9002E9E0F890030049
:104BCC00E028F0050AE50C2416F582E50D124B4899
:104BDC00E0F8E50AC3984003024C6D900300E0C373
:104BEC009416507DE50AC333F8E433F9E50C28FE3E
:104BFC00E50D39FF851882851983AC82AD838E82D1
:104C0C008F83124FE51206678A108B11AC10AD1111
:104C1C00EC4D7005750B018043E4F510F51178101F
:104C2C001218987510E975110278101218987510F1
:104C3C00EA7511027810121898740612166112187F
:104C4C00AF7916850882850983124FE512078174A6
:104C5C000812162BE9F50B7003024B881252468092
:104C6C00107C007D03850882850983124FE51203B1
:104C7C00E5A90B7402025141E99400C365D03322BB
:104C8C00EA28F8E43400F9E822E0F5107511007810
:104C9C00102274EA12168574FC1216158A0C8B0DF0
:104CAC008C128D13EA2405F50AEB12523A750800A2
:104CBC00750900E50A2402F510E50B3400F51174B2
:104CCC000212166185820E85830F780E1218988554
:104CDC000A82850B83A3A3A3A3125786121898E507
:104CEC000A2405F50EE50B3400F50F780E12189812
:104CFC00851082851183125240124FDF12066174A7
:104D0C000612162B8A0E8B0FAE0EAF0FE50C24027B
:104D1C00F50EE50D3400F50F80408882898374FF11
:104D2C00F00508124B3D74FFF005089002E9E0F520
:104D3C000C750D00780C1218987CEA7D0285080C15
:104D4C007402250CFA74033400FB1210CF74021297
:104D5C00162B9002E9E02508F508EE4F60718E8263
:104D6C008F83A3A3A3E0F9850E82850F83124FE5F1
:104D7C0012064FE9F509EE2404124768E97044E481
:104D8C00F514F51578141218987514E97515027840
:104D9C00141218987514EA75150278141218987470
:104DAC00081216611218AF7911EEFCEFFD850E8218
:104DBC00850F83124FE5120781740812162BE9F543
:104DCC00096027850C82850D83124EC6125253E55D
:104DDC00087003024EAC124ED0850E82850F8312E2
:104DEC004FE51203EB7900024EC1850882AA82EAD4
:104DFC009002E97009E02404900301F08022E0F8AD
:104E0C00900301E0F514E82404FCE43400FDEC65A7
:104E1C00147001ED70C0124C8C9412124C8450B66C
:104E2C00850C82850D83E0C0E074022A124B44D0BD
:104E3C00E0F00508850C82850D83A3E0C0E0124BE1
:104E4C003DD0E0124EE285820C85830D780C121851
:104E5C009874041216611218AF8510828511831292
:104E6C005AAD12066D740412162B8A0C8B0DAE0CF7
:104E7C00AF0D85080C7402250CF874033400F9EEA0
:104E8C004F7003024D26851882851983E08882892C
:104E9C0083124EE2A3E0C0E0124B3DD0E0024D3451
:104EAC00E509700375090A850A82850B83124EC6C3
:104EBC00125253A9097404024B35125A9C85128262
:104ECC0085138322900301E0F5F0E508849003003C
:104EDC00F07C007D0322F005088518828519832259
:104EEC0074EC12168574FE1216158A088B098C0E3A
:104EFC008D0FEA2405FEEB3400FF8518828519839B
:104F0C00AC82AD838E828F83124FE51206678A0ABC
:104F1C008B0BEE2418124768EA450B7003024FB650
:104F2C001251285032851882851983124FE51207C9
:104F3C00758A108B11EA4511606B7912AC0AAD0BB6
:104F4C00850882850983124FE585108285118312AD
:104F5C001683E9F50A7058E4F50AF50B780A12186D
:104F6C00988E828F83A3A3E0F50A780A121898EE24
:104F7C002403125237780A1218988E828F83124F9C
:104F8C00EF120787740612162BE9F50A7021850CAF
:104F9C0082850D83E0701F850882850983124FE599
:104FAC001203F18011750A0E8009750A018004E55F
:104FBC000A6003125246850C82850D83E0600479E9
:104FCC00008002A90A740212162B7F0C0217577C60
:104FDC00007D03850A82850B83124FE922E0FAA338
:104FEC00E0FB22E0FCA3E0FD850882850983124FDB
:104FFC00E92274EE12168574FE1216158A088B09B6
:10500C008C0C8D0DEA2405FEEB3400FF750E00852B
:10501C001882851983AC82AD838E828F83124FE503
:10502C001206678A0A8B0BEA450B700302511412A5
:10503C0051285035851882851983124FE512077552
:10504C008A0E8B0FEA450F605E7912AC0AAD0B85A8
:10505C000882850983124FE5850E82850F8312160F
:10506C0083E9F50E600302511785088285098312C6
:10507C00532EAA0AFB1207698A108B11A810A911CA
:10508C00E849701E7AFF7BFF1207698A108B11A802
:10509C0010A911E849606C88828983E50AF0A3E5C0
:1050AC000BF0750A008007750E0E805F050A9002E2
:1050BC00E6E0FAE50AC39A504AE50A75F017A4FA35
:1050CC00ABF088828983A3A3E02AFAA3E03BFB8A96
:1050DC00828B83125240EC4D70D2750A17750B00FF
:1050EC00780A121898EEFCEFFD1210CF740212160B
:1050FC002BEEFCEFFD850882850983124FE5120328
:10510C00F78014750E098003750E01125A94850CE4
:10511C0082850D83125253A90E024C7FE50824029E
:10512C00F508E5093400F5098A828B83A3A3A3E073
:10513C00A2E522740412162B7F0A02175774EC1284
:10514C0016858C108D11EA2405F50CEB12476B7546
:10515C000F00EA2402F50AEB12523A850A82F58313
:10516C00124FE51207698A088B09EA450970030298
:10517C00522C750E008071850C82850D83E06401C4
:10518C00704F8E828F83A3A31218AF8E828F83A34E
:10519C00A3A3A3E0F5127513007812121898EE244D
:1051AC0005F512EF3400F5137812121898124FDF30
:1051BC00120787740612162BE9F50F6014850C8202
:1051CC00850D83E4F0125A94851082851183125256
:1051DC00537C177D007900EEFAEFFB1210E78E82FC
:1051EC008F83E4F0A3F0050E9002E6E0F8E50EC321
:1051FC0098501EE50E75F017A4F8A9F08508828565
:10520C000983A3A3125AC1125240EC4D6003025100
:10521C008385088285098374FFF0A3F0E50F70067F
:10522C00124FDF1203FDA90F024FD6F50AEF34001F
:10523C00F50B22A3E0FCA3E0FD228E828F83125A91
:10524C009C850E82850F83E8F0A3E9F022C082C012
:10525C00839002E2E06A7003A3E06B70067AE27B53
:10526C000280047A007B00024546C082C08378002D
:10527C008C828D83E06A7003A3E06B7010E875F08C
:10528C0003A4F8A9F0EC28FAED39FB8015088C8200
:10529C008D83A3A3A3E06A7003A3E06B60DF7A00A5
:1052AC007B0002454674F61216851207338A828BF0
:1052BC0083E582458370067A007B008007A3A3A355
:1052CC00A3124FE502594574F2121685E9FE740ECD
:1052DC0012166112532E74101216611257A68C827C
:1052EC008D83E064027036A3125AA2F50CA3E0F988
:1052FC00A80C74026870037429697021750C02750E
:10530C000D00780C1218987808121898780A121850
:10531C0098EEF91207AB740612162B800279010273
:10532C0059C9E0F50AA3E0F50B2274E8121685744E
:10533C00FB121615E9851882851983F08A168B17CE
:10534C00ECFEEDFF751000741D121661125A987464
:10535C001D1216611252538E828F83A3A3A3E0A257
:10536C00E4502D741D121661124FE51207758A82D6
:10537C008B83E58245837003025777790AEEFCEF45
:10538C00FDAA16AB17121683E9F510600302577AC3
:10539C00741F1216611257A6742112166112532E25
:1053AC007423121661E0F50EA3E0F50F8E828F8345
:1053BC00E064026003025725A3125A98850882857F
:1053CC000983A3858212858313EE2406124768880D
:1053DC00828983E0FAA3E0F9EA2400F514E439F5B4
:1053EC001578141219220100002801281A540700FC
:1053FC000228DF5403284C54002916560129415623
:10540C000229E255032916560429C0562557E50EE4
:10541C00450F6003025720850C82850D8312579B24
:10542C00FAE9FB8A828B83E0850A82850B8312570B
:10543C00D11218988A828B83A3E0FCA3E00256AAAF
:10544C00E50E450F6003025720850A82850B837495
:10545C0001F01257AE850882850983F07C007D002F
:10546C008E828F83A3A3A3A3E02401FAA3E03400CC
:10547C00FB120667EA4B60418A828B83E02402F8B8
:10548C00850A82850B83E028F0EA2404F8EB3400CB
:10549C00F988828983E08512828513831257E3127F
:1054AC0057D11218988A828B8312523FE508240335
:1054BC00FAE5093400FB0256AF850A82850B83E0BE
:1054CC002404F07C047D007900AA12AB131210E7BF
:1054DC0002577AE50E450F60030257201257AEFEB5
:1054EC00A3E0FF850A82850B837404F0EE850882A5
:1054FC00850983F0EF851282851383F074031216ED
:10550C0061AC82AD83EEFAEFFB1206678A0C8B0D51
:10551C00EA450D70030255C38A828B83A3A3124400
:10552C0056740112166185820E85830F780E12183F
:10553C009874051216611218AF7CFF7DFF12066D70
:10554C00740412162B8B0FEA450F7033850C828571
:10555C000D83125786121898850C82850D83A31221
:10556C0018AF7C027D007AC87B84120499740412F3
:10557C00162BE9700A740112166174FFF0A3F08EF9
:10558C00828F83E064027039750C02750D00780C03
:10559C001218988E828F8312523FE5082404FAE584
:1055AC00093400FB1210CF740212162B850A828567
:1055BC000B83E0240280097401121661EEF0A3EF54
:1055CC00F07401121661125797F07401121661A350
:1055DC0012578F02571AE50E450F600302572085AC
:1055EC000C82850D83125240AA16AB1712079F85A9
:1055FC000A82850B837402F0EA850882850983F0A0
:10560C00851282851383EB02571DE50E450F60034F
:10561C000257201257AEF8A3E0F9850A82850B8356
:10562C007402F0E8850882850983F0E98512828589
:10563C00138302571D850C82850D83124FE51210C2
:10564C00C9EAFC8C82A882C3950EE4950F405FE8F2
:10565C00650E7002E50F70047C008022851882852F
:10566C001983E0FAE50E2AFAE50F3400FBC3EA9839
:10567C00EB94005003E08005E50ECCC39CFCEC855C
:10568C000A82850B83F08C0A750B00780A12189825
:10569C00850C82850D83E0250EFCA3E0350FFDAA59
:1056AC0008AB091210CF740212162B02577A751020
:1056BC000702577AE50E450F705A850C82850D83CB
:1056CC00125A98850A82850B83740712446212570A
:1056DC008F124462A3E0851282851383F0E82402C2
:1056EC00FAE93400FB8A828B8312578F1257BE1251
:1056FC005797A31257C71257A0F0E82405F8E934BE
:10570C0000F9888289831257A0A31257E3A3A3A39D
:10571C00A3F0805A75100B8055741D121661124F30
:10572C00E51207338A828B83E5824583603D125AEA
:10573C0098880C890DE8450D6031780E1218987810
:10574C000A12189878081218987406121661E0F963
:10575C00EEFCEFFDAA16AB17850C82850D83121695
:10576C0083740612162BE9F510800375100EA91020
:10577C00740512162B7F10021757E0F50E750F00EB
:10578C00780E22E0850882850983221257ED2212B9
:10579C005A9CE8221257EDA3A322E0F508A3E0F5EA
:1057AC000922850C82850D83E0F8A3E0F5838882BD
:1057BC00E022A3A3F08A828B83A322F088828983C0
:1057CC00A3A3A3A322F08A828B831257DA22E0F5DB
:1057DC000A750B00780A22F088828983A31257ED90
:1057EC0022E0850882850983A3A32274EE12168514
:1057FC0074FE1216158A0A8B0BECFAEDFB7414125C
:10580C001661E0F510A3E0F5117416121661E0FEB6
:10581C007418121661E0F50EA3E0F50F8518828559
:10582C001983AC82AD831206678A0C8B0DEA450D89
:10583C006049851882851983124FE51207338A82D5
:10584C008B83E5824583602FA3A31257A6E50845F9
:10585C00096024780E1218987810121898EEF9AC8A
:10586C000CAD0DAA0AAB0B85088285098312168331
:10587C00740412162B8006790E80027901024C7F7B
:10588C0074F612168574FE121615740C121661122B
:10589C00579B851882851983F07401121661E9F003
:1058AC00E4F508F5097808121898750802780812BA
:1058BC001898740412166185820885830978081279
:1058CC001898120787740612162B740212162B8066
:1058DC006874F7121685EAFEEBFF89087C197D03C4
:1058EC0012079FEA5402600BA908EEFAEFFB1206AE
:1058FC005B8002790102435E74F612168574FF6AAE
:10590C00700374FF6B70168C828D8312594AE4F00D
:10591C008C828D83A3A3A312594AA3801812076FFC
:10592C008A088B09A808A909E849600D888289832F
:10593C0074FF124460A3A3E4F07F0202175774FFB4
:10594C00F0A3F08C828D83A3A32274F61216851219
:10595C00076F8A828B83E58245836006A3A3E0FAF6
:10596C0080027A007B0080D174F21216858A088B33
:10597C0009ECFEEDFF740E121661E0F50A12076FCA
:10598C008A0C8B0DA80CA90DE8497026EEFCEFFDD6
:10599C007AFF7BFF12076F8A0C8B0DA80CA90DE800
:1059AC004970047911801688828983E508F0A3E593
:1059BC0009F088828983A3A3E50AF079007F0602A7
:1059CC00175774EE121685EAFEEBFF8C088D0989C9
:1059DC000C7414121661125A987416121661124F26
:1059EC00E5750D00E8496003025A8C7402650C6081
:1059FC0003025A877412121661125AA2FCA3E0F920
:105A0C00EC2400F50EE439F50FEAF4F8EBF4F9ECBC
:105A1C0058F8E50F59F9E849705CE5082406F8EDEB
:105A2C003400F9880A890B8882F583125AAD120763
:105A3C009F8A108B11E50E65107004E50F651160DF
:105A4C0042780E121898850A82850B83125AAD1271
:105A5C0007A5740212162BE9F50D7027780E121893
:105A6C0098850882850983A3A3125AAB1207B774D1
:105A7C000212162B800D750D808008750D0D80039C
:105A8C00750D0BA90D0251448E828F83125A9C22E4
:105A9C00E0F8A3E0F922125A9C88828983E022A3C1
:105AAC00A3E0FCA3E0FDEEFAEFFB223400F50D853C
:105ABC000C82F58322E028FEA3E039FF8E828F83CF
:105ACC002274F2121685EAFEEBFF890B7401650B4A
:105ADC00600E7402650B706A7901120979E97062C3
:105AEC00EEFAEFFB1207698A088B09EA4509604751
:105AFC00750A00800B7C177D0079001210E7050AEF
:105B0C009002E6E0F8E50AC3985021E50A75F01713
:105B1C00A4F8A9F0850882850983A3A3E028FAA339
:105B2C00E039FB8A828B8312454D70C985088285CA
