:020000040000FA
:0600000002010702210FBE
:03002B0002256744
:03003B0002258C0F
:030043000225177C
:0300530002218205
:03007B0002253F1C
:10008300021F7BE5C754F84401F5C779012200003C
:100093000080FB120086B900030200F1E4792178A5
:1000A30008B800028004F709D8FCE479297802B87B
:1000B30000028004F709D8FCE49002817879790979
:1000C3008002F0A3D8FCD9FA7AF97B0A9001377839
:1000D3009579038015E493A3AD82AE838A828B83E3
:1000E300F0A3AA82AB838D828E83D8E9D9E7758288
:1000F300227583D674031201197582917583007476
:100103000012011975D00075813F751881751902A8
:10011300759F00020096C09FF59FE473D09F22D085
:1001230083D082C09FE493C0E0740193C0E0740263
:1001330093F59F22FF0000B4000028002800283018
:1001430075A000A000A000A00000080008E001F0D6
:10015300001000100010001000100010005000509C
:1001630000500010001000D0070000000000000F36
:100173000001000500307507001000010081FF0039
:10018300000000FFC905E705CF05FF0202020802D0
:100193005000A0000000E80302C08401000097841F
:1001A30002BC84010000500B02B684010000B302BC
:1001B30002BC84010000510B02B484010000C90297
:1001C30002BC84010000520B02AE84010000CB028A
:1001D30002BC84010000530B02AC84080000CC0273
:1001E30002BC84010000540B02AA84010000550BD9
:1001F300FF0100FF2002C0840100009A8402BC8436
:10020300010000B90B02A084000000000002B884C2
:100213000300001903990B990B990B990B990B99EF
:100223000B990B990B990B990B990B990B990B1B29
:100233000E330E150E020202020202020202010D29
:10024300000000100102C0840100009D8402BC84F0
:10025300010000FA0B02B084010000400702BC84D5
:10026300010000FB0B02A6840100002F8402BC8462
:10027300010000FC0B02A484010000138402BC846F
:10028300010000FD0B02A284010000408302BC8434
:10029300010000FE0B02C4840100001C8302BC8425
:1002A300010000FF0B02C6840100000A8302BC8424
:1002B300010000000C02C884010000F88202BC8423
:1002C300010000010C02CA84010000218402BC84E5
:1002D300010000020C02A884010000030C01E803E2
:1002E300053F100AFFFFFF000130750302010600FE
:1002F30000000000000000000000000000000000FB
:100303000000000000000000000000FFFF06008066
:100313000CE80301000102030405060708090A0BA0
:100323000C0D0E0F0709455F4C6F634B0512500010
:100333002003020A00020106030207E217FF00007E
:100343000101000000000000000000010203040599
:1003530006070809455F4C6F636B0000000000004F
:10036300000000000000000000EF12000007130A65
:100373005772697465204368617200104E6F746927
:10038300667920436861720002C08401000094848E
:1003930002BC84010000340D10E383030000DE0A75
:1003A30002BA84010000350D02BC84010000400D37
:1003B30010F383000000F20A02B884030000F30A7A
:1003C30002BA84010000410D12012299C7031201F0
:1003D30022B0C703120122E1C7031201221CC80382
:1003E30012012246C80312012270C8031201228798
:1003F300C8031201229EC803120122B5C8031201C9
:1004030022DEC803120122F1C80312012207C90325
:100413001201221AC90312012241C903120122F84F
:10042300D002120122FCD10212012234D2021201A3
:100433002257D20212012262D20212012285D20273
:1004430012012294D30212012269D402120122E47E
:10045300D4021201226CD502120122A7D502120185
:1004630022DED5021201226CD60212012245D702E6
:10047300120122A5D702120122B0D7021201222FA4
:10048300D80212012232D80212012235D8021201F7
:1004930022C4D802120122C7D802120122F7D802BD
:1004A30012012221D9021201220FDA02120122C102
:1004B300DA02120122A59803120122CD9803120138
:1004C30022FB98031201223299031201229099030D
:1004D300120122DB9903120122269A0312012266DA
:1004E3009A03120122AC9A03120122DA9A0312012F
:1004F30022979B03120122A19B03120122AE9B03AD
:10050300120122E19B03120122AD9C03120122B9C5
:100513009C03120122D19C03120122DB9C031201D2
:100523002233D20312012241D20312012259D203F0
:1005330012012271D203120122008002120122ACA5
:100543008002120122278102120122488202120133
:10055300228482021201222D8302120122148402B8
:10056300120122788502120122CF85021201225044
:1005730086021201224087021201228D8702120194
:1005830022138802120122458802120122598A028B
:100593001201229B8A02120122B98A021201223C11
:1005A3008B02120122108C02120122D88C0212013A
:1005B30022008003120122D380031201227C8103D3
:1005C300120122CF81031201227F82031201220B27
:1005D3008303120122F783031201222684031201EB
:1005E30022398503120122818503120122568603D3
:1005F300120122928603120122AE86031201221CEB
:10060300D503120122C5AA03120122DBAA03120198
:100613002201AB031201221DAC0312012227AC03FA
:100623001201225CAD0312012254AE031201229E79
:10063300FA02120122CEFB0212012201FC02120174
:10064300224BFC0212012212FE0212012291D2015C
:10065300120122FBD2011201225AD4011201226A91
:10066300D40112012297D401120122EED401120106
:100673002297D5011201229ED60112012268D701C9
:10068300120122C8D8011201220BD901120122B092
:10069300D901120122FDD90112012223DA0112012B
:1006A3002231DC0112012236DC011201223BDE0180
:1006B30012012288DE01120122FBDE011201222E29
:1006C300DF01120122D0DF0112012279E0011201C0
:1006D30022B1E001120122B4E001120122FCE00187
:1006E3001201223CE10112012293E101120122C213
:1006F300BD03120122DABD0312012222BE0312013D
:100703002238BE031201227FBE0312012293BF03CC
:1007130012012220C0031201226BC00312012238EE
:1007230043001201224443001201227F43001201BD
:1007330022C443001201228444001201220A45000C
:100743001201223645001201226F4500120122AD2B
:100753004700120122914900120122774B00120136
:1007630022BA4C00120122084F001201221A500033
:1007730012012265510012012275520012012292C8
:100783005200120122CD5200120122EF5200120137
:1007930022525300120122135800120122A85800BA
:1007A300120122F95800120122205900120122726B
:1007B3005900120122905900120122EA5900120134
:1007C30022E95A001201226D5B00120122629D038D
:1007D3001201226C9D03120122AF9D03120122CA52
:1007E3009D031201225A9E03120122829E031201CB
:1007F30022BF9E03120122F69E031201221F9F03B2
:10080300120122949F03120122A99F03120122BE07
:100813009F03120122EF9F0312012203A00312017F
:100823002228A00312012262A0031201228EA00338
:10083300120122C6A00312012245A1031201228E36
:10084300A103120122B8A103120122E3A1031201A1
:1008530022DD7E00120122DEB9021201220CBA024D
:100863001201225ABB021201223ABC02120122597E
:10087300BC02120122D6BC0212012219BD021201CE
:10088300226FBE0212012230BF02120122B7C1023F
:1008930012012258C2021201224EC3021201224B3C
:1008A300C402120122A5C50212012230C60212019E
:1008B3002256CC03120122BFCC0312012213CD0313
:1008C3001201223ACD031201226BCD031201220B36
:1008D300A20312012278A203120122BFA203120172
:1008E30022D7A303120122D3A403120122B6A50324
:1008F30012012232DB0212012274DB0212012246B0
:10090300DC021201221FDD0212012219DE02120192
:1009130022FBDE0212012264DF021201221AE0022C
:100923001201228EE002120122FAE00212012223B6
:10093300E1021201229DE10212012236E2021201BA
:10094300229BE202120122B0E202120122F6E2022B
:100953001201220FE30212012274E3021201227731
:10096300E302120122F0B70312012218B8031201A5
:100973002256B80312012214B9031201227BB903D0
:1009830012012297B903120122BFB903120122EF08
:10099300B903120122FEB9031201227BBA03120129
:1009A30022A1BA0312012280E2011201225EE401B4
:1009B30012012290E601120122CCE601120122F972
:1009C300E601120122E3E7011201222EE8011201DE
:1009D3002279E8011201228BE801120122CBE801FE
:1009E30012012200E9011201224EE9011201227DC6
:1009F300E901120122A0E901120122EDE90112012C
:100A03002272EA011201228CEC01120122CBEE01C7
:100A13001201220CEF01120122AEF001120122EFAA
:100A2300F00112012262F101120122B8F101120157
:100A330022E2F10112012217F20112012215F30140
:100A4300120122AEF901120122CFFB011201229AF7
:100A5300FD0112012202FF01120122D45B001201E7
:100A630022835C00120122C95C00120122095E008C
:100A73001201229F5F001201221960001201223429
:100A83006000120122AF600012012209620012010C
:100A9300226963001201226F6400120122D06500F3
:100AA300120122E965001201224766001201223574
:100AB3006700120122686700120122D86700120141
:100AC300225268001201229C68001201226669000A
:100AD3001201223B6A001201221A6B00120122A5A5
:100AE3006B00120122136C00120122876C001201A9
:100AF30022B26C00120122716D00120122D66E0027
:100B0300120122F36E00120122126F00120122035E
:100B1300700012012228700012012252700012018B
:100B230022CD70001201222771001201229072005F
:100B33001201223E73001201227F73001201225D13
:100B43009D02120122AB9D02120122B79D021201E6
:100B530022959E02120122C69E02120122F79E02D4
:100B6300120122779F02120122F59F021201222D08
:100B7300A0021201227FA002120122BCA0021201D4
:100B830022D9A202120122FFA402120122EAA60222
:100B9300120122D4A802120122F67F00120122DEE2
:100BA30099011201220E9A01120122E7A0011201FA
:100BB300226CA20112012269A80112012251A9018A
:100BC3001201228EA901120122B1A901120122E20E
:100BD300A901120122EBA901120122F5A9011201B7
:100BE30022E3AA01120122D9AB01120122CF84010F
:100BF300120122CE8801120122D488011201220F90
:100C03009001120122289501120122A8B1031201B9
:100C130022A2B20312012216B30312012254B30318
:100C2300120122C8B30312012241B4031201224A62
:100C3300B40312012256B4031201226BB40312014E
:100C430022A9B403120122BFB40312012278A6031E
:100C530012012285A6031201229FA603120122DE9E
:100C6300A6031201221CA70312012281A70312016A
:100C73002296A703120122A1A703120122AEA70302
:100C8300120122C5A703120122D3A703120122DEF8
:100C9300A703120122EAA703120122F9A7031201F3
:100CA3002204A80312012227A803120122CEA803BB
:100CB300120122DEA803120122F8A8031201221551
:100CC300A90312012231A90312012256A903120119
:100CD3002261A90312012276A9031201228AA90320
:100CE300120122EBA903120122F1A903120122F737
:100CF300A903120122FDA90312012215AA0312015D
:100D03002248AA03120122B4AB0212012238AC0218
:100D1300120122E7AC0212012246AE02120122673F
:100D2300B00212012253B10212012288B102120150
:100D330022AAB10212012259B20212012251B402B3
:100D43001201227AB4021201220CB5021201223ED0
:100D5300B5021201224BB502120122A2B502120101
:100D630022C8B50212012235B80212012238B90293
:100D730012012290B902120122F18E02120122FB0A
:100D83008F02120122E29002120122EC9002120160
:100D9300220E91021201221A9102120122B392022F
:100DA300120122E29202120122FE93021201225741
:100DB3009402120122BD95021201229C9602120195
:100DC30022F89602120122659702120122A09702CD
:100DD300120122DF9702120122989A02120122B213
:100DE3009A021201223E9B021201224C9B02120123
:100DF30022A59B02120122B39B02120122269C020E
:100E03001201228A9C02120122D49C02120122AFF7
:100E13007300120122D17300120122F7750012012F
:100E2300220C7900120122247A00120122D77A00BF
:100E3300120122B97B0012012253C9031201227845
:100E4300C903120122EAC90312012224F302120187
:100E5300222DF30212012236F3021201220DF402B3
:100E6300120122BEF502120122F4F5021201222E12
:100E7300F60212012264F6021201229EF602120108
:100E830022D2F602120122FEF60212012247F702D3
:100E930012012281F702120122CAF7021201222251
:100EA300F80212012257F802120122B2F8021201CB
:100EB30022ECF8021201223DF90212012273F90217
:100EC300120122ADF902120122DBF902120122FE04
:100ED300F9021201222CFF0112012258FF01120113
:100EE30022B3FF01120122BDFF01120122CDFF0136
:100EF300120122848D03120122A98D03120122E122
:100F03008D0312012282D403120122102600120142
:100F130022222900120122D62A001201227B2B0051
:100F23001201221E2C00120122D52C0012012204D0
:100F33002D00120122C0310012012252320012018F
:100F4300228E3300120122F63300120122AA34004A
:100F53001201226037001201229A37001201220483
:100F63003800120122613800120122BE380012013A
:100F7300221B3900120122063A001201224C3A00C8
:100F8300120122973A00120122BA3A00120122FDFD
:100F93003B00120122113C001201221A3D001201F2
:100FA30022593D00120122853D00120122D43D0049
:100FB300120122F53D00120122333E001201227A72
:100FC3004000120122BB40001201225941001201CC
:100FD30022CB410012012204430012012236D10325
:100FE30012012247D10312012223D203120122E963
:100FF300BA03120122B4BD03120122D7FF01120169
:10100300220AD3031201221AD30312012234D30377
:10101300120122D1D303120122EFB403120122934E
:10102300B503120122D5B70312012225D003120101
:10103300224CD003120122AFD00312012202D103AA
:101043001201222DC30312012252C303120122777C
:10105300C3031201229FC303120122CFC303120150
:101063002265C4031201228DC403120122238703C4
:10107300120122208903120122A68903120122AB45
:101083008A031201226F8B03120122ED8B031201DB
:1010930022D08C03120122D38C03120122E18C0390
:1010A300120122FE8C03120122278D03120122500A
:1010B3008D031201225E8D03120122768D0312012C
:1010C30022B1CD03120122DACD0312012204CE0391
:1010D30012012224CE0312012282CE03120122A482
:1010E300EB02120122B9EB0212012215EC021201EA
:1010F3002280EC02120122C8EC0212012232ED021C
:101103001201225BED0212012269ED02120122CBD0
:10111300ED0212012209EE0212012224EE02120153
:1011230022BFEE0212012264EF02120122E7EF0254
:1011330012012220F002120122ABF002120122025C
:10114300F10212012260F10212012272F102120174
:101153002298F102120122A1F102120122F0F202FD
:10116300120122B9C50312012220C603120122CBA8
:10117300C60312012241C7031201225EAE0312010C
:101183002291AE031201228FAF03120122E1B003B9
:10119300120122EBCE03120122C9CF0312012295C1
:1011A300C003120122DAC00312012220C10312017B
:1011B30022E9C203120122A0D503120122BBD503E7
:1011C300120122CBD503120122DFD303120122B174
:1011D300C6021201228DC702120122D4C7021201D4
:1011E3002211C8021201227FC802120122D9C802A9
:1011F30012012249C90212012219CA02120122084C
:10120300CB021201228CCB0212012228CD02120141
:1012130022B3CD0212012243CE02120122DCCE02FE
:10122300120122F3CE0212012226D0021201227CE5
:10123300D0021201229BE302120122BBE30212013C
:101243002231E5021201227FE5021201229FE5020B
:1012530012012207E60212012289E602120122CFBD
:10126300E6021201225BE702120122F1AD01120133
:101273002298B20112012289B501120122B2B501ED
:10128300120122DBB5011201228DB6011201226C7B
:10129300B801120122BEB9011201220ABF011201D3
:1012A3002243BF0112012287BF0112012293C00111
:1012B300120122F8CA0312012207CB031201227F73
:1012C300CB0312012217CC0312012236CC031201E5
:1012D3002251C101120122B9C1011201220EC4011E
:1012E30012012283C50112012296C501120122C1F6
:1012F300C501120122CEC6011201225EC7011201ED
:101303002273C70112012288C70112012235D201BB
:10131300120122389303120122889303120122A59A
:101323009303120122FD93031201227F95031201FD
:1013330022689803120122C5FF0212012277D60305
:10134300E066701008A3E066700A08A3E066700404
:1013530008A3E06622C3E7960809E7960809E7961B
:101363000809E79622C3E09608A3E09608A3E0964F
:1013730008A3E09622C008C3E096F50808A3E09608
:10138300420808A3E096420808A3E09645087001C6
:10139300D3D00822080808EAC0E0EBC0E086F0E7F3
:1013A300A4FA180986F0E7A42AFA180986F0E7A434
:1013B3002AFA180986F0E7A42AFA1986F0E7A4FBAB
:1013C300E5F02AFA190886F0E7A42BFBE5F03AFAD0
:1013D300190886F0E7A42BFBE5F03AFA18180986FA
:1013E300F0E7A4C5F02BFBE43AFA1908E7C5F0C609
:1013F300A426F6E5F03BFBE43AFA1886F0E7A4F6F8
:10140300E5F00826F6E43B08F6E43A08F6D0E0FBFC
:10141300D0E0FA226016080808C6C313C618C6131C
:10142300C618C613C618C613C6D5E0EA2270090843
:101433000808226016181818C6C333C608C633C670
:1014430008C633C608C633C6D5E0EA22E627F6083F
:1014530009E637F60809E637F60809E637F622E023
:1014630026F608A3E036F608A3E036F608A3E0362E
:10147300F622E026F008A3E036F008A3E036F008F1
:10148300A3E036F022C3E697F60809E697F60809C3
:10149300E697F60809E697F622C3E096F008A3E07C
:1014A30096F008A3E096F008A3E096F022E657F63C
:1014B3000809E657F60809E657F60809E657F6223B
:1014C300E056F608A3E056F608A3E056F608A3E0B4
:1014D30056F622E056F008A3E056F008A3E056F0D3
:1014E30008A3E056F022E0F608A3E0F608A3E0F62E
:1014F30008A3E0F622E6F008A3E6F008A3E6F00866
:10150300A3E6F022E0FAA3E0FBA3E0FCA3E0FD22C4
:10151300EAF0A3EBF0A3ECF0A3EDF022E0F8A3E0F4
:10152300F9A3E0FAA3E0FB22E8F0A3E9F0A3EAF0D1
:10153300A3EBF022CAC0E0E6F0A308DAFAD0E0FA9F
:1015430022CAC0E0E0A3C582CCC582C583CDC583D2
:10155300F0A3C582CCC582C583CDC583DAE6D0E0CE
:10156300CA22C3E498F8E499F91215A68026C3E4C5
:101573009AFAE49BFBE920E7E91215A6E498F8E45C
:1015830099F922C3E498F8E499F91215A6E498F8B6
:10159300E499F9C3E49AFAE49BFB22EB20E7CFE951
:1015A30020E7E0B90010BB0008E88AF084F8AAF04D
:1015B30022E4FBC8FA22EB70227B10C833C8C9337C
:1015C300C9335007C39AC3DBF280069A50012ADB62
:1015D300EAC833F4C8C933F4C9FA2275F008E4C879
:1015E30033C8C933C933C99AC99B5004C92AC93BF3
:1015F300D5F0ECFBC833F4C8E4C9FA22600D08C681
:10160300A2E713C618C613C6D5E0F322600C08C6BA
:10161300C313C618C613C6D5E0F422700422600DA6
:1016230018C6C333C608C633C6D5E0F41822251836
:1016330010AF08F518400C15198008F5184002156D
:1016430019D2AF2200C0D0251810AF08F518500CDE
:1016530005198008F51850020519D2AFD0D02225FC
:1016630018F58210AF08F518400C15198008F51805
:1016730040021519D2AF851983222518F582E43566
:1016830019F583222518F8E43519F9222518FAE407
:101693003519FB222518FCE43519FD22E4732518BE
:1016A300C582C0E0E51934FFC583C0E0E518C395E2
:1016B3008224F810AF0885831985821880088583F2
:1016C30019858218D2AFCEF0A3E520F0A37808E6FF
:1016D30008F0A3DEFAEFF0A3E58124FAF8E608F0B8
:1016E300A3E608F0A3E608F0A30808E608F0A3E6DB
:1016F30008F0A315811581D0E0FED0E0F81581151F
:10170300811581E8C0E0EEC0E0222518C582C0E063
:10171300E51934FFC583C0E0E518C3958224F910A9
:10172300AF088583198582188008858319858218F7
:10173300D2AFCEF0A3E520F0A37808E608F0A3DE4D
:10174300FAEFF0A3E58124FBF8E608F0A3E608F03E
:10175300A30808E608F0A3E608F0A315811581D0D5
:10176300E0FED0E0F815811581E8C0E0EEC0E0228C
:10177300851983851882E0A3FEE0A3F5207808E0AD
:10178300A3F608DFFAE0A3FFE0A3C0E0E0A3C0E014
:10179300E0A3C0E0E0A3C0E0E0A3C0E010AF088591
:1017A30082188583198008858218858319D2AFD062
:1017B30083D08202011F851983851882E0A3FEE08E
:1017C300A3F5207808E0A3F608DFFAE0A3FFE0A37F
:1017D300C0E0E0A3C0E0E0A3C0E0E0A3C0E010AF3E
:1017E300088582188583198008858218858319D214
:1017F300AFD083D08222C0D02518C582C0E0E519BE
:1018030034FFC583C0E0E518C3958224F310AF0805
:101813008583198582188008858319858218D2AF3C
:10182300C8F0A3E9F0A3EAF0A3EBF0A37908E70972
:10183300F0A3D8FAECF0A3EDF0A3EEF0A3EFF0A33E
:10184300D0E0F0A3D0E0F0A3D0E0F0A3E520F0A334
:10185300E5F0F0A322851983851882E0C0E0A3E0B8
:10186300F9A3E0FAA3E0FBA37808E0F608A3DFFA04
:10187300E0FCA3E0FDA3E0FEA3E0FFA3E0C0E0A340
:10188300E0C0E0A3E0F5D0A3E0F520A3E0A3F5F0EA
:1018930010AF08858319858218800885831985828E
:1018A30018D2AFD082D083D0E0F8D0E03274048075
:1018B30006740280027401C0E0F404121662D0E0E0
:1018C300121537227404800474028000CCC0E0ED4A
:1018D300C0E0E518C39CCCAD1950011D10AF068CB8
:1018E300188D1980068C188D19D2AF121544D0E0CB
:1018F300FDD0E0FC22D083D082E9C0E0E493A3C30F
:1019030086F0C5F095F0F908E493A386F0C5F09549
:10191300F0700BE493A3C3994005E9048002A3E4A8
:1019230075F002A42582F582E5F03583F583D0E0D6
:10193300F9E493A3C0E0E493C0E022D083D082EC27
:10194300C0E0EDC0E0E493A3FCE493A3FDED4C60A1
:101953000D12198AEC24FFFCED34FFFD80EFE493B4
:10196300A3FCE493A3FDED4C600D1219C9EC24FF15
:10197300FCED34FFFD80EFD0E0FDD0E0FCE493A369
:10198300C0E0E493C0E022C0E0C3E493960874018E
:10199300939618400FE493667008087401936618D1
:1019A30070007019A3A3C3E4939608740193961867
:1019B300A3A3400DD0E0D0E0D0E002197AA3A3A303
:1019C300A3A3A3D0E022C0E0C0F088F0E493667044
:1019D300080874019366187000A8F0A3A3700BD0D5
:1019E300F0D0E0D0E0D0E002197AA3A3D0F0D0E0A9
:1019F3002274F512170DEAFEEBFFEE2434F8EF34F0
:101A030000F988088909EE2435F582EF3400F5835F
:101A1300E0F8EE2437F582EF3400F583E0F50AECC5
:101A2300850AF0A4FCAAF0850AF0EDA42AFDE82CAF
:101A3300F8E43DF97A257B001215A6EA850882852C
:101A43000983F0F8740758F97401B900028004C3DC
:101A530033D9FCFAE8131313541FF8EE28F8EF34C4
:101A630000F9E8245DF582E93400F583E05A600863
:101A7300EE2434F582EF802CEE2434F582EF34002B
:101A8300F583E0C0E0EE2436F582EF3400F583E021
:101A9300F5F0D0E084A8F0EE28F8EF3400F9E8245C
:101AA30038F582E93400F583E0F97F040217B9744D
:101AB300F512170DEAFEEBFFEE2434F582EF340046
:101AC300F583E0C0E0EE2435F582EF3400F583D0F2
:101AD300E0F08E828F83A3A3A3A3A3A3A3C082C09A
:101AE300838E828F83A3A3A3A3A3E0F8A3E0F9D0FB
:101AF30083D082E0C398F508A3E099F509EE247F2B
:101B0300F582EF3400F583E064017069EE2480F51B
:101B130082EF3400F583E0F8A3E0F98E828F83A38C
:101B2300A3A3A3A3A3A3E0FCA3E0FD8E828F83A3BF
:101B3300A3A3A3A3E0FAA3E0FBC3EA9CEB9D50108D
:101B4300C3EC98ED99402EC3EA98EB995027800E89
:101B5300C3EA98EB994007C3EC98ED9940177CDCF6
:101B63007D04EEFAEFFB120AF1EE247FF582EF34E7
:101B730000F583E4F0EE2434F8EF3400F9E8FCE9EF
:101B8300FDEE2435F582EF3400F583E0F8EE2437DB
:101B9300F582EF3400F583E0F50AE508850AF0A441
:101BA300F508AAF0850AF0E509A42AF509E825084D
:101BB300F8E43509F97A257B001215A6EA8C828DA3
:101BC30083F0F8740758F97401B900028004C33331
:101BD300D9FCFAE8131313541FF8EE28F8EF340076
:101BE300F9E8245DF582E93400F583E05A6008EEF4
:101BF3002434F582EF802CEE2434F582EF3400F5A3
:101C030083E0C0E0EE2436F582EF3400F583E0F59F
:101C1300F0D0E084A8F0EE28F8EF3400F9E8243897
:101C2300F582E93400F583E0F9122509021AADC003
:101C330082C083851882851983E0F8A3E0F9C3EA9B
:101C43009CEB9D5010C3EC98ED99401BC3EA98EBB5
:101C5300995014800EC3EA98EB994007C3EC98EDB2
:101C6300994004790180027900D083D08222EAC3AB
:101C73009CFAEB9DFB2274EF12170D9003A2E06414
:101C8300086005E06407702A9061C8E0602490034F
:101C9300D0E0F4601DE0F875F003A4C8AAF02AF9B7
:101CA30074D228FE740339FF8E828F83A3A3A3E02B
:101CB3007003021DA9906060E0C0E0EE2468F58225
:101CC300EF3400F583D0E0F0750C45750D0575080C
:101CD30000750900E5D914F50AE5D95403F50E603A
:101CE300177403650E605CE50A6010EE2467F582E5
:101CF300EF3400F583E07003021D8E900540E0642D
:101D030001602AEE2482F582EF3400F583E060045B
:101D1300780480027800850A08E508C398FA95E0FC
:101D2300FB1209B98A088B09EA45097005120CE907
:101D33008074EE2482F582EF3400F583E070048A28
:101D43000C8B0DE50A6012850C82850D83F50BE57E
:101D5300D9F0A3150BE50B70F6EE2482F582EF3470
:101D630000F583E0604474FC250AF50A780C121828
:101D7300B4AC0AA90EEEFAEFFB120B93740212161F
:101D830047E97026AA08AB09121169793D8E828F43
:101D930083A3A3A3A3E0FA7B0012088DEEFAEFFB63
:101DA300120B09120BA5790080747403650E60563B
:101DB300850A1075110078101218B4AC0CAD0DAA79
:101DC30008AB09120B6F7402121647EE2468F582F2
:101DD300EF3400F583E064807004747F8001E0F5E4
:101DE3000C780C1218B8E50EF50C780C1218B8A97B
:101DF3000AAC08AD099003D0E0FA7B0012085174D5
:101E03000212164780139003A2E06408600BAC0C27
:101E1300AD0DEEFAEFFB120BFF120CF579017F0A01
:101E23000217B974F512170D74FC121631EAFEEBA2
:101E3300FF8908A2AFE433F509C2AF806AEE2463D9
:101E4300F8EF3400F97A007B00A2AFE433F50AC25D
:101E5300AF88828983E0FCA3E0FDEC4D603A888281
:101E63008983E0FAA3E0FB8A828B83E0FCA3E0FD95
:101E730088828983ECF0A3EDF08A828B83E4F0A35C
:101E8300F088828983E0FCA3E0FDEC4D700A888230
:101E93008983A3A3E4F0A3F0E50AA2E092AF1211B1
:101EA300699004E3E004F0EE2463F582EF3400F577
:101EB30083E0F8A3E0F9E849603DEE2463F582EF9F
:101EC3003400F583E02402FAA3E03400FBEA2402A1
:101ED300F50AEB3400F50B780A1218B48A828B8367
:101EE300E0FCA3E0F9EEFAEFFB120B2D74021216DD
:101EF30047E97003021E409004E3E060639004E44A
:101F0300E0F89004E3E0C398500C74026508705045
:101F13009004E5E0604A8E828F83A3A3A3A3E085A8
:101F23001882851983F0A3E4F09004E3E0F87402C7
:101F330012167DE8F0A3E4F09004E3E0F89004E2E5
:101F4300E028F0740212167DAC82AD838518828579
:101F53001983AA82AB83790112085D9004E3E4F04C
:101F6300E509A2E092AF7404121647021AAD00000D
:101F7300008521878522C622C0E0C0D0E8C0E0E901
:101F8300C0E0EAC0E0EBC0E0ECC0E0EDC0E0EEC0D2
:101F9300E0C008C009C00AC00BC082C083C0F0A261
:101FA300AFE433FEC2AF759B00906182E0A2E050C4
:101FB30012E591A2E0500C7591FE74016521700346
:101FC300121C79E0A2E55051E591A2E5504B7591C1
:101FD300DF9003A2E064076005E0640870237401E6
:101FE3006521703579019003D0E0FA75F003A4CA36
:101FF300A8F028FB74D22AFA74033BFB121E268036
:1020030018E0640D70139003C4E004F064287002B8
:10201300E4F07A00E0F9120CFB906182E0A2E64062
:10202300030220C2E591A2E640030220C27591BFDC
:102033009003A2E064057008120C29120C3580038A
:10204300120C2F752100120C89E99003A3F079007B
:10205300120C7D120A677A017B009003A1E0F9124A
:102063001139907803E064427055900544E014F010
:10207300704DC2AF12207A00782AD0E0F618D0E073
:10208300F6E59F540770057509FF800375097FC442
:10209300C0E07829E6F50808E65509F509740B78D8
:1020A3000812160FD0E02508F8906270E0A2E7400E
:1020B300F8E8C333906272F0906270E0D2E0F0907F
:1020C3006181E0A2E35009E5E9A2E3500375E9F772
:1020D300A3E0A2E75009E591A2E7500375917FEED3
:1020E300A2E092AFD0F0D083D082D00BD00AD00937
:1020F300D008D0E0FED0E0FDD0E0FCD0E0FBD0E0A3
:10210300FAD0E0F9D0E0F8D0D0D0E032C0E0C0D0CF
:10211300C082C083906183E0A2E05009E5BFA2E0E2
:10212300500375BFFEE0A2E15009E5BFA2E15003F1
:1021330075BFFDE0A2E25009E5BFA2E2500375BFFF
:10214300FBE0A2E35009E5BFA2E3500375BFF7E04C
:10215300A2E45009E5BFA2E4500375BFEFE0A2E596
:102163005009E5BFA2E5500375BFDFE0A2E65009C1
:10217300E5BFA2E6500375BFBFD083D0828088C07D
:10218300E0C0D0E8C0E0E9C0E0EAC0E0EBC0E0ECCA
:10219300C0E0EDC0E0C0F0E5A7A2E6500FE5A1A2C4
:1021A300E6500953A7BF75A1BF1221E7E5A7A2E532
:1021B300500CE5A1A2E5500653A7DF75A1DFE5A703
:1021C300A2E15009E5A1A2E1500375A1FDE5A7A293
:1021D300E2500CE5A1A2E2500653A7FB75A1FBD088
:1021E300F00220F874F812170D7521019003A2E094
:1021F30064067015120BC38A828B83A3A3A3A3A3C4
:10220300A3E0FAA3E0FB120C17A2AFE433FED2AFB4
:102213009003A8E0640170187A207B009003A1E08A
:10222300F91212597A207B009003A1E0F912113FB1
:10223300906182E0D2E6F0900541E0602185C622FC
:1022430080169003A7E064017008E5C654F84405BE
:10225300F5C653BEFC121F747401652160E4EEA23F
:10226300E092AF7F010217B9008E238F2485822865
:10227300858327851882851983E0CEA3E0CF85283F
:1022830082852783EBC9EAC8EDCBECCA75F010C38E
:10229300E833C8E933C9EA33CAEB33CBC3EA9EF563
:1022A30026EB9FF525B35004AB25AA26EC33CCEDE2
:1022B30033CDD5F0DAAE23AF242274ED12170D8A95
:1022C300088B098C0A8D0B741312167D780C12146B
:1022D300E97808790C1213587510017511C8751235
:1022E3000075130050127808790C1214887810794D
:1022F3000812135850168010780C79081214887835
:1023030010790C12135840047901800279007F0C74
:102313000217B974ED12170D8A088B098C0A8D0BFD
:10232300741312167D780C1214E9780C79081213C1
:102333005840117808790C121488AA08AB09AC0A22
:10234300AD0B802275100075110075120075130115
:102353007810790C1214887810790812144FAA1087
:10236300AB11AC12AD1380A68A828B837508FF75FF
:1023730009FF750AFF750B0078081214D67F040253
:1023830017B974F512170D8C828D8378081214E92E
:102393008A828B83780812149CEA2404F8EB3400B5
:1023A300F98C828D83A3A3A3A3E0FCA3E0FD888221
:1023B3008983C3E09CF0A3E09DF088828983C3E016
:1023C3009420A3E0944E40268A828B837508FF7580
:1023D30009FF750AFF750BFF78081214758A828B43
:1023E30083A3A3A3A3E02420F0A3E0344EF00223AD
:1023F3006B74F512170DE9FE9004F7E0FAA3E0FB06
:10240300EEC333F8E433F9749328F582748339F512
:1024130083E02AF508A3E03BF50978081218B47A9B
:10242300407B427C0F7D0012226C74021216478A95
:10243300088B098C0A8D0B74107808121417AA08DC
:10244300AB097F040217B974F112170D8A0C8B0DB7
:102453008C0E8D0F740F12167DE0FAA3E0FB74113E
:1024630012167DE0F508A3E0F50978081218B4EA1E
:102473002401F508EB3400F509E4F50AF50B780CB3
:102483007908121397750871750902780C79081287
:102493001397AA0CAB0DAC0EAD0F12226C74021283
:1024A30016478B09EA450960047A0180027A00EC39
:1024B3002AFCED3400FD741312167DE0F8A3E0F955
:1024C300E8FEE9FFECF8EDF97A717B021215A688B4
:1024D3000889098E828F8378081214F8ECF8EDF9D5
:1024E3007A717B021215A68A088B09740578081283
:1024F300161E8E828F83A3A3A3A3E508F0A3E50989
:10250300F07F080217B9C082C083E9906000F0D061
:1025130083D08222C0E074F21217F9A2AFE433FE33
:10252300D2AFC2C0E5D1A2E4500653D1EF1210BB23
:10253300EEF8EEA2E092AF7F01021858C0E074F209
:102543001217F9A2AFE433FED2AFE58AA2E3500338
:1025530012103D758A00C2EBEEF8EEA2E092AF7F57
:1025630001021858C0E0C0D0E8C0E0E9C0E0A2AF63
:10257300E433F8D2AFC2C7E8F9E8A2E092AFD0E003
:10258300F9D0E0F8D0D0D0E032C0E0C0D0E8C0E06D
:10259300E9C0E0EAC0E0C082C083A2AFE433FAD26C
:1025A300AF9009B5E0F89009B6E068700B539AFB59
:1025B3009009B77401F0802CC2E99009B5E0F87472
:1025C30001289009B5F07900743528F5827409392A
:1025D300F583E0F5C19009B5E0C394804006900906
:1025E300B57400F0EAF8EAA2E092AFD083D082D0CB
:1025F300E0FAD0E0F9D0E0F8D0D0D0E032C2AF02B8
:03260300000022B2
:10260800FFFFFFFFFFFFFFFF74F01216A174F8121F
:1026180016318A0E8B0FE9FF8C0C8D0D7E00850E0E
:1026280008850F0978081218F8000410EE285826B3
:102638007B269A26BD26E0260327342757276E27B0
:102648009E274F2872289528C328EE28EE28C727EA
:1026580074016F7019850C82850D83E0C394035053
:102668000D850C82850D83E0900CA2F080027E1807
:1026780002291674026F7015850C82850D83E0F8A7
:10268800A3E0F9900CA3E8F0A3E9F080027E180219
:10269800291674016F7019850C82850D83E0C39427
:1026A80002500D850C82850D83E0900749F0800269
:1026B8007E1802291674016F7019850C82850D83A6
:1026C800E0C39405500D850C82850D83E090074A80
:1026D800F080027E1802291674016F7019850C8229
:1026E800850D83E0C39402500D850C82850D83E02F
:1026F80090074BF080027E1802291674106F70271D
:1027080075081075090078081218B4AC0CAD0D7A6C
:102718004C7B071210E574021216478A088B09854C
:10272800088285098380027E1802291674016F7059
:1027380019850C82850D83E0C39402500D850C82A7
:10274800850D83E090075CF080027E1802291674DC
:10275800016F700D850C82850D83E0900CA6F080CA
:10276800027E1802291674046F70269084807808F7
:102778001214E9850C82850D8378081213685011AC
:10278800850C82850D8312151F90075E12152B800C
:10279800027E18022916EF7021120617E97013122B
:1027A8000F83E9F509795012122FE9F508120F7114
:1027B800800A9007F17401F080027E1802291674CD
:1027C800076F707E75080675090078081218B485B9
:1027D8000C82850D83A3AC82AD83740412168F120C
:1027E80010EB7402121647851882851983EAF0A344
:1027F800EBF07C007D00740212168F850C82850D2B
:1028080083E0F9120F17E9F50AE50AC3940A502E76
:10281800120617E97015A90A120F89E9F509795006
:1028280012122FE9F508120F718019A80A7900749D
:10283800F228F582740739F5837401F080067E0268
:1028480080027E1802291674016F7019850C828522
:102858000D83E0C39402500D850C82850D83E090B2
:10286800075DF080027E1802291674016F701985C1
:102878000C82850D83E0C3940A500D850C82850D6A
:1028880083E0900CA5F080027E1802291674016F6F
:102898007025850C82850D83E0C394074019850C4B
:1028A80082850D83E0C39411500D850C82850D83BC
:1028B800E0900CA7F080577E18805374016F702247
:1028C8009007F0E0F508850C82850D83E09007F00D
:1028D800F0E50870399007F0E064017031120F716B
:1028E800802C7E188028C3E50E9427E50F940050AD
:1028F8001B74026F7016850C82850D83E0FCA3E0C3
:10290800FDAA0EAB0F1204B5E9FE80027E02EEF9B5
:1029180074081216477F0802177374F01216A17410
:10292800D7121631E9C0E0851882851983D0E0F006
:10293800740112167DEAF0A3EBF08C0E8D0F9084D3
:102948004A740312169774061215447403121697E4
:10295800740112167DE0FAA3E0FB851882851983BD
:10296800E0F9120F17E9FEEEC3940A4003022AB1F8
:10297800EEF9120F53E9FF900CA2E06402700474A0
:102988000180027400F50878081218B8743A121613
:102998007DE0FDEFFCEEF9AA0EAB0F120FC5740136
:1029A8001216477C147D007900741512168F1210C8
:1029B800FD8A088B0985080A85090B741512169774
:1029C8007A1075F006EEA42424F9121229E9703C55
:1029D8007C1079FF741512168F12115DE9702D7431
:1029E8002512167DAC82AD837A0475F006EEA42418
:1029F80025F9121229E9F5087415121697EFA2E0C5
:102A0800E433F9AA0EAB0F12053FE9F87409121660
:102A1800977A0C74702EF9121229E97079740912D8
:102A2800168F120F47750800E508C394045067A86D
:102A3800087900E875F003A4C8AAF075F000A42A84
:102A4800FA75F003E9A42AF9740912167DE58228BB
:102A5800F50CE58339F50D850C82850D83E0F8A327
:102A6800E0F9E849602C850C82850D83A3A3E0F585
:102A78000A750B00780A1218B4850C82850D83E05C
:102A8800FCA3E0FDAA0EAB0F12079D7402121647B5
:102A9800E9F805088092EFA2E1500E900748E0F9A6
:102AA800AA0EAB0F1207A3E9F8743912167DE06479
:102AB80004700F900CA2E064027007AA0EAB0F120C
:102AC8000FBF790074291216477F0802177374F232
:102AD8001216A1890B8A088B09ECFEEDFF750A0A0C
:102AE800E50B600B14600814604114605F807DAAD8
:102AF80008AB09120F65E9F50AE50AC3940A506C98
:102B0800EE4F6068750C06750D00780C1218B4ACA1
:102B180008AD09EEFAEFFB1210E574021216478AA7
:102B28000C8B0D850C82850D838041AA08AB091298
:102B38000F5FE9F50AE50AC3940A5030EE4F602C9E
:102B4800EEFAEFFBA90A120F59E98020AA08AB098F
:102B5800120F6BE9F50AE50AC3940A500FEE4F60AD
:102B68000BEEFAEFFBA90A120F59E9F8A90A7F063A
:102B780002177374F21216A18A0C8B0DE9FF7E15E9
:102B880074FF650C700474FF650D702A750800E504
:102B980008C3940A5014EFFC7A027B00A908120FAC
:102BA80035E960027E00050880E5EF60627AAD7B5A
:102BB8000F12099B8059AA0CAB0D12097D8A088B4C
:102BC8000985080A85090BE50A450B60407C007DEC
:102BD80000E50A2405FAE4350BFB850A82850B8398
:102BE800A3A3A3A3E0F9120F17E9F508E508C39416
:102BF8000A500EEFFC7A027B00A908120F35E97E15
:102C080000EF600BAA0AAB0B120FAD80027E14EE28
:102C1800F97F0602177374F01216A174FE121631AA
:102C2800851882851983EAF0A3EBF08C0A8D0B7462
:102C38001212167DE0F50EA3E0F50F7E15851882B9
:102C4800851983E064FF7004A3E064FF701D7F00B2
:102C5800EFC3940A506BAC0EAD0FAA0AAB0BEFF999
:102C6800120F3BE960027E000F80E5851882851906
:102C780083E0FAA3E0FB12097D8A0C8B0D850C0812
:102C8800850D09E508450960367C007D00E50824C6
:102C980005FAE43509FB850882850983A3A3A3A364
:102CA800E0F9120F17E9FFEFC3940A5014AC0EAD08
:102CB8000FAA0AAB0BEFF9120F3BE97E0080027EE8
:102CC80014EEF974021216477F0802177374F7128C
:102CD80016A1EAFEEBFF900762EEF0A3EFF0900773
:102CE80048E0FC7D007A267B001204B5E9F50890DF
:102CF8000748E0F912071F7F0102177374F21216D2
:102D0800A174EC1216318A0A8B0B850A82850B8313
:102D1800A3A3E024FA700302314C24FD7003022FB0
:102D2800C0147003022DF414601024FD7003022FE8
:102D3800681470030230040231B4AE0AAF0B900776
:102D480062E0F8A3E0F9E8496066900762E0F8A35A
:102D5800E0F5838882E0F8A3E0F9E8496052EE24C0
:102D68000CF582E43FF583E0F50878081218B8EE10
:102D7800240BF582E43FF583E0F98E828F83A3A3C9
:102D8800A3A3A3A3A3A3A3E0FCA3E0FDEE2403FA5B
:102D9800E43FFB900762E0F8A3E0F5838882E0F85F
:102DA800A3E0F583888212169F74011216478039B2
:102DB8008E828F83A3A3A3A3A3A3A3A3A31218CB39
:102DC80090075E1215071205517402121647E96042
:102DD8001879018E828F83A3A3A3A3A3A3A3A3A37C
:102DE800E0FAA3E0FB12054BE90231B4AE0AAF0BDF
:102DF8008E828F83A3E06003022F168E828F83A3B7
:102E0800A3A3A3A3E0A2E04003022F169007FCE0CF
:102E1800F8A3E0F9E8496003022F167C0E7D0079DB
:102E280000AA18AB191210FD8A088B09AA08AB0969
:102E3800EE240CF582E43FF583E0F8A3E0F9E849D5
:102E4800603675080675090078081218B4EE240C67
:102E5800F582E43FF583E02410FCA3E03400FD7420
:102E68000212168F1210E574021216478A088B098F
:102E7800850882850983804F8E828F83A3A3A3E070
:102E8800FAA3E0FB12097D8A0C8B0D850C08850DD1
:102E980009E5084509602D750C06750D00780C12BA
:102EA80018B4E5082405FCE43509FD740212168FF0
:102EB8001210E574021216478A0C8B0D850C828558
:102EC8000D8380030231B48E828F83A3A3A3A3A3AF
:102ED800E0A2E25004D2F08002C2F0A2F0E433F89B
:102EE8007900740C12167DE048F0A3E049F0EEFC7E
:102EF800EFFDAA18AB19120F4DE970127A027B0088
:102F0800900748E0F9121139E979000231B69007C3
:102F180062E0F8A3E0F9E8496043900762E0F8A3AB
:102F2800E0F5838882A3A3E0F8A3E0F9E849602DDF
:102F38008E828F83A3E0FC79018E828F83A3A3A363
:102F4800E0FAA3E0FB900762E0F8A3E0F58388824B
:102F5800A3A3E0F8A3E0F583888212169F0231B498
:102F6800AE0AAF0B900762E0F8A3E0F9E8496045C4
:102F7800900762E0F8A3E0F5838882A3A3E0F8A3B2
:102F8800E0F9E849602F850A82850B83A3E0FC7984
:102F9800028E828F83A3A3A3E0FAA3E0FB900762CB
:102FA800E0F8A3E0F5838882A3A3E0F8A3E0F58323
:102FB800888212169F0231B4850A08850B097C00A5
:102FC8007D00E5082404FAE43509FB8508828509B3
:102FD80083A3A3A3E0F9120F17E9FEEEC3940A50E6
:102FE80018E508240AFCE43509FD7A0475F006EEB4
:102FF800A42425F9121223E9F80231B4AE0AAF0B62
:1030080090075DE06019900CA5E0F98E828F83A38C
:10301800A3A3E0FAA3E0FB12054BE9F80231B49050
:103028000CA2E0701679058E828F83A3A3A3E0FA21
:10303800A3E0FB12054BE9F80231B48E828F83A31B
:10304800A3A3E0FAA3E0FB12097D8A0C8B0D850C83
:1030580008850D098E828F83A3A3A3A3A3A3A3E04E
:10306800A2E05072E50845096069850882850983F0
:10307800A3A3A3A3E0605F8E828F83A3A3A3A3A3CC
:10308800A3A3A3A3E0F8A3E0F9E8C4540FF87900D8
:10309800E85401F8E95400F9E8A2E04039740E1246
:1030A8001697E5082405FAE43509FB8508828509A1
:1030B80083A3A3A3A3E0F9120F17E9701979038E6C
:1030C800828F83A3A3A3E0FAA3E0FB12054BE9F8E0
:1030D8000231B40231B4EE2405FCE43FFD850882D8
:1030E800850983A3A3A3A3E0F98E828F83A3A3A357
:1030F800E0FAA3E0FB120FB9900762E0F8A3E0F949
:10310800E849603E900762E0F8A3E0F5838882A36F
:10311800A3E0F8A3E0F9E84960287C0079008E82F2
:103128008F83A3A3A3E0FAA3E0FB900762E0F8A3D0
:10313800E0F5838882A3A3E0F8A3E0F583888212F0
:10314800169F8068120617E970629007F1E0640123
:10315800701A120F83E9FE9007F17400F07C0A7D63
:103168000079007AF27B071210FD80367E00EEC3EC
:10317800940A502EEEF8790074F228F58274073913
:10318800F583E064017018EEF9120F89E9FAEEF898
:10319800790074F228F582740739F5837400F00E0B
:1031A80080CC795012122FE9FE120F717901741434
:1031B8001216477F0602177374F51216A174F212DD
:1031C80016318908EAFEEBFF8C09AC18AD197A0EA6
:1031D80075F006E508A42420F9121229E9705F7C2D
:1031E8000679FFAA18AB1912115DE97051740C1217
:1031F800167DE0F8A3E0F9E8F50AE5096005EE4276
:103208000A8004EEF4520AA80A7900740C12167D9A
:10321800E0687003A3E0696021A80A7900740C12C1
:10322800167DE8F0A3E9F0AC18AD197A0E75F00632
:10323800E508A42420F9121223E979018002790013
:10324800740E1216477F0302177374F01216A174D6
:10325800E612163189098A0E8B0FECFEEDFF740C0D
:103268001216977A0E75F006E509A42420F91212B1
:1032780029E960030233827C0679FF740C12168FE9
:1032880012115DE96003023382AC18AD197A0C742F
:10329800702509F9121229E9600302337E750800C6
:1032A800AA18AB19120F47E50E450F702E7C0C7942
:1032B80000AA18AB1912115DE960030233647C0C93
:1032C8007D007900AA18AB191210FD8A0A8B0B85AC
:1032D8000A82850B83750801023364AC18AD19AAFC
:1032E8000EAB0F120F418A0C8B0D850C0A850D0B46
:1032F800E50A450B7030EE4F601BAC18AD197A002B
:103308007B00120F418A0C8B0DA80CA90D880A8925
:103318000BE849700479008063850A82850B83E590
:103328000EF0A3E50FF0850A82850B83A3A3E0F8CE
:103338007900EE687002EF696022EEC0E0850A82CB
:10334800850B83A3A3D0E0F0EE4F700D850A82852C
:103358000B837400F0A37400F0750801E50860168B
:10336800AA18AB19120F47AC18AD197A0C7470254E
:1033780009F9121223E9790180027900741A1216E8
:10338800477F0802177374F71216A1EAFEEBFF7A5B
:1033980000EAC39404504EEAF87900E875F003A4F3
:1033A800C8ABF075F000A42BFB75F003E9A42BF96A
:1033B800EC28F582ED39F583E06E7003A3E06F70B9
:1033C80021EAF87900E875F003A4C8AAF075F000BE
:1033D800A42AFA75F003E9A42AF9EC28FAED39FBD6
:1033E80080070A80AC7A007B007F0102177374F7AC
:1033F8001216A17C00ECC3940440030234A5ECF837
:103408007900E875F003A4C8ADF075F000A42DFDAF
:1034180075F003E9A42DF9EA28F582EB39F583E084
:10342800F4FEA3E0F4FFECF87900E875F003A4C813
:10343800ADF075F000A42DFD75F003E9A42DF9EAAF
:1034480028F582EB39F583EEF0A3EFF0ECF879007C
:10345800E875F003A4C8ADF075F000A42DFD75F073
:1034680003E9A42DF9EA28F582EB39F583A3A3E053
:10347800F4C0E0ECF87900E875F003A4C8ADF07585
:10348800F000A42DFD75F003E9A42DF9EA28F582D2
:10349800EB39F583A3A3D0E0F00C0233FD7F0102E2
:1034A800177374F01216A174F4121631EAFEEBFFCA
:1034B8008C088D099007FCE0F8A3E0F9E849702C26
:1034C800EE4F6006E508450970057901023756EEAA
:1034D800FAEFFB120F65E9900CA8F0900CA8E0C376
:1034E800940A4008120F77E9900CA8F0900CA8E015
:1034F800C3940A40030237549007FCE0F8A3E0F9AC
:10350800E84960030235A0EEFCEFFD7A0E75F0067F
:10351800900CA8E0A42420F9121223E9F50B7C0CE6
:103528007D0079FFAA18AB191210FD8A0C8B0D8546
:103538000C0E850D0FAC18AD197A0C900CA8E02470
:1035480070F9121223E9F50A750C0E750D00780C46
:103558001218B4EEFCEFFD900CA8E0F87900E875BD
:10356800F00EA4C8AAF075F000A42AFA75F00EE9C6
:10357800A42AF9746428FA740739FB1210E5740256
:103588001216478A0C8B0DA80CA90D9007FCE508AC
:10359800F0A3E509F00237509007FCE0F8A3E0C873
:1035A8002406F582C83400F583E0F8A3E0F9E84979
:1035B80060439007FCE0F8A3E0C82406F582C8340D
:1035C80000F583E0FCA3E0FD7A1B75F006900CA8DB
:1035D800E0A42421F9121223E9F89007FCE0F9A3EA
:1035E800E0C92406F582C93400F5837400F0A37499
:1035F80000F00237509007FCE0F8A3E0C8240AF571
:1036080082C83400F583E0F8A3E0F9E84960439004
:1036180007FCE0F8A3E0C8240AF582C83400F58363
:10362800E0FCA3E0FD7A1B75F006900CA8E0A4244A
:1036380022F9121223E9F89007FCE0F9A3E0C92463
:103648000AF582C93400F5837400F0A37400F0020F
:1036580037509007FCE0F8A3E0C8240CF582C83482
:1036680000F583E0F8A3E0F9E84960439007FCE03F
:10367800F8A3E0C8240CF582C83400F583E0FCA365
:10368800E0FD7A1075F006900CA8E0A42423F91246
:103698001223E9F89007FCE0F9A3E0C9240CF582AD
:1036A800C93400F5837400F0A37400F00237509019
:1036B80007FCE0F8A3E0C82408F582C83400F583C5
:1036C800E0F8A3E0F9E849606F9007FCE0F8A3E0B0
:1036D800C82408F582C83400F583E0FCA3E0FD7A2D
:1036E8001075F006900CA8E0A42424F9121223E91E
:1036F800F50A9007FCE0F8A3E0C82408F582C8346E
:1037080000F583E02410FCA3E03400FD7A0475F092
:1037180006900CA8E0A42425F9121223E9F89007D2
:10372800FCE0F9A3E0C92408F582C93400F58374E4
:1037380000F0A37400F080109007F0E06003120F0F
:10374800CB120FB379018006790080027901740CDD
:103758001216477F0802177374F71216A174F21233
:103768001631E9FEAC18AD197A0E75F006EEA424F0
:1037780020F9121229E9700E740C12167DE0F8A3D4
:10378800E0F9E8F980027900740E1216477F010209
:10379800177374F41216A174F21216318909EAFE2D
:1037A800EBFFE509C3940A5004EE4F7004790280D8
:1037B80041AC18AD197A0E75F006E509A42420F974
:1037C800121229E9F508E5087026750A06750B0036
:1037D800780A1218B47402121697EEFAEFFB121058
:1037E800E574021216478A0A8B0B850A82850B83B9
:1037F800A908740E1216477F0402177374F4121680
:10380800A1EAFEEBFF750800E508C3940A5043756A
:103818000A06750B00780A1218B4EEFCEFFDA8082A
:103828007900E875F00EA4C8AAF075F000A42AFA89
:1038380075F00EE9A42AF9746A28FA740739FB129C
:1038480010F77402121647E96004A90880060508F3
:1038580080B6790A7F0402177374F41216A1EAFE7F
:10386800EBFF750800E508C3940A5043750A06750E
:103878000B00780A1218B4EEFCEFFDA8087900E8EE
:1038880075F00EA4C8AAF075F000A42AFA75F00E17
:10389800E9A42AF9746428FA740739FB1210F7743A
:1038A80002121647E96004A9088006050880B6795F
:1038B8000A7F0402177374F71216A174F0121631F6
:1038C800EAFEEBFF750800E508C3940A5039AC1806
:1038D800AD197A1075F006E508A42423F912122907
:1038E800E970207C1079FFAA18AB1912115DE970F4
:1038F80012EEFCEFFDAA18AB19120521E97004A914
:10390800088006050880C0790A74101216477F01DE
:1039180002177374F41216A1750800E508C3940A17
:1039280040030239F5A8087900E875F00EA4C8AA82
:10393800F075F000A42AFA75F00EE9A42AF9746467
:1039480028FC740739FD7A0E75F006E508A42420D2
:10395800F9121229E970030239F07C067D0079FF1B
:10396800AA087B00EA75F00EA4CAA8F075F000A4B6
:1039780028F875F00EEBA428FB74642AFA74073B48
:10398800FB1210FD8A0A8B0BAE0AAF0B7C067D007A
:1039980079FFAA087B00EA75F00EA4CAA8F075F0B2
:1039A80000A428F875F00EEBA428FB746A2AFA74B0
:1039B800073BFB1210FD8A0A8B0BAC0AAD0BA8085B
:1039C8007900E875F00EA4C8AAF075F000A42AFAE8
:1039D80075F00EE9A42AF9747028F582740739F590
:1039E800837400F0A37400F005080239239007F0EF
:1039F800E06003120FCB120FB37F0402177374F742
:103A08001216A17E00EEC3940A50327C0679FFEEAE
:103A1800FA7B00EA75F00EA4CAA8F075F000A42895
:103A2800F875F00EEBA428FB74642AFA74073BFBC4
:103A380012115DE96004EEF980050E80C8790A7FED
:103A48000102177374F71216A17E007F00EFC3946A
:103A58000A50357C0679FFC9FDC9EFF87900E87589
:103A6800F00EA4C8AAF075F000A42AFA75F00EE9C1
:103A7800A42AF9746428FA740739FBCDF9CD121118
:103A88005DE970010E0F80C5EEF97F0102177374AE
:103A9800F71216A17E007F00EFC3940A500DEE7056
:103AA8000AEFF9120F89E9FE0F80EDEEF97F0102A6
:103AB800177374F01216A174C9121631E9FE900C2E
:103AC800A8E06E701D7A017B00900748E0F912119A
:103AD8003FE97A027B00900748E0F912113FE912AA
:103AE8000FD774291216977A0E75F006EEA42420C3
:103AF800F9121229E96003023BEE7C0679FF74296A
:103B080012168F12115DE96003023BEE7C0E7D00F8
:103B180079FF742912168F1210FD85188285198372
:103B2800EAF0A3EBF07C1B7D0079FF740E12168F70
:103B38001210FD8A0A8B0B850A0E850B0F7C0C7DF3
:103B48000079FF740212168F1210FD8A0C8B0D85F6
:103B58000C0A850D0B74291216977A0E75F006EE6D
:103B6800A42420F9121223E9F508740E1216977A84
:103B78001B75F006EEA42421F9121223E9420874F9
:103B88000E1216977A1B75F006EEA42422F912126B
:103B980023E94208740E1216977A1075F006EEA4FF
:103BA8002423F9121223E94208740E1216977A1088
:103BB80075F006EEA42424F9121223E94208740EC3
:103BC8001216977A0475F006EEA42425F91212232A
:103BD800E9420874021216977A0C74702EF91212C0
:103BE80023E942088003750800A9087437121647AC
:103BF8007F0802177374F71216A1E9FEEE900748C2
:103C0800F0120F717F0102177374F21216A1890A5C
:103C1800EAFEEBFFEE5400F8EF5480F9E84960350E
:103C2800900748E0F91211218A0C8B0DA80CA90DF8
:103C380088088909E8496012AA08AB09120F9BE9AC
:103C48006008AA08AB0912110FE9EE6400FAEF64E4
:103C580080FB023D15EE5402602D7C007D007A0049
:103C68007B00120F4DE960187A017B00900748E04D
:103C7800F9121139E9EE6402FAEF6400FB023D150E
:103C88007A027B00023D15EEA2E0507D9007FCE031
:103C9800F8A3E0F5838882A3A3A3E0FAA3E0FB12CC
:103CA8000FD1E9605E900762E0F8A3E0F9E84960A7
:103CB80045900762E0F8A3E0F5838882A3A3E0F8C3
:103CC800A3E0F9E849602F7C0079019007FCE0F84F
:103CD800A3E0F5838882A3A3A3E0FAA3E0FB9007FF
:103CE80062E0F8A3E0F5838882A3A3E0F8A3E0F5F7
:103CF80083888212169F120FD7EE6401FAEF6400D0
:103D0800FB800A7A017B0080047A007B007F060230
:103D1800177374F71216A1EAFEEBFF7508018E827D
:103D28008F83E02450601314601924E1701CEEFAAC
:103D3800EFFB120F2FE9F5088010EEFAEFFB120FD8
:103D4800A18007EEFAEFFB120FA7A9087F0102175F
:103D58007374F71216A1EAFEEBFF8E828F83A3A37A
:103D6800A3A3E0641E701179008E828F83A3A3E061
:103D7800FAA3E0FB120F1DE97F0102177374F61214
:103D880016A18A088B09850882850983A3A3A3A3A2
:103D9800E07034AE08AF098E828F83A3A3A3A3A3D8
:103DA800A3A31218CB8E828F83A3A3A3A3A3E0FCA3
:103DB800A3E0FD8E828F83A3A3E0FAA3E0FB120F9A
:103DC800237402121647E97F0202177374F712165A
:103DD800A1EAFEEBFF900748E0F98E828F83A3E00B
:103DE800FAA3E0FB1207A3E97F01021773C082C0A0
:103DF8008374FF121631120F7DE9C39402400B85BC
:103E080018828519837402F08009851882851983C0
:103E1800740AF0AC18AD197A01790512062FE97405
:103E280001121647D083D08202011F74F21216A124
:103E380074E81216318A088B09E9FE8C0A8D0B7C0E
:103E4800187D007900AA18AB191210FD8A0C8B0D89
:103E5800AC0CAD0D851882851983E508F0A3E5093A
:103E6800F090074AE0C0E0740212167DD0E0F090AE
:103E7800074BE0C0E0740312167DD0E0F0900CA769
:103E8800E0C0E0741712167DD0E0F0741512167DAC
:103E9800E054FEFAA3E054FFFB900CA6E0A2E0E495
:103EA80033F87900EA48F8EB49F9741512167DE8F9
:103EB800F0A3E9F0900CA6E0A2E15004D2F0800251
:103EC800C2F0741512167DE054FDFAA3E054FFFB0E
:103ED800A2F0E433F87900E828F8E933F9EA48F879
:103EE800EB49F9741512167DE8F0A3E9F0900CA6D9
:103EF800E0A2E35004D2F08002C2F0741512167DDD
:103F0800E054F7FAA3E054FFFBA2F0E433F50C7594
:103F18000D007403780C12161EEA450CF8EB450DDB
:103F2800F9741512167DE8F0A3E9F0900CA6E0A24A
:103F3800E45004D2F08002C2F0741512167DE054E9
:103F4800EFFAA3E054FFFBA2F0E433F50C750D0083
:103F58007404780C12161EEA450CF8EB450DF9743A
:103F68001512167DE8F0A3E9F0900CA6E0A2E55042
:103F780004D2F08002C2F0741512167DE054DFFA04
:103F8800A3E054FFFBA2F0E433F50C750D007405B3
:103F9800780C12161EEA450CF8EB450DF97415124B
:103FA800167DE8F0A3E9F0900CA6E0A2E25004D256
:103FB800F08002C2F0741512167DE054FBFAA3E0FB
:103FC80054FFFBA2F0E433F50C750D007402780C75
:103FD80012161EEA450CF8EB450DF9741512167DFC
:103FE800E8F0A3E9F090074BE0602A750C10750D16
:103FF80000780C1218B47C4C7D07740612167DAA42
:1040080082AB831210E574021216478A0C8B0D8559
:104018000C82850D8390075CE06011EE600E7415CC
:1040280012167DE04402F0A3E04400F090075CE043
:1040380060067801790080047800790074141216FB
:104048007DE048F0900749E0600678047900800434
:1040580078007900741412167DE048F0AC0AAD0BB4
:10406800AA18AB19120545E974181216477F0602FB
:10407800177374F71216A1EAFEEBFF750800900794
:104088005CE0600678017900800478007900E842F5
:1040980008900749E0600678047900800478007980
:1040A80000E84208A908EEFAEFFB1205FFE97F01D4
:1040B80002177374F21216A174E31216318A0C8B6C
:1040C8000DE9FF8C0A8D09742B12167DE0F5087432
:1040D800086509700A75F006EFA42422FE800875A9
:1040E800F006EFA42421FE7C1B7D007900740212E7
:1040F800168F1210FD851882851983EAF0A3EBF05C
:1041080074021216977A1BEEF9121229E9703874A4
:104118001C12167DE0C39407402D741C12167DE016
:10412800C394115022E508F50B780B1218B87403E4
:10413800121697E50AA2E0E433F9AA0CAB0D1205B2
:10414800577401121647E9741D1216477F060217A5
:104158007374F71216A1120815E97E00EEC3940ACB
:10416800505C7C0679FFC9FDC9EEF87900E875F066
:104178000EA4C8AAF075F000A42AFA75F00EE9A4F6
:104188002AF9746428FA740739FBCDF9CD12115D48
:10419800E97028EEF87900E875F00EA4C8AAF07561
:1041A800F000A42AFA75F00EE9A42AF9746428FA32
:1041B800740739FB790012081BE9F80E809E7F010D
:1041C80002177374F61216A174FD121631EAFEEB8B
:1041D800FF9007FEE0F8A3E0F9E849703975080098
:1041E80075090878081218B4750802750900780866
:1041F8001218B47508B875098478081218B47CFFC9
:104208007DFF7A017B00120671740612164790072B
:10421800FEEAF0A3EBF09007FEE0F8A3E0F9E84926
:1042280070030242E8E4F508F50978081218B47436
:10423800041216878808890978081218B4740412B9
:1042480016878808890978081218B4900800121887
:10425800CB79029007FEE0FCA3E0FDEEFAEFFB123B
:1042680007917408121647E9704A851882851983E0
:10427800E0FA7B00740112167DE0F87900E4C8F9D1
:10428800EA28F508EB39F509E508450960267808B4
:104298001218B49007FEE0F8A3E0F5838882A3A380
:1042A800A3A3E0FCA3E0FDEEFAEFFB120F237402D8
:1042B800121647E9E4F508F50978081218B49008C9
:1042C800001218CB7CFF7DFF9007FEE0FAA3E0FB0D
:1042D80012067D74041216479007FEEAF0A3EBF06D
:1042E8009007FEE0F8A3E0F9E8497004790180023C
:1042F800790074031216477F02021773C082C083C5
:104308009007FCE0F8A3E0F9E84960179007FCE0A3
:10431800FAA3E0FB12110FE9F89007FC7400F0A370
:104328007400F0900CA8740AF0D083D08202011FA8
:10433800C082C083E9900BB8F002456274F7121688
:10434800A1E99002E1F07C197D037AFF7BFF120757
:10435800A99002E274FFF0A3F0A3E4F0A3F07905BA
:104368001207379002E1E0F91206597AC17B071269
:10437800096B7F0102177374F41216A18A088B095E
:10438800EB548060309002E1E0F91211218A0A8B27
:104398000BAE0AAF0BEE4F60138E828F83E064B0D2
:1043A8007003120749EEFAEFFB12110FAA08E5098C
:1043B8006480FB80047A007B0002453174F2121697
:1043C800A174FC121631EAFEEBFFEE4F603874025E
:1043D80012167DEEF0A3EF124796ECF0A3ED12470C
:1043E80096AA82AB83120653E9F508707374121209
:1043F800167D12534AE50A450B60658E828F83123B
:104408004472EE4F700575080280557A067B0012DB
:1044180011AB8A0C8B0DA80CA90DE849700575081D
:1044280013803D88828983E412447CA3A3EEF0A321
:10443800EF1257E3E50AF0A3E50BF09002E7124507
:10444800049002E76017E0FCA3E08003EAFCEBFDC0
:104458008C828D8312450470F38C828D8312526F87
:10446800A90874041216470259E5A3A3A3A3E0FE02
:10447800A3E0FF22F0A3F0888289832274F2121647
:10448800A1890AE975F017A4FEAFF09002E6E4F0FE
:104498009002E4124504600A1211B19002E4E4F0BB
:1044A800A3F0EEFAEFFB1211AB8A088B09EA450973
:1044B800602FEEFCEFFD79001210FD9002E4E50894
:1044C800F0A3E509F07B0080081244EEE4F0A3F0C5
:1044D8000BEBC3950A40F2E50A9002E6F0790080FA
:1044E8000279130259E5EB75F017A4F8A9F09002C8
:1044F800E4E028FAA3E0398A82F58322125005EA1B
:104508004B2274F41216A17900EAA2E0501B750838
:104518005675098478081218B47C047D007ABA7B31
:104528000B12073174021216477F04021773C082F8
:10453800C0839002E7124569601C88828983A3A31F
:10454800E06A7003A3E06B8882898370E8A3A3A361
:10455800A312500180047A007B00D083D08202012C
:104568001F125AB8E8492274EE1216A174FC1216EA
:1045780031EAFEEBFF851882851983E4F0A3F0EE9B
:104588002402125253EE2405124784EE2404F50E39
:10459800EF124B69E024FE603924FC604624FE607B
:1045A8005224FE605E24FE700302468924FE7003D6
:1045B80002470124FE700302471024FE70030247DD
:1045C8001F24FC700302472E24FE700302473D029D
:1045D800477A9003007417F0A3E412479E1203D1A0
:1045E80002477A851882851983AC82AD8312074FFA
:1045F80002474A851882851983AC82AD8312075514
:1046080002474A850C08850D09740212167DAC8292
:10461800AD838508828509831250011206778A0CBA
:104628008B0DAC0CAD0DEC4D6042E4F50CF50D783E
:104638000C1218B4750C00750D03780C1218B475AB
:104648000C01750D03780C1218B4740812167D123B
:1046580018CB7916124FFB1207917408121647E906
:10466800F50C700B124FF71203E9800F750C0185DA
:10467800088285098312478C12526F850C080247FD
:104688004D740212167DAC82AD83850C82850D8334
:104698001250011206778A108B11AC10AD11EC4D37
:1046A8006043850C82850D83A3A31218CB75100077
:1046B80075110378101218B475100175110378106C
:1046C8001218B4740812167D1218CB7916124FFB03
:1046D8001207917408121647E9F509700B124FF783
:1046E8001203EF800F750901850C82850D8312472F
:1046F8008C12526F850908804C851882851983AC05
:1047080082AD8312075B803A851882851983AC8253
:10471800AD83120761802B851882851983AC82AD21
:1047280083120767801C851882851983AC82AD8344
:1047380012076D800D851882851983AC82AD8312AE
:104748000773E9F508E50860298E828F83A3E06482
:1047580014601F850E82850F83E090030012479630
:10476800125AB490030112526FE508A312479E1221
:1047780003CBEEFAEFFB1206F502515BF50CEF34B2
:1047880000F50D22125AB885188285198322F08502
:10479800188285198322F07C007D03850A82850BA7
:1047A800831250052274EE1216A174FC1216318A77
:1047B8000A8B0B8C0E8D0FEA2405F508EB3400F5F7
:1047C800097C157D0079007A007B031210FDE5084D
:1047D8002402F50CE5091247878518828519838517
:1047E800821085831178101218B485088285098390
:1047F800A3A3A3A3124CB11218B4E5082405F5101D
:10480800E5093400F51178101218B4850C82850D6D
:104818008312500B12067174061216478A108B11F8
:10482800AE10AF11E50A2402F50AE50B125256EE56
:104838004F70030249738017740212167D125001DB
:1048480088828983EAF0A3EBF0900300E004F090FB
:104858000300E0C394054003024973E4F510F51121
:1048680078101218B47510E975110278101218B47E
:104878007510EA75110278101218B4740612167DB4
:104888001218CB7910EEFCEFFD124FFB1207917452
:1048980008121647E9705E850882850983A3A3A3D9
:1048A800A3A3A3A3E0F89002E9E0687048124CB112
:1048B8001218B47CEA7D02E5082408FAE5093400F8
:1048C800FB1210F77402121647E960298E828F8353
:1048D800A3A3A3A3125001900300E0F5107402787B
:1048E8001012161E74012510F58274033511F58314
:1048F800EAF0A3EBF0740212167D8582108583110D
:1049080078101218B4740212167D1218CB850C8216
:10491800850D83125AC912067D74041216478A102F
:104928008B11AE10AF11900300E0F51075110074F3
:1049380002781012161E74002510F874033511F948
:1049480088828983A31245047003024837E8240348
:10495800F8E93400F9EE4F60030248408882898301
:1049680074FFF0A3F0900300E004F0900300E0600F
:104978000A124FF71203DD7900800B85088285093A
:1049880083125266790A02515B74EA1216A174FE08
:104998001216318C128D13EA2405F50CEB125AD33A
:1049A800124476750800750900EA2402F510EB3404
:1049B80000F51185188285198385820A85830B780D
:1049C8000A1218B4850C82850D83A3A3A3A3124BE6
:1049D800731218B4E50C2405F50AE50D1252567841
:1049E8000A1218B4850C82850D83125AC7120671F3
:1049F80074061216478A0A8B0BEA450B7003024BA2
:104A080024EA2404F50EEB124B691244768A828B51
:104A180083A3A3A3E0F985108285118312500112A4
:104A2800065FE9F5096003024B24E4F514F51578EF
:104A3800141218B47514E975150278141218B4759F
:104A480014EA75150278141218B4740612167D1239
:104A580018CB7913AC0AAD0B8510828511831250DF
:104A6800011207917408121647E9F5096003024B11
:104A7800249002E9E0F8E5087009E02402900301B7
:104A8800F08017900301E0FCE82402FAE43400FB0C
:104A9800EA6C7001EB6003024B28850882AA821237
:104AA8004CA89414124CA05073850E82850F83E095
:104AB800C0E074022A124B60D0E0F00508850E822F
:104AC800850F83A3E0C0E085080A7402250A124B0B
:104AD80060D0E0F005089002E9124B731218B47C1C
:104AE800EA7D0285080A7402250AFA74033400FB79
:104AF8001210E574021216479002E9E02508F5083D
:104B080074FF6E700374FF6F6012EE24010EEF34B1
:104B180000FFE508C3941450030249BBE50860137D
:104B2800124EEC8510828511831250011203E3792D
:104B3800008014E509700375090A851282851383BC
:104B4800EEF0A3EFF0A90974021216477F0E0217C0
:104B58007385080C7402250CF58274033400F58300
:104B6800223400F50F850E82F583221257F622743F
:104B7800EE1216A174FE1216318C0E8D0FEA240562
:104B8800F50CEB124787750B00900300E4F0F50A6B
:104B9800EA2402F508EB3400F5098049900300E0A7
:104BA800FA9002E9E0F8124CA89417124CA0400DB4
:104BB800900300E0F87416C3989002E9F0124CB123
:104BC8001218B47CEA7D0274012AFA74033400FBDB
:104BD8001210E574021216479002E9E0F8900300FB
:104BE800E028F0050AE50C2416F582E50D124B6461
:104BF800E0F8E50AC3984003024C89900300E0C33B
:104C08009416507DE50AC333F8E433F9E50C28FE21
:104C1800E50D39FF851882851983AC82AD838E82B4
:104C28008F831250011206778A108B11AC10AD11C8
:104C3800EC4D7005750B018043E4F510F511781003
:104C48001218B47510E975110278101218B475109D
:104C5800EA75110278101218B4740612167D12182B
:104C6800CB79168508828509831250011207917441
:104C780008121647E9F50B7003024BA41252628022
:104C8800107C007D03850882850983125001120378
:104C9800F5A90B740202515DE99400C365D0332273
:104CA800EA28F8E43400F9E822E0F51075110078F4
:104CB800102274EA1216A174FC1216318A0C8B0D9C
:104CC8008C128D13EA2405F50AEB1252567508006A
:104CD800750900E50A2402F510E50B3400F5117496
:104CE8000212167D85820E85830F780E1218B48500
:104CF8000A82850B83A3A3A3A31257A21218B4E5B3
:104D08000A2405F50EE50B3400F50F780E1218B4D9
:104D180085108285118312525C124FFB1206717442
:104D2800061216478A0E8B0FAE0EAF0FE50C240243
:104D3800F50EE50D3400F50F80408882898374FFF5
:104D4800F00508124B5974FFF005089002E9E0F5E8
:104D58000C750D00780C1218B47CEA7D0285080CDD
:104D68007402250CFA74033400FB1210E574021265
:104D780016479002E9E02508F508EE4F60718E822B
:104D88008F83A3A3A3E0F9850E82850F83125001B8
:104D980012065FE9F509EE2404124784E97044E439
:104DA800F514F51578141218B47514E97515027808
:104DB800141218B47514EA75150278141218B4741C
:104DC8000812167D1218CB7911EEFCEFFD850E82C4
:104DD800850F831250011207917408121647E9F5DE
:104DE800096027850C82850D83124EE212526FE509
:104DF800087003024EC8124EEC850E82850F83128E
:104E080050011203FB7900024EDD850882AA82EA6E
:104E18009002E97009E02404900301F08022E0F890
:104E2800900301E0F514E82404FCE43400FDEC658B
:104E3800147001ED70C0124CA89412124CA050B618
:104E4800850C82850D83E0C0E074022A124B60D085
:104E5800E0F00508850C82850D83A3E0C0E0124BC5
:104E680059D0E0124EFE85820C85830D780C1218FD
:104E7800B4740412167D1218CB8510828511831222
:104E88005AC912067D74041216478A0C8B0DAE0C93
:104E9800AF0D85080C7402250CF874033400F9EE84
:104EA8004F7003024D42851882851983E0888289F4
:104EB80083124EFEA3E0C0E0124B59D0E0024D50E1
:104EC800E509700375090A850A82850B83124EE28B
:104ED80012526FA9097404024B51125AB8851282F2
:104EE80085138322900301E0F5F0E5088490030020
:104EF800F07C007D0322F00508851882851983223D
:104F080074EC1216A174FE1216318A088B098C0EE5
:104F18008D0FEA2405FEEB3400FF8518828519837E
:104F2800AC82AD838E828F831250011206778A0A73
:104F38008B0BEE2418124784EA450B7003024FD2FC
:104F48001251445032851882851983125001120774
:104F5800858A108B11EA4511606B7912AC0AAD0B8A
:104F68008508828509831250018510828511831274
:104F7800169FE9F50A7058E4F50AF50B780A121835
:104F8800B48E828F83A3A3E0F50A780A1218B4EED0
:104F98002403125253780A1218B48E828F83125047
:104FA8000B1207977406121647E9F50A7021850C4B
:104FB80082850D83E0701F85088285098312500160
:104FC8001204018011750A0E8009750A018004E532
:104FD8000A6003125262850C82850D83E0600479B1
:104FE800008002A90A74021216477F0C0217737C0C
:104FF800007D03850A82850B8312500522E0FAA3FF
:10500800E0FB22E0FCA3E0FD8508828509831250BD
:10501800052274EE1216A174FE1216318A088B0945
:105028008C0C8D0DEA2405FEEB3400FF750E00850F
:105038001882851983AC82AD838E828F83125001CA
:105048001206778A0A8B0BEA450B7003025130125D
:1050580051445035851882851983125001120785ED
:105068008A0E8B0FEA450F605E7912AC0AAD0B858C
:105078000882850983125001850E82850F831216D6
:105088009FE9F50E60030251338508828509831272
:10509800534AAA0AFB1207798A108B11A810A91182
:1050A800E849701E7AFF7BFF1207798A108B11A8D6
:1050B80010A911E849606C88828983E50AF0A3E5A4
:1050C8000BF0750A008007750E0E805F050A9002C6
:1050D800E6E0FAE50AC39A504AE50A75F017A4FA19
:1050E800ABF088828983A3A3E02AFAA3E03BFB8A7A
:1050F800828B8312525CEC4D70D2750A17750B00C7
:10510800780A1218B4EEFCEFFD1210E574021216BC
:1051180047EEFCEFFD8508828509831250011204D1
:10512800078014750E098003750E01125AB0850C9C
:1051380082850D8312526FA90E024C9BE50824024A
:10514800F508E5093400F5098A828B83A3A3A3E057
:10515800A2E52274041216477F0A02177374EC1230
:1051680016A18C108D11EA2405F50CEB12478775F2
:105178000F00EA2402F50AEB125256850A82F583DB
:105188001250011207798A088B09EA45097003024F
:105198005248750E008071850C82850D83E064018C
:1051A800704F8E828F83A3A31218CB8E828F83A316
:1051B800A3A3A3E0F51275130078121218B4EE2415
:1051C80005F512EF3400F51378121218B4124FFBDC
:1051D8001207977406121647E9F50F6014850C82BA
:1051E800850D83E4F0125AB085108285118312521E
:1051F8006F7C177D007900EEFAEFFB1210FD8E82AE
:105208008F83E4F0A3F0050E9002E6E0F8E50EC304
:1052180098501EE50E75F017A4F8A9F08508828548
:105228000983A3A3125ADD12525CEC4D60030251AC
:105238009F85088285098374FFF0A3F0E50F700647
:10524800124FFB12040DA90F024FF2F50AEF3400BA
:10525800F50B22A3E0FCA3E0FD228E828F83125A75
:10526800B8850E82850F83E8F0A3E9F022C082C0DA
:10527800839002E2E06A7003A3E06B70067AE27B37
:105288000280047A007B00024562C082C0837800F5
:105298008C828D83E06A7003A3E06B7010E875F070
:1052A80003A4F8A9F0EC28FAED39FB8015088C82E4
:1052B8008D83A3A3A3E06A7003A3E06B60DF7A0089
:1052C8007B0002456274F61216A11207438A828B8C
:1052D80083E582458370067A007B008007A3A3A339
:1052E800A312500102596174F21216A1E9FE740E5C
:1052F80012167D12534A741012167D1257C28C82F0
:105308008D83E064027036A3125ABEF50CA3E0F94F
:10531800A80C74026870037429697021750C0275F1
:105328000D00780C1218B478081218B4780A1218FC
:10533800B4EEF91207BB740612164780027901020F
:1053480059E5E0F50AA3E0F50B2274E81216A174FA
:10535800FB121631E9851882851983F08A168B1796
:10536800ECFEEDFF751000741D12167D125AB47410
:105378001D12167D12526F8E828F83A3A3A3E0A203
:10538800E4502D741D12167D1250011207858A8271
:105398008B83E58245837003025793790AEEFCEF0D
:1053A800FDAA16AB1712169FE9F51060030257966F
:1053B800741F12167D1257C2742112167D12534A99
:1053C800742312167DE0F50EA3E0F50F8E828F830D
:1053D800E064026003025741A3125AB4850882852B
:1053E8000983A3858212858313EE240612478488D5
:1053F800828983E0FAA3E0F9EA2400F514E439F598
:1054080015781412193E01000028012836540700A7
:105418000228FB54032868540029325601295D5696
:105428000229FE55032932560429DC564157E50E58
:10543800450F600302573C850C82850D831257B7D0
:10544800FAE9FB8A828B83E0850A82850B831257EF
:10545800ED1218B48A828B83A3E0FCA3E00256C63F
:10546800E50E450F600302573C850A82850B83745D
:1054780001F01257CA850882850983F07C007D00F7
:105488008E828F83A3A3A3A3E02401FAA3E03400B0
:10549800FB120677EA4B60418A828B83E02402F88C
:1054A800850A82850B83E028F0EA2404F8EB3400AF
:1054B800F988828983E08512828513831257FF1247
:1054C80057ED1218B48A828B8312525BE5082403C5
:1054D800FAE5093400FB0256CB850A82850B83E086
:1054E8002404F07C047D007900AA12AB131210FD8D
:1054F800025796E50E450F600302573C1257CAFE45
:10550800A3E0FF850A82850B837404F0EE85088288
:10551800850983F0EF851282851383F074031216D0
:105528007DAC82AD83EEFAEFFB1206778A0C8B0D09
:10553800EA450D70030255DF8A828B83A3A31244C8
:1055480072740112167D85820E85830F780E1218EB
:10555800B4740512167D1218CB7CFF7DFF12067DF0
:1055680074041216478B0FEA450F7033850C828539
:105578000D831257A21218B4850C82850D83A312CD
:1055880018CB7C027D007ABE7B841204A9740412B5
:105598001647E9700A740112167D74FFF0A3F08EA5
:1055A800828F83E064027039750C02750D00780CE7
:1055B8001218B48E828F8312525BE5082404FAE530
:1055C800093400FB1210E57402121647850A828519
:1055D8000B83E024028009740112167DEEF0A3EF1C
:1055E800F0740112167D1257B3F0740112167DA3E0
:1055F8001257AB025736E50E450F600302573C853C
:105608000C82850D8312525CAA16AB171207AF8560
:105618000A82850B837402F0EA850882850983F083
:10562800851282851383EB025739E50E450F600317
:1056380002573C1257CAF8A3E0F9850A82850B8302
:105648007402F0E8850882850983F0E9851282856D
:105658001383025739850C82850D8312500112106D
:10566800DFEAFC8C82A882C3950EE4950F405FE8C0
:10567800650E7002E50F70047C0080228518828513
:105688001983E0FAE50E2AFAE50F3400FBC3EA981D
:10569800EB94005003E08005E50ECCC39CFCEC8540
:1056A8000A82850B83F08C0A750B00780A1218B4ED
:1056B800850C82850D83E0250EFCA3E0350FFDAA3D
:1056C80008AB091210E574021216470257967510B6
:1056D80007025796E50E450F705A850C82850D8393
:1056E800125AB4850A82850B83740712447E1257B6
:1056F800AB12447EA3E0851282851383F0E824026E
:10570800FAE93400FB8A828B831257AB1257DA12FC
:1057180057B3A31257E31257BCF0E82405F8E9344D
:1057280000F9888289831257BCA31257FFA3A3A349
:10573800A3F0805A75100B8055741D12167D1250F7
:10574800011207438A828B83E5824583603D125AA2
:10575800B4880C890DE8450D6031780E1218B478BC
:105768000A1218B478081218B4740612167DE0F9F3
:10577800EEFCEFFDAA16AB17850C82850D83121679
:105788009F7406121647E9F510800375100EA910CC
:1057980074051216477F10021773E0F50E750F0097
:1057A800780E22E085088285098322125809221280
:1057B8005AB8E822125809A3A322E0F508A3E0F595
:1057C8000922850C82850D83E0F8A3E0F5838882A1
:1057D800E022A3A3F08A828B83A322F088828983A4
:1057E800A3A3A3A322F08A828B831257F622E0F5A3
:1057F8000A750B00780A22F088828983A312580957
:1058080022E0850882850983A3A32274EE1216A1DB
:1058180074FE1216318A0A8B0BECFAEDFB74141223
:10582800167DE0F510A3E0F511741612167DE0FE62
:10583800741812167DE0F50EA3E0F50F8518828521
:105848001983AC82AD831206778A0C8B0DEA450D5D
:1058580060498518828519831250011207438A828C
:105868008B83E5824583602FA3A31257C2E50845C1
:10587800096024780E1218B478101218B4EEF9AC36
:105888000CAD0DAA0AAB0B85088285098312169FF9
:1058980074041216478006790E80027901024C9B27
:1058A80074F61216A174FE121631740C12167D12BB
:1058B80057B7851882851983F0740112167DE9F0AF
:1058C800E4F508F50978081218B475080278081282
:1058D80018B4740412167D85820885830978081225
:1058E80018B41207977406121647740212164780E6
:1058F8006874F71216A1EAFEEBFF89087C197D038C
:105908001207AFEA5402600BA908EEFAEFFB120681
:105918006B8002790102437A74F61216A174FF6A49
:10592800700374FF6B70168C828D83125966E4F0D5
:105938008C828D83A3A3A3125966A3801812077FB4
:105948008A088B09A808A909E849600D8882898313
:1059580074FF12447CA3A3E4F07F0202177374FF60
:10596800F0A3F08C828D83A3A32274F61216A112E1
:10597800077F8A828B83E58245836006A3A3E0FACA
:1059880080027A007B0080D174F21216A18A088BFB
:1059980009ECFEEDFF740E12167DE0F50A12077F82
:1059A8008A0C8B0DA80CA90DE8497026EEFCEFFDBA
:1059B8007AFF7BFF12077F8A0C8B0DA80CA90DE8D4
:1059C8004970047911801688828983E508F0A3E577
:1059D80009F088828983A3A3E50AF079007F06028B
:1059E800177374EE1216A1EAFEEBFF8C088D098975
:1059F8000C741412167D125AB4741612167D1250B5
:105A080001750D00E8496003025AA87402650C602C
:105A180003025AA3741212167D125ABEFCA3E0F9AF
:105A2800EC2400F50EE439F50FEAF4F8EBF4F9ECA0
:105A380058F8E50F59F9E849705CE5082406F8EDCF
:105A48003400F9880A890B8882F583125AC912072B
:105A5800AF8A108B11E50E65107004E50F651160B3
:105A680042780E1218B4850A82850B83125AC9121D
:105A780007B57402121647E9F50D7027780E12184B
:105A8800B4850882850983A3A3125AC71207C7746D
:105A980002121647800D750D808008750D0D800364
:105AA800750D0BA90D0251608E828F83125AB82290
:105AB800E0F8A3E0F922125AB888828983E022A389
:105AC800A3E0FCA3E0FDEEFAEFFB223400F50D8520
:105AD8000C82F58322E028FEA3E039FF8E828F83B3
:105AE8002274F21216A1EAFEEBFF890B7401650B12
:105AF800600E7402650B706A7901120989E9706297
:105B0800EEFAEFFB1207798A088B09EA4509604724
:105B1800750A00800B7C177D0079001210FD050ABC
:105B28009002E6E0F8E50AC3985021E50A75F017F7
