:020000040000FA
:0600000002010702216F5E
:03002B000225C7E4
:03003B000225ECAF
:030043000225771C
:030053000221E2A5
:03007B0002259FBC
:10008300021FDBE5C754F84401F5C77901220000DC
:100093000080FB120086B900030200F1E4792178A5
:1000A30008B800028004F709D8FCE479297802B87B
:1000B30000028004F709D8FCE49002817879790979
:1000C3008002F0A3D8FCD9FA7AF97B0A9001377839
:1000D3007479038015E493A3AD82AE838A828B8304
:1000E300F0A3AA82AB838D828E83D8E9D9E7758288
:1000F300187583DC7403120119758291758300747A
:100103000012011975D00075813F751881751902A8
:10011300759F00020096C09FF59FE473D09F22D085
:1001230083D082C09FE493C0E0740193C0E0740263
:1001330093F59F22FF0000B4000028002800283018
:1001430075A000A000A000A00000080008E001F0D6
:10015300001000100010001000100010005000509C
:1001630000500010001000D0070000000000000F36
:100173000001000500307507001000010081FF0039
:10018300000000FFA805C605AE05FF020202080233
:100193005000A0000000E803020685010000D98496
:1001A30002FE84010000500B02F684010000B3023A
:1001B30002FE84010000510B02F484010000C90215
:1001C30002FE84010000520B02F084010000CB0206
:1001D30002FE84010000530B02E884080000CC02F5
:1001E30002FE84010000540B02E684010000550B5B
:1001F300FF0100FF20020685010000D68402FE8471
:10020300010000B90B02E484000000000002F8843E
:100213000300001903780B780B780B780B780B78B5
:100223000B780B780B780B780B780B780B780BFA31
:100233000D120EF40D020202020202020202010D6D
:100243000000001001020685010000D38402FE8431
:10025300010000FA0B020485010000400702FE843E
:10026300010000FB0B02EA84010000348402FE84D7
:10027300010000FC0B02E084010000188402FE84EC
:10028300010000FD0B02DC84010000428302FE84B6
:10029300010000FE0B02DE840100001E8302FE84C7
:1002A300010000FF0B02FC84010000308302FE8486
:1002B300010000000C020A850100000C8302FE8489
:1002C300010000010C020085010000268402FE8467
:1002D300010000020C02FA84010000030C01E80390
:1002E300053F100AFFFFFF000130750302010600FE
:1002F30000000000000000000000000000000000FB
:100303000000000000000000000000FFFF06008066
:100313000CE8030709455F4C6F634B05125000203F
:1003230003020A00020106030207E208FF9CD21E31
:10033300F3E9C9455F4C6F636B00000000000000E8
:100343000000000000000000E0120000EC120A5759
:1003530072697465204368617200104E6F74696638
:1003630079204368617200020685010000D084028F
:10037300FE84010000130D10D883030000DE0A027F
:100383000C85010000140D02FE840100001F0D10F6
:10039300E883000000F20A02F884030000F30A0273
:1003A3000C85010000200D1201223FD1031201220E
:1003B30056D10312012287D103120122C2D10312A3
:1003C3000122ECD10312012216D2031201222DD2F3
:1003D3000312012244D2031201225BD2031201222F
:1003E30084D20312012297D203120122ADD2031247
:1003F3000122C0D203120122E7D2031201220DDE31
:100403000212012211DF0212012249DF021201222C
:100413006CDF0212012277DF021201229ADF02123D
:100423000122A9E0021201227EE102120122F9E176
:100433000212012281E202120122BCE20212012213
:10044300F3E20212012281E3021201225AE40212B0
:100453000122BAE402120122C5E40212012244E598
:100463000212012247E5021201224AE50212012289
:10047300D9E502120122DCE5021201220CE6021286
:10048300012236E60212012224E702120122D6E7F4
:1004930002120122239E031201224B9E0312012208
:1004A300799E03120122B09E031201220E9F0312B2
:1004B3000122599F03120122A49F03120122E49FE8
:1004C300031201222AA00312012258A003120122BF
:1004D30015A1031201221FA1031201222CA1031251
:1004E30001225FA1031201222BA20312012237A2D0
:1004F300031201224FA20312012259A20312012265
:1005030002D80312012210D80312012228D80312A1
:10051300012240D803120122008002120122AC8082
:1005230002120122278102120122488202120122B1
:100533008482021201222D830212012214840212E8
:100543000122788502120122CF85021201225086F0
:10055300021201224087021201228D870212012218
:10056300138802120122458802120122598A0212BB
:1005730001229B8A02120122B98A021201223C8BB8
:1005830002120122108C02120122D88C02120122C3
:10059300B9F8021201228CF90212012235FA021271
:1005A300012288FA0212012238FB02120122C4FB43
:1005B30002120122B0FC02120122DFFC021201220C
:1005C300F2FD021201223AFE021201220FFF021271
:1005D30001224BFF0212012267FF021201226C7FEC
:1005E3000012012243B00312012259B00312012267
:1005F3007FB0031201229BB103120122A5B10312A2
:100603000122DAB203120122D2B303120122FC98AF
:10061300031201222C9A031201225F9A0312012270
:10062300A99A03120122709C03120122D0D3011252
:1006330001223AD40112012299D501120122A9D52E
:1006430001120122D6D5011201222DD60112012257
:10065300D6D601120122DDD701120122A7D8011239
:10066300012207DA011201224ADA01120122EFDA2A
:10067300011201223CDB0112012262DB0112012281
:1006830070DD0112012275DD011201227ADF0112F0
:100693000122C7DF011201223AE0011201226DE0BB
:1006A300011201220FE101120122B8E1011201221C
:1006B300F0E101120122F3E1011201223BE20112F6
:1006C30001227BE201120122D2E20112012240C384
:1006D3000312012258C303120122A0C303120122F1
:1006E300B6C303120122FDC30312012211C5031273
:1006F30001229EC503120122E9C503120122984378
:1007030000120122A44300120122DF43001201223E
:10071300244400120122E444001201226A4500121B
:100723000122964500120122CF45001201220D48F5
:1007330000120122F14900120122D74B00120122BB
:100743001A4D00120122684F001201227A50001242
:100753000122C55100120122D55200120122F25288
:10076300001201222D53001201224F5300120122C5
:10077300B2530012012273580012012208590012C9
:100783000122595900120122805900120122D25923
:1007930000120122F059001201224A5A00120122CA
:1007A300495B00120122CD5B00120122E0A2031279
:1007B3000122EAA2031201222DA30312012248A35C
:1007C30003120122D8A30312012200A4031201225F
:1007D3003DA40312012274A4031201229DA4031257
:1007E300012212A50312012227A5031201223CA50F
:1007F300031201226DA50312012281A50312012216
:10080300A6A503120122E0A5031201220CA60312DE
:10081300012244A603120122C3A6031201220CA73C
:100823000312012236A70312012261A70312012238
:10083300D8D503120122F3C60212012221C70212E4
:1008430001226FC8021201224FC9021201226EC98E
:1008530002120122EBC9021201222ECA0212012244
:1008630084CB0212012245CC02120122CCCE021209
:1008730001226DCF0212012263D00212012260D144
:1008830002120122BAD20212012245D3021201221C
:1008930084FE01120122EDFE0112012241FF011229
:1008A300012268FF0112012299FF0112012289A787
:1008B30003120122F6A7031201223DA8031201220B
:1008C30055A90312012251AA0312012234AB0312C8
:1008D300012247E80212012289E8021201225BE9A0
:1008E3000212012234EA021201222EEB0212012229
:1008F30010EC0212012279EC021201222FED0212F6
:100903000122A3ED021201220FEE0212012238EEA0
:1009130002120122B2EE021201224BEF0212012255
:10092300B0EF02120122C5EF021201220BF00212F4
:10093300012224F00212012289F0021201228CF01A
:10094300021201226EBD0312012296BD031201227F
:10095300D4BD0312012292BE03120122F9BE031277
:10096300012215BF031201223DBF031201226DBFF5
:10097300031201227CBF03120122F9BF03120122D9
:100983001FC003120122BFE3011201229DE50112E0
:100993000122CFE7011201220BE80112012238E8FC
:1009A3000112012222E9011201226DE90112012241
:1009B300B8E901120122CAE9011201220AEA01126D
:1009C30001223FEA011201228DEA01120122BCEA4F
:1009D30001120122DFEA011201222CEB0112012292
:1009E300B1EB01120122CBED011201220AF0011237
:1009F30001224BF001120122EDF1011201222EF22C
:100A030001120122A1F201120122F7F201120122C5
:100A130021F301120122DEB902120122DCBA021211
:100A2300012275C10212012296C30212012261C57D
:100A330002120122C9C602120122345C00120122F1
:100A4300E35C00120122295D00120122695E00129B
:100A53000122FF5F001201227960001201229460DB
:100A6300001201220F6100120122696200120122A9
:100A7300C96300120122CF64001201223066001202
:100A83000122496600120122A7660012012295671E
:100A930000120122C86700120122386800120122E5
:100AA300B26800120122FC6800120122C66900121A
:100AB30001229B6A001201227A6B00120122056C4B
:100AC30000120122736C00120122E76C0012012252
:100AD300126D00120122D16D00120122366F001235
:100AE3000122536F00120122726F00120122637000
:100AF30000120122887000120122B270001201223A
:100B03002D7100120122877100120122F07200126E
:100B130001229E7300120122DF73001201225D9DE8
:100B230002120122AB9D02120122B79D0212012281
:100B3300959E02120122C69E02120122F79E021204
:100B43000122779F02120122F59F021201222DA09A
:100B5300021201227FA002120122BCA00212012272
:100B6300D9A202120122FFA402120122EAA6021252
:100B73000122D4A802120122F07F001201221D9A41
:100B8300011201224D9A0112012226A10112012212
:100B9300ABA201120122A8A80112012290A90112FD
:100BA3000122CDA901120122F0A90112012221AAD9
:100BB300011201222AAA0112012234AA01120122DE
:100BC30022AB0112012218AC011201220E8501127F
:100BD30001220D89011201221389011201224E9073
:100BE3000112012267950112012226B70312012285
:100BF30020B80312012294B803120122D2B80312BF
:100C0300012246B903120122BFB903120122C8B956
:100C130003120122D4B903120122E9B903120122FA
:100C230027BA031201223DBA03120122F6AB0312C3
:100C3300012203AC031201221DAC031201225CAC9E
:100C4300031201229AAC03120122FFAC0312012208
:100C530014AD031201221FAD031201222CAD0312A6
:100C6300012243AD0312012251AD031201225CADF7
:100C73000312012268AD0312012277AD0312012290
:100C830082AD03120122A5AD031201224CAE031261
:100C930001225CAE0312012276AE0312012293AE4F
:100CA30003120122AFAE03120122D4AE03120122BA
:100CB300DFAE03120122F4AE0312012208AF0312C6
:100CC300012269AF031201226FAF0312012275AF34
:100CD300031201227BAF0312012293AF03120122FD
:100CE300C6AF03120122B4AB0212012238AC0212C6
:100CF3000122E7AC0212012246AE0212012267B0C2
:100D03000212012253B10212012288B102120122FE
:100D1300AAB10212012259B20212012251B40212E3
:100D230001227AB4021201220CB5021201223EB54D
:100D3300021201224BB502120122A2B502120122B4
:100D4300C8B50212012235B80212012238B90212C3
:100D5300012290B902120122F18E02120122FB8FAD
:100D630002120122E29002120122EC9002120122ED
:100D73000E91021201221A9102120122B39202125F
:100D83000122E29202120122FE93021201225794DF
:100D930002120122BD95021201229C960212012227
:100DA300F89602120122659702120122A0970212FD
:100DB3000122DF9702120122989A02120122B29AAB
:100DC300021201223E9B021201224C9B02120122BB
:100DD300A59B02120122B39B02120122269C02123E
:100DE30001228A9C02120122D49C0212012256F390
:100DF3000112012278F3011201229EF50112012250
:100E0300B3F801120122CBF9011201227EFA011279
:100E1300012260FB01120122F9D2031201221ED327
:100E23000312012290D30312012200800312012234
:100E3300098003120122128003120122E9800312A6
:100E430001229A8203120122D082031201220A8311
:100E5300031201224083031201227A830312012227
:100E6300AE8303120122DA830312012223840312C5
:100E730001225D8403120122A68403120122FE844F
:100E8300031201223385031201228E8503120122EC
:100E9300C885031201221986031201224F86031209
:100EA3000122898603120122B78603120122DA8600
:100EB30003120122AED903120122DAD9031201224D
:100EC30035DA031201223FDA031201224FDA031249
:100ED3000122DB8D03120122008E03120122388EC0
:100EE30003120122FCDA03120122702600120122EE
:100EF300822900120122362B00120122DB2B001261
:100F030001227E2C00120122352D00120122642DB4
:100F130000120122203200120122B23200120122F9
:100F2300EE33001201225634001201220A35001258
:100F33000122C03700120122FA370012012264385D
:100F430000120122C138001201221E3900120122AF
:100F53007B3900120122663A00120122AC3A0012D8
:100F63000122F73A001201221A3B001201225D3CD2
:100F730000120122713C001201227A3D001201226B
:100F8300B93D00120122E53D00120122343E001258
:100F93000122553E00120122933E00120122DA4043
:100FA300001201221B4100120122B9410012012249
:100FB3002B4200120122644300120122F9DC0312C6
:100FC300012267C00312012232C303120122DFFF91
:100FD30001120122D9D803120122E9D803120122F6
:100FE30003D903120122A0D9031201226DBA0312FD
:100FF300012211BB0312012253BD03120122F1D6B8
:101003000312012218D7031201227BD703120122F4
:10101300CED703120122ABC803120122D0C8031298
:101023000122F5C8031201221DC9031201224DC971
:1010330003120122E3C9031201220BCA0312012284
:101043007A8703120122778903120122FD89031291
:101053000122028B03120122C68B03120122448C4C
:1010630003120122278D031201222A8D031201226A
:10107300388D03120122558D031201227E8D031236
:101083000122A78D03120122B58D03120122CD8DFA
:101093000312012266CD031201228FCD0312012216
:1010A300B9CD0312012278CE0312012298CE031286
:1010B3000122F6CE031201220F74001201222474BE
:1010C30000120122807400120122EB74001201222B
:1010D3003375001201229D7500120122C67500129C
:1010E3000122A37900120122B17900120122137A9D
:1010F30000120122517A001201226C7A001201229D
:10110300077B00120122AC7B001201222F7C00120C
:101113000122687C00120122F37C001201224A7D25
:1011230000120122A87D00120122BA7D00120122C1
:10113300E07D00120122E97D00120122387F0012B6
:1011430001225FCF03120122C6CF0312012271D005
:1011530003120122E7D003120122DCB3031201229E
:101163000FB4031201220DB5031201225FB603125D
:1011730001229ED4031201227CD50312012213C63D
:101183000312012258C6031201229EC60312012232
:1011930067C80312012296DB03120122B1DB03129B
:1011A3000122C1DB0312012259DA03120122C6D341
:1011B30002120122A2D402120122E9D40212012254
:1011C30026D50212012294D502120122EED5021273
:1011D30001225ED6021201222ED7021201221DD84D
:1011E30002120122A1D8021201223DDA02120122C7
:1011F300C8DA0212012258DB02120122F1DB0212C9
:10120300012208DC021201223BDD0212012291DDE0
:1012130002120122B0F002120122D0F002120122C6
:1012230046F20212012294F202120122B4F20212D5
:1012330001221CF3021201229EF302120122E4F3A3
:101243000212012270F40212012230AE01120122B5
:10125300D7B201120122C8B501120122F1B5011260
:1012630001221AB601120122CCB601120122ABB837
:1012730001120122FDB90112012249BF011201220B
:1012830082BF01120122C6BF01120122D2C0011284
:10129300012237CB0312012246CB03120122BECB1C
:1012A3000312012256CC0312012275CC0312012230
:1012B30090CC03120122B0CC0312012290C101127F
:1012C300012277C201120122ABC401120122E8C438
:1012D30001120122B7C501120122CAC5011201225E
:1012E300F5C50112012202C70112012292C70112A0
:1012F300012274D3011201228F9303120122DF937F
:1013030003120122FC9303120122549403120122BB
:10131300D69503120122BF9803120122A4DC031203
:1013230001226DDC03120122D0DC03120122DCFF57
:1013330002E066701008A3E066700A08A3E0667016
:101343000408A3E06622C3E7960809E7960809E7BD
:10135300960809E79622C3E09608A3E09608A3E05F
:101363009608A3E09622C008C3E096F50808A3E018
:1013730096420808A3E096420808A3E09645087041
:1013830001D3D00822080808EAC0E0EBC0E086F0E9
:10139300E7A4FA180986F0E7A42AFA180986F0E701
:1013A300A42AFA180986F0E7A42AFA1986F0E7A412
:1013B300FBE5F02AFA190886F0E7A42BFBE5F03ADF
:1013C300FA190886F0E7A42BFBE5F03AFA18180996
:1013D30086F0E7A4C5F02BFBE43AFA1908E7C5F059
:1013E300C6A426F6E5F03BFBE43AFA1886F0E7A438
:1013F300F6E5F00826F6E43B08F6E43A08F6D0E012
:10140300FBD0E0FA22E4CFC0E0E4CEC0E0E4CDC0FC
:10141300E0E4CCC0E075F020E626F608E633F608F3
:10142300E633F608E633F6181818EC33FCED33FD13
:10143300EE33FEEF33FFC3EC9709ED9709EE9709FF
:10144300EF97191919400FFFEC97FC09ED97FD0968
:10145300EE97FE191906D5F0BFECF709EDF709EE83
:10146300F709EFF7191919D0E0FCD0E0FDD0E0FE41
:10147300D0E0FF226016080808C6C313C618C613B7
:10148300C618C613C618C613C6D5E0EA22700908E3
:101493000808226016181818C6C333C608C633C610
:1014A30008C633C608C633C6D5E0EA22E627F608DF
:1014B30009E637F60809E637F60809E637F622E0C3
:1014C30026F608A3E036F608A3E036F608A3E036CE
:1014D300F622E026F008A3E036F008A3E036F00891
:1014E300A3E036F022C3E697F60809E697F6080963
:1014F300E697F60809E697F622C3E096F008A3E01C
:1015030096F008A3E096F008A3E096F022E657F6DB
:101513000809E657F60809E657F60809E657F622DA
:10152300E056F608A3E056F608A3E056F608A3E053
:1015330056F622E056F008A3E056F008A3E056F072
:1015430008A3E056F022E0F608A3E0F608A3E0F6CD
:1015530008A3E0F622E6F008A3E6F008A3E6F00805
:10156300A3E6F022E0FAA3E0FBA3E0FCA3E0FD2264
:10157300EAF0A3EBF0A3ECF0A3EDF022E0F8A3E094
:10158300F9A3E0FAA3E0FB22E8F0A3E9F0A3EAF071
:10159300A3EBF022CAC0E0E6F0A308DAFAD0E0FA3F
:1015A30022CAC0E0E0A3C582CCC582C583CDC58372
:1015B300F0A3C582CCC582C583CDC583DAE6D0E06E
:1015C300CA22C3E498F8E499F91216068026C3E404
:1015D3009AFAE49BFBE920E7E9121606E498F8E49B
:1015E30099F922C3E498F8E499F9121606E498F8F5
:1015F300E499F9C3E49AFAE49BFB22EB20E7CFE9F1
:1016030020E7E0B90010BB0008E88AF084F8AAF0EC
:1016130022E4FBC8FA22EB70227B10C833C8C9331B
:10162300C9335007C39AC3DBF280069A50012ADB01
:10163300EAC833F4C8C933F4C9FA2275F008E4C818
:1016430033C8C933C933C99AC99B5004C92AC93B92
:10165300D5F0ECFBC833F4C8E4C9FA22600D08C620
:10166300A2E713C618C613C6D5E0F322600C08C65A
:10167300C313C618C613C6D5E0F422700422600D46
:1016830018C6C333C608C633C6D5E0F418222518D6
:1016930010AF08F518400C15198008F5184002150D
:1016A30019D2AF2200C0D0251810AF08F518500C7E
:1016B30005198008F51850020519D2AFD0D022259C
:1016C30018F58210AF08F518400C15198008F518A5
:1016D30040021519D2AF851983222518F582E43506
:1016E30019F583222518F8E43519F9222518FAE4A7
:1016F3003519FB222518FCE43519FD22E47325185E
:10170300C582C0E0E51934FFC583C0E0E518C39581
:101713008224F810AF088583198582188008858391
:1017230019858218D2AFCEF0A3E520F0A37808E69E
:1017330008F0A3DEFAEFF0A3E58124FAF8E608F057
:10174300A3E608F0A3E608F0A30808E608F0A3E67A
:1017530008F0A315811581D0E0FED0E0F8158115BE
:10176300811581E8C0E0EEC0E0222518C582C0E003
:10177300E51934FFC583C0E0E518C3958224F91049
:10178300AF08858319858218800885831985821897
:10179300D2AFCEF0A3E520F0A37808E608F0A3DEED
:1017A300FAEFF0A3E58124FBF8E608F0A3E608F0DE
:1017B300A30808E608F0A3E608F0A315811581D075
:1017C300E0FED0E0F815811581E8C0E0EEC0E0222C
:1017D300851983851882E0A3FEE0A3F5207808E04D
:1017E300A3F608DFFAE0A3FFE0A3C0E0E0A3C0E0B4
:1017F300E0A3C0E0E0A3C0E0E0A3C0E010AF088531
:1018030082188583198008858218858319D2AFD001
:1018130083D08202011F851983851882E0A3FEE02D
:10182300A3F5207808E0A3F608DFFAE0A3FFE0A31E
:10183300C0E0E0A3C0E0E0A3C0E0E0A3C0E010AFDD
:10184300088582188583198008858218858319D2B3
:10185300AFD083D08222C0D02518C582C0E0E5195D
:1018630034FFC583C0E0E518C3958224F310AF08A5
:101873008583198582188008858319858218D2AFDC
:10188300C8F0A3E9F0A3EAF0A3EBF0A37908E70912
:10189300F0A3D8FAECF0A3EDF0A3EEF0A3EFF0A3DE
:1018A300D0E0F0A3D0E0F0A3D0E0F0A3E520F0A3D4
:1018B300E5F0F0A322851983851882E0C0E0A3E058
:1018C300F9A3E0FAA3E0FBA37808E0F608A3DFFAA4
:1018D300E0FCA3E0FDA3E0FEA3E0FFA3E0C0E0A3E0
:1018E300E0C0E0A3E0F5D0A3E0F520A3E0A3F5F08A
:1018F30010AF08858319858218800885831985822E
:1019030018D2AFD082D083D0E0F8D0E03274048014
:1019130006740280027401C0E0F4041216C2D0E01F
:10192300121597227404800474028000CCC0E0ED89
:10193300C0E0E518C39CCCAD1950011D10AF068C57
:10194300188D1980068C188D19D2AF1215A4D0E00A
:10195300FDD0E0FC22D083D082E9C0E0E493A3C3AE
:1019630086F0C5F095F0F908E493A386F0C5F095E9
:10197300F0700BE493A3C3994005E9048002A3E448
:1019830075F002A42582F582E5F03583F583D0E076
:10199300F9E493A3C0E0E493C0E022D083D082ECC7
:1019A300C0E0EDC0E0E493A3FCE493A3FDED4C6041
:1019B3000D1219EAEC24FFFCED34FFFD80EFE493F4
:1019C300A3FCE493A3FDED4C600D121A29EC24FF54
:1019D300FCED34FFFD80EFD0E0FDD0E0FCE493A309
:1019E300C0E0E493C0E022C0E0C3E493960874012E
:1019F300939618400FE49366700808740193661871
:101A030070007019A3A3C3E4939608740193961806
:101A1300A3A3400DD0E0D0E0D0E00219DAA3A3A342
:101A2300A3A3A3D0E022C0E0C0F088F0E4936670E3
:101A3300080874019366187000A8F0A3A3700BD074
:101A4300F0D0E0D0E0D0E00219DAA3A3D0F0D0E0E8
:101A53002274F512176DEAFEEBFFEE2434F8EF342F
:101A630000F988088909EE2435F582EF3400F583FF
:101A7300E0F8EE2437F582EF3400F583E0F50AEC65
:101A8300850AF0A4FCAAF0850AF0EDA42AFDE82C4F
:101A9300F8E43DF97A257B00121606EA850882856B
:101AA3000983F0F8740758F97401B900028004C37C
:101AB30033D9FCFAE8131313541FF8EE28F8EF3464
:101AC30000F9E8245DF582E93400F583E05A600803
:101AD300EE2434F582EF802CEE2434F582EF3400CB
:101AE300F583E0C0E0EE2436F582EF3400F583E0C1
:101AF300F5F0D0E084A8F0EE28F8EF3400F9E824FC
:101B030038F582E93400F583E0F97F04021819748B
:101B1300F512176DEAFEEBFFEE2434F582EF340085
:101B2300F583E0C0E0EE2435F582EF3400F583D091
:101B3300E0F08E828F83A3A3A3A3A3A3A3C082C039
:101B4300838E828F83A3A3A3A3A3E0F8A3E0F9D09A
:101B530083D082E0C398F508A3E099F509EE247FCA
:101B6300F582EF3400F583E064017069EE2480F5BB
:101B730082EF3400F583E0F8A3E0F98E828F83A32C
:101B8300A3A3A3A3A3A3E0FCA3E0FD8E828F83A35F
:101B9300A3A3A3A3E0FAA3E0FBC3EA9CEB9D50102D
:101BA300C3EC98ED99402EC3EA98EB995027800E29
:101BB300C3EA98EB994007C3EC98ED9940177CDC96
:101BC3007D04EEFAEFFB120AD0EE247FF582EF34A8
:101BD30000F583E4F0EE2434F8EF3400F9E8FCE98F
:101BE300FDEE2435F582EF3400F583E0F8EE24377B
:101BF300F582EF3400F583E0F50AE508850AF0A4E1
:101C0300F508AAF0850AF0E509A42AF509E82508EC
:101C1300F8E43509F97A257B00121606EA8C828DE1
:101C230083F0F8740758F97401B900028004C333D0
:101C3300D9FCFAE8131313541FF8EE28F8EF340015
:101C4300F9E8245DF582E93400F583E05A6008EE93
:101C53002434F582EF802CEE2434F582EF3400F542
:101C630083E0C0E0EE2436F582EF3400F583E0F53F
:101C7300F0D0E084A8F0EE28F8EF3400F9E8243837
:101C8300F582E93400F583E0F9122569021B0DC0E2
:101C930082C083851882851983E0F8A3E0F9C3EA3B
:101CA3009CEB9D5010C3EC98ED99401BC3EA98EB55
:101CB300995014800EC3EA98EB994007C3EC98ED52
:101CC300994004790180027900D083D08222EAC34B
:101CD3009CFAEB9DFB2274EF12176D9003A2E06454
:101CE300086005E06407702A9061C8E060249003EF
:101CF300D0E0F4601DE0F875F003A4C8AAF02AF957
:101D030074D228FE740339FF8E828F83A3A3A3E0CA
:101D13007003021E09906060E0C0E0EE2468F58263
:101D2300EF3400F583D0E0F0750C45750D057508AB
:101D330000750900E5D914F50AE5D95403F50E60D9
:101D4300177403650E605CE50A6010EE2467F58284
:101D5300EF3400F583E07003021DEE900540E0646C
:101D630001602AEE2482F582EF3400F583E06004FB
:101D7300780480027800850A08E508C398FA95E09C
:101D8300FB1209988A088B09EA45097005120CC8E9
:101D93008074EE2482F582EF3400F583E070048AC8
:101DA3000C8B0DE50A6012850C82850D83F50BE51E
:101DB300D9F0A3150BE50B70F6EE2482F582EF3410
:101DC30000F583E0604474FC250AF50A780C1219C7
:101DD30014AC0AA90EEEFAEFFB120B727402121680
:101DE300A7E97026AA08AB09121148793D8E828FA4
:101DF30083A3A3A3A3E0FA7B0012086CEEFAEFFB24
:101E0300120AE8120B84790080747403650E60561D
:101E1300850A107511007810121914AC0CAD0DAAB7
:101E230008AB09120B4E74021216A7EE2468F58252
:101E3300EF3400F583E064807004747F8001E0F583
:101E43000C780C121918E50EF50C780C121918A958
:101E53000AAC08AD099003D0E0FA7B001208307495
:101E6300021216A780139003A2E06408600BAC0C67
:101E7300AD0DEEFAEFFB120BDE120CD479017F0AE3
:101E830002181974F512176D74FC121691EAFEEB21
:101E9300FF8908A2AFE433F509C2AF806AEE246379
:101EA300F8EF3400F97A007B00A2AFE433F50AC2FD
:101EB300AF88828983E0FCA3E0FDEC4D603A888221
:101EC3008983E0FAA3E0FB8A828B83E0FCA3E0FD35
:101ED30088828983ECF0A3EDF08A828B83E4F0A3FC
:101EE300F088828983E0FCA3E0FDEC4D700A8882D0
:101EF3008983A3A3E4F0A3F0E50AA2E092AF121151
:101F0300489004E3E004F0EE2463F582EF3400F537
:101F130083E0F8A3E0F9E849603DEE2463F582EF3E
:101F23003400F583E02402FAA3E03400FBEA240240
:101F3300F50AEB3400F50B780A1219148A828B83A5
:101F4300E0FCA3E0F9EEFAEFFB120B0C740212169D
:101F5300A7E97003021EA09004E3E060639004E429
:101F6300E0F89004E3E0C398500C740265087050E5
:101F73009004E5E0604A8E828F83A3A3A3A3E08548
:101F83001882851983F0A3E4F09004E3E0F8740267
:101F93001216DDE8F0A3E4F09004E3E0F89004E225
:101FA300E028F074021216DDAC82AD8385188285B9
:101FB3001983AA82AB83790112083C9004E3E4F00D
:101FC300E509A2E092AF74041216A7021B0D0000EC
:101FD300008521878522C622C0E0C0D0E8C0E0E9A1
:101FE300C0E0EAC0E0EBC0E0ECC0E0EDC0E0EEC072
:101FF300E0C008C009C00AC00BC082C083C0F0A201
:10200300AFE433FEC2AF759B00906182E0A2E05063
:1020130012E591A2E0500C7591FE740165217003E5
:10202300121CD9E0A2E55051E591A2E5504B759100
:10203300DF9003A2E064076005E064087023740185
:102043006521703579019003D0E0FA75F003A4CAD5
:10205300A8F028FB74D22AFA74033BFB121E868075
:1020630018E0640D70139003C4E004F06428700258
:10207300E4F07A00E0F9120CDA906182E0A2E64023
:1020830003022122E591A2E640030221227591BFBA
:102093009003A2E064057008120C08120C1480036C
:1020A300120C0E752100120C68E99003A3F079005D
:1020B300120C5C120A467A017B009003A1E0F9122C
:1020C3001118907803E064427055900544E014F0D1
:1020D300704DC2AF1220DA00782AD0E0F618D0E0B3
:1020E300F6E59F540770057509FF800375097FC4E2
:1020F300C0E07829E6F50808E65509F509740B7878
:102103000812166FD0E02508F8906270E0A2E7404D
:10211300F8E8C333906272F0906270E0D2E0F0901E
:102123006181E0A2E35009E5E9A2E3500375E9F711
:10213300A3E0A2E75009E591A2E7500375917FEE72
:10214300A2E092AFD0F0D083D082D00BD00AD009D6
:10215300D008D0E0FED0E0FDD0E0FCD0E0FBD0E042
:10216300FAD0E0F9D0E0F8D0D0D0E032C0E0C0D06F
:10217300C082C083906183E0A2E05009E5BFA2E082
:10218300500375BFFEE0A2E15009E5BFA2E1500391
:1021930075BFFDE0A2E25009E5BFA2E2500375BF9F
:1021A300FBE0A2E35009E5BFA2E3500375BFF7E0EC
:1021B300A2E45009E5BFA2E4500375BFEFE0A2E536
:1021C3005009E5BFA2E5500375BFDFE0A2E6500961
:1021D300E5BFA2E6500375BFBFD083D0828088C01D
:1021E300E0C0D0E8C0E0E9C0E0EAC0E0EBC0E0EC6A
:1021F300C0E0EDC0E0C0F0E5A7A2E6500FE5A1A264
:10220300E6500953A7BF75A1BF122247E5A7A2E570
:10221300500CE5A1A2E5500653A7DF75A1DFE5A7A2
:10222300A2E15009E5A1A2E1500375A1FDE5A7A232
:10223300E2500CE5A1A2E2500653A7FB75A1FBD027
:10224300F002215874F812176D7521019003A2E072
:1022530064067015120BA28A828B83A3A3A3A3A384
:10226300A3E0FAA3E0FB120BF6A2AFE433FED2AF76
:102273009003A8E0640170187A207B009003A1E02A
:10228300F91212387A207B009003A1E0F912111E93
:10229300906182E0D2E6F0900541E0602185C6229C
:1022A30080169003A7E064017008E5C654F844055E
:1022B300F5C653BEFC121FD47401652160E4EEA27F
:1022C300E092AF7F01021819008E238F24858228A4
:1022D300858327851882851983E0CEA3E0CF8528DF
:1022E30082852783EBC9EAC8EDCBECCA75F010C32E
:1022F300E833C8E933C9EA33CAEB33CBC3EA9EF503
:1023030026EB9FF525B35004AB25AA26EC33CCED81
:1023130033CDD5F0DAAE23AF242274ED12176D8AD4
:10232300088B098C0A8D0B74131216DD780C1215A9
:10233300497808790C1213497510017511C8751283
:102343000075130050127808790C1214E87810798C
:102353000812134950168010780C79081214E87883
:1023630010790C12134940047901800279007F0C23
:1023730002181974ED12176D8A088B098C0A8D0BDC
:1023830074131216DD780C121549780C79081213A0
:102393004940117808790C1214E8AA08AB09AC0A71
:1023A300AD0B8022751000751100751200751301B5
:1023B3007810790C1214E8781079081214AFAA1067
:1023C300AB11AC12AD1380A68A828B837508FF759F
:1023D30009FF750AFF750B0078081215367F040292
:1023E300181974F512176D8C828D837808121549AC
:1023F3008A828B8378081214FCEA2404F8EB3400F5
:10240300F98C828D83A3A3A3A3E0FCA3E0FD8882C0
:102413008983C3E09CF0A3E09DF088828983C3E0B5
:102423009420A3E0944E40268A828B837508FF751F
:1024330009FF750AFF750BFF78081214D58A828B82
:1024430083A3A3A3A3E02420F0A3E0344EF002234C
:10245300CB74F512176DE9FE9004F7E0FAA3E0FBE5
:10246300EEC333F8E433F9748828F582748339F5BD
:1024730083E02AF508A3E03BF50978081219147ADA
:10248300407B427C0F7D001222CC74021216A78A75
:10249300088B098C0A8D0B74107808121477AA081C
:1024A300AB097F0402181974F112176D8A0C8B0D96
:1024B3008C0E8D0F740F1216DDE0FAA3E0FB74117E
:1024C3001216DDE0F508A3E0F5097808121914EAFD
:1024D3002401F508EB3400F509E4F50AF50B780C53
:1024E3007908121388750871750902780C79081236
:1024F3001388AA0CAB0DAC0EAD0F1222CC740212D2
:1025030016A78B09EA450960047A0180027A00EC78
:102513002AFCED3400FD74131216DDE0F8A3E0F994
:10252300E8FEE9FFECF8EDF97A717B0212160688F2
:102533000889098E828F837808121558ECF8EDF913
:102543007A717B021216068A088B097405780812C1
:10255300167E8E828F83A3A3A3A3E508F0A3E509C8
:10256300F07F08021819C082C083E9906000F0D0A0
:1025730083D08222C0E074F2121859A2AFE433FE72
:10258300D2AFC2C0E5D1A2E4500653D1EF12108EF0
:10259300EEF8EEA2E092AF7F010218B8C0E074F249
:1025A300121859A2AFE433FED2AFE58AA2E3500377
:1025B300121010758A00C2EBEEF8EEA2E092AF7F24
:1025C300010218B8C0E0C0D0E8C0E0E9C0E0A2AFA3
:1025D300E433F8D2AFC2C7E8F9E8A2E092AFD0E0A3
:1025E300F9D0E0F8D0D0D0E032C0E0C0D0E8C0E00D
:1025F300E9C0E0EAC0E0C082C083A2AFE433FAD20C
:10260300AF9009B5E0F89009B6E068700B539AFBF8
:102613009009B77401F0802CC2E99009B5E0F87411
:1026230001289009B5F07900743528F582740939C9
:10263300F583E0F5C19009B5E0C3948040069009A5
:10264300B57400F0EAF8EAA2E092AFD083D082D06A
:10265300E0FAD0E0F9D0E0F8D0D0D0E032C2AF0257
:0326630000002252
:10266800FFFFFFFFFFFFFFFF74F012170174F8125E
:1026780016918A0E8B0FE9FF8C0C8D0D7E00850E4E
:1026880008850F0978081219580004104E29B82631
:10269800DB26FA261D27402763279427B727CE274E
:1026A800FE27AF28D228F52823294E294E29272886
:1026B80074016F7019850C82850D83E0C3940350F3
:1026C8000D850C82850D83E0900CA2F080027E18A7
:1026D80002297674026F7015850C82850D83E0F8E7
:1026E800A3E0F9900CA3E8F0A3E9F080027E1802B9
:1026F800297674016F7019850C82850D83E0C39467
:1027080002500D850C82850D83E0900749F0800208
:102718007E1802297674016F7019850C82850D83E5
:10272800E0C39405500D850C82850D83E090074A1F
:10273800F080027E1802297674016F7019850C8268
:10274800850D83E0C39402500D850C82850D83E0CE
:1027580090074BF080027E1802297674106F70275C
:102768007508107509007808121914AC0CAD0D7AAB
:102778004C7B071210BE74021216A78A088B0985B3
:10278800088285098380027E1802297674016F7099
:1027980019850C82850D83E0C39402500D850C8247
:1027A800850D83E090075CF080027E18022976741C
:1027B800016F700D850C82850D83E0900CA6F0806A
:1027C800027E1802297674046F70269084A878080F
:1027D800121549850C82850D8378081213595011FA
:1027E800850C82850D8312157F90075E12158B80EC
:1027F800027E18022976EF70211205F6E97013128D
:102808000F62E9F509795012120EE9F508120F5016
:10281800800A9007F17401F080027E18022976740C
:10282800076F707E750806750900780812191485F7
:102838000C82850D83A3AC82AD8374041216EF124B
:1028480010C474021216A7851882851983EAF0A3AA
:10285800EBF07C007D0074021216EF850C82850D6A
:1028680083E0F9120EF6E9F50AE50AC3940A502E38
:102878001205F6E97015A90A120F68E9F5097950E9
:1028880012120EE9F508120F508019A80A7900747F
:10289800F228F582740739F5837401F080067E0208
:1028A80080027E1802297674016F7019850C828562
:1028B8000D83E0C39402500D850C82850D83E09052
:1028C800075DF080027E1802297674016F70198501
:1028D8000C82850D83E0C3940A500D850C82850D0A
:1028E80083E0900CA5F080027E1802297674016FAF
:1028F8007025850C82850D83E0C394074019850CEB
:1029080082850D83E0C39411500D850C82850D835B
:10291800E0900CA7F080577E18805374016F7022E6
:102928009007F0E0F508850C82850D83E09007F0AC
:10293800F0E50870399007F0E064017031120F502B
:10294800802C7E188028C3E50E9427E50F9400504C
:102958001B74026F7016850C82850D83E0FCA3E062
:10296800FDAA0EAB0F120494E9FE80027E02EEF976
:1029780074081216A77F080217D374F0121701748F
:10298800D7121691E9C0E0851882851983D0E0F046
:1029980074011216DDEAF0A3EBF08C0E8D0F908413
:1029A8009A74031216F774061215A474031216F714
:1029B80074011216DDE0FAA3E0FB851882851983FD
:1029C800E0F9120EF6E9FEEEC3940A4003022B1159
:1029D800EEF9120F32E9FF900CA2E0640270047461
:1029E8000180027400F5087808121918743A121652
:1029F800DDE0FDEFFCEEF9AA0EAB0F120FA4740197
:102A08001216A77C147D00790074151216EF1210A7
:102A1800D68A088B0985080A85090B74151216F7DA
:102A28007A1075F006EEA42424F9121208E9703C15
:102A38007C1079FF74151216EF12113CE9702D7491
:102A4800251216DDAC82AD837A0475F006EEA42457
:102A580025F9121208E9F50874151216F7EFA2E025
:102A6800E433F9AA0EAB0F12051EE9F87409121621
:102A7800F77A0C74702EF9121208E9707974091239
:102A880016EF120F26750800E508C394045067A8CE
:102A9800087900E875F003A4C8AAF075F000A42A24
:102AA800FA75F003E9A42AF974091216DDE58228FB
:102AB800F50CE58339F50D850C82850D83E0F8A3C7
:102AC800E0F9E849602C850C82850D83A3A3E0F525
:102AD8000A750B00780A121914850C82850D83E09B
:102AE800FCA3E0FDAA0EAB0F12077C74021216A716
:102AF800E9F805088092EFA2E1500E900748E0F946
:102B0800AA0EAB0F120782E9F874391216DDE064D9
:102B180004700F900CA2E064027007AA0EAB0F12AB
:102B28000F9E790074291216A77F080217D374F232
:102B3800121701890B8A088B09ECFEEDFF750A0A4A
:102B4800E50B600B14600814604114605F807DAA77
:102B580008AB09120F44E9F50AE50AC3940A506C58
:102B6800EE4F6068750C06750D00780C121914ACE0
:102B780008AD09EEFAEFFB1210BE74021216A78A0E
:102B88000C8B0D850C82850D838041AA08AB091238
:102B98000F3EE9F50AE50AC3940A5030EE4F602C5F
:102BA800EEFAEFFBA90A120F38E98020AA08AB0950
:102BB800120F4AE9F50AE50AC3940A500FEE4F606E
:102BC8000BEEFAEFFBA90A120F38E9F8A90A7F06FB
:102BD8000217D374F21217018A0C8B0DE9FF7E15C8
:102BE80074FF650C700474FF650D702A750800E5A4
:102BF80008C3940A5014EFFC7A027B00A908120F4C
:102C080014E960027E00050880E5EF60627A8C7B3B
:102C18000F12097A8059AA0CAB0D12095C8A088B2D
:102C28000985080A85090BE50A450B60407C007D8B
:102C380000E50A2405FAE4350BFB850A82850B8337
:102C4800A3A3A3A3E0F9120EF6E9F508E508C394D7
:102C58000A500EEFFC7A027B00A908120F14E97ED5
:102C680000EF600BAA0AAB0B120F8C80027E14EEE9
:102C7800F97F060217D374F012170174FE12169129
:102C8800851882851983EAF0A3EBF08C0A8D0B7402
:102C9800121216DDE0F50EA3E0F50F7E15851882F9
:102CA800851983E064FF7004A3E064FF701D7F0052
:102CB800EFC3940A506BAC0EAD0FAA0AAB0BEFF939
:102CC800120F1AE960027E000F80E58518828519C7
:102CD80083E0FAA3E0FB12095C8A0C8B0D850C08D3
:102CE800850D09E508450960367C007D00E5082466
:102CF80005FAE43509FB850882850983A3A3A3A304
:102D0800E0F9120EF6E9FFEFC3940A5014AC0EADC9
:102D18000FAA0AAB0BEFF9120F1AE97E0080027EA8
:102D280014EEF974021216A77F080217D374F7126B
:102D38001701EAFEEBFF900762EEF0A3EFF09007B1
:102D480048E0FC7D007A267B00120494E9F508909F
:102D58000748E0F91206FE7F010217D374F2121732
:102D68000174EC1216918A0A8B0B850A82850B83F3
:102D7800A3A3E024FA70030231AC24FD70030230EF
:102D880020147003022E5414601024FD7003022FC7
:102D9800C8147003023064023214AE0AAF0B9007F5
:102DA80062E0F8A3E0F9E8496066900762E0F8A3FA
:102DB800E0F5838882E0F8A3E0F9E8496052EE2460
:102DC8000CF582E43FF583E0F5087808121918EE4F
:102DD800240BF582E43FF583E0F98E828F83A3A369
:102DE800A3A3A3A3A3A3A3E0FCA3E0FDEE2403FAFB
:102DF800E43FFB900762E0F8A3E0F5838882E0F8FF
:102E0800A3E0F58388821216FF74011216A7803991
:102E18008E828F83A3A3A3A3A3A3A3A3A312192B77
:102E280090075E12156712053074021216A7E96042
:102E38001879018E828F83A3A3A3A3A3A3A3A3A31B
:102E4800E0FAA3E0FB12052AE9023214AE0AAF0B3E
:102E58008E828F83A3E06003022F768E828F83A3F6
:102E6800A3A3A3A3E0A2E04003022F769007FCE00F
:102E7800F8A3E0F9E8496003022F767C0E7D00791B
:102E880000AA18AB191210D68A088B09AA08AB0930
:102E9800EE240CF582E43FF583E0F8A3E0F9E84975
:102EA80060367508067509007808121914EE240CA6
:102EB800F582E43FF583E02410FCA3E03400FD74C0
:102EC800021216EF1210BE74021216A78A088B0996
:102ED800850882850983804F8E828F83A3A3A3E010
:102EE800FAA3E0FB12095C8A0C8B0D850C08850D92
:102EF80009E5084509602D750C06750D00780C125A
:102F08001914E5082405FCE43509FD74021216EFCE
:102F18001210BE74021216A78A0C8B0D850C8285BE
:102F28000D8380030232148E828F83A3A3A3A3A3ED
:102F3800E0A2E25004D2F08002C2F0A2F0E433F83A
:102F48007900740C1216DDE048F0A3E049F0EEFCBD
:102F5800EFFDAA18AB19120F2CE970127A027B0048
:102F6800900748E0F9121118E97900023216900723
:102F780062E0F8A3E0F9E8496043900762E0F8A34B
:102F8800E0F5838882A3A3E0F8A3E0F9E849602D7F
:102F98008E828F83A3E0FC79018E828F83A3A3A303
:102FA800E0FAA3E0FB900762E0F8A3E0F5838882EB
:102FB800A3A3E0F8A3E0F58388821216FF02321477
:102FC800AE0AAF0B900762E0F8A3E0F9E849604564
:102FD800900762E0F8A3E0F5838882A3A3E0F8A352
:102FE800E0F9E849602F850A82850B83A3E0FC7924
:102FF800028E828F83A3A3A3E0FAA3E0FB9007626B
:10300800E0F8A3E0F5838882A3A3E0F8A3E0F583C2
:1030180088821216FF023214850A08850B097C0083
:103028007D00E5082404FAE43509FB850882850952
:1030380083A3A3A3E0F9120EF6E9FEEEC3940A50A7
:1030480018E508240AFCE43509FD7A0475F006EE53
:10305800A42425F9121202E9F8023214AE0AAF0BC1
:1030680090075DE06019900CA5E0F98E828F83A32C
:10307800A3A3E0FAA3E0FB12052AE9F802321490B0
:103088000CA2E0701679058E828F83A3A3A3E0FAC1
:10309800A3E0FB12052AE9F80232148E828F83A37B
:1030A800A3A3E0FAA3E0FB12095C8A0C8B0D850C44
:1030B80008850D098E828F83A3A3A3A3A3A3A3E0EE
:1030C800A2E05072E5084509606985088285098390
:1030D800A3A3A3A3E0605F8E828F83A3A3A3A3A36C
:1030E800A3A3A3A3E0F8A3E0F9E8C4540FF8790078
:1030F800E85401F8E95400F9E8A2E04039740E12E6
:1031080016F7E5082405FAE43509FB8508828509E0
:1031180083A3A3A3A3E0F9120EF6E9701979038E2D
:10312800828F83A3A3A3E0FAA3E0FB12052AE9F8A0
:10313800023214023214EE2405FCE43FFD850882B5
:10314800850983A3A3A3A3E0F98E828F83A3A3A3F6
:10315800E0FAA3E0FB120F98900762E0F8A3E0F909
:10316800E849603E900762E0F8A3E0F5838882A30F
:10317800A3E0F8A3E0F9E84960287C0079008E8292
:103188008F83A3A3A3E0FAA3E0FB900762E0F8A370
:10319800E0F5838882A3A3E0F8A3E0F58388821290
:1031A80016FF80681205F6E970629007F1E0640185
:1031B800701A120F62E9FE9007F17400F07C0A7D24
:1031C8000079007AF27B071210D680367E00EEC3B3
:1031D800940A502EEEF8790074F228F582740739B3
:1031E800F583E064017018EEF9120F68E9FAEEF859
:1031F800790074F228F582740739F5837400F00EAB
:1032080080CC795012120EE9FE120F507901741415
:103218001216A77F060217D374F512170174F2125B
:1032280016918908EAFEEBFF8C09AC18AD197A0EE5
:1032380075F006E508A42420F9121208E9705F7CED
:103248000679FFAA18AB1912113CE97051740C12D7
:1032580016DDE0F8A3E0F9E8F50AE5096005EE42B5
:103268000A8004EEF4520AA80A7900740C1216DDDA
:10327800E0687003A3E0696021A80A7900740C1261
:1032880016DDE8F0A3E9F0AC18AD197A0E75F00672
:10329800E508A42420F9121202E9790180027900D4
:1032A800740E1216A77F030217D374F01217017455
:1032B800E612169189098A0E8B0FECFEEDFF740C4D
:1032C8001216F77A0E75F006E509A42420F91212F1
:1032D80008E960030233E27C0679FF740C1216EFEA
:1032E80012113CE960030233E2AC18AD197A0C7490
:1032F800702509F9121208E960030233DE75080027
:10330800AA18AB19120F26E50E450F702E7C0C7902
:1033180000AA18AB1912113CE960030233C47C0CF3
:103328007D007900AA18AB191210D68A0A8B0B8572
:103338000A82850B837508010233C4AC18AD19AA3B
:103348000EAB0F120F208A0C8B0D850C0A850D0B06
:10335800E50A450B7030EE4F601BAC18AD197A00CA
:103368007B00120F208A0C8B0DA80CA90D880A89E6
:103378000BE849700479008063850A82850B83E530
:103388000EF0A3E50FF0850A82850B83A3A3E0F86E
:103398007900EE687002EF696022EEC0E0850A826B
:1033A800850B83A3A3D0E0F0EE4F700D850A8285CC
:1033B8000B837400F0A37400F0750801E50860162B
:1033C800AA18AB19120F26AC18AD197A0C7470250F
:1033D80009F9121202E9790180027900741A1216A9
:1033E800A77F080217D374F7121701EAFEEBFF7ADA
:1033F80000EAC39404504EEAF87900E875F003A493
:10340800C8ABF075F000A42BFB75F003E9A42BF909
:10341800EC28F582ED39F583E06E7003A3E06F7058
:1034280021EAF87900E875F003A4C8AAF075F0005D
:10343800A42AFA75F003E9A42AF9EC28FAED39FB75
:1034480080070A80AC7A007B007F010217D374F7EB
:103458001217017C00ECC394044003023505ECF814
:103468007900E875F003A4C8ADF075F000A42DFD4F
:1034780075F003E9A42DF9EA28F582EB39F583E024
:10348800F4FEA3E0F4FFECF87900E875F003A4C8B3
:10349800ADF075F000A42DFD75F003E9A42DF9EA4F
:1034A80028F582EB39F583EEF0A3EFF0ECF879001C
:1034B800E875F003A4C8ADF075F000A42DFD75F013
:1034C80003E9A42DF9EA28F582EB39F583A3A3E0F3
:1034D800F4C0E0ECF87900E875F003A4C8ADF07525
:1034E800F000A42DFD75F003E9A42DF9EA28F58272
:1034F800EB39F583A3A3D0E0F00C02345D7F010221
:1035080017D374F012170174F4121691EAFEEBFF48
:103518008C088D099007FCE0F8A3E0F9E849702CC5
:10352800EE4F6006E5084509700579010237B6EEE9
:10353800FAEFFB120F44E9900CA8F0900CA8E0C336
:10354800940A4008120F56E9900CA8F0900CA8E0D5
:10355800C3940A40030237B49007FCE0F8A3E0F9EB
:10356800E8496003023600EEFCEFFD7A0E75F006BE
:10357800900CA8E0A42420F9121202E9F50B7C0CA7
:103588007D0079FFAA18AB191210D68A0C8B0D850D
:103598000C0E850D0FAC18AD197A0C900CA8E02410
:1035A80070F9121202E9F50A750C0E750D00780C07
:1035B800121914EEFCEFFD900CA8E0F87900E875FC
:1035C800F00EA4C8AAF075F000A42AFA75F00EE966
:1035D800A42AF9746428FA740739FB1210BE74021D
:1035E8001216A78A0C8B0DA80CA90D9007FCE508EC
:1035F800F0A3E509F00237B09007FCE0F8A3E0C8B3
:103608002406F582C83400F583E0F8A3E0F9E84918
:1036180060439007FCE0F8A3E0C82406F582C834AC
:1036280000F583E0FCA3E0FD7A1B75F006900CA87A
:10363800E0A42421F9121202E9F89007FCE0F9A3AA
:10364800E0C92406F582C93400F5837400F0A37438
:1036580000F00237B09007FCE0F8A3E0C8240AF5B0
:1036680082C83400F583E0F8A3E0F9E849604390A4
:1036780007FCE0F8A3E0C8240AF582C83400F58303
:10368800E0FCA3E0FD7A1B75F006900CA8E0A424EA
:1036980022F9121202E9F89007FCE0F9A3E0C92424
:1036A8000AF582C93400F5837400F0A37400F002AF
:1036B80037B09007FCE0F8A3E0C8240CF582C834C2
:1036C80000F583E0F8A3E0F9E84960439007FCE0DF
:1036D800F8A3E0C8240CF582C83400F583E0FCA305
:1036E800E0FD7A1075F006900CA8E0A42423F912E6
:1036F8001202E9F89007FCE0F9A3E0C9240CF5826E
:10370800C93400F5837400F0A37400F00237B09058
:1037180007FCE0F8A3E0C82408F582C83400F58364
:10372800E0F8A3E0F9E849606F9007FCE0F8A3E04F
:10373800C82408F582C83400F583E0FCA3E0FD7ACC
:103748001075F006900CA8E0A42424F9121202E9DE
:10375800F50A9007FCE0F8A3E0C82408F582C8340D
:1037680000F583E02410FCA3E03400FD7A0475F032
:1037780006900CA8E0A42425F9121202E9F8900793
:10378800FCE0F9A3E0C92408F582C93400F5837484
:1037980000F0A37400F080109007F0E06003120FAF
:1037A800AA120F9279018006790080027901740CBF
:1037B8001216A77F080217D374F712170174F212B2
:1037C8001691E9FEAC18AD197A0E75F006EEA42430
:1037D80020F9121208E9700E740C1216DDE0F8A335
:1037E800E0F9E8F980027900740E1216A77F010249
:1037F80017D374F412170174F21216918909EAFEAC
:10380800EBFFE509C3940A5004EE4F700479028077
:1038180041AC18AD197A0E75F006E509A42420F913
:10382800121208E9F508E5087026750A06750B00F6
:10383800780A12191474021216F7EEFAEFFB121036
:10384800BE74021216A78A0A8B0B850A82850B831F
:10385800A908740E1216A77F040217D374F412175E
:1038680001EAFEEBFF750800E508C3940A504375AA
:103878000A06750B00780A121914EEFCEFFDA80869
:103888007900E875F00EA4C8AAF075F000A42AFA29
:1038980075F00EE9A42AF9746A28FA740739FB123C
:1038A80010D074021216A7E96004A908800605085A
:1038B80080B6790A7F040217D374F4121701EAFE5E
:1038C800EBFF750800E508C3940A5043750A0675AE
:1038D8000B00780A121914EEFCEFFDA8087900E82D
:1038E80075F00EA4C8AAF075F000A42AFA75F00EB7
:1038F800E9A42AF9746428FA740739FB1210D07401
:10390800021216A7E96004A9088006050880B6799E
:103918000A7F040217D374F712170174F012169174
:10392800EAFEEBFF750800E508C3940A5039AC18A5
:10393800AD197A1075F006E508A42423F9121208C7
:10394800E970207C1079FFAA18AB1912113CE970B4
:1039580012EEFCEFFDAA18AB19120500E97004A9D4
:10396800088006050880C0790A74101216A77F011E
:103978000217D374F4121701750800E508C3940AF6
:103988004003023A55A8087900E875F00EA4C8AAC1
:10399800F075F000A42AFA75F00EE9A42AF9746407
:1039A80028FC740739FD7A0E75F006E508A4242072
:1039B800F9121208E97003023A507C067D0079FF7B
:1039C800AA087B00EA75F00EA4CAA8F075F000A456
:1039D80028F875F00EEBA428FB74642AFA74073BE8
:1039E800FB1210D68A0A8B0BAE0AAF0B7C067D0041
:1039F80079FFAA087B00EA75F00EA4CAA8F075F052
:103A080000A428F875F00EEBA428FB746A2AFA744F
:103A1800073BFB1210D68A0A8B0BAC0AAD0BA80821
:103A28007900E875F00EA4C8AAF075F000A42AFA87
:103A380075F00EE9A42AF9747028F582740739F52F
:103A4800837400F0A37400F005080239839007F02E
:103A5800E06003120FAA120F927F040217D374F7C3
:103A68001217017E00EEC3940A50327C0679FFEEED
:103A7800FA7B00EA75F00EA4CAA8F075F000A42835
:103A8800F875F00EEBA428FB74642AFA74073BFB64
:103A980012113CE96004EEF980050E80C8790A7FAE
:103AA800010217D374F71217017E007F00EFC39449
:103AB8000A50357C0679FFC9FDC9EFF87900E87529
:103AC800F00EA4C8AAF075F000A42AFA75F00EE961
:103AD800A42AF9746428FA740739FBCDF9CD1211B8
:103AE8003CE970010E0F80C5EEF97F010217D3740F
:103AF800F71217017E007F00EFC3940A500DEE7095
:103B08000AEFF9120F68E9FE0F80EDEEF97F010266
:103B180017D374F012170174C9121691E9FE900CAC
:103B2800A8E06E701D7A017B00900748E0F9121139
:103B38001EE97A027B00900748E0F912111EE9128B
:103B48000FB674291216F77A0E75F006EEA4242023
:103B5800F9121208E96003023C4E7C0679FF7429C9
:103B68001216EF12113CE96003023C4E7C0E7D00F8
:103B780079FF74291216EF1210D6851882851983D9
:103B8800EAF0A3EBF07C1B7D0079FF740E1216EFB0
:103B98001210D68A0A8B0B850A0E850B0F7C0C7DBA
:103BA8000079FF74021216EF1210D68A0C8B0D855D
:103BB8000C0A850D0B74291216F77A0E75F006EEAD
:103BC800A42420F9121202E9F508740E1216F77AE5
:103BD8001B75F006EEA42421F9121202E9420874BA
:103BE8000E1216F77A1B75F006EEA42422F91212AB
:103BF80002E94208740E1216F77A1075F006EEA460
:103C08002423F9121202E94208740E1216F77A10E8
:103C180075F006EEA42424F9121202E94208740E83
:103C28001216F77A0475F006EEA42425F91212028A
:103C3800E9420874021216F77A0C74702EF91212FF
:103C480002E942088003750800A90874371216A70C
:103C58007F080217D374F7121701E9FEEE900748A0
:103C6800F0120F507F010217D374F2121701890A5C
:103C7800EAFEEBFFEE5400F8EF5480F9E8496035AE
:103C8800900748E0F91211008A0C8B0DA80CA90DB9
:103C980088088909E8496012AA08AB09120F7AE96D
:103CA8006008AA08AB091210EEE9EE6400FAEF64A6
:103CB80080FB023D75EE5402602D7C007D007A0089
:103CC8007B00120F2CE960187A017B00900748E00E
:103CD800F9121118E9EE6402FAEF6400FB023D756F
:103CE8007A027B00023D75EEA2E0507D9007FCE071
:103CF800F8A3E0F5838882A3A3A3E0FAA3E0FB126C
:103D08000FB0E9605E900762E0F8A3E0F9E8496067
:103D180045900762E0F8A3E0F5838882A3A3E0F862
:103D2800A3E0F9E849602F7C0079019007FCE0F8EE
:103D3800A3E0F5838882A3A3A3E0FAA3E0FB90079E
:103D480062E0F8A3E0F5838882A3A3E0F8A3E0F596
:103D58008388821216FF120FB6EE6401FAEF640030
:103D6800FB800A7A017B0080047A007B007F0602D0
:103D780017D374F7121701EAFEEBFF7508018E825C
:103D88008F83E02450601314601924E1701CEEFA4C
:103D9800EFFB120F0EE9F5088010EEFAEFFB120F99
:103DA800808007EEFAEFFB120F86A9087F01021741
:103DB800D374F7121701EAFEEBFF8E828F83A3A359
:103DC800A3A3E0641E701179008E828F83A3A3E001
:103DD800FAA3E0FB120EFCE97F010217D374F61276
:103DE80017018A088B09850882850983A3A3A3A3E1
:103DF800E07034AE08AF098E828F83A3A3A3A3A378
:103E0800A3A312192B8E828F83A3A3A3A3A3E0FCE1
:103E1800A3E0FD8E828F83A3A3E0FAA3E0FB120F39
:103E28000274021216A7E97F020217D374F7121759
:103E380001EAFEEBFF900748E0F98E828F83A3E04A
:103E4800FAA3E0FB120782E97F010217D3C082C000
:103E58008374FF121691120F5CE9C39402400B851C
:103E680018828519837402F0800985188285198360
:103E7800740AF0AC18AD197A01790512060EE974C6
:103E8800011216A7D083D08202011F74F212170103
:103E980074E81216918A088B09E9FE8C0A8D0B7C4E
:103EA800187D007900AA18AB191210D68A0C8B0D50
:103EB800AC0CAD0D851882851983E508F0A3E509DA
:103EC800F090074AE0C0E074021216DDD0E0F090EE
:103ED800074BE0C0E074031216DDD0E0F0900CA7A9
:103EE800E0C0E074171216DDD0E0F074151216DD8C
:103EF800E054FEFAA3E054FFFB900CA6E0A2E0E435
:103F080033F87900EA48F8EB49F974151216DDE838
:103F1800F0A3E9F0900CA6E0A2E15004D2F08002F0
:103F2800C2F074151216DDE054FDFAA3E054FFFB4D
:103F3800A2F0E433F87900E828F8E933F9EA48F818
:103F4800EB49F974151216DDE8F0A3E9F0900CA618
:103F5800E0A2E35004D2F08002C2F074151216DD1C
:103F6800E054F7FAA3E054FFFBA2F0E433F50C7534
:103F78000D007403780C12167EEA450CF8EB450D1B
:103F8800F974151216DDE8F0A3E9F0900CA6E0A28A
:103F9800E45004D2F08002C2F074151216DDE05429
:103FA800EFFAA3E054FFFBA2F0E433F50C750D0023
:103FB8007404780C12167EEA450CF8EB450DF9747A
:103FC800151216DDE8F0A3E9F0900CA6E0A2E55082
:103FD80004D2F08002C2F074151216DDE054DFFA44
:103FE800A3E054FFFBA2F0E433F50C750D00740553
:103FF800780C12167EEA450CF8EB450DF97415128B
:1040080016DDE8F0A3E9F0900CA6E0A2E25004D295
:10401800F08002C2F074151216DDE054FBFAA3E03A
:1040280054FFFBA2F0E433F50C750D007402780C14
:1040380012167EEA450CF8EB450DF974151216DDDB
:10404800E8F0A3E9F090074BE0602A750C10750DB5
:1040580000780C1219147C4C7D0774061216DDAA20
:1040680082AB831210BE74021216A78A0C8B0D85C0
:104078000C82850D8390075CE06011EE600E74156C
:104088001216DDE04402F0A3E04400F090075CE083
:10409800600678017900800478007900741412169B
:1040A800DDE048F0900749E0600678047900800474
:1040B8007800790074141216DDE048F0AC0AAD0BF4
:1040C800AA18AB19120524E974181216A77F06025C
:1040D80017D374F7121701EAFEEBFF750800900773
:1040E8005CE0600678017900800478007900E84295
:1040F80008900749E0600678047900800478007920
:1041080000E84208A908EEFAEFFB1205DEE97F0194
:104118000217D374F212170174E31216918A0C8BEA
:104128000DE9FF8C0A8D09742B1216DDE0F5087471
:10413800086509700A75F006EFA42422FE80087548
:10414800F006EFA42421FE7C1B7D00790074021286
:1041580016EF1210D6851882851983EAF0A3EBF0C2
:1041680074021216F77A1BEEF9121208E970387405
:104178001C1216DDE0C39407402D741C1216DDE0F6
:10418800C394115022E508F50B780B121918740323
:104198001216F7E50AA2E0E433F9AA0CAB0D1205F2
:1041A8003674011216A7E9741D1216A77F060217A6
:1041B800D374F71217011207F4E97E00EEC3940ACC
:1041C800505C7C0679FFC9FDC9EEF87900E875F006
:1041D8000EA4C8AAF075F000A42AFA75F00EE9A496
:1041E8002AF9746428FA740739FBCDF9CD12113C09
:1041F800E97028EEF87900E875F00EA4C8AAF07501
:10420800F000A42AFA75F00EE9A42AF9746428FAD1
:10421800740739FB79001207FAE9F80E809E7F01CE
:104228000217D374F612170174FD121691EAFEEB09
:10423800FF9007FEE0F8A3E0F9E849703975080037
:1042480075090878081219147508027509007808A4
:104258001219147508F875098478081219147CFF66
:104268007DFF7A017B0012065074061216A790078C
:10427800FEEAF0A3EBF09007FEE0F8A3E0F9E849C6
:104288007003024348E4F508F50978081219147414
:10429800041216E788088909780812191474041298
:1042A80016E7880889097808121914900800121965
:1042B8002B79029007FEE0FCA3E0FDEEFAEFFB127B
:1042C800077074081216A7E9704A85188285198341
:1042D800E0FA7B0074011216DDE0F87900E4C8F911
:1042E800EA28F508EB39F509E50845096026780854
:1042F8001219149007FEE0F8A3E0F5838882A3A3BF
:10430800A3A3E0FCA3E0FDEEFAEFFB120F02740298
:104318001216A7E9E4F508F50978081219149008A7
:104328000012192B7CFF7DFF9007FEE0FAA3E0FB4B
:1043380012065C74041216A79007FEEAF0A3EBF0CD
:104348009007FEE0F8A3E0F9E849700479018002DB
:10435800790074031216A77F020217D3C082C083A4
:104368009007FCE0F8A3E0F9E84960179007FCE043
:10437800FAA3E0FB1210EEE9F89007FC7400F0A332
:104388007400F0900CA8740AF0D083D08202011F48
:10439800C082C083E9900BB8F00245C274F71217C7
:1043A80001E99002E1F07C197D037AFF7BFF120797
:1043B800889002E274FFF0A3F0A3E4F0A3F079057B
:1043C8001207169002E1E0F91206387AA07B07126C
:1043D800094A7F010217D374F41217018A088B095E
:1043E800EB548060309002E1E0F91211008A0A8BE8
:1043F8000BAE0AAF0BEE4F60138E828F83E064B072
:104408007003120728EEFAEFFB1210EEAA08E5096E
:104418006480FB80047A007B0002459174F21217D5
:104428000174FC121691EAFEEBFFEE4F603874023D
:104438001216DDEEF0A3EF1247F6ECF0A3ED1247EB
:10444800F6AA82AB83120632E9F508707374121269
:1044580016DD1253AAE50A450B60658E828F83121A
:1044680044D2EE4F700575080280557A067B00121B
:10447800118A8A0C8B0DA80CA90DE84970057508DE
:1044880013803D88828983E41244DCA3A3EEF0A361
:10449800EF125843E50AF0A3E50BF09002E7124546
:1044A800649002E76017E0FCA3E08003EAFCEBFD00
:1044B8008C828D8312456470F38C828D831252CF67
:1044C800A90874041216A7025A45A3A3A3A3E0FEE1
:1044D800A3E0FF22F0A3F0888289832274F21217E6
:1044E80001890AE975F017A4FEAFF09002E6E4F03E
:1044F8009002E4124564600A1211909002E4E4F01C
:10450800A3F0EEFAEFFB12118A8A088B09EA450933
:10451800602FEEFCEFFD79001210D69002E4E5085A
:10452800F0A3E509F07B00800812454EE4F0A3F003
:104538000BEBC3950A40F2E50A9002E6F079008099
:10454800027913025A45EB75F017A4F8A9F0900206
:10455800E4E028FAA3E0398A82F58322125065EA5A
:104568004B2274F41217017900EAA2E0501B750877
:104578008275098478081219147C047D007ABA7B44
:104588000B12071074021216A77F040217D3C082F9
:10459800C0839002E71245C9601C88828983A3A35F
:1045A800E06A7003A3E06B8882898370E8A3A3A301
:1045B800A312506180047A007B00D083D08202016C
:1045C8001F125B18E8492274EE12170174FC1216C8
:1045D80091EAFEEBFF851882851983E4F0A3F0EEDB
:1045E80024021252B3EE24051247E4EE2404F50E19
:1045F800EF124BC9E024FE603924FC604624FE60BB
:104608005224FE605E24FE70030246E924FE700315
:1046180002476124FE700302477024FE70030247BC
:104628007F24FC700302478E24FE700302479D021C
:1046380047DA9003007417F0A3E41247FE1203B0A0
:104648000247DA851882851983AC82AD8312072E5A
:104658000247AA851882851983AC82AD8312073474
:104668000247AA850C08850D0974021216DDAC8272
:10467800AD838508828509831250611206568A0C1B
:104688008B0DAC0CAD0DEC4D6042E4F50CF50D78DE
:104698000C121914750C00750D03780C1219147589
:1046A8000C01750D03780C12191474081216DD121A
:1046B800192B791612505B12077074081216A7E9A5
:1046C800F50C700B1250571203C8800F750C01853A
:1046D80008828509831247EC1252CF850C080247DD
:1046E800AD74021216DDAC82AD83850C82850D8314
:1046F8001250611206568A108B11AC10AD11EC4D98
:104708006043850C82850D83A3A312192B751000B5
:1047180075110378101219147510017511037810AA
:1047280012191474081216DD12192B791612505B1F
:1047380012077074081216A7E9F509700B12505782
:104748001203CE800F750901850C82850D831247EF
:10475800EC1252CF850908804C851882851983ACE4
:1047680082AD8312073A803A851882851983AC8214
:10477800AD83120740802B851882851983AC82ADE2
:1047880083120746801C851882851983AC82AD8305
:1047980012074C800D851882851983AC82AD83126F
:1047A8000752E9F508E50860298E828F83A3E06443
:1047B80014601F850E82850F83E09003001247F670
:1047C800125B149003011252CFE508A31247FE12A0
:1047D80003AAEEFAEFFB1206D40251BBF50CEF3434
:1047E80000F50D22125B1885188285198322F08541
:1047F800188285198322F07C007D03850A82850B47
:10480800831250652274EE12170174FC1216918AF5
:104818000A8B0B8C0E8D0FEA2405F508EB3400F596
:10482800097C157D0079007A007B031210D6E50813
:104838002402F50CE5091247E78518828519838556
:1048480082108583117810121914850882850983CE
:10485800A3A3A3A3124D11121914E5082405F510FA
:10486800E5093400F5117810121914850C82850DAC
:104878008312506B12065074061216A78A108B11F9
:10488800AE10AF11E50A2402F50AE50B1252B6EE96
:104898004F70030249D3801774021216DD1250615B
:1048A80088828983EAF0A3EBF0900300E004F0909B
:1048B8000300E0C3940540030249D3E4F510F51161
:1048C80078101219147510E975110278101219145C
:1048D8007510EA751102781012191474061216DD93
:1048E80012192B7910EEFCEFFD12505B1207707451
:1048F800081216A7E9705E850882850983A3A3A319
:10490800A3A3A3A3E0F89002E9E0687048124D1150
:104918001219147CEA7D02E5082408FAE509340036
:10492800FB1210D074021216A7E960298E828F83B9
:10493800A3A3A3A3125061900300E0F510740278BA
:104948001012167E74012510F58274033511F58353
:10495800EAF0A3EBF074021216DD8582108583114C
:10496800781012191474021216DD12192B850C8294
:10497800850D83125B2912065C74041216A78A102F
:104988008B11AE10AF11900300E0F5107511007493
:1049980002781012167E74002510F874033511F988
:1049A80088828983A31245647003024897E8240328
:1049B800F8E93400F9EE4F60030248A08882898341
:1049C80074FFF0A3F0900300E004F0900300E060AF
:1049D8000A1250571203BC7900800B85088285099A
:1049E800831252C6790A0251BB74EA12170174FE87
:1049F8001216918C128D13EA2405F50CEB125B3319
:104A08001244D6750800750900EA2402F510EB3443
:104A180000F51185188285198385820A85830B78AC
:104A28000A121914850C82850D83A3A3A3A3124B24
:104A3800D3121914E50C2405F50AE50D1252B678BF
:104A48000A121914850C82850D83125B27120650F1
:104A580074061216A78A0A8B0BEA450B7003024BE1
:104A680084EA2404F50EEB124BC91244D68A828BD1
:104A780083A3A3A3E0F985108285118312506112E4
:104A8800063EE9F5096003024B84E4F514F5157850
:104A9800141219147514E97515027814121914757D
:104AA80014EA751502781412191474061216DD1218
:104AB800192B7913AC0AAD0B85108285118312501E
:104AC8006112077074081216A7E9F5096003024B12
:104AD800849002E9E0F8E5087009E02402900301F7
:104AE800F08017900301E0FCE82402FAE43400FBAC
:104AF800EA6C7001EB6003024B88850882AA821277
:104B08004D089414124D005073850E82850F83E072
:104B1800C0E074022A124BC0D0E0F00508850E826E
:104B2800850F83A3E0C0E085080A7402250A124BAA
:104B3800C0D0E0F005089002E9124BD31219147C9A
:104B4800EA7D0285080A7402250AFA74033400FB18
:104B58001210BE74021216A79002E9E02508F508A3
:104B680074FF6E700374FF6F6012EE24010EEF3451
:104B780000FFE508C394145003024A1BE5086013BC
:104B8800124F4C8510828511831250611203C2792D
:104B9800008014E509700375090A8512828513835C
:104BA800EEF0A3EFF0A90974021216A77F0E021700
:104BB800D385080C7402250CF58274033400F58340
:104BC800223400F50F850E82F5832212585622747E
:104BD800EE12170174FE1216918C0E8D0FEA240541
:104BE800F50CEB1247E7750B00900300E4F0F50AAB
:104BF800EA2402F508EB3400F5098049900300E047
:104C0800FA9002E9E0F8124D089417124D00400D91
:104C1800900300E0F87416C3989002E9F0124D1161
:104C28001219147CEA7D0274012AFA74033400FB19
:104C38001210BE74021216A79002E9E0F890030061
:104C4800E028F0050AE50C2416F582E50D124BC4A0
:104C5800E0F8E50AC3984003024CE9900300E0C37A
:104C68009416507DE50AC333F8E433F9E50C28FEC1
:104C7800E50D39FF851882851983AC82AD838E8254
:104C88008F831250611206568A108B11AC10AD1129
:104C9800EC4D7005750B018043E4F510F5117810A3
:104CA8001219147510E9751102781012191475107B
:104CB800EA751102781012191474061216DD121909
:104CC8002B79168508828509831250611207707442
:104CD800081216A7E9F50B7003024C041252C280A1
:104CE800107C007D038508828509831250611203B8
:104CF800D4A90B74020251BDE99400C365D03322D4
:104D0800EA28F8E43400F9E822E0F5107511007893
:104D1800102274EA12170174FC1216918A0C8B0D7A
:104D28008C128D13EA2405F50AEB1252B6750800A9
:104D3800750900E50A2402F510E50B3400F5117435
:104D4800021216DD85820E85830F780E12191485DE
:104D58000A82850B83A3A3A3A3125802121914E590
:104D68000A2405F50EE50B3400F50F780E12191418
:104D78008510828511831252BC12505B1206507442
:104D8800061216A78A0E8B0FAE0EAF0FE50C240283
:104D9800F50EE50D3400F50F80408882898374FF95
:104DA800F00508124BB974FFF005089002E9E0F528
:104DB8000C750D00780C1219147CEA7D0285080C1C
:104DC8007402250CFA74033400FB1210BE7402122C
:104DD80016A79002E9E02508F508EE4F60718E826B
:104DE8008F83A3A3A3E0F9850E82850F83125061F8
:104DF80012063EE9F509EE24041247E4E97044E49A
:104E0800F514F51578141219147514E97515027846
:104E1800141219147514EA751502781412191474F9
:104E2800081216DD12192B7911EEFCEFFD850E82A2
:104E3800850F8312506112077074081216A7E9F5DE
:104E4800096027850C82850D83124F421252CFE5E7
:104E5800087003024F28124F4C850E82850F83126B
:104E680050611203DA7900024F3D850882AA82EA6E
:104E78009002E97009E02404900301F08022E0F830
:104E8800900301E0F514E82404FCE43400FDEC652B
:104E9800147001ED70C0124D089412124D0050B6F6
:104EA800850C82850D83E0C0E074022A124BC0D0C5
:104EB800E0F00508850C82850D83A3E0C0E0124B65
:104EC800B9D0E0124F5E85820C85830D780C1219DB
:104ED8001474041216DD12192B85108285118312A1
:104EE8005B2912065C74041216A78A0C8B0DAE0C93
:104EF800AF0D85080C7402250CF874033400F9EE24
:104F08004F7003024DA2851882851983E088828933
:104F180083124F5EA3E0C0E0124BB9D0E0024DB05F
:104F2800E509700375090A850A82850B83124F42C9
:104F38001252CFA9097404024BB1125B1885128270
:104F480085138322900301E0F5F0E50884900300BF
:104F5800F07C007D0322F0050885188285198322DC
:104F680074EC12170174FE1216918A088B098C0EC4
:104F78008D0FEA2405FEEB3400FF8518828519831E
:104F8800AC82AD838E828F831250611206568A0AD4
:104F98008B0BEE24181247E4EA450B7003025032DB
:104FA8001251A45032851882851983125061120754
:104FB800648A108B11EA4511606B7912AC0AAD0B4B
:104FC80085088285098312506185108285118312B4
:104FD80016FFE9F50A7058E4F50AF50B780A121974
:104FE800148E828F83A3A3E0F50A780A121914EEAF
:104FF80024031252B3780A1219148E828F83125026
:105008006B12077674061216A7E9F50A7021850C4B
:1050180082850D83E0701F8508828509831250619F
:105028001203E08011750A0E8009750A018004E5F3
:105038000A60031252C2850C82850D83E0600479F0
:10504800008002A90A74021216A77F0C0217D37CEB
:10505800007D03850A82850B8312506522E0FAA33E
:10506800E0FB22E0FCA3E0FD85088285098312505D
:10507800652274EE12170174FE1216918A088B09C4
:105088008C0C8D0DEA2405FEEB3400FF750E0085AF
:105098001882851983AC82AD838E828F831250610A
:1050A8001206568A0A8B0BEA450B700302519012BE
:1050B80051A45035851882851983125061120764EE
:1050C8008A0E8B0FEA450F605E7912AC0AAD0B852C
:1050D8000882850983125061850E82850F83121616
:1050E800FFE9F50E60030251938508828509831252
:1050F80053AAAA0AFB1207588A108B11A810A911E3
:10510800E849701E7AFF7BFF1207588A108B11A896
:1051180010A911E849606C88828983E50AF0A3E543
:105128000BF0750A008007750E0E805F050A900265
:10513800E6E0FAE50AC39A504AE50A75F017A4FAB8
:10514800ABF088828983A3A3E02AFAA3E03BFB8A19
:10515800828B831252BCEC4D70D2750A17750B0006
:10516800780A121914EEFCEFFD1210BE7402121622
:10517800A7EEFCEFFD8508828509831250611203B2
:10518800E68014750E098003750E01125B10850CFC
:1051980082850D831252CFA90E024CFBE50824022A
:1051A800F508E5093400F5098A828B83A3A3A3E0F7
:1051B800A2E52274041216A77F0A0217D374EC1210
:1051C80017018C108D11EA2405F50CEB1247E775D1
:1051D8000F00EA2402F50AEB1252B6850A82F5831B
:1051E8001250611207588A088B09EA4509700302B0
:1051F80052A8750E008071850C82850D83E06401CC
:10520800704F8E828F83A3A312192B8E828F83A354
:10521800A3A3A3E0F5127513007812121914EE2453
:1052280005F512EF3400F513781212191412505BB9
:1052380012077674061216A7E9F50F6014850C821A
:10524800850D83E4F0125B1085108285118312525C
:10525800CF7C177D007900EEFAEFFB1210D68E8214
:105268008F83E4F0A3F0050E9002E6E0F8E50EC3A4
:1052780098501EE50E75F017A4F8A9F085088285E8
:105288000983A3A3125B3D1252BCEC4D600302518B
:10529800FF85088285098374FFF0A3F0E50F700687
:1052A80012505B1203ECA90F025052F50AEF3400BA
:1052B800F50B22A3E0FCA3E0FD228E828F83125B14
:1052C80018850E82850F83E8F0A3E9F022C082C01A
:1052D800839002E2E06A7003A3E06B70067AE27BD7
:1052E8000280047A007B000245C2C082C083780035
:1052F8008C828D83E06A7003A3E06B7010E875F010
:1053080003A4F8A9F0EC28FAED39FB8015088C8283
:105318008D83A3A3A3E06A7003A3E06B60DF7A0028
:105328007B000245C274F61217011207228A828B8B
:1053380083E582458370067A007B008007A3A3A3D8
:10534800A31250610259C174F2121701E9FE740EDA
:105358001216DD1253AA74101216DD1258228C820E
:105368008D83E064027036A3125B1EF50CA3E0F98E
:10537800A80C74026870037429697021750C027591
:105388000D00780C1219147808121914780A1219D9
:1053980014EEF912079A74061216A7800279010210
:1053A8005A45E0F50AA3E0F50B2274E812170174D8
:1053B800FB121691E9851882851983F08A168B17D6
:1053C800ECFEEDFF751000741D1216DD125B1474EF
:1053D8001D1216DD1252CF8E828F83A3A3A3E0A2E3
:1053E800E4502D741D1216DD1250611207648A8272
:1053F8008B83E582458370030257F3790AEEFCEF4D
:10540800FDAA16AB171216FFE9F51060030257F64E
:10541800741F1216DD12582274211216DD1253AAB7
:1054280074231216DDE0F50EA3E0F50F8E828F834C
:10543800E0640260030257A1A3125B148508828509
:105448000983A3858212858313EE24061247E48814
:10545800828983E0FAA3E0F9EA2400F514E439F537
:1054680015781412199E0100002801289654070087
:1054780002285B550328C854002992560129BD56B5
:1054880002295E560329925604293C57A157E50E76
:10549800450F600302579C850C82850D83125817AF
:1054A800FAE9FB8A828B83E0850A82850B8312588E
:1054B8004D1219148A828B83A3E0FCA3E0025726BD
:1054C800E50E450F600302579C850A82850B83749D
:1054D80001F012582A850882850983F07C007D0036
:1054E8008E828F83A3A3A3A3E02401FAA3E0340050
:1054F800FB120656EA4B60418A828B83E02402F84D
:10550800850A82850B83E028F0EA2404F8EB34004E
:10551800F988828983E085128285138312585F1285
:10552800584D1219148A828B831252BBE508240342
:10553800FAE5093400FB02572B850A82850B83E0C4
:105548002404F07C047D007900AA12AB131210D653
:105558000257F6E50E450F600302579C12582AFEC3
:10556800A3E0FF850A82850B837404F0EE85088228
:10557800850983F0EF851282851383F07403121670
:10558800DDAC82AD83EEFAEFFB1206568A0C8B0D6A
:10559800EA450D700302563F8A828B83A3A3124407
:1055A800D274011216DD85820E85830F780E1219CA
:1055B8001474051216DD12192B7CFF7DFF12065C90
:1055C80074041216A78B0FEA450F7033850C828579
:1055D8000D83125802121914850C82850D83A312AB
:1055E800192B7C027D007A027B85120488740412D0
:1055F80016A7E9700A74011216DD74FFF0A3F08E85
:10560800828F83E064027039750C02750D00780C86
:105618001219148E828F831252BBE5082404FAE50E
:10562800093400FB1210BE74021216A7850A82857F
:105638000B83E02402800974011216DDEEF0A3EF5B
:10564800F074011216DD125813F074011216DDA35E
:1056580012580B025796E50E450F600302579C85BA
:105668000C82850D831252BCAA16AB1712078E85C1
:105678000A82850B837402F0EA850882850983F023
:10568800851282851383EB025799E50E450F600357
:1056980002579C12582AF8A3E0F9850A82850B83E1
:1056A8007402F0E8850882850983F0E9851282850D
:1056B8001383025799850C82850D8312506112104D
:1056C800B8EAFC8C82A882C3950EE4950F405FE887
:1056D800650E7002E50F70047C00802285188285B3
:1056E8001983E0FAE50E2AFAE50F3400FBC3EA98BD
:1056F800EB94005003E08005E50ECCC39CFCEC85E0
:105708000A82850B83F08C0A750B00780A1219142B
:10571800850C82850D83E0250EFCA3E0350FFDAADC
:1057280008AB091210BE74021216A70257F67510BC
:10573800070257F6E50E450F705A850C82850D83D2
:10574800125B14850A82850B8374071244DE125893
:105758000B1244DEA3E0851282851383F0E824024D
:10576800FAE93400FB8A828B8312580B12583A12DA
:105778005813A312584312581CF0E82405F8E934CA
:1057880000F98882898312581CA312585FA3A3A327
:10579800A3F0805A75100B8055741D1216DD125037
:1057A800611207228A828B83E5824583603D125B02
:1057B80014880C890DE8450D6031780E121914789B
:1057C8000A121914780812191474061216DDE0F971
:1057D800EEFCEFFDAA16AB17850C82850D83121619
:1057E800FF74061216A7E9F510800375100EA910AC
:1057F80074051216A77F100217D3E0F50E750F0077
:10580800780E22E0850882850983221258692212BF
:105818005B18E822125869A3A322E0F508A3E0F573
:105828000922850C82850D83E0F8A3E0F583888240
:10583800E022A3A3F08A828B83A322F08882898343
:10584800A3A3A3A322F08A828B8312585622E0F5E1
:105858000A750B00780A22F088828983A312586996
:1058680022E0850882850983A3A32274EE1217011A
:1058780074FE1216918A0A8B0BECFAEDFB74141263
:1058880016DDE0F510A3E0F51174161216DDE0FE42
:1058980074181216DDE0F50EA3E0F50F8518828561
:1058A8001983AC82AD831206568A0C8B0DEA450D1E
:1058B80060498518828519831250611207228A82ED
:1058C8008B83E5824583602FA3A3125822E5084500
:1058D800096024780E1219147810121914EEF9AC14
:1058E8000CAD0DAA0AAB0B8508828509831216FF39
:1058F80074041216A78006790E80027901024CFB07
:1059080074F612170174FE121691740C1216DD1239
:105918005817851882851983F074011216DDE9F08D
:10592800E4F508F5097808121914750802780812C0
:10593800191474041216DD85820885830978081203
:10594800191412077674061216A774021216A78085
:105958006874F7121701EAFEEBFF89087C197D03CA
:1059680012078EEA5402600BA908EEFAEFFB120642
:105978004A800279010243DA74F612170174FF6A49
:10598800700374FF6B70168C828D831259C6E4F015
:105998008C828D83A3A3A31259C6A3801812075E15
:1059A8008A088B09A808A909E849600D88828983B3
:1059B80074FF1244DCA3A3E4F07F020217D374FF40
:1059C800F0A3F08C828D83A3A32274F61217011220
:1059D800075E8A828B83E58245836006A3A3E0FA8B
:1059E80080027A007B0080D174F21217018A088B3A
:1059F80009ECFEEDFF740E1216DDE0F50A12075EE3
:105A08008A0C8B0DA80CA90DE8497026EEFCEFFD59
:105A18007AFF7BFF12075E8A0C8B0DA80CA90DE894
:105A28004970047911801688828983E508F0A3E516
:105A380009F088828983A3A3E50AF079007F06022A
:105A480017D374EE121701EAFEEBFF8C088D098953
:105A58000C74141216DD125B1474161216DD125033
:105A680061750D00E8496003025B087402650C600B
:105A780003025B0374121216DD125B1EFCA3E0F92D
:105A8800EC2400F50EE439F50FEAF4F8EBF4F9EC40
:105A980058F8E50F59F9E849705CE5082406F8ED6F
:105AA8003400F9880A890B8882F583125B2912076A
:105AB8008E8A108B11E50E65107004E50F65116074
:105AC80042780E121914850A82850B83125B2912FB
:105AD800079474021216A7E9F50D7027780E1219AB
:105AE80014850882850983A3A3125B271207A6746D
:105AF800021216A7800D750D808008750D0D8003A4
:105B0800750D0BA90D0251C08E828F83125B18226E
:105B1800E0F8A3E0F922125B1888828983E022A3C7
:105B2800A3E0FCA3E0FDEEFAEFFB223400F50D85BF
