:020000040000FA
:0600000002010702217B52
:03002B000225D3D8
:03003B000225F8A3
:0300430002258310
:030053000221EE99
:03007B000225ABB0
:10008300021FE7E5C754F84401F5C77901220000D0
:100093000080FB120086B900030200F1E4792178A5
:1000A30008B800028004F709D8FCE479297802B87B
:1000B30000028004F709D8FCE4900281786779098B
:1000C3008002F0A3D8FCD9FA7AE77B0A900137784B
:1000D3007479038015E493A3AD82AE838A828B8304
:1000E300F0A3AA82AB838D828E83D8E9D9E7758288
:1000F3009D7583D6740312011975829175830074FB
:100103000012011975D00075813F751881751902A8
:10011300759F00020096C09FF59FE473D09F22D085
:1001230083D082C09FE493C0E0740193C0E0740263
:1001330093F59F22FF0000B4000028002800283018
:1001430075A000A000A000A00000080008E001F0D6
:10015300001000100010001000100010005000509C
:1001630000500010001000D0070000000000000F36
:100173000001000500307507001000010081FF0039
:10018300000000FFA805C605AE05FF020202080233
:100193005000A0000000E803024C850100001E850A
:1001A3000248850100003E0B023E85010000B302B8
:1001B3000248850100003F0B023C85010000C90293
:1001C300024885010000400B023A85010000CB0282
:1001D300024885010000410B022A85080000CC0279
:1001E300024885010000420B022885010000430BF1
:1001F300FF0100FF20024C850100001B850248859A
:10020300010000A70B0226850000000000025485B0
:100213000300001903840B840B840B840B840B846D
:100223000B840B840B840B840B840B840B840B06D1
:100233000E1E0E000E020202020202020202010D53
:100243000000001001024C85010000218502488551
:10025300010000E80B0236850100004007024885D3
:10026300010000E90B0246850100008484024885F1
:10027300010000EA0B023085010000768402488504
:10028300010000EB0B022E850100005C8302488510
:10029300010000EC0B022C850100008083024885DD
:1002A300010000ED0B0224850100009283024885C2
:1002B300010000EE0B024285010000A48302488581
:1002C300010000EF0B0232850100006884024885BB
:1002D300010000F00B024085010000F10B01E8036F
:1002E300053F100AFFFFFF000130750302010600FE
:1002F30000000000000000000000000000000000FB
:100303000000000000000000000000FFFF06008066
:100313000CE8030709455F4C6F634B05125000203F
:1003230003020A00020106030207E208FF9CD21E31
:10033300F3E9C9455F4C6F636B00000000000000E8
:100343000000000000000000E6120000F2120A574D
:1003530072697465204368617200104E6F74696638
:1003630079204368617200024C8501000018850200
:100373004885010000010D103884030000CC0A02F7
:100383004485010000020D0248850100000D0D1097
:100393004884000000E00A025485030000E10A02D9
:1003A30044850100000E0D120122C4CC0312012268
:1003B300DBCC031201220CCD0312012247CD031221
:1003C300012271CD031201229BCD03120122B2CD72
:1003D30003120122C9CD03120122E0CD031201222F
:1003E30009CE031201221CCE0312012232CE0312C4
:1003F300012245CE031201226CCE031201223BD708
:10040300021201223FD80212012277D802120122DE
:100413009AD802120122A5D802120122C8D80212C8
:100423000122D7D902120122ACDA0212012227DB00
:1004330002120122AFDB02120122EADB02120122C5
:1004430021DC02120122AFDC0212012288DD02123A
:100453000122E8DD02120122F3DD0212012272DE23
:100463000212012275DE0212012278DE021201223B
:1004730007DF021201220ADF021201223ADF02120F
:10048300012264DF0212012252E00212012204E17E
:10049300021201221FFB0212012247FB0212012258
:1004A30075FB02120122ACFB021201220AFC0212AA
:1004B300012255FC02120122A0FC02120122E0FCDF
:1004C3000212012226FD0212012254FD0212012210
:1004D30011FE021201221BFE0212012228FE021249
:1004E30001225BFE0212012227FF0212012233FFC7
:1004F300021201224BFF0212012255FF02120122B6
:1005030003D20312012211D20312012229D20312B0
:10051300012241D2031201225EE1011201220AE209
:100523000112012285E201120122A6E30112012236
:10053300E2E3011201228BE40112012272E50112AE
:100543000122D6E6011201222DE701120122AEE7B4
:10055300011201229EE801120122EBE8011201229D
:1005630071E901120122A3E901120122B7EB011281
:100573000122F9EB0112012217EC011201229AEC7C
:10058300011201226EED0112012236EE0112012247
:10059300008003120122D380031201227C81031203
:1005A3000122CF81031201227F82031201220B83D6
:1005B30003120122F783031201222684031201226C
:1005C3003985031201228185031201225686031203
:1005D3000122928603120122AE860312012297D5CD
:1005E30003120122C8AB03120122DEAB0312012264
:1005F30004AC0312012220AD031201222AAD03121F
:1006030001225FAE0312012257AF031201223E996A
:10061300031201226E9A03120122A19A03120122EC
:10062300EB9A03120122B29C03120122D8C10112D8
:10063300012242C201120122A1C301120122B1C34C
:1006430001120122DEC30112012235C4011201226B
:10065300DEC401120122E5C501120122AFC6011257
:1006630001220FC80112012252C801120122F7C848
:100673000112012244C9011201226AC90112012295
:1006830078CB011201227DCB0112012282CD01120E
:100693000122CFCD0112012242CE0112012275CED9
:1006A3000112012217CF01120122C0CF0112012230
:1006B300F8CF01120122FBCF0112012243D0011214
:1006C300012283D001120122DAD001120122C5BE18
:1006D30003120122DDBE0312012225BF03120122F0
:1006E3003BBF0312012282BF0312012296C00312F1
:1006F300012223C1031201226EC103120122A4436A
:1007030000120122B04300120122EB430012012226
:10071300304400120122F0440012012276450012F7
:100723000122DB4500120122074600120122404646
:10073300001201227E4800120122624A00120122A5
:10074300484C001201228B4D00120122D94F001296
:100753000122EB50001201223652001201224653AD
:10076300001201226353001201229E530012012240
:10077300C05300120122235400120122E458001234
:100783000122795900120122CA5900120122F1599A
:1007930000120122435A00120122615A001201225F
:1007A300BB5A00120122A45B001201221A5D00123F
:1007B30001229E5D00120122659E031201226F9E9B
:1007C30003120122B29E03120122CD9E03120122C3
:1007D3005D9F03120122859F03120122C29F031210
:1007E3000122F99F0312012222A00312012297A0E2
:1007F30003120122ACA003120122C1A003120122A1
:10080300F2A00312012206A1031201222BA103125B
:10081300012265A10312012291A103120122C9A1A0
:100823000312012248A20312012291A20312012200
:10083300BBA203120122E6A203120122D9CF0312A3
:10084300012296A902120122C4A90212012212ABAB
:1008530002120122F2AB0212012211AC0212012296
:100863008EAC02120122D1AC0212012227AE021277
:100873000122E8AE021201226FB10212012210B26C
:100883000212012206B30212012203B40212012250
:100893005DB502120122E8B5021201227ECE0312D7
:1008A3000122E7CE031201223BCF0312012262CFC2
:1008B3000312012293CF031201220EA3031201227A
:1008C3007BA303120122C2A303120122DAA403129F
:1008D3000122D6A503120122B9A603120122E07553
:1008E30000120122227600120122F4760012012264
:1008F300CD7700120122C77800120122A9790012D4
:100903000122127A00120122C87A001201223C7BD2
:1009130000120122A87B00120122D17B00120122C6
:100923004B7C00120122E47C00120122497D00125B
:1009330001225E7D00120122A47D00120122BD7DF1
:1009430000120122227E00120122257E00120122C2
:10095300F3B8031201221BB90312012259B903127E
:10096300012217BA031201227EBA031201229ABA94
:1009730003120122C2BA03120122F2BA03120122A4
:1009830001BB031201227EBB03120122A4BB03128B
:100993000122C7D101120122A5D301120122D7D509
:1009A3000112012213D60112012240D601120122A3
:1009B3002AD70112012275D701120122C0D70112D1
:1009C3000122D2D70112012212D80112012247D8E3
:1009D3000112012295D801120122C4D80112012269
:1009E300E7D80112012234D901120122B9D9011227
:1009F3000122D3DB0112012212DE0112012253DE96
:100A030001120122F5DF0112012236E00112012257
:100A1300A9E001120122FFE00112012229E10112E2
:100A23000122819C021201227F9D0212012218A43D
:100A33000212012239A60212012204A80212012283
:100A43006CA902120122055E00120122B45E00129B
:100A53000122FA5E001201223A6000120122D061E3
:100A6300001201224A620012012265620012012271
:100A7300E062001201223A64001201229A65001218
:100A83000122A066001201220168001201221A68E5
:100A93000012012278680012012266690012012205
:100AA300996900120122096A00120122836A001265
:100AB3000122CD6A00120122976B001201226C6C95
:100AC300001201224B6D00120122D66D0012012289
:100AD300446E00120122B86E00120122E36E00126E
:100AE3000122A26F00120122077100120122247158
:100AF30000120122437100120122347200120122FA
:100B0300597200120122837200120122FE72001236
:100B13000122587300120122C174001201226F7561
:100B230000120122B075001201220080021201227C
:100B33004E80021201225A800212012238810212CF
:100B430001226981021201229A81021201221A8270
:100B530002120122988202120122D0820212012281
:100B63002283021201225F83021201227C85021278
:100B73000122A287021201228D8902120122778BA0
:100B830002120122F5FF01120122659A01120122CC
:100B9300959A011201226EA101120122F3A2011200
:100BA3000122F0A801120122D8A90112012215AADB
:100BB3000112012238AA0112012269AA011201229B
:100BC30072AA011201227CAA011201226AAB01124C
:100BD300012260AC011201225685011201225589BE
:100BE300011201225B890112012296900112012256
:100BF300AF9501120122ABB203120122A5B3031276
:100C0300012219B40312012257B403120122CBB4F7
:100C13000312012244B5031201224DB5031201222E
:100C230059B5031201226EB503120122ACB50312AA
:100C33000122C2B5031201227BA70312012288A756
:100C430003120122A2A703120122E1A70312012228
:100C53001FA80312012284A80312012299A80312D8
:100C63000122A4A803120122B1A803120122C8A8D9
:100C730003120122D6A803120122E1A803120122C2
:100C8300EDA803120122FCA80312012207A90312F3
:100C930001222AA903120122D1A903120122E1A9E7
:100CA30003120122FBA90312012218AA0312012233
:100CB30034AA0312012259AA0312012264AA0312BD
:100CC300012279AA031201228DAA03120122EEAA9C
:100CD30003120122F4AA03120122FAAA0312012227
:100CE30000AB0312012218AB031201224BAB031218
:100CF3000122578E02120122DB8E021201228A8FF9
:100D030002120122E990021201220A930212012225
:100D1300F693021201222B94021201224D94021225
:100D23000122FC9402120122F496021201221D9761
:100D330002120122AF9702120122E197021201224D
:100D4300EE97021201224598021201226B980212B9
:100D53000122D89A02120122DB9B02120122339C48
:100D6300021201224FF00112012259F10112012254
:100D730040F2011201224AF2011201226CF2011225
:100D8300012278F20112012211F40112012240F42E
:100D9300011201225CF501120122B5F501120122B3
:100DA3001BF701120122FAF70112012256F8011270
:100DB3000122C3F801120122FEF8011201223DF9BA
:100DC30001120122F6FB0112012210FC0112012281
:100DD3009CFC01120122AAFC0112012203FD011253
:100DE300012211FD0112012284FD01120122E8FDFD
:100DF3000112012232FE01120122C6C10212012296
:100E0300E8C1021201220EC40212012223C70212F8
:100E130001223BC802120122EEC802120122D0C9EC
:100E230002120122497E001201226E7E001201226B
:100E3300E07E00120122A5F302120122AEF3021298
:100E43000122B7F3021201228EF4021201223FF6AD
:100E53000212012275F602120122AFF602120122DA
:100E6300E5F6021201221FF70212012253F70212C2
:100E730001227FF702120122C8F70212012202F8AF
:100E8300021201224BF802120122A3F802120122DC
:100E9300D8F80212012233F9021201226DF902126B
:100EA3000122BEF902120122F4F9021201222EFAE2
:100EB300021201225CFA021201227FFA02120122BB
:100EC300AFD303120122DBD30312012236D4031260
:100ED300012240D40312012250D4031201228A9327
:100EE30003120122AF9303120122E793031201229B
:100EF300FDD4031201227C26001201228E29001246
:100F03000122422B00120122E72B001201228A2C1C
:100F130000120122412D00120122702D0012012224
:100F23002C3200120122BE3200120122FA330012C7
:100F33000122623400120122163500120122CC373D
:100F43000012012206380012012270380012012219
:100F5300CD38001201222A390012012287390012EA
:100F63000122723A00120122B83A00120122033B15
:100F730000120122263B00120122693C00120122C9
:100F83007D3C00120122863D00120122C53D001264
:100F93000122F13D00120122403E00120122613E76
:100FA300001201229F3E00120122E640001201229C
:100FB300274100120122C5410012012237420012CB
:100FC3000122704300120122EE7F00120122ECBBCA
:100FD30003120122B7BE03120122DCFF0212012217
:100FE300DAD203120122EAD20312012204D303123A
:100FF3000122A1D303120122F2B50312012296B6F4
:1010030003120122D8B803120122F2D003120122E3
:1010130019D1031201227CD103120122CFD1031271
:10102300012230C40312012255C4031201227AC4DF
:1010330003120122A2C403120122D2C40312012209
:1010430068C50312012290C50312012223870312EC
:101053000122208903120122A68903120122AB8AED
:10106300031201226F8B03120122ED8B0312012263
:10107300D08C03120122D38C03120122E18C0312C0
:101083000122FE8C03120122278D03120122508DAF
:10109300031201225E8D03120122768D03120122B7
:1010A300EBC80312012214C9031201223EC9031221
:1010B3000122FDC9031201221DCA031201227BCAA8
:1010C3000312012269B6021201227EB60212012224
:1010D300DAB60212012245B7021201228DB70212BB
:1010E3000122F7B70212012220B802120122FDBB2E
:1010F300021201220BBC021201226DBC0212012258
:10110300ABBC02120122C6BC0212012261BD021253
:10111300012206BE0212012289BE02120122C2BEB0
:10112300021201224DBF02120122A4BF02120122A8
:1011330002C00212012214C0021201223AC002129A
:10114300012243C00212012292C102120122E4CA07
:10115300031201224BCB03120122F6CB031201220D
:101163006CCC0312012261AF0312012294AF03126C
:10117300012292B003120122E4B103120122BBFE49
:101183000112012299FF0112012298C103120122C7
:10119300DDC10312012223C203120122ECC3031295
:1011A30001221BD60312012236D60312012246D690
:1011B300031201225AD403120122F4CC0212012297
:1011C300D0CD0212012217CE0212012254CE0212F6
:1011D3000122C2CE021201221CCF021201228CCFA5
:1011E300021201225CD0021201224BD1021201220F
:1011F300CFD1021201226BD302120122F6D30212C3
:10120300012286D4021201221FD50212012236D5F1
:101213000212012269D602120122BFD60212012252
:101223009CEB02120122BCEB0212012232ED0212EC
:10123300012280ED02120122A0ED0212012208EE2A
:10124300021201228AEE02120122D0EE02120122C0
:101253005CEF0212012278AE011201221FB30112C8
:10126300012210B60112012239B60112012262B61F
:101273000112012214B701120122F3B80112012253
:1012830045BA0112012291BF01120122CABF011204
:1012930001220EC0011201221AC101120122BCC691
:1012A30003120122CBC60312012243C703120122F8
:1012B300DBC703120122FAC70312012215C8031266
:1012C300012235C80312012275E1021201225CE2F8
:1012D300021201227EE40212012239E502120122E6
:1012E3004CE50212012277E50212012284E6021282
:1012F300012214E70212012240EB02120122848D23
:1013030003120122D48D03120122F18D0312012253
:101313008A8E03120122E28E0312012264900312C9
:1013230001224D930312012229D703120122F2D67F
:101333000312012255D7031201227ED703E0667000
:101343001008A3E066700A08A3E066700408A3E02F
:101353006622C3E7960809E7960809E7960809E7AE
:101363009622C3E09608A3E09608A3E09608A3E0BC
:101373009622C008C3E096F50808A3E09642080841
:10138300A3E096420808A3E09645087001D3D0086D
:1013930022080808EAC0E0EBC0E086F0E7A4FA18E8
:1013A3000986F0E7A42AFA180986F0E7A42AFA18AE
:1013B3000986F0E7A42AFA1986F0E7A4FBE5F02AE8
:1013C300FA190886F0E7A42BFBE5F03AFA19088628
:1013D300F0E7A42BFBE5F03AFA18180986F0E7A426
:1013E300C5F02BFBE43AFA1908E7C5F0C6A426F6C4
:1013F300E5F03BFBE43AFA1886F0E7A4F6E5F008DB
:1014030026F6E43B08F6E43A08F6D0E0FBD0E0FA2F
:1014130022E4CFC0E0E4CEC0E0E4CDC0E0E4CCC041
:10142300E075F020E626F608E633F608E633F6081C
:10143300E633F6181818EC33FCED33FDEE33FEEF0C
:1014430033FFC3EC9709ED9709EE9709EF97191945
:1014530019400FFFEC97FC09ED97FD09EE97FE1974
:101463001906D5F0BFECF709EDF709EEF709EFF729
:10147300191919D0E0FCD0E0FDD0E0FED0E0FF2246
:101483006016080808C6C313C618C613C618C613C1
:10149300C618C613C6D5E0EA2270090808082260F8
:1014A30016181818C6C333C608C633C608C633C6CB
:1014B30008C633C6D5E0EA22E627F60809E637F67A
:1014C3000809E637F60809E637F622E026F608A308
:1014D300E036F608A3E036F608A3E036F622E02667
:1014E300F008A3E036F008A3E036F008A3E036F0F6
:1014F30022C3E697F60809E697F60809E697F60881
:1015030009E697F622C3E096F008A3E096F008A355
:10151300E096F008A3E096F022E657F60809E657AE
:10152300F60809E657F60809E657F622E056F608E4
:10153300A3E056F608A3E056F608A3E056F622E029
:1015430056F008A3E056F008A3E056F008A3E056CF
:10155300F022E0F608A3E0F608A3E0F608A3E0F61D
:1015630022E6F008A3E6F008A3E6F008A3E6F022DB
:10157300E0FAA3E0FBA3E0FCA3E0FD22EAF0A3EB87
:10158300F0A3ECF0A3EDF022E0F8A3E0F9A3E0FA76
:10159300A3E0FB22E8F0A3E9F0A3EAF0A3EBF02237
:1015A300CAC0E0E6F0A308DAFAD0E0FA22CAC0E043
:1015B300E0A3C582CCC582C583CDC583F0A3C58214
:1015C300CCC582C583CDC583DAE6D0E0CA22C3E4A5
:1015D30098F8E499F91216128026C3E49AFAE49B68
:1015E300FBE920E7E9121612E498F8E499F922C31B
:1015F300E498F8E499F9121612E498F8E499F9C317
:10160300E49AFAE49BFB22EB20E7CFE920E7E0B979
:101613000010BB0008E88AF084F8AAF022E4FBC8B3
:10162300FA22EB70227B10C833C8C933C933500781
:10163300C39AC3DBF280069A50012ADBEAC833F46B
:10164300C8C933F4C9FA2275F008E4C833C8C933EA
:10165300C933C99AC99B5004C92AC93BD5F0ECFBCD
:10166300C833F4C8E4C9FA22600D08C6A2E713C65A
:1016730018C613C6D5E0F322600C08C6C313C618F8
:10168300C613C6D5E0F422700422600D18C6C33316
:10169300C608C633C6D5E0F41822251810AF08F5DE
:1016A30018400C15198008F51840021519D2AF22FD
:1016B30000C0D0251810AF08F518500C0519800884
:1016C300F51850020519D2AFD0D0222518F5821093
:1016D300AF08F518400C15198008F51840021519C4
:1016E300D2AF851983222518F582E43519F58322B3
:1016F3002518F8E43519F9222518FAE43519FB22DF
:101703002518FCE43519FD22E4732518C582C0E0D1
:10171300E51934FFC583C0E0E518C3958224F810AA
:10172300AF088583198582188008858319858218F7
:10173300D2AFCEF0A3E520F0A37808E608F0A3DE4D
:10174300FAEFF0A3E58124FAF8E608F0A3E608F03F
:10175300A3E608F0A30808E608F0A3E608F0A3153B
:10176300811581D0E0FED0E0F8158115811581E85F
:10177300C0E0EEC0E0222518C582C0E0E51934FFC1
:10178300C583C0E0E518C3958224F910AF088583AB
:10179300198582188008858319858218D2AFCEF007
:1017A300A3E520F0A37808E608F0A3DEFAEFF0A3A0
:1017B300E58124FBF8E608F0A3E608F0A30808E6B1
:1017C30008F0A3E608F0A315811581D0E0FED0E070
:1017D300F815811581E8C0E0EEC0E0228519838504
:1017E3001882E0A3FEE0A3F5207808E0A3F608DF63
:1017F300FAE0A3FFE0A3C0E0E0A3C0E0E0A3C0E001
:10180300E0A3C0E0E0A3C0E010AF088582188583A1
:10181300198008858218858319D2AFD083D08202BC
:10182300011F851983851882E0A3FEE0A3F52078C4
:1018330008E0A3F608DFFAE0A3FFE0A3C0E0E0A31B
:10184300C0E0E0A3C0E0E0A3C0E010AF08858218C9
:101853008583198008858218858319D2AFD083D0F8
:101863008222C0D02518C582C0E0E51934FFC583A4
:10187300C0E0E518C3958224F310AF08858319856A
:1018830082188008858319858218D2AFC8F0A3E92E
:10189300F0A3EAF0A3EBF0A37908E709F0A3D8FAE1
:1018A300ECF0A3EDF0A3EEF0A3EFF0A3D0E0F0A3F0
:1018B300D0E0F0A3D0E0F0A3E520F0A3E5F0F0A39F
:1018C30022851983851882E0C0E0A3E0F9A3E0FA3A
:1018D300A3E0FBA37808E0F608A3DFFAE0FCA3E0AB
:1018E300FDA3E0FEA3E0FFA3E0C0E0A3E0C0E0A30C
:1018F300E0F5D0A3E0F520A3E0A3F5F010AF088551
:1019030083198582188008858319858218D2AFD000
:1019130082D083D0E0F8D0E0327404800674028071
:10192300027401C0E0F4041216CED0E01215A32213
:101933007404800474028000CCC0E0EDC0E0E518BC
:10194300C39CCCAD1950011D10AF068C188D1980A6
:10195300068C188D19D2AF1215B0D0E0FDD0E0FC83
:1019630022D083D082E9C0E0E493A3C386F0C5F01C
:1019730095F0F908E493A386F0C5F095F0700BE4B5
:1019830093A3C3994005E9048002A3E475F002A47C
:101993002582F582E5F03583F583D0E0F9E493A35E
:1019A300C0E0E493C0E022D083D082ECC0E0EDC07D
:1019B300E0E493A3FCE493A3FDED4C600D1219F650
:1019C300EC24FFFCED34FFFD80EFE493A3FCE493F0
:1019D300A3FDED4C600D121A35EC24FFFCED34FF32
:1019E300FD80EFD0E0FDD0E0FCE493A3C0E0E493FE
:1019F300C0E022C0E0C3E4939608740193961840B4
:101A03000FE49366700808740193661870007019E8
:101A1300A3A3C3E49396087401939618A3A3400D5C
:101A2300D0E0D0E0D0E00219E6A3A3A3A3A3A3D000
:101A3300E022C0E0C0F088F0E49366700808740107
:101A43009366187000A8F0A3A3700BD0F0D0E0D079
:101A5300E0D0E00219E6A3A3D0F0D0E02274F5129F
:101A63001779EAFEEBFFEE2434F8EF3400F9880827
:101A73008909EE2435F582EF3400F583E0F8EE248E
:101A830037F582EF3400F583E0F50AEC850AF0A41C
:101A9300FCAAF0850AF0EDA42AFDE82CF8E43DF950
:101AA3007A257B00121612EA850882850983F0F8ED
:101AB300740758F97401B900028004C333D9FCFADE
:101AC300E8131313541FF8EE28F8EF3400F9E82451
:101AD3005DF582E93400F583E05A6008EE2434F5BD
:101AE30082EF802CEE2434F582EF3400F583E0C0DE
:101AF300E0EE2436F582EF3400F583E0F5F0D0E034
:101B030084A8F0EE28F8EF3400F9E82438F582E9E8
:101B13003400F583E0F97F0402182574F512177970
:101B2300EAFEEBFFEE2434F582EF3400F583E0C0E8
:101B3300E0EE2435F582EF3400F583D0E0F08E82B9
:101B43008F83A3A3A3A3A3A3A3C082C0838E828FE7
:101B530083A3A3A3A3A3E0F8A3E0F9D083D082E0F7
:101B6300C398F508A3E099F509EE247FF582EF34D5
:101B730000F583E064017069EE2480F582EF3400A0
:101B8300F583E0F8A3E0F98E828F83A3A3A3A3A335
:101B9300A3A3E0FCA3E0FD8E828F83A3A3A3A3A34F
:101BA300E0FAA3E0FBC3EA9CEB9D5010C3EC98ED75
:101BB30099402EC3EA98EB995027800EC3EA98EB1D
:101BC300994007C3EC98ED9940177CDC7D04EEFA4D
:101BD300EFFB120ADCEE247FF582EF3400F583E499
:101BE300F0EE2434F8EF3400F9E8FCE9FDEE243597
:101BF300F582EF3400F583E0F8EE2437F582EF3415
:101C030000F583E0F50AE508850AF0A4F508AAF0D3
:101C1300850AF0E509A42AF509E82508F8E4350959
:101C2300F97A257B00121612EA8C828D83F0F87400
:101C33000758F97401B900028004C333D9FCFAE8E8
:101C4300131313541FF8EE28F8EF3400F9E8245D5A
:101C5300F582E93400F583E05A6008EE2434F58216
:101C6300EF802CEE2434F582EF3400F583E0C0E0FE
:101C7300EE2436F582EF3400F583E0F5F0D0E0840E
:101C8300A8F0EE28F8EF3400F9E82438F582E934B7
:101C930000F583E0F9122575021B19C082C0838504
:101CA3001882851983E0F8A3E0F9C3EA9CEB9D5001
:101CB30010C3EC98ED99401BC3EA98EB995014803C
:101CC3000EC3EA98EB994007C3EC98ED9940047969
:101CD3000180027900D083D08222EAC39CFAEB9D73
:101CE300FB2274EF1217799003A2E064086005E009
:101CF3006407702A9061C8E060249003D0E0F46028
:101D03001DE0F875F003A4C8AAF02AF974D228FEDE
:101D1300740339FF8E828F83A3A3A3E07003021E93
:101D230015906060E0C0E0EE2468F582EF3400F5C2
:101D330083D0E0F0750C45750D0575080075090035
:101D4300E5D914F50AE5D95403F50E601774036554
:101D53000E605CE50A6010EE2467F582EF3400F54F
:101D630083E07003021DFA900540E06401602AEEEF
:101D73002482F582EF3400F583E060047804800266
:101D83007800850A08E508C398FA95E0FB1209A4D0
:101D93008A088B09EA45097005120CD48074EE2475
:101DA30082F582EF3400F583E070048A0C8B0DE535
:101DB3000A6012850C82850D83F50BE5D9F0A31516
:101DC3000BE50B70F6EE2482F582EF3400F583E029
:101DD300604474FC250AF50A780C121920AC0AA990
:101DE3000EEEFAEFFB120B7E74021216B3E97026A5
:101DF300AA08AB09121154793D8E828F83A3A3A342
:101E0300A3E0FA7B00120878EEFAEFFB120AF41251
:101E13000B90790080747403650E6056850A107503
:101E230011007810121920AC0CAD0DAA08AB0912E1
:101E33000B5A74021216B3EE2468F582EF3400F5E0
:101E430083E064807004747F8001E0F50C780C12E9
:101E53001924E50EF50C780C121924A90AAC08AD67
:101E6300099003D0E0FA7B0012083C74021216B307
:101E730080139003A2E06408600BAC0CAD0DEEFA86
:101E8300EFFB120BEA120CE079017F0A02182574AA
:101E9300F512177974FC12169DEAFEEBFF8908A26E
:101EA300AFE433F509C2AF806AEE2463F8EF340080
:101EB300F97A007B00A2AFE433F50AC2AF888289C6
:101EC30083E0FCA3E0FDEC4D603A88828983E0FA6D
:101ED300A3E0FB8A828B83E0FCA3E0FD88828983F5
:101EE300ECF0A3EDF08A828B83E4F0A3F08882897F
:101EF30083E0FCA3E0FDEC4D700A88828983A3A3F1
:101F0300E4F0A3F0E50AA2E092AF1211549004E3C7
:101F1300E004F0EE2463F582EF3400F583E0F8A3E8
:101F2300E0F9E849603DEE2463F582EF3400F58380
:101F3300E02402FAA3E03400FBEA2402F50AEB34BE
:101F430000F50B780A1219208A828B83E0FCA3E048
:101F5300F9EEFAEFFB120B1874021216B3E97003D1
:101F6300021EAC9004E3E060639004E4E0F89004A4
:101F7300E3E0C398500C7402650870509004E5E0E8
:101F8300604A8E828F83A3A3A3A3E0851882851959
:101F930083F0A3E4F09004E3E0F874021216E9E896
:101FA300F0A3E4F09004E3E0F89004E2E028F07496
:101FB300021216E9AC82AD83851882851983AA8241
:101FC300AB8379011208489004E3E4F0E509A2E049
:101FD30092AF74041216B3021B1900000085218707
:101FE3008522C622C0E0C0D0E8C0E0E9C0E0EAC074
:101FF300E0EBC0E0ECC0E0EDC0E0EEC0E0C008C044
:1020030009C00AC00BC082C083C0F0A2AFE433FE94
:10201300C2AF759B00906182E0A2E05012E591A2ED
:10202300E0500C7591FE740165217003121CE5E00C
:10203300A2E55051E591A2E5504B7591DF9003A2C3
:10204300E064076005E0640870237401652170355E
:1020530079019003D0E0FA75F003A4CAA8F028FB35
:1020630074D22AFA74033BFB121E928018E0640DAB
:1020730070139003C4E004F064287002E4F07A0063
:10208300E0F9120CE6906182E0A2E6400302212E01
:10209300E591A2E6400302212E7591BF9003A2E0D1
:1020A30064057008120C14120C208003120C1A75AC
:1020B3002100120C74E99003A3F07900120C68124A
:1020C3000A527A017B009003A1E0F912112490785F
:1020D30003E064427055900544E014F0704DC2AFC4
:1020E3001220E600782AD0E0F618D0E0F6E59F54F7
:1020F3000770057509FF800375097FC4C0E078295F
:10210300E6F50808E65509F509740B780812167BFD
:10211300D0E02508F8906270E0A2E740F8E8C33306
:10212300906272F0906270E0D2E0F0906181E0A280
:10213300E35009E5E9A2E3500375E9F7A3E0A2E759
:102143005009E591A2E7500375917FEEA2E092AFAB
:10215300D0F0D083D082D00BD00AD009D008D0E001
:10216300FED0E0FDD0E0FCD0E0FBD0E0FAD0E0F917
:10217300D0E0F8D0D0D0E032C0E0C0D0C082C0837D
:10218300906183E0A2E05009E5BFA2E0500375BF70
:10219300FEE0A2E15009E5BFA2E1500375BFFDE0F7
:1021A300A2E25009E5BFA2E2500375BFFBE0A2E340
:1021B3005009E5BFA2E3500375BFF7E0A2E450095D
:1021C300E5BFA2E4500375BFEFE0A2E55009E5BF08
:1021D300A2E5500375BFDFE0A2E65009E5BFA2E622
:1021E300500375BFBFD083D0828088C0E0C0D0E8E1
:1021F300C0E0E9C0E0EAC0E0EBC0E0ECC0E0EDC065
:10220300E0C0F0E5A7A2E6500FE5A1A2E65009530E
:10221300A7BF75A1BF122253E5A7A2E5500CE5A104
:10222300A2E5500653A7DF75A1DFE5A7A2E1500998
:10223300E5A1A2E1500375A1FDE5A7A2E2500CE5DB
:10224300A1A2E2500653A7FB75A1FBD0F0022164C3
:1022530074F81217797521019003A2E064067015D2
:10226300120BAE8A828B83A3A3A3A3A3A3E0FAA337
:10227300E0FB120C02A2AFE433FED2AF9003A8E05E
:10228300640170187A207B009003A1E0F9121244D4
:102293007A207B009003A1E0F912112A906182E079
:1022A300D2E6F0900541E0602185C62280169003B6
:1022B300A7E064017008E5C654F84405F5C653BEAB
:1022C300FC121FE07401652160E4EEA2E092AF7F8F
:1022D30001021825008E238F248582288583278574
:1022E3001882851983E0CEA3E0CF852882852783D2
:1022F300EBC9EAC8EDCBECCA75F010C3E833C8E903
:1023030033C9EA33CAEB33CBC3EA9EF526EB9FF519
:1023130025B35004AB25AA26EC33CCED33CDD5F051
:10232300DAAE23AF242274ED1217798A088B098C55
:102333000A8D0B74131216E9780C12155578087967
:102343000C1213557510017511C875120075130021
:1023530050127808790C1214F47810790812135576
:1023630050168010780C79081214F47810790C1236
:10237300135540047901800279007F0C02182574FB
:10238300ED1217798A088B098C0A8D0B74131216B8
:10239300E9780C121555780C790812135540117809
:1023A30008790C1214F4AA08AB09AC0AAD0B80220D
:1023B3007510007511007512007513017810790CF2
:1023C3001214F4781079081214BBAA10AB11AC12D2
:1023D300AD1380A68A828B837508FF7509FF750A82
:1023E300FF750B0078081215427F0402182574F557
:1023F3001217798C828D8378081215558A828B8304
:102403007808121508EA2404F8EB3400F98C828D5D
:1024130083A3A3A3A3E0FCA3E0FD88828983C3E095
:102423009CF0A3E09DF088828983C3E09420A3E01D
:10243300944E40268A828B837508FF7509FF750ABF
:10244300FF750BFF78081214E18A828B83A3A3A381
:10245300A3E02420F0A3E0344EF00223D774F51256
:102463001779E9FE9004F7E0FAA3E0FBEEC333F833
:10247300E433F9740828F582748439F583E02AF586
:1024830008A3E03BF50978081219207A407B427CC7
:102493000F7D001222D874021216B38A088B098C9E
:1024A3000A8D0B74107808121483AA08AB097F04F1
:1024B30002182574F11217798A0C8B0D8C0E8D0F6F
:1024C300740F1216E9E0FAA3E0FB74111216E9E0A7
:1024D300F508A3E0F5097808121920EA2401F508A4
:1024E300EB3400F509E4F50AF50B780C79081213BF
:1024F30094750871750902780C7908121394AA0C63
:10250300AB0DAC0EAD0F1222D874021216B38B09A9
:10251300EA450960047A0180027A00EC2AFCED3472
:1025230000FD74131216E9E0F8A3E0F9E8FEE9FFF1
:10253300ECF8EDF97A717B02121612880889098E7C
:10254300828F837808121564ECF8EDF97A717B02B7
:102553001216128A088B097405780812168A8E825D
:102563008F83A3A3A3A3E508F0A3E509F07F0802E3
:102573001825C082C083E9906000F0D083D0822206
:10258300C0E074F2121865A2AFE433FED2AFC2C04A
:10259300E5D1A2E4500653D1EF12109AEEF8EEA261
:1025A300E092AF7F010218C4C0E074F2121865A272
:1025B300AFE433FED2AFE58AA2E3500312101C75D9
:1025C3008A00C2EBEEF8EEA2E092AF7F010218C4DC
:1025D300C0E0C0D0E8C0E0E9C0E0A2AFE433F8D285
:1025E300AFC2C7E8F9E8A2E092AFD0E0F9D0E0F8D3
:1025F300D0D0D0E032C0E0C0D0E8C0E0E9C0E0EA2B
:10260300C0E0C082C083A2AFE433FAD2AF9009B571
:10261300E0F89009B6E068700B539AFB9009B77421
:1026230001F0802CC2E99009B5E0F8740128900903
:10263300B5F07900743528F582740939F583E0F52E
:10264300C19009B5E0C3948040069009B57400F0C9
:10265300EAF8EAA2E092AFD083D082D0E0FAD0E0E9
:0F266300F9D0E0F8D0D0D0E032C2AF02000022B0
:10267400FFFFFFFFFFFFFFFF74F012170D74F81246
:10268400169D8A0E8B0FE9FF8C0C8D0D7E00850E36
:1026940008850F0978081219640004105A29C42601
:1026A400E726062729274C276F27A027C327DA27E1
:1026B4000A28BB28DE2801292F295A295A29332818
:1026C40074016F7019850C82850D83E0C3940350E7
:1026D4000D850C82850D83E0900C90F080027E18AD
:1026E40002298274026F7015850C82850D83E0F8CF
:1026F400A3E0F9900C91E8F0A3E9F080027E1802BF
:10270400298274016F7019850C82850D83E0C3944E
:1027140002500D850C82850D83E0900749F08002FC
:102724007E1802298274016F7019850C82850D83CD
:10273400E0C39405500D850C82850D83E090074A13
:10274400F080027E1802298274016F7019850C8250
:10275400850D83E0C39402500D850C82850D83E0C2
:1027640090074BF080027E1802298274106F702744
:102774007508107509007808121920AC0CAD0D7A93
:102784004C7B071210CA74021216B38A088B09858F
:10279400088285098380027E1802298274016F7081
:1027A40019850C82850D83E0C39402500D850C823B
:1027B400850D83E090075CF080027E180229827404
:1027C400016F700D850C82850D83E0900C94F08070
:1027D400027E1802298274046F702690851478088A
:1027E400121555850C82850D8378081213655011D6
:1027F400850C82850D8312158B90075E12159780C8
:10280400027E18022982EF70211205F6E970131274
:102814000F6EE9F509795012121AE9F508120F5CE6
:10282400800A9007F17401F080027E1802298274F4
:10283400076F707E750806750900780812192085DF
:102844000C82850D83A3AC82AD8374041216FB1233
:1028540010D074021216B3851882851983EAF0A386
:10286400EBF07C007D0074021216FB850C82850D52
:1028740083E0F9120F02E9F50AE50AC3940A502E1F
:102884001205F6E97015A90A120F74E9F5097950D1
:1028940012121AE9F508120F5C8019A80A7900745B
:1028A400F228F582740739F5837401F080067E02FC
:1028B40080027E1802298274016F7019850C82854A
:1028C4000D83E0C39402500D850C82850D83E09046
:1028D400075DF080027E1802298274016F701985E9
:1028E4000C82850D83E0C3940A500D850C82850DFE
:1028F40083E0900C93F080027E1802298274016FA9
:102904007025850C82850D83E0C394074019850CDE
:1029140082850D83E0C39411500D850C82850D834F
:10292400E0900C95F080577E18805374016F7022EC
:102934009007F0E0F508850C82850D83E09007F0A0
:10294400F0E50870399007F0E064017031120F5C13
:10295400802C7E188028C3E50E9427E50F94005040
:102964001B74026F7016850C82850D83E0FCA3E056
:10297400FDAA0EAB0F120494E9FE80027E02EEF96A
:1029840074081216B37F080217DF74F012170D745F
:10299400D712169DE9C0E0851882851983D0E0F02E
:1029A40074011216E9EAF0A3EBF08C0E8D0F9084FB
:1029B400DE740312170374061215B074031217039E
:1029C40074011216E9E0FAA3E0FB851882851983E5
:1029D400E0F9120F02E9FEEEC3940A4003022B1D34
:1029E400EEF9120F3EE9FF900C90E064027004745B
:1029F4000180027400F5087808121924743A12163A
:102A0400E9E0FDEFFCEEF9AA0EAB0F120FB0740172
:102A14001216B37C147D00790074151216FB121083
:102A2400E28A088B0985080A85090B7415121703B5
:102A34007A1075F006EEA42424F9121214E9703CFD
:102A44007C1079FF74151216FB121148E9702D746D
:102A5400251216E9AC82AD837A0475F006EEA4243F
:102A640025F9121214E9F5087415121703EFA2E000
:102A7400E433F9AA0EAB0F12051EE9F87409121714
:102A8400037A0C74702EF9121214E9707974091215
:102A940016FB120F32750800E508C394045067A8AA
:102AA400087900E875F003A4C8AAF075F000A42A18
:102AB400FA75F003E9A42AF974091216E9E58228E3
:102AC400F50CE58339F50D850C82850D83E0F8A3BB
:102AD400E0F9E849602C850C82850D83A3A3E0F519
:102AE4000A750B00780A121920850C82850D83E083
:102AF400FCA3E0FDAA0EAB0F12078274021216B3F8
:102B0400E9F805088092EFA2E1500E900748E0F939
:102B1400AA0EAB0F120788E9F874391216E9E064BB
:102B240004700F900C90E064027007AA0EAB0F12B1
:102B34000FAA790074291216B37F080217DF74F202
:102B440012170D890B8A088B09ECFEEDFF750A0A32
:102B5400E50B600B14600814604114605F807DAA6B
:102B640008AB09120F50E9F50AE50AC3940A506C40
:102B7400EE4F6068750C06750D00780C121920ACC8
:102B840008AD09EEFAEFFB1210CA74021216B38AEA
:102B94000C8B0D850C82850D838041AA08AB09122C
:102BA4000F4AE9F50AE50AC3940A5030EE4F602C47
:102BB400EEFAEFFBA90A120F44E98020AA08AB0938
:102BC400120F56E9F50AE50AC3940A500FEE4F6056
:102BD4000BEEFAEFFBA90A120F44E9F8A90A7F06E3
:102BE4000217DF74F212170D8A0C8B0DE9FF7E15A4
:102BF40074FF650C700474FF650D702A750800E598
:102C040008C3940A5014EFFC7A027B00A908120F3F
:102C140020E960027E00050880E5EF60627A987B17
:102C24000F1209868059AA0CAB0D1209688A088B09
:102C34000985080A85090BE50A450B60407C007D7F
:102C440000E50A2405FAE4350BFB850A82850B832B
:102C5400A3A3A3A3E0F9120F02E9F508E508C394BE
:102C64000A500EEFFC7A027B00A908120F20E97EBD
:102C740000EF600BAA0AAB0B120F9880027E14EED1
:102C8400F97F060217DF74F012170D74FE12169DF9
:102C9400851882851983EAF0A3EBF08C0A8D0B74F6
:102CA400121216E9E0F50EA3E0F50F7E15851882E1
:102CB400851983E064FF7004A3E064FF701D7F0046
:102CC400EFC3940A506BAC0EAD0FAA0AAB0BEFF92D
:102CD400120F26E960027E000F80E58518828519AF
:102CE40083E0FAA3E0FB1209688A0C8B0D850C08BB
:102CF400850D09E508450960367C007D00E508245A
:102D040005FAE43509FB850882850983A3A3A3A3F7
:102D1400E0F9120F02E9FFEFC3940A5014AC0EADB0
:102D24000FAA0AAB0BEFF9120F26E97E0080027E90
:102D340014EEF974021216B37F080217DF74F71247
:102D4400170DEAFEEBFF900762EEF0A3EFF0900799
:102D540048E0FC7D007A267B00120494E9F5089093
:102D64000748E0F91206FE7F010217DF74F212171A
:102D74000D74EC12169D8A0A8B0B850A82850B83CF
:102D8400A3A3E024FA70030231B824FD70030230D7
:102D94002C147003022E6014601024FD7003022FA3
:102DA400D4147003023070023220AE0AAF0B9007C5
:102DB40062E0F8A3E0F9E8496066900762E0F8A3EE
:102DC400E0F5838882E0F8A3E0F9E8496052EE2454
:102DD4000CF582E43FF583E0F5087808121924EE37
:102DE400240BF582E43FF583E0F98E828F83A3A35D
:102DF400A3A3A3A3A3A3A3E0FCA3E0FDEE2403FAEF
:102E0400E43FFB900762E0F8A3E0F5838882E0F8F2
:102E1400A3E0F583888212170B74011216B380396C
:102E24008E828F83A3A3A3A3A3A3A3A3A31219375F
:102E340090075E12157312053074021216B3E9601E
:102E44001879018E828F83A3A3A3A3A3A3A3A3A30F
:102E5400E0FAA3E0FB12052AE9023220AE0AAF0B26
:102E64008E828F83A3E06003022F828E828F83A3DE
:102E7400A3A3A3A3E0A2E04003022F829007FCE0F7
:102E8400F8A3E0F9E8496003022F827C0E7D007903
:102E940000AA18AB191210E28A088B09AA08AB0918
:102EA400EE240CF582E43FF583E0F8A3E0F9E84969
:102EB40060367508067509007808121920EE240C8E
:102EC400F582E43FF583E02410FCA3E03400FD74B4
:102ED400021216FB1210CA74021216B38A088B0966
:102EE400850882850983804F8E828F83A3A3A3E004
:102EF400FAA3E0FB1209688A0C8B0D850C08850D7A
:102F040009E5084509602D750C06750D00780C124D
:102F14001920E5082405FCE43509FD74021216FBAA
:102F24001210CA74021216B38A0C8B0D850C82859A
:102F34000D8380030232208E828F83A3A3A3A3A3D5
:102F4400E0A2E25004D2F08002C2F0A2F0E433F82E
:102F54007900740C1216E9E048F0A3E049F0EEFCA5
:102F6400EFFDAA18AB19120F38E970127A027B0030
:102F7400900748E0F9121124E979000232229007FF
:102F840062E0F8A3E0F9E8496043900762E0F8A33F
:102F9400E0F5838882A3A3E0F8A3E0F9E849602D73
:102FA4008E828F83A3E0FC79018E828F83A3A3A3F7
:102FB400E0FAA3E0FB900762E0F8A3E0F5838882DF
:102FC400A3A3E0F8A3E0F583888212170B02322052
:102FD400AE0AAF0B900762E0F8A3E0F9E849604558
:102FE400900762E0F8A3E0F5838882A3A3E0F8A346
:102FF400E0F9E849602F850A82850B83A3E0FC7918
:10300400028E828F83A3A3A3E0FAA3E0FB9007625E
:10301400E0F8A3E0F5838882A3A3E0F8A3E0F583B6
:10302400888212170B023220850A08850B097C005E
:103034007D00E5082404FAE43509FB850882850946
:1030440083A3A3A3E0F9120F02E9FEEEC3940A508E
:1030540018E508240AFCE43509FD7A0475F006EE47
:10306400A42425F912120EE9F8023220AE0AAF0B9D
:1030740090075DE06019900C93E0F98E828F83A332
:10308400A3A3E0FAA3E0FB12052AE9F80232209098
:103094000C90E0701679058E828F83A3A3A3E0FAC7
:1030A400A3E0FB12052AE9F80232208E828F83A363
:1030B400A3A3E0FAA3E0FB1209688A0C8B0D850C2C
:1030C40008850D098E828F83A3A3A3A3A3A3A3E0E2
:1030D400A2E05072E5084509606985088285098384
:1030E400A3A3A3A3E0605F8E828F83A3A3A3A3A360
:1030F400A3A3A3A3E0F8A3E0F9E8C4540FF879006C
:10310400E85401F8E95400F9E8A2E04039740E12D9
:103114001703E5082405FAE43509FB8508828509C7
:1031240083A3A3A3A3E0F9120F02E9701979038E14
:10313400828F83A3A3A3E0FAA3E0FB12052AE9F894
:10314400023220023220EE2405FCE43FFD85088291
:10315400850983A3A3A3A3E0F98E828F83A3A3A3EA
:10316400E0FAA3E0FB120FA4900762E0F8A3E0F9F1
:10317400E849603E900762E0F8A3E0F5838882A303
:10318400A3E0F8A3E0F9E84960287C0079008E8286
:103194008F83A3A3A3E0FAA3E0FB900762E0F8A364
:1031A400E0F5838882A3A3E0F8A3E0F58388821284
:1031B400170B80681205F6E970629007F1E064016C
:1031C400701A120F6EE9FE9007F17400F07C0A7D0C
:1031D4000079007AF27B071210E280367E00EEC39B
:1031E400940A502EEEF8790074F228F582740739A7
:1031F400F583E064017018EEF9120F74E9FAEEF841
:10320400790074F228F582740739F5837400F00E9E
:1032140080CC795012121AE9FE120F5C79017414F1
:103224001216B37F060217DF74F512170D74F2122B
:10323400169D8908EAFEEBFF8C09AC18AD197A0ECD
:1032440075F006E508A42420F9121214E9705F7CD5
:103254000679FFAA18AB19121148E97051740C12BF
:1032640016E9E0F8A3E0F9E8F50AE5096005EE429D
:103274000A8004EEF4520AA80A7900740C1216E9C2
:10328400E0687003A3E0696021A80A7900740C1255
:1032940016E9E8F0A3E9F0AC18AD197A0E75F0065A
:1032A400E508A42420F912120EE9790180027900BC
:1032B400740E1216B37F030217DF74F012170D7425
:1032C400E612169D89098A0E8B0FECFEEDFF740C35
:1032D4001217037A0E75F006E509A42420F91212D8
:1032E40014E960030233EE7C0679FF740C1216FBBA
:1032F400121148E960030233EEAC18AD197A0C746C
:10330400702509F9121214E960030233EA75080002
:10331400AA18AB19120F32E50E450F702E7C0C79EA
:1033240000AA18AB19121148E960030233D07C0CCF
:103334007D007900AA18AB191210E28A0A8B0B855A
:103344000A82850B837508010233D0AC18AD19AA23
:103354000EAB0F120F2C8A0C8B0D850C0A850D0BEE
:10336400E50A450B7030EE4F601BAC18AD197A00BE
:103374007B00120F2C8A0C8B0DA80CA90D880A89CE
:103384000BE849700479008063850A82850B83E524
:103394000EF0A3E50FF0850A82850B83A3A3E0F862
:1033A4007900EE687002EF696022EEC0E0850A825F
:1033B400850B83A3A3D0E0F0EE4F700D850A8285C0
:1033C4000B837400F0A37400F0750801E50860161F
:1033D400AA18AB19120F32AC18AD197A0C747025F7
:1033E40009F912120EE9790180027900741A121691
:1033F400B37F080217DF74F712170DEAFEEBFF7AAA
:1034040000EAC39404504EEAF87900E875F003A486
:10341400C8ABF075F000A42BFB75F003E9A42BF9FD
:10342400EC28F582ED39F583E06E7003A3E06F704C
:1034340021EAF87900E875F003A4C8AAF075F00051
:10344400A42AFA75F003E9A42AF9EC28FAED39FB69
:1034540080070A80AC7A007B007F010217DF74F7D3
:1034640012170D7C00ECC394044003023511ECF8F0
:103474007900E875F003A4C8ADF075F000A42DFD43
:1034840075F003E9A42DF9EA28F582EB39F583E018
:10349400F4FEA3E0F4FFECF87900E875F003A4C8A7
:1034A400ADF075F000A42DFD75F003E9A42DF9EA43
:1034B40028F582EB39F583EEF0A3EFF0ECF8790010
:1034C400E875F003A4C8ADF075F000A42DFD75F007
:1034D40003E9A42DF9EA28F582EB39F583A3A3E0E7
:1034E400F4C0E0ECF87900E875F003A4C8ADF07519
:1034F400F000A42DFD75F003E9A42DF9EA28F58266
:10350400EB39F583A3A3D0E0F00C0234697F010208
:1035140017DF74F012170D74F412169DEAFEEBFF18
:103524008C088D099007FCE0F8A3E0F9E849702CB9
:10353400EE4F6006E5084509700579010237C2EED1
:10354400FAEFFB120F50E9900C96F0900C96E0C342
:10355400940A4008120F62E9900C96F0900C96E0E1
:10356400C3940A40030237C09007FCE0F8A3E0F9D3
:10357400E849600302360CEEFCEFFD7A0E75F006A6
:10358400900C96E0A42420F912120EE9F50B7C0CA1
:103594007D0079FFAA18AB191210E28A0C8B0D85F5
:1035A4000C0E850D0FAC18AD197A0C900C96E02416
:1035B40070F912120EE9F50A750C0E750D00780CEF
:1035C400121920EEFCEFFD900C96E0F87900E875F6
:1035D400F00EA4C8AAF075F000A42AFA75F00EE95A
:1035E400A42AF9746428FA740739FB1210CA740205
:1035F4001216B38A0C8B0DA80CA90D9007FCE508D4
:10360400F0A3E509F00237BC9007FCE0F8A3E0C89A
:103614002406F582C83400F583E0F8A3E0F9E8490C
:1036240060439007FCE0F8A3E0C82406F582C834A0
:1036340000F583E0FCA3E0FD7A1B75F006900C9680
:10364400E0A42421F912120EE9F89007FCE0F9A392
:10365400E0C92406F582C93400F5837400F0A3742C
:1036640000F00237BC9007FCE0F8A3E0C8240AF598
:1036740082C83400F583E0F8A3E0F9E84960439098
:1036840007FCE0F8A3E0C8240AF582C83400F583F7
:10369400E0FCA3E0FD7A1B75F006900C96E0A424F0
:1036A40022F912120EE9F89007FCE0F9A3E0C9240C
:1036B4000AF582C93400F5837400F0A37400F002A3
:1036C40037BC9007FCE0F8A3E0C8240CF582C834AA
:1036D40000F583E0F8A3E0F9E84960439007FCE0D3
:1036E400F8A3E0C8240CF582C83400F583E0FCA3F9
:1036F400E0FD7A1075F006900C96E0A42423F912EC
:10370400120EE9F89007FCE0F9A3E0C9240CF58255
:10371400C93400F5837400F0A37400F00237BC9040
:1037240007FCE0F8A3E0C82408F582C83400F58358
:10373400E0F8A3E0F9E849606F9007FCE0F8A3E043
:10374400C82408F582C83400F583E0FCA3E0FD7AC0
:103754001075F006900C96E0A42424F912120EE9D8
:10376400F50A9007FCE0F8A3E0C82408F582C83401
:1037740000F583E02410FCA3E03400FD7A0475F026
:1037840006900C96E0A42425F912120EE9F890078D
:10379400FCE0F9A3E0C92408F582C93400F5837478
:1037A40000F0A37400F080109007F0E06003120FA3
:1037B400B6120F9E79018006790080027901740C9B
:1037C4001216B37F080217DF74F712170D74F21282
:1037D400169DE9FEAC18AD197A0E75F006EEA42418
:1037E40020F9121214E9700E740C1216E9E0F8A311
:1037F400E0F9E8F980027900740E1216B37F010231
:1038040017DF74F412170D74F212169D8909EAFE7B
:10381400EBFFE509C3940A5004EE4F70047902806B
:1038240041AC18AD197A0E75F006E509A42420F907
:10383400121214E9F508E5087026750A06750B00DE
:10384400780A1219207402121703EEFAEFFB121011
:10385400CA74021216B38A0A8B0B850A82850B83FB
:10386400A908740E1216B37F040217DF74F412173A
:103874000DEAFEEBFF750800E508C3940A50437592
:103884000A06750B00780A121920EEFCEFFDA80851
:103894007900E875F00EA4C8AAF075F000A42AFA1D
:1038A40075F00EE9A42AF9746A28FA740739FB1230
:1038B40010DC74021216B3E96004A9088006050836
:1038C40080B6790A7F040217DF74F412170DEAFE3A
:1038D400EBFF750800E508C3940A5043750A0675A2
:1038E4000B00780A121920EEFCEFFDA8087900E815
:1038F40075F00EA4C8AAF075F000A42AFA75F00EAB
:10390400E9A42AF9746428FA740739FB1210DC74E8
:10391400021216B3E96004A9088006050880B67986
:103924000A7F040217DF74F712170D74F012169D44
:10393400EAFEEBFF750800E508C3940A5039AC1899
:10394400AD197A1075F006E508A42423F9121214AF
:10395400E970207C1079FFAA18AB19121148E9709C
:1039640012EEFCEFFDAA18AB19120500E97004A9C8
:10397400088006050880C0790A74101216B37F0106
:103984000217DF74F412170D750800E508C3940AD2
:103994004003023A61A8087900E875F00EA4C8AAA9
:1039A400F075F000A42AFA75F00EE9A42AF97464FB
:1039B40028FC740739FD7A0E75F006E508A4242066
:1039C400F9121214E97003023A5C7C067D0079FF57
:1039D400AA087B00EA75F00EA4CAA8F075F000A44A
:1039E40028F875F00EEBA428FB74642AFA74073BDC
:1039F400FB1210E28A0A8B0BAE0AAF0B7C067D0029
:103A040079FFAA087B00EA75F00EA4CAA8F075F045
:103A140000A428F875F00EEBA428FB746A2AFA7443
:103A2400073BFB1210E28A0A8B0BAC0AAD0BA80809
:103A34007900E875F00EA4C8AAF075F000A42AFA7B
:103A440075F00EE9A42AF9747028F582740739F523
:103A5400837400F0A37400F0050802398F9007F016
:103A6400E06003120FB6120F9E7F040217DF74F793
:103A740012170D7E00EEC3940A50327C0679FFEED5
:103A8400FA7B00EA75F00EA4CAA8F075F000A42829
:103A9400F875F00EEBA428FB74642AFA74073BFB58
:103AA400121148E96004EEF980050E80C8790A7F96
:103AB400010217DF74F712170D7E007F00EFC39425
:103AC4000A50357C0679FFC9FDC9EFF87900E8751D
:103AD400F00EA4C8AAF075F000A42AFA75F00EE955
:103AE400A42AF9746428FA740739FBCDF9CD1211AC
:103AF40048E970010E0F80C5EEF97F010217DF74EB
:103B0400F712170D7E007F00EFC3940A500DEE707C
:103B14000AEFF9120F74E9FE0F80EDEEF97F01024E
:103B240017DF74F012170D74C912169DE9FE900C7C
:103B340096E06E701D7A017B00900748E0F912113F
:103B44002AE97A027B00900748E0F912112AE91267
:103B54000FC274291217037A0E75F006EEA42420FE
:103B6400F9121214E96003023C5A7C0679FF7429A5
:103B74001216FB121148E96003023C5A7C0E7D00C8
:103B840079FF74291216FB1210E2851882851983B5
:103B9400EAF0A3EBF07C1B7D0079FF740E1216FB98
:103BA4001210E28A0A8B0B850A0E850B0F7C0C7DA2
:103BB4000079FF74021216FB1210E28A0C8B0D8539
:103BC4000C0A850D0B74291217037A0E75F006EE94
:103BD400A42420F912120EE9F508740E1217037AC0
:103BE4001B75F006EEA42421F912120EE9420874A2
:103BF4000E1217037A1B75F006EEA42422F9121292
:103C04000EE94208740E1217037A1075F006EEA43A
:103C14002423F912120EE94208740E1217037A10C3
:103C240075F006EEA42424F912120EE94208740E6B
:103C34001217037A0475F006EEA42425F912120E65
:103C4400E9420874021217037A0C74702EF91212E6
:103C54000EE942088003750800A90874371216B3E8
:103C64007F080217DF74F712170DE9FEEE9007487C
:103C7400F0120F5C7F010217DF74F212170D890A2C
:103C8400EAFEEBFFEE5400F8EF5480F9E8496035A2
:103C9400900748E0F912110C8A0C8B0DA80CA90DA1
:103CA40088088909E8496012AA08AB09120F86E955
:103CB4006008AA08AB091210FAE9EE6400FAEF648E
:103CC40080FB023D81EE5402602D7C007D007A0071
:103CD4007B00120F38E960187A017B00900748E0F6
:103CE400F9121124E9EE6402FAEF6400FB023D814B
:103CF4007A027B00023D81EEA2E0507D9007FCE059
:103D0400F8A3E0F5838882A3A3A3E0FAA3E0FB125F
:103D14000FBCE9605E900762E0F8A3E0F9E849604F
:103D240045900762E0F8A3E0F5838882A3A3E0F856
:103D3400A3E0F9E849602F7C0079019007FCE0F8E2
:103D4400A3E0F5838882A3A3A3E0FAA3E0FB900792
:103D540062E0F8A3E0F5838882A3A3E0F8A3E0F58A
:103D640083888212170B120FC2EE6401FAEF64000B
:103D7400FB800A7A017B0080047A007B007F0602C4
:103D840017DF74F712170DEAFEEBFF7508018E8238
:103D94008F83E02450601314601924E1701CEEFA40
:103DA400EFFB120F1AE9F5088010EEFAEFFB120F81
:103DB4008C8007EEFAEFFB120F92A9087F0102171D
:103DC400DF74F712170DEAFEEBFF8E828F83A3A335
:103DD400A3A3E0641E701179008E828F83A3A3E0F5
:103DE400FAA3E0FB120F08E97F010217DF74F61251
:103DF400170D8A088B09850882850983A3A3A3A3C9
:103E0400E07034AE08AF098E828F83A3A3A3A3A36B
:103E1400A3A31219378E828F83A3A3A3A3A3E0FCC9
:103E2400A3E0FD8E828F83A3A3E0FAA3E0FB120F2D
:103E34000E74021216B3E97F020217DF74F7121729
:103E44000DEAFEEBFF900748E0F98E828F83A3E032
:103E5400FAA3E0FB120788E97F010217DFC082C0E2
:103E64008374FF12169D120F68E9C39402400B85F8
:103E740018828519837402F0800985188285198354
:103E8400740AF0AC18AD197A01790512060EE974BA
:103E9400011216B3D083D08202011F74F212170DDF
:103EA40074E812169D8A088B09E9FE8C0A8D0B7C36
:103EB400187D007900AA18AB191210E28A0C8B0D38
:103EC400AC0CAD0D851882851983E508F0A3E509CE
:103ED400F090074AE0C0E074021216E9D0E0F090D6
:103EE400074BE0C0E074031216E9D0E0F0900C95A3
:103EF400E0C0E074171216E9D0E0F074151216E968
:103F0400E054FEFAA3E054FFFB900C94E0A2E0E43A
:103F140033F87900EA48F8EB49F974151216E9E820
:103F2400F0A3E9F0900C94E0A2E15004D2F08002F6
:103F3400C2F074151216E9E054FDFAA3E054FFFB35
:103F4400A2F0E433F87900E828F8E933F9EA48F80C
:103F5400EB49F974151216E9E8F0A3E9F0900C9412
:103F6400E0A2E35004D2F08002C2F074151216E904
:103F7400E054F7FAA3E054FFFBA2F0E433F50C7528
:103F84000D007403780C12168AEA450CF8EB450D03
:103F9400F974151216E9E8F0A3E9F0900C94E0A284
:103FA400E45004D2F08002C2F074151216E9E05411
:103FB400EFFAA3E054FFFBA2F0E433F50C750D0017
:103FC4007404780C12168AEA450CF8EB450DF97462
:103FD400151216E9E8F0A3E9F0900C94E0A2E5507C
:103FE40004D2F08002C2F074151216E9E054DFFA2C
:103FF400A3E054FFFBA2F0E433F50C750D00740547
:10400400780C12168AEA450CF8EB450DF974151272
:1040140016E9E8F0A3E9F0900C94E0A2E25004D28F
:10402400F08002C2F074151216E9E054FBFAA3E022
:1040340054FFFBA2F0E433F50C750D007402780C08
:1040440012168AEA450CF8EB450DF974151216E9B7
:10405400E8F0A3E9F090074BE0602A750C10750DA9
:1040640000780C1219207C4C7D0774061216E9AAFC
:1040740082AB831210CA74021216B38A0C8B0D859C
:104084000C82850D8390075CE06011EE600E741560
:104094001216E9E04402F0A3E04400F090075CE06B
:1040A400600678017900800478007900741412168F
:1040B400E9E048F0900749E060067804790080045C
:1040C4007800790074141216E9E048F0AC0AAD0BDC
:1040D400AA18AB19120524E974181216B37F060244
:1040E40017DF74F712170DEAFEEBFF75080090074F
:1040F4005CE0600678017900800478007900E84289
:1041040008900749E0600678047900800478007913
:1041140000E84208A908EEFAEFFB1205DEE97F0188
:104124000217DF74F212170D74E312169D8A0C8BBA
:104134000DE9FF8C0A8D09742B1216E9E0F5087459
:10414400086509700A75F006EFA42422FE8008753C
:10415400F006EFA42421FE7C1B7D0079007402127A
:1041640016FB1210E2851882851983EAF0A3EBF09E
:1041740074021217037A1BEEF9121214E9703874E0
:104184001C1216E9E0C39407402D741C1216E9E0D2
:10419400C394115022E508F50B780B12192474030B
:1041A400121703E50AA2E0E433F9AA0CAB0D1205D9
:1041B4003674011216B3E9741D1216B37F06021782
:1041C400DF74F712170D120800E97E00EEC3940A9B
:1041D400505C7C0679FFC9FDC9EEF87900E875F0FA
:1041E4000EA4C8AAF075F000A42AFA75F00EE9A48A
:1041F4002AF9746428FA740739FBCDF9CD121148F1
:10420400E97028EEF87900E875F00EA4C8AAF075F4
:10421400F000A42AFA75F00EE9A42AF9746428FAC5
:10422400740739FB7900120806E9F80E809E7F01B5
:104234000217DF74F612170D74FD12169DEAFEEBD9
:10424400FF9007FEE0F8A3E0F9E84970397508002B
:10425400750908780812192075080275090078088C
:1042640012192075085475098578081219207CFFE5
:104274007DFF7A017B0012065074061216B3900774
:10428400FEEAF0A3EBF09007FEE0F8A3E0F9E849BA
:104294007003024354E4F508F509780812192074F0
:1042A400041216F388088909780812192074041274
:1042B40016F3880889097808121920900800121941
:1042C4003779029007FEE0FCA3E0FDEEFAEFFB1263
:1042D400077674081216B3E9704A85188285198323
:1042E400E0FA7B0074011216E9E0F87900E4C8F9F9
:1042F400EA28F508EB39F509E50845096026780848
:104304001219209007FEE0F8A3E0F5838882A3A3A6
:10431400A3A3E0FCA3E0FDEEFAEFFB120F0E740280
:104324001216B3E9E4F508F5097808121920900883
:10433400001219377CFF7DFF9007FEE0FAA3E0FB33
:1043440012065C74041216B39007FEEAF0A3EBF0B5
:104354009007FEE0F8A3E0F9E849700479018002CF
:10436400790074031216B37F020217DFC082C08380
:104374009007FCE0F8A3E0F9E84960179007FCE037
:10438400FAA3E0FB1210FAE9F89007FC7400F0A31A
:104394007400F0900C96740AF0D083D08202011F4E
:1043A400C082C083E9900BA6F002463374F712175B
:1043B4000DE99002E1F07C197D037AFF7BFF12077F
:1043C4008E9002E274FFF0A3F0A3E4F0A3F0790569
:1043D4001207169002E1E0F91206387AAC7B071254
:1043E40009567F010217DF74F412170D8A088B092E
:1043F400EB548060309002E1E0F912110C8A0A8BD0
:104404000BAE0AAF0BEE4F60138E828F83E064B065
:10441400700312072EEEFAEFFB1210FAAA08E50950
:104424006480FB80047A007B0002460274F2121757
:104434000D74FC12169DEAFEEBFFEE4F6038740219
:104444001216E9EEF0A3EF124867ECF0A3ED124860
:1044540067AA82AB83120632E9F5087073741212EC
:1044640016E912541BE50A450B60658E828F831290
:1044740044DEEE4F700575080280557A067B001203
:1044840011968A0C8B0DA80CA90DE84970057508C6
:1044940013803D88828983E41244E8A3A3EEF0A349
:1044A400EF1258B4E50AF0A3E50BF09002E71245C9
:1044B400709002E76017E0FCA3E08003EAFCEBFDE8
:1044C4008C828D8312457070F38C828D83125340DD
:1044D400A90874041216B3025AB6A3A3A3A3E0FE58
:1044E400A3E0FF22F0A3F0888289832274F21217DA
:1044F4000D890AE975F017A4FEAFF09002E6E4F026
:104504009002E4124570600A12119C9002E4E4F0F7
:10451400A3F0EEFAEFFB1211968A088B09EA45091B
:10452400602FEEFCEFFD79001210E29002E4E50842
:10453400F0A3E509F07B00800812455AE4F0A3F0EB
:104544000BEBC3950A40F2E50A9002E6F07900808D
:10455400027913025AB6EB75F017A4F8A9F0900289
:10456400E4E028FAA3E0398A82F583221250D6EADD
:104574004B2274F412170D750800750900740C129F
:1045840016E9125888FEE9FF800CE5082401F508B5
:10459400E5093400F509C3E5089CE5099D50328519
:1045A400080A85090B7403780A12168AEA250AF8A0
:1045B400EB350BF988828983A3A3A3A3A3A3125485
:1045C4001BEE650A7003EF650B70BFE8FAE9FB8028
:1045D400047A007B00802774F412170D7900EAA294
:1045E400E0501B7508C675098478081219207C04EC
:1045F4007D007AA87B0B12071074021216B37F0495
:104604000217DFC082C0839002E712463A601C881A
:10461400828983A3A3E06A7003A3E06B8882898301
:1046240070E8A3A3A3A31250D280047A007B00D025
:1046340083D08202011F125B89E8492274EE1217AB
:104644000D74FC12169DEAFEEBFF85188285198312
:10465400E4F0A3F0EE2402125324EE24051248558C
:10466400EE2404F50EEF124C3AE024FE603924FCEB
:10467400604624FE605224FE605E24FE70030247FE
:104684005A24FE70030247D224FE70030247E12439
:10469400FE70030247F024FC70030247FF24FE70FF
:1046A4000302480E02484B9003007417F0A3E4126F
:1046B400486F1203B002484B851882851983AC8277
:1046C400AD8312073402481B851882851983AC8296
:1046D400AD8312073A02481B850C08850D09740244
:1046E4001216E9AC82AD838508828509831250D203
:1046F4001206568A0C8B0DAC0CAD0DEC4D6042E4E9
:10470400F50CF50D780C121920750C00750D037855
:104714000C121920750C01750D03780C12192074F4
:10472400081216E912193779161250CC120776744A
:10473400081216B3E9F50C700B1250C81203C880A6
:104744000F750C0185088285098312485D12534058
:10475400850C0802481E74021216E9AC82AD8385EA
:104764000C82850D831250D21206568A108B11AC1E
:1047740010AD11EC4D6043850C82850D83A3A3120B
:10478400193775100075110378101219207510016E
:10479400751103781012192074081216E9121937CA
:1047A40079161250CC12077674081216B3E9F5097B
:1047B400700B1250C81203CE800F750901850C824C
:1047C400850D8312485D125340850908804C851875
:1047D40082851983AC82AD83120740803A851882A2
:1047E400851983AC82AD83120746802B8518828598
:1047F4001983AC82AD8312074C801C8518828519FD
:1048040083AC82AD83120752800D8518828519838B
:10481400AC82AD83120758E9F508E50860298E8259
:104824008F83A3E06414601F850E82850F83E0905C
:104834000300124867125B85900301125340E50898
:10484400A312486F1203AAEEFAEFFB1206D4025227
:104854002CF50CEF3400F50D22125B898518828546
:10486400198322F085188285198322F07C007D0348
:10487400850A82850B831250D62274EE12170D74AA
:10488400FC12169D8A0A8B0B8C0E8D0FEA2405F5FB
:1048940008EB3400F5097C157D0079007A007B0370
:1048A4001210E2E5082402F50CE5091248588518AF
:1048B40082851983858210858311781012192085C9
:1048C4000882850983A3A3A3A3124D82121920E5AC
:1048D400082405F510E5093400F5117810121920A3
:1048E400850C82850D831250DC1206507406121654
:1048F400B38A108B11AE10AF11E50A2402F50AE554
:104904000B125327EE4F7003024A448017740212AD
:1049140016E91250D288828983EAF0A3EBF090035F
:1049240000E004F0900300E0C394054003024A440D
:10493400E4F510F51178101219207510E9751102BB
:1049440078101219207510EA7511027810121920C6
:1049540074061216E91219377910EEFCEFFD1250A5
:10496400CC12077674081216B3E9705E8508828546
:104974000983A3A3A3A3A3A3A3E0F89002E9E06897
:104984007048124D821219207CEA7D02E508240841
:10499400FAE5093400FB1210DC74021216B3E96064
:1049A400298E828F83A3A3A3A31250D2900300E085
:1049B400F5107402781012168A74012510F58274A9
:1049C400033511F583EAF0A3EBF074021216E985BE
:1049D4008210858311781012192074021216E912BC
:1049E4001937850C82850D83125B9A12065C740458
:1049F4001216B38A108B11AE10AF11900300E0F5BC
:104A0400107511007402781012168A74002510F8BB
:104A140074033511F988828983A3124570700302E7
:104A24004908E82403F8E93400F9EE4F6003024929
:104A3400118882898374FFF0A3F0900300E004F0EE
:104A4400900300E0600A1250C81203BC7900800B86
:104A5400850882850983125337790A02522C74EA35
:104A640012170D74FE12169D8C128D13EA2405F58F
:104A74000CEB125D041244E2750800750900EA2487
:104A840002F510EB3400F5118518828519838582AF
:104A94000A85830B780A121920850C82850D83A35D
:104AA400A3A3A3124C44121920E50C2405F50AE52E
:104AB4000D125327780A121920850C82850D831252
:104AC4005B9812065074061216B38A0A8B0BEA45D9
:104AD4000B7003024BF5EA2404F50EEB124C3A1268
:104AE40044E28A828B83A3A3A3E0F9851082851113
:104AF400831250D212063EE9F5096003024BF5E435
:104B0400F514F51578141219207514E97515027841
:104B1400141219207514EA751502781412192074E8
:104B2400061216E91219377913AC0AAD0B851082F7
:104B34008511831250D212077674081216B3E9F560
:104B4400096003024BF59002E9E0F8E5087009E01A
:104B54002402900301F08017900301E0FCE8240292
:104B6400FAE43400FBEA6C7001EB6003024BF98554
:104B74000882AA82124D799414124D715073850ED5
:104B840082850F83E0C0E074022A124C31D0E0F039
:104B94000508850E82850F83A3E0C0E085080A74AA
:104BA40002250A124C31D0E0F005089002E9124CBB
:104BB400441219207CEA7D0285080A7402250AFA47
:104BC40074033400FB1210CA74021216B39002E983
:104BD400E02508F50874FF6E700374FF6F6012EE31
:104BE40024010EEF3400FFE508C394145003024A75
:104BF4008CE5086013124FBD851082851183125015
:104C0400D21203C279008014E509700375090A857C
:104C14001282851383EEF0A3EFF0A9097402121631
:104C2400B37F0E0217DF85080C7402250CF582741D
:104C3400033400F583223400F50F850E82F58322B8
:104C44001258C72274EE12170D74FE12169D8C0EA4
:104C54008D0FEA2405F50CEB124858750B009003F0
:104C640000E4F0F50AEA2402F508EB3400F50980C3
:104C740049900300E0FA9002E9E0F8124D799417A4
:104C8400124D71400D900300E0F87416C398900221
:104C9400E9F0124D821219207CEA7D0274012AFA8D
:104CA40074033400FB1210CA74021216B39002E9A2
:104CB400E0F8900300E028F0050AE50C2416F582DC
:104CC400E50D124C35E0F8E50AC3984003024D5A4D
:104CD400900300E0C39416507DE50AC333F8E4332F
:104CE400F9E50C28FEE50D39FF851882851983AC9A
:104CF40082AD838E828F831250D21206568A108B15
:104D040011AC10AD11EC4D7005750B018043E4F549
:104D140010F51178101219207510E9751102781028
:104D24001219207510EA75110278101219207406F0
:104D34001216E912193779168508828509831250EB
:104D4400D212077674081216B3E9F50B7003024CFD
:104D54007512533380107C007D0385088285098396
:104D64001250D21203D4A90B740202522EE99400F9
:104D7400C365D03322EA28F8E43400F9E822E0F5E8
:104D84001075110078102274EA12170D74FC1216B3
:104D94009D8A0C8B0D8C128D13EA2405F50AEB12F7
:104DA4005327750800750900E50A2402F510E50B80
:104DB4003400F51174021216E985820E85830F788A
:104DC4000E121920850A82850B83A3A3A3A312586C
:104DD40073121920E50A2405F50EE50B3400F50FCE
:104DE400780E12192085108285118312532D1250CA
:104DF400CC12065074061216B38A0E8B0FAE0EAF89
:104E04000FE50C2402F50EE50D3400F50F80408803
:104E140082898374FFF00508124C2A74FFF0050898
:104E24009002E9E0F50C750D00780C1219207CEA6B
:104E34007D0285080C7402250CFA74033400FB12FD
:104E440010CA74021216B39002E9E02508F508EEC0
:104E54004F60718E828F83A3A3A3E0F9850E8285B0
:104E64000F831250D212063EE9F509EE24041248CB
:104E740055E97044E4F514F51578141219207514E5
:104E8400E975150278141219207514EA751502785B
:104E94001412192074081216E91219377911EEFC4C
:104EA400EFFD850E82850F831250D21207767408A7
:104EB4001216B3E9F5096027850C82850D83124F1C
:104EC400B3125340E5087003024F99124FBD850E8B
:104ED40082850F831250D21203DA7900024FAE8515
:104EE4000882AA82EA9002E97009E024049003018E
:104EF400F08022E0F8900301E0F514E82404FCE4D7
:104F04003400FDEC65147001ED70C0124D799412FB
:104F1400124D7150B6850C82850D83E0C0E0740299
:104F24002A124C31D0E0F00508850C82850D83A34C
:104F3400E0C0E0124C2AD0E0124FCF85820C85836A
:104F44000D780C12192074041216E9121937851001
:104F540082851183125B9A12065C74041216B38A5A
:104F64000C8B0DAE0CAF0D85080C7402250CF87477
:104F7400033400F9EE4F7003024E1385188285192D
:104F840083E088828983124FCFA3E0C0E0124C2AC9
:104F9400D0E0024E21E509700375090A850A82856D
:104FA4000B83124FB3125340A9097404024C22120A
:104FB4005B8985128285138322900301E0F5F0E575
:104FC4000884900300F07C007D0322F00508851816
:104FD400828519832274EC12170D74FE12169D8AB1
:104FE400088B098C0E8D0FEA2405FEEB3400FF8537
:104FF4001882851983AC82AD838E828F831250D23E
:105004001206568A0A8B0BEE2418124855EA450BF1
:1050140070030250A31252155032851882851983E9
:105024001250D212076A8A108B11EA4511606B790B
:1050340012AC0AAD0B8508828509831250D2851003
:105044008285118312170BE9F50A7058E4F50AF505
:105054000B780A1219208E828F83A3A3E0F50A78B5
:105064000A121920EE2403125324780A1219208EEE
:10507400828F831250DC12077C74061216B3E9F592
:105084000A7021850C82850D83E0701F8508828556
:1050940009831250D21203E08011750A0E8009753B
:1050A4000A018004E50A6003125333850C82850DDE
:1050B40083E0600479008002A90A74021216B37FA7
:1050C4000C0217DF7C007D03850A82850B83125056
:1050D400D622E0FAA3E0FB22E0FCA3E0FD850882EF
:1050E4008509831250D62274EE12170D74FE12161F
:1050F4009D8A088B098C0C8D0DEA2405FEEB340087
:10510400FF750E00851882851983AC82AD838E826B
:105114008F831250D21206568A0A8B0BEA450B7003
:1051240003025201125215503585188285198312D3
:1051340050D212076A8A0E8B0FEA450F605E79120D
:10514400AC0AAD0B8508828509831250D2850E8284
:10515400850F8312170BE9F50E60030252048508CC
:105164008285098312541BAA0AFB12075E8A108BDC
:1051740011A810A911E849701E7AFF7BFF12075E7F
:105184008A108B11A810A911E849606C8882898360
:10519400E50AF0A3E50BF0750A008007750E0E8092
:1051A4005F050A9002E6E0FAE50AC39A504AE50A66
:1051B40075F017A4FAABF088828983A3A3E02AFAD6
:1051C400A3E03BFB8A828B8312532DEC4D70D27586
:1051D4000A17750B00780A121920EEFCEFFD121065
:1051E400CA74021216B3EEFCEFFD850882850983AA
:1051F4001250D21203E68014750E098003750E0155
:10520400125B81850C82850D83125340A90E024DD9
:105214006CE5082402F508E5093400F5098A828B57
:1052240083A3A3A3E0A2E52274041216B37F0A02A7
:1052340017DF74EC12170D8C108D11EA2405F50C90
:10524400EB124858750F00EA2402F50AEB125327B3
:10525400850A82F5831250D212075E8A088B09EA06
:1052640045097003025319750E008071850C8285FF
:105274000D83E06401704F8E828F83A3A3121937CC
:105284008E828F83A3A3A3A3E0F512751300781273
:10529400121920EE2405F512EF3400F513781212DA
:1052A40019201250CC12077C74061216B3E9F50FBC
:1052B4006014850C82850D83E4F0125B8185108275
:1052C4008511831253407C177D007900EEFAEFFBC1
:1052D4001210E28E828F83E4F0A3F0050E9002E6B2
:1052E400E0F8E50EC398501EE50E75F017A4F8A972
:1052F400F0850882850983A3A3125D0E12532DEC59
:105304004D600302527085088285098374FFF0A3FF
:10531400F0E50F70061250CC1203ECA90F0250C333
:10532400F50AEF3400F50B22A3E0FCA3E0FD228E86
:10533400828F83125B89850E82850F83E8F0A3E94F
:10534400F022C082C0839002E2E06A7003A3E06BA3
:1053540070067AE27B0280047A007B00024633C046
:1053640082C08378008C828D83E06A7003A3E06B33
:105374007010E875F003A4F8A9F0EC28FAED39FBF5
:105384008015088C828D83A3A3A3E06A7003A3E035
:105394006B60DF7A007B0002463374F612170D123D
:1053A40007288A828B83E582458370067A007B0016
:1053B4008007A3A3A3A31250D2025A3274F2121785
:1053C4000DE9FE740E1216E912541B74101216E93C
:1053D4001258938C828D83E064027036A3125B8F23
:1053E400F50CA3E0F9A80C740268700374296970C1
:1053F40021750C02750D00780C1219207808121909
:1054040020780A121920EEF91207A074061216B3B6
:1054140080027901025AB6E0F50AA3E0F50B227482
:10542400E812170D74FB12169DE9851882851983FD
:10543400F08A168B17ECFEEDFF751000741D121622
:10544400E9125B85741D1216E91253408E828F8314
:10545400A3A3A3E0A2E4502D741D1216E91250D2A6
:1054640012076A8A828B83E582458370030258643B
:10547400790AEEFCEFFDAA16AB1712170BE9F5102B
:105484006003025867741F1216E9125893742112AC
:1054940016E912541B74231216E9E0F50EA3E0F585
:1054A4000F8E828F83E064026003025812A3125BA2
:1054B40085850882850983A3858212858313EE245A
:1054C4000612485588828983E0FAA3E0F9EA2400A9
:1054D400F514E439F51578141219AA01000028010D
:1054E40028075507000228CC5503283955002903FD
:1054F4005701292E570229CF56032903570429ADF2
:10550400571258E50E450F600302580D850C82852D
:105514000D83125888FAE9FB8A828B83E0850A821C
:10552400850B831258BE1219208A828B83A3E0FC58
:10553400A3E0025797E50E450F600302580D850A54
:1055440082850B837401F012589B85088285098338
:10555400F07C007D008E828F83A3A3A3A3E02401AB
:10556400FAA3E03400FB120656EA4B60418A828BB0
:1055740083E02402F8850A82850B83E028F0EA247C
:1055840004F8EB3400F988828983E085128285135C
:10559400831258D01258BE1219208A828B83125358
:1055A4002CE5082403FAE5093400FB02579C850A1C
:1055B40082850B83E02404F07C047D007900AA1228
:1055C400AB131210E2025867E50E450F6003025850
:1055D4000D12589BFEA3E0FF850A82850B83740499
:1055E400F0EE850882850983F0EF851282851383A6
:1055F400F074031216E9AC82AD83EEFAEFFB1206E7
:10560400568A0C8B0DEA450D70030256B08A828BC4
:1056140083A3A31244DE74011216E985820E8583E6
:105624000F780E12192074051216E91219377CFF2F
:105634007DFF12065C74041216B38B0FEA450F70DB
:1056440033850C82850D83125873121920850C82C0
:10565400850D83A31219377C027D007A4A7B85125B
:10566400048874041216B3E9700A74011216E974FA
:10567400FFF0A3F08E828F83E064027039750C0210
:10568400750D00780C1219208E828F8312532CE52D
:10569400082404FAE5093400FB1210CA7402121635
:1056A400B3850A82850B83E02402800974011216F3
:1056B400E9EEF0A3EFF074011216E9125884F074C5
:1056C400011216E9A312587C025807E50E450F6033
:1056D4000302580D850C82850D8312532DAA16AB37
:1056E40017120794850A82850B837402F0EA8508F1
:1056F40082850983F0851282851383EB02580AE5BB
:105704000E450F600302580D12589BF8A3E0F9856B
:105714000A82850B837402F0E8850882850983F088
:10572400E985128285138302580A850C82850D83CC
:105734001250D21210C4EAFC8C82A882C3950EE4E3
:10574400950F405FE8650E7002E50F70047C0080E1
:1057540022851882851983E0FAE50E2AFAE50F34CA
:1057640000FBC3EA98EB94005003E08005E50ECCFF
:10577400C39CFCEC850A82850B83F08C0A750B00B4
:10578400780A121920850C82850D83E0250EFCA36E
:10579400E0350FFDAA08AB091210CA74021216B341
:1057A400025867751007025867E50E450F705A8551
:1057B4000C82850D83125B85850A82850B837407B1
:1057C4001244EA12587C1244EAA3E085128285133B
:1057D40083F0E82402FAE93400FB8A828B831258AE
:1057E4007C1258AB125884A31258B412588DF0E8A6
:1057F4002405F8E93400F98882898312588DA312AC
:1058040058D0A3A3A3A3F0805A75100B8055741D20
:105814001216E91250D21207288A828B83E5824538
:1058240083603D125B85880C890DE8450D603178F5
:105834000E121920780A12192078081219207406F9
:105844001216E9E0F9EEFCEFFDAA16AB17850C82FF
:10585400850D8312170B74061216B3E9F510800335
:1058640075100EA91074051216B37F100217DFE02D
:10587400F50E750F00780E22E085088285098322D3
:105884001258DA22125B89E8221258DAA3A322E022
:10589400F508A3E0F50922850C82850D83E0F8A3C1
:1058A400E0F5838882E022A3A3F08A828B83A3227B
:1058B400F088828983A3A3A3A322F08A828B831214
:1058C40058C722E0F50A750B00780A22F08882890D
:1058D40083A31258DA22E0850882850983A3A322D0
:1058E40074EE12170D74FE12169D8A0A8B0BECFAD5
:1058F400EDFB74141216E9E0F510A3E0F51174162B
:105904001216E9E0FE74181216E9E0F50EA3E0F5AC
:105914000F851882851983AC82AD831206568A0CD2
:105924008B0DEA450D60498518828519831250D282
:105934001207288A828B83E5824583602FA3A312F2
:105944005893E50845096024780E1219207810123E
:105954001920EEF9AC0CAD0DAA0AAB0B85088285B3
:10596400098312170B74041216B38006790E800291
:105974007901024D6C74F612170D74FE12169D74A3
:105984000C1216E9125888851882851983F074015F
:105994001216E9E9F0E4F508F509780812192075FA
:1059A4000802780812192074041216E98582088501
:1059B4008309780812192012077C74061216B3742E
:1059C400021216B3806874F712170DEAFEEBFF8912
:1059D400087C197D03120794EA5402600BA908EEAF
:1059E400FAEFFB12064A800279010243E674F612CA
:1059F400170D74FF6A700374FF6B70168C828D83AD
:105A0400125A37E4F08C828D83A3A3A3125A37A3CE
:105A140080181207648A088B09A808A909E8496054
:105A24000D8882898374FF1244E8A3A3E4F07F0203
:105A34000217DF74FFF0A3F08C828D83A3A322747A
:105A4400F612170D1207648A828B83E58245836000
:105A540006A3A3E0FA80027A007B0080D174F212DC
:105A6400170D8A088B09ECFEEDFF740E1216E9E09F
:105A7400F50A1207648A0C8B0DA80CA90DE849706D
:105A840026EEFCEFFD7AFF7BFF1207648A0C8B0D78
:105A9400A80CA90DE84970047911801688828983BD
:105AA400E508F0A3E509F088828983A3A3E50AF059
:105AB40079007F060217DF74EE12170DEAFEEBFF82
:105AC4008C088D09890C74141216E9125B857416FE
:105AD4001216E91250D2750D00E8496003025B7991
:105AE4007402650C6003025B7474121216E9125B93
:105AF4008FFCA3E0F9EC2400F50EE439F50FEAF489
:105B0400F8EBF4F9EC58F8E50F59F9E849705CE55D
:105B1400082406F8ED3400F9880A890B8882F58395
:105B2400125B9A1207948A108B11E50E65107004AB
