:020000040000FA
:0600000002010702210FBE
:03002B0002256348
:03003B0002258912
:030043000225177C
:0300530002218205
:03007B0002253D1E
:10008300021F7BE5C754F84401F5C779012200003C
:100093000080FB120086B900030200F1E4792178A5
:1000A30008B800028004F709D8FCE479297802B87B
:1000B30000028004F709D8FCE4900281786679098C
:1000C3008002F0A3D8FCD9FA7AE67B0A900137784C
:1000D3007479038015E493A3AD82AE838A828B8304
:1000E300F0A3AA82AB838D828E83D8E9D9E7758288
:1000F300FF7583A9740312011975829175830074C6
:100103000012011975D00075813F751881751902A8
:10011300759F00020096C09FF59FE473D09F22D085
:1001230083D082C09FE493C0E0740193C0E0740263
:1001330093F59F22FF0000B4000028002800283018
:1001430075A000A000A000A00000080008E001F0D6
:10015300001000100010001000100010005000509C
:1001630000500010001000D0070000000000000F36
:100173000001000500307507001000010081FF0039
:10018300000000FFA805C605AE05FF020202080233
:100193005000A0000000E80302CB84010000AE84FD
:1001A30002C5840100003D0B02BD84010000B302BF
:1001B30002C5840100003E0B02B984010000C9029C
:1001C30002C5840100003F0B02B784010000CB028B
:1001D30002C584010000400B02C784080000CC0262
:1001E30002C584010000410B02DB84010000420BC5
:1001F300FF0100FF2002CB84010000B18402C5840B
:10020300010000A60B02E384000000000002BF848B
:100213000300001903840B840B840B840B840B846D
:100223000B840B840B840B840B840B840B840B06D1
:100233000E1E0E000E020202020202020202010D53
:10024300000000100102CB84010000B48402C584C5
:10025300010000E70B02C184010000400702C584CE
:10026300010000E80B02D584010000208402C5844C
:10027300010000E90B02D984010000048402C58453
:10028300010000EA0B02E184010000408302C584FF
:10029300010000EB0B02D3840100002E8302C5840E
:1002A300010000EC0B02D7840100000A8302C5841D
:1002B300010000ED0B02DD840100001C8302C584F4
:1002C300010000EE0B02DF84010000128402C584EA
:1002D300010000EF0B02E584010000F00B01E803CD
:1002E300053F100AFFFFFF000130750302010600FE
:1002F30000000000000000000000000000000000FB
:100303000000000000000000000000FFFF06008066
:100313000CE8030709455F4C6F634B05125000203F
:1003230003020A00020106030207E208FF9CD21E31
:10033300F3E9C9455F4C6F636B00000000000000E8
:1003430000000000000000007A12000086120A5725
:1003530072697465204368617200104E6F74696638
:100363007920436861720002CB84010000A88402F3
:10037300C584010000000D10C483030000CB0A02F2
:10038300C384010000010D02C5840100000C0D109F
:10039300D483000000DF0A02BF84030000E00A02E6
:1003A300C3840100000D0D1201229D9B0312012243
:1003B300B49B03120122E59B03120122209C03122A
:1003C30001224A9C03120122749C031201228B9C7A
:1003D30003120122A29C03120122B99C03120122DF
:1003E300E29C03120122F59C031201220B9D0312CE
:1003F30001221E9D03120122459D03120122FAB21E
:1004030002120122FEB30212012236B402120122A9
:1004130059B40212012264B40212012287B40212F7
:10042300012296B5021201226BB602120122E6B630
:10043300021201226EB702120122A9B7021201228F
:10044300E0B7021201226EB80212012247B902126A
:100453000122A7B902120122B2B90212012231BA52
:100463000212012234BA0212012237BA0212012205
:10047300C6BA02120122C9BA02120122F9BA021241
:10048300012223BB0212012211BC02120122C3BCAE
:100493000212012258E80212012280E8021201220C
:1004A300AEE802120122E5E80212012243E9021238
:1004B30001228EE902120122D9E90212012219EA6C
:1004C300021201225FEA021201228DEA02120122C4
:1004D3004AEB0212012254EB0212012261EB0212D7
:1004E300012294EB0212012260EC021201226CEC55
:1004F3000212012284EC021201228EEC021201226A
:10050300FAA60312012208A70312012220A703124D
:10051300012238A703120122B2BC011201225EBDDF
:1005230001120122D9BD01120122FABE01120122D8
:1005330036BF01120122DFBF01120122C6C0011220
:1005430001222AC20112012281C20112012202C325
:1005530001120122F2C3011201223FC4011201223E
:10056300C5C401120122F7C4011201220BC70112F3
:1005730001224DC7011201226BC701120122EEC7EE
:1005830001120122C2C8011201228AC901120122E9
:1005930003D502120122D6D5021201227FD60212FE
:1005A3000122D2D60212012282D7021201220ED8D0
:1005B30002120122FAD80212012229D902120122BF
:1005C3003CDA0212012284DA0212012259DB0212FE
:1005D300012295DB02120122B1DB0212012211A9D1
:1005E300031201221484031201222A84031201221A
:1005F3005084031201226C850312012276850312B3
:100603000122AB8603120122A3870312012231E3E5
:100613000212012261E40212012294E40212012275
:10062300DEE402120122A5E602120122476D001246
:100633000122B16D00120122106F00120122206FFE
:10064300001201224D6F00120122A46F0012012239
:100653004D70001201225471001201221E72001209
:1006630001227E7300120122C173001201226674FB
:1006730000120122B37400120122D9740012012264
:10068300E77600120122EC7600120122F1780012C3
:1006930001223E7900120122B17900120122E4798C
:1006A30000120122867A001201222F7B00120122FE
:1006B300677B001201226A7B00120122B27B0012C7
:1006C3000122F27B00120122497C001201226E9466
:1006D30003120122869403120122CE9403120122F3
:1006E300E494031201222B95031201223F96031275
:1006F3000122CC9603120122179703120122FC2533
:1007030000120122082600120122432600120122B0
:10071300882600120122482700120122CE27001248
:1007230001223328001201225F2800120122982897
:1007330000120122D62A00120122BA2C0012012231
:10074300A02E00120122E32F0012012231320012E7
:1007530001224333001201228E34001201229E35FE
:1007630000120122BB3500120122F63500120122CC
:100773001836001201227B36001201223C3B001284
:100783000122D13B00120122223C00120122493CEA
:10079300001201229B3C00120122B93C00120122EB
:1007A300133D00120122FC3D00120122723F001290
:1007B3000122F63F0012012215ED021201221FED64
:1007C3000212012262ED021201227DED02120122C8
:1007D3000DEE0212012235EE0212012272EE021216
:1007E3000122A9EE02120122D2EE0212012247EFE8
:1007F300021201225CEF0212012271EF02120122A6
:10080300A2EF02120122B6EF02120122DBEF021263
:10081300012215F00212012241F00212012279F0A5
:1008230002120122F8F00212012241F10212012206
:100833006BF10212012296F102120122B0FE0212A2
:100843000122F99A02120122279B02120122759CAE
:1008530002120122559D02120122749D02120122ED
:10086300F19D02120122349E021201228A9F02127A
:1008730001224BA002120122D2A20212012273A36F
:100883000212012269A40212012266A502120122A8
:10089300C0A6021201224BA702120122BBA303121C
:1008A300012224A40312012278A4031201229FA48B
:1008B30003120122D0A403120122BEF1021201226B
:1008C3002BF20212012272F2021201228AF30212A5
:1008D300012286F40212012269F50212012290F626
:1008E30001120122D2F601120122A4F70112012200
:1008F3007DF80112012277F90112012259FA01123E
:100903000122C2FA0112012278FB01120122ECFB3F
:100913000112012258FC0112012281FC0112012261
:10092300FBFC0112012294FD01120122F9FD0112C7
:1009330001220EFE0112012254FE011201226DFE5C
:1009430001120122D2FE01120122D5FE011201225F
:100953007591031201229D9103120122DB9103126F
:1009630001229992031201220093031201221C9384
:1009730003120122449303120122749303120122EE
:10098300839303120122009403120122269403127B
:1009930001221BAD01120122F9AE011201222BB17A
:1009A3000112012267B10112012294B10112012245
:1009B3007EB201120122C9B20112012214B3011243
:1009C300012226B30112012266B3011201229BB355
:1009D30001120122E9B30112012218B4011201220A
:1009E3003BB40112012288B4011201220DB5011298
:1009F300012227B70112012266B901120122A7B908
:100A03000112012249BB011201228ABB01120122F8
:100A1300FDBB0112012253BC011201227DBC011254
:100A23000122E48D02120122E28E021201227B9541
:100A3300021201229C9702120122679902120122DB
:100A4300CF9A021201225D40001201220C410012D2
:100A53000122524100120122924200120122284433
:100A630000120122A24400120122BD4400120122FD
:100A7300384500120122924600120122F247001269
:100A83000122F84800120122594A00120122724A37
:100A930000120122D04A00120122BE4B0012012291
:100AA300F14B00120122614C00120122DB4C0012B7
:100AB3000122254D00120122EF4D00120122C44EE6
:100AC30000120122A34F001201222E500012012214
:100AD3009C50001201221051001201223B510012BE
:100AE3000122FA51001201225F53001201227C53AA
:100AF300001201229B53001201228C540012012286
:100B0300B15400120122DB54001201225655001287
:100B13000122B05500120122195700120122C757B2
:100B2300001201220858001201220FDA01120122D9
:100B33005DDA0112012269DA0112012247DB011297
:100B4300012278DB01120122A9DB0112012229DC37
:100B530001120122A7DC01120122DFDC01120122B2
:100B630031DD011201226EDD011201228BDF011240
:100B73000122B1E1011201229CE30112012286E567
:100B830001120122FCFF0112012208990112012224
:100B930038990112012211A00112012296A101121A
:100BA300012293A7011201227BA801120122B8A8F6
:100BB30001120122DBA8011201220CA90112012258
:100BC30015A9011201221FA9011201220DAA011266
:100BD300012203AB01120122385800120122375CB3
:100BE300001201223D5C00120122786300120122EF
:100BF3009168001201221A8B03120122148C031232
:100C03000122888C03120122C68C031201223A8D21
:100C130003120122B38D03120122BC8D03120122A0
:100C2300C88D03120122DD8D031201221B8E0312D4
:100C33000122318E031201222BF60212012238F611
:100C43000212012252F60212012291F6021201222D
:100C5300CFF60212012234F70212012249F70212DF
:100C6300012254F70212012261F70212012278F7DE
:100C73000212012286F70212012291F702120122C7
:100C83009DF702120122ACF702120122B7F70212FA
:100C93000122DAF70212012281F80212012291F8ED
:100CA30002120122ABF802120122C8F80212012239
:100CB300E4F80212012209F90212012214F90212C4
:100CC300012229F9021201223DF9021201229EF9A1
:100CD30002120122A4F902120122AAF9021201222C
:100CE300B0F902120122C8F902120122FBF9021221
:100CF300012266E801120122EAE80112012299E9C0
:100D030001120122F8EA0112012219ED0112012256
:100D130005EE011201223AEE011201225CEE0112EC
:100D230001220BEF0112012203F1011201222CF126
:100D330001120122BEF101120122F0F1011201227E
:100D4300FDF10112012254F2011201227AF2011281
:100D53000122E7F401120122EAF50112012242F60F
:100D630001120122A3CB01120122ADCC01120122F7
:100D730094CD011201229ECD01120122C0CD011298
:100D83000122CCCD0112012265CF0112012294CFA1
:100D930001120122B0D00112012209D10112012254
:100DA3006FD2011201224ED301120122AAD30112E2
:100DB300012217D40112012252D40112012291D42B
:100DC300011201224AD70112012264D70112012222
:100DD300F0D701120122FED70112012257D80112C6
:100DE300012265D801120122D8D8011201223CD96F
:100DF3000112012286D901120122CCA7021201227B
:100E0300EEA70212012214AA0212012229AD021234
:100E1300012241AE02120122F4AE02120122D6AF28
:100E2300021201220C9F03120122319F031201229D
:100E3300A39F0312012289CD0212012292CD021235
:100E430001229BCD0212012272CE0212012223D073
:100E53000212012259D00212012293D0021201225E
:100E6300C9D00212012203D10212012237D1021288
:100E7300012263D102120122ACD102120122E6D176
:100E8300021201222FD20212012287D20212012260
:100E9300BCD20212012217D30212012251D3021231
:100EA3000122A2D302120122D8D30212012212D4A8
:100EB3000212012240D40212012263D4021201223F
:100EC300D1A703120122FDA70312012258A803127E
:100ED300012262A80312012272A803120122618E69
:100EE30003120122868E03120122B08E0312012205
:100EF3009BAA03120122E9840112012249870112EC
:100F03000122FF8801120122F18901120122788A4C
:100F130001120122F88A01120122258B01120122FA
:100F2300468E01120122C28E01120122B18F0112DB
:100F33000122E98F011201222C9001120122D89182
:100F4300011201222D92011201227A920112012231
:100F5300E892011201220F93011201222993011237
:100F630001223E94011201224E940112012279952D
:100F7300011201229B9501120122D1950112012236
:100F8300789701120122B79701120122E398011207
:100F9300012266AB0312012252AA0312012291AA73
:100FA3000312012253AB031201227CA80312012274
:100FB3008CA803120122A1A80312012207A903127C
:100FC3000122F9FE011201227DFF01120122E3FF3A
:100FD3000112012210A6031201222CA603120122E0
:100FE30085A603120122CFA6031201224197031201
:100FF30001225E97031201227B97031201229E971F
:1010030003120122C497031201223898031201220A
:101013005C9803120122AD87031201223D8803125B
:101023000122BB88031201223B8903120122D189C9
:1010330003120122608A031201226A8A0312012227
:10104300798A031201228F8A03120122A28A0312D0
:101053000122038B03120122178B0312012238A2F0
:10106300031201225AA20312012283A203120122B4
:101073001CA30312012234A30312012276A3031239
:10108300012234BD021201223EBD021201227EBDA5
:1010930002120122C7BD0212012201BE0212012265
:1010A3005BBE021201227ABE021201221CC102128D
:1010B300012225C10212012276C1021201229FC11F
:1010C30002120122A9C10212012215C20212012237
:1010D300A9C20212012208C30212012236C302125C
:1010E3000122B6C302120122F9C30212012234C43F
:1010F3000212012246C40212012265C40212012215
:101103006EC40212012238C502120122B1A00312D9
:10111300012206A10312012274A103120122E4A1F8
:1011230003120122367D00120122607D001201228A
:10113300357E00120122297F0012012216A5031217
:1011430001229B9903120122D199031201220A9AC7
:1011530003120122639B0312012295A903120122A8
:10116300ABA903120122B5A903120122A17F001228
:10117300012264C50212012221C6021201225CC6A9
:101183000212012284C602120122E6C602120122C1
:1011930032C7021201228BC7021201221AC802129D
:1011A30001221CC902120122D7CA0212012259CB01
:1011B30002120122BECB02120122D5CB021201225E
:1011C300DECC021201221CCD021201220080031286
:1011D3000122198003120122BD8003120122FD8026
:1011E30003120122168103120122498103120122F3
:1011F300968103120122CA81031201220C82031277
:101203000122008002120122898302120122118528
:10121300021201226885021201228785021201222D
:10122300058602120122A387021201228788021275
:101233000122718C02120122418D02120122579D5B
:1012430003120122659D03120122D19D0312012283
:101253005D9E03120122699E031201227A9E0312EC
:101263000122909E0312012226DC02120122F3DCEA
:1012730002120122C8DE0212012272DF02120122CF
:1012830030E0021201227DE002120122E7E20212A3
:10129300012278FA02120122BDFA02120122DAFABD
:1012A3000212012251FB021201228DFB02120122C2
:1012B30081FC0212012277FE02120122E0AA03122C
:1012C3000122C9FF021201220CAB0312012235AB2A
:1012D30003E066701008A3E066700A08A3E0667076
:1012E3000408A3E06622C3E7960809E7960809E71E
:1012F300960809E79622C3E09608A3E09608A3E0C0
:101303009608A3E09622C008C3E096F50808A3E078
:1013130096420808A3E096420808A3E096450870A1
:1013230001D3D00822080808EAC0E0EBC0E086F049
:10133300E7A4FA180986F0E7A42AFA180986F0E761
:10134300A42AFA180986F0E7A42AFA1986F0E7A472
:10135300FBE5F02AFA190886F0E7A42BFBE5F03A3F
:10136300FA190886F0E7A42BFBE5F03AFA181809F6
:1013730086F0E7A4C5F02BFBE43AFA1908E7C5F0B9
:10138300C6A426F6E5F03BFBE43AFA1886F0E7A498
:10139300F6E5F00826F6E43B08F6E43A08F6D0E072
:1013A300FBD0E0FA22E4CFC0E0E4CEC0E0E4CDC05D
:1013B300E0E4CCC0E075F020E626F608E633F60854
:1013C300E633F608E633F6181818EC33FCED33FD74
:1013D300EE33FEEF33FFC3EC9709ED9709EE970960
:1013E300EF97191919400FFFEC97FC09ED97FD09C9
:1013F300EE97FE191906D5F0BFECF709EDF709EEE4
:10140300F709EFF7191919D0E0FCD0E0FDD0E0FEA1
:10141300D0E0FF226016080808C6C313C618C61317
:10142300C618C613C618C613C6D5E0EA2270090843
:101433000808226016181818C6C333C608C633C670
:1014430008C633C608C633C6D5E0EA22E627F6083F
:1014530009E637F60809E637F60809E637F622E023
:1014630026F608A3E036F608A3E036F608A3E0362E
:10147300F622E026F008A3E036F008A3E036F008F1
:10148300A3E036F022C3E697F60809E697F60809C3
:10149300E697F60809E697F622C3E096F008A3E07C
:1014A30096F008A3E096F008A3E096F022E657F63C
:1014B3000809E657F60809E657F60809E657F6223B
:1014C300E056F608A3E056F608A3E056F608A3E0B4
:1014D30056F622E056F008A3E056F008A3E056F0D3
:1014E30008A3E056F022E0F608A3E0F608A3E0F62E
:1014F30008A3E0F622E6F008A3E6F008A3E6F00866
:10150300A3E6F022E0FAA3E0FBA3E0FCA3E0FD22C4
:10151300EAF0A3EBF0A3ECF0A3EDF022E0F8A3E0F4
:10152300F9A3E0FAA3E0FB22E8F0A3E9F0A3EAF0D1
:10153300A3EBF022CAC0E0E6F0A308DAFAD0E0FA9F
:1015430022CAC0E0E0A3C582CCC582C583CDC583D2
:10155300F0A3C582CCC582C583CDC583DAE6D0E0CE
:10156300CA22C3E498F8E499F91215A68026C3E4C5
:101573009AFAE49BFBE920E7E91215A6E498F8E45C
:1015830099F922C3E498F8E499F91215A6E498F8B6
:10159300E499F9C3E49AFAE49BFB22EB20E7CFE951
:1015A30020E7E0B90010BB0008E88AF084F8AAF04D
:1015B30022E4FBC8FA22EB70227B10C833C8C9337C
:1015C300C9335007C39AC3DBF280069A50012ADB62
:1015D300EAC833F4C8C933F4C9FA2275F008E4C879
:1015E30033C8C933C933C99AC99B5004C92AC93BF3
:1015F300D5F0ECFBC833F4C8E4C9FA22600D08C681
:10160300A2E713C618C613C6D5E0F322600C08C6BA
:10161300C313C618C613C6D5E0F422700422600DA6
:1016230018C6C333C608C633C6D5E0F41822251836
:1016330010AF08F518400C15198008F5184002156D
:1016430019D2AF2200C0D0251810AF08F518500CDE
:1016530005198008F51850020519D2AFD0D02225FC
:1016630018F58210AF08F518400C15198008F51805
:1016730040021519D2AF851983222518F582E43566
:1016830019F583222518F8E43519F9222518FAE407
:101693003519FB222518FCE43519FD22E4732518BE
:1016A300C582C0E0E51934FFC583C0E0E518C395E2
:1016B3008224F810AF0885831985821880088583F2
:1016C30019858218D2AFCEF0A3E520F0A37808E6FF
:1016D30008F0A3DEFAEFF0A3E58124FAF8E608F0B8
:1016E300A3E608F0A3E608F0A30808E608F0A3E6DB
:1016F30008F0A315811581D0E0FED0E0F81581151F
:10170300811581E8C0E0EEC0E0222518C582C0E063
:10171300E51934FFC583C0E0E518C3958224F910A9
:10172300AF088583198582188008858319858218F7
:10173300D2AFCEF0A3E520F0A37808E608F0A3DE4D
:10174300FAEFF0A3E58124FBF8E608F0A3E608F03E
:10175300A30808E608F0A3E608F0A315811581D0D5
:10176300E0FED0E0F815811581E8C0E0EEC0E0228C
:10177300851983851882E0A3FEE0A3F5207808E0AD
:10178300A3F608DFFAE0A3FFE0A3C0E0E0A3C0E014
:10179300E0A3C0E0E0A3C0E0E0A3C0E010AF088591
:1017A30082188583198008858218858319D2AFD062
:1017B30083D08202011F851983851882E0A3FEE08E
:1017C300A3F5207808E0A3F608DFFAE0A3FFE0A37F
:1017D300C0E0E0A3C0E0E0A3C0E0E0A3C0E010AF3E
:1017E300088582188583198008858218858319D214
:1017F300AFD083D08222C0D02518C582C0E0E519BE
:1018030034FFC583C0E0E518C3958224F310AF0805
:101813008583198582188008858319858218D2AF3C
:10182300C8F0A3E9F0A3EAF0A3EBF0A37908E70972
:10183300F0A3D8FAECF0A3EDF0A3EEF0A3EFF0A33E
:10184300D0E0F0A3D0E0F0A3D0E0F0A3E520F0A334
:10185300E5F0F0A322851983851882E0C0E0A3E0B8
:10186300F9A3E0FAA3E0FBA37808E0F608A3DFFA04
:10187300E0FCA3E0FDA3E0FEA3E0FFA3E0C0E0A340
:10188300E0C0E0A3E0F5D0A3E0F520A3E0A3F5F0EA
:1018930010AF08858319858218800885831985828E
:1018A30018D2AFD082D083D0E0F8D0E03274048075
:1018B30006740280027401C0E0F404121662D0E0E0
:1018C300121537227404800474028000CCC0E0ED4A
:1018D300C0E0E518C39CCCAD1950011D10AF068CB8
:1018E300188D1980068C188D19D2AF121544D0E0CB
:1018F300FDD0E0FC22D083D082E9C0E0E493A3C30F
:1019030086F0C5F095F0F908E493A386F0C5F09549
:10191300F0700BE493A3C3994005E9048002A3E4A8
:1019230075F002A42582F582E5F03583F583D0E0D6
:10193300F9E493A3C0E0E493C0E022D083D082EC27
:10194300C0E0EDC0E0E493A3FCE493A3FDED4C60A1
:101953000D12198AEC24FFFCED34FFFD80EFE493B4
:10196300A3FCE493A3FDED4C600D1219C9EC24FF15
:10197300FCED34FFFD80EFD0E0FDD0E0FCE493A369
:10198300C0E0E493C0E022C0E0C3E493960874018E
:10199300939618400FE493667008087401936618D1
:1019A30070007019A3A3C3E4939608740193961867
:1019B300A3A3400DD0E0D0E0D0E002197AA3A3A303
:1019C300A3A3A3D0E022C0E0C0F088F0E493667044
:1019D300080874019366187000A8F0A3A3700BD0D5
:1019E300F0D0E0D0E0D0E002197AA3A3D0F0D0E0A9
:1019F3002274F512170DEAFEEBFFEE2434F8EF34F0
:101A030000F988088909EE2435F582EF3400F5835F
:101A1300E0F8EE2437F582EF3400F583E0F50AECC5
:101A2300850AF0A4FCAAF0850AF0EDA42AFDE82CAF
:101A3300F8E43DF97A257B001215A6EA850882852C
:101A43000983F0F8740758F97401B900028004C3DC
:101A530033D9FCFAE8131313541FF8EE28F8EF34C4
:101A630000F9E8245DF582E93400F583E05A600863
:101A7300EE2434F582EF802CEE2434F582EF34002B
:101A8300F583E0C0E0EE2436F582EF3400F583E021
:101A9300F5F0D0E084A8F0EE28F8EF3400F9E8245C
:101AA30038F582E93400F583E0F97F040217B9744D
:101AB300F512170DEAFEEBFFEE2434F582EF340046
:101AC300F583E0C0E0EE2435F582EF3400F583D0F2
:101AD300E0F08E828F83A3A3A3A3A3A3A3C082C09A
:101AE300838E828F83A3A3A3A3A3E0F8A3E0F9D0FB
:101AF30083D082E0C398F508A3E099F509EE247F2B
:101B0300F582EF3400F583E064017069EE2480F51B
:101B130082EF3400F583E0F8A3E0F98E828F83A38C
:101B2300A3A3A3A3A3A3E0FCA3E0FD8E828F83A3BF
:101B3300A3A3A3A3E0FAA3E0FBC3EA9CEB9D50108D
:101B4300C3EC98ED99402EC3EA98EB995027800E89
:101B5300C3EA98EB994007C3EC98ED9940177CDCF6
:101B63007D04EEFAEFFB120ADCEE247FF582EF34FC
:101B730000F583E4F0EE2434F8EF3400F9E8FCE9EF
:101B8300FDEE2435F582EF3400F583E0F8EE2437DB
:101B9300F582EF3400F583E0F50AE508850AF0A441
:101BA300F508AAF0850AF0E509A42AF509E825084D
:101BB300F8E43509F97A257B001215A6EA8C828DA3
:101BC30083F0F8740758F97401B900028004C33331
:101BD300D9FCFAE8131313541FF8EE28F8EF340076
:101BE300F9E8245DF582E93400F583E05A6008EEF4
:101BF3002434F582EF802CEE2434F582EF3400F5A3
:101C030083E0C0E0EE2436F582EF3400F583E0F59F
:101C1300F0D0E084A8F0EE28F8EF3400F9E8243897
:101C2300F582E93400F583E0F9122509021AADC003
:101C330082C083851882851983E0F8A3E0F9C3EA9B
:101C43009CEB9D5010C3EC98ED99401BC3EA98EBB5
:101C5300995014800EC3EA98EB994007C3EC98EDB2
:101C6300994004790180027900D083D08222EAC3AB
:101C73009CFAEB9DFB2274EF12170D9003A2E06414
:101C8300086005E06407702A9061C8E0602490034F
:101C9300D0E0F4601DE0F875F003A4C8AAF02AF9B7
:101CA30074D228FE740339FF8E828F83A3A3A3E02B
:101CB3007003021DA9906060E0C0E0EE2468F58225
:101CC300EF3400F583D0E0F0750C45750D0575080C
:101CD30000750900E5D914F50AE5D95403F50E603A
:101CE300177403650E605CE50A6010EE2467F582E5
:101CF300EF3400F583E07003021D8E900540E0642D
:101D030001602AEE2482F582EF3400F583E060045B
:101D1300780480027800850A08E508C398FA95E0FC
:101D2300FB1209A48A088B09EA45097005120CD431
:101D33008074EE2482F582EF3400F583E070048A28
:101D43000C8B0DE50A6012850C82850D83F50BE57E
:101D5300D9F0A3150BE50B70F6EE2482F582EF3470
:101D630000F583E0604474FC250AF50A780C121828
:101D7300B4AC0AA90EEEFAEFFB120B7E7402121634
:101D830047E97026AA08AB09121112793D8E828F9A
:101D930083A3A3A3A3E0FA7B00120878EEFAEFFB78
:101DA300120AF4120B90790080747403650E605666
:101DB300850A1075110078101218B4AC0CAD0DAA79
:101DC30008AB09120B5A7402121647EE2468F58207
:101DD300EF3400F583E064807004747F8001E0F5E4
:101DE3000C780C1218B8E50EF50C780C1218B8A97B
:101DF3000AAC08AD099003D0E0FA7B0012083C74EA
:101E03000212164780139003A2E06408600BAC0C27
:101E1300AD0DEEFAEFFB120BEA120CE079017F0A2B
:101E23000217B974F512170D74FC121631EAFEEBA2
:101E3300FF8908A2AFE433F509C2AF806AEE2463D9
:101E4300F8EF3400F97A007B00A2AFE433F50AC25D
:101E5300AF88828983E0FCA3E0FDEC4D603A888281
:101E63008983E0FAA3E0FB8A828B83E0FCA3E0FD95
:101E730088828983ECF0A3EDF08A828B83E4F0A35C
:101E8300F088828983E0FCA3E0FDEC4D700A888230
:101E93008983A3A3E4F0A3F0E50AA2E092AF1211B1
:101EA300129004E3E004F0EE2463F582EF3400F5CE
:101EB30083E0F8A3E0F9E849603DEE2463F582EF9F
:101EC3003400F583E02402FAA3E03400FBEA2402A1
:101ED300F50AEB3400F50B780A1218B48A828B8367
:101EE300E0FCA3E0F9EEFAEFFB120B1874021216F2
:101EF30047E97003021E409004E3E060639004E44A
:101F0300E0F89004E3E0C398500C74026508705045
:101F13009004E5E0604A8E828F83A3A3A3A3E085A8
:101F23001882851983F0A3E4F09004E3E0F87402C7
:101F330012167DE8F0A3E4F09004E3E0F89004E2E5
:101F4300E028F0740212167DAC82AD838518828579
:101F53001983AA82AB8379011208489004E3E4F061
:101F6300E509A2E092AF7404121647021AAD00000D
:101F7300008521878522C622C0E0C0D0E8C0E0E901
:101F8300C0E0EAC0E0EBC0E0ECC0E0EDC0E0EEC0D2
:101F9300E0C008C009C00AC00BC082C083C0F0A261
:101FA300AFE433FEC2AF759B00906182E0A2E050C4
:101FB30012E591A2E0500C7591FE74016521700346
:101FC300121C79E0A2E55051E591A2E5504B7591C1
:101FD300DF9003A2E064076005E0640870237401E6
:101FE3006521703579019003D0E0FA75F003A4CA36
:101FF300A8F028FB74D22AFA74033BFB121E268036
:1020030018E0640D70139003C4E004F064287002B8
:10201300E4F07A00E0F9120CE6906182E0A2E64077
:10202300030220C2E591A2E640030220C27591BFDC
:102033009003A2E064057008120C14120C208003B4
:10204300120C1A752100120C74E99003A3F07900A5
:10205300120C68120A527A017B009003A1E0F91274
:1020630010E2907803E064427055900544E014F068
:10207300704DC2AF12207A00782AD0E0F618D0E073
:10208300F6E59F540770057509FF800375097FC442
:10209300C0E07829E6F50808E65509F509740B78D8
:1020A3000812160FD0E02508F8906270E0A2E7400E
:1020B300F8E8C333906272F0906270E0D2E0F0907F
:1020C3006181E0A2E35009E5E9A2E3500375E9F772
:1020D300A3E0A2E75009E591A2E7500375917FEED3
:1020E300A2E092AFD0F0D083D082D00BD00AD00937
:1020F300D008D0E0FED0E0FDD0E0FCD0E0FBD0E0A3
:10210300FAD0E0F9D0E0F8D0D0D0E032C0E0C0D0CF
:10211300C082C083906183E0A2E05009E5BFA2E0E2
:10212300500375BFFEE0A2E15009E5BFA2E15003F1
:1021330075BFFDE0A2E25009E5BFA2E2500375BFFF
:10214300FBE0A2E35009E5BFA2E3500375BFF7E04C
:10215300A2E45009E5BFA2E4500375BFEFE0A2E596
:102163005009E5BFA2E5500375BFDFE0A2E65009C1
:10217300E5BFA2E6500375BFBFD083D0828088C07D
:10218300E0C0D0E8C0E0E9C0E0EAC0E0EBC0E0ECCA
:10219300C0E0EDC0E0C0F0E5A7A2E6500FE5A1A2C4
:1021A300E6500953A7BF75A1BF1221E7E5A7A2E532
:1021B300500CE5A1A2E5500653A7DF75A1DFE5A703
:1021C300A2E15009E5A1A2E1500375A1FDE5A7A293
:1021D300E2500CE5A1A2E2500653A7FB75A1FBD088
:1021E300F00220F874F812170D7521019003A2E094
:1021F30064067015120BAE8A828B83A3A3A3A3A3D9
:10220300A3E0FAA3E0FB120C02A2AFE433FED2AFC9
:102213009003A8E0640170187A207B009003A1E08A
:10222300F91211F07A207B009003A1E0F91210E873
:10223300906182E0D2E6F0900541E0602185C622FC
:1022430080169003A7E064017008E5C654F84405BE
:10225300F5C653BEFC121F747401652160E4EEA23F
:10226300E092AF7F010217B9008E238F2485822865
:10227300858327851882851983E0CEA3E0CF85283F
:1022830082852783EBC9EAC8EDCBECCA75F010C38E
:10229300E833C8E933C9EA33CAEB33CBC3EA9EF563
:1022A30026EB9FF525B35004AB25AA26EC33CCEDE2
:1022B30033CDD5F0DAAE23AF242274ED12170D8A95
:1022C300088B098C0A8D0B741312167D780C12146B
:1022D300E97808790C1212E97510017511C87512A5
:1022E3000075130050127808790C1214887810794D
:1022F300081212E950168010780C790812148878A5
:1023030010790C1212E940047901800279007F0CE4
:102313000217B974ED12170D8A088B098C0A8D0BFD
:10232300741312167D780C1214E9780C79081212C2
:10233300E940117808790C121488AA08AB09AC0A91
:10234300AD0B802275100075110075120075130115
:102353007810790C1214887810790812144FAA1087
:10236300AB11AC12AD1380A68A828B837508FF75FF
:1023730009FF750AFF750B0078081214D67F040253
:1023830017B974F512170D8C828D8378081214E92E
:102393008A828B83780812149CEA2404F8EB3400B5
:1023A300F98C828D83A3A3A3A3E0FCA3E0FD888221
:1023B3008983C3E09CF0A3E09DF088828983C3E016
:1023C3009420A3E0944E40268A828B837508FF7580
:1023D30009FF750AFF750BFF78081214758A828B43
:1023E30083A3A3A3A3E02420F0A3E0344EF00223AD
:1023F3006B74F512170DE9FE9004F7E0FAA3E0FB06
:10240300EEC333F8E433F974E428F582748339F5C1
:1024130083E02AF508A3E03BF50978081218B47A9B
:10242300407B427C0F7D0012226C74021216478A95
:10243300088B098C0A8D0B74107808121417AA08DC
:10244300AB097F040217B974F112170D8A0C8B0DB7
:102453008C0E8D0F740F12167DE0FAA3E0FB74113E
:1024630012167DE0F508A3E0F50978081218B4EA1E
:102473002401F508EB3400F509E4F50AF50B780CB3
:102483007908121328750871750902780C790812F6
:102493001328AA0CAB0DAC0EAD0F12226C740212F2
:1024A30016478B09EA450960047A0180027A00EC39
:1024B3002AFCED3400FD741312167DE0F8A3E0F955
:1024C300E8FEE9FFECF8EDF97A717B021215A688B4
:1024D3000889098E828F8378081214F8ECF8EDF9D5
:1024E3007A717B021215A68A088B09740578081283
:1024F300161E8E828F83A3A3A3A3E508F0A3E50989
:10250300F07F080217B9C082C083E9906000F0D061
:1025130083D08222C0E074F21217F9A2AFE433FE33
:10252300D2AFC2C0E5D1A2E4500653D1EF12105886
:10253300EEA2E092AF7F01021858C0E074F21217C6
:10254300F9A2AFE433FED2AFE58AA2E35003120F40
:10255300E6758A00C2EBEEA2E092AF7F0102185843
:10256300C0E0C0D0E8C0E0E9C0E0A9A8D2AFC2C7CC
:10257300E9A2E7E433F8E9A2E792AFD0E0F9D0E0CB
:10258300F8D0D0D0E032C0E0C0D0E8C0E0E9C0E08D
:10259300EAC0E0C082C083A2AFE433FAD2AF9009AD
:1025A300B5E0F8A3E0687008539AFBA37401802296
:1025B300C2E99009B5E0F8740128F0743528F58272
:1025C300E43409F583E0F5C19009B5E0C394804094
:1025D30002E4F0EAA2E092AFD083D082D0E0FAD056
:1025E300E0F9D0E0F8D0D0D0E032C2AF0200002250
:1025F400FFFFFFFFFFFFFFFFC082C083E9900BA531
:10260400F002288B74F71216A1E99002E1F07C190C
:102614007D037AFF7BFF12078E9002E274FFF0A322
:10262400F0A3E4F0A3F079051207169002E1E0F9B3
:102634001206387AAC7B071209567F0102177374AD
:10264400F41216A18A088B09EB548060309002E1E1
:10265400E0F91210CA8A0A8B0BAE0AAF0BEE4F6078
:10266400138E828F83E064B0700312072EEEFAEFAC
:10267400FB1210B8AA08E5096480FB80047A007B89
:102684000002285A74F21216A174FC121631EAFEE2
:10269400EBFFEE4F6038740212167DEEF0A3EF12DA
:1026A4002ABFECF0A3ED122ABFAA82AB8312063232
:1026B400E9F5087073741212167D123673E50A4533
:1026C4000B60658E828F83122736EE4F7005750876
:1026D4000280557A067B0012114E8A0C8B0DA80CD1
:1026E400A90DE8497005750813803D88828983E443
:1026F400122740A3A3EEF0A3EF123B0CE50AF0A3CC
:10270400E50BF09002E71227C89002E76017E0FC9F
:10271400A3E08003EAFCEBFD8C828D831227C87052
:10272400F38C828D83123598A9087404121647021B
:102734003D0EA3A3A3A3E0FEA3E0FF22F0A3F08831
:102744008289832274F21216A1890AE975F017A40A
:10275400FEAFF09002E6E4F09002E41227C8600AAB
:102764001211549002E4E4F0A3F0EEFAEFFB12111C
:102774004E8A088B09EA4509602FEEFCEFFD7900CB
:102784001210A09002E4E508F0A3E509F07B0080B4
:10279400081227B2E4F0A3F00BEBC3950A40F2E56C
:1027A4000A9002E6F0790080027913023D0EEB757F
:1027B400F017A4F8A9F09002E4E028FAA3E0398A1B
:1027C40082F5832212332EEA4B2274F41216A17579
:1027D4000800750900740C12167D123AE0FEE9FF38
:1027E400800CE5082401F508E5093400F509C3E582
:1027F400089CE5099D503285080A85090B74037805
:102804000A12161EEA250AF8EB350BF98882898329
:10281400A3A3A3A3A3A3123673EE650A7003EF6503
:102824000B70BFE8FAE9FB80047A007B0080277410
:10283400F41216A17900EAA2E0501B75087275091A
:102844008478081218B47C047D007AA77B0B1207E5
:102854001074021216477F04021773C082C083905B
:1028640002E7122892601C88828983A3A3E06A701D
:1028740003A3E06B8882898370E8A3A3A3A3123324
:102884002A80047A007B00D083D08202011F123D8B
:10289400E1E8492274EE1216A174FC121631EAFE24
:1028A400EBFF851882851983E4F0A3F0EE2402126D
:1028B400357CEE2405122AADEE2404F50EEF122E1B
:1028C40092E024FE603924FC604624FE605224FE1B
:1028D400605E24FE70030229B224FE7003022A2AD9
:1028E40024FE7003022A3924FE7003022A4824FCC1
:1028F4007003022A5724FE7003022A66022AA39058
:1029040003007417F0A3E4122AC71203B0022AA327
:10291400851882851983AC82AD83120734022A7329
:10292400851882851983AC82AD8312073A022A7313
:10293400850C08850D09740212167DAC82AD838561
:10294400088285098312332A1206568A0C8B0DAC31
:102954000CAD0DEC4D6042E4F50CF50D780C12183D
:10296400B4750C00750D03780C1218B4750C017550
:102974000D03780C1218B4740812167D1218CB7952
:10298400161233241207767408121647E9F50C70F0
:102994000B1233201203C8800F750C018508828541
:1029A4000983122AB5123598850C08022A76740216
:1029B40012167DAC82AD83850C82850D8312332A79
:1029C4001206568A108B11AC10AD11EC4D60438584
:1029D4000C82850D83A3A31218CB75100075110307
:1029E40078101218B475100175110378101218B408
:1029F400740812167D1218CB791612332412077636
:102A04007408121647E9F509700B1233201203CE2D
:102A1400800F750901850C82850D83122AB5123544
:102A240098850908804C851882851983AC82AD830A
:102A3400120740803A851882851983AC82AD8312CF
:102A44000746802B851882851983AC82AD831207D3
:102A54004C801C851882851983AC82AD8312075281
:102A6400800D851882851983AC82AD83120758E9DD
:102A7400F508E50860298E828F83A3E06414601F43
:102A8400850E82850F83E0900300122ABF123DDD7C
:102A9400900301123598E508A3122AC71203AAEE7F
:102AA400FAEFFB1206D4023484F50CEF3400F50D72
:102AB40022123DE185188285198322F085188285CA
:102AC400198322F07C007D03850A82850B831233EF
:102AD4002E2274EE1216A174FC1216318A0A8B0B84
:102AE4008C0E8D0FEA2405F508EB3400F5097C15EE
:102AF4007D0079007A007B031210A0E5082402F51A
:102B04000CE509122AB085188285198385821085FF
:102B1400831178101218B4850882850983A3A3A3AE
:102B2400A3122FDA1218B4E5082405F510E50934C8
:102B340000F51178101218B4850C82850D831233B8
:102B44003412065074061216478A108B11AE10AF59
:102B540011E50A2402F50AE50B12357FEE4F7003E6
:102B6400022C9C8017740212167D12332A888289E3
:102B740083EAF0A3EBF0900300E004F0900300E09C
:102B8400C394054003022C9CE4F510F5117810124F
:102B940018B47510E975110278101218B47510EA9A
:102BA40075110278101218B4740612167D1218CB1F
:102BB4007910EEFCEFFD1233241207767408121616
:102BC40047E9705E850882850983A3A3A3A3A3A311
:102BD400A3E0F89002E9E0687048122FDA1218B402
:102BE4007CEA7D02E5082408FAE5093400FB1210AA
:102BF4009A7402121647E960298E828F83A3A3A3D5
:102C0400A312332A900300E0F51074027810121610
:102C14001E74012510F58274033511F583EAF0A3BF
:102C2400EBF0740212167D858210858311781012E0
:102C340018B4740212167D1218CB850C82850D838C
:102C4400123DF212065C74041216478A108B11AE00
:102C540010AF11900300E0F51075110074027810A4
:102C640012161E74002510F874033511F988828930
:102C740083A31227C87003022B60E82403F8E93405
:102C840000F9EE4F6003022B698882898374FFF098
:102C9400A3F0900300E004F0900300E0600A123314
:102CA400201203BC7900800B8508828509831235C4
:102CB4008F790A02348474EA1216A174FE12163152
:102CC4008C128D13EA2405F50CEB123F5C12273AA3
:102CD400750800750900EA2402F510EB3400F511BB
:102CE40085188285198385820A85830B780A1218D0
:102CF400B4850C82850D83A3A3A3A3122E9C121862
:102D0400B4E50C2405F50AE50D12357F780A12188E
:102D1400B4850C82850D83123DF0120650740612A0
:102D240016478A0A8B0BEA450B7003022E4DEA24E0
:102D340004F50EEB122E9212273A8A828B83A3A3F8
:102D4400A3E0F985108285118312332A12063EE925
:102D5400F5096003022E4DE4F514F51578141218E4
:102D6400B47514E975150278141218B47514EA755B
:102D7400150278141218B4740612167D1218CB7941
:102D840013AC0AAD0B85108285118312332A120706
:102D9400767408121647E9F5096003022E4D900275
:102DA400E9E0F8E5087009E02402900301F08017D7
:102DB400900301E0FCE82402FAE43400FBEA6C70BE
:102DC40001EB6003022E51850882AA82122FD1944E
:102DD40014122FC95073850E82850F83E0C0E074EE
:102DE400022A122E89D0E0F00508850E82850F8311
:102DF400A3E0C0E085080A7402250A122E89D0E0F7
:102E0400F005089002E9122E9C1218B47CEA7D02A7
:102E140085080A7402250AFA74033400FB12108828
:102E240074021216479002E9E02508F50874FF6E53
:102E3400700374FF6F6012EE24010EEF3400FFE59F
:102E440008C394145003022CE4E5086013123215ED
:102E540085108285118312332A1203C279008014EB
:102E6400E509700375090A851282851383EEF0A3C0
:102E7400EFF0A90974021216477F0E021773850832
:102E84000C7402250CF58274033400F5832234009B
:102E9400F50F850E82F58322123B1F2274EE121663
:102EA400A174FE1216318C0E8D0FEA2405F50CEB7D
:102EB400122AB0750B00900300E4F0F50AEA24022C
:102EC400F508EB3400F5098049900300E0FA90021C
:102ED400E9E0F8122FD19417122FC9400D90030086
:102EE400E0F87416C3989002E9F0122FDA1218B4BD
:102EF4007CEA7D0274012AFA74033400FB12108800
:102F040074021216479002E9E0F8900300E028F0FA
:102F1400050AE50C2416F582E50D122E8DE0F8E580
:102F24000AC3984003022FB2900300E0C3941650E2
:102F34007DE50AC333F8E433F9E50C28FEE50D39E1
:102F4400FF851882851983AC82AD838E828F8312AC
:102F5400332A1206568A108B11AC10AD11EC4D7049
:102F640005750B018043E4F510F51178101218B4BF
:102F74007510E975110278101218B47510EA7511FC
:102F84000278101218B4740612167D1218CB791632
:102F940085088285098312332A120776740812166B
:102FA40047E9F50B7003022ECD12358B80107C009F
:102FB4007D0385088285098312332A1203D4A90B61
:102FC4007402023486E99400C365D03322EA28F8F7
:102FD400E43400F9E822E0F5107511007810227449
:102FE400EA1216A174FC1216318A0C8B0D8C128D08
:102FF40013EA2405F50AEB12357F750800750900FC
:10300400E50A2402F510E50B3400F51174021216DA
:103014007D85820E85830F780E1218B4850A828509
:103024000B83A3A3A3A3123ACB1218B4E50A240575
:10303400F50EE50B3400F50F780E1218B4851082E6
:103044008511831235851233241206507406121624
:10305400478A0E8B0FAE0EAF0FE50C2402F50EE57A
:103064000D3400F50F80408882898374FFF00508D1
:10307400122E8274FFF005089002E9E0F50C750D3C
:1030840000780C1218B47CEA7D0285080C740225C1
:103094000CFA74033400FB12108874021216479061
:1030A40002E9E02508F508EE4F60718E828F83A354
:1030B400A3A3E0F9850E82850F8312332A12063EFC
:1030C400E9F509EE2404122AADE97044E4F514F597
:1030D4001578141218B47514E975150278141218B9
:1030E400B47514EA75150278141218B4740812161B
:1030F4007D1218CB7911EEFCEFFD850E82850F83CE
:1031040012332A1207767408121647E9F509602764
:10311400850C82850D8312320B123598E5087003F5
:103124000231F1123215850E82850F8312332A1271
:1031340003DA7900023206850882AA82EA9002E95B
:103144007009E02404900301F08022E0F890030168
:10315400E0F514E82404FCE43400FDEC651470018B
:10316400ED70C0122FD19412122FC950B6850C8263
:10317400850D83E0C0E074022A122E89D0E0F005A8
:1031840008850C82850D83A3E0C0E0122E82D0E076
:1031940012322785820C85830D780C1218B47404BE
:1031A40012167D1218CB851082851183123DF212FE
:1031B400065C74041216478A0C8B0DAE0CAF0D8599
:1031C400080C7402250CF874033400F9EE4F7003F4
:1031D40002306B851882851983E0888289831232D4
:1031E40027A3E0C0E0122E82D0E0023079E5097016
:1031F4000375090A850A82850B8312320B123598EE
:10320400A9097404022E7A123DE185128285138382
:1032140022900301E0F5F0E50884900300F07C00BF
:103224007D0322F005088518828519832274EC1227
:1032340016A174FE1216318A088B098C0E8D0FEAC2
:103244002405FEEB3400FF851882851983AC82AD1A
:10325400838E828F8312332A1206568A0A8B0BEED0
:103264002418122AADEA450B70030232FB12346DA6
:10327400503285188285198312332A12076A8A10FC
:103284008B11EA4511606B7912AC0AAD0B8508828B
:1032940085098312332A85108285118312169FE9CA
:1032A400F50A7058E4F50AF50B780A1218B48E8200
:1032B4008F83A3A3E0F50A780A1218B4EE2403124C
:1032C400357C780A1218B48E828F83123334120735
:1032D4007C7406121647E9F50A7021850C82850D67
:1032E40083E0701F85088285098312332A1203E064
:1032F4008011750A0E8009750A018004E50A6003CD
:1033040012358B850C82850D83E060047900800280
:10331400A90A74021216477F0C0217737C007D03FE
:10332400850A82850B8312332E22E0FAA3E0FB2266
:10333400E0FCA3E0FD85088285098312332E227404
:10334400EE1216A174FE1216318A088B098C0C8DAC
:103354000DEA2405FEEB3400FF750E008518828506
:103364001983AC82AD838E828F8312332A12065660
:103374008A0A8B0BEA450B700302345912346D50E0
:103384003585188285198312332A12076A8A0E8BAF
:103394000FEA450F605E7912AC0AAD0B8508828591
:1033A400098312332A850E82850F8312169FE9F54D
:1033B4000E600302345C850882850983123673AA81
:1033C4000AFB12075E8A108B11A810A911E8497034
:1033D4001E7AFF7BFF12075E8A108B11A810A911B9
:1033E400E849606C88828983E50AF0A3E50BF075EF
:1033F4000A008007750E0E805F050A9002E6E0FA67
:10340400E50AC39A504AE50A75F017A4FAABF088A6
:10341400828983A3A3E02AFAA3E03BFB8A828B83FD
:10342400123585EC4D70D2750A17750B00780A12A7
:1034340018B4EEFCEFFD1210887402121647EEFC6D
:10344400EFFD85088285098312332A1203E680146E
:10345400750E098003750E01123DD9850C82850D08
:1034640083123598A90E022FC4E5082402F508E555
:10347400093400F5098A828B83A3A3A3E0A2E52281
:1034840074041216477F0A02177374EC1216A18C87
:10349400108D11EA2405F50CEB122AB0750F00EA21
:1034A4002402F50AEB12357F850A82F58312332A4A
:1034B40012075E8A088B09EA4509700302357175A3
:1034C4000E008071850C82850D83E06401704F8E3F
:1034D400828F83A3A31218CB8E828F83A3A3A3A36B
:1034E400E0F51275130078121218B4EE2405F512E3
:1034F400EF3400F51378121218B412332412077C37
:103504007406121647E9F50F6014850C82850D8345
:10351400E4F0123DD98510828511831235987C1709
:103524007D007900EEFAEFFB1210A08E828F83E407
:10353400F0A3F0050E9002E6E0F8E50EC398501EE5
:10354400E50E75F017A4F8A9F0850882850983A310
:10355400A3123F66123585EC4D60030234C885081A
:103564008285098374FFF0A3F0E50F7006123324FB
:103574001203ECA90F02331BF50AEF3400F50B22FA
:10358400A3E0FCA3E0FD228E828F83123DE1850E31
:1035940082850F83E8F0A3E9F022C082C083900201
:1035A400E2E06A7003A3E06B70067AE27B028004B7
:1035B4007A007B0002288BC082C08378008C828DC5
:1035C40083E06A7003A3E06B7010E875F003A4F85D
:1035D400A9F0EC28FAED39FB8015088C828D83A3C1
:1035E400A3A3E06A7003A3E06B60DF7A007B0002B0
:1035F400288B74F61216A11207288A828B83E5821F
:10360400458370067A007B008007A3A3A3A312332B
:103614002A023C8A74F21216A1E9FE740E12167D77
:10362400123673741012167D123AEB8C828D83E07D
:1036340064027036A3123DE7F50CA3E0F9A80C74FC
:10364400026870037429697021750C02750D007885
:103654000C1218B478081218B4780A1218B4EEF9D7
:103664001207A0740612164780027901023D0EE08B
:10367400F50AA3E0F50B2274E81216A174FB1216E6
:1036840031E9851882851983F08A168B17ECFEEDD3
:10369400FF751000741D12167D123DDD741D121687
:1036A4007D1235988E828F83A3A3A3E0A2E4502DCC
:1036B400741D12167D12332A12076A8A828B83E5DF
:1036C4008245837003023ABC790AEEFCEFFDAA1628
:1036D400AB1712169FE9F5106003023ABF741F126C
:1036E400167D123AEB742112167D1236737423126E
:1036F400167DE0F50EA3E0F50F8E828F83E0640261
:103704006003023A6AA3123DDD850882850983A31A
:10371400858212858313EE2406122AAD888289835A
:10372400E0FAA3E0F9EA2400F514E439F515781475
:1037340012193E0100002801285F370700022824DF
:10374400380328913700295B390129863902292752
:103754003903295B390429053A6A3AE50E450F60B5
:1037640003023A65850C82850D83123AE0FAE9FB7F
:103774008A828B83E0850A82850B83123B1612189A
:10378400B48A828B83A3E0FCA3E00239EFE50E4503
:103794000F6003023A65850A82850B837401F01277
:1037A4003AF3850882850983F07C007D008E828F40
:1037B40083A3A3A3A3E02401FAA3E03400FB12062D
:1037C40056EA4B60418A828B83E02402F8850A82A0
:1037D400850B83E028F0EA2404F8EB3400F98882AE
:1037E4008983E0851282851383123B28123B1612CB
:1037F40018B48A828B83123584E5082403FAE50918
:103804003400FB0239F4850A82850B83E02404F03A
:103814007C047D007900AA12AB131210A0023ABFF7
:10382400E50E450F6003023A65123AF3FEA3E0FF8A
:10383400850A82850B837404F0EE850882850983EA
:10384400F0EF851282851383F0740312167DAC8227
:10385400AD83EEFAEFFB1206568A0C8B0DEA450D8A
:1038640070030239088A828B83A3A312273674015A
:1038740012167D85820E85830F780E1218B4740596
:1038840012167D1218CB7CFF7DFF12065C740412A5
:1038940016478B0FEA450F7033850C82850D831212
:1038A4003ACB1218B4850C82850D83A31218CB7CF5
:1038B400027D007AE77B841204887404121647E9B7
:1038C400700A740112167D74FFF0A3F08E828F8348
:1038D400E064027039750C02750D00780C1218B48E
:1038E4008E828F83123584E5082404FAE5093400B6
:1038F400FB1210887402121647850A82850B83E036
:1039040024028009740112167DEEF0A3EFF0740115
:1039140012167D123ADCF0740112167DA3123AD409
:10392400023A5FE50E450F6003023A65850C828515
:103934000D83123585AA16AB17120794850A828562
:103944000B837402F0EA850882850983F08512826C
:10395400851383EB023A62E50E450F6003023A6574
:10396400123AF3F8A3E0F9850A82850B837402F016
:10397400E8850882850983F0E9851282851383022C
:103984003A62850C82850D8312332A121082EAFC76
:103994008C82A882C3950EE4950F405FE8650E7093
:1039A40002E50F70047C008022851882851983E06B
:1039B400FAE50E2AFAE50F3400FBC3EA98EB94000B
:1039C4005003E08005E50ECCC39CFCEC850A82859F
:1039D4000B83F08C0A750B00780A1218B4850C82DC
:1039E400850D83E0250EFCA3E0350FFDAA08AB0985
:1039F4001210887402121647023ABF751007023A71
:103A0400BFE50E450F705A850C82850D83123DDD8E
:103A1400850A82850B837407122742123AD412272F
:103A240042A3E0851282851383F0E82402FAE93484
:103A340000FB8A828B83123AD4123B03123ADCA332
:103A4400123B0C123AE5F0E82405F8E93400F98851
:103A5400828983123AE5A3123B28A3A3A3A3F0808F
:103A64005A75100B8055741D12167D12332A1207D5
:103A7400288A828B83E5824583603D123DDD880C74
:103A8400890DE8450D6031780E1218B4780A1218C1
:103A9400B478081218B4740612167DE0F9EEFCEF3F
:103AA400FDAA16AB17850C82850D8312169F74062A
:103AB400121647E9F510800375100EA9107405124B
:103AC40016477F10021773E0F50E750F00780E226B
:103AD400E085088285098322123B3222123DE1E807
:103AE40022123B32A3A322E0F508A3E0F5092285C4
:103AF4000C82850D83E0F8A3E0F5838882E022A39D
:103B0400A3F08A828B83A322F088828983A3A3A350
:103B1400A322F08A828B83123B1F22E0F50A750BE5
:103B240000780A22F088828983A3123B3222E0853E
:103B34000882850983A3A32274EE1216A174FE12CF
:103B440016318A0A8B0BECFAEDFB741412167DE025
:103B5400F510A3E0F511741612167DE0FE74181228
:103B6400167DE0F50EA3E0F50F851882851983AC68
:103B740082AD831206568A0C8B0DEA450D60498589
:103B8400188285198312332A1207288A828B83E5C7
:103B9400824583602FA3A3123AEBE508450960240C
:103BA400780E1218B478101218B4EEF9AC0CAD0DEE
:103BB400AA0AAB0B85088285098312169F74041226
:103BC40016478006790E80027901022FC474F6121A
:103BD40016A174FE121631740C12167D123AE08589
:103BE4001882851983F0740112167DE9F0E4F50852
:103BF400F50978081218B475080278081218B47414
:103C04000412167D85820885830978081218B41277
:103C1400077C74061216477402121647806874F7FC
:103C24001216A1EAFEEBFF89087C197D03120794A2
:103C3400EA5402600BA908EEFAEFFB12064A80026E
:103C4400790102263E74F61216A174FF6A70037499
:103C5400FF6B70168C828D83123C8FE4F08C828D06
:103C640083A3A3A3123C8FA380181207648A088B32
:103C740009A808A909E849600D8882898374FF129C
:103C84002740A3A3E4F07F0202177374FFF0A3F0AC
:103C94008C828D83A3A32274F61216A11207648A60
:103CA400828B83E58245836006A3A3E0FA80027ACF
:103CB400007B0080D174F21216A18A088B09ECFEF5
:103CC400EDFF740E12167DE0F50A1207648A0C8B60
:103CD4000DA80CA90DE8497026EEFCEFFD7AFF7BD8
:103CE400FF1207648A0C8B0DA80CA90DE849700417
:103CF4007911801688828983E508F0A3E509F088A4
:103D0400828983A3A3E50AF079007F0602177374FE
:103D1400EE1216A1EAFEEBFF8C088D09890C7414CF
:103D240012167D123DDD741612167D12332A750D9E
:103D340000E8496003023DD17402650C6003023D52
:103D4400CC741212167D123DE7FCA3E0F9EC2400BA
:103D5400F50EE439F50FEAF4F8EBF4F9EC58F8E56C
:103D64000F59F9E849705CE5082406F8ED3400F9C8
:103D7400880A890B8882F583123DF21207948A100F
:103D84008B11E50E65107004E50F65116042780E25
:103D94001218B4850A82850B83123DF212079A74B5
:103DA40002121647E9F50D7027780E1218B485082B
:103DB40082850983A3A3123DF01207B2740212167E
:103DC40047800D750D808008750D0D8003750D0BF2
:103DD400A90D0234898E828F83123DE122E0F8A37B
:103DE400E0F922123DE188828983E022A3A3E0FC6A
:103DF400A3E0FDEEFAEFFB2274E81216A174E712B9
:103E04001631851882851983EAF0A3EBF08C168DA0
:103E140017890E750800750900743112167DE0F5D6
:103E240012A3E0F513743312167DE0F514A3E0F544
:103E340015743512167DE0F50FE50975F003A4F845
:103E4400A9F0851882851983123F66E0F47003A3F4
:103E5400E0F47003023F49EE2402F50CEF123F5CDC
:103E6400E07003023F4985160A85170B780A121879
:103E7400B4AC14AD15AA12AB1312071C74021216BB
:103E8400478A0A8B0BEA450B7003023F49E4F5109D
:103E9400F51178101218B4740612167D85821085F7
:103EA400831178101218B4740912167D8582108556
:103EB400831178101218B4851282851383A3A3A3E7
:103EC400A31218CB7914AC0AAD0B8E828F831233F4
:103ED4002A1207767408121647E97069850A8285E2
:103EE4000B83A3A3A3A3123DDD740212167D123526
:103EF40098850C82850D83E0A2E05018A90E740207
:103F040012167DAC82AD838E828F8312332A120601
:103F14006EE94208850C82850D83E0A2E15026E516
:103F24000FF50A780A1218B8A90E740312167DAC9C
:103F340082AD838E828F8312332A12066874011233
:103F44001647E942080509E509C394025003023EF5
:103F54003DA9087419023AC33400F50D850C82F5A5
:103F64008322E028FEA3E039FF8E828F832274F23D
:103F74001216A1EAFEEBFF890B7401650B600E7447
:103F840002650B706A7901120974E97062EEFAEF46
:103F9400FB12075E8A088B09EA45096047750A0027
:103FA400800B7C177D0079001210A0050A9002E6B0
:103FB400E0F8E50AC3985021E50A75F017A4F8A9BA
:103FC400F0850882850983A3A3E028FAA3E039FBDE
:103FD4008A828B8312289270C9850882850983742A
:103FE400FFF0A3F07C197D03EEFAEFFB12078E02BB
:103FF4003D0E74F21216A18A088B09ECFEEDFF74D3
:104004000E12167D123673900BA5E0F4603D7A090A
:104014007B001210B2EA4B60328A828B8374B1F057
:10402400A3E4123B05A3123B03A3E508F0A3E509AF
:10403400124052EEF0A3EF124052A3A3E50AF0A3FC
:10404400E50BF0900BA5E0F91210BE023D0EF08ACC
:10405400828B83A3A3A3A3A322C082C08390619075
:104064007404F0A37448F0A37402F0906180744067
:10407400F09061BC7403F09061877419F0906265EC
:10408400741BF0906249E0C3941390619C400A74DD
:1040940009F090606674018007740DF0906066E426
:1040A400F090619A7433F0A37455F09061A0743A5F
:1040B400F090053FE064017009C2919003A6746713
:1040C40080059003A67461F09025FAE493906186CC
:1040D400F09025F4E493F46027E493540FF890618E
:1040E40085E0686012E5C654804449F5C6E59E54EF
:1040F4007F644970F8E8F053C680E59E547F70FAF7
:104104007905120CC802428BC082C083E5A8F8531B
:10411400A87E906181E4F0A3F0A3F0C2BA539AFEA2
:10412400C289759B00C2C275E90075910075BF0014
:1041340075A91175B905906181F0A374C0F0A3E469
:10414400F0D2BA439A0174805842A802428BC082CA
:10415400C08374F81216319003A4E0F8A3E0F9E8E0
:104164004970030242809003A4E05440602379081C
:10417400851882851983AA82AB83120B368518822F
:10418400851983AA82AB831208249003A4E054BF48
:10419400F0E054806010790C7A657B05120B369040
:1041A40003A4E0547FF0E0A2E0503190619A7433AC
:1041B400F0A37455F09061A0743AF090053FE06468
:1041C400017009C2919003A6746780059003A674D8
:1041D40061F012082A9003A4E054FEF0E054026057
:1041E4003190619A743FF0A3745AF09061A0747F87
:1041F400F090053FE064017009D2919003A67471B8
:1042040080059003A6746AF012082A9003A4E0546F
:10421400FDF0E0540460139025F8E493906186F077
:104224001208309003A4E054FBF0E05408601390AB
:1042340025F9E493906186F01208309003A4E054C9
:10424400F7F0E0541060139025FAE493906186F03F
:104254001208309003A4E054EFF0E05420600A12F6
:1042640008309003A4E054DFF0A3E05401600D1281
:104274000A5E1208369003A5E054FEF07408121684
:104284004702428BF0A3F0D083D08202011F74EC6A
:104294001216A174F4121631851882851983AC8222
:1042A400AD8375838475827874041215449025F85F
:1042B40093F4600302441E907808E0C39402500310
:1042C4000243FE740412167DAC82AD83758384753B
:1042D400824B7408121544851882851983858212CD
:1042E400858313740412167DAC82AD83750EFF753D
:1042F4000FFF7FFF7E00750C48750D7880157408DC
:104304006E700302439274096E7003024392740A3E
:104314006E607B850C82850D8378081214E98C828B
:104324008D83A909E50AC9F888107418780812144D
:1043340017E5104508F8C3E098A3E099850C828539
:104344000D8378081214E940188C828D83741878D0
:1043540008121417E5104508F8E0C398F8A3E080A4
:104364001C74187808121417E5104508FAE9FB8C38
:10437400828D83E0F8A3E0F9EAC398F8EB99F9C3D6
:10438400E8950EE9950F5006880E890FEEFF0EE5AD
:104394000C2404F50CE50D3400F50DEEC394135014
:1043A4000302430274FF650E700474FF650F6023FB
:1043B4008F087402780812161E74482508F5827452
:1043C400783509F58378081214E9851282851383F8
:1043D400E508F0EC2402FCED3400FD85128285131F
:1043E40083A3858212858313740C12167DE5826C77
:1043F4007003E5836D60030242F0750801750900DE
:1044040078081218B4740212167DAC82AD837A7ED9
:104414007B09120FC87402121647740C1216477FD8
:104424000C021773C082C0839061AE7468F0A374E9
:104434006AF090624574FBF0A304F053F4FD43FE6C
:104444000290053F7401F09061A0E0643A90619A93
:1044540070237433F0A37455F09061A0743AF0742F
:104464000164017009C2919003A6746780289003C7
:10447400A674618021743FF0A3745AF09061A07413
:104484007FF0740164017009D2919003A674718065
:10449400059003A6746A02428A7F08021773C082D9
:1044A400C0839004F1E06401700A9004F6E06004B3
:1044B400790C8002790002428BC082C08375E1F1DD
:1044C4009004F4E0605B14600914605F1460571496
:1044D400705E120A709004EAE0F97AEB7B04120C25
:1044E4004A7AD67BBE7C897D8E120C807A557B55A8
:1044F4007C557D00120C569004F5E0F9120C62799B
:1045040001120CBC9004E8E0F8A3E0C82416F5827C
:10451400E83400F5837488F0A3740AF07900024249
:104524008B120A7680AF120A7C80AA120A8280A5B6
:10453400791280EA74F01216A175D90D9004D5E0B1
:10454400A2E0E4331313F89004EAE0C4333354C014
:10455400484401F5D978E8790488828983A3A3A320
:10456400E0F5D988828983A3A882A983E864EE70E0
:1045740003E9640470E378D5790488828983A3E02D
:10458400F5D988828983A3A882A983E864DB7003B0
:10459400E9640470E575E1959004D5E0F97AD67B79
:1045A40004120C50900BC77422F0A3740AF0A37485
:1045B40084F0A3740BF0A37484F0A3740BF0A374BD
:1045C40084F0A3740BF0A37428F0A3740AF0A3740A
:1045D40084F0A3740BF0A37440F0A3740AF0900B5E
:1045E400D57484F0A3740BF0A37484F0A3740BF05B
:1045F400A37484F0A3740BF0A37484F0A3740BF07D
:10460400A37484F0A3740BF0A37484F0A3740BF06C
:104614009004F4E064019004E87012E0F8A3E0F57B
:10462400838882A3A37508007509088010E0F8A3A5
:10463400E0F5838882A3A3750804750900750A0050
:10464400750B007808121462750CFF750DFF750E5A
:10465400FF750F007808790C1214B09004E8E0F8A4
:10466400A3E0C8240EF582E83400F5837808121418
:10467400F89004E8E0F8A3E0C82414F582E83400D4
:10468400F5837413F09003A27402F002449D74F74E
:104694001216A19004FAE02407F5D99004EAE0C4C4
:1046A400333354C0F5D978E8790488828983A3A385
:1046B400A3E0F5D988828983A3A882A983E864EE5C
:1046C4007003E9640470E39004FAE0601F78E87909
:1046D40004FAE82413F582E93400F583E0F5D98877
:1046E400828983A3A882A9831AEA70E690051AE056
:1046F4002407F5D99004EAE0C4333354C04404F5E4
:10470400D978E8790488828983A3A3A3E0F5D988BA
:10471400828983A3A882A983E864EE7003E9640410
:1047240070E390051AE0601F78E87904FAE824330E
:10473400F582E93400F583E0F5D988828983A3A85A
:1047440082A9831AEA70E675E195900BC7742EF07E
:10475400A3740AF0A37484F0A3740BF0A37484F01C
:10476400A3740BF0A37484F0A3740BF0A37428F067
:10477400A3740AF0A37484F0A3740BF0A37440F040
:10478400A3740AF0900BD57484F0A3740BF0A37493
:1047940084F0A3740BF0A37484F0A3740BF0A374DB
:1047A40084F0A3740BF0A37484F0A3740BF0A374CB
:1047B40084F0A3740BF09004E8E0F8A3E0C8240E9E
:1047C400F582E83400F58374FFF0A3F0A3F0A3F0BE
:1047D4009004E8E0F8A3E0C82414F582E83400F576
:1047E400837412F09003A27401F0FF02177374F73C
:1047F4001216A19004FAE02407F5D99004EAE0C463
:10480400333354C04402F5D978E879048882898323
:10481400A3A3A3E0F5D988828983A3A882A983E806
:1048240064EE7003E9640470E39004FAE0601F78B6
:10483400E87904FAE82413F582E93400F583E0F515
:10484400D988828983A3A882A9831AEA70E675E1CC
:1048540095900BC7743AF0A3740AF0A3743AF0A3CA
:10486400740AF0A3743AF0A3740AF0A3743AF0A3A0
:10487400740AF0A3743AF0A3740AF0A3743AF0A390
:10488400740AF0A37440F0A3740AF0900BD57484F6
:10489400F0A3740BF0A37484F0A3740BF0A37484DA
:1048A400F0A3740BF0A37484F0A3740BF0A37484CA
:1048B400F0A3740BF0A37484F0A3740BF09004E8D9
:1048C400E0F8A3E0C8240EF582E83400F58374FF11
:1048D400F0A3F0A3F0A3F09004E8E0F8A3E0C82468
:1048E40014F582E83400F5837414F09003A2740480
:1048F400F0024BB974F71216A19004FAE02407F5FC
:10490400D99004EAE0C4333354C04406F5D978E8B6
:10491400790488828983A3A3A3E0F5D98882898353
:10492400A3A882A983E864EE7003E9640470E390A9
:1049340004FAE0601F78E87904FAE82413F582E9C0
:104944003400F583E0F5D988828983A3A882A983FA
:104954001AEA70E690051AE02407F5D99004EAE013
:10496400C4333354C04404F5D978E879048882897F
:1049740083A3A3A3E0F5D988828983A3A882A9830A
:10498400E864EE7003E9640470E390051AE0601FC4
:1049940078E87904FAE82433F582E93400F583E011
:1049A400F5D988828983A3A882A9831AEA70E67557
:1049B400E195900BC77434F0A3740AF0A37484F0E7
:1049C400A3740BF0A37484F0A3740BF0A37484F0A9
:1049D400A3740BF0A37484F0A3740BF0A37484F099
:1049E400A3740BF0A37440F0A3740AF0900BD57475
:1049F40084F0A3740BF0A37484F0A3740BF0A37479
:104A040084F0A3740BF0A37484F0A3740BF0A37468
:104A140084F0A3740BF0A37484F0A3740BF09004DB
:104A2400E8E0F8A3E0C8240EF582E83400F58374C6
:104A3400FFF0A3F0A3F0A3F09004E8E0F8A3E0C82B
:104A44002414F582E83400F5837415F09003A274FD
:104A540003F0024BB9C082C0839004E8E0F8A3E0FD
:104A6400C82406F582E83400F583E402428874F72A
:104A74001216A19003D0E0F875F003A4C8AAF02A96
:104A8400F974D228F8740339F9E82405FAE93400F2
:104A9400FB8A828B83E0FCA3E0FD88828983A3A345
:104AA400A3A3A3A3A3A3A3ECF0A3EDF0888289831B
:104AB400A3A3A3A3A3A3A3E024FFF8A3E034FFF9D3
:104AC4008A828B83E8F0A3E9F0024BB974F71216DB
:104AD400A1EAFEEBFF9061D0E06003024BAD75D913
:104AE4000E75D90375D904EE248BF582EF3400F5E5
:104AF40083E5822408F8E5833400F9E0F5D9A3E8D6
:104B040065827003E9658370F2EE2483F582EF34E5
:104B140000F583E5822404F8E5833400F9E0F5D94F
:104B2400A3E865827003E9658370F275E1957908FD
:104B3400EE248BFAEF3400FB120B2A7904EE248363
:104B4400FAEF3400FB120B2A7C00EEF8EFF9ECFAD2
:104B5400C3E49AFA95E0FBEE2AFAEF3BFBEA248AD7
:104B6400F582EB3400F583E0C0E0E824AAF582E99D
:104B74003400F583D0E0F00C88828983A3A882A94D
:104B840083ECC3940840C7EE246FF582EF3400F53C
:104B940083E0F8A3E0F9EE2471F582EF3400F583A5
:104BA400E8F0A3E9F07901800279008008F0EEA230
:104BB400E092AF79007F01021773C082C08375D978
:104BC4000275D90375D90575E195EA246FF582EB71
:104BD4003400F583E0F8A3E0F9EA2471F582EB34BC
:104BE40000F583E8F0A3E9F0790102428B74F61230
:104BF40016A1EAFEEBFF9005457406F075084575AD
:104C0400090578081218B47C017903120B78740230
:104C140012164775D90675D903758245758305E063
:104C2400F5D9A3E582644A7004E583640570F075E0
:104C3400E1959003A2E06408701EEE246FF582EF04
:104C44003400F583E0F8A3E0F9EE2471F582EF3443
:104C540000F583E8F0A3E9F07901024EBF74F6127F
:104C640016A1EAFEEBFF9061D0E070667801900532
:104C740045740BF09003A2E064077019750845753C
:104C8400090578081218B47C017903120B787402B0
:104C94001216477805740128F5D975D9037582452C
:104CA400758305E8FAE0F5D9A31AEA70F875E19579
:104CB400EE246FF582EF3400F583E0F8A3E0F9EE1B
:104CC4002471F582EF3400F583E8F0A3E9F079016B
:104CD40080027900024EBF74F71216A1EAFEEBFFC0
:104CE40075D90375D90375D90DEE24DDF582EF343A
:104CF40000F583E0F5D975E1957904120C86EE246C
:104D04006FF582EF3400F583E0F8A3E0F9EE247147
:104D1400F582EF3400F583E8F0A3E9F07901024B62
:104D2400B974F61216A1EAFEEBFF9061D0E0F874B4
:104D340080C398FAEE2482F582EF3400F583E060B4
:104D440004780480027800E8240BF8EAC39850033E
:104D5400024DEA7D09900545EDF0EE24E2F8EF34CA
:104D640000F97A467B057C0888828983E08A828BF5
:104D740083F088828983A3A882A9838A828B83A3F0
:104D8400AA82AB831CEC70E0EE2482F582EF34003F
:104D9400F583E0601D75084575090578081218B497
:104DA4007C097903EEFAEFFB120B787402121647B2
:104DB4007D0D74012DF5D975D9037582457583056B
:104DC4008D08E0F5D9A31508E50870F675E1957925
:104DD40004120C86EE241DF582EF3400F583E4F012
:104DE400A3F0790180027900024EBF74F61216A175
:104DF400EAFEEBFF9061D0E0F87480C398FAEE24E9
:104E040082F582EF3400F583E06004780480027850
:104E140000E82408F8EAC3985003024EBD780690CF
:104E24000545740CF09003BFE0900546F09003C074
:104E3400E0900547F09003C1E0900548F09003C26C
:104E4400E0900549F09003C3E090054AF0EE248217
:104E5400F582EF3400F583E0601B7508457509059C
:104E640078081218B47C067903EEFA120B787402EF
:104E7400121647780A740128F5D975D90375824545
:104E84007583058808E0F5D9A31508E50870F6755B
:104E9400E1957904120C86EE246FF582EF3400F567
:104EA40083E0F8A3E0F9EE2471F582EF3400F58392
:104EB400E8F0A3E9F07901800279007F0202177318
:104EC40074F61216A1EAFEEBFF9061D0E0F874804C
:104ED400C398FAEE2482F582EF3400F583E060048F
:104EE400780480027800E82404F8EAC398500302A6
:104EF4004F9E7802900545E8F0EE24F4F582EF34F5
:104F040000F583E0900546F0EE2482F582EF34004C
:104F1400F583E0601B75084575090578081218B417
:104F24007C027903EEFA120B7874021216477806A3
:104F3400740128F5D975D9037582457583058808E8
:104F4400E0F5D9A31508E50870F675E195EE24732C
:104F5400F582EF3400F583E4F0EE247FF582EF343C
:104F640000F583E4F0EE241DF582EF3400F583E4CC
:104F7400F0A3F07904120C86EE240DF582EF3400D0
:104F8400F583E0F8A3E0F9EE2471F582EF3400F53F
:104F940083E8F0A3E9F0790180027900024EBF743E
:104FA400F61216A19061D0E0F87480C398FCEA244C
:104FB40082F582EB3400F583E060047804800278A3
:104FC40000E82404F8ECC398405B7902900545742A
:104FD40007F0EA24F5F582EB3400F583E09005460A
:104FE400F0EA2482F582EB3400F583E0601875085A
:104FF4004575090578081218B47C0209120B7874F7
:10500400021216477906740129F5D975D9037582F8
:1050140045758305E9F8E0F5D9A318E870F875E15A
:1050240095790180027900024EBF74F51216A1E948
:10503400FCA2AFE433F50AC2AF7D0080010DEA247F
:105044006EF582EB3400F583E0F8EDC398501A8DC9
:1050540008EA2508F8EB3400F9E8246AF582E93413
:1050640000F583E06C70D68024EA246EF8EB3400FB
:10507400F9E0FEEA2EFAEB3400FBEA246AF582EB4F
:105084003400F583ECF088828983E004F0E50AA219
:10509400E092AF7F0302177374F61216A1A2AFE475
:1050A40033FDC2AFEA246EF582EB3400F583E014DD
:1050B400F07C0060368C08EA2508F8EB3400F9E847
:1050C400246BF582E93400F583E0C0E0E8246AF556
:1050D40082E93400F583D0E0F00CEA246EF582EB2B
:1050E4003400F583E0F8ECC39840CAEA246DF582F5
:1050F400EB3400F58374FFF0EA2469F582EB3400A5
:10510400F583E4F0EDA2E092AF024EBFC082C0830B
:10511400E5A8F8C2AFEA246AF582EB3400F583E926
:10512400F0EA2469F582EB3400F583E4F0E8A2E7C1
:10513400A2E792AF02428B74F31216A1EAFEEBFFD0
:10514400ECFAEDFB8A828B83A3A3A3A3E0541FF0A4
:10515400EE2436F582EF3400F583E4F0F50AEEFC34
:10516400EFFD8A828B83E0C0E0EC245DF582ED34B0
:1051740000F583D0E0F0750B00E50A33333354F8BF
:10518400F50C8A828B83E0F508750900E50B780835
:105194001215FFE508A2E0502FEE2436F8EF340094
:1051A400F988828983E0F508EE2508F508EF3400D4
:1051B400F509E5082438F582E5093400F583E50CA2
:1051C400F088828983E004F0050B050CE50BC39499
:1051D4000840AF050A8A828B83A3AA82AB838C82A0
:1051E4008D83A3AC82AD83E50AC3940550030251B9
:1051F400667F0502177374F71216A19003CEE0645C
:105204000170030253587A009003D4E06003025300
:10521400587401F0A3E4F0A3F090043404F0900473
:1052240039F09003D7E4F0A3F0A3F0A3F09003E1E6
:1052340004F0900407E4F09003EAF0A3F0A3F0A3D1
:10524400F0A3F0A3F0A3F0900451F0900445F09083
:10525400043A7480F0A3E4F0900440F09004BCF0AD
:10526400A3F0A3F0A3F0A3F0A3F0A3F0A3F09004A1
:10527400C5F0900454F09004A4F0A3F0A3F0A3F0BC
:10528400A3F0A3F0A3F0A3F0A3F0A3F09004B0F074
:105294009004B2F09004AEF09004C8F0A3F0A3F030
:1052A400A3F0A3F0A3F0A3F0A3F078CE7903E8244D
:1052B4006EF582E93400F58374FFF00A88828983ED
:1052C400A3A882A983EAC3940440E37ACE7B03783B
:1052D400DC790488828983E0C0E0EA2461F582EB0A
:1052E4003400F583D0E0F088828983A3A882A9835F
:1052F4008A828B83A3AA82AB83E864E17003E964A6
:105304000470D07ACE7B0378B5790388828983A32D
:10531400E0C0E0EA24E6F582EB3400F583D0E0F067
:1053240088828983A3A882A9838A828B83A3AA8281
:10533400AB83E864BD7003E9640370CF9003CEE0EF
:1053440004F0640170089003D6E09003D0F07AD2A0
:105354007B0380047A007B00024BB9C082C0839037
:1053640003D5E4F09003D4F09003CEF0A3F0A3743B
:10537400FFF075E1F102428BC082C08378007900AE
:105384009003D5E0600478D2790388828983A3A34B
:10539400A3A3E0F902428B74F61216A1EAFEEBFF16
:1053A400EE2463F582EF3400F583E0F8A3E0F9E836
:1053B400497003025440EE2463F8EF3400F97A0094
:1053C4007B00A2AFE433F508C2AF88828983E0FC96
:1053D400A3E0FDEC4D603A88828983E0FAA3E0FB08
:1053E4008A828B83E0FCA3E0FD88828983ECF0A3AE
:1053F400EDF08A828B83E4F0A3F088828983E0FC59
:10540400A3E0FDEC4D700A88828983A3A3E4F0A392
:10541400F0E508A2E092AF1211129004E2E004F069
:105424009004E3E004F0EE2463F582EF3400F583A6
:10543400E0F8A3E0F9E84960030253BA8E828F834F
:10544400A3A3A3E0600F8E828F83A3A3A3E4F090B1
:1054540003CFE014F09003CEE014F070069003D074
:1054640074FFF08E828F83A3A3E4F09004E1E070D4
:105474000D9003CFE0640170057900120C68EEFA18
:10548400EFFB120BA8024EBF74F71216A1EAFEEB53
:10549400FF8E828F83A3A3A3A3E0FA7B0012087874
:1054A400EEFAEFFB120AF4120B90024BB9C082C061
:1054B4008378B5790388828983A3E4F08882898319
:1054C400A3A882A983E864BD7003E9640370E6902D
:1054D40003B6740102428A74F61216A1EAFEEBFFC7
:1054E400EC2403F8ED3400F988088909EC2407F862
:1054F400ED3400F9E8FCE9FD8C828D83E0F8A3E04B
:10550400F9850882850983E0FAA3E0FB1215A6EE6B
:10551400240DF582EF3400F583E8F0A3E9F08C82E2
:105524008D83E0F8A3E0F9850882850983E0FAA376
:10553400E0FB1215A68B09EA45096013EE240DF56C
:1055440082EF3400F583E02401F0A3E03400F0029C
:105554004EBF74F61216A1EAFEEBFFEE242EF5827E
:10556400EF3400F583E0FCA3E0FD780079FAECFA6F
:10557400EDFB1215A6EE246FF582EF3400F583E8F7
:10558400F0A3E9F0780079FAECFAEDFB1215A68B9A
:1055940009EA45096013EE246FF582EF3400F583C0
:1055A400E02401F0A3E03400F0024EBF74EC1216C4
:1055B400A1EAFEEBFF741412167D78081214E912A6
:1055C4000C2C8A0C8B0D8C0E8D0F7510027511002E
:1055D400751200751300780C791012144F7510FFB2
:1055E4007511FF7512FF780C79101214B0780C1233
:1055F40018B08E828F83E0F8A3E0F5838882A3A39A
:105604001215071222BD7404121647E960030257EB
:10561400148E828F83E02402F8A3E03400F9E8FAC0
:10562400E9FB8A828B8378081214758A828B8375CE
:1056340008FF7509FF750AFF750B0078081214D668
:10564400EE240BF582EF3400F583C082C0838E8292
:105654008F83A3A3A3A3A3E02401F8A3E03400F958
:10566400D083D082E0687003A3E0697005790102F9
:1056740057168E828F83A3A3A3A3A3A3A3E024011D
:10568400F0A3E03400F0EE2473F582EF3400F583E8
:10569400E064017036EE2474F582EF3400F583E0A3
:1056A400F8A3E0F98E828F83A3A3A3A3A3A3A3E00B
:1056B400687003A3E0697013EE2474F582EF34007C
:1056C400F583E02401F0A3E03400F0EE247FF582BA
:1056D400EF3400F583E064017036EE2480F582EF48
:1056E4003400F583E0F8A3E0F98E828F83A3A3A3AB
:1056F400A3A3A3A3E0687003A3E0697013EE24805E
:10570400F582EF3400F583E02401F0A3E03400F0E7
:10571400790002442374F61216A1E9FEECFFEA2490
:1057240062F582EB3400F583E0640160030257C242
:105734009061D0E0F508EA2482F582EB3400F58329
:10574400E060047804800278007480C39508FC95B6
:10575400E0FDEF28F8E43400F9E82402F8E9340025
:10576400F9EC98ED99A2D265D033404E740A121622
:105774007DE0F508A3E0F509EA2482F582EB340024
:10578400F583E0601578081218B4EFFCEEF9120BFB
:1057940078740212164774042FFF74012FF5D98E02
:1057A400D9EF600F850882850983F8E0F5D9A3183D
:1057B400E870F875E195790080067907800279FF31
:1057C400024EBF74F71216A1A2AFE433FEC2AF8A31
:1057D400828B83E0F8A3E0F9E8498A828B83600A2C
:1057E400A3A3E0F8A3E0F5838882ECF0A3EDF08AAC
:1057F400828B83A3A3ECF0A3EDF08C828D83E4F081
:10580400A3024BB174F71216A1E96021F88C828DC2
:1058140083E08A828B83F08C828D83A3AC82AD83F8
:105824008A828B83A3AA82AB8318E870E0ECFAED3A
:10583400FB024BB974F41216A1907803E064427031
:1058440055900544E014F0704DC2AF1258520078E0
:105854002AD0E0F618D0E0F6E59F540770057509E4
:10586400FF800375097FC4C0E07829E6F50808E6DF
:105874005509F509740B780812160FD0E02508F8BD
:10588400906270E0A2E740F8E8C333906272F0904F
:105894006270E0D2E0F09003D0E0F47003025C3276
:1058A400E0F875F003A4C8AAF02AF974D228FE74AB
:1058B4000339FFEE2401F582EF3401F583E0F8A308
:1058C400E0F9E849601EEE2401F582EF3401F58326
:1058D400E0FAA3E0FBEE2400F582EF3401F583E067
:1058E400F91210E28E828F83A3A3A3A3A3A3A3E040
:1058F400F8A3E0F98E828F83A3A3A3A3A3E8F0A364
:10590400E9F0906054E09003A9F0906055E09003B2
:10591400AAF0906056E09003ABF0906057E09003DB
:10592400ACF0906058E09003ADF0906059E09003C3
:10593400AEF090605AE09003AFF090605BE09003AB
:10594400B0F090605CE0FC9003B1F090605DE0FB2F
:105954009003B2F090605EE0FD9003B3F090605F5E
:10596400E0FA9003B4F09003AFE08C082508F8E463
:105974003400F98D08E82508F8E93400F98B08E8C3
:105984002508F8E93400F98A08E82508FAE934001A
:10599400FBEE24F6F582EF3400F583E02AF0A3E071
:1059A4003BF08C08EE24F8F582EF3400F583E02513
:1059B40008F0A3E03400F0EE24FAF582EF3400F5A9
:1059C40083E02401F0A3E03400F0EE24FEF582EF3E
:1059D4003400F583E0F8A3E0F9E849604290600000
:1059E400E0C333FCE433FDE82CF582E93DF583E0C4
:1059F4002AF0A3E03BF0906000E0FA9003B1E0FCF1
:105A0400EAC333FAE433FBE82AF8E93BF9E8244A29
:105A1400F582E93400F583E02CF0A3E03400F09043
:105A240003AFE070119003B2E0700BA3E07007A322
:105A3400E07003025B2F8E828F83A3A3A3A3A3E052
:105A4400F8A3E0F9EE240DF582EF3400F583E028A5
:105A5400F8A3E039F9EE240BF582EF3400F583E87E
:105A6400F0A3E9F0EE240FF582EF3400F583E4F0BF
:105A7400EE241CF582EF3400F583E06401701EEE21
:105A84002420F582EF3400F583E0F8A3E0F9EE2456
:105A94001DF582EF3400F583E8F0A3E9F09003AA42
:105AA400E06052EE241CF582EF3400F5837401F0BB
:105AB400EE2469F582EF3400F583E07038EE247348
:105AC400F582EF3400F583E0702BEE247FF582EF4E
:105AD4003400F583E0701EEE2420F582EF3400F5E7
:105AE40083E0F8A3E0F9EE241DF582EF3400F5839A
:105AF400E8F0A3E9F0906062E07003025BE28E825A
:105B04008F83E0F8A3E0F9E82406FCE93400FDE81B
:105B14002402FAE93400FB120C268E828F83E0F80B
:105B2400A3E0C82412F582E8025BE89003B1E060C8
