:020000040000FA
:06000000020107022107C6
:03002B0002255F4C
:03003B0002258417
:0300430002250F84
:0300530002217A0D
:03007B0002253724
:10008300021F73E5C754F84401F5C7790122000044
:100093000080FB120086B900030200F1E4792178A5
:1000A30008B800028004F709D8FCE479297802B87B
:1000B30000028004F709D8FCE49002817879790979
:1000C3008002F0A3D8FCD9FA7AF97B0A9001377839
:1000D3008D79038015E493A3AD82AE838A828B83EB
:1000E300F0A3AA82AB838D828E83D8E9D9E7758288
:1000F300D07583D5740312011975829175830074C9
:100103000012011975D00075813F751881751902A8
:10011300759F00020096C09FF59FE473D09F22D085
:1001230083D082C09FE493C0E0740193C0E0740263
:1001330093F59F22FF0000B4000028002800283018
:1001430075A000A000A000A00000080008E001F0D6
:10015300001000100010001000100010005000509C
:1001630000500010001000D0070000000000000F36
:100173000001000500307507001000010081FF0039
:10018300000000FFC105DF05C705FF0202020802E8
:100193005000A0000000E80302C08401000097841F
:1001A30002BC84010000500B02B684010000B302BC
:1001B30002BC84010000510B02B484010000C90297
:1001C30002BC84010000520B02AE84010000CB028A
:1001D30002BC84010000530B02AC84080000CC0273
:1001E30002BC84010000540B02AA84010000550BD9
:1001F300FF0100FF2002C0840100009A8402BC8436
:10020300010000B90B02A084000000000002B884C2
:100213000300001903910B910B910B910B910B911F
:100223000B910B910B910B910B910B910B910B1369
:100233000E2B0E0D0E020202020202020202010D39
:10024300000000100102C0840100009D8402BC84F0
:10025300010000FA0B02B084010000400702BC84D5
:10026300010000FB0B02A6840100002F8402BC8462
:10027300010000FC0B02A484010000138402BC846F
:10028300010000FD0B02A284010000408302BC8434
:10029300010000FE0B02C4840100001C8302BC8425
:1002A300010000FF0B02C6840100000A8302BC8424
:1002B300010000000C02C884010000F88202BC8423
:1002C300010000010C02CA84010000218402BC84E5
:1002D300010000020C02A884010000030C01E803E2
:1002E300053F100AFFFFFF000130750302010600FE
:1002F30000000000000000000000000000000000FB
:100303000000000000000000000000FFFF06008066
:100313000CE80302000102030405060708090A0B9F
:100323000C0D0E0F0709455F4C6F634B0512500010
:100333002003020A00020106030207E207FF9C9C56
:100343009C9C9C9C071A000000000000455F4C6FBA
:10035300636B0000000000000000000000000000CC
:1003630000E7120000FF120A5772697465204368A0
:10037300617200104E6F7469667920436861720080
:1003830002C084010000948402BC840100002C0D8F
:1003930010E383030000DE0A02BA840100002D0D7E
:1003A30002BC84010000380D10F383000000F20A40
:1003B30002B884030000F30A02BA84010000390D75
:1003C30012012299C703120122B0C703120122E1CD
:1003D300C7031201221CC80312012246C8031201DB
:1003E3002270C80312012287C8031201229EC80388
:1003F300120122B5C803120122DEC803120122F141
:10040300C80312012207C9031201221AC9031201E8
:100413002241C903120122F8D002120122FCD102A7
:1004230012012234D20212012257D2021201226295
:10043300D20212012285D20212012294D3021201A6
:100443002269D402120122E4D4021201226CD502E1
:10045300120122A7D502120122DED5021201226C5B
:10046300D60212012245D702120122A5D702120198
:1004730022B0D7021201222FD80212012232D8024F
:1004830012012235D802120122C4D802120122C756
:10049300D802120122F7D80212012221D902120135
:1004A300220FDA02120122C1DA02120122A59803F5
:1004B300120122CD9803120122FB9803120122326A
:1004C3009903120122909903120122DB990312016D
:1004D30022269A03120122669A03120122AC9A037E
:1004E300120122DA9A03120122979B03120122A11D
:1004F3009B03120122AE9B03120122E19B03120113
:1005030022AD9C03120122B99C03120122D19C0348
:10051300120122DB9C0312012236D1031201224471
:10052300D1031201225CD10312012274D1031201FF
:1005330022008002120122AC8002120122278102D2
:100543001201224882021201228482021201222D08
:1005530083021201221484021201227885021201FD
:1005630022CF850212012250860212012240870205
:100573001201228D870212012213880212012245E1
:100583008802120122598A021201229B8A02120155
:1005930022B98A021201223C8B02120122108C0220
:1005A300120122D88C02120122008003120122D3ED
:1005B30080031201227C8103120122CF81031201E5
:1005C300227F82031201220B8303120122F783038A
:1005D300120122268403120122398503120122818A
:1005E3008503120122568603120122928603120109
:1005F30022AE8603120122CAD403120122C5AA0322
:10060300120122DBAA0312012201AB031201221DF4
:10061300AC0312012227AC031201225CAD031201C9
:100623002254AE031201229EFA02120122CEFB02D1
:1006330012012201FC021201224BFC0212012212BE
:10064300FE0212012258D201120122C2D20112016A
:100653002221D40112012231D4011201225ED401DC
:10066300120122B5D4011201225ED50112012265C5
:10067300D6011201222FD7011201228FD8011201B4
:1006830022D2D80112012277D901120122C4D90141
:10069300120122EAD901120122F8DB01120122FD23
:1006A300DB0112012202DE011201224FDE011201DF
:1006B30022C2DE01120122F5DE0112012297DF01BF
:1006C30012012240E00112012278E0011201227B93
:1006D300E001120122C3E00112012203E101120130
:1006E300225AE101120122C2BD03120122DABD0323
:1006F30012012222BE0312012238BE031201227FFD
:10070300BE0312012293BF0312012220C003120170
:10071300226BC0031201223043001201223C43002A
:10072300120122774300120122BC43001201227CF2
:1007330044001201220245001201222E450012013B
:1007430022674500120122A54700120122894900B0
:100753001201226F4B00120122B24C00120122003F
:100763004F001201221250001201225D51001201AA
:10077300226D52001201228A5200120122C5520038
:10078300120122E752001201224A53001201220BE6
:100793005800120122A05800120122F15800120140
:1007A300221859001201226A5900120122885900A5
:1007B300120122E25900120122E15A0012012265BC
:1007C3005B00120122629D031201226C9D03120140
:1007D30022AF9D03120122CA9D031201225A9E03D6
:1007E300120122829E03120122BF9E03120122F6EE
:1007F3009E031201221F9F03120122949F031201E1
:1008030022A99F03120122BE9F03120122EF9F031D
:1008130012012203A00312012228A0031201226263
:10082300A0031201228EA003120122C6A00312010B
:100833002245A1031201228EA103120122B8A103B2
:10084300120122E3A103120122D57E00120122DE4E
:10085300B9021201220CBA021201225ABB0212017E
:10086300223ABC0212012259BC02120122D6BC0256
:1008730012012219BD021201226FBE02120122309F
:10088300BF02120122B7C10212012258C202120191
:10089300224EC3021201224BC402120122A5C50239
:1008A30012012230C60212012256CC03120122BFCA
:1008B300CC0312012213CD031201223ACD031201FC
:1008C300226BCD031201220BA20312012278A20391
:1008D300120122BFA203120122D7A303120122D3C2
:1008E300A403120122B6A50312012232DB02120174
:1008F3002274DB0212012246DC021201221FDD02F6
:1009030012012219DE02120122FBDE02120122640D
:10091300DF021201221AE0021201228EE00212010A
:1009230022FAE00212012223E1021201229DE102D6
:1009330012012236E2021201229BE202120122B0CC
:10094300E202120122F6E2021201220FE302120175
:100953002274E30212012277E302120122F0B703A9
:1009630012012218B80312012256B80312012214ED
:10097300B9031201227BB90312012297B9031201B1
:1009830022BFB903120122EFB903120122FEB903F8
:100993001201227BBA03120122A1BA0312012247D8
:1009A300E20112012225E40112012257E60112019C
:1009B3002293E601120122C0E601120122AAE701F5
:1009C300120122F5E70112012240E801120122522D
:1009D300E80112012292E801120122C7E801120183
:1009E3002215E90112012244E90112012267E901FA
:1009F300120122B4E90112012239EA011201225340
:100A0300EC0112012292EE01120122D3EE01120136
:100A13002275F001120122B6F00112012229F1011F
:100A23001201227FF101120122A9F101120122DE3A
:100A3300F101120122DCF20112012275F901120106
:100A43002296FB0112012261FD01120122C9FE015E
:100A5300120122CC5B001201227B5C00120122C135
:100A63005C00120122015E00120122975F00120155
:100A7300221160001201222C6000120122A76000E3
:100A83001201220162001201226163001201226736
:100A93006400120122C86500120122E165001201FF
:100AA300223F66001201222D6700120122606700B7
:100AB300120122D067001201224A68001201229417
:100AC30068001201225E6900120122336A001201DA
:100AD30022126B001201229D6B001201220B6C008B
:100AE3001201227F6C00120122AA6C0012012269FA
:100AF3006D00120122CE6E00120122EB6E00120174
:100B0300220A6F00120122FB6F00120122207000E3
:100B13001201224A7000120122C570001201221F25
:100B23007100120122887200120122367300120131
:100B3300227773001201225D9D02120122AB9D02F6
:100B4300120122B79D02120122959E02120122C6B2
:100B53009E02120122F79E02120122779F021201C6
:100B630022F59F021201222DA0021201227FA00270
:100B7300120122BCA002120122D9A202120122FFF9
:100B8300A402120122EAA602120122D4A80212012F
:100B930022EE7F00120122DE99011201220E9A0138
:100BA300120122E7A0011201226CA20112012269A3
:100BB300A80112012251A9011201228EA9011201D9
:100BC30022B1A901120122E2A901120122EBA9011A
:100BD300120122F5A901120122E3AA01120122D96D
:100BE300AB01120122CF8401120122CE880112012E
:100BF30022D488011201220F9001120122289501AB
:100C0300120122A8B103120122A2B2031201221679
:100C1300B30312012254B303120122C8B303120116
:100C23002241B4031201224AB40312012256B4032F
:100C33001201226BB403120122A9B403120122BFD1
:100C4300B40312012278A60312012285A60312011E
:100C5300229FA603120122DEA6031201221CA70370
:100C630012012281A70312012296A703120122A1D6
:100C7300A703120122AEA703120122C5A703120183
:100C830022D3A703120122DEA703120122EAA7033C
:100C9300120122F9A70312012204A8031201222739
:100CA300A803120122CEA803120122DEA803120117
:100CB30022F8A80312012215A90312012231A90364
:100CC30012012256A90312012261A90312012276FD
:100CD300A9031201228AA903120122EBA90312011B
:100CE30022F1A903120122F7A903120122FDA9038C
:100CF30012012215AA0312012248AA03120122B4E7
:100D0300AB0212012238AC02120122E7AC0212013B
:100D13002246AE0212012267B00212012253B1022F
:100D230012012288B102120122AAB1021201225930
:100D3300B20212012251B4021201227AB402120148
:100D4300220CB5021201223EB5021201224BB5025A
:100D5300120122A2B502120122C8B50212012235E4
:100D6300B80212012238B90212012290B90212010B
:100D730022F18E02120122FB8F02120122E2900263
:100D8300120122EC90021201220E91021201221A88
:100D93009102120122B39202120122E29202120183
:100DA30022FE9302120122579402120122BD9502E0
:100DB3001201229C9602120122F896021201226568
:100DC3009702120122A09702120122DF9702120159
:100DD30022989A02120122B29A021201223E9B0227
:100DE3001201224C9B02120122A59B02120122B383
:100DF3009B02120122269C021201228A9C021201EA
:100E030022D49C02120122A77300120122C973008B
:100E1300120122EF75001201220479001201221C33
:100E23007A00120122CF7A00120122B17B00120153
:100E33002253C90312012278C903120122EAC9030A
:100E430012012224F3021201222DF302120122368F
:100E5300F3021201220DF402120122BEF502120165
:100E630022F4F5021201222EF60212012264F60286
:100E73001201229EF602120122D2F602120122FE72
:100E8300F60212012247F70212012281F702120130
:100E930022CAF70212012222F80212012257F80293
:100EA300120122B2F802120122ECF8021201223DD1
:100EB300F90212012273F902120122ADF9021201A1
:100EC30022DBF902120122FEF902120122E2D2030D
:100ED3001201220ED30312012269D30312012273DA
:100EE300D30312012283D303120122848D0312013F
:100EF30022A98D03120122E18D0312012230D403B2
:100F03001201220826001201221A2900120122CE00
:100F13002A00120122732B00120122162C00120147
:100F230022CD2C00120122FC2C00120122B8310028
:100F33001201224A3200120122863300120122EEEC
:100F43003300120122A23400120122583700120189
:100F530022923700120122FC370012012259380075
:100F6300120122B63800120122133900120122FEA7
:100F73003900120122443A001201228F3A00120171
:100F830022B23A00120122F53B00120122093C0071
:100F9300120122123D00120122513D001201227D55
:100FA3003D00120122CC3D00120122ED3D00120151
:100FB300222B3E00120122724000120122B3400094
:100FC300120122514100120122C34100120122FCED
:100FD3004200120122F3FE0112012204FF01120159
:100FE30022E0FF01120122E9BA03120122B4BD0378
:100FF30012012225D6031201220DD2031201221D52
:10100300D20312012237D203120122D4D2031201D6
:1010130022EFB40312012293B503120122D5B703C1
:1010230012012225D0031201224CD003120122AF58
:10103300D00312012202D1031201222DC303120194
:101043002252C30312012277C3031201229FC30357
:10105300120122CFC30312012265C4031201228DA0
:10106300C4031201222387031201222089031201E0
:1010730022A68903120122AB8A031201226F8B037A
:10108300120122ED8B03120122D08C03120122D311
:101093008C03120122E18C03120122FE8C03120144
:1010A30022278D03120122508D031201225E8D032C
:1010B300120122768D03120122B1CD03120122DA2D
:1010C300CD0312012204CE0312012224CE03120106
:1010D3002282CE03120122A4EB02120122B9EB02F7
:1010E30012012215EC0212012280EC02120122C825
:1010F300EC0212012232ED021201225BED02120117
:101103002269ED02120122CBED0212012209EE0245
:1011130012012224EE02120122BFEE021201226406
:10112300EF02120122E7EF0212012220F002120164
:1011330022ABF00212012202F10212012260F1023B
:1011430012012272F10212012298F102120122A16C
:10115300F102120122F0F202120122B9C5031201B7
:101163002220C603120122CBC60312012241C70368
:101173001201225EAE0312012291AE031201228FED
:10118300AF03120122E1B003120122EBCE031201DD
:1011930022C9CF0312012295C003120122DAC00330
:1011A30012012220C103120122E9C2031201224EBD
:1011B300D50312012269D50312012279D503120145
:1011C300228DD303120122B1C6021201228DC7025E
:1011D300120122D4C70212012211C8021201227F76
:1011E300C802120122D9C80212012249C9021201FE
:1011F3002219CA0212012208CB021201228CCB024D
:1012030012012228CD02120122B3CD021201224380
:10121300CE02120122DCCE02120122F3CE0212010F
:101223002226D0021201227CD0021201229BE30269
:10123300120122BBE30212012231E5021201227FD5
:10124300E5021201229FE50212012207E6021201C2
:101253002289E602120122CFE6021201225BE70293
:10126300120122F1AD0112012298B2011201228969
:10127300B501120122B2B501120122DBB50112013F
:10128300228DB6011201226CB801120122BEB901EE
:101293001201220ABF0112012243BF011201228758
:1012A300BF0112012293C001120122F8CA031201E5
:1012B3002207CB031201227FCB0312012217CC0397
:1012C30012012236CC0312012251C101120122B9AB
:1012D300C1011201220EC4011201224AC5011201E9
:1012E300225DC50112012288C50112012295C601A2
:1012F30012012225C7011201223AC7011201224F0E
:10130300C701120122FCD1011201223893031201F9
:1013130022889303120122A59303120122FD930352
:101323001201227F9503120122689803120122C53C
:10133300FF0212012244D603E066701008A3E066A0
:10134300700A08A3E066700408A3E06622C3E79668
:101353000809E7960809E7960809E79622C3E09685
:1013630008A3E09608A3E09608A3E09622C008C36A
:10137300E096F50808A3E096420808A3E096420821
:1013830008A3E09645087001D3D00822080808EAAC
:10139300C0E0EBC0E086F0E7A4FA180986F0E7A402
:1013A3002AFA180986F0E7A42AFA180986F0E7A4AE
:1013B3002AFA1986F0E7A4FBE5F02AFA190886F061
:1013C300E7A42BFBE5F03AFA190886F0E7A42BFB18
:1013D300E5F03AFA18180986F0E7A4C5F02BFBE408
:1013E3003AFA1908E7C5F0C6A426F6E5F03BFBE494
:1013F3003AFA1886F0E7A4F6E5F00826F6E43B0887
:10140300F6E43A08F6D0E0FBD0E0FA2260160808CA
:1014130008C6C313C618C613C618C613C618C61300
:10142300C6D5E0EA227009080808226016181818C1
:10143300C6C333C608C633C608C633C608C633C6D2
:10144300D5E0EA22E627F60809E637F60809E63783
:10145300F60809E637F622E026F608A3E036F60892
:10146300A3E036F608A3E036F622E026F008A3E070
:1014730036F008A3E036F008A3E036F022C3E6977F
:10148300F60809E697F60809E697F60809E697F6D7
:1014930022C3E096F008A3E096F008A3E096F008D4
:1014A300A3E096F022E657F60809E657F60809E6A0
:1014B30057F60809E657F622E056F608A3E056F673
:1014C30008A3E056F608A3E056F622E056F008A378
:1014D300E056F008A3E056F008A3E056F022E0F649
:1014E30008A3E0F608A3E0F608A3E0F622E6F00876
:1014F300A3E6F008A3E6F008A3E6F022E0FAA3E0EF
:10150300FBA3E0FCA3E0FD22EAF0A3EBF0A3ECF0E5
:10151300A3EDF022E0F8A3E0F9A3E0FAA3E0FB22B5
:10152300E8F0A3E9F0A3EAF0A3EBF022CAC0E0E6F7
:10153300F0A308DAFAD0E0FA22CAC0E0E0A3C58239
:10154300CCC582C583CDC583F0A3C582CCC582C576
:1015530083CDC583DAE6D0E0CA22C3E498F8E499E0
:10156300F912159E8026C3E49AFAE49BFBE920E76F
:10157300E912159EE498F8E499F922C3E498F8E493
:1015830099F912159EE498F8E499F9C3E49AFAE4F8
:101593009BFB22EB20E7CFE920E7E0B90010BB007B
:1015A30008E88AF084F8AAF022E4FBC8FA22EB7078
:1015B300227B10C833C8C933C9335007C39AC3DB6E
:1015C300F280069A50012ADBEAC833F4C8C933F41F
:1015D300C9FA2275F008E4C833C8C933C933C99AB4
:1015E300C99B5004C92AC93BD5F0ECFBC833F4C8E6
:1015F300E4C9FA22600D08C6A2E713C618C613C6CB
:10160300D5E0F322600C08C6C313C618C613C6D5AB
:10161300E0F422700422600D18C6C333C608C63333
:10162300C6D5E0F41822251810AF08F518400C159C
:10163300198008F51840021519D2AF2200C0D02531
:101643001810AF08F518500C05198008F51850024A
:101653000519D2AFD0D0222518F58210AF08F5189E
:10166300400C15198008F51840021519D2AF8519D9
:1016730083222518F582E43519F583222518F8E429
:101683003519F9222518FAE43519FB222518FCE44B
:101693003519FD22E4732518C582C0E0E51934FF2E
:1016A300C583C0E0E518C3958224F810AF0885838D
:1016B300198582188008858319858218D2AFCEF0E8
:1016C300A3E520F0A37808E608F0A3DEFAEFF0A381
:1016D300E58124FAF8E608F0A3E608F0A3E608F0AB
:1016E300A30808E608F0A3E608F0A315811581D046
:1016F300E0FED0E0F8158115811581E8C0E0EEC069
:10170300E0222518C582C0E0E51934FFC583C0E097
:10171300E518C3958224F910AF08858319858218CB
:101723008008858319858218D2AFCEF0A3E520F017
:10173300A37808E608F0A3DEFAEFF0A3E58124FB23
:10174300F8E608F0A3E608F0A30808E608F0A3E625
:1017530008F0A315811581D0E0FED0E0F8158115BE
:1017630081E8C0E0EEC0E022851983851882E0A3FA
:10177300FEE0A3F5207808E0A3F608DFFAE0A3FF74
:10178300E0A3C0E0E0A3C0E0E0A3C0E0E0A3C0E0CA
:10179300E0A3C0E010AF088582188583198008850F
:1017A3008218858319D2AFD083D08202011F851995
:1017B30083851882E0A3FEE0A3F5207808E0A3F672
:1017C30008DFFAE0A3FFE0A3C0E0E0A3C0E0E0A3EA
:1017D300C0E0E0A3C0E010AF0885821885831980BC
:1017E30008858218858319D2AFD083D08222C0D0D6
:1017F3002518C582C0E0E51934FFC583C0E0E518AC
:10180300C3958224F310AF08858319858218800855
:10181300858319858218D2AFC8F0A3E9F0A3EAF053
:10182300A3EBF0A37908E709F0A3D8FAECF0A3ED52
:10183300F0A3EEF0A3EFF0A3D0E0F0A3D0E0F0A389
:10184300D0E0F0A3E520F0A3E5F0F0A3228519830F
:10185300851882E0C0E0A3E0F9A3E0FAA3E0FBA3CC
:101863007808E0F608A3DFFAE0FCA3E0FDA3E0FEBE
:10187300A3E0FFA3E0C0E0A3E0C0E0A3E0F5D0A3B2
:10188300E0F520A3E0A3F5F010AF08858319858266
:10189300188008858319858218D2AFD082D083D06F
:1018A300E0F8D0E03274048006740280027401C050
:1018B300E0F40412165AD0E012152F2274048004A7
:1018C30074028000CCC0E0EDC0E0E518C39CCCAD51
:1018D3001950011D10AF068C188D1980068C188DB8
:1018E30019D2AF12153CD0E0FDD0E0FC22D083D05A
:1018F30082E9C0E0E493A3C386F0C5F095F0F9084C
:10190300E493A386F0C5F095F0700BE493A3C39919
:101913004005E9048002A3E475F002A42582F58260
:10192300E5F03583F583D0E0F9E493A3C0E0E493D5
:10193300C0E022D083D082ECC0E0EDC0E0E493A30A
:10194300FCE493A3FDED4C600D121982EC24FFFC23
:10195300ED34FFFD80EFE493A3FCE493A3FDED4C92
:10196300600D1219C1EC24FFFCED34FFFD80EFD0B4
:10197300E0FDD0E0FCE493A3C0E0E493C0E022C028
:10198300E0C3E49396087401939618400FE49366BA
:10199300700808740193661870007019A3A3C3E458
:1019A3009396087401939618A3A3400DD0E0D0E05A
:1019B300D0E0021972A3A3A3A3A3A3D0E022C0E0A3
:1019C300C0F088F0E4936670080874019366187099
:1019D30000A8F0A3A3700BD0F0D0E0D0E0D0E002D9
:1019E3001972A3A3D0F0D0E02274F5121705EAFE12
:1019F300EBFFEE2434F8EF3400F988088909EE246C
:101A030035F582EF3400F583E0F8EE2437F582EF05
:101A13003400F583E0F50AEC850AF0A4FCAAF0850E
:101A23000AF0EDA42AFDE82CF8E43DF97A257B00C1
:101A330012159EEA850882850983F0F8740758F920
:101A43007401B900028004C333D9FCFAE8131313F9
:101A5300541FF8EE28F8EF3400F9E8245DF582E925
:101A63003400F583E05A6008EE2434F582EF802CCD
:101A7300EE2434F582EF3400F583E0C0E0EE243643
:101A8300F582EF3400F583E0F5F0D0E084A8F0EEC2
:101A930028F8EF3400F9E82438F582E93400F583B7
:101AA300E0F97F040217B174F5121705EAFEEBFFA4
:101AB300EE2434F582EF3400F583E0C0E0EE243504
:101AC300F582EF3400F583D0E0F08E828F83A3A3F9
:101AD300A3A3A3A3A3C082C0838E828F83A3A3A344
:101AE300A3A3E0F8A3E0F9D083D082E0C398F5087C
:101AF300A3E099F509EE247FF582EF3400F583E046
:101B030064017069EE2480F582EF3400F583E0F818
:101B1300A3E0F98E828F83A3A3A3A3A3A3A3E0FCD3
:101B2300A3E0FD8E828F83A3A3A3A3A3E0FAA3E084
:101B3300FBC3EA9CEB9D5010C3EC98ED99402EC378
:101B4300EA98EB995027800EC3EA98EB994007C3B4
:101B5300EC98ED9940177CDC7D04EEFAEFFB120A5A
:101B6300E9EE247FF582EF3400F583E4F0EE2434CC
:101B7300F8EF3400F9E8FCE9FDEE2435F582EF34A3
:101B830000F583E0F8EE2437F582EF3400F583E0C7
:101B9300F50AE508850AF0A4F508AAF0850AF0E538
:101BA30009A42AF509E82508F8E43509F97A257B1B
:101BB3000012159EEA8C828D83F0F8740758F9742D
:101BC30001B900028004C333D9FCFAE81313135498
:101BD3001FF8EE28F8EF3400F9E8245DF582E934C4
:101BE30000F583E05A6008EE2434F582EF802CEE92
:101BF3002434F582EF3400F583E0C0E0EE2436F5BB
:101C030082EF3400F583E0F5F0D0E084A8F0EE280D
:101C1300F8EF3400F9E82438F582E93400F583E07D
:101C2300F9122501021AA5C082C08385188285197D
:101C330083E0F8A3E0F9C3EA9CEB9D5010C3EC9852
:101C4300ED99401BC3EA98EB995014800EC3EA98B0
:101C5300EB994007C3EC98ED994004790180027930
:101C630000D083D08222EAC39CFAEB9DFB2274EF5F
:101C73001217059003A2E064086005E06407702A68
:101C83009061C8E060249003D0E0F4601DE0F87533
:101C9300F003A4C8AAF02AF974D228FE740339FF0A
:101CA3008E828F83A3A3A3E07003021DA1906060C3
:101CB300E0C0E0EE2468F582EF3400F583D0E0F075
:101CC300750C45750D05750800750900E5D914F502
:101CD3000AE5D95403F50E60177403650E605CE5DD
:101CE3000A6010EE2467F582EF3400F583E0700399
:101CF300021D86900540E06401602AEE2482F5828D
:101D0300EF3400F583E06004780480027800850AEC
:101D130008E508C398FA95E0FB1209B18A088B0914
:101D2300EA45097005120CE18074EE2482F582EF16
:101D33003400F583E070048A0C8B0DE50A6012858C
:101D43000C82850D83F50BE5D9F0A3150BE50B701C
:101D5300F6EE2482F582EF3400F583E0604474FCF0
:101D6300250AF50A780C1218ACAC0AA90EEEFAEFA4
:101D7300FB120B8B740212163FE97026AA08AB09FB
:101D8300121161793D8E828F83A3A3A3A3E0FA7B13
:101D930000120885EEFAEFFB120B01120B9D79007E
:101DA30080747403650E6056850A107511007810EF
:101DB3001218ACAC0CAD0DAA08AB09120B67740278
:101DC30012163FEE2468F582EF3400F583E0648059
:101DD3007004747F8001E0F50C780C1218B0E50EE6
:101DE300F50C780C1218B0A90AAC08AD099003D011
:101DF300E0FA7B00120849740212163F8013900325
:101E0300A2E06408600BAC0CAD0DEEFAEFFB120B15
:101E1300F7120CED79017F0A0217B174F512170559
:101E230074FC121629EAFEEBFF8908A2AFE433F52E
:101E330009C2AF806AEE2463F8EF3400F97A007BBD
:101E430000A2AFE433F50AC2AF88828983E0FCA322
:101E5300E0FDEC4D603A88828983E0FAA3E0FB8AD7
:101E6300828B83E0FCA3E0FD88828983ECF0A3ED01
:101E7300F08A828B83E4F0A3F088828983E0FCA359
:101E8300E0FDEC4D700A88828983A3A3E4F0A3F0FC
:101E9300E50AA2E092AF1211619004E3E004F0EED0
:101EA3002463F582EF3400F583E0F8A3E0F9E84911
:101EB300603DEE2463F582EF3400F583E02402FAFB
:101EC300A3E03400FBEA2402F50AEB3400F50B78B7
:101ED3000A1218AC8A828B83E0FCA3E0F9EEFAEFD6
:101EE300FB120B25740212163FE97003021E389091
:101EF30004E3E060639004E4E0F89004E3E0C39853
:101F0300500C7402650870509004E5E0604A8E82BC
:101F13008F83A3A3A3A3E0851882851983F0A3E489
:101F2300F09004E3E0F87402121675E8F0A3E4F00D
:101F33009004E3E0F89004E2E028F07402121675CE
:101F4300AC82AD83851882851983AA82AB8379011C
:101F53001208559004E3E4F0E509A2E092AF74049B
:101F630012163F021AA50000008521878522C6228A
:101F7300C0E0C0D0E8C0E0E9C0E0EAC0E0EBC0E008
:101F8300ECC0E0EDC0E0EEC0E0C008C009C00AC08C
:101F93000BC082C083C0F0A2AFE433FEC2AF759B17
:101FA30000906182E0A2E05012E591A2E0500C752E
:101FB30091FE740165217003121C71E0A2E550517A
:101FC300E591A2E5504B7591DF9003A2E0640760B1
:101FD30005E064087023740165217035790190036D
:101FE300D0E0FA75F003A4CAA8F028FB74D22AFA49
:101FF30074033BFB121E1E8018E0640D70139003E4
:10200300C4E004F064287002E4F07A00E0F9120CF2
:10201300F3906182E0A2E640030220BAE591A2E6D2
:1020230040030220BA7591BF9003A2E064057008D3
:10203300120C21120C2D8003120C27752100120C97
:1020430081E99003A3F07900120C75120A5F7A01FB
:102053007B009003A1E0F9121131907803E0644210
:102063007055900544E014F0704DC2AF1220720019
:10207300782AD0E0F618D0E0F6E59F54077005758E
:1020830009FF800375097FC4C0E07829E6F50808D5
:10209300E65509F509740B7808121607D0E02508F0
:1020A300F8906270E0A2E740F8E8C333906272F000
:1020B300906270E0D2E0F0906181E0A2E35009E524
:1020C300E9A2E3500375E9F7A3E0A2E75009E5911C
:1020D300A2E7500375917FEEA2E092AFD0F0D083D8
:1020E300D082D00BD00AD009D008D0E0FED0E0FDDA
:1020F300D0E0FCD0E0FBD0E0FAD0E0F9D0E0F8D0BB
:10210300D0D0E032C0E0C0D0C082C083906183E011
:10211300A2E05009E5BFA2E0500375BFFEE0A2E1D3
:102123005009E5BFA2E1500375BFFDE0A2E25009EB
:10213300E5BFA2E2500375BFFBE0A2E35009E5BF90
:10214300A2E3500375BFF7E0A2E45009E5BFA2E4A0
:10215300500375BFEFE0A2E55009E5BFA2E55003C8
:1021630075BFDFE0A2E65009E5BFA2E6500375BFE5
:10217300BFD083D0828088C0E0C0D0E8C0E0E9C08F
:10218300E0EAC0E0EBC0E0ECC0E0EDC0E0C0F0E5A9
:10219300A7A2E6500FE5A1A2E6500953A7BF75A178
:1021A300BF1221DFE5A7A2E5500CE5A1A2E5500689
:1021B30053A7DF75A1DFE5A7A2E15009E5A1A2E1DD
:1021C300500375A1FDE5A7A2E2500CE5A1A2E250E0
:1021D3000653A7FB75A1FBD0F00220F074F8121789
:1021E300057521019003A2E064067015120BBB8AEA
:1021F300828B83A3A3A3A3A3A3E0FAA3E0FB120C04
:102203000FA2AFE433FED2AF9003A8E064017018CD
:102213007A207B009003A1E0F91212517A207B000F
:102223009003A1E0F9121137906182E0D2E6F090B9
:102233000541E0602185C62280169003A7E0640172
:102243007008E5C654F84405F5C653BEFC121F6C6E
:102253007401652160E4EEA2E092AF7F010217B141
:10226300008E238F248582288583278518828519EC
:1022730083E0CEA3E0CF852882852783EBC9EAC814
:10228300EDCBECCA75F010C3E833C8E933C9EA33C0
:10229300CAEB33CBC3EA9EF526EB9FF525B3500477
:1022A300AB25AA26EC33CCED33CDD5F0DAAE23AF94
:1022B300242274ED1217058A088B098C0A8D0B747E
:1022C30013121675780C1214E17808790C12135056
:1022D3007510017511C87512007513005012780836
:1022E300790C12148078107908121350501680104C
:1022F300780C79081214807810790C12135040046A
:102303007901800279007F0C0217B174ED12170571
:102313008A088B098C0A8D0B7413121675780C12AC
:1023230014E1780C790812135040117808790C12D3
:102333001480AA08AB09AC0AAD0B80227510007596
:1023430011007512007513017810790C121480783E
:10235300107908121447AA10AB11AC12AD1380A662
:102363008A828B837508FF7509FF750AFF750B0059
:1023730078081214CE7F040217B174F51217058C76
:10238300828D8378081214E18A828B837808121471
:1023930094EA2404F8EB3400F98C828D83A3A3A37D
:1023A300A3E0FCA3E0FD88828983C3E09CF0A3E063
:1023B3009DF088828983C3E09420A3E0944E402655
:1023C3008A828B837508FF7509FF750AFF750BFFFA
:1023D300780812146D8A828B83A3A3A3A3E024201D
:1023E300F0A3E0344EF002236374F5121705E9FEFF
:1023F3009004F7E0FAA3E0FBEEC333F8E433F97497
:102403009328F582748339F583E02AF508A3E03B2A
:10241300F50978081218AC7A407B427C0F7D0012D4
:102423002264740212163F8A088B098C0A8D0B747E
:1024330010780812140FAA08AB097F040217B174AD
:10244300F11217058A0C8B0D8C0E8D0F740F12165B
:1024530075E0FAA3E0FB7411121675E0F508A3E02A
:10246300F50978081218ACEA2401F508EB3400F5F5
:1024730009E4F50AF50B780C790812138F750871C6
:10248300750902780C790812138FAA0CAB0DAC0EE8
:10249300AD0F122264740212163F8B09EA450960DC
:1024A300047A0180027A00EC2AFCED3400FD7413F7
:1024B300121675E0F8A3E0F9E8FEE9FFECF8EDF990
:1024C3007A717B0212159E880889098E828F837820
:1024D300081214F0ECF8EDF97A717B0212159E8A5A
:1024E300088B09740578081216168E828F83A3A3AE
:1024F300A3A3E508F0A3E509F07F080217B1C082A2
:10250300C083E9906000F0D083D08222C0E074F2EF
:102513001217F1A2AFE433FED2AFC2C0E5D1A2E4F9
:10252300500653D1EF1210B3EEF8EEA2E092AF7F54
:1025330001021850C0E074F21217F1A2AFE433FEA7
:10254300D2AFE58AA2E35003121035758A00C2EBBD
:10255300EEF8EEA2E092AF7F01021850C0E0C0D0C7
:10256300E8C0E0E9C0E0A2AFE433F8D2AFC2C7E805
:10257300F9E8A2E092AFD0E0F9D0E0F8D0D0D0E013
:1025830032C0E0C0D0E8C0E0E9C0E0EAC0E0C08209
:10259300C083A2AFE433FAD2AF9009B5E0F8900953
:1025A300B6E068700B539AFB9009B77401F0802C66
:1025B300C2E99009B5E0F87401289009B5F07900F3
:1025C300743528F582740939F583E0F5C19009B5AE
:1025D300E0C3948040069009B57400F0EAF8EAA2DB
:1025E300E092AFD083D082D0E0FAD0E0F9D0E0F827
:0B25F300D0D0D0E032C2AF02000022C6
:10260000FFFFFFFFFFFFFFFF74F012169974F8122F
:1026100016298A0E8B0FE9FF8C0C8D0D7E00850E1E
:1026200008850F0978081218F0000410E6285026D3
:1026300073269226B526D826FB262C274F276627F9
:10264000962747286A288D28BB28E628E628BF2732
:1026500074016F7019850C82850D83E0C39403505B
:102660000D850C82850D83E0900CA2F080027E180F
:1026700002290E74026F7015850C82850D83E0F8B7
:10268000A3E0F9900CA3E8F0A3E9F080027E180221
:10269000290E74016F7019850C82850D83E0C39437
:1026A00002500D850C82850D83E0900749F0800271
:1026B0007E1802290E74016F7019850C82850D83B6
:1026C000E0C39405500D850C82850D83E090074A88
:1026D000F080027E1802290E74016F7019850C8239
:1026E000850D83E0C39402500D850C82850D83E037
:1026F00090074BF080027E1802290E74106F70272D
:1027000075081075090078081218ACAC0CAD0D7A7C
:102710004C7B071210DD740212163F8A088B098564
:10272000088285098380027E1802290E74016F7069
:1027300019850C82850D83E0C39402500D850C82AF
:10274000850D83E090075CF080027E1802290E74EC
:10275000016F700D850C82850D83E0900CA6F080D2
:10276000027E1802290E74046F7026908480780807
:102770001214E1850C82850D8378081213605011C4
:10278000850C82850D8312151790075E1215238024
:10279000027E1802290EEF702112060FE970131243
:1027A0000F7BE9F5097950121227E9F508120F6934
:1027B000800A9007F17401F080027E1802290E74DD
:1027C000076F707E75080675090078081218AC85C9
:1027D0000C82850D83A3AC82AD837404121687121C
:1027E00010E3740212163F851882851983EAF0A35C
:1027F000EBF07C007D007402121687850C82850D3B
:1028000083E0F9120F0FE9F50AE50AC3940A502E86
:1028100012060FE97015A90A120F81E9F50979501E
:10282000121227E9F508120F698019A80A790074B5
:10283000F228F582740739F5837401F080067E0270
:1028400080027E1802290E74016F7019850C828532
:102850000D83E0C39402500D850C82850D83E090BA
:10286000075DF080027E1802290E74016F701985D1
:102870000C82850D83E0C3940A500D850C82850D72
:1028800083E0900CA5F080027E1802290E74016F7F
:102890007025850C82850D83E0C394074019850C53
:1028A00082850D83E0C39411500D850C82850D83C4
:1028B000E0900CA7F080577E18805374016F70224F
:1028C0009007F0E0F508850C82850D83E09007F015
:1028D000F0E50870399007F0E064017031120F697B
:1028E000802C7E188028C3E50E9427E50F940050B5
:1028F0001B74026F7016850C82850D83E0FCA3E0CB
:10290000FDAA0EAB0F1204ADE9FE80027E02EEF9C5
:10291000740812163F7F0802176B74F01216997430
:10292000D7121629E9C0E0851882851983D0E0F016
:102930007401121675EAF0A3EBF08C0E8D0F9084E3
:102940004A740312168F740612153C740312168F04
:102950007401121675E0FAA3E0FB851882851983CD
:10296000E0F9120F0FE9FEEEC3940A4003022AA910
:10297000EEF9120F4BE9FF900CA2E06402700474B0
:102980000180027400F50878081218B0743A121623
:1029900075E0FDEFFCEEF9AA0EAB0F120FBD74014E
:1029A00012163F7C147D00790074151216871210E0
:1029B000F58A088B0985080A85090B741512168F8C
:1029C0007A1075F006EEA42424F9121221E9703C65
:1029D0007C1079FF7415121687121155E9702D7449
:1029E00025121675AC82AD837A0475F006EEA42428
:1029F00025F9121221E9F508741512168FEFA2E0DD
:102A0000E433F9AA0EAB0F120537E9F87409121670
:102A10008F7A0C74702EF9121221E97079740912F0
:102A20001687120F3F750800E508C394045067A885
:102A3000087900E875F003A4C8AAF075F000A42A8C
:102A4000FA75F003E9A42AF97409121675E58228CB
:102A5000F50CE58339F50D850C82850D83E0F8A32F
:102A6000E0F9E849602C850C82850D83A3A3E0F58D
:102A70000A750B00780A1218AC850C82850D83E06C
:102A8000FCA3E0FDAA0EAB0F120795740212163FCD
:102A9000E9F805088092EFA2E1500E900748E0F9AE
:102AA000AA0EAB0F12079BE9F87439121675E06491
:102AB00004700F900CA2E064027007AA0EAB0F1214
:102AC0000FB77900742912163F7F0802176B74F252
:102AD000121699890B8A088B09ECFEEDFF750A0A1C
:102AE000E50B600B14600814604114605F807DAAE0
:102AF00008AB09120F5DE9F50AE50AC3940A506CA8
:102B0000EE4F6068750C06750D00780C1218ACACB1
:102B100008AD09EEFAEFFB1210DD740212163F8ABF
:102B20000C8B0D850C82850D838041AA08AB0912A0
:102B30000F57E9F50AE50AC3940A5030EE4F602CAE
:102B4000EEFAEFFBA90A120F51E98020AA08AB099F
:102B5000120F63E9F50AE50AC3940A500FEE4F60BD
:102B60000BEEFAEFFBA90A120F51E9F8A90A7F064A
:102B700002176B74F21216998A0C8B0DE9FF7E1501
:102B800074FF650C700474FF650D702A750800E50C
:102B900008C3940A5014EFFC7A027B00A908120FB4
:102BA0002DE960027E00050880E5EF60627AA57B72
:102BB0000F1209938059AA0CAB0D1209758A088B64
:102BC0000985080A85090BE50A450B60407C007DF4
:102BD00000E50A2405FAE4350BFB850A82850B83A0
:102BE000A3A3A3A3E0F9120F0FE9F508E508C39426
:102BF0000A500EEFFC7A027B00A908120F2DE97E25
:102C000000EF600BAA0AAB0B120FA580027E14EE38
:102C1000F97F0602176B74F012169974FE121629CA
:102C2000851882851983EAF0A3EBF08C0A8D0B746A
:102C300012121675E0F50EA3E0F50F7E15851882C9
:102C4000851983E064FF7004A3E064FF701D7F00BA
:102C5000EFC3940A506BAC0EAD0FAA0AAB0BEFF9A1
:102C6000120F33E960027E000F80E5851882851916
:102C700083E0FAA3E0FB1209758A0C8B0D850C0822
:102C8000850D09E508450960367C007D00E50824CE
:102C900005FAE43509FB850882850983A3A3A3A36C
:102CA000E0F9120F0FE9FFEFC3940A5014AC0EAD18
:102CB0000FAA0AAB0BEFF9120F33E97E0080027EF8
:102CC00014EEF9740212163F7F0802176B74F712A4
:102CD0001699EAFEEBFF900762EEF0A3EFF0900783
:102CE00048E0FC7D007A267B001204ADE9F50890EF
:102CF0000748E0F91207177F0102176B74F21216EA
:102D00009974EC1216298A0A8B0B850A82850B832B
:102D1000A3A3E024FA700302314424FD7003022FC0
:102D2000B8147003022DEC14601024FD7003022F00
:102D300060147003022FFC0231ACAE0AAF0B900797
:102D400062E0F8A3E0F9E8496066900762E0F8A362
:102D5000E0F5838882E0F8A3E0F9E8496052EE24C8
:102D60000CF582E43FF583E0F50878081218B0EE20
:102D7000240BF582E43FF583E0F98E828F83A3A3D1
:102D8000A3A3A3A3A3A3A3E0FCA3E0FDEE2403FA63
:102D9000E43FFB900762E0F8A3E0F5838882E0F867
:102DA000A3E0F5838882121697740112163F8039CA
:102DB0008E828F83A3A3A3A3A3A3A3A3A31218C349
:102DC00090075E1214FF120549740212163FE96063
:102DD0001879018E828F83A3A3A3A3A3A3A3A3A384
:102DE000E0FAA3E0FB120543E90231ACAE0AAF0BF7
:102DF0008E828F83A3E06003022F0E8E828F83A3C7
:102E0000A3A3A3A3E0A2E04003022F0E9007FCE0DF
:102E1000F8A3E0F9E8496003022F0E7C0E7D0079EB
:102E200000AA18AB191210F58A088B09AA08AB0979
:102E3000EE240CF582E43FF583E0F8A3E0F9E849DD
:102E4000603675080675090078081218ACEE240C77
:102E5000F582E43FF583E02410FCA3E03400FD7428
:102E6000021216871210DD740212163F8A088B09AF
:102E7000850882850983804F8E828F83A3A3A3E078
:102E8000FAA3E0FB1209758A0C8B0D850C08850DE1
:102E900009E5084509602D750C06750D00780C12C2
:102EA00018ACE5082405FCE43509FD740212168708
:102EB0001210DD740212163F8A0C8B0D850C828570
:102EC0000D8380030231AC8E828F83A3A3A3A3A3BF
:102ED000E0A2E25004D2F08002C2F0A2F0E433F8A3
:102EE0007900740C121675E048F0A3E049F0EEFC8E
:102EF000EFFDAA18AB19120F45E970127A027B0098
:102F0000900748E0F9121131E979000231AE9007DB
:102F100062E0F8A3E0F9E8496043900762E0F8A3B3
:102F2000E0F5838882A3A3E0F8A3E0F9E849602DE7
:102F30008E828F83A3E0FC79018E828F83A3A3A36B
:102F4000E0FAA3E0FB900762E0F8A3E0F583888253
:102F5000A3A3E0F8A3E0F58388821216970231ACB0
:102F6000AE0AAF0B900762E0F8A3E0F9E8496045CC
:102F7000900762E0F8A3E0F5838882A3A3E0F8A3BA
:102F8000E0F9E849602F850A82850B83A3E0FC798C
:102F9000028E828F83A3A3A3E0FAA3E0FB900762D3
:102FA000E0F8A3E0F5838882A3A3E0F8A3E0F5832B
:102FB00088821216970231AC850A08850B097C00BD
:102FC0007D00E5082404FAE43509FB8508828509BB
:102FD00083A3A3A3E0F9120F0FE9FEEEC3940A50F6
:102FE00018E508240AFCE43509FD7A0475F006EEBC
:102FF000A42425F912121BE9F80231ACAE0AAF0B7A
:1030000090075DE06019900CA5E0F98E828F83A394
:10301000A3A3E0FAA3E0FB120543E9F80231AC9068
:103020000CA2E0701679058E828F83A3A3A3E0FA29
:10303000A3E0FB120543E9F80231AC8E828F83A333
:10304000A3A3E0FAA3E0FB1209758A0C8B0D850C93
:1030500008850D098E828F83A3A3A3A3A3A3A3E056
:10306000A2E05072E50845096069850882850983F8
:10307000A3A3A3A3E0605F8E828F83A3A3A3A3A3D4
:10308000A3A3A3A3E0F8A3E0F9E8C4540FF87900E0
:10309000E85401F8E95400F9E8A2E04039740E124E
:1030A000168FE5082405FAE43509FB8508828509B1
:1030B00083A3A3A3A3E0F9120F0FE9701979038E7C
:1030C000828F83A3A3A3E0FAA3E0FB120543E9F8F0
:1030D0000231AC0231ACEE2405FCE43FFD850882F0
:1030E000850983A3A3A3A3E0F98E828F83A3A3A35F
:1030F000E0FAA3E0FB120FB1900762E0F8A3E0F959
:10310000E849603E900762E0F8A3E0F5838882A377
:10311000A3E0F8A3E0F9E84960287C0079008E82FA
:103120008F83A3A3A3E0FAA3E0FB900762E0F8A3D8
:10313000E0F5838882A3A3E0F8A3E0F583888212F8
:103140001697806812060FE970629007F1E064013B
:10315000701A120F7BE9FE9007F17400F07C0A7D73
:103160000079007AF27B071210F580367E00EEC3FC
:10317000940A502EEEF8790074F228F5827407391B
:10318000F583E064017018EEF9120F81E9FAEEF8A8
:10319000790074F228F582740739F5837400F00E13
:1031A00080CC7950121227E9FE120F69790174144C
:1031B00012163F7F0602176B74F512169974F212FD
:1031C00016298908EAFEEBFF8C09AC18AD197A0EB6
:1031D00075F006E508A42420F9121221E9705F7C3D
:1031E0000679FFAA18AB19121155E97051740C1227
:1031F0001675E0F8A3E0F9E8F50AE5096005EE4286
:103200000A8004EEF4520AA80A7900740C121675AA
:10321000E0687003A3E0696021A80A7900740C12C9
:103220001675E8F0A3E9F0AC18AD197A0E75F00642
:10323000E508A42420F912121BE979018002790023
:10324000740E12163F7F0302176B74F012169974F6
:10325000E612162989098A0E8B0FECFEEDFF740C1D
:1032600012168F7A0E75F006E509A42420F91212C1
:1032700021E9600302337A7C0679FF740C12168709
:10328000121155E9600302337AAC18AD197A0C7447
:10329000702509F9121221E96003023376750800DE
:1032A000AA18AB19120F3FE50E450F702E7C0C7952
:1032B00000AA18AB19121155E9600302335C7C0CAB
:1032C0007D007900AA18AB191210F58A0A8B0B85BC
:1032D0000A82850B8375080102335CAC18AD19AA0C
:1032E0000EAB0F120F398A0C8B0D850C0A850D0B56
:1032F000E50A450B7030EE4F601BAC18AD197A0033
:103300007B00120F398A0C8B0DA80CA90D880A8935
:103310000BE849700479008063850A82850B83E598
:103320000EF0A3E50FF0850A82850B83A3A3E0F8D6
:103330007900EE687002EF696022EEC0E0850A82D3
:10334000850B83A3A3D0E0F0EE4F700D850A828534
:103350000B837400F0A37400F0750801E508601693
:10336000AA18AB19120F3FAC18AD197A0C7470255E
:1033700009F912121BE9790180027900741A1216F8
:103380003F7F0802176B74F7121699EAFEEBFF7A7B
:1033900000EAC39404504EEAF87900E875F003A4FB
:1033A000C8ABF075F000A42BFB75F003E9A42BF972
:1033B000EC28F582ED39F583E06E7003A3E06F70C1
:1033C00021EAF87900E875F003A4C8AAF075F000C6
:1033D000A42AFA75F003E9A42AF9EC28FAED39FBDE
:1033E00080070A80AC7A007B007F0102176B74F7BC
:1033F0001216997C00ECC39404400302349DECF84F
:103400007900E875F003A4C8ADF075F000A42DFDB7
:1034100075F003E9A42DF9EA28F582EB39F583E08C
:10342000F4FEA3E0F4FFECF87900E875F003A4C81B
:10343000ADF075F000A42DFD75F003E9A42DF9EAB7
:1034400028F582EB39F583EEF0A3EFF0ECF8790084
:10345000E875F003A4C8ADF075F000A42DFD75F07B
:1034600003E9A42DF9EA28F582EB39F583A3A3E05B
:10347000F4C0E0ECF87900E875F003A4C8ADF0758D
:10348000F000A42DFD75F003E9A42DF9EA28F582DA
:10349000EB39F583A3A3D0E0F00C0233F57F0102F2
:1034A000176B74F012169974F4121629EAFEEBFFEA
:1034B0008C088D099007FCE0F8A3E0F9E849702C2E
:1034C000EE4F6006E50845097005790102374EEEBA
:1034D000FAEFFB120F5DE9900CA8F0900CA8E0C386
:1034E000940A4008120F6FE9900CA8F0900CA8E025
:1034F000C3940A400302374C9007FCE0F8A3E0F9BC
:10350000E8496003023598EEFCEFFD7A0E75F0068F
:10351000900CA8E0A42420F912121BE9F50B7C0CF6
:103520007D0079FFAA18AB191210F58A0C8B0D8556
:103530000C0E850D0FAC18AD197A0C900CA8E02478
:1035400070F912121BE9F50A750C0E750D00780C56
:103550001218ACEEFCEFFD900CA8E0F87900E875CD
:10356000F00EA4C8AAF075F000A42AFA75F00EE9CE
:10357000A42AF9746428FA740739FB1210DD740266
:1035800012163F8A0C8B0DA80CA90D9007FCE508BC
:10359000F0A3E509F00237489007FCE0F8A3E0C883
:1035A0002406F582C83400F583E0F8A3E0F9E84981
:1035B00060439007FCE0F8A3E0C82406F582C83415
:1035C00000F583E0FCA3E0FD7A1B75F006900CA8E3
:1035D000E0A42421F912121BE9F89007FCE0F9A3FA
:1035E000E0C92406F582C93400F5837400F0A374A1
:1035F00000F00237489007FCE0F8A3E0C8240AF581
:1036000082C83400F583E0F8A3E0F9E8496043900C
:1036100007FCE0F8A3E0C8240AF582C83400F5836B
:10362000E0FCA3E0FD7A1B75F006900CA8E0A42452
:1036300022F912121BE9F89007FCE0F9A3E0C92473
:103640000AF582C93400F5837400F0A37400F00217
:1036500037489007FCE0F8A3E0C8240CF582C83492
:1036600000F583E0F8A3E0F9E84960439007FCE047
:10367000F8A3E0C8240CF582C83400F583E0FCA36D
:10368000E0FD7A1075F006900CA8E0A42423F9124E
:10369000121BE9F89007FCE0F9A3E0C9240CF582BD
:1036A000C93400F5837400F0A37400F00237489029
:1036B00007FCE0F8A3E0C82408F582C83400F583CD
:1036C000E0F8A3E0F9E849606F9007FCE0F8A3E0B8
:1036D000C82408F582C83400F583E0FCA3E0FD7A35
:1036E0001075F006900CA8E0A42424F912121BE92E
:1036F000F50A9007FCE0F8A3E0C82408F582C83476
:1037000000F583E02410FCA3E03400FD7A0475F09A
:1037100006900CA8E0A42425F912121BE9F89007E2
:10372000FCE0F9A3E0C92408F582C93400F58374EC
:1037300000F0A37400F080109007F0E06003120F17
:10374000C3120FAB79018006790080027901740CF5
:1037500012163F7F0802176B74F712169974F21253
:103760001629E9FEAC18AD197A0E75F006EEA42400
:1037700020F9121221E9700E740C121675E0F8A3EC
:10378000E0F9E8F980027900740E12163F7F010219
:10379000176B74F412169974F21216298909EAFE4D
:1037A000EBFFE509C3940A5004EE4F7004790280E0
:1037B00041AC18AD197A0E75F006E509A42420F97C
:1037C000121221E9F508E5087026750A06750B0046
:1037D000780A1218AC740212168FEEFAEFFB121070
:1037E000DD740212163F8A0A8B0B850A82850B83D1
:1037F000A908740E12163F7F0402176B74F4121698
:1038000099EAFEEBFF750800E508C3940A5043757A
:103810000A06750B00780A1218ACEEFCEFFDA8083A
:103820007900E875F00EA4C8AAF075F000A42AFA91
:1038300075F00EE9A42AF9746A28FA740739FB12A4
:1038400010EF740212163FE96004A908800605080B
:1038500080B6790A7F0402176B74F4121699EAFE97
:10386000EBFF750800E508C3940A5043750A067516
:103870000B00780A1218ACEEFCEFFDA8087900E8FE
:1038800075F00EA4C8AAF075F000A42AFA75F00E1F
:10389000E9A42AF9746428FA740739FB1210EF744A
:1038A0000212163FE96004A9088006050880B6796F
:1038B0000A7F0402176B74F712169974F012162916
:1038C000EAFEEBFF750800E508C3940A5039AC180E
:1038D000AD197A1075F006E508A42423F912122117
:1038E000E970207C1079FFAA18AB19121155E97004
:1038F00012EEFCEFFDAA18AB19120519E97004A924
:10390000088006050880C0790A741012163F7F01EE
:1039100002176B74F4121699750800E508C3940A2F
:1039200040030239EDA8087900E875F00EA4C8AA92
:10393000F075F000A42AFA75F00EE9A42AF974646F
:1039400028FC740739FD7A0E75F006E508A42420DA
:10395000F9121221E970030239E87C067D0079FF33
:10396000AA087B00EA75F00EA4CAA8F075F000A4BE
:1039700028F875F00EEBA428FB74642AFA74073B50
:10398000FB1210F58A0A8B0BAE0AAF0B7C067D008A
:1039900079FFAA087B00EA75F00EA4CAA8F075F0BA
:1039A00000A428F875F00EEBA428FB746A2AFA74B8
:1039B000073BFB1210F58A0A8B0BAC0AAD0BA8086B
:1039C0007900E875F00EA4C8AAF075F000A42AFAF0
:1039D00075F00EE9A42AF9747028F582740739F598
:1039E000837400F0A37400F0050802391B9007F0FF
:1039F000E06003120FC3120FAB7F0402176B74F762
:103A00001216997E00EEC3940A50327C0679FFEEBE
:103A1000FA7B00EA75F00EA4CAA8F075F000A4289D
:103A2000F875F00EEBA428FB74642AFA74073BFBCC
:103A3000121155E96004EEF980050E80C8790A7FFD
:103A40000102176B74F71216997E007F00EFC39482
:103A50000A50357C0679FFC9FDC9EFF87900E87591
:103A6000F00EA4C8AAF075F000A42AFA75F00EE9C9
:103A7000A42AF9746428FA740739FBCDF9CD121120
:103A800055E970010E0F80C5EEF97F0102176B74C6
:103A9000F71216997E007F00EFC3940A500DEE7066
:103AA0000AEFF9120F81E9FE0F80EDEEF97F0102B6
:103AB000176B74F012169974C9121629E9FE900C4E
:103AC000A8E06E701D7A017B00900748E0F91211A2
:103AD00037E97A027B00900748E0F9121137E912C2
:103AE0000FCF742912168F7A0E75F006EEA42420DB
:103AF000F9121221E96003023BE67C0679FF742982
:103B0000121687121155E96003023BE67C0E7D0018
:103B100079FF74291216871210F58518828519838A
:103B2000EAF0A3EBF07C1B7D0079FF740E12168780
:103B30001210F58A0A8B0B850A0E850B0F7C0C7D03
:103B40000079FF74021216871210F58A0C8B0D850E
:103B50000C0A850D0B742912168F7A0E75F006EE7D
:103B6000A42420F912121BE9F508740E12168F7A9C
:103B70001B75F006EEA42421F912121BE942087409
:103B80000E12168F7A1B75F006EEA42422F912127B
:103B90001BE94208740E12168F7A1075F006EEA417
:103BA0002423F912121BE94208740E12168F7A10A0
:103BB00075F006EEA42424F912121BE94208740ED3
:103BC00012168F7A0475F006EEA42425F912121B42
:103BD000E94208740212168F7A0C74702EF91212D0
:103BE0001BE942088003750800A908743712163FC4
:103BF0007F0802176B74F7121699E9FEEE900748DA
:103C0000F0120F697F0102176B74F2121699890A7C
:103C1000EAFEEBFFEE5400F8EF5480F9E849603516
:103C2000900748E0F91211198A0C8B0DA80CA90D08
:103C300088088909E8496012AA08AB09120F93E9BC
:103C40006008AA08AB09121107E9EE6400FAEF64F4
:103C500080FB023D0DEE5402602D7C007D007A0059
:103C60007B00120F45E960187A017B00900748E05D
:103C7000F9121131E9EE6402FAEF6400FB023D0D26
:103C80007A027B00023D0DEEA2E0507D9007FCE041
:103C9000F8A3E0F5838882A3A3A3E0FAA3E0FB12D4
:103CA0000FC9E9605E900762E0F8A3E0F9E84960B7
:103CB00045900762E0F8A3E0F5838882A3A3E0F8CB
:103CC000A3E0F9E849602F7C0079019007FCE0F857
:103CD000A3E0F5838882A3A3A3E0FAA3E0FB900707
:103CE00062E0F8A3E0F5838882A3A3E0F8A3E0F5FF
:103CF000838882121697120FCFEE6401FAEF6400E8
:103D0000FB800A7A017B0080047A007B007F060238
:103D1000176B74F7121699EAFEEBFF7508018E8295
:103D20008F83E02450601314601924E1701CEEFAB4
:103D3000EFFB120F27E9F5088010EEFAEFFB120FE8
:103D4000998007EEFAEFFB120F9FA9087F01021777
:103D50006B74F7121699EAFEEBFF8E828F83A3A392
:103D6000A3A3E0641E701179008E828F83A3A3E069
:103D7000FAA3E0FB120F15E97F0102176B74F6122C
:103D800016998A088B09850882850983A3A3A3A3B2
:103D9000E07034AE08AF098E828F83A3A3A3A3A3E0
:103DA000A3A31218C38E828F83A3A3A3A3A3E0FCB3
:103DB000A3E0FD8E828F83A3A3E0FAA3E0FB120FA2
:103DC0001B740212163FE97F0202176B74F712167A
:103DD00099EAFEEBFF900748E0F98E828F83A3E01B
:103DE000FAA3E0FB12079BE97F0102176BC082C0B8
:103DF0008374FF121629120F75E9C39402400B85D4
:103E000018828519837402F08009851882851983C8
:103E1000740AF0AC18AD197A017905120627E97415
:103E20000112163FD083D08202011F74F21216993C
:103E300074E81216298A088B09E9FE8C0A8D0B7C1E
:103E4000187D007900AA18AB191210F58A0C8B0D99
:103E5000AC0CAD0D851882851983E508F0A3E50942
:103E6000F090074AE0C0E07402121675D0E0F090BE
:103E7000074BE0C0E07403121675D0E0F0900CA779
:103E8000E0C0E07417121675D0E0F07415121675C4
:103E9000E054FEFAA3E054FFFB900CA6E0A2E0E49D
:103EA00033F87900EA48F8EB49F97415121675E809
:103EB000F0A3E9F0900CA6E0A2E15004D2F0800259
:103EC000C2F07415121675E054FDFAA3E054FFFB1E
:103ED000A2F0E433F87900E828F8E933F9EA48F881
:103EE000EB49F97415121675E8F0A3E9F0900CA6E9
:103EF000E0A2E35004D2F08002C2F07415121675ED
:103F0000E054F7FAA3E054FFFBA2F0E433F50C759C
:103F10000D007403780C121616EA450CF8EB450DEB
:103F2000F97415121675E8F0A3E9F0900CA6E0A25A
:103F3000E45004D2F08002C2F07415121675E054F9
:103F4000EFFAA3E054FFFBA2F0E433F50C750D008B
:103F50007404780C121616EA450CF8EB450DF9744A
:103F600015121675E8F0A3E9F0900CA6E0A2E55052
:103F700004D2F08002C2F07415121675E054DFFA14
:103F8000A3E054FFFBA2F0E433F50C750D007405BB
:103F9000780C121616EA450CF8EB450DF97415125B
:103FA0001675E8F0A3E9F0900CA6E0A2E25004D266
:103FB000F08002C2F07415121675E054FBFAA3E00B
:103FC00054FFFBA2F0E433F50C750D007402780C7D
:103FD000121616EA450CF8EB450DF9741512167514
:103FE000E8F0A3E9F090074BE0602A750C10750D1E
:103FF00000780C1218AC7C4C7D077406121675AA5A
:1040000082AB831210DD740212163F8A0C8B0D8571
:104010000C82850D8390075CE06011EE600E7415D4
:10402000121675E04402F0A3E04400F090075CE053
:104030006006780179008004780079007414121603
:1040400075E048F0900749E0600678047900800444
:10405000780079007414121675E048F0AC0AAD0BC4
:10406000AA18AB1912053DE9741812163F7F060213
:10407000176B74F7121699EAFEEBFF7508009007AC
:104080005CE0600678017900800478007900E842FD
:1040900008900749E0600678047900800478007988
:1040A00000E84208A908EEFAEFFB1205F7E97F01E4
:1040B00002176B74F212169974E31216298A0C8B8C
:1040C0000DE9FF8C0A8D09742B121675E0F5087442
:1040D000086509700A75F006EFA42422FE800875B1
:1040E000F006EFA42421FE7C1B7D007900740212EF
:1040F00016871210F5851882851983EAF0A3EBF074
:10410000740212168F7A1BEEF9121221E9703874BC
:104110001C121675E0C39407402D741C121675E02E
:10412000C394115022E508F50B780B1218B07403F4
:1041300012168FE50AA2E0E433F9AA0CAB0D1205C2
:104140004F740112163FE9741D12163F7F060217C5
:104150006B74F712169912080DE97E00EEC3940AEB
:10416000505C7C0679FFC9FDC9EEF87900E875F06E
:104170000EA4C8AAF075F000A42AFA75F00EE9A4FE
:104180002AF9746428FA740739FBCDF9CD12115558
:10419000E97028EEF87900E875F00EA4C8AAF07569
:1041A000F000A42AFA75F00EE9A42AF9746428FA3A
:1041B000740739FB7900120813E9F80E809E7F011D
:1041C00002176B74F612169974FD121629EAFEEBAB
:1041D000FF9007FEE0F8A3E0F9E8497039750800A0
:1041E00075090878081218AC750802750900780876
:1041F0001218AC7508B875098478081218AC7CFFE1
:104200007DFF7A017B00120669740612163F900743
:10421000FEEAF0A3EBF09007FEE0F8A3E0F9E8492E
:1042200070030242E0E4F508F50978081218AC744E
:104230000412167F8808890978081218AC740412D1
:10424000167F8808890978081218AC90080012189F
:10425000C379029007FEE0FCA3E0FDEEFAEFFB124B
:104260000789740812163FE9704A851882851983F8
:10427000E0FA7B007401121675E0F87900E4C8F9E1
:10428000EA28F508EB39F509E508450960267808BC
:104290001218AC9007FEE0F8A3E0F5838882A3A390
:1042A000A3A3E0FCA3E0FDEEFAEFFB120F1B7402E8
:1042B00012163FE9E4F508F50978081218AC9008E1
:1042C000001218C37CFF7DFF9007FEE0FAA3E0FB1D
:1042D000120675740412163F9007FEEAF0A3EBF085
:1042E0009007FEE0F8A3E0F9E84970047901800244
:1042F0007900740312163F7F0202176BC082C083DD
:104300009007FCE0F8A3E0F9E84960179007FCE0AB
:10431000FAA3E0FB121107E9F89007FC7400F0A380
:104320007400F0900CA8740AF0D083D08202011FB0
:10433000C082C083E9900BB8F002455A74F7121698
:1043400099E99002E1F07C197D037AFF7BFF120767
:10435000A19002E274FFF0A3F0A3E4F0A3F07905CA
:1043600012072F9002E1E0F91206517AB97B071289
:1043700009637F0102176B74F41216998A088B097E
:10438000EB548060309002E1E0F91211198A0A8B37
:104390000BAE0AAF0BEE4F60138E828F83E064B0DA
:1043A0007003120741EEFAEFFB121107AA08E509A4
:1043B0006480FB80047A007B0002452974F21216A7
:1043C0009974FC121629EAFEEBFFEE4F6038740276
:1043D000121675EEF0A3EF12478EECF0A3ED124724
:1043E0008EAA82AB8312064BE9F508707374121221
:1043F0001675125342E50A450B60658E828F831253
:10440000446AEE4F700575080280557A067B0012EB
:1044100011A38A0C8B0DA80CA90DE849700575082D
:1044200013803D88828983E4124474A3A3EEF0A331
:10443000EF1257DBE50AF0A3E50BF09002E7124418
:10444000FC9002E76017E0FCA3E08003EAFCEBFDD0
:104450008C828D831244FC70F38C828D83125267A0
:10446000A908740412163F0259DDA3A3A3A3E0FE1A
:10447000A3E0FF22F0A3F0888289832274F212164F
:1044800099890AE975F017A4FEAFF09002E6E4F00E
:104490009002E41244FC600A1211A99002E4E4F0D4
:1044A000A3F0EEFAEFFB1211A38A088B09EA450983
:1044B000602FEEFCEFFD79001210F59002E4E508A4
:1044C000F0A3E509F07B0080081244E6E4F0A3F0D5
:1044D0000BEBC3950A40F2E50A9002E6F079008002
:1044E0000279130259DDEB75F017A4F8A9F09002D8
:1044F000E4E028FAA3E0398A82F58322124FFDEA2C
:104500004B2274F41216997900EAA2E0501B750848
:104510005675098478081218AC7C047D007ABA7B41
:104520000B120729740212163F7F0402176BC08218
:10453000C0839002E7124561601C88828983A3A32F
:10454000E06A7003A3E06B8882898370E8A3A3A369
:10455000A3124FF980047A007B00D083D08202013D
:104560001F125AB0E8492274EE12169974FC121602
:1045700029EAFEEBFF851882851983E4F0A3F0EEAB
:10458000240212524BEE240512477CEE2404F50E51
:10459000EF124B61E024FE603924FC604624FE608B
:1045A0005224FE605E24FE700302468124FE7003E6
:1045B0000246F924FE700302470824FE70030247F6
:1045C0001724FC700302472624FE700302473502BD
:1045D00047729003007417F0A3E41247961203C9C0
:1045E000024772851882851983AC82AD8312074712
:1045F000024742851882851983AC82AD8312074D2C
:10460000024742850C08850D097402121675AC82AA
:10461000AD83850882850983124FF912066F8A0CD3
:104620008B0DAC0CAD0DEC4D6042E4F50CF50D7846
:104630000C1218AC750C00750D03780C1218AC75C3
:104640000C01750D03780C1218AC74081216751253
:1046500018C37916124FF3120789740812163FE92E
:10466000F50C700B124FEF1203E1800F750C0185F2
:104670000882850983124784125267850C08024715
:10468000457402121675AC82AD83850C82850D834C
:10469000124FF912066F8A108B11AC10AD11EC4D50
:1046A0006043850C82850D83A3A31218C375100087
:1046B00075110378101218AC75100175110378107C
:1046C0001218AC74081216751218C37916124FF32B
:1046D000120789740812163FE9F509700B124FEFA3
:1046E0001203E7800F750901850C82850D8312473F
:1046F00084125267850908804C851882851983AC1D
:1047000082AD83120753803A851882851983AC8263
:10471000AD83120759802B851882851983AC82AD31
:104720008312075F801C851882851983AC82AD8354
:10473000120765800D851882851983AC82AD8312BE
:10474000076BE9F508E50860298E828F83A3E06492
:1047500014601F850E82850F83E090030012478E40
:10476000125AAC900301125267E508A31247961241
:1047700003C3EEFAEFFB1206ED025153F50CEF34D2
:1047800000F50D22125AB085188285198322F08512
:10479000188285198322F07C007D03850A82850BAF
:1047A00083124FFD2274EE12169974FC1216298A98
:1047B0000A8B0B8C0E8D0FEA2405F508EB3400F5FF
:1047C000097C157D0079007A007B031210F5E5085D
:1047D0002402F50CE50912477F8518828519838527
:1047E000821085831178101218AC850882850983A0
:1047F000A3A3A3A3124CA91218ACE5082405F51035
:10480000E5093400F51178101218AC850C82850D7D
:1048100083125003120669740612163F8A108B1118
:10482000AE10AF11E50A2402F50AE50B12524EEE66
:104830004F700302496B80177402121675124FF9FC
:1048400088828983EAF0A3EBF0900300E004F09003
:104850000300E0C39405400302496BE4F510F51131
:1048600078101218AC7510E975110278101218AC96
:104870007510EA75110278101218AC7406121675CC
:104880001218C37910EEFCEFFD124FF31207897472
:104890000812163FE9705E850882850983A3A3A3E9
:1048A000A3A3A3A3E0F89002E9E0687048124CA922
:1048B0001218AC7CEA7D02E5082408FAE509340008
:1048C000FB1210EF740212163FE960298E828F836B
:1048D000A3A3A3A3124FF9900300E0F5107402788C
:1048E0001012161674012510F58274033511F58324
:1048F000EAF0A3EBF074021216758582108583111D
:1049000078101218AC74021216751218C3850C8236
:10491000850D83125AC1120675740412163F8A104F
:104920008B11AE10AF11900300E0F51075110074FB
:1049300002781012161674002510F874033511F958
:1049400088828983A31244FC700302482FE8240361
:10495000F8E93400F9EE4F60030248388882898311
:1049600074FFF0A3F0900300E004F0900300E06017
:104970000A124FEF1203D57900800B850882850952
:104980008312525E790A02515374EA12169974FE28
:104990001216298C128D13EA2405F50CEB125ACB52
:1049A00012446E750800750900EA2402F510EB3414
:1049B00000F51185188285198385820A85830B7815
:1049C0000A1218AC850C82850D83A3A3A3A3124BF6
:1049D0006B1218ACE50C2405F50AE50D12524E7861
:1049E0000A1218AC850C82850D83125ABF12066913
:1049F000740612163F8A0A8B0BEA450B7003024BB2
:104A00001CEA2404F50EEB124B6112446E8A828B71
:104A100083A3A3A3E0F9851082851183124FF912B5
:104A20000657E9F5096003024B1CE4F514F5157807
:104A3000141218AC7514E975150278141218AC75B7
:104A400014EA75150278141218AC74061216751251
:104A500018C37913AC0AAD0B851082851183124FF0
:104A6000F9120789740812163FE9F5096003024B31
:104A70001C9002E9E0F8E5087009E02402900301C7
:104A8000F08017900301E0FCE82402FAE43400FB14
:104A9000EA6C7001EB6003024B20850882AA821247
:104AA0004CA09414124C985073850E82850F83E0AD
:104AB000C0E074022A124B58D0E0F00508850E823F
:104AC000850F83A3E0C0E085080A7402250A124B13
:104AD00058D0E0F005089002E9124B6B1218AC7C3C
:104AE000EA7D0285080A7402250AFA74033400FB81
:104AF0001210DD740212163F9002E9E02508F50855
:104B000074FF6E700374FF6F6012EE24010EEF34B9
:104B100000FFE508C3941450030249B3E50860138D
:104B2000124EE4851082851183124FF91203DB794E
:104B3000008014E509700375090A851282851383C4
:104B4000EEF0A3EFF0A909740212163F7F0E0217D0
:104B50006B85080C7402250CF58274033400F58310
:104B6000223400F50F850E82F583221257EE22744F
:104B7000EE12169974FE1216298C0E8D0FEA24057A
:104B8000F50CEB12477F750B00900300E4F0F50A7B
:104B9000EA2402F508EB3400F5098049900300E0AF
:104BA000FA9002E9E0F8124CA09417124C98400DCC
:104BB000900300E0F87416C3989002E9F0124CA933
:104BC0001218AC7CEA7D0274012AFA74033400FBEB
:104BD0001210DD740212163F9002E9E0F890030013
:104BE000E028F0050AE50C2416F582E50D124B5C71
:104BF000E0F8E50AC3984003024C81900300E0C34B
:104C00009416507DE50AC333F8E433F9E50C28FE29
:104C1000E50D39FF851882851983AC82AD838E82BC
:104C20008F83124FF912066F8A108B11AC10AD11E1
:104C3000EC4D7005750B018043E4F510F51178100B
:104C40001218AC7510E975110278101218AC7510B5
:104C5000EA75110278101218AC7406121675121843
:104C6000C37916850882850983124FF91207897462
:104C70000812163FE9F50B7003024B9C12525A8042
:104C8000107C007D03850882850983124FF9120389
:104C9000EDA90B7402025155E99400C365D033228B
:104CA000EA28F8E43400F9E822E0F51075110078FC
:104CB000102274EA12169974FC1216298A0C8B0DB4
:104CC0008C128D13EA2405F50AEB12524E7508007A
:104CD000750900E50A2402F510E50B3400F511749E
:104CE0000212167585820E85830F780E1218AC8518
:104CF0000A82850B83A3A3A3A312579A1218ACE5CB
:104D00000A2405F50EE50B3400F50F780E1218ACE9
:104D1000851082851183125254124FF31206697462
:104D20000612163F8A0E8B0FAE0EAF0FE50C240253
:104D3000F50EE50D3400F50F80408882898374FFFD
:104D4000F00508124B5174FFF005089002E9E0F5F8
:104D50000C750D00780C1218AC7CEA7D0285080CED
:104D60007402250CFA74033400FB1210DD74021275
:104D7000163F9002E9E02508F508EE4F60718E823B
:104D80008F83A3A3A3E0F9850E82850F83124FF9C9
:104D9000120657E9F509EE240412477CE97044E451
:104DA000F514F51578141218AC7514E97515027818
:104DB000141218AC7514EA75150278141218AC7434
:104DC000081216751218C37911EEFCEFFD850E82DC
:104DD000850F83124FF9120789740812163FE9F5FF
:104DE000096027850C82850D83124EDA125267E521
:104DF000087003024EC0124EE4850E82850F8312A6
:104E00004FF91203F37900024ED5850882AA82EA8F
:104E10009002E97009E02404900301F08022E0F898
:104E2000900301E0F514E82404FCE43400FDEC6593
:104E3000147001ED70C0124CA09412124C9850B630
:104E4000850C82850D83E0C0E074022A124B58D095
:104E5000E0F00508850C82850D83A3E0C0E0124BCD
:104E600051D0E0124EF685820C85830D780C121815
:104E7000AC74041216751218C38510828511831242
:104E80005AC1120675740412163F8A0C8B0DAE0CB3
:104E9000AF0D85080C7402250CF874033400F9EE8C
:104EA0004F7003024D3A851882851983E088828904
:104EB00083124EF6A3E0C0E0124B51D0E0024D4801
:104EC000E509700375090A850A82850B83124EDA9B
:104ED000125267A9097404024B49125AB085128212
:104EE00085138322900301E0F5F0E5088490030028
:104EF000F07C007D0322F005088518828519832245
:104F000074EC12169974FE1216298A088B098C0EFD
:104F10008D0FEA2405FEEB3400FF85188285198386
:104F2000AC82AD838E828F83124FF912066F8A0A8C
:104F30008B0BEE241812477CEA450B7003024FCA14
:104F400012513C5032851882851983124FF912078D
:104F50007D8A108B11EA4511606B7912AC0AAD0B9A
:104F6000850882850983124FF98510828511831285
:104F70001697E9F50A7058E4F50AF50B780A121845
:104F8000AC8E828F83A3A3E0F50A780A1218ACEEE8
:104F9000240312524B780A1218AC8E828F8312505F
:104FA0000312078F740612163FE9F50A7021850C6B
:104FB00082850D83E0701F850882850983124FF971
:104FC0001203F98011750A0E8009750A018004E543
:104FD0000A600312525A850C82850D83E0600479C1
:104FE000008002A90A740212163F7F0C02176B7C24
:104FF000007D03850A82850B83124FFD22E0FAA310
:10500000E0FB22E0FCA3E0FD850882850983124FC6
:10501000FD2274EE12169974FE1216298A088B0965
:105020008C0C8D0DEA2405FEEB3400FF750E008517
:105030001882851983AC82AD838E828F83124FF9DB
:1050400012066F8A0A8B0BEA450B70030251281275
:10505000513C5035851882851983124FF912077D0E
:105060008A0E8B0FEA450F605E7912AC0AAD0B8594
:105070000882850983124FF9850E82850F831216E7
:1050800097E9F50E600302512B850882850983128A
:105090005342AA0AFB1207718A108B11A810A9119A
:1050A000E849701E7AFF7BFF1207718A108B11A8E6
:1050B00010A911E849606C88828983E50AF0A3E5AC
:1050C0000BF0750A008007750E0E805F050A9002CE
:1050D000E6E0FAE50AC39A504AE50A75F017A4FA21
:1050E000ABF088828983A3A3E02AFAA3E03BFB8A82
:1050F000828B83125254EC4D70D2750A17750B00D7
:10510000780A1218ACEEFCEFFD1210DD74021216D4
:105110003FEEFCEFFD850882850983124FF91203EB
:10512000FF8014750E098003750E01125AA8850CB4
:1051300082850D83125267A90E024C93E508240262
:10514000F508E5093400F5098A828B83A3A3A3E05F
:10515000A2E522740412163F7F0A02176B74EC1248
:1051600016998C108D11EA2405F50CEB12477F750A
:105170000F00EA2402F50AEB12524E850A82F583EB
:10518000124FF91207718A088B09EA450970030268
:105190005240750E008071850C82850D83E064019C
:1051A000704F8E828F83A3A31218C38E828F83A326
:1051B000A3A3A3E0F51275130078121218ACEE2425
:1051C00005F512EF3400F51378121218AC124FF3F4
:1051D00012078F740612163FE9F50F6014850C82D2
:1051E000850D83E4F0125AA885108285118312522E
:1051F000677C177D007900EEFAEFFB1210F58E82C6
:105200008F83E4F0A3F0050E9002E6E0F8E50EC30C
:1052100098501EE50E75F017A4F8A9F08508828550
:105220000983A3A3125AD5125254EC4D60030251C4
:105230009785088285098374FFF0A3F0E50F700657
:10524000124FF3120405A90F024FEAF50AEF3400DA
:10525000F50B22A3E0FCA3E0FD228E828F83125A7D
:10526000B0850E82850F83E8F0A3E9F022C082C0EA
:10527000839002E2E06A7003A3E06B70067AE27B3F
:105280000280047A007B0002455AC082C083780005
:105290008C828D83E06A7003A3E06B7010E875F078
:1052A00003A4F8A9F0EC28FAED39FB8015088C82EC
:1052B0008D83A3A3A3E06A7003A3E06B60DF7A0091
:1052C0007B0002455A74F612169912073B8A828BAC
:1052D00083E582458370067A007B008007A3A3A341
:1052E000A3124FF902595974F2121699E9FE740E7D
:1052F00012167512534274101216751257BA8C8218
:105300008D83E064027036A3125AB6F50CA3E0F95F
:10531000A80C74026870037429697021750C0275F9
:105320000D00780C1218AC78081218AC780A121814
:10533000ACEEF91207B3740612163F80027901022F
:1053400059DDE0F50AA3E0F50B2274E81216997412
:10535000FB121629E9851882851983F08A168B17A6
:10536000ECFEEDFF751000741D121675125AAC7428
:105370001D1216751252678E828F83A3A3A3E0A21B
:10538000E4502D741D121675124FF912077D8A8292
:105390008B83E5824583700302578B790AEEFCEF1D
:1053A000FDAA16AB17121697E9F510600302578E87
:1053B000741F1216751257BA7421121675125342C1
:1053C0007423121675E0F50EA3E0F50F8E828F831D
:1053D000E064026003025739A3125AAC8508828543
:1053E0000983A3858212858313EE240612477C88E5
:1053F000828983E0FAA3E0F9EA2400F514E439F5A0
:105400001578141219360100002801282E540700BF
:105410000228F3540328605400292A5601295556BE
:105420000229F65503292A560429D4563957E50E80
:10543000450F6003025734850C82850D831257AFE8
:10544000FAE9FB8A828B83E0850A82850B831257F7
:10545000E51218AC8A828B83A3E0FCA3E00256BE5F
:10546000E50E450F6003025734850A82850B83746D
:1054700001F01257C2850882850983F07C007D0007
:105480008E828F83A3A3A3A3E02401FAA3E03400B8
:10549000FB12066FEA4B60418A828B83E02402F89C
:1054A000850A82850B83E028F0EA2404F8EB3400B7
:1054B000F988828983E08512828513831257F71257
:1054C00057E51218AC8A828B83125253E5082403E5
:1054D000FAE5093400FB0256C3850A82850B83E096
:1054E0002404F07C047D007900AA12AB131210F59D
:1054F00002578EE50E450F60030257341257C2FE65
:10550000A3E0FF850A82850B837404F0EE85088290
:10551000850983F0EF851282851383F074031216D8
:1055200075AC82AD83EEFAEFFB12066F8A0C8B0D21
:10553000EA450D70030255D78A828B83A3A31244D8
:105540006A740112167585820E85830F780E121803
:10555000AC74051216751218C37CFF7DFF12067518
:10556000740412163F8B0FEA450F7033850C828549
:105570000D8312579A1218AC850C82850D83A312E5
:1055800018C37C027D007ABE7B841204A1740412CD
:10559000163FE9700A740112167574FFF0A3F08EBD
:1055A000828F83E064027039750C02750D00780CEF
:1055B0001218AC8E828F83125253E5082404FAE548
:1055C000093400FB1210DD740212163F850A828531
:1055D0000B83E0240280097401121675EEF0A3EF2C
:1055E000F074011216751257ABF07401121675A300
:1055F0001257A302572EE50E450F6003025734855C
:105600000C82850D83125254AA16AB171207A78578
:105610000A82850B837402F0EA850882850983F08B
:10562000851282851383EB025731E50E450F600327
:105630000257341257C2F8A3E0F9850A82850B831A
:105640007402F0E8850882850983F0E98512828575
:105650001383025731850C82850D83124FF9121086
:10566000D7EAFC8C82A882C3950EE4950F405FE8D0
:10567000650E7002E50F70047C008022851882851B
:105680001983E0FAE50E2AFAE50F3400FBC3EA9825
:10569000EB94005003E08005E50ECCC39CFCEC8548
:1056A0000A82850B83F08C0A750B00780A1218ACFD
:1056B000850C82850D83E0250EFCA3E0350FFDAA45
:1056C00008AB091210DD740212163F02578E7510D6
:1056D0000702578EE50E450F705A850C82850D83A3
:1056E000125AAC850A82850B8374071244761257CE
:1056F000A3124476A3E0851282851383F0E8240286
:10570000FAE93400FB8A828B831257A31257D21214
:1057100057ABA31257DB1257B4F0E82405F8E9346D
:1057200000F9888289831257B4A31257F7A3A3A361
:10573000A3F0805A75100B8055741D121675124F08
:10574000F912073B8A828B83E5824583603D125ABA
:10575000AC880C890DE8450D6031780E1218AC78D4
:105760000A1218AC78081218AC7406121675E0F913
:10577000EEFCEFFDAA16AB17850C82850D83121681
:1057800097740612163FE9F510800375100EA910E4
:10579000740512163F7F1002176BE0F50E750F00AF
:1057A000780E22E085088285098322125801221290
:1057B0005AB0E822125801A3A322E0F508A3E0F5AD
:1057C0000922850C82850D83E0F8A3E0F5838882A9
:1057D000E022A3A3F08A828B83A322F088828983AC
:1057E000A3A3A3A322F08A828B831257EE22E0F5B3
:1057F0000A750B00780A22F088828983A312580167
:1058000022E0850882850983A3A32274EE121699EB
:1058100074FE1216298A0A8B0BECFAEDFB74141233
:105820001675E0F510A3E0F5117416121675E0FE7A
:105830007418121675E0F50EA3E0F50F8518828531
:105840001983AC82AD8312066F8A0C8B0DEA450D6D
:105850006049851882851983124FF912073B8A82A5
:105860008B83E5824583602FA3A31257BAE50845D1
:10587000096024780E1218AC78101218ACEEF9AC4E
:105880000CAD0DAA0AAB0B85088285098312169709
:10589000740412163F8006790E80027901024C933F
:1058A00074F612169974FE121629740C12167512DB
:1058B00057AF851882851983F07401121675E9F0C7
:1058C000E4F508F50978081218AC75080278081292
:1058D00018AC74041216758582088583097808123D
:1058E00018AC12078F740612163F740212163F800E
:1058F0006874F7121699EAFEEBFF89087C197D039C
:105900001207A7EA5402600BA908EEFAEFFB120691
:10591000638002790102437274F612169974FF6A69
:10592000700374FF6B70168C828D8312595EE4F0E5
:105930008C828D83A3A3A312595EA38018120777CC
:105940008A088B09A808A909E849600D888289831B
:1059500074FF124474A3A3E4F07F0202176B74FF78
:10596000F0A3F08C828D83A3A32274F612169912F1
:1059700007778A828B83E58245836006A3A3E0FADA
:1059800080027A007B0080D174F21216998A088B0B
:1059900009ECFEEDFF740E121675E0F50A1207779A
:1059A0008A0C8B0DA80CA90DE8497026EEFCEFFDC2
:1059B0007AFF7BFF1207778A0C8B0DA80CA90DE8E4
:1059C0004970047911801688828983E508F0A3E57F
:1059D00009F088828983A3A3E50AF079007F060293
:1059E000176B74EE121699EAFEEBFF8C088D09898D
:1059F0000C7414121675125AAC7416121675124FD6
:105A0000F9750D00E8496003025AA07402650C6044
:105A100003025A9B7412121675125AB6FCA3E0F9CF
:105A2000EC2400F50EE439F50FEAF4F8EBF4F9ECA8
:105A300058F8E50F59F9E849705CE5082406F8EDD7
:105A40003400F9880A890B8882F583125AC112073B
:105A5000A78A108B11E50E65107004E50F651160C3
:105A600042780E1218AC850A82850B83125AC11235
:105A700007AD740212163FE9F50D7027780E121863
:105A8000AC850882850983A3A3125ABF1207BF748D
:105A90000212163F800D750D808008750D0D800374
:105AA000750D0BA90D0251588E828F83125AB022A8
:105AB000E0F8A3E0F922125AB088828983E022A399
:105AC000A3E0FCA3E0FDEEFAEFFB223400F50D8528
:105AD0000C82F58322E028FEA3E039FF8E828F83BB
:105AE0002274F2121699EAFEEBFF890B7401650B22
:105AF000600E7402650B706A7901120981E97062A7
:105B0000EEFAEFFB1207718A088B09EA4509604734
:105B1000750A00800B7C177D0079001210F5050ACC
:105B20009002E6E0F8E50AC3985021E50A75F017FF
