:020000040000FA
:0600000002010702210BC2
:03002B0002255F4C
:03003B0002258516
:0300430002251380
:0300530002217E09
:03007B0002253922
:10008300021F77E5C754F84401F5C7790122000040
:100093000080FB120086B900030200F1E4792178A5
:1000A30008B800028004F709D8FCE479297802B87B
:1000B30000028004F709D8FCE490028178497909A9
:1000C3008002F0A3D8FCD9FA7AC97B0A9001377869
:1000D3007479038015E493A3AD82AE838A828B8304
:1000E300F0A3AA82AB838D828E83D8E9D9E7758288
:1000F300D77583A8740312011975829175830074EF
:100103000012011975D00075813F751881751902A8
:10011300759F00020096C09FF59FE473D09F22D085
:1001230083D082C09FE493C0E0740193C0E0740263
:1001330093F59F22FF0000B4000028002800283018
:1001430075A000A000A000A00000080008E001F0D6
:10015300001000100010001000100010005000509C
:1001630000500010001000D0070000000000000F36
:100173000001000500307507001000010081FF0039
:10018300000000FFA805C605AE05FF020202080233
:100193005000A0000000E80302EC84010000C284C8
:1001A30002FE84010000200B02E084010000B30280
:1001B30002FE84010000210B02DC84010000C9025D
:1001C30002FE84010000220B02DA84010000CB024C
:1001D30002FE84010000230B02D884080000CC0235
:1001E30002FE84010000240B02D484010000250BCD
:1001F300FF0100FF2002EC84010000C88402FE849A
:10020300010000890B02D284000000000002E28496
:100213000300001903840B840B840B840B840B846D
:100223000B840B840B840B840B840B840B840B06D1
:100233000E1E0E000E020202020202020202010D53
:10024300000000100102EC84010000C58402FE845A
:10025300010000CA0B02D684010000400702FE849D
:10026300010000CB0B02CE840100002C8402FE842B
:10027300010000CC0B02FA84010000108402FE840A
:10028300010000CD0B02E8840100004C8302FE84D0
:10029300010000CE0B02F2840100003A8302FE84C7
:1002A300010000CF0B02F484010000168302FE84D8
:1002B300010000D00B02F684010000288302FE84B3
:1002C300010000D10B02F8840100001E8402FE84A9
:1002D300010000D20B02FC84010000D30B01E803F0
:1002E300053F100AFFFFFF000130750302010600FE
:1002F30000000000000000000000000000000000FB
:100303000000000000000000000000FFFF06008066
:100313000CE8030609455F4C6F634B051250002040
:1003230003020A00020106030207E208FF9CD21E31
:10033300F3E9C9452D4C6F636B000000000000001A
:1003430000000000000000007A12000080120A572B
:1003530072697465204368617200104E6F74696638
:100363007920436861720002EC84010000CB8402AF
:10037300FE84010000E30C10D083030000AE0A02E8
:10038300E484010000E40C02FE84010000EF0C1081
:10039300E083000000C20A02E284030000C30A02F1
:1003A300E484010000F00C1201224399031201229C
:1003B3005A99031201228B9903120122C69903123F
:1003C3000122F099031201221A9A03120122319A8F
:1003D30003120122489A031201225F9A0312012297
:1003E300889A031201229B9A03120122B19A0312E3
:1003F3000122C49A03120122EB9A03120122FAB2D8
:1004030002120122FEB30212012236B402120122A9
:1004130059B40212012264B40212012287B40212F7
:10042300012296B5021201226BB602120122E6B630
:10043300021201226EB702120122A9B7021201228F
:10044300E0B7021201226EB80212012247B902126A
:100453000122A7B902120122B2B90212012231BA52
:100463000212012234BA0212012237BA0212012205
:10047300C6BA02120122C9BA02120122F9BA021241
:10048300012223BB0212012211BC02120122C3BCAE
:10049300021201222EE70212012256E70212012262
:1004A30084E702120122BBE70212012219E80212B9
:1004B300012264E802120122AFE802120122EFE8EE
:1004C3000212012235E90212012263E9021201221A
:1004D30020EA021201222AEA0212012237EA021258
:1004E30001226AEA0212012236EB0212012242EBD6
:1004F300021201225AEB0212012264EB02120122C0
:10050300D2A503120122E0A503120122F8A50312CA
:10051300012210A603120122CABC0112012276BDD8
:1005230001120122F1BD0112012212BF01120122A7
:100533004EBF01120122F7BF01120122DEC00112D8
:10054300012242C20112012299C2011201221AC3DD
:10055300011201220AC40112012257C4011201220D
:10056300DDC4011201220FC50112012223C70112AA
:10057300012265C70112012283C70112012206C8A5
:1005830001120122DAC801120122A2C901120122B9
:1005930003D502120122D6D5021201227FD60212FE
:1005A3000122D2D60212012282D7021201220ED8D0
:1005B30002120122FAD80212012229D902120122BF
:1005C3003CDA0212012284DA0212012259DB0212FE
:1005D300012295DB02120122B1DB02120122E9A7FB
:1005E300031201221484031201222A84031201221A
:1005F3005084031201226C850312012276850312B3
:100603000122AB8603120122A3870312012207E210
:100613000212012237E3021201226AE302120122CB
:10062300B4E3021201227BE502120122436D0012A0
:100633000122AD6D001201220C6F001201221C6F0A
:1006430000120122496F00120122A06F0012012241
:100653004970001201225071001201221A72001215
:1006630001227A7300120122BD7300120122627407
:1006730000120122AF7400120122D574001201226C
:10068300E37600120122E87600120122ED780012CF
:1006930001223A7900120122AD7900120122E07998
:1006A30000120122827A001201222B7B0012012206
:1006B300637B00120122667B00120122AE7B0012D3
:1006C3000122EE7B00120122457C001201226E946E
:1006D30003120122869403120122CE9403120122F3
:1006E300E494031201222B95031201223F96031275
:1006F3000122CC9603120122179703120122F82537
:10070300001201220426001201223F2600120122B8
:10071300842600120122442700120122CA27001254
:1007230001222F28001201225B28001201229428A3
:1007330000120122D22A00120122B62C0012012239
:100743009C2E00120122DF2F001201222D320012F3
:1007530001223F33001201228A34001201229A350A
:1007630000120122B73500120122F23500120122D4
:10077300143600120122773600120122383B001290
:100783000122CD3B001201221E3C00120122453CF6
:1007930000120122973C00120122B53C00120122F3
:1007A3000F3D00120122F83D001201226E3F00129C
:1007B3000122F23F00120122EBEB02120122F5EBC0
:1007C3000212012238EC0212012253EC021201221E
:1007D300E3EC021201220BED0212012248ED021298
:1007E30001227FED02120122A8ED021201221DEE69
:1007F3000212012232EE0212012247EE02120122FC
:1008030078EE021201228CEE02120122B1EE0212E4
:100813000122EBEE0212012217EF021201224FEF27
:1008230002120122CEEF0212012217F0021201225C
:1008330041F0021201226CF002120122BCA2031247
:100843000122F99A02120122279B02120122759CAE
:1008530002120122559D02120122749D02120122ED
:10086300F19D02120122349E021201228A9F02127A
:1008730001224BA002120122D2A20212012273A36F
:100883000212012269A40212012266A502120122A8
:10089300C0A6021201224BA70212012261A1031278
:1008A3000122CAA1031201221EA20312012245A2A0
:1008B3000312012276A20312012294F002120122F2
:1008C30001F10212012248F10212012260F2021226
:1008D30001225CF3021201223FF402120122A8F664
:1008E30001120122EAF601120122BCF701120122D0
:1008F30095F8011201228FF90112012271FA0112F6
:100903000122DAFA0112012290FB0112012204FCF6
:100913000112012270FC0112012299FC0112012231
:1009230013FD01120122ACFD0112012211FE01127D
:10093300012226FE011201226CFE0112012285FE14
:1009430001120122EAFE01120122EDFE011201222F
:100953007591031201229D9103120122DB9103126F
:1009630001229992031201220093031201221C9384
:1009730003120122449303120122749303120122EE
:10098300839303120122009403120122269403127B
:10099300012233AD0112012211AF0112012243B131
:1009A300011201227FB101120122ACB10112012215
:1009B30096B201120122E1B2011201222CB30112FB
:1009C30001223EB3011201227EB301120122B3B30D
:1009D3000112012201B40112012230B401120122D9
:1009E30053B401120122A0B40112012225B5011250
:1009F30001223FB7011201227EB901120122BFB9C0
:100A03000112012261BB01120122A2BB01120122C8
:100A130015BC011201226BBC0112012295BC01120B
:100A23000122E48D02120122E28E021201227B9541
:100A3300021201229C9702120122679902120122DB
:100A4300CF9A0212012259400012012208410012DA
:100A530001224E41001201228E420012012224443F
:100A6300001201229E4400120122B9440012012205
:100A73003445001201228E4600120122EE47001275
:100A83000122F44800120122554A001201226E4A43
:100A930000120122CC4A00120122BA4B0012012299
:100AA300ED4B001201225D4C00120122D74C0012C3
:100AB3000122214D00120122EB4D00120122C04EF2
:100AC300001201229F4F001201222A50001201221C
:100AD3009850001201220C510012012237510012CA
:100AE3000122F651001201225B53001201227853B6
:100AF300001201229753001201228854001201228E
:100B0300AD5400120122D754001201225255001293
:100B13000122AC5500120122155700120122C357BE
:100B23000012012204580012012227DA01120122C5
:100B330075DA0112012281DA011201225FDB01124F
:100B4300012290DB01120122C1DB0112012241DCEF
:100B530001120122BFDC01120122F7DC0112012282
:100B630049DD0112012286DD01120122A3DF0112F8
:100B73000122C9E101120122B4E3011201229EE51F
:100B830001120122FC7F001201222099011201228D
:100B930050990112012229A001120122AEA10112D2
:100BA3000122ABA70112012293A801120122D0A8AE
:100BB30001120122F3A80112012224A90112012228
:100BC3002DA90112012237A90112012225AA01121E
:100BD30001221BAB01120122345800120122335CA3
:100BE30000120122395C00120122746300120122F7
:100BF3008D68001201221A8B03120122148C031236
:100C03000122888C03120122C68C031201223A8D21
:100C130003120122B38D03120122BC8D03120122A0
:100C2300C88D03120122DD8D031201221B8E0312D4
:100C33000122318E0312012201F5021201220EF567
:100C43000212012228F50212012267F50212012283
:100C5300A5F5021201220AF6021201221FF6021260
:100C630001222AF60212012237F6021201224EF65F
:100C7300021201225CF60212012267F6021201221D
:100C830073F60212012282F6021201228DF602127B
:100C93000122B0F60212012257F70212012267F76E
:100CA3000212012281F7021201229EF7021201228F
:100CB300BAF702120122DFF702120122EAF7021247
:100CC3000122FFF70212012213F80212012274F823
:100CD300021201227AF80212012280F80212012282
:100CE30086F8021201229EF802120122D1F80212A2
:100CF30001227EE80112012202E901120122B1E977
:100D03000112012210EB0112012231ED0112012225
:100D13001DEE0112012252EE0112012274EE0112A4
:100D2300012223EF011201221BF10112012244F1DE
:100D330001120122D6F10112012208F2011201224D
:100D430015F2011201226CF20112012292F2011238
:100D53000122FFF40112012202F6011201225AF6C6
:100D630001120122BBCB01120122C5CC01120122C7
:100D7300ACCD01120122B6CD01120122D8CD011250
:100D83000122E4CD011201227DCF01120122ACCF59
:100D930001120122C8D00112012221D10112012224
:100DA30087D20112012266D301120122C2D301129A
:100DB30001222FD4011201226AD401120122A9D4E3
:100DC3000112012262D7011201227CD701120122F2
:100DD30008D80112012216D8011201226FD801127C
:100DE30001227DD801120122F0D80112012254D927
:100DF300011201229ED901120122CCA70212012263
:100E0300EEA70212012214AA0212012229AD021234
:100E1300012241AE02120122F4AE02120122D6AF28
:100E230002120122B29C03120122D79C0312012257
:100E3300499D0312012289CD0212012292CD021291
:100E430001229BCD0212012272CE0212012223D073
:100E53000212012259D00212012293D0021201225E
:100E6300C9D00212012203D10212012237D1021288
:100E7300012263D102120122ACD102120122E6D176
:100E8300021201222FD20212012287D20212012260
:100E9300BCD20212012217D30212012251D3021231
:100EA3000122A2D302120122D8D30212012212D4A8
:100EB3000212012240D40212012263D4021201223F
:100EC300A9A603120122D5A60312012230A70312F9
:100ED30001223AA7031201224AA703120122618EBB
:100EE30003120122868E03120122B08E0312012205
:100EF30073A90312012201850112012261870112E4
:100F03000122178901120122098A01120122908A02
:100F130001120122108B011201223D8B01120122C9
:100F23005E8E01120122DA8E01120122C98F011293
:100F33000122019001120122449001120122F09139
:100F43000112012245920112012292920112012201
:100F530000930112012227930112012241930112EE
:100F630001225694011201226694011201229195E5
:100F730001120122B39501120122E9950112012206
:100F8300909701120122CF9701120122FB980112BF
:100F9300012257AA031201222AA90312012269A9D5
:100FA3000312012244AA0312012254A703120122AD
:100FB30064A70312012279A703120122DFA70312F8
:100FC3000122D5A30312012259A403120122BFA4B3
:100FD3000312012211FF011201222DFF011201222E
:100FE30086FF01120122D0FF0112012286FD0212A7
:100FF3000122A3FD02120122C0FD02120122E3FD20
:101003000212012209FE021201227DFE02120122B6
:10101300A1FE02120122AD87031201223D880312B1
:101023000122BB88031201223B8903120122D189C9
:1010330003120122608A031201226A8A0312012227
:10104300798A031201228F8A03120122A28A0312D0
:101053000122038B03120122178B03120122DE9F4D
:101063000312012200A00312012229A0031201226C
:10107300C2A003120122DAA0031201221CA103124F
:10108300012234BD021201223EBD021201227EBDA5
:1010930002120122C7BD0212012201BE0212012265
:1010A3005BBE021201227ABE021201221CC102128D
:1010B300012225C10212012276C1021201229FC11F
:1010C30002120122A9C10212012215C20212012237
:1010D300A9C20212012208C30212012236C302125C
:1010E3000122B6C302120122F9C30212012234C43F
:1010F3000212012246C40212012265C40212012215
:101103006EC40212012238C502120122579E031235
:101113000122AC9E031201221A9F031201228A9F0D
:1011230003120122327D001201225C7D0012012292
:10113300317E00120122257F00120122D8A403125E
:101143000122419703120122779703120122B097DC
:10115300031201220999031201226DA8031201222D
:1011630083A8031201228DA8031201229D7F00127E
:10117300012264C50212012221C6021201225CC6A9
:101183000212012284C602120122E6C602120122C1
:1011930032C7021201228BC7021201221AC802129D
:1011A30001221CC902120122D7CA0212012259CB01
:1011B30002120122BECB02120122D5CB021201225E
:1011C300DECC021201221CCD021201220080031286
:1011D3000122198003120122BD8003120122FD8026
:1011E30003120122168103120122498103120122F3
:1011F300968103120122CA81031201220C82031277
:101203000122008002120122898302120122118528
:10121300021201226885021201228785021201222D
:10122300058602120122A387021201228788021275
:101233000122718C02120122418D02120122FD9AB8
:10124300031201220B9B03120122779B031201223B
:10125300039C031201220F9C03120122209C031200
:101263000122369C0312012226DC02120122F8DC41
:101273000212012223DF02120122E2DF0212012203
:10128300A0E002120122BDE1021201224EF9021274
:10129300012293F902120122B0F90212012227FA64
:1012A3000212012263FA0212012257FB02120122E7
:1012B3004DFD02120122EFA903120122B8A9031264
:1012C30001221BAA03120122E0FF02E0667010084C
:1012D300A3E066700A08A3E066700408A3E0662230
:1012E300C3E7960809E7960809E7960809E79622EF
:1012F300C3E09608A3E09608A3E09608A3E096222D
:10130300C008C3E096F50808A3E096420808A3E0E6
:1013130096420808A3E09645087001D3D008220836
:101323000808EAC0E0EBC0E086F0E7A4FA180986F3
:10133300F0E7A42AFA180986F0E7A42AFA1809861E
:10134300F0E7A42AFA1986F0E7A4FBE5F02AFA19D4
:101353000886F0E7A42BFBE5F03AFA190886F0E7D4
:10136300A42BFBE5F03AFA18180986F0E7A4C5F0B8
:101373002BFBE43AFA1908E7C5F0C6A426F6E5F014
:101383003BFBE43AFA1886F0E7A4F6E5F00826F604
:10139300E43B08F6E43A08F6D0E0FBD0E0FA22E4B6
:1013A300CFC0E0E4CEC0E0E4CDC0E0E4CCC0E07563
:1013B300F020E626F608E633F608E633F608E633C9
:1013C300F6181818EC33FCED33FDEE33FEEF33FF64
:1013D300C3EC9709ED9709EE9709EF97191919408F
:1013E3000FFFEC97FC09ED97FD09EE97FE1919061F
:1013F300D5F0BFECF709EDF709EEF709EFF7191987
:1014030019D0E0FCD0E0FDD0E0FED0E0FF22601672
:10141300080808C6C313C618C613C618C613C618C9
:10142300C613C6D5E0EA2270090808082260161818
:101433001818C6C333C608C633C608C633C608C69B
:1014430033C6D5E0EA22E627F60809E637F60809A7
:10145300E637F60809E637F622E026F608A3E03673
:10146300F608A3E036F608A3E036F622E026F008F5
:10147300A3E036F008A3E036F008A3E036F022C379
:10148300E697F60809E697F60809E697F60809E6E7
:1014930097F622C3E096F008A3E096F008A3E0963F
:1014A300F008A3E096F022E657F60809E657F60897
:1014B30009E657F60809E657F622E056F608A3E0D0
:1014C30056F608A3E056F608A3E056F622E056F0D7
:1014D30008A3E056F008A3E056F008A3E056F02274
:1014E300E0F608A3E0F608A3E0F608A3E0F622E698
:1014F300F008A3E6F008A3E6F008A3E6F022E0FA7A
:10150300A3E0FBA3E0FCA3E0FD22EAF0A3EBF0A33E
:10151300ECF0A3EDF022E0F8A3E0F9A3E0FAA3E0F6
:10152300FB22E8F0A3E9F0A3EAF0A3EBF022CAC0A0
:10153300E0E6F0A308DAFAD0E0FA22CAC0E0E0A3BA
:10154300C582CCC582C583CDC583F0A3C582CCC576
:1015530082C583CDC583DAE6D0E0CA22C3E498F816
:10156300E499F91215A08026C3E49AFAE49BFBE9F7
:1015730020E7E91215A0E498F8E499F922C3E49866
:10158300F8E499F91215A0E498F8E499F9C3E49AF8
:10159300FAE49BFB22EB20E7CFE920E7E0B9001058
:1015A300BB0008E88AF084F8AAF022E4FBC8FA2218
:1015B300EB70227B10C833C8C933C9335007C39AB1
:1015C300C3DBF280069A50012ADBEAC833F4C8C9A8
:1015D30033F4C9FA2275F008E4C833C8C933C933F0
:1015E300C99AC99B5004C92AC93BD5F0ECFBC8333F
:1015F300F4C8E4C9FA22600D08C6A2E713C618C6E8
:1016030013C6D5E0F322600C08C6C313C618C6136D
:10161300C6D5E0F422700422600D18C6C333C60891
:10162300C633C6D5E0F41822251810AF08F51840C4
:101633000C15198008F51840021519D2AF2200C005
:10164300D0251810AF08F518500C05198008F518A7
:1016530050020519D2AFD0D0222518F58210AF0859
:10166300F518400C15198008F51840021519D2AF6A
:10167300851983222518F582E43519F58322251867
:10168300F8E43519F9222518FAE43519FB2225184F
:10169300FCE43519FD22E4732518C582C0E0E51981
:1016A30034FFC583C0E0E518C3958224F810AF0862
:1016B3008583198582188008858319858218D2AF9E
:1016C300CEF0A3E520F0A37808E608F0A3DEFAEF56
:1016D300F0A3E58124FAF8E608F0A3E608F0A3E610
:1016E30008F0A30808E608F0A3E608F0A31581159F
:1016F30081D0E0FED0E0F8158115811581E8C0E0C6
:10170300EEC0E0222518C582C0E0E51934FFC58389
:10171300C0E0E518C3958224F910AF0885831985C5
:1017230082188008858319858218D2AFCEF0A3E58D
:1017330020F0A37808E608F0A3DEFAEFF0A3E58132
:1017430024FBF8E608F0A3E608F0A30808E608F08F
:10175300A3E608F0A315811581D0E0FED0E0F815CB
:10176300811581E8C0E0EEC0E022851983851882E7
:10177300E0A3FEE0A3F5207808E0A3F608DFFAE093
:10178300A3FFE0A3C0E0E0A3C0E0E0A3C0E0E0A3C8
:10179300C0E0E0A3C0E010AF0885821885831980FC
:1017A30008858218858319D2AFD083D08202011FA6
:1017B300851983851882E0A3FEE0A3F5207808E06D
:1017C300A3F608DFFAE0A3FFE0A3C0E0E0A3C0E0D4
:1017D300E0A3C0E0E0A3C0E010AF088582188583D2
:1017E300198008858218858319D2AFD083D08222CD
:1017F300C0D02518C582C0E0E51934FFC583C0E019
:10180300E518C3958224F310AF08858319858218E0
:101813008008858319858218D2AFC8F0A3E9F0A3A5
:10182300EAF0A3EBF0A37908E709F0A3D8FAECF008
:10183300A3EDF0A3EEF0A3EFF0A3D0E0F0A3D0E08C
:10184300F0A3D0E0F0A3E520F0A3E5F0F0A3228518
:101853001983851882E0C0E0A3E0F9A3E0FAA3E0CE
:10186300FBA37808E0F608A3DFFAE0FCA3E0FDA3FE
:10187300E0FEA3E0FFA3E0C0E0A3E0C0E0A3E0F547
:10188300D0A3E0F520A3E0A3F5F010AF08858319FA
:101893008582188008858319858218D2AFD082D0BB
:1018A30083D0E0F8D0E032740480067402800274BE
:1018B30001C0E0F40412165CD0E012153122740466
:1018C300800474028000CCC0E0EDC0E0E518C39C46
:1018D300CCAD1950011D10AF068C188D1980068CE4
:1018E300188D19D2AF12153ED0E0FDD0E0FC22D006
:1018F30083D082E9C0E0E493A3C386F0C5F095F0FA
:10190300F908E493A386F0C5F095F0700BE493A374
:10191300C3994005E9048002A3E475F002A425827B
:10192300F582E5F03583F583D0E0F9E493A3C0E0D5
:10193300E493C0E022D083D082ECC0E0EDC0E0E4C9
:1019430093A3FCE493A3FDED4C600D121984EC24E6
:10195300FFFCED34FFFD80EFE493A3FCE493A3FDD0
:10196300ED4C600D1219C3EC24FFFCED34FFFD8038
:10197300EFD0E0FDD0E0FCE493A3C0E0E493C0E04B
:1019830022C0E0C3E49396087401939618400FE4D1
:101993009366700808740193661870007019A3A306
:1019A300C3E49396087401939618A3A3400DD0E063
:1019B300D0E0D0E0021974A3A3A3A3A3A3D0E02291
:1019C300C0E0C0F088F0E493667008087401936681
:1019D300187000A8F0A3A3700BD0F0D0E0D0E0D033
:0B19E300E0021974A3A3D0F0D0E022B2
:1019F00074F5121707EAFEEBFFEE2434F8EF34001B
:101A0000F988088909EE2435F582EF3400F583E082
:101A1000F8EE2437F582EF3400F583E0F50AEC8523
:101A20000AF0A4FCAAF0850AF0EDA42AFDE82CF83F
:101A3000E43DF97A257B001215A0EA850882850924
:101A400083F0F8740758F97401B900028004C333B5
:101A5000D9FCFAE8131313541FF8EE28F8EF3400FA
:101A6000F9E8245DF582E93400F583E05A6008EE78
:101A70002434F582EF802CEE2434F582EF3400F527
:101A800083E0C0E0EE2436F582EF3400F583E0F524
:101A9000F0D0E084A8F0EE28F8EF3400F9E824381C
:101AA000F582E93400F583E0F97F040217B374F599
:101AB000121707EAFEEBFFEE2434F582EF3400F54F
:101AC00083E0C0E0EE2435F582EF3400F583D0E00A
:101AD000F08E828F83A3A3A3A3A3A3A3C082C083FA
:101AE0008E828F83A3A3A3A3A3E0F8A3E0F9D083FE
:101AF000D082E0C398F508A3E099F509EE247FF5BC
:101B000082EF3400F583E064017069EE2480F58291
:101B1000EF3400F583E0F8A3E0F98E828F83A3A36E
:101B2000A3A3A3A3A3E0FCA3E0FD8E828F83A3A3C2
:101B3000A3A3A3E0FAA3E0FBC3EA9CEB9D5010C370
:101B4000EC98ED99402EC3EA98EB995027800EC38C
:101B5000EA98EB994007C3EC98ED9940177CDC7D3F
:101B600004EEFAEFFB120ADCEE247FF582EF34007C
:101B7000F583E4F0EE2434F8EF3400F9E8FCE9FDF5
:101B8000EE2435F582EF3400F583E0F8EE2437F5E6
:101B900082EF3400F583E0F50AE508850AF0A4F544
:101BA00008AAF0850AF0E509A42AF509E82508F84D
:101BB000E43509F97A257B001215A0EA8C828D8321
:101BC000F0F8740758F97401B900028004C333D9DE
:101BD000FCFAE8131313541FF8EE28F8EF3400F959
:101BE000E8245DF582E93400F583E05A6008EE24CC
:101BF00034F582EF802CEE2434F582EF3400F58347
:101C0000E0C0E0EE2436F582EF3400F583E0F5F035
:101C1000D0E084A8F0EE28F8EF3400F9E82438F595
:101C200082E93400F583E0F9122505021AA9C08281
:101C3000C083851882851983E0F8A3E0F9C3EA9C84
:101C4000EB9D5010C3EC98ED99401BC3EA98EB99BB
:101C50005014800EC3EA98EB994007C3EC98ED99B5
:101C60004004790180027900D083D08222EAC39CAB
:101C7000FAEB9DFB2274EF1217079003A2E06408B1
:101C80006005E06407702A9061C8E060249003D08A
:101C9000E0F4601DE0F875F003A4C8AAF02AF97416
:101CA000D228FE740339FF8E828F83A3A3A3E07032
:101CB00003021DA5906060E0C0E0EE2468F582EFAD
:101CC0003400F583D0E0F0750C45750D05750800FE
:101CD000750900E5D914F50AE5D95403F50E601726
:101CE0007403650E605CE50A6010EE2467F582EF10
:101CF0003400F583E07003021D8A900540E0640122
:101D0000602AEE2482F582EF3400F583E0600478E7
:101D10000480027800850A08E508C398FA95E0FB7C
:101D20001209A48A088B09EA45097005120CD480AF
:101D300074EE2482F582EF3400F583E070048A0C9F
:101D40008B0DE50A6012850C82850D83F50BE5D9B4
:101D5000F0A3150BE50B70F6EE2482F582EF34004C
:101D6000F583E0604474FC250AF50A780C1218AE7D
:101D7000AC0AA90EEEFAEFFB120B7E7402121641AA
:101D8000E97026AA08AB09121112793D8E828F8361
:101D9000A3A3A3A3E0FA7B00120878EEFAEFFB12EC
:101DA0000AF4120B90790080747403650E605685F6
:101DB0000A1075110078101218AEAC0CAD0DAA08FF
:101DC000AB09120B5A7402121641EE2468F582EF29
:101DD0003400F583E064807004747F8001E0F50CCA
:101DE000780C1218B2E50EF50C780C1218B2A90A8C
:101DF000AC08AD099003D0E0FA7B0012083C7402F5
:101E000012164180139003A2E06408600BAC0CAD85
:101E10000DEEFAEFFB120BEA120CE079017F0A02D9
:101E200017B374F512170774FC12162BEAFEEBFFBA
:101E30008908A2AFE433F509C2AF806AEE2463F8E3
:101E4000EF3400F97A007B00A2AFE433F50AC2AFA9
:101E500088828983E0FCA3E0FDEC4D603A888289AA
:101E600083E0FAA3E0FB8A828B83E0FCA3E0FD8899
:101E7000828983ECF0A3EDF08A828B83E4F0A3F0F7
:101E800088828983E0FCA3E0FDEC4D700A8882899A
:101E900083A3A3E4F0A3F0E50AA2E092AF1211122B
:101EA0009004E3E004F0EE2463F582EF3400F58360
:101EB000E0F8A3E0F9E849603DEE2463F582EF34F1
:101EC00000F583E02402FAA3E03400FBEA2402F5E3
:101ED0000AEB3400F50B780A1218AE8A828B83E085
:101EE000FCA3E0F9EEFAEFFB120B18740212164194
:101EF000E97003021E3C9004E3E060639004E4E0B8
:101F0000F89004E3E0C398500C7402650870509098
:101F100004E5E0604A8E828F83A3A3A3A3E0851823
:101F200082851983F0A3E4F09004E3E0F8740212D0
:101F30001677E8F0A3E4F09004E3E0F89004E2E020
:101F400028F07402121677AC82AD83851882851949
:101F500083AA82AB8379011208489004E3E4F0E598
:101F600009A2E092AF7404121641021AA9000000FF
:101F70008521878522C622C0E0C0D0E8C0E0E9C044
:101F8000E0EAC0E0EBC0E0ECC0E0EDC0E0EEC0E0B5
:101F9000C008C009C00AC00BC082C083C0F0A2AF95
:101FA000E433FEC2AF759B00906182E0A2E0501264
:101FB000E591A2E0500C7591FE7401652170031249
:101FC0001C75E0A2E55051E591A2E5504B7591DFFB
:101FD0009003A2E064076005E06408702374016563
:101FE00021703579019003D0E0FA75F003A4CAA8F6
:101FF000F028FB74D22AFA74033BFB121E228018CD
:10200000E0640D70139003C4E004F064287002E4EF
:10201000F07A00E0F9120CE6906182E0A2E640035B
:102020000220BEE591A2E640030220BE7591BF905A
:1020300003A2E064057008120C14120C2080031235
:102040000C1A752100120C74E99003A3F0790012A8
:102050000C68120A527A017B009003A1E0F9121079
:10206000E2907803E064427055900544E014F0700B
:102070004DC2AF12207600782AD0E0F618D0E0F6F4
:10208000E59F540770057509FF800375097FC4C07B
:10209000E07829E6F50808E65509F509740B780893
:1020A000121609D0E02508F8906270E0A2E740F827
:1020B000E8C333906272F0906270E0D2E0F0906119
:1020C00081E0A2E35009E5E9A2E3500375E9F7A333
:1020D000E0A2E75009E591A2E7500375917FEEA2D7
:1020E000E092AFD0F0D083D082D00BD00AD009D00C
:1020F00008D0E0FED0E0FDD0E0FCD0E0FBD0E0FA7C
:10210000D0E0F9D0E0F8D0D0D0E032C0E0C0D0C00C
:1021100082C083906183E0A2E05009E5BFA2E05055
:102120000375BFFEE0A2E15009E5BFA2E1500375CF
:10213000BFFDE0A2E25009E5BFA2E2500375BFFB7C
:10214000E0A2E35009E5BFA2E3500375BFF7E0A2A8
:10215000E45009E5BFA2E4500375BFEFE0A2E550EB
:1021600009E5BFA2E5500375BFDFE0A2E65009E52F
:10217000BFA2E6500375BFBFD083D0828088C0E085
:10218000C0D0E8C0E0E9C0E0EAC0E0EBC0E0ECC0ED
:10219000E0EDC0E0C0F0E5A7A2E6500FE5A1A2E6A1
:1021A000500953A7BF75A1BF1221E3E5A7A2E550CF
:1021B0000CE5A1A2E5500653A7DF75A1DFE5A7A2B4
:1021C000E15009E5A1A2E1500375A1FDE5A7A2E256
:1021D000500CE5A1A2E2500653A7FB75A1FBD0F07D
:1021E0000220F474F81217077521019003A2E0642D
:1021F000067015120BAE8A828B83A3A3A3A3A3A39D
:10220000E0FAA3E0FB120C02A2AFE433FED2AF90DF
:1022100003A8E0640170187A207B009003A1E0F924
:102220001211F07A207B009003A1E0F91210E890DF
:102230006182E0D2E6F0900541E0602185C622800F
:10224000169003A7E064017008E5C654F84405F54C
:10225000C653BEFC121F707401652160E4EEA2E05B
:1022600092AF7F010217B3008E238F2485822885C9
:102270008327851882851983E0CEA3E0CF85288245
:10228000852783EBC9EAC8EDCBECCA75F010C3E82B
:1022900033C8E933C9EA33CAEB33CBC3EA9EF52628
:1022A000EB9FF525B35004AB25AA26EC33CCED33D8
:1022B000CDD5F0DAAE23AF242274ED1217078A08C9
:1022C0008B098C0A8D0B7413121677780C1214E399
:1022D0007808790C1212E37510017511C875120097
:1022E00075130050127808790C121482781079084E
:1022F0001212E350168010780C79081214827810AC
:10230000790C1212E340047901800279007F0C02FB
:1023100017B374ED1217078A088B098C0A8D0B749A
:1023200013121677780C1214E3780C79081212E362
:1023300040117808790C121482AA08AB09AC0AADD6
:102340000B8022751000751100751200751301784D
:1023500010790C12148278107908121449AA10AB63
:1023600011AC12AD1380A68A828B837508FF7509A4
:10237000FF750AFF750B0078081214D07F0402174E
:10238000B374F51217078C828D8378081214E38AD0
:10239000828B837808121496EA2404F8EB3400F94F
:1023A0008C828D83A3A3A3A3E0FCA3E0FD88828994
:1023B00083C3E09CF0A3E09DF088828983C3E0940E
:1023C00020A3E0944E40268A828B837508FF75090E
:1023D000FF750AFF750BFF780812146F8A828B83D2
:1023E000A3A3A3A3E02420F0A3E0344EF0022367CC
:1023F00074F5121707E9FE9004F7E0FAA3E0FBEE8C
:10240000C333F8E433F974F028F582748339F58323
:10241000E02AF508A3E03BF50978081218AE7A40E7
:102420007B427C0F7D0012226874021216418A08DA
:102430008B098C0A8D0B74107808121411AA08AB42
:10244000097F040217B374F11217078A0C8B0D8CE5
:102450000E8D0F740F121677E0FAA3E0FB741112C1
:102460001677E0F508A3E0F50978081218AEEA241B
:1024700001F508EB3400F509E4F50AF50B780C7961
:1024800008121322750871750902780C7908121365
:1024900022AA0CAB0DAC0EAD0F12226874021216FC
:1024A000418B09EA450960047A0180027A00EC2A2E
:1024B000FCED3400FD7413121677E0F8A3E0F9E8A0
:1024C000FEE9FFECF8EDF97A717B021215A088089D
:1024D00089098E828F8378081214F2ECF8EDF97A6C
:1024E000717B021215A08A088B09740578081216F0
:1024F000188E828F83A3A3A3A3E508F0A3E509F0B8
:102500007F080217B3C082C083E9906000F0D083D7
:10251000D08222C0E074F21217F3A2AFE433FED2ED
:10252000AFC2C0E5D1A2E4500653D1EF121058EE6D
:10253000A2E092AF7F01021852C0E074F21217F3CA
:10254000A2AFE433FED2AFE58AA2E35003120FE656
:10255000758A00C2EBEEA2E092AF7F01021852C072
:10256000E0C0D0E8C0E0E9C0E0A9A8D2AFC2C7E9A6
:10257000A2E7E433F8E9A2E792AFD0E0F9D0E0F8BF
:10258000D0D0D0E032C0E0C0D0E8C0E0E9C0E0EA9E
:10259000C0E0C082C083A2AFE433FAD2AF9009B5E5
:1025A000E0F8A3E0687008539AFBA374018022C28C
:1025B000E99009B5E0F8740128F0743528F582E453
:1025C0003409F583E0F5C19009B5E0C39480400279
:1025D000E4F0EAA2E092AFD083D082D0E0FAD0E07B
:0F25E000F9D0E0F8D0D0D0E032C2AF0200002234
:1025F000FFFFFFFFFFFFFFFFC082C083E9900B8852
:10260000F002288774F712169BE99002E1F07C191A
:102610007D037AFF7BFF12078E9002E274FFF0A326
:10262000F0A3E4F0A3F079051207169002E1E0F9B7
:102630001206387AAC7B071209567F0102176D74B7
:10264000F412169B8A088B09EB548060309002E1EB
:10265000E0F91210CA8A0A8B0BAE0AAF0BEE4F607C
:10266000138E828F83E064B0700312072EEEFAEFB0
:10267000FB1210B8AA08E5096480FB80047A007B8D
:102680000002285674F212169B74FC12162BEAFEF6
:10269000EBFFEE4F60387402121677EEF0A3EF12E4
:1026A0002ABBECF0A3ED122ABBAA82AB831206323E
:1026B000E9F5087073741212167712366FE50A4541
:1026C0000B60658E828F83122732EE4F700575087E
:1026D0000280557A067B0012114E8A0C8B0DA80CD5
:1026E000A90DE8497005750813803D88828983E447
:1026F00012273CA3A3EEF0A3EF123B08E50AF0A3D8
:10270000E50BF09002E71227C49002E76017E0FCA7
:10271000A3E08003EAFCEBFD8C828D831227C4705A
:10272000F38C828D83123594A90874041216410229
:102730003D0AA3A3A3A3E0FEA3E0FF22F0A3F08839
:102740008289832274F212169B890AE975F017A414
:10275000FEAFF09002E6E4F09002E41227C4600AB3
:102760001211549002E4E4F0A3F0EEFAEFFB121120
:102770004E8A088B09EA4509602FEEFCEFFD7900CF
:102780001210A09002E4E508F0A3E509F07B0080B8
:10279000081227AEE4F0A3F00BEBC3950A40F2E574
:1027A0000A9002E6F0790080027913023D0AEB7587
:1027B000F017A4F8A9F09002E4E028FAA3E0398A1F
:1027C00082F5832212332AEA4B2274F412169B7587
:1027D0000800750900740C121677123ADCFEE9FF46
:1027E000800CE5082401F508E5093400F509C3E586
:1027F000089CE5099D503285080A85090B74037809
:102800000A121618EA250AF8EB350BF98882898333
:10281000A3A3A3A3A3A312366FEE650A7003EF650B
:102820000B70BFE8FAE9FB80047A007B0080277414
:10283000F412169B7900EAA2E0501B75087A75091C
:102840008478081218AE7C047D007A8A7B0B12070C
:102850001074021216417F0402176DC082C083906B
:1028600002E712288E601C88828983A3A3E06A7025
:1028700003A3E06B8882898370E8A3A3A3A3123328
:102880002680047A007B00D083D08202011F123D93
:10289000DDE8492274EE12169B74FC12162BEAFE38
:1028A000EBFF851882851983E4F0A3F0EE24021271
:1028B0003578EE2405122AA9EE2404F50EEF122E27
:1028C0008EE024FE603924FC604624FE605224FE23
:1028D000605E24FE70030229AE24FE7003022A26E5
:1028E00024FE7003022A3524FE7003022A4424FCCD
:1028F0007003022A5324FE7003022A62022A9F9068
:1029000003007417F0A3E4122AC31203B0022A9F33
:10291000851882851983AC82AD83120734022A6F31
:10292000851882851983AC82AD8312073A022A6F1B
:10293000850C08850D097402121677AC82AD83856B
:1029400008828509831233261206568A0C8B0DAC39
:102950000CAD0DEC4D6042E4F50CF50D780C121841
:10296000AE750C00750D03780C1218AE750C017560
:102970000D03780C1218AE74081216771218C57968
:10298000161233201207767408121641E9F50C70FE
:102990000B12331C1203C8800F750C018508828549
:1029A0000983122AB1123594850C08022A72740226
:1029B000121677AC82AD83850C82850D8312332687
:1029C0001206568A108B11AC10AD11EC4D60438588
:1029D0000C82850D83A3A31218C575100075110311
:1029E00078101218AE75100175110378101218AE18
:1029F00074081216771218C579161233201207764A
:102A00007408121641E9F509700B12331C1203CE3B
:102A1000800F750901850C82850D83122AB112354C
:102A200094850908804C851882851983AC82AD8312
:102A3000120740803A851882851983AC82AD8312D3
:102A40000746802B851882851983AC82AD831207D7
:102A50004C801C851882851983AC82AD8312075285
:102A6000800D851882851983AC82AD83120758E9E1
:102A7000F508E50860298E828F83A3E06414601F47
:102A8000850E82850F83E0900300122ABB123DD988
:102A9000900301123594E508A3122AC31203AAEE8B
:102AA000FAEFFB1206D4023480F50CEF3400F50D7A
:102AB00022123DDD85188285198322F085188285D2
:102AC000198322F07C007D03850A82850B831233F3
:102AD0002A2274EE12169B74FC12162B8A0A8B0B98
:102AE0008C0E8D0FEA2405F508EB3400F5097C15F2
:102AF0007D0079007A007B031210A0E5082402F51E
:102B00000CE509122AAC8518828519838582108507
:102B1000831178101218AE850882850983A3A3A3B8
:102B2000A3122FD61218AEE5082405F510E50934D6
:102B300000F51178101218AE850C82850D831233C2
:102B40003012065074061216418A108B11AE10AF67
:102B500011E50A2402F50AE50B12357BEE4F7003EE
:102B6000022C9880177402121677123326888289F5
:102B700083EAF0A3EBF0900300E004F0900300E0A0
:102B8000C394054003022C98E4F510F51178101257
:102B900018AE7510E975110278101218AE7510EAAA
:102BA00075110278101218AE74061216771218C535
:102BB0007910EEFCEFFD123320120776740812161E
:102BC00041E9705E850882850983A3A3A3A3A3A31B
:102BD000A3E0F89002E9E0687048122FD61218AE10
:102BE0007CEA7D02E5082408FAE5093400FB1210AE
:102BF0009A7402121641E960298E828F83A3A3A3DF
:102C0000A3123326900300E0F51074027810121618
:102C10001874012510F58274033511F583EAF0A3C9
:102C2000EBF07402121677858210858311781012EA
:102C300018AE74021216771218C5850C82850D83A2
:102C4000123DEE12065C74041216418A108B11AE0E
:102C500010AF11900300E0F51075110074027810A8
:102C600012161874002510F874033511F98882893A
:102C700083A31227C47003022B5CE82403F8E93411
:102C800000F9EE4F6003022B658882898374FFF0A0
:102C9000A3F0900300E004F0900300E0600A123318
:102CA0001C1203BC7900800B8508828509831235CC
:102CB0008B790A02348074EA12169B74FE12162B6A
:102CC0008C128D13EA2405F50CEB123F58122736AF
:102CD000750800750900EA2402F510EB3400F511BF
:102CE00085188285198385820A85830B780A1218D4
:102CF000AE850C82850D83A3A3A3A3122E98121870
:102D0000AEE50C2405F50AE50D12357B780A12189C
:102D1000AE850C82850D83123DEC120650740612AE
:102D200016418A0A8B0BEA450B7003022E49EA24EE
:102D300004F50EEB122E8E1227368A828B83A3A304
:102D4000A3E0F985108285118312332612063EE92D
:102D5000F5096003022E49E4F514F51578141218EC
:102D6000AE7514E975150278141218AE7514EA756B
:102D7000150278141218AE74061216771218C57957
:102D800013AC0AAD0B85108285118312332612070E
:102D9000767408121641E9F5096003022E49900283
:102DA000E9E0F8E5087009E02402900301F08017DB
:102DB000900301E0FCE82402FAE43400FBEA6C70C2
:102DC00001EB6003022E4D850882AA82122FCD945A
:102DD00014122FC55073850E82850F83E0C0E074F6
:102DE000022A122E85D0E0F00508850E82850F8319
:102DF000A3E0C0E085080A7402250A122E85D0E0FF
:102E0000F005089002E9122E981218AE7CEA7D02B5
:102E100085080A7402250AFA74033400FB1210882C
:102E200074021216419002E9E02508F50874FF6E5D
:102E3000700374FF6F6012EE24010EEF3400FFE5A3
:102E400008C394145003022CE0E5086013123211F9
:102E50008510828511831233261203C279008014F3
:102E6000E509700375090A851282851383EEF0A3C4
:102E7000EFF0A90974021216417F0E02176D850842
:102E80000C7402250CF58274033400F5832234009F
:102E9000F50F850E82F58322123B1B2274EE12166B
:102EA0009B74FE12162B8C0E8D0FEA2405F50CEB8D
:102EB000122AAC750B00900300E4F0F50AEA240234
:102EC000F508EB3400F5098049900300E0FA900220
:102ED000E9E0F8122FCD9417122FC5400D90030092
:102EE000E0F87416C3989002E9F0122FD61218AECB
:102EF0007CEA7D0274012AFA74033400FB12108804
:102F000074021216419002E9E0F8900300E028F004
:102F1000050AE50C2416F582E50D122E89E0F8E588
:102F20000AC3984003022FAE900300E0C3941650EA
:102F30007DE50AC333F8E433F9E50C28FEE50D39E5
:102F4000FF851882851983AC82AD838E828F8312B0
:102F500033261206568A108B11AC10AD11EC4D7051
:102F600005750B018043E4F510F51178101218AEC9
:102F70007510E975110278101218AE7510EA751106
:102F80000278101218AE74061216771218C5791648
:102F90008508828509831233261207767408121673
:102FA00041E9F50B7003022EC912358780107C00B1
:102FB0007D038508828509831233261203D4A90B69
:102FC0007402023482E99400C365D03322EA28F8FF
:102FD000E43400F9E822E0F510751100781022744D
:102FE000EA12169B74FC12162B8A0C8B0D8C128D18
:102FF00013EA2405F50AEB12357B75080075090004
:10300000E50A2402F510E50B3400F51174021216DE
:103010007785820E85830F780E1218AE850A828519
:103020000B83A3A3A3A3123AC71218AEE50A240583
:10303000F50EE50B3400F50F780E1218AE851082F0
:103040008511831235811233201206507406121630
:10305000418A0E8B0FAE0EAF0FE50C2402F50EE584
:103060000D3400F50F80408882898374FFF00508D5
:10307000122E7E74FFF005089002E9E0F50C750D44
:1030800000780C1218AE7CEA7D0285080C740225CB
:103090000CFA74033400FB1210887402121641906B
:1030A00002E9E02508F508EE4F60718E828F83A358
:1030B000A3A3E0F9850E82850F8312332612063E04
:1030C000E9F509EE2404122AA9E97044E4F514F59F
:1030D0001578141218AE7514E975150278141218C3
:1030E000AE7514EA75150278141218AE740812162B
:1030F000771218C57911EEFCEFFD850E82850F83DE
:103100001233261207767408121641E9F509602772
:10311000850C82850D83123207123594E508700301
:103120000231ED123211850E82850F831233261281
:1031300003DA7900023202850882AA82EA9002E963
:103140007009E02404900301F08022E0F89003016C
:10315000E0F514E82404FCE43400FDEC651470018F
:10316000ED70C0122FCD9412122FC550B6850C826F
:10317000850D83E0C0E074022A122E85D0E0F005B0
:1031800008850C82850D83A3E0C0E0122E7ED0E07E
:1031900012322385820C85830D780C1218AE7404CC
:1031A0001216771218C5851082851183123DEE1212
:1031B000065C74041216418A0C8B0DAE0CAF0D85A3
:1031C000080C7402250CF874033400F9EE4F7003F8
:1031D000023067851882851983E0888289831232DC
:1031E00023A3E0C0E0122E7ED0E0023075E5097026
:1031F0000375090A850A82850B83123207123594FA
:10320000A9097404022E76123DDD8512828513838E
:1032100022900301E0F5F0E50884900300F07C00C3
:103220007D0322F005088518828519832274EC122B
:10323000169B74FE12162B8A088B098C0E8D0FEAD2
:103240002405FEEB3400FF851882851983AC82AD1E
:10325000838E828F831233261206568A0A8B0BEED8
:103260002418122AA9EA450B70030232F7123469B6
:10327000503285188285198312332612076A8A1004
:103280008B11EA4511606B7912AC0AAD0B8508828F
:10329000850983123326851082851183121699E9D8
:1032A000F50A7058E4F50AF50B780A1218AE8E820A
:1032B0008F83A3A3E0F50A780A1218AEEE24031256
:1032C0003578780A1218AE8E828F83123330120747
:1032D0007C7406121641E9F50A7021850C82850D71
:1032E00083E0701F8508828509831233261203E06C
:1032F0008011750A0E8009750A018004E50A6003D1
:10330000123587850C82850D83E060047900800288
:10331000A90A74021216417F0C02176D7C007D030E
:10332000850A82850B8312332A22E0FAA3E0FB226E
:10333000E0FCA3E0FD85088285098312332A22740C
:10334000EE12169B74FE12162B8A088B098C0C8DBC
:103350000DEA2405FEEB3400FF750E00851882850A
:103360001983AC82AD838E828F8312332612065668
:103370008A0A8B0BEA450B700302345512346950EC
:103380003585188285198312332612076A8A0E8BB7
:103390000FEA450F605E7912AC0AAD0B8508828595
:1033A0000983123326850E82850F83121699E9F55B
:1033B0000E600302345885088285098312366FAA8D
:1033C0000AFB12075E8A108B11A810A911E8497038
:1033D0001E7AFF7BFF12075E8A108B11A810A911BD
:1033E000E849606C88828983E50AF0A3E50BF075F3
:1033F0000A008007750E0E805F050A9002E6E0FA6B
:10340000E50AC39A504AE50A75F017A4FAABF088AA
:10341000828983A3A3E02AFAA3E03BFB8A828B8301
:10342000123581EC4D70D2750A17750B00780A12AF
:1034300018AEEEFCEFFD1210887402121641EEFC7D
:10344000EFFD8508828509831233261203E6801476
:10345000750E098003750E01123DD5850C82850D10
:1034600083123594A90E022FC0E5082402F508E561
:10347000093400F5098A828B83A3A3A3E0A2E52285
:1034800074041216417F0A02176D74EC12169B8C9D
:10349000108D11EA2405F50CEB122AAC750F00EA29
:1034A0002402F50AEB12357B850A82F58312332656
:1034B00012075E8A088B09EA4509700302356D75AB
:1034C0000E008071850C82850D83E06401704F8E43
:1034D000828F83A3A31218C58E828F83A3A3A3A375
:1034E000E0F51275130078121218AEEE2405F512ED
:1034F000EF3400F51378121218AE12332012077C45
:103500007406121641E9F50F6014850C82850D834F
:10351000E4F0123DD58510828511831235947C1715
:103520007D007900EEFAEFFB1210A08E828F83E40B
:10353000F0A3F0050E9002E6E0F8E50EC398501EE9
:10354000E50E75F017A4F8A9F0850882850983A314
:10355000A3123F62123581EC4D60030234C485082A
:103560008285098374FFF0A3F0E50F700612332003
:103570001203ECA90F023317F50AEF3400F50B2202
:10358000A3E0FCA3E0FD228E828F83123DDD850E39
:1035900082850F83E8F0A3E9F022C082C083900205
:1035A000E2E06A7003A3E06B70067AE27B028004BB
:1035B0007A007B00022887C082C08378008C828DCD
:1035C00083E06A7003A3E06B7010E875F003A4F861
:1035D000A9F0EC28FAED39FB8015088C828D83A3C5
:1035E000A3A3E06A7003A3E06B60DF7A007B0002B4
:1035F000288774F612169B1207288A828B83E5822D
:10360000458370067A007B008007A3A3A3A312332F
:1036100026023C8674F212169BE9FE740E1216778F
:1036200012366F7410121677123AE78C828D83E08F
:1036300064027036A3123DE3F50CA3E0F9A80C7404
:10364000026870037429697021750C02750D007889
:103650000C1218AE78081218AE780A1218AEEEF9ED
:103660001207A0740612164180027901023D0AE099
:10367000F50AA3E0F50B2274E812169B74FB1216F0
:103680002BE9851882851983F08A168B17ECFEEDDD
:10369000FF751000741D121677123DD9741D121695
:1036A000771235948E828F83A3A3A3E0A2E4502DDA
:1036B000741D12167712332612076A8A828B83E5ED
:1036C0008245837003023AB8790AEEFCEFFDAA1630
:1036D000AB17121699E9F5106003023ABB741F127A
:1036E0001677123AE7742112167712366F74231286
:1036F0001677E0F50EA3E0F50F8E828F83E064026B
:103700006003023A66A3123DD9850882850983A326
:10371000858212858313EE2406122AA98882898362
:10372000E0FAA3E0F9EA2400F514E439F515781479
:103730001219380100002801285B370700022820F1
:103740003803288D37002957390129823902292366
:1037500039032957390429013A663AE50E450F60C5
:1037600003023A61850C82850D83123ADCFAE9FB8B
:103770008A828B83E0850A82850B83123B121218A2
:10378000AE8A828B83A3E0FCA3E00239EBE50E4511
:103790000F6003023A61850A82850B837401F0127F
:1037A0003AEF850882850983F07C007D008E828F48
:1037B00083A3A3A3A3E02401FAA3E03400FB120631
:1037C00056EA4B60418A828B83E02402F8850A82A4
:1037D000850B83E028F0EA2404F8EB3400F98882B2
:1037E0008983E0851282851383123B24123B1212D7
:1037F00018AE8A828B83123580E5082403FAE50926
:103800003400FB0239F0850A82850B83E02404F042
:103810007C047D007900AA12AB131210A0023ABBFF
:10382000E50E450F6003023A61123AEFFEA3E0FF96
:10383000850A82850B837404F0EE850882850983EE
:10384000F0EF851282851383F07403121677AC8231
:10385000AD83EEFAEFFB1206568A0C8B0DEA450D8E
:1038600070030239048A828B83A3A3122732740166
:1038700012167785820E85830F780E1218AE7405A6
:103880001216771218C57CFF7DFF12065C740412B5
:1038900016418B0FEA450F7033850C82850D83121C
:1038A0003AC71218AE850C82850D83A31218C57C09
:1038B000027D007AEA7B841204887404121641E9BE
:1038C000700A740112167774FFF0A3F08E828F8352
:1038D000E064027039750C02750D00780C1218AE98
:1038E0008E828F83123580E5082404FAE5093400BE
:1038F000FB1210887402121641850A82850B83E040
:10390000240280097401121677EEF0A3EFF074011F
:10391000121677123AD8F07401121677A3123AD021
:10392000023A5BE50E450F6003023A61850C828521
:103930000D83123581AA16AB17120794850A82856A
:103940000B837402F0EA850882850983F085128270
:10395000851383EB023A5EE50E450F6003023A6180
:10396000123AEFF8A3E0F9850A82850B837402F01E
:10397000E8850882850983F0E98512828513830230
:103980003A5E850C82850D83123326121082EAFC82
:103990008C82A882C3950EE4950F405FE8650E7097
:1039A00002E50F70047C008022851882851983E06F
:1039B000FAE50E2AFAE50F3400FBC3EA98EB94000F
:1039C0005003E08005E50ECCC39CFCEC850A8285A3
:1039D0000B83F08C0A750B00780A1218AE850C82E6
:1039E000850D83E0250EFCA3E0350FFDAA08AB0989
:1039F0001210887402121641023ABB751007023A7F
:103A0000BBE50E450F705A850C82850D83123DD99A
:103A1000850A82850B83740712273E123AD012273B
:103A20003EA3E0851282851383F0E82402FAE9348C
:103A300000FB8A828B83123AD0123AFF123AD8A343
:103A4000123B08123AE1F0E82405F8E93400F9885D
:103A5000828983123AE1A3123B24A3A3A3A3F0809B
:103A60005A75100B8055741D1216771233261207E3
:103A7000288A828B83E5824583603D123DD9880C7C
:103A8000890DE8450D6031780E1218AE780A1218CB
:103A9000AE78081218AE7406121677E0F9EEFCEF55
:103AA000FDAA16AB17850C82850D83121699740634
:103AB000121641E9F510800375100EA91074051255
:103AC00016417F1002176DE0F50E750F00780E227B
:103AD000E085088285098322123B2E22123DDDE813
:103AE00022123B2EA3A322E0F508A3E0F5092285CC
:103AF0000C82850D83E0F8A3E0F5838882E022A3A1
:103B0000A3F08A828B83A322F088828983A3A3A354
:103B1000A322F08A828B83123B1B22E0F50A750BED
:103B200000780A22F088828983A3123B2E22E08546
:103B30000882850983A3A32274EE12169B74FE12D9
:103B4000162B8A0A8B0BECFAEDFB7414121677E035
:103B5000F510A3E0F5117416121677E0FE74181232
:103B60001677E0F50EA3E0F50F851882851983AC72
:103B700082AD831206568A0C8B0DEA450D6049858D
:103B800018828519831233261207288A828B83E5CF
:103B9000824583602FA3A3123AE7E5084509602414
:103BA000780E1218AE78101218AEEEF9AC0CAD0DFE
:103BB000AA0AAB0B85088285098312169974041230
:103BC00016418006790E80027901022FC074F61228
:103BD000169B74FE12162B740C121677123ADC85A3
:103BE0001882851983F07401121677E9F0E4F5085C
:103BF000F50978081218AE75080278081218AE7424
:103C00000412167785820885830978081218AE1287
:103C1000077C74061216417402121641806874F70C
:103C200012169BEAFEEBFF89087C197D03120794AC
:103C3000EA5402600BA908EEFAEFFB12064A800272
:103C4000790102263A74F612169B74FF6A700374A7
:103C5000FF6B70168C828D83123C8BE4F08C828D0E
:103C600083A3A3A3123C8BA380181207648A088B3A
:103C700009A808A909E849600D8882898374FF12A0
:103C8000273CA3A3E4F07F0202176D74FFF0A3F0BA
:103C90008C828D83A3A32274F612169B1207648A6A
:103CA000828B83E58245836006A3A3E0FA80027AD3
:103CB000007B0080D174F212169B8A088B09ECFEFF
:103CC000EDFF740E121677E0F50A1207648A0C8B6A
:103CD0000DA80CA90DE8497026EEFCEFFD7AFF7BDC
:103CE000FF1207648A0C8B0DA80CA90DE84970041B
:103CF0007911801688828983E508F0A3E509F088A8
:103D0000828983A3A3E50AF079007F0602176D7408
:103D1000EE12169BEAFEEBFF8C088D09890C7414D9
:103D2000121677123DD97416121677123326750DB6
:103D300000E8496003023DCD7402650C6003023D5A
:103D4000C87412121677123DE3FCA3E0F9EC2400CC
:103D5000F50EE439F50FEAF4F8EBF4F9EC58F8E570
:103D60000F59F9E849705CE5082406F8ED3400F9CC
:103D7000880A890B8882F583123DEE1207948A1017
:103D80008B11E50E65107004E50F65116042780E29
:103D90001218AE850A82850B83123DEE12079A74C3
:103DA00002121641E9F50D7027780E1218AE85083B
:103DB00082850983A3A3123DEC1207B27402121686
:103DC00041800D750D808008750D0D8003750D0BFC
:103DD000A90D0234858E828F83123DDD22E0F8A387
:103DE000E0F922123DDD88828983E022A3A3E0FC72
:103DF000A3E0FDEEFAEFFB2274E812169B74E712C3
:103E0000162B851882851983EAF0A3EBF08C168DAA
:103E100017890E7508007509007431121677E0F5E0
:103E200012A3E0F5137433121677E0F514A3E0F54E
:103E3000157435121677E0F50FE50975F003A4F84F
:103E4000A9F0851882851983123F62E0F47003A3FC
:103E5000E0F47003023F45EE2402F50CEF123F58E8
:103E6000E07003023F4585160A85170B780A121881
:103E7000AEAC14AD15AA12AB1312071C74021216C5
:103E8000418A0A8B0BEA450B7003023F45E4F510AB
:103E9000F51178101218AE74061216778582108507
:103EA000831178101218AE74091216778582108566
:103EB000831178101218AE851282851383A3A3A3F1
:103EC000A31218C57914AC0AAD0B8E828F831233FE
:103ED000261207767408121641E97069850A8285F0
:103EE0000B83A3A3A3A3123DD97402121677123534
:103EF00094850C82850D83E0A2E05018A90E74020F
:103F0000121677AC82AD838E828F8312332612060F
:103F10006EE94208850C82850D83E0A2E15026E51A
:103F20000FF50A780A1218B2A90E7403121677ACAC
:103F300082AD838E828F831233261206687401123B
:103F40001641E942080509E509C394025003023EFF
:103F500039A9087419023ABF3400F50D850C82F5B1
:103F60008322E028FEA3E039FF8E828F832274F241
:103F700012169BEAFEEBFF890B7401650B600E7451
:103F800002650B706A7901120974E97062EEFAEF4A
:103F9000FB12075E8A088B09EA45096047750A002B
:103FA000800B7C177D0079001210A0050A9002E6B4
:103FB000E0F8E50AC3985021E50A75F017A4F8A9BE
:103FC000F0850882850983A3A3E028FAA3E039FBE2
:103FD0008A828B8312288E70C98508828509837432
:103FE000FFF0A3F07C197D03EEFAEFFB12078E02BF
:103FF0003D0A74F212169B8A088B09ECFEEDFF74E1
:104000000E12167712366F900B88E0F4603D7A0935
:104010007B001210B2EA4B60328A828B8374B1F05B
:10402000A3E4123B01A3123AFFA3E508F0A3E509BC
:1040300012404EEEF0A3EF12404EA3A3E50AF0A308
:10404000E50BF0900B88E0F91210BE023D0AF08AF1
:10405000828B83A3A3A3A3A322C082C08390619079
:104060007404F0A37448F0A37402F090618074406B
:10407000F09061BC7403F09061877419F0906265F0
:10408000741BF0906249E0C3941390619C400A74E1
:1040900009F090606674018007740DF0906066E42A
:1040A000F090619A7433F0A37455F09061A0743A63
:1040B000F090053FE064017009C2919003A6746717
:1040C00080059003A67461F09025F6E493906186D4
:1040D000F09025F0E493F46027E493540FF8906196
:1040E00085E0686012E5C654804449F5C6E59E54F3
:1040F0007F644970F8E8F053C680E59E547F70FAFB
:104100007905120CC8024287C082C083E5A8F85323
:10411000A87E906181E4F0A3F0A3F0C2BA539AFEA6
:10412000C289759B00C2C275E90075910075BF0018
:1041300075A91175B905906181F0A374C0F0A3E46D
:10414000F0D2BA439A0174805842A8024287C082D2
:10415000C08374F812162B9003A4E0F8A3E0F9E8EA
:1041600049700302427C9003A4E054406023790824
:10417000851882851983AA82AB83120B3685188233
:10418000851983AA82AB831208249003A4E054BF4C
:10419000F0E054806010790C7A657B05120B369044
:1041A00003A4E0547FF0E0A2E0503190619A7433B0
:1041B000F0A37455F09061A0743AF090053FE0646C
:1041C000017009C2919003A6746780059003A674DC
:1041D00061F012082A9003A4E054FEF0E05402605B
:1041E0003190619A743FF0A3745AF09061A0747F8B
:1041F000F090053FE064017009D2919003A67471BC
:1042000080059003A6746AF012082A9003A4E05473
:10421000FDF0E0540460139025F4E493906186F07F
:104220001208309003A4E054FBF0E05408601390AF
:1042300025F5E493906186F01208309003A4E054D1
:10424000F7F0E0541060139025F6E493906186F047
:104250001208309003A4E054EFF0E05420600A12FA
:1042600008309003A4E054DFF0A3E05401600D1285
:104270000A5E1208369003A5E054FEF07408121688
:1042800041024287F0A3F0D083D08202011F74EC78
:1042900012169B74F412162B851882851983AC8232
:1042A000AD83758384758296740412153E9025F44F
:1042B00093F4600302441A907808E0C39402500318
:1042C0000243FA7404121677AC82AD837583847549
:1042D0008266740812153E851882851983858212BC
:1042E0008583137404121677AC82AD83750EFF7547
:1042F0000FFF7FFF7E00750C48750D7880157408E0
:104300006E700302438E74096E700302438E740A4A
:104310006E607B850C82850D8378081214E38C8295
:104320008D83A909E50AC9F8881074187808121451
:1043300011E5104508F8C3E098A3E099850C828543
:104340000D8378081214E340188C828D83741878DA
:1043500008121411E5104508F8E0C398F8A3E080AE
:104360001C74187808121411E5104508FAE9FB8C42
:10437000828D83E0F8A3E0F9EAC398F8EB99F9C3DA
:10438000E8950EE9950F5006880E890FEEFF0EE5B1
:104390000C2404F50CE50D3400F50DEEC394135018
:1043A000030242FE74FF650E700474FF650F602304
:1043B0008F087402780812161874482508F582745C
:1043C000783509F58378081214E385128285138302
:1043D000E508F0EC2402FCED3400FD851282851323
:1043E00083A3858212858313740C121677E5826C81
:1043F0007003E5836D60030242EC750801750900E6
:1044000078081218AE7402121677AC82AD837A7DEA
:104410007B09120FC87402121641740C1216417FE8
:104420000C02176DC082C0839061AE7468F0A374F3
:104430006AF090624574FBF0A304F053F4FD43FE70
:104440000290053F7401F09061A0E0643A90619A97
:1044500070237433F0A37455F09061A0743AF07433
:104460000164017009C2919003A6746780289003CB
:10447000A674618021743FF0A3745AF09061A07417
:104480007FF0740164017009D2919003A674718069
:10449000059003A6746A0242867F0802176DC082E7
:1044A000C0839004F1E06401700A9004F6E06004B7
:1044B000790C80027900024287C082C08375E1F1E5
:1044C0009004F4E0605B14600914605F146057149A
:1044D000705E120A709004EAE0F97AEB7B04120C29
:1044E0004A7AD67BBE7C897D8E120C807A557B55AC
:1044F0007C557D00120C569004F5E0F9120C62799F
:1045000001120CBC9004E8E0F8A3E0C82416F58280
:10451000E83400F5837488F0A3740AF0790002424D
:1045200087120A7680AF120A7C80AA120A8280A5BE
:10453000791280EA74F012169B75D90D9004D5E0BB
:10454000A2E0E4331313F89004EAE0C4333354C018
:10455000484401F5D978E8790488828983A3A3A324
:10456000E0F5D988828983A3A882A983E864EE70E4
:1045700003E9640470E378D5790488828983A3E031
:10458000F5D988828983A3A882A983E864DB7003B4
:10459000E9640470E575E1959004D5E0F97AD67B7D
:1045A00004120C50900BAA7422F0A3740AF0A374A6
:1045B00084F0A3740BF0A37484F0A3740BF0A374C1
:1045C00084F0A3740BF0A37428F0A3740AF0A3740E
:1045D00084F0A3740BF0A37440F0A3740AF0900B62
:1045E000B87484F0A3740BF0A37484F0A3740BF07C
:1045F000A37484F0A3740BF0A37484F0A3740BF081
:10460000A37484F0A3740BF0A37484F0A3740BF070
:104610009004F4E064019004E87012E0F8A3E0F57F
:10462000838882A3A37508007509088010E0F8A3A9
:10463000E0F5838882A3A3750804750900750A0054
:10464000750B00780812145C750CFF750DFF750E64
:10465000FF750F007808790C1214AA9004E8E0F8AE
:10466000A3E0C8240EF582E83400F583780812141C
:10467000F29004E8E0F8A3E0C82414F582E83400DE
:10468000F5837413F09003A27402F002449974F756
:1046900012169B9004FAE02407F5D99004EAE0C4CE
:1046A000333354C0F5D978E8790488828983A3A389
:1046B000A3E0F5D988828983A3A882A983E864EE60
:1046C0007003E9640470E39004FAE0601F78E8790D
:1046D00004FAE82413F582E93400F583E0F5D9887B
:1046E000828983A3A882A9831AEA70E690051AE05A
:1046F0002407F5D99004EAE0C4333354C04404F5E8
:10470000D978E8790488828983A3A3A3E0F5D988BE
:10471000828983A3A882A983E864EE7003E9640414
:1047200070E390051AE0601F78E87904FAE8243312
:10473000F582E93400F583E0F5D988828983A3A85E
:1047400082A9831AEA70E675E195900BAA742EF09F
:10475000A3740AF0A37484F0A3740BF0A37484F020
:10476000A3740BF0A37484F0A3740BF0A37428F06B
:10477000A3740AF0A37484F0A3740BF0A37440F044
:10478000A3740AF0900BB87484F0A3740BF0A374B4
:1047900084F0A3740BF0A37484F0A3740BF0A374DF
:1047A00084F0A3740BF0A37484F0A3740BF0A374CF
:1047B00084F0A3740BF09004E8E0F8A3E0C8240EA2
:1047C000F582E83400F58374FFF0A3F0A3F0A3F0C2
:1047D0009004E8E0F8A3E0C82414F582E83400F57A
:1047E000837412F09003A27401F0FF02176D74F746
:1047F00012169B9004FAE02407F5D99004EAE0C46D
:10480000333354C04402F5D978E879048882898327
:10481000A3A3A3E0F5D988828983A3A882A983E80A
:1048200064EE7003E9640470E39004FAE0601F78BA
:10483000E87904FAE82413F582E93400F583E0F519
:10484000D988828983A3A882A9831AEA70E675E1D0
:1048500095900BAA743AF0A3740AF0A3743AF0A3EB
:10486000740AF0A3743AF0A3740AF0A3743AF0A3A4
:10487000740AF0A3743AF0A3740AF0A3743AF0A394
:10488000740AF0A37440F0A3740AF0900BB8748417
:10489000F0A3740BF0A37484F0A3740BF0A37484DE
:1048A000F0A3740BF0A37484F0A3740BF0A37484CE
:1048B000F0A3740BF0A37484F0A3740BF09004E8DD
:1048C000E0F8A3E0C8240EF582E83400F58374FF15
:1048D000F0A3F0A3F0A3F09004E8E0F8A3E0C8246C
:1048E00014F582E83400F5837414F09003A2740484
:1048F000F0024BB574F712169B9004FAE02407F50A
:10490000D99004EAE0C4333354C04406F5D978E8BA
:10491000790488828983A3A3A3E0F5D98882898357
:10492000A3A882A983E864EE7003E9640470E390AD
:1049300004FAE0601F78E87904FAE82413F582E9C4
:104940003400F583E0F5D988828983A3A882A983FE
:104950001AEA70E690051AE02407F5D99004EAE017
:10496000C4333354C04404F5D978E8790488828983
:1049700083A3A3A3E0F5D988828983A3A882A9830E
:10498000E864EE7003E9640470E390051AE0601FC8
:1049900078E87904FAE82433F582E93400F583E015
:1049A000F5D988828983A3A882A9831AEA70E6755B
:1049B000E195900BAA7434F0A3740AF0A37484F008
:1049C000A3740BF0A37484F0A3740BF0A37484F0AD
:1049D000A3740BF0A37484F0A3740BF0A37484F09D
:1049E000A3740BF0A37440F0A3740AF0900BB87496
:1049F00084F0A3740BF0A37484F0A3740BF0A3747D
:104A000084F0A3740BF0A37484F0A3740BF0A3746C
:104A100084F0A3740BF0A37484F0A3740BF09004DF
:104A2000E8E0F8A3E0C8240EF582E83400F58374CA
:104A3000FFF0A3F0A3F0A3F09004E8E0F8A3E0C82F
:104A40002414F582E83400F5837415F09003A27401
:104A500003F0024BB5C082C0839004E8E0F8A3E005
:104A6000C82406F582E83400F583E402428474F732
:104A700012169B9003D0E0F875F003A4C8AAF02AA0
:104A8000F974D228F8740339F9E82405FAE93400F6
:104A9000FB8A828B83E0FCA3E0FD88828983A3A349
:104AA000A3A3A3A3A3A3A3ECF0A3EDF0888289831F
:104AB000A3A3A3A3A3A3A3E024FFF8A3E034FFF9D7
:104AC0008A828B83E8F0A3E9F0024BB574F71216E3
:104AD0009BEAFEEBFF9061D0E06003024BA975D921
:104AE0000E75D90375D904EE248BF582EF3400F5E9
:104AF00083E5822408F8E5833400F9E0F5D9A3E8DA
:104B000065827003E9658370F2EE2483F582EF34E9
:104B100000F583E5822404F8E5833400F9E0F5D953
:104B2000A3E865827003E9658370F275E195790801
:104B3000EE248BFAEF3400FB120B2A7904EE248367
:104B4000FAEF3400FB120B2A7C00EEF8EFF9ECFAD6
:104B5000C3E49AFA95E0FBEE2AFAEF3BFBEA248ADB
:104B6000F582EB3400F583E0C0E0E824AAF582E9A1
:104B70003400F583D0E0F00C88828983A3A882A951
:104B800083ECC3940840C7EE246FF582EF3400F540
:104B900083E0F8A3E0F9EE2471F582EF3400F583A9
:104BA000E8F0A3E9F07901800279008008F0EEA234
:104BB000E092AF79007F0102176DC082C08375D982
:104BC0000275D90375D90575E195EA246FF582EB75
:104BD0003400F583E0F8A3E0F9EA2471F582EB34C0
:104BE00000F583E8F0A3E9F0790102428774F61238
:104BF000169BEAFEEBFF9005457406F075084575B7
:104C0000090578081218AE7C017903120B7874023A
:104C100012164175D90675D903758245758305E06D
:104C2000F5D9A3E582644A7004E583640570F075E4
:104C3000E1959003A2E06408701EEE246FF582EF08
:104C40003400F583E0F8A3E0F9EE2471F582EF3447
:104C500000F583E8F0A3E9F07901024EBB74F61287
:104C6000169BEAFEEBFF9061D0E07066780190053C
:104C700045740BF09003A2E0640770197508457540
:104C8000090578081218AE7C017903120B787402BA
:104C90001216417805740128F5D975D90375824536
:104CA000758305E8FAE0F5D9A31AEA70F875E1957D
:104CB000EE246FF582EF3400F583E0F8A3E0F9EE1F
:104CC0002471F582EF3400F583E8F0A3E9F079016F
:104CD00080027900024EBB74F712169BEAFEEBFFCE
:104CE00075D90375D90375D90DEE24DDF582EF343E
:104CF00000F583E0F5D975E1957904120C86EE2470
:104D00006FF582EF3400F583E0F8A3E0F9EE24714B
:104D1000F582EF3400F583E8F0A3E9F07901024B66
:104D2000B574F612169BEAFEEBFF9061D0E0F874C2
:104D300080C398FAEE2482F582EF3400F583E060B8
:104D400004780480027800E8240BF8EAC398500342
:104D5000024DE67D09900545EDF0EE24E2F8EF34D2
:104D600000F97A467B057C0888828983E08A828BF9
:104D700083F088828983A3A882A9838A828B83A3F4
:104D8000AA82AB831CEC70E0EE2482F582EF340043
:104D9000F583E0601D75084575090578081218AEA1
:104DA0007C097903EEFAEFFB120B787402121641BC
:104DB0007D0D74012DF5D975D9037582457583056F
:104DC0008D08E0F5D9A31508E50870F675E1957929
:104DD00004120C86EE241DF582EF3400F583E4F016
:104DE000A3F0790180027900024EBB74F612169B83
:104DF000EAFEEBFF9061D0E0F87480C398FAEE24ED
:104E000082F582EF3400F583E06004780480027854
:104E100000E82408F8EAC3985003024EB9780690D7
:104E20000545740CF09003BFE0900546F09003C078
:104E3000E0900547F09003C1E0900548F09003C270
:104E4000E0900549F09003C3E090054AF0EE24821B
:104E5000F582EF3400F583E0601B750845750905A0
:104E600078081218AE7C067903EEFA120B787402F9
:104E7000121641780A740128F5D975D9037582454F
:104E80007583058808E0F5D9A31508E50870F6755F
:104E9000E1957904120C86EE246FF582EF3400F56B
:104EA00083E0F8A3E0F9EE2471F582EF3400F58396
:104EB000E8F0A3E9F07901800279007F0202176D22
:104EC00074F612169BEAFEEBFF9061D0E0F8748056
:104ED000C398FAEE2482F582EF3400F583E0600493
:104EE000780480027800E82404F8EAC398500302AA
:104EF0004F9A7802900545E8F0EE24F4F582EF34FD
:104F000000F583E0900546F0EE2482F582EF340050
:104F1000F583E0601B75084575090578081218AE21
:104F20007C027903EEFA120B7874021216417806AD
:104F3000740128F5D975D9037582457583058808EC
:104F4000E0F5D9A31508E50870F675E195EE247330
:104F5000F582EF3400F583E4F0EE247FF582EF3440
:104F600000F583E4F0EE241DF582EF3400F583E4D0
:104F7000F0A3F07904120C86EE240DF582EF3400D4
:104F8000F583E0F8A3E0F9EE2471F582EF3400F543
:104F900083E8F0A3E9F0790180027900024EBB7446
:104FA000F612169B9061D0E0F87480C398FCEA2456
:104FB00082F582EB3400F583E060047804800278A7
:104FC00000E82404F8ECC398405B7902900545742E
:104FD00007F0EA24F5F582EB3400F583E09005460E
:104FE000F0EA2482F582EB3400F583E0601875085E
:104FF0004575090578081218AE7C0209120B787401
:10500000021216417906740129F5D975D903758202
:1050100045758305E9F8E0F5D9A318E870F875E15E
:1050200095790180027900024EBB74F512169BE956
:10503000FCA2AFE433F50AC2AF7D0080010DEA2483
:105040006EF582EB3400F583E0F8EDC398501A8DCD
:1050500008EA2508F8EB3400F9E8246AF582E93417
:1050600000F583E06C70D68024EA246EF8EB3400FF
:10507000F9E0FEEA2EFAEB3400FBEA246AF582EB53
:105080003400F583ECF088828983E004F0E50AA21D
:10509000E092AF7F0302176D74F612169BA2AFE485
:1050A00033FDC2AFEA246EF582EB3400F583E014E1
:1050B000F07C0060368C08EA2508F8EB3400F9E84B
:1050C000246BF582E93400F583E0C0E0E8246AF55A
:1050D00082E93400F583D0E0F00CEA246EF582EB2F
:1050E0003400F583E0F8ECC39840CAEA246DF582F9
:1050F000EB3400F58374FFF0EA2469F582EB3400A9
:10510000F583E4F0EDA2E092AF024EBBC082C08313
:10511000E5A8F8C2AFEA246AF582EB3400F583E92A
:10512000F0EA2469F582EB3400F583E4F0E8A2E7C5
:10513000A2E792AF02428774F312169BEAFEEBFFDE
:10514000ECFAEDFB8A828B83A3A3A3A3E0541FF0A8
:10515000EE2436F582EF3400F583E4F0F50AEEFC38
:10516000EFFD8A828B83E0C0E0EC245DF582ED34B4
:1051700000F583D0E0F0750B00E50A33333354F8C3
:10518000F50C8A828B83E0F508750900E50B780839
:105190001215F9E508A2E0502FEE2436F8EF34009E
:1051A000F988828983E0F508EE2508F508EF3400D8
:1051B000F509E5082438F582E5093400F583E50CA6
:1051C000F088828983E004F0050B050CE50BC3949D
:1051D0000840AF050A8A828B83A3AA82AB838C82A4
:1051E0008D83A3AC82AD83E50AC3940550030251BD
:1051F000627F0502176D74F712169B9003CEE06470
:105200000170030253547A009003D4E06003025308
:10521000547401F0A3E4F0A3F090043404F090047B
:1052200039F09003D7E4F0A3F0A3F0A3F09003E1EA
:1052300004F0900407E4F09003EAF0A3F0A3F0A3D5
:10524000F0A3F0A3F0A3F0900451F0900445F09087
:10525000043A7480F0A3E4F0900440F09004BCF0B1
:10526000A3F0A3F0A3F0A3F0A3F0A3F0A3F09004A5
:10527000C5F0900454F09004A4F0A3F0A3F0A3F0C0
:10528000A3F0A3F0A3F0A3F0A3F0A3F09004B0F078
:105290009004B2F09004AEF09004C8F0A3F0A3F034
:1052A000A3F0A3F0A3F0A3F0A3F078CE7903E82451
:1052B0006EF582E93400F58374FFF00A88828983F1
:1052C000A3A882A983EAC3940440E37ACE7B03783F
:1052D000DC790488828983E0C0E0EA2461F582EB0E
:1052E0003400F583D0E0F088828983A3A882A98363
:1052F0008A828B83A3AA82AB83E864E17003E964AA
:105300000470D07ACE7B0378B5790388828983A331
:10531000E0C0E0EA24E6F582EB3400F583D0E0F06B
:1053200088828983A3A882A9838A828B83A3AA8285
:10533000AB83E864BD7003E9640370CF9003CEE0F3
:1053400004F0640170089003D6E09003D0F07AD2A4
:105350007B0380047A007B00024BB5C082C083903F
:1053600003D5E4F09003D4F09003CEF0A3F0A3743F
:10537000FFF075E1F1024287C082C08378007900B6
:105380009003D5E0600478D2790388828983A3A34F
:10539000A3A3E0F902428774F612169BEAFEEBFF24
:1053A000EE2463F582EF3400F583E0F8A3E0F9E83A
:1053B00049700302543CEE2463F8EF3400F97A009C
:1053C0007B00A2AFE433F508C2AF88828983E0FC9A
:1053D000A3E0FDEC4D603A88828983E0FAA3E0FB0C
:1053E0008A828B83E0FCA3E0FD88828983ECF0A3B2
:1053F000EDF08A828B83E4F0A3F088828983E0FC5D
:10540000A3E0FDEC4D700A88828983A3A3E4F0A396
:10541000F0E508A2E092AF1211129004E2E004F06D
:105420009004E3E004F0EE2463F582EF3400F583AA
:10543000E0F8A3E0F9E84960030253B68E828F8357
:10544000A3A3A3E0600F8E828F83A3A3A3E4F090B5
:1054500003CFE014F09003CEE014F070069003D078
:1054600074FFF08E828F83A3A3E4F09004E1E070D8
:105470000D9003CFE0640170057900120C68EEFA1C
:10548000EFFB120BA8024EBB74F712169BEAFEEB61
:10549000FF8E828F83A3A3A3A3E0FA7B0012087878
:1054A000EEFAEFFB120AF4120B90024BB5C082C069
:1054B0008378B5790388828983A3E4F0888289831D
:1054C000A3A882A983E864BD7003E9640370E69031
:1054D00003B6740102428674F612169BEAFEEBFFD5
:1054E000EC2403F8ED3400F988088909EC2407F866
:1054F000ED3400F9E8FCE9FD8C828D83E0F8A3E04F
:10550000F9850882850983E0FAA3E0FB1215A0EE75
:10551000240DF582EF3400F583E8F0A3E9F08C82E6
:105520008D83E0F8A3E0F9850882850983E0FAA37A
:10553000E0FB1215A08B09EA45096013EE240DF576
:1055400082EF3400F583E02401F0A3E03400F002A0
:105550004EBB74F612169BEAFEEBFFEE242EF5828C
:10556000EF3400F583E0FCA3E0FD780079FAECFA73
:10557000EDFB1215A0EE246FF582EF3400F583E801
:10558000F0A3E9F0780079FAECFAEDFB1215A08BA4
:1055900009EA45096013EE246FF582EF3400F583C4
:1055A000E02401F0A3E03400F0024EBB74EC1216CC
:1055B0009BEAFEEBFF741412167778081214E312BC
:1055C0000C2C8A0C8B0D8C0E8D0F75100275110032
:1055D000751200751300780C79101214497510FFBC
:1055E0007511FF7512FF780C79101214AA780C123D
:1055F00018AA8E828F83E0F8A3E0F5838882A3A3A4
:105600001215011222B97404121641E960030257FF
:10561000108E828F83E02402F8A3E03400F9E8FAC8
:10562000E9FB8A828B83780812146F8A828B8375D8
:1056300008FF7509FF750AFF750B0078081214D072
:10564000EE240BF582EF3400F583C082C0838E8296
:105650008F83A3A3A3A3A3E02401F8A3E03400F95C
:10566000D083D082E0687003A3E0697005790102FD
:1056700057128E828F83A3A3A3A3A3A3A3E0240125
:10568000F0A3E03400F0EE2473F582EF3400F583EC
:10569000E064017036EE2474F582EF3400F583E0A7
:1056A000F8A3E0F98E828F83A3A3A3A3A3A3A3E00F
:1056B000687003A3E0697013EE2474F582EF340080
:1056C000F583E02401F0A3E03400F0EE247FF582BE
:1056D000EF3400F583E064017036EE2480F582EF4C
:1056E0003400F583E0F8A3E0F98E828F83A3A3A3AF
:1056F000A3A3A3A3E0687003A3E0697013EE248062
:10570000F582EF3400F583E02401F0A3E03400F0EB
:10571000790002441F74F612169BE9FEECFFEA249E
:1057200062F582EB3400F583E0640160030257BE4A
:105730009061D0E0F508EA2482F582EB3400F5832D
:10574000E060047804800278007480C39508FC95BA
:10575000E0FDEF28F8E43400F9E82402F8E9340029
:10576000F9EC98ED99A2D265D033404E740A121626
:1057700077E0F508A3E0F509EA2482F582EB34002E
:10578000F583E0601578081218AEEFFCEEF9120B05
:1057900078740212164174042FFF74012FF5D98E0C
:1057A000D9EF600F850882850983F8E0F5D9A31841
:1057B000E870F875E195790080067907800279FF35
:1057C000024EBB74F712169BA2AFE433FEC2AF8A3F
:1057D000828B83E0F8A3E0F9E8498A828B83600A30
:1057E000A3A3E0F8A3E0F5838882ECF0A3EDF08AB0
:1057F000828B83A3A3ECF0A3EDF08C828D83E4F085
:10580000A3024BAD74F712169BE96021F88C828DD0
:1058100083E08A828B83F08C828D83A3AC82AD83FC
:105820008A828B83A3AA82AB8318E870E0ECFAED3E
:10583000FB024BB574F412169B907803E06442703F
:1058400055900544E014F0704DC2AF12584E0078E8
:105850002AD0E0F618D0E0F6E59F540770057509E8
:10586000FF800375097FC4C0E07829E6F50808E6E3
:105870005509F509740B7808121609D0E02508F8C7
:10588000906270E0A2E740F8E8C333906272F09053
:105890006270E0D2E0F09003D0E0F47003025C2E7E
:1058A000E0F875F003A4C8AAF02AF974D228FE74AF
:1058B0000339FFEE2401F582EF3401F583E0F8A30C
:1058C000E0F9E849601EEE2401F582EF3401F5832A
:1058D000E0FAA3E0FBEE2400F582EF3401F583E06B
:1058E000F91210E28E828F83A3A3A3A3A3A3A3E044
:1058F000F8A3E0F98E828F83A3A3A3A3A3E8F0A368
:10590000E9F0906054E09003A9F0906055E09003B6
:10591000AAF0906056E09003ABF0906057E09003DF
:10592000ACF0906058E09003ADF0906059E09003C7
:10593000AEF090605AE09003AFF090605BE09003AF
:10594000B0F090605CE0FC9003B1F090605DE0FB33
:105950009003B2F090605EE0FD9003B3F090605F62
:10596000E0FA9003B4F09003AFE08C082508F8E467
:105970003400F98D08E82508F8E93400F98B08E8C7
:105980002508F8E93400F98A08E82508FAE934001E
:10599000FBEE24F6F582EF3400F583E02AF0A3E075
:1059A0003BF08C08EE24F8F582EF3400F583E02517
:1059B00008F0A3E03400F0EE24FAF582EF3400F5AD
:1059C00083E02401F0A3E03400F0EE24FEF582EF42
:1059D0003400F583E0F8A3E0F9E849604290600004
:1059E000E0C333FCE433FDE82CF582E93DF583E0C8
:1059F0002AF0A3E03BF0906000E0FA9003B1E0FCF5
:105A0000EAC333FAE433FBE82AF8E93BF9E8244A2D
:105A1000F582E93400F583E02CF0A3E03400F09047
:105A200003AFE070119003B2E0700BA3E07007A326
:105A3000E07003025B2B8E828F83A3A3A3A3A3E05A
:105A4000F8A3E0F9EE240DF582EF3400F583E028A9
:105A5000F8A3E039F9EE240BF582EF3400F583E882
:105A6000F0A3E9F0EE240FF582EF3400F583E4F0C3
:105A7000EE241CF582EF3400F583E06401701EEE25
:105A80002420F582EF3400F583E0F8A3E0F9EE245A
:105A90001DF582EF3400F583E8F0A3E9F09003AA46
:105AA000E06052EE241CF582EF3400F5837401F0BF
:105AB000EE2469F582EF3400F583E07038EE24734C
:105AC000F582EF3400F583E0702BEE247FF582EF52
:105AD0003400F583E0701EEE2420F582EF3400F5EB
:105AE00083E0F8A3E0F9EE241DF582EF3400F5839E
:105AF000E8F0A3E9F0906062E07003025BDE8E8262
:105B00008F83E0F8A3E0F9E82406FCE93400FDE81F
:105B10002402FAE93400FB120C268E828F83E0F80F
:105B2000A3E0C82412F582E8025BE49003B1E060D0
